{
  "_format": "hh-sol-artifact-1",
  "contractName": "FeePool",
  "sourceName": "contracts/FeePool.sol",
  "abi": [
    {
      "inputs": [
        {
          "internalType": "address",
          "name": "_registry",
          "type": "address"
        }
      ],
      "stateMutability": "nonpayable",
      "type": "constructor"
    },
    {
      "anonymous": false,
      "inputs": [
        {
          "indexed": true,
          "internalType": "address",
          "name": "index",
          "type": "address"
        },
        {
          "indexed": true,
          "internalType": "address",
          "name": "recipient",
          "type": "address"
        },
        {
          "indexed": false,
          "internalType": "uint256",
          "name": "share",
          "type": "uint256"
        }
      ],
      "name": "Burn",
      "type": "event"
    },
    {
      "anonymous": false,
      "inputs": [
        {
          "indexed": true,
          "internalType": "address",
          "name": "index",
          "type": "address"
        },
        {
          "indexed": true,
          "internalType": "address",
          "name": "recipient",
          "type": "address"
        },
        {
          "indexed": false,
          "internalType": "uint256",
          "name": "share",
          "type": "uint256"
        }
      ],
      "name": "Mint",
      "type": "event"
    },
    {
      "anonymous": false,
      "inputs": [
        {
          "indexed": true,
          "internalType": "address",
          "name": "account",
          "type": "address"
        },
        {
          "indexed": true,
          "internalType": "address",
          "name": "index",
          "type": "address"
        },
        {
          "indexed": false,
          "internalType": "uint256",
          "name": "AUMScaledPerSecondsRate",
          "type": "uint256"
        }
      ],
      "name": "SetAUMScaledPerSecondsRate",
      "type": "event"
    },
    {
      "anonymous": false,
      "inputs": [
        {
          "indexed": true,
          "internalType": "address",
          "name": "account",
          "type": "address"
        },
        {
          "indexed": true,
          "internalType": "address",
          "name": "index",
          "type": "address"
        },
        {
          "indexed": false,
          "internalType": "uint16",
          "name": "burningFeeInPB",
          "type": "uint16"
        }
      ],
      "name": "SetBurningFeeInBP",
      "type": "event"
    },
    {
      "anonymous": false,
      "inputs": [
        {
          "indexed": true,
          "internalType": "address",
          "name": "account",
          "type": "address"
        },
        {
          "indexed": true,
          "internalType": "address",
          "name": "index",
          "type": "address"
        },
        {
          "indexed": false,
          "internalType": "uint16",
          "name": "mintingFeeInBP",
          "type": "uint16"
        }
      ],
      "name": "SetMintingFeeInBP",
      "type": "event"
    },
    {
      "anonymous": false,
      "inputs": [
        {
          "indexed": true,
          "internalType": "address",
          "name": "index",
          "type": "address"
        },
        {
          "indexed": true,
          "internalType": "address",
          "name": "recipient",
          "type": "address"
        },
        {
          "indexed": false,
          "internalType": "uint256",
          "name": "amount",
          "type": "uint256"
        }
      ],
      "name": "Withdraw",
      "type": "event"
    },
    {
      "inputs": [
        {
          "internalType": "address",
          "name": "",
          "type": "address"
        }
      ],
      "name": "AUMScaledPerSecondsRateOf",
      "outputs": [
        {
          "internalType": "uint256",
          "name": "",
          "type": "uint256"
        }
      ],
      "stateMutability": "view",
      "type": "function"
    },
    {
      "inputs": [
        {
          "internalType": "address",
          "name": "_index",
          "type": "address"
        },
        {
          "components": [
            {
              "internalType": "address",
              "name": "recipient",
              "type": "address"
            },
            {
              "internalType": "uint256",
              "name": "share",
              "type": "uint256"
            }
          ],
          "internalType": "struct IFeePool.MintBurnInfo",
          "name": "_burnInfo",
          "type": "tuple"
        }
      ],
      "name": "burn",
      "outputs": [],
      "stateMutability": "nonpayable",
      "type": "function"
    },
    {
      "inputs": [
        {
          "internalType": "address",
          "name": "_index",
          "type": "address"
        },
        {
          "components": [
            {
              "internalType": "address",
              "name": "recipient",
              "type": "address"
            },
            {
              "internalType": "uint256",
              "name": "share",
              "type": "uint256"
            }
          ],
          "internalType": "struct IFeePool.MintBurnInfo[]",
          "name": "_burnInfo",
          "type": "tuple[]"
        }
      ],
      "name": "burnMultiple",
      "outputs": [],
      "stateMutability": "nonpayable",
      "type": "function"
    },
    {
      "inputs": [
        {
          "internalType": "address",
          "name": "",
          "type": "address"
        }
      ],
      "name": "burningFeeInBPOf",
      "outputs": [
        {
          "internalType": "uint16",
          "name": "",
          "type": "uint16"
        }
      ],
      "stateMutability": "view",
      "type": "function"
    },
    {
      "inputs": [
        {
          "internalType": "address",
          "name": "_index",
          "type": "address"
        },
        {
          "internalType": "address",
          "name": "_oldGovernor",
          "type": "address"
        },
        {
          "internalType": "address",
          "name": "_newGovernor",
          "type": "address"
        }
      ],
      "name": "changeGovernorShare",
      "outputs": [],
      "stateMutability": "nonpayable",
      "type": "function"
    },
    {
      "inputs": [
        {
          "internalType": "address",
          "name": "_index",
          "type": "address"
        },
        {
          "internalType": "uint16",
          "name": "_mintingFeeInBP",
          "type": "uint16"
        },
        {
          "internalType": "uint16",
          "name": "_burningFeeInBP",
          "type": "uint16"
        },
        {
          "internalType": "uint256",
          "name": "_AUMScaledPerSecondsRate",
          "type": "uint256"
        },
        {
          "components": [
            {
              "internalType": "address",
              "name": "recipient",
              "type": "address"
            },
            {
              "internalType": "uint256",
              "name": "share",
              "type": "uint256"
            }
          ],
          "internalType": "struct IFeePool.MintBurnInfo[]",
          "name": "_mintInfo",
          "type": "tuple[]"
        }
      ],
      "name": "initializeIndex",
      "outputs": [],
      "stateMutability": "nonpayable",
      "type": "function"
    },
    {
      "inputs": [
        {
          "internalType": "address",
          "name": "_index",
          "type": "address"
        },
        {
          "components": [
            {
              "internalType": "address",
              "name": "recipient",
              "type": "address"
            },
            {
              "internalType": "uint256",
              "name": "share",
              "type": "uint256"
            }
          ],
          "internalType": "struct IFeePool.MintBurnInfo",
          "name": "_mintInfo",
          "type": "tuple"
        }
      ],
      "name": "mint",
      "outputs": [],
      "stateMutability": "nonpayable",
      "type": "function"
    },
    {
      "inputs": [
        {
          "internalType": "address",
          "name": "_index",
          "type": "address"
        },
        {
          "components": [
            {
              "internalType": "address",
              "name": "recipient",
              "type": "address"
            },
            {
              "internalType": "uint256",
              "name": "share",
              "type": "uint256"
            }
          ],
          "internalType": "struct IFeePool.MintBurnInfo[]",
          "name": "_mintInfo",
          "type": "tuple[]"
        }
      ],
      "name": "mintMultiple",
      "outputs": [],
      "stateMutability": "nonpayable",
      "type": "function"
    },
    {
      "inputs": [
        {
          "internalType": "address",
          "name": "",
          "type": "address"
        }
      ],
      "name": "mintingFeeInBPOf",
      "outputs": [
        {
          "internalType": "uint16",
          "name": "",
          "type": "uint16"
        }
      ],
      "stateMutability": "view",
      "type": "function"
    },
    {
      "inputs": [
        {
          "internalType": "address",
          "name": "_index",
          "type": "address"
        },
        {
          "internalType": "uint256",
          "name": "_AUMScaledPerSecondsRate",
          "type": "uint256"
        }
      ],
      "name": "setAUMScaledPerSecondsRate",
      "outputs": [],
      "stateMutability": "nonpayable",
      "type": "function"
    },
    {
      "inputs": [
        {
          "internalType": "address",
          "name": "_index",
          "type": "address"
        },
        {
          "internalType": "uint16",
          "name": "_burningFeeInBP",
          "type": "uint16"
        }
      ],
      "name": "setBurningFeeInBP",
      "outputs": [],
      "stateMutability": "nonpayable",
      "type": "function"
    },
    {
      "inputs": [
        {
          "internalType": "address",
          "name": "_index",
          "type": "address"
        },
        {
          "internalType": "uint16",
          "name": "_mintingFeeInBP",
          "type": "uint16"
        }
      ],
      "name": "setMintingFeeInBP",
      "outputs": [],
      "stateMutability": "nonpayable",
      "type": "function"
    },
    {
      "inputs": [
        {
          "internalType": "address",
          "name": "",
          "type": "address"
        },
        {
          "internalType": "address",
          "name": "",
          "type": "address"
        }
      ],
      "name": "shareOf",
      "outputs": [
        {
          "internalType": "uint256",
          "name": "",
          "type": "uint256"
        }
      ],
      "stateMutability": "view",
      "type": "function"
    },
    {
      "inputs": [
        {
          "internalType": "address",
          "name": "",
          "type": "address"
        }
      ],
      "name": "totalSharesOf",
      "outputs": [
        {
          "internalType": "uint256",
          "name": "",
          "type": "uint256"
        }
      ],
      "stateMutability": "view",
      "type": "function"
    },
    {
      "inputs": [
        {
          "internalType": "address",
          "name": "_index",
          "type": "address"
        }
      ],
      "name": "withdraw",
      "outputs": [],
      "stateMutability": "nonpayable",
      "type": "function"
    },
    {
      "inputs": [
        {
          "internalType": "address",
          "name": "_index",
          "type": "address"
        },
        {
          "internalType": "address",
          "name": "_recipient",
          "type": "address"
        }
      ],
      "name": "withdrawPlatformFeeOf",
      "outputs": [],
      "stateMutability": "nonpayable",
      "type": "function"
    },
    {
      "inputs": [
        {
          "internalType": "address",
          "name": "_index",
          "type": "address"
        },
        {
          "internalType": "address",
          "name": "_account",
          "type": "address"
        }
      ],
      "name": "withdrawableAmountOf",
      "outputs": [
        {
          "internalType": "uint256",
          "name": "",
          "type": "uint256"
        }
      ],
      "stateMutability": "view",
      "type": "function"
    }
  ],
  "bytecode": "0x60a060405234801561001057600080fd5b50604051620020e0380380620020e08339810160408190526100319161004b565b600160005560601b6001600160601b03191660805261007b565b60006020828403121561005d57600080fd5b81516001600160a01b038116811461007457600080fd5b9392505050565b60805160601c61200e620000d26000396000818161033c015281816104a6015281816106e90152818161082a0152818161094201528181610a3701528181610e6f01528181610f410152611066015261200e6000f3fe608060405234801561001057600080fd5b50600436106100eb5760003560e01c80635ad88c1a116100925780635ad88c1a146101b757806381f28daf146101ee57806383a9b8c51461020157806383b4375814610214578063a785343614610227578063acd5d4581461024b578063bf16acec14610276578063c6c8bd0d14610289578063cdde8dce1461029c57600080fd5b806306b0e675146100f057806321ce086a1461010557806333ec8abe146101185780633ea270271461012b57806344d064841461013e57806351cff8d9146101515780635612e00b1461016457806359dc7ce214610197575b600080fd5b6101036100fe366004611c3d565b6102af565b005b610103610113366004611d1e565b610322565b610103610126366004611d53565b61046d565b610103610139366004611d1e565b6106cf565b61010361014c366004611cdd565b610810565b61010361015f366004611bc3565b6108ed565b610184610172366004611bc3565b60056020526000908152604090205481565b6040519081526020015b60405180910390f35b6101846101a5366004611bc3565b60016020526000908152604090205481565b6101db6101c5366004611bc3565b60036020526000908152604090205461ffff1681565b60405161ffff909116815260200161018e565b6101036101fc366004611c88565b610928565b61010361020f366004611dd4565b610a1d565b610184610222366004611c04565b610b62565b6101db610235366004611bc3565b60046020526000908152604090205461ffff1681565b610184610259366004611c04565b600260209081526000928352604080842090915290825290205481565b610103610284366004611c04565b610e2e565b610103610297366004611c88565b610f27565b6101036102aa366004611cdd565b61104c565b336001600160a01b038416146102e05760405162461bcd60e51b81526004016102d790611e66565b60405180910390fd5b6001600160a01b03808416600090815260026020908152604080832093861683529290522054610311848483611124565b61031c84838361145a565b50505050565b604051632474521560e21b81526000906001600160a01b037f000000000000000000000000000000000000000000000000000000000000000016906391d14854906103739084903390600401611e4f565b60206040518083038186803b15801561038b57600080fd5b505afa15801561039f573d6000803e3d6000fd5b505050506040513d601f19601f820116820180604052508101906103c39190611e00565b6103df5760405162461bcd60e51b81526004016102d790611e66565b8161271061ffff821611156104065760405162461bcd60e51b81526004016102d790611e92565b6001600160a01b038416600081815260036020908152604091829020805461ffff191661ffff8816908117909155915191825233917ff82761bcb1e4da3544055a200bff611c693fb863986f5d9f83c5754364fb3f1a91015b60405180910390a350505050565b604051632474521560e21b81527fdfbefbf47cfe66b701d8cfdbce1de81c821590819cb07e71cb01b6602fb0ee27906001600160a01b037f000000000000000000000000000000000000000000000000000000000000000016906391d14854906104dd9084903390600401611e4f565b60206040518083038186803b1580156104f557600080fd5b505afa158015610509573d6000803e3d6000fd5b505050506040513d601f19601f8201168201806040525081019061052d9190611e00565b6105495760405162461bcd60e51b81526004016102d790611e66565b6001600160a01b0387166000908152600360209081526040808320805461ffff808c1661ffff1992831617909255600484528285208054928b1692909116919091179055600590915281208590555b828110156105fd576105ed888585848181106105b6576105b6611faa565b6105cc9260206040909202019081019150611bc3565b8686858181106105de576105de611faa565b9050604002016020013561145a565b6105f681611f63565b9050610598565b5060405161ffff871681526001600160a01b0388169033907ff82761bcb1e4da3544055a200bff611c693fb863986f5d9f83c5754364fb3f1a9060200160405180910390a360405161ffff861681526001600160a01b0388169033907f5e8670ec817633e875ea4dd8db88c8ce647e2b29fd39a8e628ab7c66a0a6ccf29060200160405180910390a36040518481526001600160a01b0388169033907fc9b224f333d1c1d993c3838030eef2b2af8b7a7c0642f987a5c957e61b11e8739060200160405180910390a350505050505050565b604051632474521560e21b81526000906001600160a01b037f000000000000000000000000000000000000000000000000000000000000000016906391d14854906107209084903390600401611e4f565b60206040518083038186803b15801561073857600080fd5b505afa15801561074c573d6000803e3d6000fd5b505050506040513d601f19601f820116820180604052508101906107709190611e00565b61078c5760405162461bcd60e51b81526004016102d790611e66565b8161271061ffff821611156107b35760405162461bcd60e51b81526004016102d790611e92565b6001600160a01b038416600081815260046020908152604091829020805461ffff191661ffff8816908117909155915191825233917f5e8670ec817633e875ea4dd8db88c8ce647e2b29fd39a8e628ab7c66a0a6ccf2910161045f565b604051632474521560e21b81526000906001600160a01b037f000000000000000000000000000000000000000000000000000000000000000016906391d14854906108619084903390600401611e4f565b60206040518083038186803b15801561087957600080fd5b505afa15801561088d573d6000803e3d6000fd5b505050506040513d601f19601f820116820180604052508101906108b19190611e00565b6108cd5760405162461bcd60e51b81526004016102d790611e66565b6108e8836108de6020850185611bc3565b8460200135611124565b505050565b600260005414156109105760405162461bcd60e51b81526004016102d790611ebc565b60026000556109208133806116e4565b506001600055565b604051632474521560e21b81526000906001600160a01b037f000000000000000000000000000000000000000000000000000000000000000016906391d14854906109799084903390600401611e4f565b60206040518083038186803b15801561099157600080fd5b505afa1580156109a5573d6000803e3d6000fd5b505050506040513d601f19601f820116820180604052508101906109c99190611e00565b6109e55760405162461bcd60e51b81526004016102d790611e66565b60005b82811015610a1657610a06858585848181106105b6576105b6611faa565b610a0f81611f63565b90506109e8565b5050505050565b604051632474521560e21b81526000906001600160a01b037f000000000000000000000000000000000000000000000000000000000000000016906391d1485490610a6e9084903390600401611e4f565b60206040518083038186803b158015610a8657600080fd5b505afa158015610a9a573d6000803e3d6000fd5b505050506040513d601f19601f82011682018060405250810190610abe9190611e00565b610ada5760405162461bcd60e51b81526004016102d790611e66565b6b033b2e3c9fd0803ce8000000821015610b065760405162461bcd60e51b81526004016102d790611e92565b6001600160a01b038316600081815260056020526040908190208490555133907fc9b224f333d1c1d993c3838030eef2b2af8b7a7c0642f987a5c957e61b11e87390610b559086815260200190565b60405180910390a3505050565b600080836001600160a01b03166370a08231856001600160a01b031663c45a01556040518163ffffffff1660e01b815260040160206040518083038186803b158015610bad57600080fd5b505afa158015610bc1573d6000803e3d6000fd5b505050506040513d601f19601f82011682018060405250810190610be59190611be7565b6040518263ffffffff1660e01b8152600401610c019190611e3b565b60206040518083038186803b158015610c1957600080fd5b505afa158015610c2d573d6000803e3d6000fd5b505050506040513d601f19601f82011682018060405250810190610c519190611e22565b6040516370a0823160e01b81526001600160a01b038616906370a0823190610c7d903090600401611e3b565b60206040518083038186803b158015610c9557600080fd5b505afa158015610ca9573d6000803e3d6000fd5b505050506040513d601f19601f82011682018060405250810190610ccd9190611e22565b610cd79190611ef3565b6001600160a01b038516600090815260086020908152604080832054600190925290912054919250908015610d4c576001600160a01b038616600090815260096020526040812054610d299085611f4c565b90508015610d4a5781612710820281610d4457610d44611f94565b04830192505b505b6001600160a01b03808716600090815260026020908152604080832093891683529290529081205415610da4576001600160a01b038088166000908152600760209081526040808320938a1683529290522054610da6565b825b6001600160a01b038089166000908152600260209081526040808320938b168352929052908120549192508285039161271090610de4908490611f2d565b610dee9190611f0b565b6001600160a01b03808b166000908152600660209081526040808320938d1683529290522054909150610e219082611ef3565b9998505050505050505050565b60026000541415610e515760405162461bcd60e51b81526004016102d790611ebc565b60026000908155604051632474521560e21b81526001600160a01b037f000000000000000000000000000000000000000000000000000000000000000016906391d1485490610ea69084903390600401611e4f565b60206040518083038186803b158015610ebe57600080fd5b505afa158015610ed2573d6000803e3d6000fd5b505050506040513d601f19601f82011682018060405250810190610ef69190611e00565b610f125760405162461bcd60e51b81526004016102d790611e66565b610f1d8384846116e4565b5050600160005550565b604051632474521560e21b81526000906001600160a01b037f000000000000000000000000000000000000000000000000000000000000000016906391d1485490610f789084903390600401611e4f565b60206040518083038186803b158015610f9057600080fd5b505afa158015610fa4573d6000803e3d6000fd5b505050506040513d601f19601f82011682018060405250810190610fc89190611e00565b610fe45760405162461bcd60e51b81526004016102d790611e66565b60005b82811015610a165761103c8585858481811061100557611005611faa565b61101b9260206040909202019081019150611bc3565b86868581811061102d5761102d611faa565b90506040020160200135611124565b61104581611f63565b9050610fe7565b604051632474521560e21b81526000906001600160a01b037f000000000000000000000000000000000000000000000000000000000000000016906391d148549061109d9084903390600401611e4f565b60206040518083038186803b1580156110b557600080fd5b505afa1580156110c9573d6000803e3d6000fd5b505050506040513d601f19601f820116820180604052508101906110ed9190611e00565b6111095760405162461bcd60e51b81526004016102d790611e66565b6108e88361111a6020850185611bc3565b846020013561145a565b8282813b156111fc57816001600160a01b031663c45a01556040518163ffffffff1660e01b815260040160206040518083038186803b15801561116657600080fd5b505afa15801561117a573d6000803e3d6000fd5b505050506040513d601f19601f8201168201806040525081019061119e9190611be7565b6001600160a01b031663c0bc4e22836040518263ffffffff1660e01b81526004016111c99190611e3b565b600060405180830381600087803b1580156111e357600080fd5b505af11580156111f7573d6000803e3d6000fd5b505050505b6001600160a01b03821660009081526001602052604090205480156112f4576001600160a01b0383166000818152600960205260408082205490516370a0823160e01b8152919290916370a0823190611259903090600401611e3b565b60206040518083038186803b15801561127157600080fd5b505afa158015611285573d6000803e3d6000fd5b505050506040513d601f19601f820116820180604052508101906112a99190611e22565b6112b39190611f4c565b905080156112f257816127108202816112ce576112ce611f94565b6001600160a01b038616600090815260086020526040902080549290910490910190555b505b6112fe8383611a0d565b6001600160a01b03808716600090815260026020908152604080832093891683529290529081208054869290611335908490611f4c565b90915550506001600160a01b03861660009081526001602052604081208054869290611362908490611f4c565b92505081905550846001600160a01b0316866001600160a01b03167fbac40739b0d4ca32fa2d82fc91630465ba3eddd1598da6fca393b26fb63b9453866040516113ae91815260200190565b60405180910390a38015611452576040516370a0823160e01b81526001600160a01b038416906370a08231906113e8903090600401611e3b565b60206040518083038186803b15801561140057600080fd5b505afa158015611414573d6000803e3d6000fd5b505050506040513d601f19601f820116820180604052508101906114389190611e22565b6001600160a01b0384166000908152600960205260409020555b505050505050565b8282813b1561153257816001600160a01b031663c45a01556040518163ffffffff1660e01b815260040160206040518083038186803b15801561149c57600080fd5b505afa1580156114b0573d6000803e3d6000fd5b505050506040513d601f19601f820116820180604052508101906114d49190611be7565b6001600160a01b031663c0bc4e22836040518263ffffffff1660e01b81526004016114ff9190611e3b565b600060405180830381600087803b15801561151957600080fd5b505af115801561152d573d6000803e3d6000fd5b505050505b6001600160a01b038216600090815260016020526040902054801561162a576001600160a01b0383166000818152600960205260408082205490516370a0823160e01b8152919290916370a082319061158f903090600401611e3b565b60206040518083038186803b1580156115a757600080fd5b505afa1580156115bb573d6000803e3d6000fd5b505050506040513d601f19601f820116820180604052508101906115df9190611e22565b6115e99190611f4c565b90508015611628578161271082028161160457611604611f94565b6001600160a01b038616600090815260086020526040902080549290910490910190555b505b6116348383611a0d565b6001600160a01b0380871660009081526002602090815260408083209389168352929052908120805486929061166b908490611ef3565b90915550506001600160a01b03861660009081526001602052604081208054869290611698908490611ef3565b92505081905550846001600160a01b0316866001600160a01b03167fab8530f87dc9b59234c4623bf917212bb2536d647574c8e7e5da92c2ede0c9f8866040516113ae91815260200190565b8282813b156117bc57816001600160a01b031663c45a01556040518163ffffffff1660e01b815260040160206040518083038186803b15801561172657600080fd5b505afa15801561173a573d6000803e3d6000fd5b505050506040513d601f19601f8201168201806040525081019061175e9190611be7565b6001600160a01b031663c0bc4e22836040518263ffffffff1660e01b81526004016117899190611e3b565b600060405180830381600087803b1580156117a357600080fd5b505af11580156117b7573d6000803e3d6000fd5b505050505b6001600160a01b03821660009081526001602052604090205480156118b4576001600160a01b0383166000818152600960205260408082205490516370a0823160e01b8152919290916370a0823190611819903090600401611e3b565b60206040518083038186803b15801561183157600080fd5b505afa158015611845573d6000803e3d6000fd5b505050506040513d601f19601f820116820180604052508101906118699190611e22565b6118739190611f4c565b905080156118b2578161271082028161188e5761188e611f94565b6001600160a01b038616600090815260086020526040902080549290910490910190555b505b6118be8383611a0d565b6001600160a01b0380871660009081526006602090815260408083209389168352929052205480156119da576001600160a01b0387811660008181526006602090815260408083208b86168452909152808220919091555163a9059cbb60e01b81529187166004830152602482018390529063a9059cbb90604401602060405180830381600087803b15801561195357600080fd5b505af1158015611967573d6000803e3d6000fd5b505050506040513d601f19601f8201168201806040525081019061198b9190611e00565b50846001600160a01b0316876001600160a01b03167f9b1bfa7fa9ee420a16e124f794c35ac9f90472acc99140eb2f6447c714cad8eb836040516119d191815260200190565b60405180910390a35b508015611452576040516370a0823160e01b81526001600160a01b038416906370a08231906113e8903090600401611e3b565b6001600160a01b03808316600090815260026020908152604080832093851683529290529081205415611a65576001600160a01b03808416600090815260076020908152604080832093861683529290522054611a7f565b6001600160a01b0383166000908152600860205260409020545b6001600160a01b038416600090815260086020526040902054909150818103908214611b2d576001600160a01b03808516600090815260026020908152604080832093871683529290529081205461271090611adc908490611f2d565b611ae69190611f0b565b90508015611b2b576001600160a01b03808616600090815260066020908152604080832093881683529290529081208054839290611b25908490611ef3565b90915550505b505b50506001600160a01b03918216600090815260086020908152604080832054600783528184209490951683529290522055565b60008083601f840112611b7257600080fd5b50813567ffffffffffffffff811115611b8a57600080fd5b6020830191508360208260061b8501011115611ba557600080fd5b9250929050565b803561ffff81168114611bbe57600080fd5b919050565b600060208284031215611bd557600080fd5b8135611be081611fc0565b9392505050565b600060208284031215611bf957600080fd5b8151611be081611fc0565b60008060408385031215611c1757600080fd5b8235611c2281611fc0565b91506020830135611c3281611fc0565b809150509250929050565b600080600060608486031215611c5257600080fd5b8335611c5d81611fc0565b92506020840135611c6d81611fc0565b91506040840135611c7d81611fc0565b809150509250925092565b600080600060408486031215611c9d57600080fd5b8335611ca881611fc0565b9250602084013567ffffffffffffffff811115611cc457600080fd5b611cd086828701611b60565b9497909650939450505050565b6000808284036060811215611cf157600080fd5b8335611cfc81611fc0565b92506040601f1982011215611d1057600080fd5b506020830190509250929050565b60008060408385031215611d3157600080fd5b8235611d3c81611fc0565b9150611d4a60208401611bac565b90509250929050565b60008060008060008060a08789031215611d6c57600080fd5b8635611d7781611fc0565b9550611d8560208801611bac565b9450611d9360408801611bac565b935060608701359250608087013567ffffffffffffffff811115611db657600080fd5b611dc289828a01611b60565b979a9699509497509295939492505050565b60008060408385031215611de757600080fd5b8235611df281611fc0565b946020939093013593505050565b600060208284031215611e1257600080fd5b81518015158114611be057600080fd5b600060208284031215611e3457600080fd5b5051919050565b6001600160a01b0391909116815260200190565b9182526001600160a01b0316602082015260400190565b6020808252601290820152712332b2a837b7b61d102327a92124a22222a760711b604082015260600190565b60208082526010908201526f119959541bdbdb0e881253959053125160821b604082015260600190565b6020808252601f908201527f5265656e7472616e637947756172643a207265656e7472616e742063616c6c00604082015260600190565b60008219821115611f0657611f06611f7e565b500190565b600082611f2857634e487b7160e01b600052601260045260246000fd5b500490565b6000816000190483118215151615611f4757611f47611f7e565b500290565b600082821015611f5e57611f5e611f7e565b500390565b6000600019821415611f7757611f77611f7e565b5060010190565b634e487b7160e01b600052601160045260246000fd5b634e487b7160e01b600052601260045260246000fd5b634e487b7160e01b600052603260045260246000fd5b6001600160a01b0381168114611fd557600080fd5b5056fea264697066735822122082a24d90760ab6fbcb9417a1541ee98cbc310199dfc1baaee22e2e144091946664736f6c63430008070033",
  "linkReferences": {},
  "deployedLinkReferences": {}
}