{
  "_format": "hh-sol-artifact-1",
  "contractName": "FeePool",
  "sourceName": "contracts/FeePool.sol",
  "abi": [
    {
      "inputs": [
        {
          "internalType": "address",
          "name": "_registry",
          "type": "address"
        }
      ],
      "stateMutability": "nonpayable",
      "type": "constructor"
    },
    {
      "anonymous": false,
      "inputs": [
        {
          "indexed": true,
          "internalType": "address",
          "name": "index",
          "type": "address"
        },
        {
          "indexed": true,
          "internalType": "address",
          "name": "recipient",
          "type": "address"
        },
        {
          "indexed": false,
          "internalType": "uint256",
          "name": "share",
          "type": "uint256"
        }
      ],
      "name": "Burn",
      "type": "event"
    },
    {
      "anonymous": false,
      "inputs": [
        {
          "indexed": true,
          "internalType": "address",
          "name": "index",
          "type": "address"
        },
        {
          "indexed": true,
          "internalType": "address",
          "name": "recipient",
          "type": "address"
        },
        {
          "indexed": false,
          "internalType": "uint256",
          "name": "share",
          "type": "uint256"
        }
      ],
      "name": "Mint",
      "type": "event"
    },
    {
      "anonymous": false,
      "inputs": [
        {
          "indexed": true,
          "internalType": "address",
          "name": "account",
          "type": "address"
        },
        {
          "indexed": true,
          "internalType": "address",
          "name": "index",
          "type": "address"
        },
        {
          "indexed": false,
          "internalType": "uint256",
          "name": "AUMScaledPerSecondsRate",
          "type": "uint256"
        }
      ],
      "name": "SetAUMScaledPerSecondsRate",
      "type": "event"
    },
    {
      "anonymous": false,
      "inputs": [
        {
          "indexed": true,
          "internalType": "address",
          "name": "account",
          "type": "address"
        },
        {
          "indexed": true,
          "internalType": "address",
          "name": "index",
          "type": "address"
        },
        {
          "indexed": false,
          "internalType": "uint16",
          "name": "burningFeeInPB",
          "type": "uint16"
        }
      ],
      "name": "SetBurningFeeInBP",
      "type": "event"
    },
    {
      "anonymous": false,
      "inputs": [
        {
          "indexed": true,
          "internalType": "address",
          "name": "account",
          "type": "address"
        },
        {
          "indexed": true,
          "internalType": "address",
          "name": "index",
          "type": "address"
        },
        {
          "indexed": false,
          "internalType": "uint16",
          "name": "mintingFeeInBP",
          "type": "uint16"
        }
      ],
      "name": "SetMintingFeeInBP",
      "type": "event"
    },
    {
      "anonymous": false,
      "inputs": [
        {
          "indexed": true,
          "internalType": "address",
          "name": "index",
          "type": "address"
        },
        {
          "indexed": true,
          "internalType": "address",
          "name": "recipient",
          "type": "address"
        },
        {
          "indexed": false,
          "internalType": "uint256",
          "name": "amount",
          "type": "uint256"
        }
      ],
      "name": "Withdraw",
      "type": "event"
    },
    {
      "inputs": [
        {
          "internalType": "address",
          "name": "",
          "type": "address"
        }
      ],
      "name": "AUMScaledPerSecondsRateOf",
      "outputs": [
        {
          "internalType": "uint256",
          "name": "",
          "type": "uint256"
        }
      ],
      "stateMutability": "view",
      "type": "function"
    },
    {
      "inputs": [
        {
          "internalType": "address",
          "name": "_index",
          "type": "address"
        },
        {
          "components": [
            {
              "internalType": "address",
              "name": "recipient",
              "type": "address"
            },
            {
              "internalType": "uint256",
              "name": "share",
              "type": "uint256"
            }
          ],
          "internalType": "struct IFeePool.MintBurnInfo",
          "name": "_burnInfo",
          "type": "tuple"
        }
      ],
      "name": "burn",
      "outputs": [],
      "stateMutability": "nonpayable",
      "type": "function"
    },
    {
      "inputs": [
        {
          "internalType": "address",
          "name": "_index",
          "type": "address"
        },
        {
          "components": [
            {
              "internalType": "address",
              "name": "recipient",
              "type": "address"
            },
            {
              "internalType": "uint256",
              "name": "share",
              "type": "uint256"
            }
          ],
          "internalType": "struct IFeePool.MintBurnInfo[]",
          "name": "_burnInfo",
          "type": "tuple[]"
        }
      ],
      "name": "burnMultiple",
      "outputs": [],
      "stateMutability": "nonpayable",
      "type": "function"
    },
    {
      "inputs": [
        {
          "internalType": "address",
          "name": "",
          "type": "address"
        }
      ],
      "name": "burningFeeInBPOf",
      "outputs": [
        {
          "internalType": "uint16",
          "name": "",
          "type": "uint16"
        }
      ],
      "stateMutability": "view",
      "type": "function"
    },
    {
      "inputs": [
        {
          "internalType": "address",
          "name": "_index",
          "type": "address"
        },
        {
          "internalType": "address",
          "name": "_oldGovernor",
          "type": "address"
        },
        {
          "internalType": "address",
          "name": "_newGovernor",
          "type": "address"
        }
      ],
      "name": "changeGovernorShare",
      "outputs": [],
      "stateMutability": "nonpayable",
      "type": "function"
    },
    {
      "inputs": [
        {
          "internalType": "address",
          "name": "_index",
          "type": "address"
        },
        {
          "internalType": "uint16",
          "name": "_mintingFeeInBP",
          "type": "uint16"
        },
        {
          "internalType": "uint16",
          "name": "_burningFeeInBP",
          "type": "uint16"
        },
        {
          "internalType": "uint256",
          "name": "_AUMScaledPerSecondsRate",
          "type": "uint256"
        },
        {
          "components": [
            {
              "internalType": "address",
              "name": "recipient",
              "type": "address"
            },
            {
              "internalType": "uint256",
              "name": "share",
              "type": "uint256"
            }
          ],
          "internalType": "struct IFeePool.MintBurnInfo[]",
          "name": "_mintInfo",
          "type": "tuple[]"
        }
      ],
      "name": "initializeIndex",
      "outputs": [],
      "stateMutability": "nonpayable",
      "type": "function"
    },
    {
      "inputs": [
        {
          "internalType": "address",
          "name": "_index",
          "type": "address"
        },
        {
          "components": [
            {
              "internalType": "address",
              "name": "recipient",
              "type": "address"
            },
            {
              "internalType": "uint256",
              "name": "share",
              "type": "uint256"
            }
          ],
          "internalType": "struct IFeePool.MintBurnInfo",
          "name": "_mintInfo",
          "type": "tuple"
        }
      ],
      "name": "mint",
      "outputs": [],
      "stateMutability": "nonpayable",
      "type": "function"
    },
    {
      "inputs": [
        {
          "internalType": "address",
          "name": "_index",
          "type": "address"
        },
        {
          "components": [
            {
              "internalType": "address",
              "name": "recipient",
              "type": "address"
            },
            {
              "internalType": "uint256",
              "name": "share",
              "type": "uint256"
            }
          ],
          "internalType": "struct IFeePool.MintBurnInfo[]",
          "name": "_mintInfo",
          "type": "tuple[]"
        }
      ],
      "name": "mintMultiple",
      "outputs": [],
      "stateMutability": "nonpayable",
      "type": "function"
    },
    {
      "inputs": [
        {
          "internalType": "address",
          "name": "",
          "type": "address"
        }
      ],
      "name": "mintingFeeInBPOf",
      "outputs": [
        {
          "internalType": "uint16",
          "name": "",
          "type": "uint16"
        }
      ],
      "stateMutability": "view",
      "type": "function"
    },
    {
      "inputs": [
        {
          "internalType": "address",
          "name": "_index",
          "type": "address"
        },
        {
          "internalType": "uint256",
          "name": "_AUMScaledPerSecondsRate",
          "type": "uint256"
        }
      ],
      "name": "setAUMScaledPerSecondsRate",
      "outputs": [],
      "stateMutability": "nonpayable",
      "type": "function"
    },
    {
      "inputs": [
        {
          "internalType": "address",
          "name": "_index",
          "type": "address"
        },
        {
          "internalType": "uint16",
          "name": "_burningFeeInBP",
          "type": "uint16"
        }
      ],
      "name": "setBurningFeeInBP",
      "outputs": [],
      "stateMutability": "nonpayable",
      "type": "function"
    },
    {
      "inputs": [
        {
          "internalType": "address",
          "name": "_index",
          "type": "address"
        },
        {
          "internalType": "uint16",
          "name": "_mintingFeeInBP",
          "type": "uint16"
        }
      ],
      "name": "setMintingFeeInBP",
      "outputs": [],
      "stateMutability": "nonpayable",
      "type": "function"
    },
    {
      "inputs": [
        {
          "internalType": "address",
          "name": "",
          "type": "address"
        },
        {
          "internalType": "address",
          "name": "",
          "type": "address"
        }
      ],
      "name": "shareOf",
      "outputs": [
        {
          "internalType": "uint256",
          "name": "",
          "type": "uint256"
        }
      ],
      "stateMutability": "view",
      "type": "function"
    },
    {
      "inputs": [
        {
          "internalType": "bytes4",
          "name": "interfaceId",
          "type": "bytes4"
        }
      ],
      "name": "supportsInterface",
      "outputs": [
        {
          "internalType": "bool",
          "name": "",
          "type": "bool"
        }
      ],
      "stateMutability": "view",
      "type": "function"
    },
    {
      "inputs": [
        {
          "internalType": "address",
          "name": "",
          "type": "address"
        }
      ],
      "name": "totalSharesOf",
      "outputs": [
        {
          "internalType": "uint256",
          "name": "",
          "type": "uint256"
        }
      ],
      "stateMutability": "view",
      "type": "function"
    },
    {
      "inputs": [
        {
          "internalType": "address",
          "name": "_index",
          "type": "address"
        }
      ],
      "name": "withdraw",
      "outputs": [],
      "stateMutability": "nonpayable",
      "type": "function"
    },
    {
      "inputs": [
        {
          "internalType": "address",
          "name": "_index",
          "type": "address"
        },
        {
          "internalType": "address",
          "name": "_recipient",
          "type": "address"
        }
      ],
      "name": "withdrawPlatformFeeOf",
      "outputs": [],
      "stateMutability": "nonpayable",
      "type": "function"
    },
    {
      "inputs": [
        {
          "internalType": "address",
          "name": "_index",
          "type": "address"
        },
        {
          "internalType": "address",
          "name": "_account",
          "type": "address"
        }
      ],
      "name": "withdrawableAmountOf",
      "outputs": [
        {
          "internalType": "uint256",
          "name": "",
          "type": "uint256"
        }
      ],
      "stateMutability": "view",
      "type": "function"
    }
  ],
  "bytecode": "0x60a06040523480156200001157600080fd5b506040516200244f3803806200244f83398101604081905262000034916200009a565b60016000556001600160a01b038116620000845760405162461bcd60e51b815260206004820152600d60248201526c466565506f6f6c3a205a45524f60981b604482015260640160405180910390fd5b60601b6001600160601b031916608052620000cc565b600060208284031215620000ad57600080fd5b81516001600160a01b0381168114620000c557600080fd5b9392505050565b60805160601c61232c62000123600039600081816103a10152818161050b0152818161074e0152818161088f015281816109a701528181610a9c01528181610ed401528181610fa601526110cb015261232c6000f3fe608060405234801561001057600080fd5b50600436106100f65760003560e01c80635ad88c1a116100925780635ad88c1a146101e557806381f28daf1461021c57806383a9b8c51461022f57806383b4375814610242578063a785343614610255578063acd5d45814610279578063bf16acec146102a4578063c6c8bd0d146102b7578063cdde8dce146102ca57600080fd5b806301ffc9a7146100fb57806306b0e6751461012357806321ce086a1461013857806333ec8abe1461014b5780633ea270271461015e57806344d064841461017157806351cff8d9146101845780635612e00b1461019757806359dc7ce2146101c5575b600080fd5b61010e61010936600461209b565b6102dd565b60405190151581526020015b60405180910390f35b610136610131366004611eb6565b610314565b005b610136610146366004611f97565b610387565b610136610159366004611fcc565b6104d2565b61013661016c366004611f97565b610734565b61013661017f366004611f56565b610875565b610136610192366004611e43565b610952565b6101b76101a5366004611e43565b60056020526000908152604090205481565b60405190815260200161011a565b6101b76101d3366004611e43565b60016020526000908152604090205481565b6102096101f3366004611e43565b60036020526000908152604090205461ffff1681565b60405161ffff909116815260200161011a565b61013661022a366004611f01565b61098d565b61013661023d36600461204d565b610a82565b6101b7610250366004611e7d565b610bc7565b610209610263366004611e43565b60046020526000908152604090205461ffff1681565b6101b7610287366004611e7d565b600260209081526000928352604080842090915290825290205481565b6101366102b2366004611e7d565b610e93565b6101366102c5366004611f01565b610f8c565b6101366102d8366004611f56565b6110b1565b60006001600160e01b03198216635486e65b60e01b148061030e57506301ffc9a760e01b6001600160e01b03198316145b92915050565b336001600160a01b038416146103455760405162461bcd60e51b815260040161033c90612158565b60405180910390fd5b6001600160a01b03808416600090815260026020908152604080832093861683529290522054610376848483611189565b6103818483836114bf565b50505050565b604051632474521560e21b81526000906001600160a01b037f000000000000000000000000000000000000000000000000000000000000000016906391d14854906103d8908490339060040161210e565b60206040518083038186803b1580156103f057600080fd5b505afa158015610404573d6000803e3d6000fd5b505050506040513d601f19601f820116820180604052508101906104289190612079565b6104445760405162461bcd60e51b815260040161033c90612158565b8161271061ffff8216111561046b5760405162461bcd60e51b815260040161033c90612184565b6001600160a01b038416600081815260036020908152604091829020805461ffff191661ffff8816908117909155915191825233917ff82761bcb1e4da3544055a200bff611c693fb863986f5d9f83c5754364fb3f1a91015b60405180910390a350505050565b604051632474521560e21b81527fdfbefbf47cfe66b701d8cfdbce1de81c821590819cb07e71cb01b6602fb0ee27906001600160a01b037f000000000000000000000000000000000000000000000000000000000000000016906391d1485490610542908490339060040161210e565b60206040518083038186803b15801561055a57600080fd5b505afa15801561056e573d6000803e3d6000fd5b505050506040513d601f19601f820116820180604052508101906105929190612079565b6105ae5760405162461bcd60e51b815260040161033c90612158565b6001600160a01b0387166000908152600360209081526040808320805461ffff808c1661ffff1992831617909255600484528285208054928b1692909116919091179055600590915281208590555b82811015610662576106528885858481811061061b5761061b6122c8565b6106319260206040909202019081019150611e43565b868685818110610643576106436122c8565b905060400201602001356114bf565b61065b81612281565b90506105fd565b5060405161ffff871681526001600160a01b0388169033907ff82761bcb1e4da3544055a200bff611c693fb863986f5d9f83c5754364fb3f1a9060200160405180910390a360405161ffff861681526001600160a01b0388169033907f5e8670ec817633e875ea4dd8db88c8ce647e2b29fd39a8e628ab7c66a0a6ccf29060200160405180910390a36040518481526001600160a01b0388169033907fc9b224f333d1c1d993c3838030eef2b2af8b7a7c0642f987a5c957e61b11e8739060200160405180910390a350505050505050565b604051632474521560e21b81526000906001600160a01b037f000000000000000000000000000000000000000000000000000000000000000016906391d1485490610785908490339060040161210e565b60206040518083038186803b15801561079d57600080fd5b505afa1580156107b1573d6000803e3d6000fd5b505050506040513d601f19601f820116820180604052508101906107d59190612079565b6107f15760405162461bcd60e51b815260040161033c90612158565b8161271061ffff821611156108185760405162461bcd60e51b815260040161033c90612184565b6001600160a01b038416600081815260046020908152604091829020805461ffff191661ffff8816908117909155915191825233917f5e8670ec817633e875ea4dd8db88c8ce647e2b29fd39a8e628ab7c66a0a6ccf291016104c4565b604051632474521560e21b81526000906001600160a01b037f000000000000000000000000000000000000000000000000000000000000000016906391d14854906108c6908490339060040161210e565b60206040518083038186803b1580156108de57600080fd5b505afa1580156108f2573d6000803e3d6000fd5b505050506040513d601f19601f820116820180604052508101906109169190612079565b6109325760405162461bcd60e51b815260040161033c90612158565b61094d836109436020850185611e43565b8460200135611189565b505050565b600260005414156109755760405162461bcd60e51b815260040161033c906121ae565b6002600055610985813380611749565b506001600055565b604051632474521560e21b81526000906001600160a01b037f000000000000000000000000000000000000000000000000000000000000000016906391d14854906109de908490339060040161210e565b60206040518083038186803b1580156109f657600080fd5b505afa158015610a0a573d6000803e3d6000fd5b505050506040513d601f19601f82011682018060405250810190610a2e9190612079565b610a4a5760405162461bcd60e51b815260040161033c90612158565b60005b82811015610a7b57610a6b8585858481811061061b5761061b6122c8565b610a7481612281565b9050610a4d565b5050505050565b604051632474521560e21b81526000906001600160a01b037f000000000000000000000000000000000000000000000000000000000000000016906391d1485490610ad3908490339060040161210e565b60206040518083038186803b158015610aeb57600080fd5b505afa158015610aff573d6000803e3d6000fd5b505050506040513d601f19601f82011682018060405250810190610b239190612079565b610b3f5760405162461bcd60e51b815260040161033c90612158565b6b033b2e3c9fd0803ce8000000821015610b6b5760405162461bcd60e51b815260040161033c90612184565b6001600160a01b038316600081815260056020526040908190208490555133907fc9b224f333d1c1d993c3838030eef2b2af8b7a7c0642f987a5c957e61b11e87390610bba9086815260200190565b60405180910390a3505050565b600080836001600160a01b03166370a08231856001600160a01b031663c45a01556040518163ffffffff1660e01b815260040160206040518083038186803b158015610c1257600080fd5b505afa158015610c26573d6000803e3d6000fd5b505050506040513d601f19601f82011682018060405250810190610c4a9190611e60565b6040518263ffffffff1660e01b8152600401610c6691906120fa565b60206040518083038186803b158015610c7e57600080fd5b505afa158015610c92573d6000803e3d6000fd5b505050506040513d601f19601f82011682018060405250810190610cb691906120c5565b6040516370a0823160e01b81526001600160a01b038616906370a0823190610ce29030906004016120fa565b60206040518083038186803b158015610cfa57600080fd5b505afa158015610d0e573d6000803e3d6000fd5b505050506040513d601f19601f82011682018060405250810190610d3291906120c5565b610d3c91906121e5565b6001600160a01b038516600090815260086020908152604080832054600190925290912054919250908015610db1576001600160a01b038616600090815260096020526040812054610d8e908561223e565b90508015610daf5781612710820281610da957610da96122b2565b04830192505b505b6001600160a01b03808716600090815260026020908152604080832093891683529290529081205415610e09576001600160a01b038088166000908152600760209081526040808320938a1683529290522054610e0b565b825b6001600160a01b038089166000908152600260209081526040808320938b168352929052908120549192508285039161271090610e4990849061221f565b610e5391906121fd565b6001600160a01b03808b166000908152600660209081526040808320938d1683529290522054909150610e8690826121e5565b9998505050505050505050565b60026000541415610eb65760405162461bcd60e51b815260040161033c906121ae565b60026000908155604051632474521560e21b81526001600160a01b037f000000000000000000000000000000000000000000000000000000000000000016906391d1485490610f0b908490339060040161210e565b60206040518083038186803b158015610f2357600080fd5b505afa158015610f37573d6000803e3d6000fd5b505050506040513d601f19601f82011682018060405250810190610f5b9190612079565b610f775760405162461bcd60e51b815260040161033c90612158565b610f82838484611749565b5050600160005550565b604051632474521560e21b81526000906001600160a01b037f000000000000000000000000000000000000000000000000000000000000000016906391d1485490610fdd908490339060040161210e565b60206040518083038186803b158015610ff557600080fd5b505afa158015611009573d6000803e3d6000fd5b505050506040513d601f19601f8201168201806040525081019061102d9190612079565b6110495760405162461bcd60e51b815260040161033c90612158565b60005b82811015610a7b576110a18585858481811061106a5761106a6122c8565b6110809260206040909202019081019150611e43565b868685818110611092576110926122c8565b90506040020160200135611189565b6110aa81612281565b905061104c565b604051632474521560e21b81526000906001600160a01b037f000000000000000000000000000000000000000000000000000000000000000016906391d1485490611102908490339060040161210e565b60206040518083038186803b15801561111a57600080fd5b505afa15801561112e573d6000803e3d6000fd5b505050506040513d601f19601f820116820180604052508101906111529190612079565b61116e5760405162461bcd60e51b815260040161033c90612158565b61094d8361117f6020850185611e43565b84602001356114bf565b8282813b1561126157816001600160a01b031663c45a01556040518163ffffffff1660e01b815260040160206040518083038186803b1580156111cb57600080fd5b505afa1580156111df573d6000803e3d6000fd5b505050506040513d601f19601f820116820180604052508101906112039190611e60565b6001600160a01b031663c0bc4e22836040518263ffffffff1660e01b815260040161122e91906120fa565b600060405180830381600087803b15801561124857600080fd5b505af115801561125c573d6000803e3d6000fd5b505050505b6001600160a01b0382166000908152600160205260409020548015611359576001600160a01b0383166000818152600960205260408082205490516370a0823160e01b8152919290916370a08231906112be9030906004016120fa565b60206040518083038186803b1580156112d657600080fd5b505afa1580156112ea573d6000803e3d6000fd5b505050506040513d601f19601f8201168201806040525081019061130e91906120c5565b611318919061223e565b905080156113575781612710820281611333576113336122b2565b6001600160a01b038616600090815260086020526040902080549290910490910190555b505b6113638383611a06565b6001600160a01b0380871660009081526002602090815260408083209389168352929052908120805486929061139a90849061223e565b90915550506001600160a01b038616600090815260016020526040812080548692906113c790849061223e565b92505081905550846001600160a01b0316866001600160a01b03167fbac40739b0d4ca32fa2d82fc91630465ba3eddd1598da6fca393b26fb63b94538660405161141391815260200190565b60405180910390a380156114b7576040516370a0823160e01b81526001600160a01b038416906370a082319061144d9030906004016120fa565b60206040518083038186803b15801561146557600080fd5b505afa158015611479573d6000803e3d6000fd5b505050506040513d601f19601f8201168201806040525081019061149d91906120c5565b6001600160a01b0384166000908152600960205260409020555b505050505050565b8282813b1561159757816001600160a01b031663c45a01556040518163ffffffff1660e01b815260040160206040518083038186803b15801561150157600080fd5b505afa158015611515573d6000803e3d6000fd5b505050506040513d601f19601f820116820180604052508101906115399190611e60565b6001600160a01b031663c0bc4e22836040518263ffffffff1660e01b815260040161156491906120fa565b600060405180830381600087803b15801561157e57600080fd5b505af1158015611592573d6000803e3d6000fd5b505050505b6001600160a01b038216600090815260016020526040902054801561168f576001600160a01b0383166000818152600960205260408082205490516370a0823160e01b8152919290916370a08231906115f49030906004016120fa565b60206040518083038186803b15801561160c57600080fd5b505afa158015611620573d6000803e3d6000fd5b505050506040513d601f19601f8201168201806040525081019061164491906120c5565b61164e919061223e565b9050801561168d5781612710820281611669576116696122b2565b6001600160a01b038616600090815260086020526040902080549290910490910190555b505b6116998383611a06565b6001600160a01b038087166000908152600260209081526040808320938916835292905290812080548692906116d09084906121e5565b90915550506001600160a01b038616600090815260016020526040812080548692906116fd9084906121e5565b92505081905550846001600160a01b0316866001600160a01b03167fab8530f87dc9b59234c4623bf917212bb2536d647574c8e7e5da92c2ede0c9f88660405161141391815260200190565b8282813b1561182157816001600160a01b031663c45a01556040518163ffffffff1660e01b815260040160206040518083038186803b15801561178b57600080fd5b505afa15801561179f573d6000803e3d6000fd5b505050506040513d601f19601f820116820180604052508101906117c39190611e60565b6001600160a01b031663c0bc4e22836040518263ffffffff1660e01b81526004016117ee91906120fa565b600060405180830381600087803b15801561180857600080fd5b505af115801561181c573d6000803e3d6000fd5b505050505b6001600160a01b0382166000908152600160205260409020548015611919576001600160a01b0383166000818152600960205260408082205490516370a0823160e01b8152919290916370a082319061187e9030906004016120fa565b60206040518083038186803b15801561189657600080fd5b505afa1580156118aa573d6000803e3d6000fd5b505050506040513d601f19601f820116820180604052508101906118ce91906120c5565b6118d8919061223e565b9050801561191757816127108202816118f3576118f36122b2565b6001600160a01b038616600090815260086020526040902080549290910490910190555b505b6119238383611a06565b6001600160a01b0380871660009081526006602090815260408083209389168352929052205480156119d3576001600160a01b038088166000818152600660209081526040808320948b16835293905291822091909155611985908683611b59565b846001600160a01b0316876001600160a01b03167f9b1bfa7fa9ee420a16e124f794c35ac9f90472acc99140eb2f6447c714cad8eb836040516119ca91815260200190565b60405180910390a35b5080156114b7576040516370a0823160e01b81526001600160a01b038416906370a082319061144d9030906004016120fa565b6001600160a01b03808316600090815260026020908152604080832093851683529290529081205415611a5e576001600160a01b03808416600090815260076020908152604080832093861683529290522054611a78565b6001600160a01b0383166000908152600860205260409020545b6001600160a01b038416600090815260086020526040902054909150818103908214611b26576001600160a01b03808516600090815260026020908152604080832093871683529290529081205461271090611ad590849061221f565b611adf91906121fd565b90508015611b24576001600160a01b03808616600090815260066020908152604080832093881683529290529081208054839290611b1e9084906121e5565b90915550505b505b50506001600160a01b03918216600090815260086020908152604080832054600783528184209490951683529290522055565b604080516001600160a01b03848116602483015260448083018590528351808403909101815260649092018352602080830180516001600160e01b031663a9059cbb60e01b17905283518085019094528084527f5361666545524332303a206c6f772d6c6576656c2063616c6c206661696c65649084015261094d92869291600091611be9918516908490611c66565b80519091501561094d5780806020019051810190611c079190612079565b61094d5760405162461bcd60e51b815260206004820152602a60248201527f5361666545524332303a204552433230206f7065726174696f6e20646964206e6044820152691bdd081cdd58d8d9595960b21b606482015260840161033c565b6060611c758484600085611c7f565b90505b9392505050565b606082471015611ce05760405162461bcd60e51b815260206004820152602660248201527f416464726573733a20696e73756666696369656e742062616c616e636520666f6044820152651c8818d85b1b60d21b606482015260840161033c565b843b611d2e5760405162461bcd60e51b815260206004820152601d60248201527f416464726573733a2063616c6c20746f206e6f6e2d636f6e7472616374000000604482015260640161033c565b600080866001600160a01b03168587604051611d4a91906120de565b60006040518083038185875af1925050503d8060008114611d87576040519150601f19603f3d011682016040523d82523d6000602084013e611d8c565b606091505b5091509150611d9c828286611da7565b979650505050505050565b60608315611db6575081611c78565b825115611dc65782518084602001fd5b8160405162461bcd60e51b815260040161033c9190612125565b60008083601f840112611df257600080fd5b50813567ffffffffffffffff811115611e0a57600080fd5b6020830191508360208260061b8501011115611e2557600080fd5b9250929050565b803561ffff81168114611e3e57600080fd5b919050565b600060208284031215611e5557600080fd5b8135611c78816122de565b600060208284031215611e7257600080fd5b8151611c78816122de565b60008060408385031215611e9057600080fd5b8235611e9b816122de565b91506020830135611eab816122de565b809150509250929050565b600080600060608486031215611ecb57600080fd5b8335611ed6816122de565b92506020840135611ee6816122de565b91506040840135611ef6816122de565b809150509250925092565b600080600060408486031215611f1657600080fd5b8335611f21816122de565b9250602084013567ffffffffffffffff811115611f3d57600080fd5b611f4986828701611de0565b9497909650939450505050565b6000808284036060811215611f6a57600080fd5b8335611f75816122de565b92506040601f1982011215611f8957600080fd5b506020830190509250929050565b60008060408385031215611faa57600080fd5b8235611fb5816122de565b9150611fc360208401611e2c565b90509250929050565b60008060008060008060a08789031215611fe557600080fd5b8635611ff0816122de565b9550611ffe60208801611e2c565b945061200c60408801611e2c565b935060608701359250608087013567ffffffffffffffff81111561202f57600080fd5b61203b89828a01611de0565b979a9699509497509295939492505050565b6000806040838503121561206057600080fd5b823561206b816122de565b946020939093013593505050565b60006020828403121561208b57600080fd5b81518015158114611c7857600080fd5b6000602082840312156120ad57600080fd5b81356001600160e01b031981168114611c7857600080fd5b6000602082840312156120d757600080fd5b5051919050565b600082516120f0818460208701612255565b9190910192915050565b6001600160a01b0391909116815260200190565b9182526001600160a01b0316602082015260400190565b6020815260008251806020840152612144816040850160208701612255565b601f01601f19169190910160400192915050565b6020808252601290820152712332b2a837b7b61d102327a92124a22222a760711b604082015260600190565b60208082526010908201526f119959541bdbdb0e881253959053125160821b604082015260600190565b6020808252601f908201527f5265656e7472616e637947756172643a207265656e7472616e742063616c6c00604082015260600190565b600082198211156121f8576121f861229c565b500190565b60008261221a57634e487b7160e01b600052601260045260246000fd5b500490565b60008160001904831182151516156122395761223961229c565b500290565b6000828210156122505761225061229c565b500390565b60005b83811015612270578181015183820152602001612258565b838111156103815750506000910152565b60006000198214156122955761229561229c565b5060010190565b634e487b7160e01b600052601160045260246000fd5b634e487b7160e01b600052601260045260246000fd5b634e487b7160e01b600052603260045260246000fd5b6001600160a01b03811681146122f357600080fd5b5056fea264697066735822122030b0470eec896d335263efa28ff650727b4fbdaf9ed85bab5713b3797446d60264736f6c63430008070033",
  "linkReferences": {},
  "deployedLinkReferences": {}
}