{
  "_format": "hh-sol-artifact-1",
  "contractName": "FeePool",
  "sourceName": "contracts/FeePool.sol",
  "abi": [
    {
      "inputs": [
        {
          "internalType": "address",
          "name": "_registry",
          "type": "address"
        }
      ],
      "stateMutability": "nonpayable",
      "type": "constructor"
    },
    {
      "anonymous": false,
      "inputs": [
        {
          "indexed": true,
          "internalType": "address",
          "name": "index",
          "type": "address"
        },
        {
          "indexed": true,
          "internalType": "address",
          "name": "recipient",
          "type": "address"
        },
        {
          "indexed": false,
          "internalType": "uint256",
          "name": "share",
          "type": "uint256"
        }
      ],
      "name": "Burn",
      "type": "event"
    },
    {
      "anonymous": false,
      "inputs": [
        {
          "indexed": true,
          "internalType": "address",
          "name": "index",
          "type": "address"
        },
        {
          "indexed": true,
          "internalType": "address",
          "name": "recipient",
          "type": "address"
        },
        {
          "indexed": false,
          "internalType": "uint256",
          "name": "share",
          "type": "uint256"
        }
      ],
      "name": "Mint",
      "type": "event"
    },
    {
      "anonymous": false,
      "inputs": [
        {
          "indexed": true,
          "internalType": "address",
          "name": "account",
          "type": "address"
        },
        {
          "indexed": true,
          "internalType": "address",
          "name": "index",
          "type": "address"
        },
        {
          "indexed": false,
          "internalType": "uint256",
          "name": "AUMScaledPerSecondsRate",
          "type": "uint256"
        }
      ],
      "name": "SetAUMScaledPerSecondsRate",
      "type": "event"
    },
    {
      "anonymous": false,
      "inputs": [
        {
          "indexed": true,
          "internalType": "address",
          "name": "account",
          "type": "address"
        },
        {
          "indexed": true,
          "internalType": "address",
          "name": "index",
          "type": "address"
        },
        {
          "indexed": false,
          "internalType": "uint16",
          "name": "burningFeeInPB",
          "type": "uint16"
        }
      ],
      "name": "SetBurningFeeInBP",
      "type": "event"
    },
    {
      "anonymous": false,
      "inputs": [
        {
          "indexed": true,
          "internalType": "address",
          "name": "account",
          "type": "address"
        },
        {
          "indexed": true,
          "internalType": "address",
          "name": "index",
          "type": "address"
        },
        {
          "indexed": false,
          "internalType": "uint16",
          "name": "mintingFeeInBP",
          "type": "uint16"
        }
      ],
      "name": "SetMintingFeeInBP",
      "type": "event"
    },
    {
      "anonymous": false,
      "inputs": [
        {
          "indexed": true,
          "internalType": "address",
          "name": "index",
          "type": "address"
        },
        {
          "indexed": true,
          "internalType": "address",
          "name": "recipient",
          "type": "address"
        },
        {
          "indexed": false,
          "internalType": "uint256",
          "name": "amount",
          "type": "uint256"
        }
      ],
      "name": "Withdraw",
      "type": "event"
    },
    {
      "inputs": [
        {
          "internalType": "address",
          "name": "",
          "type": "address"
        }
      ],
      "name": "AUMScaledPerSecondsRateOf",
      "outputs": [
        {
          "internalType": "uint256",
          "name": "",
          "type": "uint256"
        }
      ],
      "stateMutability": "view",
      "type": "function"
    },
    {
      "inputs": [
        {
          "internalType": "address",
          "name": "_index",
          "type": "address"
        },
        {
          "components": [
            {
              "internalType": "address",
              "name": "recipient",
              "type": "address"
            },
            {
              "internalType": "uint256",
              "name": "share",
              "type": "uint256"
            }
          ],
          "internalType": "struct IFeePool.MintBurnInfo",
          "name": "_burnInfo",
          "type": "tuple"
        }
      ],
      "name": "burn",
      "outputs": [],
      "stateMutability": "nonpayable",
      "type": "function"
    },
    {
      "inputs": [
        {
          "internalType": "address",
          "name": "_index",
          "type": "address"
        },
        {
          "components": [
            {
              "internalType": "address",
              "name": "recipient",
              "type": "address"
            },
            {
              "internalType": "uint256",
              "name": "share",
              "type": "uint256"
            }
          ],
          "internalType": "struct IFeePool.MintBurnInfo[]",
          "name": "_burnInfo",
          "type": "tuple[]"
        }
      ],
      "name": "burnMultiple",
      "outputs": [],
      "stateMutability": "nonpayable",
      "type": "function"
    },
    {
      "inputs": [
        {
          "internalType": "address",
          "name": "",
          "type": "address"
        }
      ],
      "name": "burningFeeInBPOf",
      "outputs": [
        {
          "internalType": "uint16",
          "name": "",
          "type": "uint16"
        }
      ],
      "stateMutability": "view",
      "type": "function"
    },
    {
      "inputs": [
        {
          "internalType": "address",
          "name": "_index",
          "type": "address"
        },
        {
          "internalType": "address",
          "name": "_oldGovernor",
          "type": "address"
        },
        {
          "internalType": "address",
          "name": "_newGovernor",
          "type": "address"
        }
      ],
      "name": "changeGovernorShare",
      "outputs": [],
      "stateMutability": "nonpayable",
      "type": "function"
    },
    {
      "inputs": [
        {
          "internalType": "address",
          "name": "_index",
          "type": "address"
        },
        {
          "internalType": "uint16",
          "name": "_mintingFeeInBP",
          "type": "uint16"
        },
        {
          "internalType": "uint16",
          "name": "_burningFeeInBP",
          "type": "uint16"
        },
        {
          "internalType": "uint256",
          "name": "_AUMScaledPerSecondsRate",
          "type": "uint256"
        },
        {
          "components": [
            {
              "internalType": "address",
              "name": "recipient",
              "type": "address"
            },
            {
              "internalType": "uint256",
              "name": "share",
              "type": "uint256"
            }
          ],
          "internalType": "struct IFeePool.MintBurnInfo[]",
          "name": "_mintInfo",
          "type": "tuple[]"
        }
      ],
      "name": "initializeIndex",
      "outputs": [],
      "stateMutability": "nonpayable",
      "type": "function"
    },
    {
      "inputs": [
        {
          "internalType": "address",
          "name": "_index",
          "type": "address"
        },
        {
          "components": [
            {
              "internalType": "address",
              "name": "recipient",
              "type": "address"
            },
            {
              "internalType": "uint256",
              "name": "share",
              "type": "uint256"
            }
          ],
          "internalType": "struct IFeePool.MintBurnInfo",
          "name": "_mintInfo",
          "type": "tuple"
        }
      ],
      "name": "mint",
      "outputs": [],
      "stateMutability": "nonpayable",
      "type": "function"
    },
    {
      "inputs": [
        {
          "internalType": "address",
          "name": "_index",
          "type": "address"
        },
        {
          "components": [
            {
              "internalType": "address",
              "name": "recipient",
              "type": "address"
            },
            {
              "internalType": "uint256",
              "name": "share",
              "type": "uint256"
            }
          ],
          "internalType": "struct IFeePool.MintBurnInfo[]",
          "name": "_mintInfo",
          "type": "tuple[]"
        }
      ],
      "name": "mintMultiple",
      "outputs": [],
      "stateMutability": "nonpayable",
      "type": "function"
    },
    {
      "inputs": [
        {
          "internalType": "address",
          "name": "",
          "type": "address"
        }
      ],
      "name": "mintingFeeInBPOf",
      "outputs": [
        {
          "internalType": "uint16",
          "name": "",
          "type": "uint16"
        }
      ],
      "stateMutability": "view",
      "type": "function"
    },
    {
      "inputs": [
        {
          "internalType": "address",
          "name": "_index",
          "type": "address"
        },
        {
          "internalType": "uint256",
          "name": "_AUMScaledPerSecondsRate",
          "type": "uint256"
        }
      ],
      "name": "setAUMScaledPerSecondsRate",
      "outputs": [],
      "stateMutability": "nonpayable",
      "type": "function"
    },
    {
      "inputs": [
        {
          "internalType": "address",
          "name": "_index",
          "type": "address"
        },
        {
          "internalType": "uint16",
          "name": "_burningFeeInBP",
          "type": "uint16"
        }
      ],
      "name": "setBurningFeeInBP",
      "outputs": [],
      "stateMutability": "nonpayable",
      "type": "function"
    },
    {
      "inputs": [
        {
          "internalType": "address",
          "name": "_index",
          "type": "address"
        },
        {
          "internalType": "uint16",
          "name": "_mintingFeeInBP",
          "type": "uint16"
        }
      ],
      "name": "setMintingFeeInBP",
      "outputs": [],
      "stateMutability": "nonpayable",
      "type": "function"
    },
    {
      "inputs": [
        {
          "internalType": "address",
          "name": "",
          "type": "address"
        },
        {
          "internalType": "address",
          "name": "",
          "type": "address"
        }
      ],
      "name": "shareOf",
      "outputs": [
        {
          "internalType": "uint256",
          "name": "",
          "type": "uint256"
        }
      ],
      "stateMutability": "view",
      "type": "function"
    },
    {
      "inputs": [
        {
          "internalType": "bytes4",
          "name": "interfaceId",
          "type": "bytes4"
        }
      ],
      "name": "supportsInterface",
      "outputs": [
        {
          "internalType": "bool",
          "name": "",
          "type": "bool"
        }
      ],
      "stateMutability": "view",
      "type": "function"
    },
    {
      "inputs": [
        {
          "internalType": "address",
          "name": "",
          "type": "address"
        }
      ],
      "name": "totalSharesOf",
      "outputs": [
        {
          "internalType": "uint256",
          "name": "",
          "type": "uint256"
        }
      ],
      "stateMutability": "view",
      "type": "function"
    },
    {
      "inputs": [
        {
          "internalType": "address",
          "name": "_index",
          "type": "address"
        }
      ],
      "name": "withdraw",
      "outputs": [],
      "stateMutability": "nonpayable",
      "type": "function"
    },
    {
      "inputs": [
        {
          "internalType": "address",
          "name": "_index",
          "type": "address"
        },
        {
          "internalType": "address",
          "name": "_recipient",
          "type": "address"
        }
      ],
      "name": "withdrawPlatformFeeOf",
      "outputs": [],
      "stateMutability": "nonpayable",
      "type": "function"
    },
    {
      "inputs": [
        {
          "internalType": "address",
          "name": "_index",
          "type": "address"
        },
        {
          "internalType": "address",
          "name": "_account",
          "type": "address"
        }
      ],
      "name": "withdrawableAmountOf",
      "outputs": [
        {
          "internalType": "uint256",
          "name": "",
          "type": "uint256"
        }
      ],
      "stateMutability": "view",
      "type": "function"
    }
  ],
  "bytecode": "0x60a060405234801561001057600080fd5b506040516200216f3803806200216f8339810160408190526100319161004b565b600160005560601b6001600160601b03191660805261007b565b60006020828403121561005d57600080fd5b81516001600160a01b038116811461007457600080fd5b9392505050565b60805160601c61209d620000d2600039600081816103a10152818161050b0152818161074e0152818161088f015281816109a701528181610a9c01528181610ed401528181610fa601526110cb015261209d6000f3fe608060405234801561001057600080fd5b50600436106100f65760003560e01c80635ad88c1a116100925780635ad88c1a146101e557806381f28daf1461021c57806383a9b8c51461022f57806383b4375814610242578063a785343614610255578063acd5d45814610279578063bf16acec146102a4578063c6c8bd0d146102b7578063cdde8dce146102ca57600080fd5b806301ffc9a7146100fb57806306b0e6751461012357806321ce086a1461013857806333ec8abe1461014b5780633ea270271461015e57806344d064841461017157806351cff8d9146101845780635612e00b1461019757806359dc7ce2146101c5575b600080fd5b61010e610109366004611e87565b6102dd565b60405190151581526020015b60405180910390f35b610136610131366004611ca2565b610314565b005b610136610146366004611d83565b610387565b610136610159366004611db8565b6104d2565b61013661016c366004611d83565b610734565b61013661017f366004611d42565b610875565b610136610192366004611c28565b610952565b6101b76101a5366004611c28565b60056020526000908152604090205481565b60405190815260200161011a565b6101b76101d3366004611c28565b60016020526000908152604090205481565b6102096101f3366004611c28565b60036020526000908152604090205461ffff1681565b60405161ffff909116815260200161011a565b61013661022a366004611ced565b61098d565b61013661023d366004611e39565b610a82565b6101b7610250366004611c69565b610bc7565b610209610263366004611c28565b60046020526000908152604090205461ffff1681565b6101b7610287366004611c69565b600260209081526000928352604080842090915290825290205481565b6101366102b2366004611c69565b610e93565b6101366102c5366004611ced565b610f8c565b6101366102d8366004611d42565b6110b1565b60006001600160e01b031982166301ffc9a760e01b148061030e57506001600160e01b03198216635486e65b60e01b145b92915050565b336001600160a01b038416146103455760405162461bcd60e51b815260040161033c90611ef5565b60405180910390fd5b6001600160a01b03808416600090815260026020908152604080832093861683529290522054610376848483611189565b6103818483836114bf565b50505050565b604051632474521560e21b81526000906001600160a01b037f000000000000000000000000000000000000000000000000000000000000000016906391d14854906103d89084903390600401611ede565b60206040518083038186803b1580156103f057600080fd5b505afa158015610404573d6000803e3d6000fd5b505050506040513d601f19601f820116820180604052508101906104289190611e65565b6104445760405162461bcd60e51b815260040161033c90611ef5565b8161271061ffff8216111561046b5760405162461bcd60e51b815260040161033c90611f21565b6001600160a01b038416600081815260036020908152604091829020805461ffff191661ffff8816908117909155915191825233917ff82761bcb1e4da3544055a200bff611c693fb863986f5d9f83c5754364fb3f1a91015b60405180910390a350505050565b604051632474521560e21b81527fdfbefbf47cfe66b701d8cfdbce1de81c821590819cb07e71cb01b6602fb0ee27906001600160a01b037f000000000000000000000000000000000000000000000000000000000000000016906391d14854906105429084903390600401611ede565b60206040518083038186803b15801561055a57600080fd5b505afa15801561056e573d6000803e3d6000fd5b505050506040513d601f19601f820116820180604052508101906105929190611e65565b6105ae5760405162461bcd60e51b815260040161033c90611ef5565b6001600160a01b0387166000908152600360209081526040808320805461ffff808c1661ffff1992831617909255600484528285208054928b1692909116919091179055600590915281208590555b82811015610662576106528885858481811061061b5761061b612039565b6106319260206040909202019081019150611c28565b86868581811061064357610643612039565b905060400201602001356114bf565b61065b81611ff2565b90506105fd565b5060405161ffff871681526001600160a01b0388169033907ff82761bcb1e4da3544055a200bff611c693fb863986f5d9f83c5754364fb3f1a9060200160405180910390a360405161ffff861681526001600160a01b0388169033907f5e8670ec817633e875ea4dd8db88c8ce647e2b29fd39a8e628ab7c66a0a6ccf29060200160405180910390a36040518481526001600160a01b0388169033907fc9b224f333d1c1d993c3838030eef2b2af8b7a7c0642f987a5c957e61b11e8739060200160405180910390a350505050505050565b604051632474521560e21b81526000906001600160a01b037f000000000000000000000000000000000000000000000000000000000000000016906391d14854906107859084903390600401611ede565b60206040518083038186803b15801561079d57600080fd5b505afa1580156107b1573d6000803e3d6000fd5b505050506040513d601f19601f820116820180604052508101906107d59190611e65565b6107f15760405162461bcd60e51b815260040161033c90611ef5565b8161271061ffff821611156108185760405162461bcd60e51b815260040161033c90611f21565b6001600160a01b038416600081815260046020908152604091829020805461ffff191661ffff8816908117909155915191825233917f5e8670ec817633e875ea4dd8db88c8ce647e2b29fd39a8e628ab7c66a0a6ccf291016104c4565b604051632474521560e21b81526000906001600160a01b037f000000000000000000000000000000000000000000000000000000000000000016906391d14854906108c69084903390600401611ede565b60206040518083038186803b1580156108de57600080fd5b505afa1580156108f2573d6000803e3d6000fd5b505050506040513d601f19601f820116820180604052508101906109169190611e65565b6109325760405162461bcd60e51b815260040161033c90611ef5565b61094d836109436020850185611c28565b8460200135611189565b505050565b600260005414156109755760405162461bcd60e51b815260040161033c90611f4b565b6002600055610985813380611749565b506001600055565b604051632474521560e21b81526000906001600160a01b037f000000000000000000000000000000000000000000000000000000000000000016906391d14854906109de9084903390600401611ede565b60206040518083038186803b1580156109f657600080fd5b505afa158015610a0a573d6000803e3d6000fd5b505050506040513d601f19601f82011682018060405250810190610a2e9190611e65565b610a4a5760405162461bcd60e51b815260040161033c90611ef5565b60005b82811015610a7b57610a6b8585858481811061061b5761061b612039565b610a7481611ff2565b9050610a4d565b5050505050565b604051632474521560e21b81526000906001600160a01b037f000000000000000000000000000000000000000000000000000000000000000016906391d1485490610ad39084903390600401611ede565b60206040518083038186803b158015610aeb57600080fd5b505afa158015610aff573d6000803e3d6000fd5b505050506040513d601f19601f82011682018060405250810190610b239190611e65565b610b3f5760405162461bcd60e51b815260040161033c90611ef5565b6b033b2e3c9fd0803ce8000000821015610b6b5760405162461bcd60e51b815260040161033c90611f21565b6001600160a01b038316600081815260056020526040908190208490555133907fc9b224f333d1c1d993c3838030eef2b2af8b7a7c0642f987a5c957e61b11e87390610bba9086815260200190565b60405180910390a3505050565b600080836001600160a01b03166370a08231856001600160a01b031663c45a01556040518163ffffffff1660e01b815260040160206040518083038186803b158015610c1257600080fd5b505afa158015610c26573d6000803e3d6000fd5b505050506040513d601f19601f82011682018060405250810190610c4a9190611c4c565b6040518263ffffffff1660e01b8152600401610c669190611eca565b60206040518083038186803b158015610c7e57600080fd5b505afa158015610c92573d6000803e3d6000fd5b505050506040513d601f19601f82011682018060405250810190610cb69190611eb1565b6040516370a0823160e01b81526001600160a01b038616906370a0823190610ce2903090600401611eca565b60206040518083038186803b158015610cfa57600080fd5b505afa158015610d0e573d6000803e3d6000fd5b505050506040513d601f19601f82011682018060405250810190610d329190611eb1565b610d3c9190611f82565b6001600160a01b038516600090815260086020908152604080832054600190925290912054919250908015610db1576001600160a01b038616600090815260096020526040812054610d8e9085611fdb565b90508015610daf5781612710820281610da957610da9612023565b04830192505b505b6001600160a01b03808716600090815260026020908152604080832093891683529290529081205415610e09576001600160a01b038088166000908152600760209081526040808320938a1683529290522054610e0b565b825b6001600160a01b038089166000908152600260209081526040808320938b168352929052908120549192508285039161271090610e49908490611fbc565b610e539190611f9a565b6001600160a01b03808b166000908152600660209081526040808320938d1683529290522054909150610e869082611f82565b9998505050505050505050565b60026000541415610eb65760405162461bcd60e51b815260040161033c90611f4b565b60026000908155604051632474521560e21b81526001600160a01b037f000000000000000000000000000000000000000000000000000000000000000016906391d1485490610f0b9084903390600401611ede565b60206040518083038186803b158015610f2357600080fd5b505afa158015610f37573d6000803e3d6000fd5b505050506040513d601f19601f82011682018060405250810190610f5b9190611e65565b610f775760405162461bcd60e51b815260040161033c90611ef5565b610f82838484611749565b5050600160005550565b604051632474521560e21b81526000906001600160a01b037f000000000000000000000000000000000000000000000000000000000000000016906391d1485490610fdd9084903390600401611ede565b60206040518083038186803b158015610ff557600080fd5b505afa158015611009573d6000803e3d6000fd5b505050506040513d601f19601f8201168201806040525081019061102d9190611e65565b6110495760405162461bcd60e51b815260040161033c90611ef5565b60005b82811015610a7b576110a18585858481811061106a5761106a612039565b6110809260206040909202019081019150611c28565b86868581811061109257611092612039565b90506040020160200135611189565b6110aa81611ff2565b905061104c565b604051632474521560e21b81526000906001600160a01b037f000000000000000000000000000000000000000000000000000000000000000016906391d14854906111029084903390600401611ede565b60206040518083038186803b15801561111a57600080fd5b505afa15801561112e573d6000803e3d6000fd5b505050506040513d601f19601f820116820180604052508101906111529190611e65565b61116e5760405162461bcd60e51b815260040161033c90611ef5565b61094d8361117f6020850185611c28565b84602001356114bf565b8282813b1561126157816001600160a01b031663c45a01556040518163ffffffff1660e01b815260040160206040518083038186803b1580156111cb57600080fd5b505afa1580156111df573d6000803e3d6000fd5b505050506040513d601f19601f820116820180604052508101906112039190611c4c565b6001600160a01b031663c0bc4e22836040518263ffffffff1660e01b815260040161122e9190611eca565b600060405180830381600087803b15801561124857600080fd5b505af115801561125c573d6000803e3d6000fd5b505050505b6001600160a01b0382166000908152600160205260409020548015611359576001600160a01b0383166000818152600960205260408082205490516370a0823160e01b8152919290916370a08231906112be903090600401611eca565b60206040518083038186803b1580156112d657600080fd5b505afa1580156112ea573d6000803e3d6000fd5b505050506040513d601f19601f8201168201806040525081019061130e9190611eb1565b6113189190611fdb565b90508015611357578161271082028161133357611333612023565b6001600160a01b038616600090815260086020526040902080549290910490910190555b505b6113638383611a72565b6001600160a01b0380871660009081526002602090815260408083209389168352929052908120805486929061139a908490611fdb565b90915550506001600160a01b038616600090815260016020526040812080548692906113c7908490611fdb565b92505081905550846001600160a01b0316866001600160a01b03167fbac40739b0d4ca32fa2d82fc91630465ba3eddd1598da6fca393b26fb63b94538660405161141391815260200190565b60405180910390a380156114b7576040516370a0823160e01b81526001600160a01b038416906370a082319061144d903090600401611eca565b60206040518083038186803b15801561146557600080fd5b505afa158015611479573d6000803e3d6000fd5b505050506040513d601f19601f8201168201806040525081019061149d9190611eb1565b6001600160a01b0384166000908152600960205260409020555b505050505050565b8282813b1561159757816001600160a01b031663c45a01556040518163ffffffff1660e01b815260040160206040518083038186803b15801561150157600080fd5b505afa158015611515573d6000803e3d6000fd5b505050506040513d601f19601f820116820180604052508101906115399190611c4c565b6001600160a01b031663c0bc4e22836040518263ffffffff1660e01b81526004016115649190611eca565b600060405180830381600087803b15801561157e57600080fd5b505af1158015611592573d6000803e3d6000fd5b505050505b6001600160a01b038216600090815260016020526040902054801561168f576001600160a01b0383166000818152600960205260408082205490516370a0823160e01b8152919290916370a08231906115f4903090600401611eca565b60206040518083038186803b15801561160c57600080fd5b505afa158015611620573d6000803e3d6000fd5b505050506040513d601f19601f820116820180604052508101906116449190611eb1565b61164e9190611fdb565b9050801561168d578161271082028161166957611669612023565b6001600160a01b038616600090815260086020526040902080549290910490910190555b505b6116998383611a72565b6001600160a01b038087166000908152600260209081526040808320938916835292905290812080548692906116d0908490611f82565b90915550506001600160a01b038616600090815260016020526040812080548692906116fd908490611f82565b92505081905550846001600160a01b0316866001600160a01b03167fab8530f87dc9b59234c4623bf917212bb2536d647574c8e7e5da92c2ede0c9f88660405161141391815260200190565b8282813b1561182157816001600160a01b031663c45a01556040518163ffffffff1660e01b815260040160206040518083038186803b15801561178b57600080fd5b505afa15801561179f573d6000803e3d6000fd5b505050506040513d601f19601f820116820180604052508101906117c39190611c4c565b6001600160a01b031663c0bc4e22836040518263ffffffff1660e01b81526004016117ee9190611eca565b600060405180830381600087803b15801561180857600080fd5b505af115801561181c573d6000803e3d6000fd5b505050505b6001600160a01b0382166000908152600160205260409020548015611919576001600160a01b0383166000818152600960205260408082205490516370a0823160e01b8152919290916370a082319061187e903090600401611eca565b60206040518083038186803b15801561189657600080fd5b505afa1580156118aa573d6000803e3d6000fd5b505050506040513d601f19601f820116820180604052508101906118ce9190611eb1565b6118d89190611fdb565b9050801561191757816127108202816118f3576118f3612023565b6001600160a01b038616600090815260086020526040902080549290910490910190555b505b6119238383611a72565b6001600160a01b038087166000908152600660209081526040808320938916835292905220548015611a3f576001600160a01b0387811660008181526006602090815260408083208b86168452909152808220919091555163a9059cbb60e01b81529187166004830152602482018390529063a9059cbb90604401602060405180830381600087803b1580156119b857600080fd5b505af11580156119cc573d6000803e3d6000fd5b505050506040513d601f19601f820116820180604052508101906119f09190611e65565b50846001600160a01b0316876001600160a01b03167f9b1bfa7fa9ee420a16e124f794c35ac9f90472acc99140eb2f6447c714cad8eb83604051611a3691815260200190565b60405180910390a35b5080156114b7576040516370a0823160e01b81526001600160a01b038416906370a082319061144d903090600401611eca565b6001600160a01b03808316600090815260026020908152604080832093851683529290529081205415611aca576001600160a01b03808416600090815260076020908152604080832093861683529290522054611ae4565b6001600160a01b0383166000908152600860205260409020545b6001600160a01b038416600090815260086020526040902054909150818103908214611b92576001600160a01b03808516600090815260026020908152604080832093871683529290529081205461271090611b41908490611fbc565b611b4b9190611f9a565b90508015611b90576001600160a01b03808616600090815260066020908152604080832093881683529290529081208054839290611b8a908490611f82565b90915550505b505b50506001600160a01b03918216600090815260086020908152604080832054600783528184209490951683529290522055565b60008083601f840112611bd757600080fd5b50813567ffffffffffffffff811115611bef57600080fd5b6020830191508360208260061b8501011115611c0a57600080fd5b9250929050565b803561ffff81168114611c2357600080fd5b919050565b600060208284031215611c3a57600080fd5b8135611c458161204f565b9392505050565b600060208284031215611c5e57600080fd5b8151611c458161204f565b60008060408385031215611c7c57600080fd5b8235611c878161204f565b91506020830135611c978161204f565b809150509250929050565b600080600060608486031215611cb757600080fd5b8335611cc28161204f565b92506020840135611cd28161204f565b91506040840135611ce28161204f565b809150509250925092565b600080600060408486031215611d0257600080fd5b8335611d0d8161204f565b9250602084013567ffffffffffffffff811115611d2957600080fd5b611d3586828701611bc5565b9497909650939450505050565b6000808284036060811215611d5657600080fd5b8335611d618161204f565b92506040601f1982011215611d7557600080fd5b506020830190509250929050565b60008060408385031215611d9657600080fd5b8235611da18161204f565b9150611daf60208401611c11565b90509250929050565b60008060008060008060a08789031215611dd157600080fd5b8635611ddc8161204f565b9550611dea60208801611c11565b9450611df860408801611c11565b935060608701359250608087013567ffffffffffffffff811115611e1b57600080fd5b611e2789828a01611bc5565b979a9699509497509295939492505050565b60008060408385031215611e4c57600080fd5b8235611e578161204f565b946020939093013593505050565b600060208284031215611e7757600080fd5b81518015158114611c4557600080fd5b600060208284031215611e9957600080fd5b81356001600160e01b031981168114611c4557600080fd5b600060208284031215611ec357600080fd5b5051919050565b6001600160a01b0391909116815260200190565b9182526001600160a01b0316602082015260400190565b6020808252601290820152712332b2a837b7b61d102327a92124a22222a760711b604082015260600190565b60208082526010908201526f119959541bdbdb0e881253959053125160821b604082015260600190565b6020808252601f908201527f5265656e7472616e637947756172643a207265656e7472616e742063616c6c00604082015260600190565b60008219821115611f9557611f9561200d565b500190565b600082611fb757634e487b7160e01b600052601260045260246000fd5b500490565b6000816000190483118215151615611fd657611fd661200d565b500290565b600082821015611fed57611fed61200d565b500390565b60006000198214156120065761200661200d565b5060010190565b634e487b7160e01b600052601160045260246000fd5b634e487b7160e01b600052601260045260246000fd5b634e487b7160e01b600052603260045260246000fd5b6001600160a01b038116811461206457600080fd5b5056fea2646970667358221220ac0fc84745aba30d9fb1e64fa87bd2d0cf65fc1a85cc49e46ec92d5d6cdff35764736f6c63430008070033",
  "linkReferences": {},
  "deployedLinkReferences": {}
}