{
  "_format": "hh-sol-artifact-1",
  "contractName": "IndexRegistry",
  "sourceName": "contracts/IndexRegistry.sol",
  "abi": [
    {
      "inputs": [
        {
          "internalType": "address",
          "name": "_priceOracle",
          "type": "address"
        },
        {
          "internalType": "bool",
          "name": "_allowOnlyWhitelistedCreators",
          "type": "bool"
        }
      ],
      "stateMutability": "nonpayable",
      "type": "constructor"
    },
    {
      "anonymous": false,
      "inputs": [
        {
          "indexed": true,
          "internalType": "bytes32",
          "name": "role",
          "type": "bytes32"
        },
        {
          "indexed": true,
          "internalType": "bytes32",
          "name": "previousAdminRole",
          "type": "bytes32"
        },
        {
          "indexed": true,
          "internalType": "bytes32",
          "name": "newAdminRole",
          "type": "bytes32"
        }
      ],
      "name": "RoleAdminChanged",
      "type": "event"
    },
    {
      "anonymous": false,
      "inputs": [
        {
          "indexed": true,
          "internalType": "bytes32",
          "name": "role",
          "type": "bytes32"
        },
        {
          "indexed": true,
          "internalType": "address",
          "name": "account",
          "type": "address"
        },
        {
          "indexed": true,
          "internalType": "address",
          "name": "sender",
          "type": "address"
        }
      ],
      "name": "RoleGranted",
      "type": "event"
    },
    {
      "anonymous": false,
      "inputs": [
        {
          "indexed": true,
          "internalType": "bytes32",
          "name": "role",
          "type": "bytes32"
        },
        {
          "indexed": true,
          "internalType": "address",
          "name": "account",
          "type": "address"
        },
        {
          "indexed": true,
          "internalType": "address",
          "name": "sender",
          "type": "address"
        }
      ],
      "name": "RoleRevoked",
      "type": "event"
    },
    {
      "anonymous": false,
      "inputs": [
        {
          "indexed": true,
          "internalType": "address",
          "name": "caller",
          "type": "address"
        },
        {
          "indexed": false,
          "internalType": "bool",
          "name": "allowOnlyWhitelistedCreators",
          "type": "bool"
        }
      ],
      "name": "SetAllowOnlyWhitelistedCreators",
      "type": "event"
    },
    {
      "anonymous": false,
      "inputs": [
        {
          "indexed": true,
          "internalType": "address",
          "name": "account",
          "type": "address"
        },
        {
          "indexed": false,
          "internalType": "address",
          "name": "feePool",
          "type": "address"
        }
      ],
      "name": "SetFeePool",
      "type": "event"
    },
    {
      "anonymous": false,
      "inputs": [
        {
          "indexed": false,
          "internalType": "address",
          "name": "index",
          "type": "address"
        },
        {
          "indexed": false,
          "internalType": "string",
          "name": "name",
          "type": "string"
        }
      ],
      "name": "SetName",
      "type": "event"
    },
    {
      "anonymous": false,
      "inputs": [
        {
          "indexed": true,
          "internalType": "address",
          "name": "account",
          "type": "address"
        },
        {
          "indexed": false,
          "internalType": "address",
          "name": "orderer",
          "type": "address"
        }
      ],
      "name": "SetOrderer",
      "type": "event"
    },
    {
      "anonymous": false,
      "inputs": [
        {
          "indexed": true,
          "internalType": "address",
          "name": "account",
          "type": "address"
        },
        {
          "indexed": false,
          "internalType": "address",
          "name": "priceOracle",
          "type": "address"
        }
      ],
      "name": "SetPriceOracle",
      "type": "event"
    },
    {
      "anonymous": false,
      "inputs": [
        {
          "indexed": false,
          "internalType": "address",
          "name": "index",
          "type": "address"
        },
        {
          "indexed": false,
          "internalType": "string",
          "name": "name",
          "type": "string"
        }
      ],
      "name": "SetSymbol",
      "type": "event"
    },
    {
      "anonymous": false,
      "inputs": [
        {
          "indexed": true,
          "internalType": "address",
          "name": "asset",
          "type": "address"
        },
        {
          "indexed": false,
          "internalType": "uint256",
          "name": "marketCap",
          "type": "uint256"
        }
      ],
      "name": "UpdateAsset",
      "type": "event"
    },
    {
      "inputs": [],
      "name": "DEFAULT_ADMIN_ROLE",
      "outputs": [
        {
          "internalType": "bytes32",
          "name": "",
          "type": "bytes32"
        }
      ],
      "stateMutability": "view",
      "type": "function"
    },
    {
      "inputs": [
        {
          "internalType": "address",
          "name": "_asset",
          "type": "address"
        },
        {
          "internalType": "uint256",
          "name": "_marketCap",
          "type": "uint256"
        }
      ],
      "name": "addAsset",
      "outputs": [],
      "stateMutability": "nonpayable",
      "type": "function"
    },
    {
      "inputs": [],
      "name": "allowOnlyWhitelistedCreators",
      "outputs": [
        {
          "internalType": "bool",
          "name": "",
          "type": "bool"
        }
      ],
      "stateMutability": "view",
      "type": "function"
    },
    {
      "inputs": [],
      "name": "feePool",
      "outputs": [
        {
          "internalType": "address",
          "name": "",
          "type": "address"
        }
      ],
      "stateMutability": "view",
      "type": "function"
    },
    {
      "inputs": [
        {
          "internalType": "bytes32",
          "name": "role",
          "type": "bytes32"
        }
      ],
      "name": "getRoleAdmin",
      "outputs": [
        {
          "internalType": "bytes32",
          "name": "",
          "type": "bytes32"
        }
      ],
      "stateMutability": "view",
      "type": "function"
    },
    {
      "inputs": [
        {
          "internalType": "bytes32",
          "name": "role",
          "type": "bytes32"
        },
        {
          "internalType": "address",
          "name": "account",
          "type": "address"
        }
      ],
      "name": "grantRole",
      "outputs": [],
      "stateMutability": "nonpayable",
      "type": "function"
    },
    {
      "inputs": [
        {
          "internalType": "bytes32",
          "name": "role",
          "type": "bytes32"
        },
        {
          "internalType": "address",
          "name": "account",
          "type": "address"
        }
      ],
      "name": "hasRole",
      "outputs": [
        {
          "internalType": "bool",
          "name": "",
          "type": "bool"
        }
      ],
      "stateMutability": "view",
      "type": "function"
    },
    {
      "inputs": [
        {
          "internalType": "string",
          "name": "",
          "type": "string"
        }
      ],
      "name": "indexOfName",
      "outputs": [
        {
          "internalType": "address",
          "name": "",
          "type": "address"
        }
      ],
      "stateMutability": "view",
      "type": "function"
    },
    {
      "inputs": [
        {
          "internalType": "string",
          "name": "",
          "type": "string"
        }
      ],
      "name": "indexOfSymbol",
      "outputs": [
        {
          "internalType": "address",
          "name": "",
          "type": "address"
        }
      ],
      "stateMutability": "view",
      "type": "function"
    },
    {
      "inputs": [
        {
          "internalType": "address",
          "name": "",
          "type": "address"
        }
      ],
      "name": "marketCapOf",
      "outputs": [
        {
          "internalType": "uint256",
          "name": "",
          "type": "uint256"
        }
      ],
      "stateMutability": "view",
      "type": "function"
    },
    {
      "inputs": [
        {
          "internalType": "address[]",
          "name": "_assets",
          "type": "address[]"
        }
      ],
      "name": "marketCapsOf",
      "outputs": [
        {
          "internalType": "uint256[]",
          "name": "_marketCaps",
          "type": "uint256[]"
        },
        {
          "internalType": "uint256",
          "name": "_totalMarketCap",
          "type": "uint256"
        }
      ],
      "stateMutability": "view",
      "type": "function"
    },
    {
      "inputs": [
        {
          "internalType": "address",
          "name": "",
          "type": "address"
        }
      ],
      "name": "nameOfIndex",
      "outputs": [
        {
          "internalType": "string",
          "name": "",
          "type": "string"
        }
      ],
      "stateMutability": "view",
      "type": "function"
    },
    {
      "inputs": [],
      "name": "orderer",
      "outputs": [
        {
          "internalType": "address",
          "name": "",
          "type": "address"
        }
      ],
      "stateMutability": "view",
      "type": "function"
    },
    {
      "inputs": [],
      "name": "priceOracle",
      "outputs": [
        {
          "internalType": "address",
          "name": "",
          "type": "address"
        }
      ],
      "stateMutability": "view",
      "type": "function"
    },
    {
      "inputs": [
        {
          "internalType": "address",
          "name": "_index",
          "type": "address"
        },
        {
          "components": [
            {
              "internalType": "string",
              "name": "name",
              "type": "string"
            },
            {
              "internalType": "string",
              "name": "symbol",
              "type": "string"
            }
          ],
          "internalType": "struct IIndexFactory.NameDetails",
          "name": "_nameDetails",
          "type": "tuple"
        }
      ],
      "name": "registerIndex",
      "outputs": [],
      "stateMutability": "nonpayable",
      "type": "function"
    },
    {
      "inputs": [
        {
          "internalType": "address",
          "name": "_asset",
          "type": "address"
        }
      ],
      "name": "removeAsset",
      "outputs": [],
      "stateMutability": "nonpayable",
      "type": "function"
    },
    {
      "inputs": [
        {
          "internalType": "bytes32",
          "name": "role",
          "type": "bytes32"
        },
        {
          "internalType": "address",
          "name": "account",
          "type": "address"
        }
      ],
      "name": "renounceRole",
      "outputs": [],
      "stateMutability": "nonpayable",
      "type": "function"
    },
    {
      "inputs": [
        {
          "internalType": "bytes32",
          "name": "role",
          "type": "bytes32"
        },
        {
          "internalType": "address",
          "name": "account",
          "type": "address"
        }
      ],
      "name": "revokeRole",
      "outputs": [],
      "stateMutability": "nonpayable",
      "type": "function"
    },
    {
      "inputs": [
        {
          "internalType": "bool",
          "name": "_allowOnlyWhitelistedCreators",
          "type": "bool"
        }
      ],
      "name": "setAllowOnlyWhitelistedCreators",
      "outputs": [],
      "stateMutability": "nonpayable",
      "type": "function"
    },
    {
      "inputs": [
        {
          "internalType": "address",
          "name": "_feePool",
          "type": "address"
        }
      ],
      "name": "setFeePool",
      "outputs": [],
      "stateMutability": "nonpayable",
      "type": "function"
    },
    {
      "inputs": [
        {
          "internalType": "address",
          "name": "_index",
          "type": "address"
        },
        {
          "internalType": "string",
          "name": "_name",
          "type": "string"
        }
      ],
      "name": "setIndexName",
      "outputs": [],
      "stateMutability": "nonpayable",
      "type": "function"
    },
    {
      "inputs": [
        {
          "internalType": "address",
          "name": "_index",
          "type": "address"
        },
        {
          "internalType": "string",
          "name": "_symbol",
          "type": "string"
        }
      ],
      "name": "setIndexSymbol",
      "outputs": [],
      "stateMutability": "nonpayable",
      "type": "function"
    },
    {
      "inputs": [
        {
          "internalType": "address",
          "name": "_orderer",
          "type": "address"
        }
      ],
      "name": "setOrderer",
      "outputs": [],
      "stateMutability": "nonpayable",
      "type": "function"
    },
    {
      "inputs": [
        {
          "internalType": "address",
          "name": "_priceOracle",
          "type": "address"
        }
      ],
      "name": "setPriceOracle",
      "outputs": [],
      "stateMutability": "nonpayable",
      "type": "function"
    },
    {
      "inputs": [
        {
          "internalType": "bytes4",
          "name": "interfaceId",
          "type": "bytes4"
        }
      ],
      "name": "supportsInterface",
      "outputs": [
        {
          "internalType": "bool",
          "name": "",
          "type": "bool"
        }
      ],
      "stateMutability": "view",
      "type": "function"
    },
    {
      "inputs": [
        {
          "internalType": "address",
          "name": "",
          "type": "address"
        }
      ],
      "name": "symbolOfIndex",
      "outputs": [
        {
          "internalType": "string",
          "name": "",
          "type": "string"
        }
      ],
      "stateMutability": "view",
      "type": "function"
    },
    {
      "inputs": [],
      "name": "totalMarketCap",
      "outputs": [
        {
          "internalType": "uint256",
          "name": "",
          "type": "uint256"
        }
      ],
      "stateMutability": "view",
      "type": "function"
    },
    {
      "inputs": [
        {
          "internalType": "address",
          "name": "_asset",
          "type": "address"
        },
        {
          "internalType": "uint256",
          "name": "_marketCap",
          "type": "uint256"
        }
      ],
      "name": "updateAssetMarketCap",
      "outputs": [],
      "stateMutability": "nonpayable",
      "type": "function"
    }
  ],
  "bytecode": "0x60806040523480156200001157600080fd5b5060405162003d4a38038062003d4a8339810160408190526200003491620002b2565b600880546001600160a01b0319166001600160a01b0384161790556009805460ff60a01b1916600160a01b8315150217905560405130906200007690620002a4565b6001600160a01b039091168152602001604051809103906000f080158015620000a3573d6000803e3d6000fd5b50600980546001600160a01b0319166001600160a01b0392909216919091179055620000d1600033620001a9565b620000fd7f68e79a7bf1e0bc45d0a330c573bc367f9cf464fd326078812f301165fbda4ef133620001a9565b620001297fa579efb5fdf486e45c8efb358408689a5a4b3efb641062ea15e2378fab2e5eb833620001a9565b620001557f1916b456004f332cd8a19679364ef4be668619658be72c17b7e86697c4ae0f1633620001a9565b620001a17f766aece2fe0909e4a1f0fe06a20b32886c389ee499ca4246e7e1b80b53562a847fdfbefbf47cfe66b701d8cfdbce1de81c821590819cb07e71cb01b6602fb0ee27620001b9565b505062000300565b620001b5828262000204565b5050565b600082815260208190526040808220600101805490849055905190918391839186917fbd79b86ffe0ab8e8776151514217cd7cacd52c909f66475c3af44e129f0b00ff9190a4505050565b6000828152602081815260408083206001600160a01b038516845290915290205460ff16620001b5576000828152602081815260408083206001600160a01b03851684529091529020805460ff19166001179055620002603390565b6001600160a01b0316816001600160a01b0316837f2f8788117e7eff1d82e926ec794901d17c78024a50270940304540a733656f0d60405160405180910390a45050565b6120e08062001c6a83390190565b60008060408385031215620002c657600080fd5b82516001600160a01b0381168114620002de57600080fd5b60208401519092508015158114620002f557600080fd5b809150509250929050565b61195a80620003106000396000f3fe608060405234801561001057600080fd5b50600436106101845760003560e01c806366a6a4bd116100d9578063a217fddf11610087578063a217fddf146103c4578063ae2e933b146103cc578063bbffa2d3146103df578063d547741f146103e8578063d5adffef146103fb578063ed3b559f1461040e578063f036318d1461042157600080fd5b806366a6a4bd146102fd57806367c307a5146103105780637c22e26a146103445780637db5ccd2146103575780637e273e711461036a5780638f6a8cfe1461037d57806391d14854146103b157600080fd5b806336e726631161013657806336e726631461025e578063476027291461027e5780634a1d69f9146102915780634a5e42b1146102a4578063530e784f146102b7578063554f94ab146102ca578063628cf32f146102ea57600080fd5b806301ffc9a71461018957806319db2228146101b1578063248a9ca3146101c65780632630c12f146101f75780632f2ff15d14610217578063325a48b71461022a57806336568abe1461024b575b600080fd5b61019c61019736600461146d565b610435565b60405190151581526020015b60405180910390f35b6101c46101bf366004611277565b61046c565b005b6101e96101d4366004611428565b60009081526020819052604090206001015490565b6040519081526020016101a8565b60085461020a906001600160a01b031681565b6040516101a89190611662565b6101c4610225366004611441565b6104d1565b61023d610238366004611392565b6104fc565b6040516101a89291906116b6565b6101c4610259366004611441565b6105e3565b6101e961026c366004611277565b60056020526000908152604090205481565b6101c461028c366004611406565b610666565b6101c461029f366004611314565b6106c1565b6101c46102b2366004611277565b610783565b6101c46102c5366004611277565b6107a9565b6102dd6102d8366004611277565b610802565b6040516101a891906116fe565b60075461020a906001600160a01b031681565b6101c461030b366004611368565b61089c565b61020a61031e366004611497565b80516020818301810180516001825292820191909301209152546001600160a01b031681565b6101c4610352366004611277565b610924565b6101c4610365366004611292565b6109f6565b6101c4610378366004611292565b610a13565b61020a61038b366004611497565b80516020818301810180516002825292820191909301209152546001600160a01b031681565b61019c6103bf366004611441565b610a2a565b6101e9600081565b60095461020a906001600160a01b031681565b6101e960065481565b6101c46103f6366004611441565b610a53565b6101c4610409366004611368565b610a79565b6102dd61041c366004611277565b610aae565b60095461019c90600160a01b900460ff1681565b60006001600160e01b03198216637965db0b60e01b148061046657506301ffc9a760e01b6001600160e01b03198316145b92915050565b60006104788133610ac7565b600980546001600160a01b0319166001600160a01b03841617905560405133907f39ed5ac2ce11347d68e48f7c803785547995a3c6b4a7c8c66a728fda25044a29906104c5908590611662565b60405180910390a25050565b6000828152602081905260409020600101546104ed8133610ac7565b6104f78383610b2b565b505050565b60606000826001600160401b03811115610518576105186118ee565b604051908082528060200260200182016040528015610541578160200160208202803683370190505b50915060005b838110156105db57600060056000878785818110610567576105676118d8565b905060200201602081019061057c9190611277565b6001600160a01b03166001600160a01b03168152602001908152602001600020549050808483815181106105b2576105b26118d8565b60209081029190910101526105c781846117db565b925050806105d4906118a7565b9050610547565b509250929050565b6001600160a01b03811633146106585760405162461bcd60e51b815260206004820152602f60248201527f416363657373436f6e74726f6c3a2063616e206f6e6c792072656e6f756e636560448201526e103937b632b9903337b91039b2b63360891b60648201526084015b60405180910390fd5b6106628282610baf565b5050565b60006106728133610ac7565b60098054831515600160a01b0260ff60a01b1990911617905560405133907f29a59464f104e95c5ecdfbe1d16e52ba062e9ccedafb96f797247788305d9c14906104c590851515815260200190565b6106eb7f766aece2fe0909e4a1f0fe06a20b32886c389ee499ca4246e7e1b80b53562a8483610a2a565b156107305760405162461bcd60e51b8152602060048201526015602482015274496e64657852656769737472793a2045584953545360581b604482015260640161064f565b61075a7f766aece2fe0909e4a1f0fe06a20b32886c389ee499ca4246e7e1b80b53562a84836104d1565b61076d82610768838061178e565b610c14565b6106628261077e602084018461178e565b610d73565b61078e816000610ec4565b6107a660008051602061190583398151915282610a53565b50565b60006107b58133610ac7565b600880546001600160a01b0319166001600160a01b03841617905560405133907f944f260fa5475db9151efe54fc9fb6df2b40f73533d9483011e94522398cb3c1906104c5908590611662565b6004602052600090815260409020805461081b9061186c565b80601f01602080910402602001604051908101604052809291908181526020018280546108479061186c565b80156108945780601f1061086957610100808354040283529160200191610894565b820191906000526020600020905b81548152906001019060200180831161087757829003601f168201915b505050505081565b6108b4600080516020611905833981519152836104d1565b6108be8282610f8b565b60085460405163174c001560e01b81526001600160a01b039091169063174c0015906108ee908590600401611662565b600060405180830381600087803b15801561090857600080fd5b505af115801561091c573d6000803e3d6000fd5b505050505050565b60006109308133610ac7565b6007546001600160a01b03161561097857600754610978907ff4730887401325e116e846d0e51948344682bbc6e090c5e5993a8025fb6a68b0906001600160a01b0316610a53565b600780546001600160a01b0319166001600160a01b0384161790556109bd7ff4730887401325e116e846d0e51948344682bbc6e090c5e5993a8025fb6a68b0836104d1565b336001600160a01b03167f1c6907dceaf21fa270e456849881fa66509f0c67d1dfb2b2e67507d6ebd07949836040516104c59190611662565b6000610a028133610ac7565b610a0d848484610d73565b50505050565b6000610a1f8133610ac7565b610a0d848484610c14565b6000918252602082815260408084206001600160a01b0393909316845291905290205460ff1690565b600082815260208190526040902060010154610a6f8133610ac7565b6104f78383610baf565b7f68e79a7bf1e0bc45d0a330c573bc367f9cf464fd326078812f301165fbda4ef1610aa48133610ac7565b6104f78383610f8b565b6003602052600090815260409020805461081b9061186c565b610ad18282610a2a565b61066257610ae9816001600160a01b03166014611020565b610af4836020611020565b604051602001610b059291906115f3565b60408051601f198184030181529082905262461bcd60e51b825261064f916004016116fe565b610b358282610a2a565b610662576000828152602081815260408083206001600160a01b03851684529091529020805460ff19166001179055610b6b3390565b6001600160a01b0316816001600160a01b0316837f2f8788117e7eff1d82e926ec794901d17c78024a50270940304540a733656f0d60405160405180910390a45050565b610bb98282610a2a565b15610662576000828152602081815260408083206001600160a01b0385168085529252808320805460ff1916905551339285917ff6391f5c32d9c69d2a47ea670b442974b53935d1edc7fd64eb21e047a839171b9190a45050565b60006001600160a01b031660018383604051610c31929190611547565b908152604051908190036020019020546001600160a01b031614610c675760405162461bcd60e51b815260040161064f90611760565b8060018110801590610c7a575060208111155b610c965760405162461bcd60e51b815260040161064f90611731565b6001600160a01b038416600090815260036020526040908190209051600191610cbe91611557565b90815260405190819003602001812080546001600160a01b03191690558490600190610ced9086908690611547565b908152604080516020928190038301902080546001600160a01b0319166001600160a01b039485161790559186166000908152600390915220610d319084846111c2565b507f5b55a57845097b0b4cf682f6d089fe6bad81dc28242927eca133f4b1c4d28b44848484604051610d6593929190611676565b60405180910390a150505050565b60006001600160a01b031660028383604051610d90929190611547565b908152604051908190036020019020546001600160a01b031614610dc65760405162461bcd60e51b815260040161064f90611760565b8060038110801590610dd9575060068111155b610df55760405162461bcd60e51b815260040161064f90611731565b6001600160a01b038416600090815260046020526040908190209051600291610e1d91611557565b90815260405190819003602001812080546001600160a01b03191690558490600290610e4c9086908690611547565b908152604080516020928190038301902080546001600160a01b0319166001600160a01b039485161790559186166000908152600490915220610e909084846111c2565b507f90e198cc0c7c55f9a3c77367e40b68385aaa8c5532af4f0c7ea6358376abd327848484604051610d6593929190611676565b6001600160a01b03821615801590610eef5750610eef60008051602061190583398151915283610a2a565b610f3b5760405162461bcd60e51b815260206004820152601d60248201527f496e646578417373657452656769737472793a204e4f545f464f554e44000000604482015260640161064f565b6001600160a01b0382166000908152600560205260409020546006548291610f6291611812565b610f6c91906117db565b6006556001600160a01b03909116600090815260056020526040902055565b60008111610fdb5760405162461bcd60e51b815260206004820152601b60248201527f496e646578417373657452656769737472793a20494e56414c49440000000000604482015260640161064f565b610fe58282610ec4565b816001600160a01b03167f38335b96083d60d36c9d6590e86fb44f9b1e37d79db960400937391fdc11ecd3826040516104c591815260200190565b6060600061102f8360026117f3565b61103a9060026117db565b6001600160401b03811115611051576110516118ee565b6040519080825280601f01601f19166020018201604052801561107b576020820181803683370190505b509050600360fc1b81600081518110611096576110966118d8565b60200101906001600160f81b031916908160001a905350600f60fb1b816001815181106110c5576110c56118d8565b60200101906001600160f81b031916908160001a90535060006110e98460026117f3565b6110f49060016117db565b90505b600181111561116c576f181899199a1a9b1b9c1cb0b131b232b360811b85600f1660108110611128576111286118d8565b1a60f81b82828151811061113e5761113e6118d8565b60200101906001600160f81b031916908160001a90535060049490941c9361116581611855565b90506110f7565b5083156111bb5760405162461bcd60e51b815260206004820181905260248201527f537472696e67733a20686578206c656e67746820696e73756666696369656e74604482015260640161064f565b9392505050565b8280546111ce9061186c565b90600052602060002090601f0160209004810192826111f05760008555611236565b82601f106112095782800160ff19823516178555611236565b82800160010185558215611236579182015b8281111561123657823582559160200191906001019061121b565b50611242929150611246565b5090565b5b808211156112425760008155600101611247565b80356001600160a01b038116811461127257600080fd5b919050565b60006020828403121561128957600080fd5b6111bb8261125b565b6000806000604084860312156112a757600080fd5b6112b08461125b565b925060208401356001600160401b03808211156112cc57600080fd5b818601915086601f8301126112e057600080fd5b8135818111156112ef57600080fd5b87602082850101111561130157600080fd5b6020830194508093505050509250925092565b6000806040838503121561132757600080fd5b6113308361125b565b915060208301356001600160401b0381111561134b57600080fd5b83016040818603121561135d57600080fd5b809150509250929050565b6000806040838503121561137b57600080fd5b6113848361125b565b946020939093013593505050565b600080602083850312156113a557600080fd5b82356001600160401b03808211156113bc57600080fd5b818501915085601f8301126113d057600080fd5b8135818111156113df57600080fd5b8660208260051b85010111156113f457600080fd5b60209290920196919550909350505050565b60006020828403121561141857600080fd5b813580151581146111bb57600080fd5b60006020828403121561143a57600080fd5b5035919050565b6000806040838503121561145457600080fd5b823591506114646020840161125b565b90509250929050565b60006020828403121561147f57600080fd5b81356001600160e01b0319811681146111bb57600080fd5b6000602082840312156114a957600080fd5b81356001600160401b03808211156114c057600080fd5b818401915084601f8301126114d457600080fd5b8135818111156114e6576114e66118ee565b604051601f8201601f19908116603f0116810190838211818310171561150e5761150e6118ee565b8160405282815287602084870101111561152757600080fd5b826020860160208301376000928101602001929092525095945050505050565b8183823760009101908152919050565b600080835481600182811c91508083168061157357607f831692505b602080841082141561159357634e487b7160e01b86526022600452602486fd5b8180156115a757600181146115b8576115e5565b60ff198616895284890196506115e5565b60008a81526020902060005b868110156115dd5781548b8201529085019083016115c4565b505084890196505b509498975050505050505050565b76020b1b1b2b9b9a1b7b73a3937b61d1030b1b1b7bab73a1604d1b815260008351611625816017850160208801611829565b7001034b99036b4b9b9b4b733903937b6329607d1b6017918401918201528351611656816028840160208801611829565b01602801949350505050565b6001600160a01b0391909116815260200190565b6001600160a01b03841681526040602082018190528101829052818360608301376000818301606090810191909152601f909201601f1916010192915050565b604080825283519082018190526000906020906060840190828701845b828110156116ef578151845292840192908401906001016116d3565b50505092019290925292915050565b602081526000825180602084015261171d816040850160208701611829565b601f01601f19169190910160400192915050565b60208082526015908201527413985b59549959da5cdd1c9e4e8812539590531251605a1b604082015260600190565b6020808252601490820152734e616d6552656769737472793a2045584953545360601b604082015260600190565b6000808335601e198436030181126117a557600080fd5b8301803591506001600160401b038211156117bf57600080fd5b6020019150368190038213156117d457600080fd5b9250929050565b600082198211156117ee576117ee6118c2565b500190565b600081600019048311821515161561180d5761180d6118c2565b500290565b600082821015611824576118246118c2565b500390565b60005b8381101561184457818101518382015260200161182c565b83811115610a0d5750506000910152565b600081611864576118646118c2565b506000190190565b600181811c9082168061188057607f821691505b602082108114156118a157634e487b7160e01b600052602260045260246000fd5b50919050565b60006000198214156118bb576118bb6118c2565b5060010190565b634e487b7160e01b600052601160045260246000fd5b634e487b7160e01b600052603260045260246000fd5b634e487b7160e01b600052604160045260246000fdfe86d5cf0a6bdc8d859ba3bdc97043337c82a0e609035f378e419298b6a3e00ae6a26469706673582212203f132cd7bf21d15f9ae852159695c2093f7e9203c08859fec4f151dcb24c60b964736f6c6343000807003360a060405234801561001057600080fd5b50604051620020e0380380620020e08339810160408190526100319161004b565b600160005560601b6001600160601b03191660805261007b565b60006020828403121561005d57600080fd5b81516001600160a01b038116811461007457600080fd5b9392505050565b60805160601c61200e620000d26000396000818161033c015281816104a6015281816106e90152818161082a0152818161094201528181610a3701528181610e6f01528181610f410152611066015261200e6000f3fe608060405234801561001057600080fd5b50600436106100eb5760003560e01c80635ad88c1a116100925780635ad88c1a146101b757806381f28daf146101ee57806383a9b8c51461020157806383b4375814610214578063a785343614610227578063acd5d4581461024b578063bf16acec14610276578063c6c8bd0d14610289578063cdde8dce1461029c57600080fd5b806306b0e675146100f057806321ce086a1461010557806333ec8abe146101185780633ea270271461012b57806344d064841461013e57806351cff8d9146101515780635612e00b1461016457806359dc7ce214610197575b600080fd5b6101036100fe366004611c3d565b6102af565b005b610103610113366004611d1e565b610322565b610103610126366004611d53565b61046d565b610103610139366004611d1e565b6106cf565b61010361014c366004611cdd565b610810565b61010361015f366004611bc3565b6108ed565b610184610172366004611bc3565b60056020526000908152604090205481565b6040519081526020015b60405180910390f35b6101846101a5366004611bc3565b60016020526000908152604090205481565b6101db6101c5366004611bc3565b60036020526000908152604090205461ffff1681565b60405161ffff909116815260200161018e565b6101036101fc366004611c88565b610928565b61010361020f366004611dd4565b610a1d565b610184610222366004611c04565b610b62565b6101db610235366004611bc3565b60046020526000908152604090205461ffff1681565b610184610259366004611c04565b600260209081526000928352604080842090915290825290205481565b610103610284366004611c04565b610e2e565b610103610297366004611c88565b610f27565b6101036102aa366004611cdd565b61104c565b336001600160a01b038416146102e05760405162461bcd60e51b81526004016102d790611e66565b60405180910390fd5b6001600160a01b03808416600090815260026020908152604080832093861683529290522054610311848483611124565b61031c84838361145a565b50505050565b604051632474521560e21b81526000906001600160a01b037f000000000000000000000000000000000000000000000000000000000000000016906391d14854906103739084903390600401611e4f565b60206040518083038186803b15801561038b57600080fd5b505afa15801561039f573d6000803e3d6000fd5b505050506040513d601f19601f820116820180604052508101906103c39190611e00565b6103df5760405162461bcd60e51b81526004016102d790611e66565b8161271061ffff821611156104065760405162461bcd60e51b81526004016102d790611e92565b6001600160a01b038416600081815260036020908152604091829020805461ffff191661ffff8816908117909155915191825233917ff82761bcb1e4da3544055a200bff611c693fb863986f5d9f83c5754364fb3f1a91015b60405180910390a350505050565b604051632474521560e21b81527fdfbefbf47cfe66b701d8cfdbce1de81c821590819cb07e71cb01b6602fb0ee27906001600160a01b037f000000000000000000000000000000000000000000000000000000000000000016906391d14854906104dd9084903390600401611e4f565b60206040518083038186803b1580156104f557600080fd5b505afa158015610509573d6000803e3d6000fd5b505050506040513d601f19601f8201168201806040525081019061052d9190611e00565b6105495760405162461bcd60e51b81526004016102d790611e66565b6001600160a01b0387166000908152600360209081526040808320805461ffff808c1661ffff1992831617909255600484528285208054928b1692909116919091179055600590915281208590555b828110156105fd576105ed888585848181106105b6576105b6611faa565b6105cc9260206040909202019081019150611bc3565b8686858181106105de576105de611faa565b9050604002016020013561145a565b6105f681611f63565b9050610598565b5060405161ffff871681526001600160a01b0388169033907ff82761bcb1e4da3544055a200bff611c693fb863986f5d9f83c5754364fb3f1a9060200160405180910390a360405161ffff861681526001600160a01b0388169033907f5e8670ec817633e875ea4dd8db88c8ce647e2b29fd39a8e628ab7c66a0a6ccf29060200160405180910390a36040518481526001600160a01b0388169033907fc9b224f333d1c1d993c3838030eef2b2af8b7a7c0642f987a5c957e61b11e8739060200160405180910390a350505050505050565b604051632474521560e21b81526000906001600160a01b037f000000000000000000000000000000000000000000000000000000000000000016906391d14854906107209084903390600401611e4f565b60206040518083038186803b15801561073857600080fd5b505afa15801561074c573d6000803e3d6000fd5b505050506040513d601f19601f820116820180604052508101906107709190611e00565b61078c5760405162461bcd60e51b81526004016102d790611e66565b8161271061ffff821611156107b35760405162461bcd60e51b81526004016102d790611e92565b6001600160a01b038416600081815260046020908152604091829020805461ffff191661ffff8816908117909155915191825233917f5e8670ec817633e875ea4dd8db88c8ce647e2b29fd39a8e628ab7c66a0a6ccf2910161045f565b604051632474521560e21b81526000906001600160a01b037f000000000000000000000000000000000000000000000000000000000000000016906391d14854906108619084903390600401611e4f565b60206040518083038186803b15801561087957600080fd5b505afa15801561088d573d6000803e3d6000fd5b505050506040513d601f19601f820116820180604052508101906108b19190611e00565b6108cd5760405162461bcd60e51b81526004016102d790611e66565b6108e8836108de6020850185611bc3565b8460200135611124565b505050565b600260005414156109105760405162461bcd60e51b81526004016102d790611ebc565b60026000556109208133806116e4565b506001600055565b604051632474521560e21b81526000906001600160a01b037f000000000000000000000000000000000000000000000000000000000000000016906391d14854906109799084903390600401611e4f565b60206040518083038186803b15801561099157600080fd5b505afa1580156109a5573d6000803e3d6000fd5b505050506040513d601f19601f820116820180604052508101906109c99190611e00565b6109e55760405162461bcd60e51b81526004016102d790611e66565b60005b82811015610a1657610a06858585848181106105b6576105b6611faa565b610a0f81611f63565b90506109e8565b5050505050565b604051632474521560e21b81526000906001600160a01b037f000000000000000000000000000000000000000000000000000000000000000016906391d1485490610a6e9084903390600401611e4f565b60206040518083038186803b158015610a8657600080fd5b505afa158015610a9a573d6000803e3d6000fd5b505050506040513d601f19601f82011682018060405250810190610abe9190611e00565b610ada5760405162461bcd60e51b81526004016102d790611e66565b6b033b2e3c9fd0803ce8000000821015610b065760405162461bcd60e51b81526004016102d790611e92565b6001600160a01b038316600081815260056020526040908190208490555133907fc9b224f333d1c1d993c3838030eef2b2af8b7a7c0642f987a5c957e61b11e87390610b559086815260200190565b60405180910390a3505050565b600080836001600160a01b03166370a08231856001600160a01b031663c45a01556040518163ffffffff1660e01b815260040160206040518083038186803b158015610bad57600080fd5b505afa158015610bc1573d6000803e3d6000fd5b505050506040513d601f19601f82011682018060405250810190610be59190611be7565b6040518263ffffffff1660e01b8152600401610c019190611e3b565b60206040518083038186803b158015610c1957600080fd5b505afa158015610c2d573d6000803e3d6000fd5b505050506040513d601f19601f82011682018060405250810190610c519190611e22565b6040516370a0823160e01b81526001600160a01b038616906370a0823190610c7d903090600401611e3b565b60206040518083038186803b158015610c9557600080fd5b505afa158015610ca9573d6000803e3d6000fd5b505050506040513d601f19601f82011682018060405250810190610ccd9190611e22565b610cd79190611ef3565b6001600160a01b038516600090815260086020908152604080832054600190925290912054919250908015610d4c576001600160a01b038616600090815260096020526040812054610d299085611f4c565b90508015610d4a5781612710820281610d4457610d44611f94565b04830192505b505b6001600160a01b03808716600090815260026020908152604080832093891683529290529081205415610da4576001600160a01b038088166000908152600760209081526040808320938a1683529290522054610da6565b825b6001600160a01b038089166000908152600260209081526040808320938b168352929052908120549192508285039161271090610de4908490611f2d565b610dee9190611f0b565b6001600160a01b03808b166000908152600660209081526040808320938d1683529290522054909150610e219082611ef3565b9998505050505050505050565b60026000541415610e515760405162461bcd60e51b81526004016102d790611ebc565b60026000908155604051632474521560e21b81526001600160a01b037f000000000000000000000000000000000000000000000000000000000000000016906391d1485490610ea69084903390600401611e4f565b60206040518083038186803b158015610ebe57600080fd5b505afa158015610ed2573d6000803e3d6000fd5b505050506040513d601f19601f82011682018060405250810190610ef69190611e00565b610f125760405162461bcd60e51b81526004016102d790611e66565b610f1d8384846116e4565b5050600160005550565b604051632474521560e21b81526000906001600160a01b037f000000000000000000000000000000000000000000000000000000000000000016906391d1485490610f789084903390600401611e4f565b60206040518083038186803b158015610f9057600080fd5b505afa158015610fa4573d6000803e3d6000fd5b505050506040513d601f19601f82011682018060405250810190610fc89190611e00565b610fe45760405162461bcd60e51b81526004016102d790611e66565b60005b82811015610a165761103c8585858481811061100557611005611faa565b61101b9260206040909202019081019150611bc3565b86868581811061102d5761102d611faa565b90506040020160200135611124565b61104581611f63565b9050610fe7565b604051632474521560e21b81526000906001600160a01b037f000000000000000000000000000000000000000000000000000000000000000016906391d148549061109d9084903390600401611e4f565b60206040518083038186803b1580156110b557600080fd5b505afa1580156110c9573d6000803e3d6000fd5b505050506040513d601f19601f820116820180604052508101906110ed9190611e00565b6111095760405162461bcd60e51b81526004016102d790611e66565b6108e88361111a6020850185611bc3565b846020013561145a565b8282813b156111fc57816001600160a01b031663c45a01556040518163ffffffff1660e01b815260040160206040518083038186803b15801561116657600080fd5b505afa15801561117a573d6000803e3d6000fd5b505050506040513d601f19601f8201168201806040525081019061119e9190611be7565b6001600160a01b031663c0bc4e22836040518263ffffffff1660e01b81526004016111c99190611e3b565b600060405180830381600087803b1580156111e357600080fd5b505af11580156111f7573d6000803e3d6000fd5b505050505b6001600160a01b03821660009081526001602052604090205480156112f4576001600160a01b0383166000818152600960205260408082205490516370a0823160e01b8152919290916370a0823190611259903090600401611e3b565b60206040518083038186803b15801561127157600080fd5b505afa158015611285573d6000803e3d6000fd5b505050506040513d601f19601f820116820180604052508101906112a99190611e22565b6112b39190611f4c565b905080156112f257816127108202816112ce576112ce611f94565b6001600160a01b038616600090815260086020526040902080549290910490910190555b505b6112fe8383611a0d565b6001600160a01b03808716600090815260026020908152604080832093891683529290529081208054869290611335908490611f4c565b90915550506001600160a01b03861660009081526001602052604081208054869290611362908490611f4c565b92505081905550846001600160a01b0316866001600160a01b03167fbac40739b0d4ca32fa2d82fc91630465ba3eddd1598da6fca393b26fb63b9453866040516113ae91815260200190565b60405180910390a38015611452576040516370a0823160e01b81526001600160a01b038416906370a08231906113e8903090600401611e3b565b60206040518083038186803b15801561140057600080fd5b505afa158015611414573d6000803e3d6000fd5b505050506040513d601f19601f820116820180604052508101906114389190611e22565b6001600160a01b0384166000908152600960205260409020555b505050505050565b8282813b1561153257816001600160a01b031663c45a01556040518163ffffffff1660e01b815260040160206040518083038186803b15801561149c57600080fd5b505afa1580156114b0573d6000803e3d6000fd5b505050506040513d601f19601f820116820180604052508101906114d49190611be7565b6001600160a01b031663c0bc4e22836040518263ffffffff1660e01b81526004016114ff9190611e3b565b600060405180830381600087803b15801561151957600080fd5b505af115801561152d573d6000803e3d6000fd5b505050505b6001600160a01b038216600090815260016020526040902054801561162a576001600160a01b0383166000818152600960205260408082205490516370a0823160e01b8152919290916370a082319061158f903090600401611e3b565b60206040518083038186803b1580156115a757600080fd5b505afa1580156115bb573d6000803e3d6000fd5b505050506040513d601f19601f820116820180604052508101906115df9190611e22565b6115e99190611f4c565b90508015611628578161271082028161160457611604611f94565b6001600160a01b038616600090815260086020526040902080549290910490910190555b505b6116348383611a0d565b6001600160a01b0380871660009081526002602090815260408083209389168352929052908120805486929061166b908490611ef3565b90915550506001600160a01b03861660009081526001602052604081208054869290611698908490611ef3565b92505081905550846001600160a01b0316866001600160a01b03167fab8530f87dc9b59234c4623bf917212bb2536d647574c8e7e5da92c2ede0c9f8866040516113ae91815260200190565b8282813b156117bc57816001600160a01b031663c45a01556040518163ffffffff1660e01b815260040160206040518083038186803b15801561172657600080fd5b505afa15801561173a573d6000803e3d6000fd5b505050506040513d601f19601f8201168201806040525081019061175e9190611be7565b6001600160a01b031663c0bc4e22836040518263ffffffff1660e01b81526004016117899190611e3b565b600060405180830381600087803b1580156117a357600080fd5b505af11580156117b7573d6000803e3d6000fd5b505050505b6001600160a01b03821660009081526001602052604090205480156118b4576001600160a01b0383166000818152600960205260408082205490516370a0823160e01b8152919290916370a0823190611819903090600401611e3b565b60206040518083038186803b15801561183157600080fd5b505afa158015611845573d6000803e3d6000fd5b505050506040513d601f19601f820116820180604052508101906118699190611e22565b6118739190611f4c565b905080156118b2578161271082028161188e5761188e611f94565b6001600160a01b038616600090815260086020526040902080549290910490910190555b505b6118be8383611a0d565b6001600160a01b0380871660009081526006602090815260408083209389168352929052205480156119da576001600160a01b0387811660008181526006602090815260408083208b86168452909152808220919091555163a9059cbb60e01b81529187166004830152602482018390529063a9059cbb90604401602060405180830381600087803b15801561195357600080fd5b505af1158015611967573d6000803e3d6000fd5b505050506040513d601f19601f8201168201806040525081019061198b9190611e00565b50846001600160a01b0316876001600160a01b03167f9b1bfa7fa9ee420a16e124f794c35ac9f90472acc99140eb2f6447c714cad8eb836040516119d191815260200190565b60405180910390a35b508015611452576040516370a0823160e01b81526001600160a01b038416906370a08231906113e8903090600401611e3b565b6001600160a01b03808316600090815260026020908152604080832093851683529290529081205415611a65576001600160a01b03808416600090815260076020908152604080832093861683529290522054611a7f565b6001600160a01b0383166000908152600860205260409020545b6001600160a01b038416600090815260086020526040902054909150818103908214611b2d576001600160a01b03808516600090815260026020908152604080832093871683529290529081205461271090611adc908490611f2d565b611ae69190611f0b565b90508015611b2b576001600160a01b03808616600090815260066020908152604080832093881683529290529081208054839290611b25908490611ef3565b90915550505b505b50506001600160a01b03918216600090815260086020908152604080832054600783528184209490951683529290522055565b60008083601f840112611b7257600080fd5b50813567ffffffffffffffff811115611b8a57600080fd5b6020830191508360208260061b8501011115611ba557600080fd5b9250929050565b803561ffff81168114611bbe57600080fd5b919050565b600060208284031215611bd557600080fd5b8135611be081611fc0565b9392505050565b600060208284031215611bf957600080fd5b8151611be081611fc0565b60008060408385031215611c1757600080fd5b8235611c2281611fc0565b91506020830135611c3281611fc0565b809150509250929050565b600080600060608486031215611c5257600080fd5b8335611c5d81611fc0565b92506020840135611c6d81611fc0565b91506040840135611c7d81611fc0565b809150509250925092565b600080600060408486031215611c9d57600080fd5b8335611ca881611fc0565b9250602084013567ffffffffffffffff811115611cc457600080fd5b611cd086828701611b60565b9497909650939450505050565b6000808284036060811215611cf157600080fd5b8335611cfc81611fc0565b92506040601f1982011215611d1057600080fd5b506020830190509250929050565b60008060408385031215611d3157600080fd5b8235611d3c81611fc0565b9150611d4a60208401611bac565b90509250929050565b60008060008060008060a08789031215611d6c57600080fd5b8635611d7781611fc0565b9550611d8560208801611bac565b9450611d9360408801611bac565b935060608701359250608087013567ffffffffffffffff811115611db657600080fd5b611dc289828a01611b60565b979a9699509497509295939492505050565b60008060408385031215611de757600080fd5b8235611df281611fc0565b946020939093013593505050565b600060208284031215611e1257600080fd5b81518015158114611be057600080fd5b600060208284031215611e3457600080fd5b5051919050565b6001600160a01b0391909116815260200190565b9182526001600160a01b0316602082015260400190565b6020808252601290820152712332b2a837b7b61d102327a92124a22222a760711b604082015260600190565b60208082526010908201526f119959541bdbdb0e881253959053125160821b604082015260600190565b6020808252601f908201527f5265656e7472616e637947756172643a207265656e7472616e742063616c6c00604082015260600190565b60008219821115611f0657611f06611f7e565b500190565b600082611f2857634e487b7160e01b600052601260045260246000fd5b500490565b6000816000190483118215151615611f4757611f47611f7e565b500290565b600082821015611f5e57611f5e611f7e565b500390565b6000600019821415611f7757611f77611f7e565b5060010190565b634e487b7160e01b600052601160045260246000fd5b634e487b7160e01b600052601260045260246000fd5b634e487b7160e01b600052603260045260246000fd5b6001600160a01b0381168114611fd557600080fd5b5056fea264697066735822122082a24d90760ab6fbcb9417a1541ee98cbc310199dfc1baaee22e2e144091946664736f6c63430008070033",
  "linkReferences": {},
  "deployedLinkReferences": {}
}