{
  "_format": "hh-sol-artifact-1",
  "contractName": "IndexRegistry",
  "sourceName": "contracts/IndexRegistry.sol",
  "abi": [
    {
      "inputs": [
        {
          "internalType": "address",
          "name": "_priceOracle",
          "type": "address"
        },
        {
          "internalType": "bool",
          "name": "_allowOnlyWhitelistedCreators",
          "type": "bool"
        }
      ],
      "stateMutability": "nonpayable",
      "type": "constructor"
    },
    {
      "anonymous": false,
      "inputs": [
        {
          "indexed": true,
          "internalType": "bytes32",
          "name": "role",
          "type": "bytes32"
        },
        {
          "indexed": true,
          "internalType": "bytes32",
          "name": "previousAdminRole",
          "type": "bytes32"
        },
        {
          "indexed": true,
          "internalType": "bytes32",
          "name": "newAdminRole",
          "type": "bytes32"
        }
      ],
      "name": "RoleAdminChanged",
      "type": "event"
    },
    {
      "anonymous": false,
      "inputs": [
        {
          "indexed": true,
          "internalType": "bytes32",
          "name": "role",
          "type": "bytes32"
        },
        {
          "indexed": true,
          "internalType": "address",
          "name": "account",
          "type": "address"
        },
        {
          "indexed": true,
          "internalType": "address",
          "name": "sender",
          "type": "address"
        }
      ],
      "name": "RoleGranted",
      "type": "event"
    },
    {
      "anonymous": false,
      "inputs": [
        {
          "indexed": true,
          "internalType": "bytes32",
          "name": "role",
          "type": "bytes32"
        },
        {
          "indexed": true,
          "internalType": "address",
          "name": "account",
          "type": "address"
        },
        {
          "indexed": true,
          "internalType": "address",
          "name": "sender",
          "type": "address"
        }
      ],
      "name": "RoleRevoked",
      "type": "event"
    },
    {
      "anonymous": false,
      "inputs": [
        {
          "indexed": true,
          "internalType": "address",
          "name": "account",
          "type": "address"
        },
        {
          "indexed": false,
          "internalType": "bool",
          "name": "allowOnlyWhitelistedCreators",
          "type": "bool"
        }
      ],
      "name": "SetAllowOnlyWhitelistedCreators",
      "type": "event"
    },
    {
      "anonymous": false,
      "inputs": [
        {
          "indexed": true,
          "internalType": "address",
          "name": "account",
          "type": "address"
        },
        {
          "indexed": false,
          "internalType": "address",
          "name": "feePool",
          "type": "address"
        }
      ],
      "name": "SetFeePool",
      "type": "event"
    },
    {
      "anonymous": false,
      "inputs": [
        {
          "indexed": false,
          "internalType": "address",
          "name": "index",
          "type": "address"
        },
        {
          "indexed": false,
          "internalType": "string",
          "name": "name",
          "type": "string"
        }
      ],
      "name": "SetName",
      "type": "event"
    },
    {
      "anonymous": false,
      "inputs": [
        {
          "indexed": true,
          "internalType": "address",
          "name": "account",
          "type": "address"
        },
        {
          "indexed": false,
          "internalType": "address",
          "name": "orderer",
          "type": "address"
        }
      ],
      "name": "SetOrderer",
      "type": "event"
    },
    {
      "anonymous": false,
      "inputs": [
        {
          "indexed": true,
          "internalType": "address",
          "name": "account",
          "type": "address"
        },
        {
          "indexed": false,
          "internalType": "address",
          "name": "priceOracle",
          "type": "address"
        }
      ],
      "name": "SetPriceOracle",
      "type": "event"
    },
    {
      "anonymous": false,
      "inputs": [
        {
          "indexed": true,
          "internalType": "address",
          "name": "account",
          "type": "address"
        },
        {
          "indexed": false,
          "internalType": "address",
          "name": "reweightingCredit",
          "type": "address"
        }
      ],
      "name": "SetReweightingCredit",
      "type": "event"
    },
    {
      "anonymous": false,
      "inputs": [
        {
          "indexed": false,
          "internalType": "address",
          "name": "index",
          "type": "address"
        },
        {
          "indexed": false,
          "internalType": "string",
          "name": "name",
          "type": "string"
        }
      ],
      "name": "SetSymbol",
      "type": "event"
    },
    {
      "anonymous": false,
      "inputs": [
        {
          "indexed": true,
          "internalType": "address",
          "name": "asset",
          "type": "address"
        },
        {
          "indexed": false,
          "internalType": "uint256",
          "name": "marketCap",
          "type": "uint256"
        }
      ],
      "name": "UpdateAsset",
      "type": "event"
    },
    {
      "inputs": [],
      "name": "DEFAULT_ADMIN_ROLE",
      "outputs": [
        {
          "internalType": "bytes32",
          "name": "",
          "type": "bytes32"
        }
      ],
      "stateMutability": "view",
      "type": "function"
    },
    {
      "inputs": [
        {
          "internalType": "address",
          "name": "_asset",
          "type": "address"
        },
        {
          "internalType": "uint256",
          "name": "_marketCap",
          "type": "uint256"
        }
      ],
      "name": "addAsset",
      "outputs": [],
      "stateMutability": "nonpayable",
      "type": "function"
    },
    {
      "inputs": [],
      "name": "allowOnlyWhitelistedCreators",
      "outputs": [
        {
          "internalType": "bool",
          "name": "",
          "type": "bool"
        }
      ],
      "stateMutability": "view",
      "type": "function"
    },
    {
      "inputs": [],
      "name": "feePool",
      "outputs": [
        {
          "internalType": "address",
          "name": "",
          "type": "address"
        }
      ],
      "stateMutability": "view",
      "type": "function"
    },
    {
      "inputs": [
        {
          "internalType": "bytes32",
          "name": "role",
          "type": "bytes32"
        }
      ],
      "name": "getRoleAdmin",
      "outputs": [
        {
          "internalType": "bytes32",
          "name": "",
          "type": "bytes32"
        }
      ],
      "stateMutability": "view",
      "type": "function"
    },
    {
      "inputs": [
        {
          "internalType": "bytes32",
          "name": "role",
          "type": "bytes32"
        },
        {
          "internalType": "address",
          "name": "account",
          "type": "address"
        }
      ],
      "name": "grantRole",
      "outputs": [],
      "stateMutability": "nonpayable",
      "type": "function"
    },
    {
      "inputs": [
        {
          "internalType": "bytes32",
          "name": "role",
          "type": "bytes32"
        },
        {
          "internalType": "address",
          "name": "account",
          "type": "address"
        }
      ],
      "name": "hasRole",
      "outputs": [
        {
          "internalType": "bool",
          "name": "",
          "type": "bool"
        }
      ],
      "stateMutability": "view",
      "type": "function"
    },
    {
      "inputs": [
        {
          "internalType": "string",
          "name": "",
          "type": "string"
        }
      ],
      "name": "indexOfName",
      "outputs": [
        {
          "internalType": "address",
          "name": "",
          "type": "address"
        }
      ],
      "stateMutability": "view",
      "type": "function"
    },
    {
      "inputs": [
        {
          "internalType": "string",
          "name": "",
          "type": "string"
        }
      ],
      "name": "indexOfSymbol",
      "outputs": [
        {
          "internalType": "address",
          "name": "",
          "type": "address"
        }
      ],
      "stateMutability": "view",
      "type": "function"
    },
    {
      "inputs": [
        {
          "internalType": "address",
          "name": "",
          "type": "address"
        }
      ],
      "name": "marketCapOf",
      "outputs": [
        {
          "internalType": "uint256",
          "name": "",
          "type": "uint256"
        }
      ],
      "stateMutability": "view",
      "type": "function"
    },
    {
      "inputs": [
        {
          "internalType": "address[]",
          "name": "_assets",
          "type": "address[]"
        }
      ],
      "name": "marketCapsOf",
      "outputs": [
        {
          "internalType": "uint256[]",
          "name": "_marketCaps",
          "type": "uint256[]"
        },
        {
          "internalType": "uint256",
          "name": "_totalMarketCap",
          "type": "uint256"
        }
      ],
      "stateMutability": "view",
      "type": "function"
    },
    {
      "inputs": [
        {
          "internalType": "address",
          "name": "",
          "type": "address"
        }
      ],
      "name": "nameOfIndex",
      "outputs": [
        {
          "internalType": "string",
          "name": "",
          "type": "string"
        }
      ],
      "stateMutability": "view",
      "type": "function"
    },
    {
      "inputs": [],
      "name": "orderer",
      "outputs": [
        {
          "internalType": "address",
          "name": "",
          "type": "address"
        }
      ],
      "stateMutability": "view",
      "type": "function"
    },
    {
      "inputs": [],
      "name": "priceOracle",
      "outputs": [
        {
          "internalType": "address",
          "name": "",
          "type": "address"
        }
      ],
      "stateMutability": "view",
      "type": "function"
    },
    {
      "inputs": [
        {
          "internalType": "address",
          "name": "_index",
          "type": "address"
        },
        {
          "components": [
            {
              "internalType": "string",
              "name": "name",
              "type": "string"
            },
            {
              "internalType": "string",
              "name": "symbol",
              "type": "string"
            }
          ],
          "internalType": "struct IIndexFactory.NameDetails",
          "name": "_nameDetails",
          "type": "tuple"
        }
      ],
      "name": "registerIndex",
      "outputs": [],
      "stateMutability": "nonpayable",
      "type": "function"
    },
    {
      "inputs": [
        {
          "internalType": "address",
          "name": "_asset",
          "type": "address"
        }
      ],
      "name": "removeAsset",
      "outputs": [],
      "stateMutability": "nonpayable",
      "type": "function"
    },
    {
      "inputs": [
        {
          "internalType": "bytes32",
          "name": "role",
          "type": "bytes32"
        },
        {
          "internalType": "address",
          "name": "account",
          "type": "address"
        }
      ],
      "name": "renounceRole",
      "outputs": [],
      "stateMutability": "nonpayable",
      "type": "function"
    },
    {
      "inputs": [
        {
          "internalType": "bytes32",
          "name": "role",
          "type": "bytes32"
        },
        {
          "internalType": "address",
          "name": "account",
          "type": "address"
        }
      ],
      "name": "revokeRole",
      "outputs": [],
      "stateMutability": "nonpayable",
      "type": "function"
    },
    {
      "inputs": [],
      "name": "reweightingCredit",
      "outputs": [
        {
          "internalType": "address",
          "name": "",
          "type": "address"
        }
      ],
      "stateMutability": "view",
      "type": "function"
    },
    {
      "inputs": [
        {
          "internalType": "bool",
          "name": "_allowOnlyWhitelistedCreators",
          "type": "bool"
        }
      ],
      "name": "setAllowOnlyWhitelistedCreators",
      "outputs": [],
      "stateMutability": "nonpayable",
      "type": "function"
    },
    {
      "inputs": [
        {
          "internalType": "address",
          "name": "_feePool",
          "type": "address"
        }
      ],
      "name": "setFeePool",
      "outputs": [],
      "stateMutability": "nonpayable",
      "type": "function"
    },
    {
      "inputs": [
        {
          "internalType": "address",
          "name": "_index",
          "type": "address"
        },
        {
          "internalType": "string",
          "name": "_name",
          "type": "string"
        }
      ],
      "name": "setIndexName",
      "outputs": [],
      "stateMutability": "nonpayable",
      "type": "function"
    },
    {
      "inputs": [
        {
          "internalType": "address",
          "name": "_index",
          "type": "address"
        },
        {
          "internalType": "string",
          "name": "_symbol",
          "type": "string"
        }
      ],
      "name": "setIndexSymbol",
      "outputs": [],
      "stateMutability": "nonpayable",
      "type": "function"
    },
    {
      "inputs": [
        {
          "internalType": "address",
          "name": "_orderer",
          "type": "address"
        }
      ],
      "name": "setOrderer",
      "outputs": [],
      "stateMutability": "nonpayable",
      "type": "function"
    },
    {
      "inputs": [
        {
          "internalType": "address",
          "name": "_priceOracle",
          "type": "address"
        }
      ],
      "name": "setPriceOracle",
      "outputs": [],
      "stateMutability": "nonpayable",
      "type": "function"
    },
    {
      "inputs": [
        {
          "internalType": "address",
          "name": "_reweightingCredit",
          "type": "address"
        }
      ],
      "name": "setReweightingCredit",
      "outputs": [],
      "stateMutability": "nonpayable",
      "type": "function"
    },
    {
      "inputs": [
        {
          "internalType": "bytes4",
          "name": "interfaceId",
          "type": "bytes4"
        }
      ],
      "name": "supportsInterface",
      "outputs": [
        {
          "internalType": "bool",
          "name": "",
          "type": "bool"
        }
      ],
      "stateMutability": "view",
      "type": "function"
    },
    {
      "inputs": [
        {
          "internalType": "address",
          "name": "",
          "type": "address"
        }
      ],
      "name": "symbolOfIndex",
      "outputs": [
        {
          "internalType": "string",
          "name": "",
          "type": "string"
        }
      ],
      "stateMutability": "view",
      "type": "function"
    },
    {
      "inputs": [],
      "name": "totalMarketCap",
      "outputs": [
        {
          "internalType": "uint256",
          "name": "",
          "type": "uint256"
        }
      ],
      "stateMutability": "view",
      "type": "function"
    },
    {
      "inputs": [
        {
          "internalType": "address",
          "name": "_asset",
          "type": "address"
        },
        {
          "internalType": "uint256",
          "name": "_marketCap",
          "type": "uint256"
        }
      ],
      "name": "updateAssetMarketCap",
      "outputs": [],
      "stateMutability": "nonpayable",
      "type": "function"
    }
  ],
  "bytecode": "0x60806040523480156200001157600080fd5b5060405162003ebc38038062003ebc8339810160408190526200003491620002b2565b600880546001600160a01b0319166001600160a01b038416179055600a805460ff60a01b1916600160a01b8315150217905560405130906200007690620002a4565b6001600160a01b039091168152602001604051809103906000f080158015620000a3573d6000803e3d6000fd5b50600a80546001600160a01b0319166001600160a01b0392909216919091179055620000d1600033620001a9565b620000fd7f68e79a7bf1e0bc45d0a330c573bc367f9cf464fd326078812f301165fbda4ef133620001a9565b620001297fa579efb5fdf486e45c8efb358408689a5a4b3efb641062ea15e2378fab2e5eb833620001a9565b620001557f1916b456004f332cd8a19679364ef4be668619658be72c17b7e86697c4ae0f1633620001a9565b620001a17f766aece2fe0909e4a1f0fe06a20b32886c389ee499ca4246e7e1b80b53562a847fdfbefbf47cfe66b701d8cfdbce1de81c821590819cb07e71cb01b6602fb0ee27620001b9565b505062000300565b620001b5828262000204565b5050565b600082815260208190526040808220600101805490849055905190918391839186917fbd79b86ffe0ab8e8776151514217cd7cacd52c909f66475c3af44e129f0b00ff9190a4505050565b6000828152602081815260408083206001600160a01b038516845290915290205460ff16620001b5576000828152602081815260408083206001600160a01b03851684529091529020805460ff19166001179055620002603390565b6001600160a01b0316816001600160a01b0316837f2f8788117e7eff1d82e926ec794901d17c78024a50270940304540a733656f0d60405160405180910390a45050565b61216f8062001d4d83390190565b60008060408385031215620002c657600080fd5b82516001600160a01b0381168114620002de57600080fd5b60208401519092508015158114620002f557600080fd5b809150509250929050565b611a3d80620003106000396000f3fe608060405234801561001057600080fd5b506004361061019a5760003560e01c8063628cf32f116100e457806391d148541161009257806391d14854146103ed578063a217fddf14610400578063ae2e933b14610408578063bbffa2d31461041b578063d547741f14610424578063d5adffef14610437578063ed3b559f1461044a578063f036318d1461045d57600080fd5b8063628cf32f1461032657806366a6a4bd1461033957806367c307a51461034c5780637c22e26a146103805780637db5ccd2146103935780637e273e71146103a65780638f6a8cfe146103b957600080fd5b806336568abe1161014c57806336568abe1461027457806336e726631461028757806347602729146102a75780634a1d69f9146102ba5780634a5e42b1146102cd5780634df0cb85146102e0578063530e784f146102f3578063554f94ab1461030657600080fd5b806301ffc9a71461019f578063132d3d3e146101c757806319db2228146101dc578063248a9ca3146101ef5780632630c12f146102205780632f2ff15d14610240578063325a48b714610253575b600080fd5b6101b26101ad366004611550565b610471565b60405190151581526020015b60405180910390f35b6101da6101d536600461135a565b61049c565b005b6101da6101ea36600461135a565b610501565b6102126101fd36600461150b565b60009081526020819052604090206001015490565b6040519081526020016101be565b600854610233906001600160a01b031681565b6040516101be9190611745565b6101da61024e366004611524565b61055a565b610266610261366004611475565b610585565b6040516101be929190611799565b6101da610282366004611524565b61066c565b61021261029536600461135a565b60056020526000908152604090205481565b6101da6102b53660046114e9565b6106ef565b6101da6102c83660046113f7565b61074a565b6101da6102db36600461135a565b61080c565b600954610233906001600160a01b031681565b6101da61030136600461135a565b610832565b61031961031436600461135a565b61088b565b6040516101be91906117e1565b600754610233906001600160a01b031681565b6101da61034736600461144b565b610925565b61023361035a36600461157a565b80516020818301810180516001825292820191909301209152546001600160a01b031681565b6101da61038e36600461135a565b6109ad565b6101da6103a1366004611375565b610a7f565b6101da6103b4366004611375565b610a9c565b6102336103c736600461157a565b80516020818301810180516002825292820191909301209152546001600160a01b031681565b6101b26103fb366004611524565b610ab3565b610212600081565b600a54610233906001600160a01b031681565b61021260065481565b6101da610432366004611524565b610adc565b6101da61044536600461144b565b610b02565b61031961045836600461135a565b610b37565b600a546101b290600160a01b900460ff1681565b60006001600160e01b03198216630e79114d60e21b1480610496575061049682610b50565b92915050565b60006104a88133610b75565b600980546001600160a01b0319166001600160a01b03841617905560405133907fab435f2373dca605c08e7dbafe1ee0ae2b7c124f9454c55be7336c7d4912c367906104f5908590611745565b60405180910390a25050565b600061050d8133610b75565b600a80546001600160a01b0319166001600160a01b03841617905560405133907f39ed5ac2ce11347d68e48f7c803785547995a3c6b4a7c8c66a728fda25044a29906104f5908590611745565b6000828152602081905260409020600101546105768133610b75565b6105808383610bd9565b505050565b60606000826001600160401b038111156105a1576105a16119d1565b6040519080825280602002602001820160405280156105ca578160200160208202803683370190505b50915060005b83811015610664576000600560008787858181106105f0576105f06119bb565b9050602002016020810190610605919061135a565b6001600160a01b03166001600160a01b031681526020019081526020016000205490508084838151811061063b5761063b6119bb565b602090810291909101015261065081846118be565b9250508061065d9061198a565b90506105d0565b509250929050565b6001600160a01b03811633146106e15760405162461bcd60e51b815260206004820152602f60248201527f416363657373436f6e74726f6c3a2063616e206f6e6c792072656e6f756e636560448201526e103937b632b9903337b91039b2b63360891b60648201526084015b60405180910390fd5b6106eb8282610c5d565b5050565b60006106fb8133610b75565b600a8054831515600160a01b0260ff60a01b1990911617905560405133907f29a59464f104e95c5ecdfbe1d16e52ba062e9ccedafb96f797247788305d9c14906104f590851515815260200190565b6107747f766aece2fe0909e4a1f0fe06a20b32886c389ee499ca4246e7e1b80b53562a8483610ab3565b156107b95760405162461bcd60e51b8152602060048201526015602482015274496e64657852656769737472793a2045584953545360581b60448201526064016106d8565b6107e37f766aece2fe0909e4a1f0fe06a20b32886c389ee499ca4246e7e1b80b53562a848361055a565b6107f6826107f18380611871565b610cc2565b6106eb826108076020840184611871565b610e21565b610817816000610f72565b61082f6000805160206119e883398151915282610adc565b50565b600061083e8133610b75565b600880546001600160a01b0319166001600160a01b03841617905560405133907f944f260fa5475db9151efe54fc9fb6df2b40f73533d9483011e94522398cb3c1906104f5908590611745565b600460205260009081526040902080546108a49061194f565b80601f01602080910402602001604051908101604052809291908181526020018280546108d09061194f565b801561091d5780601f106108f25761010080835404028352916020019161091d565b820191906000526020600020905b81548152906001019060200180831161090057829003601f168201915b505050505081565b61093d6000805160206119e88339815191528361055a565b6109478282611039565b60085460405163174c001560e01b81526001600160a01b039091169063174c001590610977908590600401611745565b600060405180830381600087803b15801561099157600080fd5b505af11580156109a5573d6000803e3d6000fd5b505050505050565b60006109b98133610b75565b6007546001600160a01b031615610a0157600754610a01907ff4730887401325e116e846d0e51948344682bbc6e090c5e5993a8025fb6a68b0906001600160a01b0316610adc565b600780546001600160a01b0319166001600160a01b038416179055610a467ff4730887401325e116e846d0e51948344682bbc6e090c5e5993a8025fb6a68b08361055a565b336001600160a01b03167f1c6907dceaf21fa270e456849881fa66509f0c67d1dfb2b2e67507d6ebd07949836040516104f59190611745565b6000610a8b8133610b75565b610a96848484610e21565b50505050565b6000610aa88133610b75565b610a96848484610cc2565b6000918252602082815260408084206001600160a01b0393909316845291905290205460ff1690565b600082815260208190526040902060010154610af88133610b75565b6105808383610c5d565b7f68e79a7bf1e0bc45d0a330c573bc367f9cf464fd326078812f301165fbda4ef1610b2d8133610b75565b6105808383611039565b600360205260009081526040902080546108a49061194f565b60006001600160e01b031982166314d3ee3360e21b14806104965750610496826110ce565b610b7f8282610ab3565b6106eb57610b97816001600160a01b03166014611103565b610ba2836020611103565b604051602001610bb39291906116d6565b60408051601f198184030181529082905262461bcd60e51b82526106d8916004016117e1565b610be38282610ab3565b6106eb576000828152602081815260408083206001600160a01b03851684529091529020805460ff19166001179055610c193390565b6001600160a01b0316816001600160a01b0316837f2f8788117e7eff1d82e926ec794901d17c78024a50270940304540a733656f0d60405160405180910390a45050565b610c678282610ab3565b156106eb576000828152602081815260408083206001600160a01b0385168085529252808320805460ff1916905551339285917ff6391f5c32d9c69d2a47ea670b442974b53935d1edc7fd64eb21e047a839171b9190a45050565b60006001600160a01b031660018383604051610cdf92919061162a565b908152604051908190036020019020546001600160a01b031614610d155760405162461bcd60e51b81526004016106d890611843565b8060018110801590610d28575060208111155b610d445760405162461bcd60e51b81526004016106d890611814565b6001600160a01b038416600090815260036020526040908190209051600191610d6c9161163a565b90815260405190819003602001812080546001600160a01b03191690558490600190610d9b908690869061162a565b908152604080516020928190038301902080546001600160a01b0319166001600160a01b039485161790559186166000908152600390915220610ddf9084846112a5565b507f5b55a57845097b0b4cf682f6d089fe6bad81dc28242927eca133f4b1c4d28b44848484604051610e1393929190611759565b60405180910390a150505050565b60006001600160a01b031660028383604051610e3e92919061162a565b908152604051908190036020019020546001600160a01b031614610e745760405162461bcd60e51b81526004016106d890611843565b8060038110801590610e87575060068111155b610ea35760405162461bcd60e51b81526004016106d890611814565b6001600160a01b038416600090815260046020526040908190209051600291610ecb9161163a565b90815260405190819003602001812080546001600160a01b03191690558490600290610efa908690869061162a565b908152604080516020928190038301902080546001600160a01b0319166001600160a01b039485161790559186166000908152600490915220610f3e9084846112a5565b507f90e198cc0c7c55f9a3c77367e40b68385aaa8c5532af4f0c7ea6358376abd327848484604051610e1393929190611759565b6001600160a01b03821615801590610f9d5750610f9d6000805160206119e883398151915283610ab3565b610fe95760405162461bcd60e51b815260206004820152601d60248201527f496e646578417373657452656769737472793a204e4f545f464f554e4400000060448201526064016106d8565b6001600160a01b0382166000908152600560205260409020546006548291611010916118f5565b61101a91906118be565b6006556001600160a01b03909116600090815260056020526040902055565b600081116110895760405162461bcd60e51b815260206004820152601b60248201527f496e646578417373657452656769737472793a20494e56414c4944000000000060448201526064016106d8565b6110938282610f72565b816001600160a01b03167f38335b96083d60d36c9d6590e86fb44f9b1e37d79db960400937391fdc11ecd3826040516104f591815260200190565b60006001600160e01b03198216637965db0b60e01b148061049657506301ffc9a760e01b6001600160e01b0319831614610496565b606060006111128360026118d6565b61111d9060026118be565b6001600160401b03811115611134576111346119d1565b6040519080825280601f01601f19166020018201604052801561115e576020820181803683370190505b509050600360fc1b81600081518110611179576111796119bb565b60200101906001600160f81b031916908160001a905350600f60fb1b816001815181106111a8576111a86119bb565b60200101906001600160f81b031916908160001a90535060006111cc8460026118d6565b6111d79060016118be565b90505b600181111561124f576f181899199a1a9b1b9c1cb0b131b232b360811b85600f166010811061120b5761120b6119bb565b1a60f81b828281518110611221576112216119bb565b60200101906001600160f81b031916908160001a90535060049490941c9361124881611938565b90506111da565b50831561129e5760405162461bcd60e51b815260206004820181905260248201527f537472696e67733a20686578206c656e67746820696e73756666696369656e7460448201526064016106d8565b9392505050565b8280546112b19061194f565b90600052602060002090601f0160209004810192826112d35760008555611319565b82601f106112ec5782800160ff19823516178555611319565b82800160010185558215611319579182015b828111156113195782358255916020019190600101906112fe565b50611325929150611329565b5090565b5b80821115611325576000815560010161132a565b80356001600160a01b038116811461135557600080fd5b919050565b60006020828403121561136c57600080fd5b61129e8261133e565b60008060006040848603121561138a57600080fd5b6113938461133e565b925060208401356001600160401b03808211156113af57600080fd5b818601915086601f8301126113c357600080fd5b8135818111156113d257600080fd5b8760208285010111156113e457600080fd5b6020830194508093505050509250925092565b6000806040838503121561140a57600080fd5b6114138361133e565b915060208301356001600160401b0381111561142e57600080fd5b83016040818603121561144057600080fd5b809150509250929050565b6000806040838503121561145e57600080fd5b6114678361133e565b946020939093013593505050565b6000806020838503121561148857600080fd5b82356001600160401b038082111561149f57600080fd5b818501915085601f8301126114b357600080fd5b8135818111156114c257600080fd5b8660208260051b85010111156114d757600080fd5b60209290920196919550909350505050565b6000602082840312156114fb57600080fd5b8135801515811461129e57600080fd5b60006020828403121561151d57600080fd5b5035919050565b6000806040838503121561153757600080fd5b823591506115476020840161133e565b90509250929050565b60006020828403121561156257600080fd5b81356001600160e01b03198116811461129e57600080fd5b60006020828403121561158c57600080fd5b81356001600160401b03808211156115a357600080fd5b818401915084601f8301126115b757600080fd5b8135818111156115c9576115c96119d1565b604051601f8201601f19908116603f011681019083821181831017156115f1576115f16119d1565b8160405282815287602084870101111561160a57600080fd5b826020860160208301376000928101602001929092525095945050505050565b8183823760009101908152919050565b600080835481600182811c91508083168061165657607f831692505b602080841082141561167657634e487b7160e01b86526022600452602486fd5b81801561168a576001811461169b576116c8565b60ff198616895284890196506116c8565b60008a81526020902060005b868110156116c05781548b8201529085019083016116a7565b505084890196505b509498975050505050505050565b76020b1b1b2b9b9a1b7b73a3937b61d1030b1b1b7bab73a1604d1b81526000835161170881601785016020880161190c565b7001034b99036b4b9b9b4b733903937b6329607d1b601791840191820152835161173981602884016020880161190c565b01602801949350505050565b6001600160a01b0391909116815260200190565b6001600160a01b03841681526040602082018190528101829052818360608301376000818301606090810191909152601f909201601f1916010192915050565b604080825283519082018190526000906020906060840190828701845b828110156117d2578151845292840192908401906001016117b6565b50505092019290925292915050565b602081526000825180602084015261180081604085016020870161190c565b601f01601f19169190910160400192915050565b60208082526015908201527413985b59549959da5cdd1c9e4e8812539590531251605a1b604082015260600190565b6020808252601490820152734e616d6552656769737472793a2045584953545360601b604082015260600190565b6000808335601e1984360301811261188857600080fd5b8301803591506001600160401b038211156118a257600080fd5b6020019150368190038213156118b757600080fd5b9250929050565b600082198211156118d1576118d16119a5565b500190565b60008160001904831182151516156118f0576118f06119a5565b500290565b600082821015611907576119076119a5565b500390565b60005b8381101561192757818101518382015260200161190f565b83811115610a965750506000910152565b600081611947576119476119a5565b506000190190565b600181811c9082168061196357607f821691505b6020821081141561198457634e487b7160e01b600052602260045260246000fd5b50919050565b600060001982141561199e5761199e6119a5565b5060010190565b634e487b7160e01b600052601160045260246000fd5b634e487b7160e01b600052603260045260246000fd5b634e487b7160e01b600052604160045260246000fdfe86d5cf0a6bdc8d859ba3bdc97043337c82a0e609035f378e419298b6a3e00ae6a2646970667358221220533a7908acb6f806697da73c4732f65bcd599879f2694a0b838c6b42bb033f9f64736f6c6343000807003360a060405234801561001057600080fd5b506040516200216f3803806200216f8339810160408190526100319161004b565b600160005560601b6001600160601b03191660805261007b565b60006020828403121561005d57600080fd5b81516001600160a01b038116811461007457600080fd5b9392505050565b60805160601c61209d620000d2600039600081816103a10152818161050b0152818161074e0152818161088f015281816109a701528181610a9c01528181610ed401528181610fa601526110cb015261209d6000f3fe608060405234801561001057600080fd5b50600436106100f65760003560e01c80635ad88c1a116100925780635ad88c1a146101e557806381f28daf1461021c57806383a9b8c51461022f57806383b4375814610242578063a785343614610255578063acd5d45814610279578063bf16acec146102a4578063c6c8bd0d146102b7578063cdde8dce146102ca57600080fd5b806301ffc9a7146100fb57806306b0e6751461012357806321ce086a1461013857806333ec8abe1461014b5780633ea270271461015e57806344d064841461017157806351cff8d9146101845780635612e00b1461019757806359dc7ce2146101c5575b600080fd5b61010e610109366004611e87565b6102dd565b60405190151581526020015b60405180910390f35b610136610131366004611ca2565b610314565b005b610136610146366004611d83565b610387565b610136610159366004611db8565b6104d2565b61013661016c366004611d83565b610734565b61013661017f366004611d42565b610875565b610136610192366004611c28565b610952565b6101b76101a5366004611c28565b60056020526000908152604090205481565b60405190815260200161011a565b6101b76101d3366004611c28565b60016020526000908152604090205481565b6102096101f3366004611c28565b60036020526000908152604090205461ffff1681565b60405161ffff909116815260200161011a565b61013661022a366004611ced565b61098d565b61013661023d366004611e39565b610a82565b6101b7610250366004611c69565b610bc7565b610209610263366004611c28565b60046020526000908152604090205461ffff1681565b6101b7610287366004611c69565b600260209081526000928352604080842090915290825290205481565b6101366102b2366004611c69565b610e93565b6101366102c5366004611ced565b610f8c565b6101366102d8366004611d42565b6110b1565b60006001600160e01b031982166301ffc9a760e01b148061030e57506001600160e01b03198216635486e65b60e01b145b92915050565b336001600160a01b038416146103455760405162461bcd60e51b815260040161033c90611ef5565b60405180910390fd5b6001600160a01b03808416600090815260026020908152604080832093861683529290522054610376848483611189565b6103818483836114bf565b50505050565b604051632474521560e21b81526000906001600160a01b037f000000000000000000000000000000000000000000000000000000000000000016906391d14854906103d89084903390600401611ede565b60206040518083038186803b1580156103f057600080fd5b505afa158015610404573d6000803e3d6000fd5b505050506040513d601f19601f820116820180604052508101906104289190611e65565b6104445760405162461bcd60e51b815260040161033c90611ef5565b8161271061ffff8216111561046b5760405162461bcd60e51b815260040161033c90611f21565b6001600160a01b038416600081815260036020908152604091829020805461ffff191661ffff8816908117909155915191825233917ff82761bcb1e4da3544055a200bff611c693fb863986f5d9f83c5754364fb3f1a91015b60405180910390a350505050565b604051632474521560e21b81527fdfbefbf47cfe66b701d8cfdbce1de81c821590819cb07e71cb01b6602fb0ee27906001600160a01b037f000000000000000000000000000000000000000000000000000000000000000016906391d14854906105429084903390600401611ede565b60206040518083038186803b15801561055a57600080fd5b505afa15801561056e573d6000803e3d6000fd5b505050506040513d601f19601f820116820180604052508101906105929190611e65565b6105ae5760405162461bcd60e51b815260040161033c90611ef5565b6001600160a01b0387166000908152600360209081526040808320805461ffff808c1661ffff1992831617909255600484528285208054928b1692909116919091179055600590915281208590555b82811015610662576106528885858481811061061b5761061b612039565b6106319260206040909202019081019150611c28565b86868581811061064357610643612039565b905060400201602001356114bf565b61065b81611ff2565b90506105fd565b5060405161ffff871681526001600160a01b0388169033907ff82761bcb1e4da3544055a200bff611c693fb863986f5d9f83c5754364fb3f1a9060200160405180910390a360405161ffff861681526001600160a01b0388169033907f5e8670ec817633e875ea4dd8db88c8ce647e2b29fd39a8e628ab7c66a0a6ccf29060200160405180910390a36040518481526001600160a01b0388169033907fc9b224f333d1c1d993c3838030eef2b2af8b7a7c0642f987a5c957e61b11e8739060200160405180910390a350505050505050565b604051632474521560e21b81526000906001600160a01b037f000000000000000000000000000000000000000000000000000000000000000016906391d14854906107859084903390600401611ede565b60206040518083038186803b15801561079d57600080fd5b505afa1580156107b1573d6000803e3d6000fd5b505050506040513d601f19601f820116820180604052508101906107d59190611e65565b6107f15760405162461bcd60e51b815260040161033c90611ef5565b8161271061ffff821611156108185760405162461bcd60e51b815260040161033c90611f21565b6001600160a01b038416600081815260046020908152604091829020805461ffff191661ffff8816908117909155915191825233917f5e8670ec817633e875ea4dd8db88c8ce647e2b29fd39a8e628ab7c66a0a6ccf291016104c4565b604051632474521560e21b81526000906001600160a01b037f000000000000000000000000000000000000000000000000000000000000000016906391d14854906108c69084903390600401611ede565b60206040518083038186803b1580156108de57600080fd5b505afa1580156108f2573d6000803e3d6000fd5b505050506040513d601f19601f820116820180604052508101906109169190611e65565b6109325760405162461bcd60e51b815260040161033c90611ef5565b61094d836109436020850185611c28565b8460200135611189565b505050565b600260005414156109755760405162461bcd60e51b815260040161033c90611f4b565b6002600055610985813380611749565b506001600055565b604051632474521560e21b81526000906001600160a01b037f000000000000000000000000000000000000000000000000000000000000000016906391d14854906109de9084903390600401611ede565b60206040518083038186803b1580156109f657600080fd5b505afa158015610a0a573d6000803e3d6000fd5b505050506040513d601f19601f82011682018060405250810190610a2e9190611e65565b610a4a5760405162461bcd60e51b815260040161033c90611ef5565b60005b82811015610a7b57610a6b8585858481811061061b5761061b612039565b610a7481611ff2565b9050610a4d565b5050505050565b604051632474521560e21b81526000906001600160a01b037f000000000000000000000000000000000000000000000000000000000000000016906391d1485490610ad39084903390600401611ede565b60206040518083038186803b158015610aeb57600080fd5b505afa158015610aff573d6000803e3d6000fd5b505050506040513d601f19601f82011682018060405250810190610b239190611e65565b610b3f5760405162461bcd60e51b815260040161033c90611ef5565b6b033b2e3c9fd0803ce8000000821015610b6b5760405162461bcd60e51b815260040161033c90611f21565b6001600160a01b038316600081815260056020526040908190208490555133907fc9b224f333d1c1d993c3838030eef2b2af8b7a7c0642f987a5c957e61b11e87390610bba9086815260200190565b60405180910390a3505050565b600080836001600160a01b03166370a08231856001600160a01b031663c45a01556040518163ffffffff1660e01b815260040160206040518083038186803b158015610c1257600080fd5b505afa158015610c26573d6000803e3d6000fd5b505050506040513d601f19601f82011682018060405250810190610c4a9190611c4c565b6040518263ffffffff1660e01b8152600401610c669190611eca565b60206040518083038186803b158015610c7e57600080fd5b505afa158015610c92573d6000803e3d6000fd5b505050506040513d601f19601f82011682018060405250810190610cb69190611eb1565b6040516370a0823160e01b81526001600160a01b038616906370a0823190610ce2903090600401611eca565b60206040518083038186803b158015610cfa57600080fd5b505afa158015610d0e573d6000803e3d6000fd5b505050506040513d601f19601f82011682018060405250810190610d329190611eb1565b610d3c9190611f82565b6001600160a01b038516600090815260086020908152604080832054600190925290912054919250908015610db1576001600160a01b038616600090815260096020526040812054610d8e9085611fdb565b90508015610daf5781612710820281610da957610da9612023565b04830192505b505b6001600160a01b03808716600090815260026020908152604080832093891683529290529081205415610e09576001600160a01b038088166000908152600760209081526040808320938a1683529290522054610e0b565b825b6001600160a01b038089166000908152600260209081526040808320938b168352929052908120549192508285039161271090610e49908490611fbc565b610e539190611f9a565b6001600160a01b03808b166000908152600660209081526040808320938d1683529290522054909150610e869082611f82565b9998505050505050505050565b60026000541415610eb65760405162461bcd60e51b815260040161033c90611f4b565b60026000908155604051632474521560e21b81526001600160a01b037f000000000000000000000000000000000000000000000000000000000000000016906391d1485490610f0b9084903390600401611ede565b60206040518083038186803b158015610f2357600080fd5b505afa158015610f37573d6000803e3d6000fd5b505050506040513d601f19601f82011682018060405250810190610f5b9190611e65565b610f775760405162461bcd60e51b815260040161033c90611ef5565b610f82838484611749565b5050600160005550565b604051632474521560e21b81526000906001600160a01b037f000000000000000000000000000000000000000000000000000000000000000016906391d1485490610fdd9084903390600401611ede565b60206040518083038186803b158015610ff557600080fd5b505afa158015611009573d6000803e3d6000fd5b505050506040513d601f19601f8201168201806040525081019061102d9190611e65565b6110495760405162461bcd60e51b815260040161033c90611ef5565b60005b82811015610a7b576110a18585858481811061106a5761106a612039565b6110809260206040909202019081019150611c28565b86868581811061109257611092612039565b90506040020160200135611189565b6110aa81611ff2565b905061104c565b604051632474521560e21b81526000906001600160a01b037f000000000000000000000000000000000000000000000000000000000000000016906391d14854906111029084903390600401611ede565b60206040518083038186803b15801561111a57600080fd5b505afa15801561112e573d6000803e3d6000fd5b505050506040513d601f19601f820116820180604052508101906111529190611e65565b61116e5760405162461bcd60e51b815260040161033c90611ef5565b61094d8361117f6020850185611c28565b84602001356114bf565b8282813b1561126157816001600160a01b031663c45a01556040518163ffffffff1660e01b815260040160206040518083038186803b1580156111cb57600080fd5b505afa1580156111df573d6000803e3d6000fd5b505050506040513d601f19601f820116820180604052508101906112039190611c4c565b6001600160a01b031663c0bc4e22836040518263ffffffff1660e01b815260040161122e9190611eca565b600060405180830381600087803b15801561124857600080fd5b505af115801561125c573d6000803e3d6000fd5b505050505b6001600160a01b0382166000908152600160205260409020548015611359576001600160a01b0383166000818152600960205260408082205490516370a0823160e01b8152919290916370a08231906112be903090600401611eca565b60206040518083038186803b1580156112d657600080fd5b505afa1580156112ea573d6000803e3d6000fd5b505050506040513d601f19601f8201168201806040525081019061130e9190611eb1565b6113189190611fdb565b90508015611357578161271082028161133357611333612023565b6001600160a01b038616600090815260086020526040902080549290910490910190555b505b6113638383611a72565b6001600160a01b0380871660009081526002602090815260408083209389168352929052908120805486929061139a908490611fdb565b90915550506001600160a01b038616600090815260016020526040812080548692906113c7908490611fdb565b92505081905550846001600160a01b0316866001600160a01b03167fbac40739b0d4ca32fa2d82fc91630465ba3eddd1598da6fca393b26fb63b94538660405161141391815260200190565b60405180910390a380156114b7576040516370a0823160e01b81526001600160a01b038416906370a082319061144d903090600401611eca565b60206040518083038186803b15801561146557600080fd5b505afa158015611479573d6000803e3d6000fd5b505050506040513d601f19601f8201168201806040525081019061149d9190611eb1565b6001600160a01b0384166000908152600960205260409020555b505050505050565b8282813b1561159757816001600160a01b031663c45a01556040518163ffffffff1660e01b815260040160206040518083038186803b15801561150157600080fd5b505afa158015611515573d6000803e3d6000fd5b505050506040513d601f19601f820116820180604052508101906115399190611c4c565b6001600160a01b031663c0bc4e22836040518263ffffffff1660e01b81526004016115649190611eca565b600060405180830381600087803b15801561157e57600080fd5b505af1158015611592573d6000803e3d6000fd5b505050505b6001600160a01b038216600090815260016020526040902054801561168f576001600160a01b0383166000818152600960205260408082205490516370a0823160e01b8152919290916370a08231906115f4903090600401611eca565b60206040518083038186803b15801561160c57600080fd5b505afa158015611620573d6000803e3d6000fd5b505050506040513d601f19601f820116820180604052508101906116449190611eb1565b61164e9190611fdb565b9050801561168d578161271082028161166957611669612023565b6001600160a01b038616600090815260086020526040902080549290910490910190555b505b6116998383611a72565b6001600160a01b038087166000908152600260209081526040808320938916835292905290812080548692906116d0908490611f82565b90915550506001600160a01b038616600090815260016020526040812080548692906116fd908490611f82565b92505081905550846001600160a01b0316866001600160a01b03167fab8530f87dc9b59234c4623bf917212bb2536d647574c8e7e5da92c2ede0c9f88660405161141391815260200190565b8282813b1561182157816001600160a01b031663c45a01556040518163ffffffff1660e01b815260040160206040518083038186803b15801561178b57600080fd5b505afa15801561179f573d6000803e3d6000fd5b505050506040513d601f19601f820116820180604052508101906117c39190611c4c565b6001600160a01b031663c0bc4e22836040518263ffffffff1660e01b81526004016117ee9190611eca565b600060405180830381600087803b15801561180857600080fd5b505af115801561181c573d6000803e3d6000fd5b505050505b6001600160a01b0382166000908152600160205260409020548015611919576001600160a01b0383166000818152600960205260408082205490516370a0823160e01b8152919290916370a082319061187e903090600401611eca565b60206040518083038186803b15801561189657600080fd5b505afa1580156118aa573d6000803e3d6000fd5b505050506040513d601f19601f820116820180604052508101906118ce9190611eb1565b6118d89190611fdb565b9050801561191757816127108202816118f3576118f3612023565b6001600160a01b038616600090815260086020526040902080549290910490910190555b505b6119238383611a72565b6001600160a01b038087166000908152600660209081526040808320938916835292905220548015611a3f576001600160a01b0387811660008181526006602090815260408083208b86168452909152808220919091555163a9059cbb60e01b81529187166004830152602482018390529063a9059cbb90604401602060405180830381600087803b1580156119b857600080fd5b505af11580156119cc573d6000803e3d6000fd5b505050506040513d601f19601f820116820180604052508101906119f09190611e65565b50846001600160a01b0316876001600160a01b03167f9b1bfa7fa9ee420a16e124f794c35ac9f90472acc99140eb2f6447c714cad8eb83604051611a3691815260200190565b60405180910390a35b5080156114b7576040516370a0823160e01b81526001600160a01b038416906370a082319061144d903090600401611eca565b6001600160a01b03808316600090815260026020908152604080832093851683529290529081205415611aca576001600160a01b03808416600090815260076020908152604080832093861683529290522054611ae4565b6001600160a01b0383166000908152600860205260409020545b6001600160a01b038416600090815260086020526040902054909150818103908214611b92576001600160a01b03808516600090815260026020908152604080832093871683529290529081205461271090611b41908490611fbc565b611b4b9190611f9a565b90508015611b90576001600160a01b03808616600090815260066020908152604080832093881683529290529081208054839290611b8a908490611f82565b90915550505b505b50506001600160a01b03918216600090815260086020908152604080832054600783528184209490951683529290522055565b60008083601f840112611bd757600080fd5b50813567ffffffffffffffff811115611bef57600080fd5b6020830191508360208260061b8501011115611c0a57600080fd5b9250929050565b803561ffff81168114611c2357600080fd5b919050565b600060208284031215611c3a57600080fd5b8135611c458161204f565b9392505050565b600060208284031215611c5e57600080fd5b8151611c458161204f565b60008060408385031215611c7c57600080fd5b8235611c878161204f565b91506020830135611c978161204f565b809150509250929050565b600080600060608486031215611cb757600080fd5b8335611cc28161204f565b92506020840135611cd28161204f565b91506040840135611ce28161204f565b809150509250925092565b600080600060408486031215611d0257600080fd5b8335611d0d8161204f565b9250602084013567ffffffffffffffff811115611d2957600080fd5b611d3586828701611bc5565b9497909650939450505050565b6000808284036060811215611d5657600080fd5b8335611d618161204f565b92506040601f1982011215611d7557600080fd5b506020830190509250929050565b60008060408385031215611d9657600080fd5b8235611da18161204f565b9150611daf60208401611c11565b90509250929050565b60008060008060008060a08789031215611dd157600080fd5b8635611ddc8161204f565b9550611dea60208801611c11565b9450611df860408801611c11565b935060608701359250608087013567ffffffffffffffff811115611e1b57600080fd5b611e2789828a01611bc5565b979a9699509497509295939492505050565b60008060408385031215611e4c57600080fd5b8235611e578161204f565b946020939093013593505050565b600060208284031215611e7757600080fd5b81518015158114611c4557600080fd5b600060208284031215611e9957600080fd5b81356001600160e01b031981168114611c4557600080fd5b600060208284031215611ec357600080fd5b5051919050565b6001600160a01b0391909116815260200190565b9182526001600160a01b0316602082015260400190565b6020808252601290820152712332b2a837b7b61d102327a92124a22222a760711b604082015260600190565b60208082526010908201526f119959541bdbdb0e881253959053125160821b604082015260600190565b6020808252601f908201527f5265656e7472616e637947756172643a207265656e7472616e742063616c6c00604082015260600190565b60008219821115611f9557611f9561200d565b500190565b600082611fb757634e487b7160e01b600052601260045260246000fd5b500490565b6000816000190483118215151615611fd657611fd661200d565b500290565b600082821015611fed57611fed61200d565b500390565b60006000198214156120065761200661200d565b5060010190565b634e487b7160e01b600052601160045260246000fd5b634e487b7160e01b600052601260045260246000fd5b634e487b7160e01b600052603260045260246000fd5b6001600160a01b038116811461206457600080fd5b5056fea2646970667358221220ac0fc84745aba30d9fb1e64fa87bd2d0cf65fc1a85cc49e46ec92d5d6cdff35764736f6c63430008070033",
  "linkReferences": {},
  "deployedLinkReferences": {}
}