{
  "_format": "hh-sol-artifact-1",
  "contractName": "IndexRegistry",
  "sourceName": "contracts/IndexRegistry.sol",
  "abi": [
    {
      "inputs": [
        {
          "internalType": "address",
          "name": "_indexLogic",
          "type": "address"
        },
        {
          "internalType": "address",
          "name": "_priceOracle",
          "type": "address"
        },
        {
          "internalType": "bool",
          "name": "_allowOnlyWhitelistedCreators",
          "type": "bool"
        }
      ],
      "stateMutability": "nonpayable",
      "type": "constructor"
    },
    {
      "anonymous": false,
      "inputs": [
        {
          "indexed": true,
          "internalType": "bytes32",
          "name": "role",
          "type": "bytes32"
        },
        {
          "indexed": true,
          "internalType": "bytes32",
          "name": "previousAdminRole",
          "type": "bytes32"
        },
        {
          "indexed": true,
          "internalType": "bytes32",
          "name": "newAdminRole",
          "type": "bytes32"
        }
      ],
      "name": "RoleAdminChanged",
      "type": "event"
    },
    {
      "anonymous": false,
      "inputs": [
        {
          "indexed": true,
          "internalType": "bytes32",
          "name": "role",
          "type": "bytes32"
        },
        {
          "indexed": true,
          "internalType": "address",
          "name": "account",
          "type": "address"
        },
        {
          "indexed": true,
          "internalType": "address",
          "name": "sender",
          "type": "address"
        }
      ],
      "name": "RoleGranted",
      "type": "event"
    },
    {
      "anonymous": false,
      "inputs": [
        {
          "indexed": true,
          "internalType": "bytes32",
          "name": "role",
          "type": "bytes32"
        },
        {
          "indexed": true,
          "internalType": "address",
          "name": "account",
          "type": "address"
        },
        {
          "indexed": true,
          "internalType": "address",
          "name": "sender",
          "type": "address"
        }
      ],
      "name": "RoleRevoked",
      "type": "event"
    },
    {
      "anonymous": false,
      "inputs": [
        {
          "indexed": true,
          "internalType": "address",
          "name": "account",
          "type": "address"
        },
        {
          "indexed": false,
          "internalType": "bool",
          "name": "allowOnlyWhitelistedCreators",
          "type": "bool"
        }
      ],
      "name": "SetAllowOnlyWhitelistedCreators",
      "type": "event"
    },
    {
      "anonymous": false,
      "inputs": [
        {
          "indexed": true,
          "internalType": "address",
          "name": "account",
          "type": "address"
        },
        {
          "indexed": false,
          "internalType": "address",
          "name": "feePool",
          "type": "address"
        }
      ],
      "name": "SetFeePool",
      "type": "event"
    },
    {
      "anonymous": false,
      "inputs": [
        {
          "indexed": false,
          "internalType": "address",
          "name": "index",
          "type": "address"
        },
        {
          "indexed": false,
          "internalType": "string",
          "name": "name",
          "type": "string"
        }
      ],
      "name": "SetName",
      "type": "event"
    },
    {
      "anonymous": false,
      "inputs": [
        {
          "indexed": true,
          "internalType": "address",
          "name": "account",
          "type": "address"
        },
        {
          "indexed": false,
          "internalType": "address",
          "name": "orderer",
          "type": "address"
        }
      ],
      "name": "SetOrderer",
      "type": "event"
    },
    {
      "anonymous": false,
      "inputs": [
        {
          "indexed": true,
          "internalType": "address",
          "name": "account",
          "type": "address"
        },
        {
          "indexed": false,
          "internalType": "address",
          "name": "priceOracle",
          "type": "address"
        }
      ],
      "name": "SetPriceOracle",
      "type": "event"
    },
    {
      "anonymous": false,
      "inputs": [
        {
          "indexed": true,
          "internalType": "address",
          "name": "account",
          "type": "address"
        },
        {
          "indexed": false,
          "internalType": "address",
          "name": "reweightingCredit",
          "type": "address"
        }
      ],
      "name": "SetReweightingCredit",
      "type": "event"
    },
    {
      "anonymous": false,
      "inputs": [
        {
          "indexed": false,
          "internalType": "address",
          "name": "index",
          "type": "address"
        },
        {
          "indexed": false,
          "internalType": "string",
          "name": "name",
          "type": "string"
        }
      ],
      "name": "SetSymbol",
      "type": "event"
    },
    {
      "anonymous": false,
      "inputs": [
        {
          "indexed": true,
          "internalType": "address",
          "name": "asset",
          "type": "address"
        },
        {
          "indexed": false,
          "internalType": "uint256",
          "name": "marketCap",
          "type": "uint256"
        }
      ],
      "name": "UpdateAsset",
      "type": "event"
    },
    {
      "inputs": [],
      "name": "DEFAULT_ADMIN_ROLE",
      "outputs": [
        {
          "internalType": "bytes32",
          "name": "",
          "type": "bytes32"
        }
      ],
      "stateMutability": "view",
      "type": "function"
    },
    {
      "inputs": [
        {
          "internalType": "address",
          "name": "_asset",
          "type": "address"
        },
        {
          "internalType": "uint256",
          "name": "_marketCap",
          "type": "uint256"
        }
      ],
      "name": "addAsset",
      "outputs": [],
      "stateMutability": "nonpayable",
      "type": "function"
    },
    {
      "inputs": [],
      "name": "allowOnlyWhitelistedCreators",
      "outputs": [
        {
          "internalType": "bool",
          "name": "",
          "type": "bool"
        }
      ],
      "stateMutability": "view",
      "type": "function"
    },
    {
      "inputs": [
        {
          "internalType": "address",
          "name": "_creator",
          "type": "address"
        }
      ],
      "name": "canCreateIndex",
      "outputs": [
        {
          "internalType": "bool",
          "name": "",
          "type": "bool"
        }
      ],
      "stateMutability": "view",
      "type": "function"
    },
    {
      "inputs": [],
      "name": "feePool",
      "outputs": [
        {
          "internalType": "address",
          "name": "",
          "type": "address"
        }
      ],
      "stateMutability": "view",
      "type": "function"
    },
    {
      "inputs": [
        {
          "internalType": "bytes32",
          "name": "role",
          "type": "bytes32"
        }
      ],
      "name": "getRoleAdmin",
      "outputs": [
        {
          "internalType": "bytes32",
          "name": "",
          "type": "bytes32"
        }
      ],
      "stateMutability": "view",
      "type": "function"
    },
    {
      "inputs": [
        {
          "internalType": "bytes32",
          "name": "role",
          "type": "bytes32"
        },
        {
          "internalType": "address",
          "name": "account",
          "type": "address"
        }
      ],
      "name": "grantRole",
      "outputs": [],
      "stateMutability": "nonpayable",
      "type": "function"
    },
    {
      "inputs": [
        {
          "internalType": "bytes32",
          "name": "role",
          "type": "bytes32"
        },
        {
          "internalType": "address",
          "name": "account",
          "type": "address"
        }
      ],
      "name": "hasRole",
      "outputs": [
        {
          "internalType": "bool",
          "name": "",
          "type": "bool"
        }
      ],
      "stateMutability": "view",
      "type": "function"
    },
    {
      "inputs": [],
      "name": "indexLogic",
      "outputs": [
        {
          "internalType": "address",
          "name": "",
          "type": "address"
        }
      ],
      "stateMutability": "view",
      "type": "function"
    },
    {
      "inputs": [
        {
          "internalType": "string",
          "name": "",
          "type": "string"
        }
      ],
      "name": "indexOfName",
      "outputs": [
        {
          "internalType": "address",
          "name": "",
          "type": "address"
        }
      ],
      "stateMutability": "view",
      "type": "function"
    },
    {
      "inputs": [
        {
          "internalType": "string",
          "name": "",
          "type": "string"
        }
      ],
      "name": "indexOfSymbol",
      "outputs": [
        {
          "internalType": "address",
          "name": "",
          "type": "address"
        }
      ],
      "stateMutability": "view",
      "type": "function"
    },
    {
      "inputs": [
        {
          "internalType": "address",
          "name": "",
          "type": "address"
        }
      ],
      "name": "marketCapOf",
      "outputs": [
        {
          "internalType": "uint256",
          "name": "",
          "type": "uint256"
        }
      ],
      "stateMutability": "view",
      "type": "function"
    },
    {
      "inputs": [
        {
          "internalType": "address[]",
          "name": "_assets",
          "type": "address[]"
        }
      ],
      "name": "marketCapsOf",
      "outputs": [
        {
          "internalType": "uint256[]",
          "name": "_marketCaps",
          "type": "uint256[]"
        },
        {
          "internalType": "uint256",
          "name": "_totalMarketCap",
          "type": "uint256"
        }
      ],
      "stateMutability": "view",
      "type": "function"
    },
    {
      "inputs": [
        {
          "internalType": "address",
          "name": "",
          "type": "address"
        }
      ],
      "name": "nameOfIndex",
      "outputs": [
        {
          "internalType": "string",
          "name": "",
          "type": "string"
        }
      ],
      "stateMutability": "view",
      "type": "function"
    },
    {
      "inputs": [],
      "name": "orderer",
      "outputs": [
        {
          "internalType": "address",
          "name": "",
          "type": "address"
        }
      ],
      "stateMutability": "view",
      "type": "function"
    },
    {
      "inputs": [],
      "name": "priceOracle",
      "outputs": [
        {
          "internalType": "address",
          "name": "",
          "type": "address"
        }
      ],
      "stateMutability": "view",
      "type": "function"
    },
    {
      "inputs": [
        {
          "internalType": "address",
          "name": "_index",
          "type": "address"
        },
        {
          "components": [
            {
              "internalType": "string",
              "name": "name",
              "type": "string"
            },
            {
              "internalType": "string",
              "name": "symbol",
              "type": "string"
            }
          ],
          "internalType": "struct IIndexFactory.NameDetails",
          "name": "_nameDetails",
          "type": "tuple"
        }
      ],
      "name": "registerIndex",
      "outputs": [],
      "stateMutability": "nonpayable",
      "type": "function"
    },
    {
      "inputs": [
        {
          "internalType": "address",
          "name": "_asset",
          "type": "address"
        }
      ],
      "name": "removeAsset",
      "outputs": [],
      "stateMutability": "nonpayable",
      "type": "function"
    },
    {
      "inputs": [
        {
          "internalType": "bytes32",
          "name": "role",
          "type": "bytes32"
        },
        {
          "internalType": "address",
          "name": "account",
          "type": "address"
        }
      ],
      "name": "renounceRole",
      "outputs": [],
      "stateMutability": "nonpayable",
      "type": "function"
    },
    {
      "inputs": [
        {
          "internalType": "bytes32",
          "name": "role",
          "type": "bytes32"
        },
        {
          "internalType": "address",
          "name": "account",
          "type": "address"
        }
      ],
      "name": "revokeRole",
      "outputs": [],
      "stateMutability": "nonpayable",
      "type": "function"
    },
    {
      "inputs": [],
      "name": "reweightingCredit",
      "outputs": [
        {
          "internalType": "address",
          "name": "",
          "type": "address"
        }
      ],
      "stateMutability": "view",
      "type": "function"
    },
    {
      "inputs": [
        {
          "internalType": "bool",
          "name": "_allowOnlyWhitelistedCreators",
          "type": "bool"
        }
      ],
      "name": "setAllowOnlyWhitelistedCreators",
      "outputs": [],
      "stateMutability": "nonpayable",
      "type": "function"
    },
    {
      "inputs": [
        {
          "internalType": "address",
          "name": "_feePool",
          "type": "address"
        }
      ],
      "name": "setFeePool",
      "outputs": [],
      "stateMutability": "nonpayable",
      "type": "function"
    },
    {
      "inputs": [
        {
          "internalType": "address",
          "name": "_indexLogic",
          "type": "address"
        }
      ],
      "name": "setIndexLogic",
      "outputs": [],
      "stateMutability": "nonpayable",
      "type": "function"
    },
    {
      "inputs": [
        {
          "internalType": "address",
          "name": "_index",
          "type": "address"
        },
        {
          "internalType": "string",
          "name": "_name",
          "type": "string"
        }
      ],
      "name": "setIndexName",
      "outputs": [],
      "stateMutability": "nonpayable",
      "type": "function"
    },
    {
      "inputs": [
        {
          "internalType": "address",
          "name": "_index",
          "type": "address"
        },
        {
          "internalType": "string",
          "name": "_symbol",
          "type": "string"
        }
      ],
      "name": "setIndexSymbol",
      "outputs": [],
      "stateMutability": "nonpayable",
      "type": "function"
    },
    {
      "inputs": [
        {
          "internalType": "address",
          "name": "_orderer",
          "type": "address"
        }
      ],
      "name": "setOrderer",
      "outputs": [],
      "stateMutability": "nonpayable",
      "type": "function"
    },
    {
      "inputs": [
        {
          "internalType": "address",
          "name": "_priceOracle",
          "type": "address"
        }
      ],
      "name": "setPriceOracle",
      "outputs": [],
      "stateMutability": "nonpayable",
      "type": "function"
    },
    {
      "inputs": [
        {
          "internalType": "address",
          "name": "_reweightingCredit",
          "type": "address"
        }
      ],
      "name": "setReweightingCredit",
      "outputs": [],
      "stateMutability": "nonpayable",
      "type": "function"
    },
    {
      "inputs": [
        {
          "internalType": "bytes4",
          "name": "interfaceId",
          "type": "bytes4"
        }
      ],
      "name": "supportsInterface",
      "outputs": [
        {
          "internalType": "bool",
          "name": "",
          "type": "bool"
        }
      ],
      "stateMutability": "view",
      "type": "function"
    },
    {
      "inputs": [
        {
          "internalType": "address",
          "name": "",
          "type": "address"
        }
      ],
      "name": "symbolOfIndex",
      "outputs": [
        {
          "internalType": "string",
          "name": "",
          "type": "string"
        }
      ],
      "stateMutability": "view",
      "type": "function"
    },
    {
      "inputs": [],
      "name": "totalMarketCap",
      "outputs": [
        {
          "internalType": "uint256",
          "name": "",
          "type": "uint256"
        }
      ],
      "stateMutability": "view",
      "type": "function"
    },
    {
      "inputs": [
        {
          "internalType": "address",
          "name": "_asset",
          "type": "address"
        },
        {
          "internalType": "uint256",
          "name": "_marketCap",
          "type": "uint256"
        }
      ],
      "name": "updateAssetMarketCap",
      "outputs": [],
      "stateMutability": "nonpayable",
      "type": "function"
    }
  ],
  "bytecode": "0x60806040523480156200001157600080fd5b50604051620042f4380380620042f483398101604081905262000034916200034f565b6001600160a01b038316158015906200005557506001600160a01b03821615155b620000a65760405162461bcd60e51b815260206004820152601360248201527f496e64657852656769737472793a205a45524f00000000000000000000000000604482015260640160405180910390fd5b600b8054600880546001600160a01b0319166001600160a01b038681169190911790915585166001600160a81b031990911617600160a01b831515021790556040513090620000f59062000324565b6001600160a01b039091168152602001604051809103906000f08015801562000122573d6000803e3d6000fd5b50600a80546001600160a01b0319166001600160a01b03929092169190911790556200015060003362000229565b6200017c7f68e79a7bf1e0bc45d0a330c573bc367f9cf464fd326078812f301165fbda4ef13362000229565b620001a87fa579efb5fdf486e45c8efb358408689a5a4b3efb641062ea15e2378fab2e5eb83362000229565b620001d47f1916b456004f332cd8a19679364ef4be668619658be72c17b7e86697c4ae0f163362000229565b620002207f766aece2fe0909e4a1f0fe06a20b32886c389ee499ca4246e7e1b80b53562a847fdfbefbf47cfe66b701d8cfdbce1de81c821590819cb07e71cb01b6602fb0ee2762000239565b505050620003a1565b62000235828262000284565b5050565b600082815260208190526040808220600101805490849055905190918391839186917fbd79b86ffe0ab8e8776151514217cd7cacd52c909f66475c3af44e129f0b00ff9190a4505050565b6000828152602081815260408083206001600160a01b038516845290915290205460ff1662000235576000828152602081815260408083206001600160a01b03851684529091529020805460ff19166001179055620002e03390565b6001600160a01b0316816001600160a01b0316837f2f8788117e7eff1d82e926ec794901d17c78024a50270940304540a733656f0d60405160405180910390a45050565b61244f8062001ea583390190565b80516001600160a01b03811681146200034a57600080fd5b919050565b6000806000606084860312156200036557600080fd5b620003708462000332565b9250620003806020850162000332565b9150604084015180151581146200039657600080fd5b809150509250925092565b611af480620003b16000396000f3fe608060405234801561001057600080fd5b50600436106101bb5760003560e01c806366a6a4bd116100fa578063a6d1a0081161009d578063a6d1a00814610429578063a9dddd1a1461043c578063ae2e933b1461044f578063b07bdef614610462578063bbffa2d314610475578063d547741f1461047e578063d5adffef14610491578063ed3b559f146104a4578063f036318d146104b757600080fd5b806366a6a4bd1461035a57806367c307a51461036d5780637c22e26a146103a15780637db5ccd2146103b45780637e273e71146103c75780638f6a8cfe146103da57806391d148541461040e578063a217fddf1461042157600080fd5b806336e726631161016257806336e72663146102a857806347602729146102c85780634a1d69f9146102db5780634a5e42b1146102ee5780634df0cb8514610301578063530e784f14610314578063554f94ab14610327578063628cf32f1461034757600080fd5b806301ffc9a7146101c0578063132d3d3e146101e857806319db2228146101fd578063248a9ca3146102105780632630c12f146102415780632f2ff15d14610261578063325a48b71461027457806336568abe14610295575b600080fd5b6101d36101ce366004611607565b6104cb565b60405190151581526020015b60405180910390f35b6101fb6101f6366004611411565b6104f6565b005b6101fb61020b366004611411565b61055b565b61023361021e3660046115c2565b60009081526020819052604090206001015490565b6040519081526020016101df565b600854610254906001600160a01b031681565b6040516101df91906117fc565b6101fb61026f3660046115db565b6105b4565b61028761028236600461152c565b6105df565b6040516101df929190611850565b6101fb6102a33660046115db565b6106c6565b6102336102b6366004611411565b60056020526000908152604090205481565b6101fb6102d63660046115a0565b610749565b6101fb6102e93660046114ae565b6107a4565b6101fb6102fc366004611411565b610866565b600954610254906001600160a01b031681565b6101fb610322366004611411565b61088c565b61033a610335366004611411565b6108e5565b6040516101df9190611898565b600754610254906001600160a01b031681565b6101fb610368366004611502565b61097f565b61025461037b366004611631565b80516020818301810180516001825292820191909301209152546001600160a01b031681565b6101fb6103af366004611411565b610a07565b6101fb6103c236600461142c565b610ad9565b6101fb6103d536600461142c565b610af6565b6102546103e8366004611631565b80516020818301810180516002825292820191909301209152546001600160a01b031681565b6101d361041c3660046115db565b610b0d565b610233600081565b6101d3610437366004611411565b610b36565b6101fb61044a366004611411565b610b77565b600a54610254906001600160a01b031681565b600b54610254906001600160a01b031681565b61023360065481565b6101fb61048c3660046115db565b610ba6565b6101fb61049f366004611502565b610bcc565b61033a6104b2366004611411565b610c01565b600b546101d390600160a01b900460ff1681565b60006001600160e01b031982166308693e6d60e41b14806104f057506104f082610c1a565b92915050565b60006105028133610c3f565b600980546001600160a01b0319166001600160a01b03841617905560405133907fab435f2373dca605c08e7dbafe1ee0ae2b7c124f9454c55be7336c7d4912c3679061054f9085906117fc565b60405180910390a25050565b60006105678133610c3f565b600a80546001600160a01b0319166001600160a01b03841617905560405133907f39ed5ac2ce11347d68e48f7c803785547995a3c6b4a7c8c66a728fda25044a299061054f9085906117fc565b6000828152602081905260409020600101546105d08133610c3f565b6105da8383610ca3565b505050565b60606000826001600160401b038111156105fb576105fb611a88565b604051908082528060200260200182016040528015610624578160200160208202803683370190505b50915060005b838110156106be5760006005600087878581811061064a5761064a611a72565b905060200201602081019061065f9190611411565b6001600160a01b03166001600160a01b031681526020019081526020016000205490508084838151811061069557610695611a72565b60209081029190910101526106aa8184611975565b925050806106b790611a41565b905061062a565b509250929050565b6001600160a01b038116331461073b5760405162461bcd60e51b815260206004820152602f60248201527f416363657373436f6e74726f6c3a2063616e206f6e6c792072656e6f756e636560448201526e103937b632b9903337b91039b2b63360891b60648201526084015b60405180910390fd5b6107458282610d27565b5050565b60006107558133610c3f565b600b8054831515600160a01b0260ff60a01b1990911617905560405133907f29a59464f104e95c5ecdfbe1d16e52ba062e9ccedafb96f797247788305d9c149061054f90851515815260200190565b6107ce7f766aece2fe0909e4a1f0fe06a20b32886c389ee499ca4246e7e1b80b53562a8483610b0d565b156108135760405162461bcd60e51b8152602060048201526015602482015274496e64657852656769737472793a2045584953545360581b6044820152606401610732565b61083d7f766aece2fe0909e4a1f0fe06a20b32886c389ee499ca4246e7e1b80b53562a84836105b4565b6108508261084b8380611928565b610d8c565b610745826108616020840184611928565b610eeb565b61087181600061103c565b610889600080516020611a9f83398151915282610ba6565b50565b60006108988133610c3f565b600880546001600160a01b0319166001600160a01b03841617905560405133907f944f260fa5475db9151efe54fc9fb6df2b40f73533d9483011e94522398cb3c19061054f9085906117fc565b600460205260009081526040902080546108fe90611a06565b80601f016020809104026020016040519081016040528092919081815260200182805461092a90611a06565b80156109775780601f1061094c57610100808354040283529160200191610977565b820191906000526020600020905b81548152906001019060200180831161095a57829003601f168201915b505050505081565b610997600080516020611a9f833981519152836105b4565b6109a182826110f0565b60085460405163174c001560e01b81526001600160a01b039091169063174c0015906109d19085906004016117fc565b600060405180830381600087803b1580156109eb57600080fd5b505af11580156109ff573d6000803e3d6000fd5b505050505050565b6000610a138133610c3f565b6007546001600160a01b031615610a5b57600754610a5b907ff4730887401325e116e846d0e51948344682bbc6e090c5e5993a8025fb6a68b0906001600160a01b0316610ba6565b600780546001600160a01b0319166001600160a01b038416179055610aa07ff4730887401325e116e846d0e51948344682bbc6e090c5e5993a8025fb6a68b0836105b4565b336001600160a01b03167f1c6907dceaf21fa270e456849881fa66509f0c67d1dfb2b2e67507d6ebd079498360405161054f91906117fc565b6000610ae58133610c3f565b610af0848484610eeb565b50505050565b6000610b028133610c3f565b610af0848484610d8c565b6000918252602082815260408084206001600160a01b0393909316845291905290205460ff1690565b600b54600090600160a01b900460ff1615806104f057506104f07fa579efb5fdf486e45c8efb358408689a5a4b3efb641062ea15e2378fab2e5eb883610b0d565b6000610b838133610c3f565b50600b80546001600160a01b0319166001600160a01b0392909216919091179055565b600082815260208190526040902060010154610bc28133610c3f565b6105da8383610d27565b7f68e79a7bf1e0bc45d0a330c573bc367f9cf464fd326078812f301165fbda4ef1610bf78133610c3f565b6105da83836110f0565b600360205260009081526040902080546108fe90611a06565b60006001600160e01b031982166314d3ee3360e21b14806104f057506104f082611185565b610c498282610b0d565b61074557610c61816001600160a01b031660146111ba565b610c6c8360206111ba565b604051602001610c7d92919061178d565b60408051601f198184030181529082905262461bcd60e51b825261073291600401611898565b610cad8282610b0d565b610745576000828152602081815260408083206001600160a01b03851684529091529020805460ff19166001179055610ce33390565b6001600160a01b0316816001600160a01b0316837f2f8788117e7eff1d82e926ec794901d17c78024a50270940304540a733656f0d60405160405180910390a45050565b610d318282610b0d565b15610745576000828152602081815260408083206001600160a01b0385168085529252808320805460ff1916905551339285917ff6391f5c32d9c69d2a47ea670b442974b53935d1edc7fd64eb21e047a839171b9190a45050565b60006001600160a01b031660018383604051610da99291906116e1565b908152604051908190036020019020546001600160a01b031614610ddf5760405162461bcd60e51b8152600401610732906118fa565b8060018110801590610df2575060208111155b610e0e5760405162461bcd60e51b8152600401610732906118cb565b6001600160a01b038416600090815260036020526040908190209051600191610e36916116f1565b90815260405190819003602001812080546001600160a01b03191690558490600190610e6590869086906116e1565b908152604080516020928190038301902080546001600160a01b0319166001600160a01b039485161790559186166000908152600390915220610ea990848461135c565b507f5b55a57845097b0b4cf682f6d089fe6bad81dc28242927eca133f4b1c4d28b44848484604051610edd93929190611810565b60405180910390a150505050565b60006001600160a01b031660028383604051610f089291906116e1565b908152604051908190036020019020546001600160a01b031614610f3e5760405162461bcd60e51b8152600401610732906118fa565b8060038110801590610f51575060068111155b610f6d5760405162461bcd60e51b8152600401610732906118cb565b6001600160a01b038416600090815260046020526040908190209051600291610f95916116f1565b90815260405190819003602001812080546001600160a01b03191690558490600290610fc490869086906116e1565b908152604080516020928190038301902080546001600160a01b0319166001600160a01b03948516179055918616600090815260049091522061100890848461135c565b507f90e198cc0c7c55f9a3c77367e40b68385aaa8c5532af4f0c7ea6358376abd327848484604051610edd93929190611810565b611054600080516020611a9f83398151915283610b0d565b6110a05760405162461bcd60e51b815260206004820152601d60248201527f496e646578417373657452656769737472793a204e4f545f464f554e440000006044820152606401610732565b6001600160a01b03821660009081526005602052604090205460065482916110c7916119ac565b6110d19190611975565b6006556001600160a01b03909116600090815260056020526040902055565b600081116111405760405162461bcd60e51b815260206004820152601b60248201527f496e646578417373657452656769737472793a20494e56414c494400000000006044820152606401610732565b61114a828261103c565b816001600160a01b03167f38335b96083d60d36c9d6590e86fb44f9b1e37d79db960400937391fdc11ecd38260405161054f91815260200190565b60006001600160e01b03198216637965db0b60e01b14806104f057506301ffc9a760e01b6001600160e01b03198316146104f0565b606060006111c983600261198d565b6111d4906002611975565b6001600160401b038111156111eb576111eb611a88565b6040519080825280601f01601f191660200182016040528015611215576020820181803683370190505b509050600360fc1b8160008151811061123057611230611a72565b60200101906001600160f81b031916908160001a905350600f60fb1b8160018151811061125f5761125f611a72565b60200101906001600160f81b031916908160001a905350600061128384600261198d565b61128e906001611975565b90505b6001811115611306576f181899199a1a9b1b9c1cb0b131b232b360811b85600f16601081106112c2576112c2611a72565b1a60f81b8282815181106112d8576112d8611a72565b60200101906001600160f81b031916908160001a90535060049490941c936112ff816119ef565b9050611291565b5083156113555760405162461bcd60e51b815260206004820181905260248201527f537472696e67733a20686578206c656e67746820696e73756666696369656e746044820152606401610732565b9392505050565b82805461136890611a06565b90600052602060002090601f01602090048101928261138a57600085556113d0565b82601f106113a35782800160ff198235161785556113d0565b828001600101855582156113d0579182015b828111156113d05782358255916020019190600101906113b5565b506113dc9291506113e0565b5090565b5b808211156113dc57600081556001016113e1565b80356001600160a01b038116811461140c57600080fd5b919050565b60006020828403121561142357600080fd5b611355826113f5565b60008060006040848603121561144157600080fd5b61144a846113f5565b925060208401356001600160401b038082111561146657600080fd5b818601915086601f83011261147a57600080fd5b81358181111561148957600080fd5b87602082850101111561149b57600080fd5b6020830194508093505050509250925092565b600080604083850312156114c157600080fd5b6114ca836113f5565b915060208301356001600160401b038111156114e557600080fd5b8301604081860312156114f757600080fd5b809150509250929050565b6000806040838503121561151557600080fd5b61151e836113f5565b946020939093013593505050565b6000806020838503121561153f57600080fd5b82356001600160401b038082111561155657600080fd5b818501915085601f83011261156a57600080fd5b81358181111561157957600080fd5b8660208260051b850101111561158e57600080fd5b60209290920196919550909350505050565b6000602082840312156115b257600080fd5b8135801515811461135557600080fd5b6000602082840312156115d457600080fd5b5035919050565b600080604083850312156115ee57600080fd5b823591506115fe602084016113f5565b90509250929050565b60006020828403121561161957600080fd5b81356001600160e01b03198116811461135557600080fd5b60006020828403121561164357600080fd5b81356001600160401b038082111561165a57600080fd5b818401915084601f83011261166e57600080fd5b81358181111561168057611680611a88565b604051601f8201601f19908116603f011681019083821181831017156116a8576116a8611a88565b816040528281528760208487010111156116c157600080fd5b826020860160208301376000928101602001929092525095945050505050565b8183823760009101908152919050565b600080835481600182811c91508083168061170d57607f831692505b602080841082141561172d57634e487b7160e01b86526022600452602486fd5b81801561174157600181146117525761177f565b60ff1986168952848901965061177f565b60008a81526020902060005b868110156117775781548b82015290850190830161175e565b505084890196505b509498975050505050505050565b76020b1b1b2b9b9a1b7b73a3937b61d1030b1b1b7bab73a1604d1b8152600083516117bf8160178501602088016119c3565b7001034b99036b4b9b9b4b733903937b6329607d1b60179184019182015283516117f08160288401602088016119c3565b01602801949350505050565b6001600160a01b0391909116815260200190565b6001600160a01b03841681526040602082018190528101829052818360608301376000818301606090810191909152601f909201601f1916010192915050565b604080825283519082018190526000906020906060840190828701845b828110156118895781518452928401929084019060010161186d565b50505092019290925292915050565b60208152600082518060208401526118b78160408501602087016119c3565b601f01601f19169190910160400192915050565b60208082526015908201527413985b59549959da5cdd1c9e4e8812539590531251605a1b604082015260600190565b6020808252601490820152734e616d6552656769737472793a2045584953545360601b604082015260600190565b6000808335601e1984360301811261193f57600080fd5b8301803591506001600160401b0382111561195957600080fd5b60200191503681900382131561196e57600080fd5b9250929050565b6000821982111561198857611988611a5c565b500190565b60008160001904831182151516156119a7576119a7611a5c565b500290565b6000828210156119be576119be611a5c565b500390565b60005b838110156119de5781810151838201526020016119c6565b83811115610af05750506000910152565b6000816119fe576119fe611a5c565b506000190190565b600181811c90821680611a1a57607f821691505b60208210811415611a3b57634e487b7160e01b600052602260045260246000fd5b50919050565b6000600019821415611a5557611a55611a5c565b5060010190565b634e487b7160e01b600052601160045260246000fd5b634e487b7160e01b600052603260045260246000fd5b634e487b7160e01b600052604160045260246000fdfe86d5cf0a6bdc8d859ba3bdc97043337c82a0e609035f378e419298b6a3e00ae6a264697066735822122027af292fd5f28eb2395fd2563fb324fd314edf5fc923218b1aecece7b9ddc5bf64736f6c6343000807003360a06040523480156200001157600080fd5b506040516200244f3803806200244f83398101604081905262000034916200009a565b60016000556001600160a01b038116620000845760405162461bcd60e51b815260206004820152600d60248201526c466565506f6f6c3a205a45524f60981b604482015260640160405180910390fd5b60601b6001600160601b031916608052620000cc565b600060208284031215620000ad57600080fd5b81516001600160a01b0381168114620000c557600080fd5b9392505050565b60805160601c61232c62000123600039600081816103a10152818161050b0152818161074e0152818161088f015281816109a701528181610a9c01528181610ed401528181610fa601526110cb015261232c6000f3fe608060405234801561001057600080fd5b50600436106100f65760003560e01c80635ad88c1a116100925780635ad88c1a146101e557806381f28daf1461021c57806383a9b8c51461022f57806383b4375814610242578063a785343614610255578063acd5d45814610279578063bf16acec146102a4578063c6c8bd0d146102b7578063cdde8dce146102ca57600080fd5b806301ffc9a7146100fb57806306b0e6751461012357806321ce086a1461013857806333ec8abe1461014b5780633ea270271461015e57806344d064841461017157806351cff8d9146101845780635612e00b1461019757806359dc7ce2146101c5575b600080fd5b61010e61010936600461209b565b6102dd565b60405190151581526020015b60405180910390f35b610136610131366004611eb6565b610314565b005b610136610146366004611f97565b610387565b610136610159366004611fcc565b6104d2565b61013661016c366004611f97565b610734565b61013661017f366004611f56565b610875565b610136610192366004611e43565b610952565b6101b76101a5366004611e43565b60056020526000908152604090205481565b60405190815260200161011a565b6101b76101d3366004611e43565b60016020526000908152604090205481565b6102096101f3366004611e43565b60036020526000908152604090205461ffff1681565b60405161ffff909116815260200161011a565b61013661022a366004611f01565b61098d565b61013661023d36600461204d565b610a82565b6101b7610250366004611e7d565b610bc7565b610209610263366004611e43565b60046020526000908152604090205461ffff1681565b6101b7610287366004611e7d565b600260209081526000928352604080842090915290825290205481565b6101366102b2366004611e7d565b610e93565b6101366102c5366004611f01565b610f8c565b6101366102d8366004611f56565b6110b1565b60006001600160e01b03198216635486e65b60e01b148061030e57506301ffc9a760e01b6001600160e01b03198316145b92915050565b336001600160a01b038416146103455760405162461bcd60e51b815260040161033c90612158565b60405180910390fd5b6001600160a01b03808416600090815260026020908152604080832093861683529290522054610376848483611189565b6103818483836114bf565b50505050565b604051632474521560e21b81526000906001600160a01b037f000000000000000000000000000000000000000000000000000000000000000016906391d14854906103d8908490339060040161210e565b60206040518083038186803b1580156103f057600080fd5b505afa158015610404573d6000803e3d6000fd5b505050506040513d601f19601f820116820180604052508101906104289190612079565b6104445760405162461bcd60e51b815260040161033c90612158565b8161271061ffff8216111561046b5760405162461bcd60e51b815260040161033c90612184565b6001600160a01b038416600081815260036020908152604091829020805461ffff191661ffff8816908117909155915191825233917ff82761bcb1e4da3544055a200bff611c693fb863986f5d9f83c5754364fb3f1a91015b60405180910390a350505050565b604051632474521560e21b81527fdfbefbf47cfe66b701d8cfdbce1de81c821590819cb07e71cb01b6602fb0ee27906001600160a01b037f000000000000000000000000000000000000000000000000000000000000000016906391d1485490610542908490339060040161210e565b60206040518083038186803b15801561055a57600080fd5b505afa15801561056e573d6000803e3d6000fd5b505050506040513d601f19601f820116820180604052508101906105929190612079565b6105ae5760405162461bcd60e51b815260040161033c90612158565b6001600160a01b0387166000908152600360209081526040808320805461ffff808c1661ffff1992831617909255600484528285208054928b1692909116919091179055600590915281208590555b82811015610662576106528885858481811061061b5761061b6122c8565b6106319260206040909202019081019150611e43565b868685818110610643576106436122c8565b905060400201602001356114bf565b61065b81612281565b90506105fd565b5060405161ffff871681526001600160a01b0388169033907ff82761bcb1e4da3544055a200bff611c693fb863986f5d9f83c5754364fb3f1a9060200160405180910390a360405161ffff861681526001600160a01b0388169033907f5e8670ec817633e875ea4dd8db88c8ce647e2b29fd39a8e628ab7c66a0a6ccf29060200160405180910390a36040518481526001600160a01b0388169033907fc9b224f333d1c1d993c3838030eef2b2af8b7a7c0642f987a5c957e61b11e8739060200160405180910390a350505050505050565b604051632474521560e21b81526000906001600160a01b037f000000000000000000000000000000000000000000000000000000000000000016906391d1485490610785908490339060040161210e565b60206040518083038186803b15801561079d57600080fd5b505afa1580156107b1573d6000803e3d6000fd5b505050506040513d601f19601f820116820180604052508101906107d59190612079565b6107f15760405162461bcd60e51b815260040161033c90612158565b8161271061ffff821611156108185760405162461bcd60e51b815260040161033c90612184565b6001600160a01b038416600081815260046020908152604091829020805461ffff191661ffff8816908117909155915191825233917f5e8670ec817633e875ea4dd8db88c8ce647e2b29fd39a8e628ab7c66a0a6ccf291016104c4565b604051632474521560e21b81526000906001600160a01b037f000000000000000000000000000000000000000000000000000000000000000016906391d14854906108c6908490339060040161210e565b60206040518083038186803b1580156108de57600080fd5b505afa1580156108f2573d6000803e3d6000fd5b505050506040513d601f19601f820116820180604052508101906109169190612079565b6109325760405162461bcd60e51b815260040161033c90612158565b61094d836109436020850185611e43565b8460200135611189565b505050565b600260005414156109755760405162461bcd60e51b815260040161033c906121ae565b6002600055610985813380611749565b506001600055565b604051632474521560e21b81526000906001600160a01b037f000000000000000000000000000000000000000000000000000000000000000016906391d14854906109de908490339060040161210e565b60206040518083038186803b1580156109f657600080fd5b505afa158015610a0a573d6000803e3d6000fd5b505050506040513d601f19601f82011682018060405250810190610a2e9190612079565b610a4a5760405162461bcd60e51b815260040161033c90612158565b60005b82811015610a7b57610a6b8585858481811061061b5761061b6122c8565b610a7481612281565b9050610a4d565b5050505050565b604051632474521560e21b81526000906001600160a01b037f000000000000000000000000000000000000000000000000000000000000000016906391d1485490610ad3908490339060040161210e565b60206040518083038186803b158015610aeb57600080fd5b505afa158015610aff573d6000803e3d6000fd5b505050506040513d601f19601f82011682018060405250810190610b239190612079565b610b3f5760405162461bcd60e51b815260040161033c90612158565b6b033b2e3c9fd0803ce8000000821015610b6b5760405162461bcd60e51b815260040161033c90612184565b6001600160a01b038316600081815260056020526040908190208490555133907fc9b224f333d1c1d993c3838030eef2b2af8b7a7c0642f987a5c957e61b11e87390610bba9086815260200190565b60405180910390a3505050565b600080836001600160a01b03166370a08231856001600160a01b031663c45a01556040518163ffffffff1660e01b815260040160206040518083038186803b158015610c1257600080fd5b505afa158015610c26573d6000803e3d6000fd5b505050506040513d601f19601f82011682018060405250810190610c4a9190611e60565b6040518263ffffffff1660e01b8152600401610c6691906120fa565b60206040518083038186803b158015610c7e57600080fd5b505afa158015610c92573d6000803e3d6000fd5b505050506040513d601f19601f82011682018060405250810190610cb691906120c5565b6040516370a0823160e01b81526001600160a01b038616906370a0823190610ce29030906004016120fa565b60206040518083038186803b158015610cfa57600080fd5b505afa158015610d0e573d6000803e3d6000fd5b505050506040513d601f19601f82011682018060405250810190610d3291906120c5565b610d3c91906121e5565b6001600160a01b038516600090815260086020908152604080832054600190925290912054919250908015610db1576001600160a01b038616600090815260096020526040812054610d8e908561223e565b90508015610daf5781612710820281610da957610da96122b2565b04830192505b505b6001600160a01b03808716600090815260026020908152604080832093891683529290529081205415610e09576001600160a01b038088166000908152600760209081526040808320938a1683529290522054610e0b565b825b6001600160a01b038089166000908152600260209081526040808320938b168352929052908120549192508285039161271090610e4990849061221f565b610e5391906121fd565b6001600160a01b03808b166000908152600660209081526040808320938d1683529290522054909150610e8690826121e5565b9998505050505050505050565b60026000541415610eb65760405162461bcd60e51b815260040161033c906121ae565b60026000908155604051632474521560e21b81526001600160a01b037f000000000000000000000000000000000000000000000000000000000000000016906391d1485490610f0b908490339060040161210e565b60206040518083038186803b158015610f2357600080fd5b505afa158015610f37573d6000803e3d6000fd5b505050506040513d601f19601f82011682018060405250810190610f5b9190612079565b610f775760405162461bcd60e51b815260040161033c90612158565b610f82838484611749565b5050600160005550565b604051632474521560e21b81526000906001600160a01b037f000000000000000000000000000000000000000000000000000000000000000016906391d1485490610fdd908490339060040161210e565b60206040518083038186803b158015610ff557600080fd5b505afa158015611009573d6000803e3d6000fd5b505050506040513d601f19601f8201168201806040525081019061102d9190612079565b6110495760405162461bcd60e51b815260040161033c90612158565b60005b82811015610a7b576110a18585858481811061106a5761106a6122c8565b6110809260206040909202019081019150611e43565b868685818110611092576110926122c8565b90506040020160200135611189565b6110aa81612281565b905061104c565b604051632474521560e21b81526000906001600160a01b037f000000000000000000000000000000000000000000000000000000000000000016906391d1485490611102908490339060040161210e565b60206040518083038186803b15801561111a57600080fd5b505afa15801561112e573d6000803e3d6000fd5b505050506040513d601f19601f820116820180604052508101906111529190612079565b61116e5760405162461bcd60e51b815260040161033c90612158565b61094d8361117f6020850185611e43565b84602001356114bf565b8282813b1561126157816001600160a01b031663c45a01556040518163ffffffff1660e01b815260040160206040518083038186803b1580156111cb57600080fd5b505afa1580156111df573d6000803e3d6000fd5b505050506040513d601f19601f820116820180604052508101906112039190611e60565b6001600160a01b031663c0bc4e22836040518263ffffffff1660e01b815260040161122e91906120fa565b600060405180830381600087803b15801561124857600080fd5b505af115801561125c573d6000803e3d6000fd5b505050505b6001600160a01b0382166000908152600160205260409020548015611359576001600160a01b0383166000818152600960205260408082205490516370a0823160e01b8152919290916370a08231906112be9030906004016120fa565b60206040518083038186803b1580156112d657600080fd5b505afa1580156112ea573d6000803e3d6000fd5b505050506040513d601f19601f8201168201806040525081019061130e91906120c5565b611318919061223e565b905080156113575781612710820281611333576113336122b2565b6001600160a01b038616600090815260086020526040902080549290910490910190555b505b6113638383611a06565b6001600160a01b0380871660009081526002602090815260408083209389168352929052908120805486929061139a90849061223e565b90915550506001600160a01b038616600090815260016020526040812080548692906113c790849061223e565b92505081905550846001600160a01b0316866001600160a01b03167fbac40739b0d4ca32fa2d82fc91630465ba3eddd1598da6fca393b26fb63b94538660405161141391815260200190565b60405180910390a380156114b7576040516370a0823160e01b81526001600160a01b038416906370a082319061144d9030906004016120fa565b60206040518083038186803b15801561146557600080fd5b505afa158015611479573d6000803e3d6000fd5b505050506040513d601f19601f8201168201806040525081019061149d91906120c5565b6001600160a01b0384166000908152600960205260409020555b505050505050565b8282813b1561159757816001600160a01b031663c45a01556040518163ffffffff1660e01b815260040160206040518083038186803b15801561150157600080fd5b505afa158015611515573d6000803e3d6000fd5b505050506040513d601f19601f820116820180604052508101906115399190611e60565b6001600160a01b031663c0bc4e22836040518263ffffffff1660e01b815260040161156491906120fa565b600060405180830381600087803b15801561157e57600080fd5b505af1158015611592573d6000803e3d6000fd5b505050505b6001600160a01b038216600090815260016020526040902054801561168f576001600160a01b0383166000818152600960205260408082205490516370a0823160e01b8152919290916370a08231906115f49030906004016120fa565b60206040518083038186803b15801561160c57600080fd5b505afa158015611620573d6000803e3d6000fd5b505050506040513d601f19601f8201168201806040525081019061164491906120c5565b61164e919061223e565b9050801561168d5781612710820281611669576116696122b2565b6001600160a01b038616600090815260086020526040902080549290910490910190555b505b6116998383611a06565b6001600160a01b038087166000908152600260209081526040808320938916835292905290812080548692906116d09084906121e5565b90915550506001600160a01b038616600090815260016020526040812080548692906116fd9084906121e5565b92505081905550846001600160a01b0316866001600160a01b03167fab8530f87dc9b59234c4623bf917212bb2536d647574c8e7e5da92c2ede0c9f88660405161141391815260200190565b8282813b1561182157816001600160a01b031663c45a01556040518163ffffffff1660e01b815260040160206040518083038186803b15801561178b57600080fd5b505afa15801561179f573d6000803e3d6000fd5b505050506040513d601f19601f820116820180604052508101906117c39190611e60565b6001600160a01b031663c0bc4e22836040518263ffffffff1660e01b81526004016117ee91906120fa565b600060405180830381600087803b15801561180857600080fd5b505af115801561181c573d6000803e3d6000fd5b505050505b6001600160a01b0382166000908152600160205260409020548015611919576001600160a01b0383166000818152600960205260408082205490516370a0823160e01b8152919290916370a082319061187e9030906004016120fa565b60206040518083038186803b15801561189657600080fd5b505afa1580156118aa573d6000803e3d6000fd5b505050506040513d601f19601f820116820180604052508101906118ce91906120c5565b6118d8919061223e565b9050801561191757816127108202816118f3576118f36122b2565b6001600160a01b038616600090815260086020526040902080549290910490910190555b505b6119238383611a06565b6001600160a01b0380871660009081526006602090815260408083209389168352929052205480156119d3576001600160a01b038088166000818152600660209081526040808320948b16835293905291822091909155611985908683611b59565b846001600160a01b0316876001600160a01b03167f9b1bfa7fa9ee420a16e124f794c35ac9f90472acc99140eb2f6447c714cad8eb836040516119ca91815260200190565b60405180910390a35b5080156114b7576040516370a0823160e01b81526001600160a01b038416906370a082319061144d9030906004016120fa565b6001600160a01b03808316600090815260026020908152604080832093851683529290529081205415611a5e576001600160a01b03808416600090815260076020908152604080832093861683529290522054611a78565b6001600160a01b0383166000908152600860205260409020545b6001600160a01b038416600090815260086020526040902054909150818103908214611b26576001600160a01b03808516600090815260026020908152604080832093871683529290529081205461271090611ad590849061221f565b611adf91906121fd565b90508015611b24576001600160a01b03808616600090815260066020908152604080832093881683529290529081208054839290611b1e9084906121e5565b90915550505b505b50506001600160a01b03918216600090815260086020908152604080832054600783528184209490951683529290522055565b604080516001600160a01b03848116602483015260448083018590528351808403909101815260649092018352602080830180516001600160e01b031663a9059cbb60e01b17905283518085019094528084527f5361666545524332303a206c6f772d6c6576656c2063616c6c206661696c65649084015261094d92869291600091611be9918516908490611c66565b80519091501561094d5780806020019051810190611c079190612079565b61094d5760405162461bcd60e51b815260206004820152602a60248201527f5361666545524332303a204552433230206f7065726174696f6e20646964206e6044820152691bdd081cdd58d8d9595960b21b606482015260840161033c565b6060611c758484600085611c7f565b90505b9392505050565b606082471015611ce05760405162461bcd60e51b815260206004820152602660248201527f416464726573733a20696e73756666696369656e742062616c616e636520666f6044820152651c8818d85b1b60d21b606482015260840161033c565b843b611d2e5760405162461bcd60e51b815260206004820152601d60248201527f416464726573733a2063616c6c20746f206e6f6e2d636f6e7472616374000000604482015260640161033c565b600080866001600160a01b03168587604051611d4a91906120de565b60006040518083038185875af1925050503d8060008114611d87576040519150601f19603f3d011682016040523d82523d6000602084013e611d8c565b606091505b5091509150611d9c828286611da7565b979650505050505050565b60608315611db6575081611c78565b825115611dc65782518084602001fd5b8160405162461bcd60e51b815260040161033c9190612125565b60008083601f840112611df257600080fd5b50813567ffffffffffffffff811115611e0a57600080fd5b6020830191508360208260061b8501011115611e2557600080fd5b9250929050565b803561ffff81168114611e3e57600080fd5b919050565b600060208284031215611e5557600080fd5b8135611c78816122de565b600060208284031215611e7257600080fd5b8151611c78816122de565b60008060408385031215611e9057600080fd5b8235611e9b816122de565b91506020830135611eab816122de565b809150509250929050565b600080600060608486031215611ecb57600080fd5b8335611ed6816122de565b92506020840135611ee6816122de565b91506040840135611ef6816122de565b809150509250925092565b600080600060408486031215611f1657600080fd5b8335611f21816122de565b9250602084013567ffffffffffffffff811115611f3d57600080fd5b611f4986828701611de0565b9497909650939450505050565b6000808284036060811215611f6a57600080fd5b8335611f75816122de565b92506040601f1982011215611f8957600080fd5b506020830190509250929050565b60008060408385031215611faa57600080fd5b8235611fb5816122de565b9150611fc360208401611e2c565b90509250929050565b60008060008060008060a08789031215611fe557600080fd5b8635611ff0816122de565b9550611ffe60208801611e2c565b945061200c60408801611e2c565b935060608701359250608087013567ffffffffffffffff81111561202f57600080fd5b61203b89828a01611de0565b979a9699509497509295939492505050565b6000806040838503121561206057600080fd5b823561206b816122de565b946020939093013593505050565b60006020828403121561208b57600080fd5b81518015158114611c7857600080fd5b6000602082840312156120ad57600080fd5b81356001600160e01b031981168114611c7857600080fd5b6000602082840312156120d757600080fd5b5051919050565b600082516120f0818460208701612255565b9190910192915050565b6001600160a01b0391909116815260200190565b9182526001600160a01b0316602082015260400190565b6020815260008251806020840152612144816040850160208701612255565b601f01601f19169190910160400192915050565b6020808252601290820152712332b2a837b7b61d102327a92124a22222a760711b604082015260600190565b60208082526010908201526f119959541bdbdb0e881253959053125160821b604082015260600190565b6020808252601f908201527f5265656e7472616e637947756172643a207265656e7472616e742063616c6c00604082015260600190565b600082198211156121f8576121f861229c565b500190565b60008261221a57634e487b7160e01b600052601260045260246000fd5b500490565b60008160001904831182151516156122395761223961229c565b500290565b6000828210156122505761225061229c565b500390565b60005b83811015612270578181015183820152602001612258565b838111156103815750506000910152565b60006000198214156122955761229561229c565b5060010190565b634e487b7160e01b600052601160045260246000fd5b634e487b7160e01b600052601260045260246000fd5b634e487b7160e01b600052603260045260246000fd5b6001600160a01b03811681146122f357600080fd5b5056fea264697066735822122030b0470eec896d335263efa28ff650727b4fbdaf9ed85bab5713b3797446d60264736f6c63430008070033",
  "linkReferences": {},
  "deployedLinkReferences": {}
}