{
  "_format": "hh-sol-artifact-1",
  "contractName": "Orderer",
  "sourceName": "contracts/Orderer.sol",
  "abi": [
    {
      "anonymous": false,
      "inputs": [
        {
          "indexed": false,
          "internalType": "address",
          "name": "previousAdmin",
          "type": "address"
        },
        {
          "indexed": false,
          "internalType": "address",
          "name": "newAdmin",
          "type": "address"
        }
      ],
      "name": "AdminChanged",
      "type": "event"
    },
    {
      "anonymous": false,
      "inputs": [
        {
          "indexed": true,
          "internalType": "address",
          "name": "beacon",
          "type": "address"
        }
      ],
      "name": "BeaconUpgraded",
      "type": "event"
    },
    {
      "anonymous": false,
      "inputs": [
        {
          "indexed": false,
          "internalType": "uint256",
          "name": "id",
          "type": "uint256"
        },
        {
          "indexed": false,
          "internalType": "address",
          "name": "sellAsset",
          "type": "address"
        },
        {
          "indexed": false,
          "internalType": "uint256",
          "name": "soldShares",
          "type": "uint256"
        },
        {
          "indexed": false,
          "internalType": "address",
          "name": "buyAsset",
          "type": "address"
        },
        {
          "indexed": false,
          "internalType": "uint256",
          "name": "boughtShares",
          "type": "uint256"
        }
      ],
      "name": "CompleteOrder",
      "type": "event"
    },
    {
      "anonymous": false,
      "inputs": [
        {
          "indexed": false,
          "internalType": "address",
          "name": "creator",
          "type": "address"
        },
        {
          "indexed": false,
          "internalType": "uint256",
          "name": "id",
          "type": "uint256"
        }
      ],
      "name": "PlaceOrder",
      "type": "event"
    },
    {
      "anonymous": false,
      "inputs": [
        {
          "indexed": false,
          "internalType": "uint256",
          "name": "index",
          "type": "uint256"
        },
        {
          "indexed": false,
          "internalType": "string",
          "name": "reason",
          "type": "string"
        }
      ],
      "name": "SwapFailed",
      "type": "event"
    },
    {
      "anonymous": false,
      "inputs": [
        {
          "indexed": false,
          "internalType": "uint256",
          "name": "id",
          "type": "uint256"
        },
        {
          "indexed": false,
          "internalType": "address",
          "name": "asset",
          "type": "address"
        },
        {
          "indexed": false,
          "internalType": "uint256",
          "name": "share",
          "type": "uint256"
        },
        {
          "indexed": false,
          "internalType": "bool",
          "name": "isSellSide",
          "type": "bool"
        }
      ],
      "name": "UpdateOrder",
      "type": "event"
    },
    {
      "anonymous": false,
      "inputs": [
        {
          "indexed": true,
          "internalType": "address",
          "name": "implementation",
          "type": "address"
        }
      ],
      "name": "Upgraded",
      "type": "event"
    },
    {
      "inputs": [
        {
          "components": [
            {
              "internalType": "address",
              "name": "router",
              "type": "address"
            },
            {
              "internalType": "address",
              "name": "factory",
              "type": "address"
            },
            {
              "internalType": "address",
              "name": "sellAccount",
              "type": "address"
            },
            {
              "internalType": "uint256",
              "name": "maxSellShares",
              "type": "uint256"
            },
            {
              "internalType": "address",
              "name": "buyAccount",
              "type": "address"
            },
            {
              "internalType": "address[]",
              "name": "buyPath",
              "type": "address[]"
            }
          ],
          "internalType": "struct IOrderer.IndexSwap",
          "name": "_info",
          "type": "tuple"
        },
        {
          "internalType": "contract IPriceOracle",
          "name": "_priceOracle",
          "type": "address"
        }
      ],
      "name": "_indexSwap",
      "outputs": [],
      "stateMutability": "nonpayable",
      "type": "function"
    },
    {
      "inputs": [
        {
          "components": [
            {
              "internalType": "address",
              "name": "router",
              "type": "address"
            },
            {
              "internalType": "address",
              "name": "factory",
              "type": "address"
            },
            {
              "internalType": "address",
              "name": "vTokenFactory",
              "type": "address"
            },
            {
              "internalType": "bytes32",
              "name": "vTokenType",
              "type": "bytes32"
            },
            {
              "internalType": "uint256",
              "name": "sellAmount",
              "type": "uint256"
            },
            {
              "internalType": "uint256",
              "name": "expectedBuyAmount",
              "type": "uint256"
            },
            {
              "internalType": "address[]",
              "name": "path",
              "type": "address[]"
            }
          ],
          "internalType": "struct IOrderer.VaultSwap",
          "name": "_info",
          "type": "tuple"
        }
      ],
      "name": "_vaultSwap",
      "outputs": [],
      "stateMutability": "nonpayable",
      "type": "function"
    },
    {
      "inputs": [
        {
          "internalType": "uint256",
          "name": "_orderId",
          "type": "uint256"
        },
        {
          "internalType": "address",
          "name": "_asset",
          "type": "address"
        },
        {
          "internalType": "uint256",
          "name": "_shares",
          "type": "uint256"
        },
        {
          "internalType": "enum IOrderer.OrderSide",
          "name": "_side",
          "type": "uint8"
        }
      ],
      "name": "addOrderDetails",
      "outputs": [],
      "stateMutability": "nonpayable",
      "type": "function"
    },
    {
      "inputs": [],
      "name": "changeAccount",
      "outputs": [
        {
          "internalType": "address",
          "name": "",
          "type": "address"
        }
      ],
      "stateMutability": "view",
      "type": "function"
    },
    {
      "inputs": [
        {
          "components": [
            {
              "internalType": "address",
              "name": "router",
              "type": "address"
            },
            {
              "internalType": "address",
              "name": "factory",
              "type": "address"
            },
            {
              "internalType": "address",
              "name": "sellAccount",
              "type": "address"
            },
            {
              "internalType": "uint256",
              "name": "maxSellShares",
              "type": "uint256"
            },
            {
              "internalType": "address",
              "name": "buyAccount",
              "type": "address"
            },
            {
              "internalType": "address[]",
              "name": "buyPath",
              "type": "address[]"
            }
          ],
          "internalType": "struct IOrderer.IndexSwap[]",
          "name": "_params",
          "type": "tuple[]"
        }
      ],
      "name": "indexSwap",
      "outputs": [],
      "stateMutability": "nonpayable",
      "type": "function"
    },
    {
      "inputs": [
        {
          "internalType": "address",
          "name": "_registry",
          "type": "address"
        },
        {
          "internalType": "address",
          "name": "_changeAccount",
          "type": "address"
        },
        {
          "internalType": "uint64",
          "name": "_orderLifetime",
          "type": "uint64"
        },
        {
          "internalType": "uint16",
          "name": "_maxAllowedSlippageInBP",
          "type": "uint16"
        }
      ],
      "name": "initialize",
      "outputs": [],
      "stateMutability": "nonpayable",
      "type": "function"
    },
    {
      "inputs": [
        {
          "internalType": "address",
          "name": "",
          "type": "address"
        }
      ],
      "name": "lastOrderIdOf",
      "outputs": [
        {
          "internalType": "uint256",
          "name": "",
          "type": "uint256"
        }
      ],
      "stateMutability": "view",
      "type": "function"
    },
    {
      "inputs": [],
      "name": "maxAllowedSlippageInBP",
      "outputs": [
        {
          "internalType": "uint16",
          "name": "",
          "type": "uint16"
        }
      ],
      "stateMutability": "view",
      "type": "function"
    },
    {
      "inputs": [],
      "name": "orderLifetime",
      "outputs": [
        {
          "internalType": "uint64",
          "name": "",
          "type": "uint64"
        }
      ],
      "stateMutability": "view",
      "type": "function"
    },
    {
      "inputs": [
        {
          "internalType": "address",
          "name": "_account",
          "type": "address"
        }
      ],
      "name": "orderOf",
      "outputs": [
        {
          "components": [
            {
              "internalType": "uint256",
              "name": "creationTimestamp",
              "type": "uint256"
            },
            {
              "components": [
                {
                  "internalType": "address",
                  "name": "asset",
                  "type": "address"
                },
                {
                  "internalType": "enum IOrderer.OrderSide",
                  "name": "side",
                  "type": "uint8"
                },
                {
                  "internalType": "uint256",
                  "name": "shares",
                  "type": "uint256"
                }
              ],
              "internalType": "struct IOrderer.OrderAsset[]",
              "name": "assets",
              "type": "tuple[]"
            }
          ],
          "internalType": "struct IOrderer.Order",
          "name": "order",
          "type": "tuple"
        }
      ],
      "stateMutability": "view",
      "type": "function"
    },
    {
      "inputs": [],
      "name": "placeOrder",
      "outputs": [
        {
          "internalType": "uint256",
          "name": "_orderId",
          "type": "uint256"
        }
      ],
      "stateMutability": "nonpayable",
      "type": "function"
    },
    {
      "inputs": [
        {
          "internalType": "address",
          "name": "_asset",
          "type": "address"
        },
        {
          "internalType": "uint256",
          "name": "_newTotalSupply",
          "type": "uint256"
        },
        {
          "internalType": "uint256",
          "name": "_oldTotalSupply",
          "type": "uint256"
        }
      ],
      "name": "reduceOrderAsset",
      "outputs": [],
      "stateMutability": "nonpayable",
      "type": "function"
    },
    {
      "inputs": [
        {
          "internalType": "address",
          "name": "_index",
          "type": "address"
        }
      ],
      "name": "reweight",
      "outputs": [],
      "stateMutability": "nonpayable",
      "type": "function"
    },
    {
      "inputs": [
        {
          "internalType": "address",
          "name": "_changeAccount",
          "type": "address"
        }
      ],
      "name": "setChangeAccount",
      "outputs": [],
      "stateMutability": "nonpayable",
      "type": "function"
    },
    {
      "inputs": [
        {
          "internalType": "uint16",
          "name": "_maxAllowedSlippageInBP",
          "type": "uint16"
        }
      ],
      "name": "setMaxAllowedSlippageInBP",
      "outputs": [],
      "stateMutability": "nonpayable",
      "type": "function"
    },
    {
      "inputs": [
        {
          "internalType": "uint64",
          "name": "_orderLifetime",
          "type": "uint64"
        }
      ],
      "name": "setOrderLifetime",
      "outputs": [],
      "stateMutability": "nonpayable",
      "type": "function"
    },
    {
      "inputs": [
        {
          "internalType": "bytes4",
          "name": "interfaceId",
          "type": "bytes4"
        }
      ],
      "name": "supportsInterface",
      "outputs": [
        {
          "internalType": "bool",
          "name": "",
          "type": "bool"
        }
      ],
      "stateMutability": "view",
      "type": "function"
    },
    {
      "inputs": [
        {
          "internalType": "address",
          "name": "newImplementation",
          "type": "address"
        }
      ],
      "name": "upgradeTo",
      "outputs": [],
      "stateMutability": "nonpayable",
      "type": "function"
    },
    {
      "inputs": [
        {
          "internalType": "address",
          "name": "newImplementation",
          "type": "address"
        },
        {
          "internalType": "bytes",
          "name": "data",
          "type": "bytes"
        }
      ],
      "name": "upgradeToAndCall",
      "outputs": [],
      "stateMutability": "payable",
      "type": "function"
    },
    {
      "inputs": [
        {
          "components": [
            {
              "internalType": "address",
              "name": "router",
              "type": "address"
            },
            {
              "internalType": "address",
              "name": "factory",
              "type": "address"
            },
            {
              "internalType": "address",
              "name": "vTokenFactory",
              "type": "address"
            },
            {
              "internalType": "bytes32",
              "name": "vTokenType",
              "type": "bytes32"
            },
            {
              "internalType": "uint256",
              "name": "sellAmount",
              "type": "uint256"
            },
            {
              "internalType": "uint256",
              "name": "expectedBuyAmount",
              "type": "uint256"
            },
            {
              "internalType": "address[]",
              "name": "path",
              "type": "address[]"
            }
          ],
          "internalType": "struct IOrderer.VaultSwap[]",
          "name": "_params",
          "type": "tuple[]"
        }
      ],
      "name": "vaultSwap",
      "outputs": [],
      "stateMutability": "nonpayable",
      "type": "function"
    }
  ],
  "bytecode": "0x60a06040523060601b60805234801561001757600080fd5b5060805160601c6159296200004c6000396000818161054c0152818161058c01528181610615015261065501526159296000f3fe60806040526004361061011e5760003560e01c80637d369009116100a0578063d222d01f11610064578063d222d01f14610369578063de6f6f5b14610389578063dffbfa04146103a9578063e3facc0c146103c9578063f5c609e0146103f657600080fd5b80637d369009146102aa5780639305dbfb146102ca57806398edd87c14610309578063ab29ce9c14610329578063cabfb7e31461034957600080fd5b80634f1ef286116100e75780634f1ef2861461020a5780635a7f28511461021d5780635d0352431461023d5780636338417c1461025d5780637ceb06581461027d57600080fd5b8062a2e7921461012357806301ffc9a71461016357806303855c63146101935780633659cfe6146101b55780633b5bb757146101d5575b600080fd5b34801561012f57600080fd5b5061015061013e366004614c25565b60666020526000908152604090205481565b6040519081526020015b60405180910390f35b34801561016f57600080fd5b5061018361017e366004614e13565b61040b565b604051901515815260200161015a565b34801561019f57600080fd5b506101b36101ae366004614fd4565b610442565b005b3480156101c157600080fd5b506101b36101d0366004614c25565b610541565b3480156101e157600080fd5b506065546101f790600160a01b900461ffff1681565b60405161ffff909116815260200161015a565b6101b3610218366004614cb7565b61060a565b34801561022957600080fd5b506101b3610238366004614d97565b6106c4565b34801561024957600080fd5b506101b3610258366004614d97565b610879565b34801561026957600080fd5b506101b3610278366004614ee1565b610aa0565b34801561028957600080fd5b5060655461029d906001600160a01b031681565b60405161015a9190615080565b3480156102b657600080fd5b506101b36102c5366004614f6b565b6112e8565b3480156102d657600080fd5b506065546102f190600160b01b90046001600160401b031681565b6040516001600160401b03909116815260200161015a565b34801561031557600080fd5b506101b3610324366004614f86565b6113e0565b34801561033557600080fd5b506101b3610344366004614e8b565b6116dc565b34801561035557600080fd5b506101b3610364366004614d62565b611cd8565b34801561037557600080fd5b506101b3610384366004614c25565b611ead565b34801561039557600080fd5b506101b36103a4366004614c25565b611f95565b3480156103b557600080fd5b506101b36103c4366004614c5f565b612208565b3480156103d557600080fd5b506103e96103e4366004614c25565b612325565b60405161015a91906153e3565b34801561040257600080fd5b506101506124c1565b60006001600160e01b031982166301ffc9a760e01b148061043c57506001600160e01b0319821663163f1a4b60e11b145b92915050565b606854604051632474521560e21b81526000916001600160a01b0316906391d148549061047590849033906004016150d9565b60206040518083038186803b15801561048d57600080fd5b505afa1580156104a1573d6000803e3d6000fd5b505050506040513d601f19601f820116820180604052508101906104c59190614dd8565b6104ea5760405162461bcd60e51b81526004016104e19061519a565b60405180910390fd5b6000826001600160401b0316116105135760405162461bcd60e51b81526004016104e1906152af565b50606580546001600160401b03909216600160b01b0267ffffffffffffffff60b01b19909216919091179055565b306001600160a01b037f000000000000000000000000000000000000000000000000000000000000000016141561058a5760405162461bcd60e51b81526004016104e1906151f0565b7f00000000000000000000000000000000000000000000000000000000000000006001600160a01b03166105bc612622565b6001600160a01b0316146105e25760405162461bcd60e51b81526004016104e190615263565b6105eb81612650565b60408051600080825260208201909252610607918391906126ef565b50565b306001600160a01b037f00000000000000000000000000000000000000000000000000000000000000001614156106535760405162461bcd60e51b81526004016104e1906151f0565b7f00000000000000000000000000000000000000000000000000000000000000006001600160a01b0316610685612622565b6001600160a01b0316146106ab5760405162461bcd60e51b81526004016104e190615263565b6106b482612650565b6106c0828260016126ef565b5050565b606854604051632474521560e21b815260008051602061586d833981519152916001600160a01b0316906391d148549061070490849033906004016150d9565b60206040518083038186803b15801561071c57600080fd5b505afa158015610730573d6000803e3d6000fd5b505050506040513d601f19601f820116820180604052508101906107549190614dd8565b6107705760405162461bcd60e51b81526004016104e19061519a565b60005b828110156108735730636338417c85858481811061079357610793615786565b90506020028101906107a591906155f1565b6040518263ffffffff1660e01b81526004016107c19190615478565b600060405180830381600087803b1580156107db57600080fd5b505af19250505080156107ec575060015b610863576107f86157b2565b806308c379a01415610857575061080d6157ce565b806108185750610859565b7f44e8af768db39f9828656fae48b5f4b388d4d4f4898ba8cbaea9065491bfd2158282604051610849929190615542565b60405180910390a150610863565b505b3d6000803e3d6000fd5b61086c8161573f565b9050610773565b50505050565b606854604051632474521560e21b815260008051602061586d833981519152916001600160a01b0316906391d14854906108b990849033906004016150d9565b60206040518083038186803b1580156108d157600080fd5b505afa1580156108e5573d6000803e3d6000fd5b505050506040513d601f19601f820116820180604052508101906109099190614dd8565b6109255760405162461bcd60e51b81526004016104e19061519a565b60685460408051632630c12f60e01b815290516000926001600160a01b031691632630c12f916004808301926020929190829003018186803b15801561096a57600080fd5b505afa15801561097e573d6000803e3d6000fd5b505050506040513d601f19601f820116820180604052508101906109a29190614c42565b905060005b83811015610a99573063ab29ce9c8686848181106109c7576109c7615786565b90506020028101906109d991906155db565b846040518363ffffffff1660e01b81526004016109f7929190615339565b600060405180830381600087803b158015610a1157600080fd5b505af1925050508015610a22575060015b610a8957610a2e6157b2565b806308c379a014156108575750610a436157ce565b80610a4e5750610859565b7f44e8af768db39f9828656fae48b5f4b388d4d4f4898ba8cbaea9065491bfd2158282604051610a7f929190615542565b60405180910390a1505b610a928161573f565b90506109a7565b5050505050565b333014610abf5760405162461bcd60e51b81526004016104e19061519a565b6068546001600160a01b03166391d148547fe2ebdf3ab38a7622217c5fbf1675855c7e2a7c5bbe41f6e266053d8b1fb9252f610afe6020850185614c25565b6040518363ffffffff1660e01b8152600401610b1b9291906150d9565b60206040518083038186803b158015610b3357600080fd5b505afa158015610b47573d6000803e3d6000fd5b505050506040513d601f19601f82011682018060405250810190610b6b9190614dd8565b610b875760405162461bcd60e51b81526004016104e1906152af565b6068546001600160a01b03166391d148547f5f5d51acd29fcae9301a558a0debb6d96317afd82dff56b59f7feb33c5f6fb2a610bc96040850160208601614c25565b6040518363ffffffff1660e01b8152600401610be69291906150d9565b60206040518083038186803b158015610bfe57600080fd5b505afa158015610c12573d6000803e3d6000fd5b505050506040513d601f19601f82011682018060405250810190610c369190614dd8565b610c525760405162461bcd60e51b81526004016104e1906152af565b6002610c6160c0830183615592565b90501015610c815760405162461bcd60e51b81526004016104e190615310565b6000610c9060c0830183615592565b6000818110610ca157610ca1615786565b9050602002016020810190610cb69190614c25565b90506000610cc760c0840184615592565b6001610cd660c0870187615592565b610ce19291506156d0565b818110610cf057610cf0615786565b9050602002016020810190610d059190614c25565b90506000610d30610d196020860186614c25565b6080860135610d2b60c0880188615592565b61282f565b606554909150600090600160a01b900461ffff16612710610d518285612912565b610d5b9190615689565b610d659190615667565b9050600081610d7a6127106080890135615689565b610d849190615667565b90506000610de0610d9b6040890160208a01614c25565b83610da960c08b018b615592565b8080602002602001604051908101604052809392919081815260200183836020028082843760009201919091525061292b92505050565b90506000610df46060890160408a01614c25565b6001600160a01b031663af86dd46888a606001356040518363ffffffff1660e01b8152600401610e259291906150c0565b602060405180830381600087803b158015610e3f57600080fd5b505af1158015610e53573d6000803e3d6000fd5b505050506040513d601f19601f82011682018060405250810190610e779190614c42565b90506000610e8b60608a0160408b01614c25565b6001600160a01b031663af86dd46888b606001356040518363ffffffff1660e01b8152600401610ebc9291906150c0565b602060405180830381600087803b158015610ed657600080fd5b505af1158015610eea573d6000803e3d6000fd5b505050506040513d601f19601f82011682018060405250810190610f0e9190614c42565b90506001600160a01b038216635c921eb9610f9d610f3260408d0160208e01614c25565b610f3f60c08e018e615592565b6000818110610f5057610f50615786565b9050602002016020810190610f659190614c25565b610f7260c08f018f615592565b6001818110610f8357610f83615786565b9050602002016020810190610f989190614c25565b612a85565b85600081518110610fb057610fb0615786565b60200260200101516040518363ffffffff1660e01b8152600401610fd59291906150c0565b600060405180830381600087803b158015610fef57600080fd5b505af1158015611003573d6000803e3d6000fd5b50505050816001600160a01b031663fff6cae96040518163ffffffff1660e01b8152600401600060405180830381600087803b15801561104257600080fd5b505af1158015611056573d6000803e3d6000fd5b50505050826001845161106991906156d0565b8151811061107957611079615786565b60200260200101518960a00135106110ea576110e561109e60408b0160208c01614c25565b846110ac60c08d018d615592565b80806020026020016040519081016040528093929190818152602001838360200280828437600092019190915250879250612b12915050565b61128a565b6111446110fd60408b0160208c01614c25565b8461110b60c08d018d615592565b80806020026020016040519081016040528093929190818152602001838360200280828437600092019190915250309250612b12915050565b60405163a9059cbb60e01b81526001600160a01b0388169063a9059cbb9061117690849060a08e0135906004016150c0565b602060405180830381600087803b15801561119057600080fd5b505af11580156111a4573d6000803e3d6000fd5b505050506040513d601f19601f820116820180604052508101906111c89190614dd8565b5060655483516001600160a01b03808a169263a9059cbb9291169060a08d01359087906111f7906001906156d0565b8151811061120757611207615786565b602002602001015161121991906156d0565b6040518363ffffffff1660e01b81526004016112369291906150c0565b602060405180830381600087803b15801561125057600080fd5b505af1158015611264573d6000803e3d6000fd5b505050506040513d601f19601f820116820180604052508101906112889190614dd8565b505b806001600160a01b031663fff6cae96040518163ffffffff1660e01b8152600401600060405180830381600087803b1580156112c557600080fd5b505af11580156112d9573d6000803e3d6000fd5b50505050505050505050505050565b606854604051632474521560e21b81526000916001600160a01b0316906391d148549061131b90849033906004016150d9565b60206040518083038186803b15801561133357600080fd5b505afa158015611347573d6000803e3d6000fd5b505050506040513d601f19601f8201168201806040525081019061136b9190614dd8565b6113875760405162461bcd60e51b81526004016104e19061519a565b60008261ffff161180156113a1575061271061ffff831611155b6113bd5760405162461bcd60e51b81526004016104e1906152af565b506065805461ffff909216600160a01b0261ffff60a01b19909216919091179055565b606854604051632474521560e21b81526000805160206158ad833981519152916001600160a01b0316906391d148549061142090849033906004016150d9565b60206040518083038186803b15801561143857600080fd5b505afa15801561144c573d6000803e3d6000fd5b505050506040513d601f19601f820116820180604052508101906114709190614dd8565b61148c5760405162461bcd60e51b81526004016104e19061519a565b60006067600087815260200190815260200160002090506114d660405180604001604052806011815260200170155c19185d1953dc99195c88185cdcd95d607a1b81525086612cd4565b6001600160a01b038516158015906114ee5750600084115b156116d45760028101805460018082018355600092835260209092200180546001600160a01b0319166001600160a01b03881617905560408051808201909152908190859081111561154257611542615770565b815260200161155086612d19565b6001600160f81b031690526001600160a01b0386166000908152600383016020526040902081518154829060ff19166001838181111561159257611592615770565b021790555060209182015181546001600160f81b039091166101000260ff909116179055604080518082019091526014815273155c19185d1953dc99195c8817dbdc99195c925960621b918101919091526115ed9087612d6a565b611621604051806040016040528060128152602001715570646174654f726465722073686172657360701b81525085612d6a565b6040805180820190915260168152755570646174654f7264657220697353656c6c5369646560501b602082015261166c90600085600181111561166657611666615770565b14612daf565b7f35696798b55a4139af6c7025dfad7caa24c2ffbd8e14e82669e63212daa8673e86868660008760018111156116a4576116a4615770565b604080519586526001600160a01b0390941660208601529284019190915214606082015260800160405180910390a15b505050505050565b3330146116fb5760405162461bcd60e51b81526004016104e19061519a565b600261170a60a0840184615592565b9050101561172a5760405162461bcd60e51b81526004016104e190615310565b6068546001600160a01b03166391d148546000805160206158ad83398151915261175a6060860160408701614c25565b6040518363ffffffff1660e01b81526004016117779291906150d9565b60206040518083038186803b15801561178f57600080fd5b505afa1580156117a3573d6000803e3d6000fd5b505050506040513d601f19601f820116820180604052508101906117c79190614dd8565b6117e35760405162461bcd60e51b81526004016104e1906152af565b6000806117f360a0850185615592565b600081811061180457611804615786565b90506020020160208101906118199190614c25565b61182660a0860186615592565b600161183560a0890189615592565b6118409291506156d0565b81811061184f5761184f615786565b90506020020160208101906118649190614c25565b90925090506001600160a01b0382161580159061188957506001600160a01b03811615155b8015611899575060008460600135115b6118b55760405162461bcd60e51b81526004016104e19061523c565b806001600160a01b0316826001600160a01b031614156118e75760405162461bcd60e51b81526004016104e1906152af565b60006118f96060860160408701614c25565b6001600160a01b031663dc18ed266040518163ffffffff1660e01b815260040160206040518083038186803b15801561193157600080fd5b505afa158015611945573d6000803e3d6000fd5b505050506040513d601f19601f820116820180604052508101906119699190614dfa565b9050600061197d6060870160408801614c25565b6001600160a01b03166328dd99126040518163ffffffff1660e01b815260040160206040518083038186803b1580156119b557600080fd5b505afa1580156119c9573d6000803e3d6000fd5b505050506040513d601f19601f820116820180604052508101906119ed9190614c42565b905060006040518060a00160405280866001600160a01b03168152602001856001600160a01b03168152602001836001600160a01b031663af86dd4688876040518363ffffffff1660e01b8152600401611a489291906150c0565b602060405180830381600087803b158015611a6257600080fd5b505af1158015611a76573d6000803e3d6000fd5b505050506040513d601f19601f82011682018060405250810190611a9a9190614c42565b6001600160a01b03168152602001836001600160a01b031663af86dd4687876040518363ffffffff1660e01b8152600401611ad69291906150c0565b602060405180830381600087803b158015611af057600080fd5b505af1158015611b04573d6000803e3d6000fd5b505050506040513d601f19601f82011682018060405250810190611b289190614c42565b6001600160a01b039081168252881660209091015290506000611b5160a0890160808a01614c25565b6001600160a01b031614611cc5576068546001600160a01b03166391d148546000805160206158ad833981519152611b8f60a08b0160808c01614c25565b6040518363ffffffff1660e01b8152600401611bac9291906150d9565b60206040518083038186803b158015611bc457600080fd5b505afa158015611bd8573d6000803e3d6000fd5b505050506040513d601f19601f82011682018060405250810190611bfc9190614dd8565b611c185760405162461bcd60e51b81526004016104e1906152af565b611c2860a0880160808901614c25565b6001600160a01b031663dc18ed266040518163ffffffff1660e01b815260040160206040518083038186803b158015611c6057600080fd5b505afa158015611c74573d6000803e3d6000fd5b505050506040513d601f19601f82011682018060405250810190611c989190614dfa565b8314611cb65760405162461bcd60e51b81526004016104e1906152af565b611cc08782612df4565b611ccf565b611ccf8782613294565b50505050505050565b606854604051632474521560e21b81526000805160206158ad833981519152916001600160a01b0316906391d1485490611d1890849033906004016150d9565b60206040518083038186803b158015611d3057600080fd5b505afa158015611d44573d6000803e3d6000fd5b505050506040513d601f19601f82011682018060405250810190611d689190614dd8565b611d845760405162461bcd60e51b81526004016104e19061519a565b336000908152606660205260409020548015610a995760008181526067602090815260408083206001600160a01b0389168452600381019092529091205461010090046001600160f81b03168015611ccf576000611df586611de68985615689565b611df09190615667565b612d19565b6001600160a01b03891660009081526003850160205260408120805460ff9081166101006001600160f81b038616028181179093559394507f35696798b55a4139af6c7025dfad7caa24c2ffbd8e14e82669e63212daa8673e9388938d93879391929116176001811115611e6b57611e6b615770565b604080519586526001600160a01b039490941660208601526001600160f81b039290921684840152146060830152519081900360800190a15050505050505050565b606854604051632474521560e21b81526000916001600160a01b0316906391d1485490611ee090849033906004016150d9565b60206040518083038186803b158015611ef857600080fd5b505afa158015611f0c573d6000803e3d6000fd5b505050506040513d601f19601f82011682018060405250810190611f309190614dd8565b611f4c5760405162461bcd60e51b81526004016104e19061519a565b6001600160a01b038216611f725760405162461bcd60e51b81526004016104e19061523c565b50606580546001600160a01b0319166001600160a01b0392909216919091179055565b606854604051632474521560e21b815260008051602061586d833981519152916001600160a01b0316906391d1485490611fd590849033906004016150d9565b60206040518083038186803b158015611fed57600080fd5b505afa158015612001573d6000803e3d6000fd5b505050506040513d601f19601f820116820180604052508101906120259190614dd8565b6120415760405162461bcd60e51b81526004016104e19061519a565b60005a9050826001600160a01b031663849feb6b6040518163ffffffff1660e01b8152600401600060405180830381600087803b15801561208157600080fd5b505af1158015612095573d6000803e3d6000fd5b5050505060005a6120a690836156d0565b9050836001600160a01b031663f6abc84c6040518163ffffffff1660e01b815260040160206040518083038186803b1580156120e157600080fd5b505afa1580156120f5573d6000803e3d6000fd5b505050506040513d601f19601f820116820180604052508101906121199190614dd8565b61087357606860009054906101000a90046001600160a01b03166001600160a01b0316634df0cb856040518163ffffffff1660e01b815260040160206040518083038186803b15801561216b57600080fd5b505afa15801561217f573d6000803e3d6000fd5b505050506040513d601f19601f820116820180604052508101906121a39190614c42565b6001600160a01b031663c407687685836040518363ffffffff1660e01b81526004016121d09291906150c0565b600060405180830381600087803b1580156121ea57600080fd5b505af11580156121fe573d6000803e3d6000fd5b5050505050505050565b600054610100900460ff1680612221575060005460ff16155b6122845760405162461bcd60e51b815260206004820152602e60248201527f496e697469616c697a61626c653a20636f6e747261637420697320616c72656160448201526d191e481a5b9a5d1a585b1a5e995960921b60648201526084016104e1565b600054610100900460ff161580156122a6576000805461ffff19166101011790555b606880546001600160a01b0319166001600160a01b038781169190911790915560658054918616600169ffffffffffffffff000160a01b031990921691909117600160b01b6001600160401b038616021761ffff60a01b1916600160a01b61ffff8516021790558015610a99576000805461ff00191690555050505050565b6040805180820190915260008152606060208201526001600160a01b0382166000908152606660209081526040808320548084526067835292819020815180830190925280548252600281015490928201906001600160401b0381111561238e5761238e61579c565b6040519080825280602002602001820160405280156123d957816020015b60408051606081018252600080825260208083018290529282015282526000199092019101816123ac5790505b509052925060005b60028201548110156124b957600082600201828154811061240457612404615786565b6000918252602080832090910154604080516060810182526001600160a01b03909216808352808552600388018452932054929350919082019060ff16600181111561245257612452615770565b81526001600160a01b038316600090815260038601602090815260409091205461010090046001600160f81b03169181019190915286015180518490811061249c5761249c615786565b602002602001018190525050806124b29061573f565b90506123e1565b505050919050565b606854604051632474521560e21b81526000916000805160206158ad833981519152916001600160a01b03909116906391d148549061250690849033906004016150d9565b60206040518083038186803b15801561251e57600080fd5b505afa158015612532573d6000803e3d6000fd5b505050506040513d601f19601f820116820180604052508101906125569190614dd8565b6125725760405162461bcd60e51b81526004016104e19061519a565b336000908152606660209081526040808320548352606790915281208181556001810180546001600160a01b0319169055906125b16002830182614b6e565b505060698054600101908190556000818152606760209081526040808320428155338085526066909352928190208490555192945090917f05ca70c8e6534d97f431c4c47fb16e607df92096fa770fb519a1c82b007486ee916126159186906150c0565b60405180910390a1505090565b7f360894a13ba1a3210667c828492db98dca3e2076cc3735a920a3ca505d382bbc546001600160a01b031690565b606854604051632474521560e21b81526000916001600160a01b0316906391d148549061268390849033906004016150d9565b60206040518083038186803b15801561269b57600080fd5b505afa1580156126af573d6000803e3d6000fd5b505050506040513d601f19601f820116820180604052508101906126d39190614dd8565b6106c05760405162461bcd60e51b81526004016104e19061519a565b60006126f9612622565b9050612704846139f4565b6000835111806127115750815b15612722576127208484613a99565b505b7f4910fdfa16fed3260ed0e7147f7cc6da11a60208b5b9406d12a635614ffd9143805460ff16610a9957805460ff1916600117815560405161279d90869061276e908590602401615080565b60408051601f198184030181529190526020810180516001600160e01b0316631b2ce7f360e11b179052613a99565b50805460ff191681556127ae612622565b6001600160a01b0316826001600160a01b0316146128265760405162461bcd60e51b815260206004820152602f60248201527f45524331393637557067726164653a207570677261646520627265616b73206660448201526e75727468657220757067726164657360881b60648201526084016104e1565b610a9985613b84565b600080856001600160a01b031663c45a01556040518163ffffffff1660e01b815260040160206040518083038186803b15801561286b57600080fd5b505afa15801561287f573d6000803e3d6000fd5b505050506040513d601f19601f820116820180604052508101906128a39190614c42565b905060006128b382878787613bc4565b6128be6001866156d0565b815181106128ce576128ce615786565b602002602001015190508060200151816000015182602001516128f191906156d0565b6128fd90612710615689565b6129079190615667565b979650505050505050565b6000818310156129225781612924565b825b9392505050565b606060028251101561294f5760405162461bcd60e51b81526004016104e1906152d9565b81516001600160401b038111156129685761296861579c565b604051908082528060200260200182016040528015612991578160200160208202803683370190505b50905082816000815181106129a8576129a8615786565b60200260200101818152505060005b600183516129c591906156d0565b811015612a7d57600080612a18878685815181106129e5576129e5615786565b6020026020010151878660016129fb919061564f565b81518110612a0b57612a0b615786565b6020026020010151613dd0565b91509150612a40848481518110612a3157612a31615786565b60200260200101518383613ea9565b84612a4c85600161564f565b81518110612a5c57612a5c615786565b60200260200101818152505050508080612a759061573f565b9150506129b7565b509392505050565b60405163e6a4390560e01b81526001600160a01b03838116600483015282811660248301526000919085169063e6a439059060440160206040518083038186803b158015612ad257600080fd5b505afa158015612ae6573d6000803e3d6000fd5b505050506040513d601f19601f82011682018060405250810190612b0a9190614c42565b949350505050565b60005b60018351612b2391906156d0565b811015610a9957600080848381518110612b3f57612b3f615786565b602002602001015185846001612b55919061564f565b81518110612b6557612b65615786565b6020026020010151915091506000612b7d8383613fbe565b509050600087612b8e86600161564f565b81518110612b9e57612b9e615786565b60200260200101519050600080836001600160a01b0316866001600160a01b031614612bcc57826000612bd0565b6000835b91509150600060028a51612be491906156d0565b8810612bf05788612c1e565b612c1e8c878c612c018c600261564f565b81518110612c1157612c11615786565b6020026020010151612a85565b9050612c2b8c8888612a85565b6001600160a01b031663022c0d9f84848460006040519080825280601f01601f191660200182016040528015612c68576020820181803683370190505b506040518563ffffffff1660e01b8152600401612c88949392919061555b565b600060405180830381600087803b158015612ca257600080fd5b505af1158015612cb6573d6000803e3d6000fd5b50505050505050505050508080612ccc9061573f565b915050612b15565b6106c08282604051602401612cea929190615103565b60408051601f198184030181529190526020810180516001600160e01b031663319af33360e01b1790526140b6565b60006001600160f81b03821115612d665760405162461bcd60e51b81526020600482015260116024820152704f7264657265723a204f564552464c4f5760781b60448201526064016104e1565b5090565b6106c08282604051602401612d80929190615151565b60408051601f198184030181529190526020810180516001600160e01b03166309710a9d60e41b1790526140b6565b6106c08282604051602401612dc592919061512d565b60408051601f198184030181529190526020810180516001600160e01b031663c3b5563560e01b1790526140b6565b612e0160a0830183615592565b9050600214612e225760405162461bcd60e51b81526004016104e190615310565b612e326060830160408401614c25565b6001600160a01b0316612e4b60a0840160808501614c25565b6001600160a01b03161415612e725760405162461bcd60e51b81526004016104e1906152af565b6000606681612e876060860160408701614c25565b6001600160a01b0316815260208101919091526040016000908120549150606681612eb860a0870160808801614c25565b6001600160a01b03168152602080820192909252604090810160009081205485825260679093528181208382529190206065548254939450919290914291612f1091600160b01b90046001600160401b03169061564f565b11612f2d5760405162461bcd60e51b81526004016104e1906151c6565b60655481544291612f4f91600160b01b9091046001600160401b03169061564f565b11612f6c5760405162461bcd60e51b81526004016104e1906151c6565b600080612f7b888886866140d7565b91509150600082118015612f8f5750600081115b156121fe576000612f9f83612d19565b90506000612fac83612d19565b905088604001516001600160a01b03166323b872dd8b6040016020810190612fd49190614c25565b612fe460a08e0160808f01614c25565b856040518463ffffffff1660e01b815260040161300393929190615094565b600060405180830381600087803b15801561301d57600080fd5b505af1158015613031573d6000803e3d6000fd5b5050505060608901516001600160a01b03166323b872dd61305860a08d0160808e01614c25565b61306860608e0160408f01614c25565b846040518463ffffffff1660e01b815260040161308793929190615094565b600060405180830381600087803b1580156130a157600080fd5b505af11580156130b5573d6000803e3d6000fd5b50508a516001600160a01b03166000908152600389016020526040902080548593509091506001906130f690849061010090046001600160f81b03166156a8565b82546001600160f81b0391821661010093840a90810290830219909116179092556020808d01516001600160a01b0316600090815260038b01909152604090208054859450909260019261314f928692919004166156a8565b82546001600160f81b0391821661010093840a90810290830219909116179092558b516001600160a01b031660009081526003890160205260409020805485945090926001926131a4928692919004166156a8565b82546001600160f81b0391821661010093840a90810290830219909116179092556020808d01516001600160a01b0316600090815260038a0190915260409020805486945090926001926131fd928692919004166156a8565b92506101000a8154816001600160f81b0302191690836001600160f81b0316021790555060008051602061588d833981519152888a60000151848c602001518560405161324e95949392919061550c565b60405180910390a16020890151895160405160008051602061588d83398151915292613280928b92869190889061550c565b60405180910390a150505050505050505050565b60026132a360a0840184615592565b905010156132c35760405162461bcd60e51b81526004016104e190615310565b6068546001600160a01b03166391d148547fe2ebdf3ab38a7622217c5fbf1675855c7e2a7c5bbe41f6e266053d8b1fb9252f6133026020860186614c25565b6040518363ffffffff1660e01b815260040161331f9291906150d9565b60206040518083038186803b15801561333757600080fd5b505afa15801561334b573d6000803e3d6000fd5b505050506040513d601f19601f8201168201806040525081019061336f9190614dd8565b61338b5760405162461bcd60e51b81526004016104e1906152af565b6068546001600160a01b03166391d148547f5f5d51acd29fcae9301a558a0debb6d96317afd82dff56b59f7feb33c5f6fb2a6133cd6040860160208701614c25565b6040518363ffffffff1660e01b81526004016133ea9291906150d9565b60206040518083038186803b15801561340257600080fd5b505afa158015613416573d6000803e3d6000fd5b505050506040513d601f19601f8201168201806040525081019061343a9190614dd8565b6134565760405162461bcd60e51b81526004016104e1906152af565b600060668161346b6060860160408701614c25565b6001600160a01b0316815260208082019290925260409081016000908120548082526067909352206065548154929350909142916134ba91600160b01b9091046001600160401b03169061564f565b116134d75760405162461bcd60e51b81526004016104e1906151c6565b6000806134e586868561470b565b909250905081156116d45760006134fb83612d19565b905085604001516001600160a01b03166323b872dd8860400160208101906135239190614c25565b8860400151846040518463ffffffff1660e01b815260040161354793929190615094565b600060405180830381600087803b15801561356157600080fd5b505af1158015613575573d6000803e3d6000fd5b50505050600086604001516001600160a01b0316631f7ace096135e48a60200160208101906135a49190614c25565b6135b160a08d018d615592565b60008181106135c2576135c2615786565b90506020020160208101906135d79190614c25565b610f7260a08e018e615592565b6040518263ffffffff1660e01b81526004016136009190615080565b602060405180830381600087803b15801561361a57600080fd5b505af115801561362e573d6000803e3d6000fd5b505050506040513d601f19601f820116820180604052508101906136529190614dfa565b9050600061367761366960408b0160208c01614c25565b83610da960a08d018d615592565b9050806001825161368891906156d0565b8151811061369857613698615786565b60200260200101518410613707576137026136b960408b0160208c01614c25565b826136c760a08d018d615592565b8080602002602001604051908101604052809392919081815260200183836020028082843760009201919091525050505060608c0151612b12565b613873565b61372861371a60408b0160208c01614c25565b8261110b60a08d018d615592565b6020880151606089015160405163a9059cbb60e01b81526001600160a01b039092169163a9059cbb9161375f9188906004016150c0565b602060405180830381600087803b15801561377957600080fd5b505af115801561378d573d6000803e3d6000fd5b505050506040513d601f19601f820116820180604052508101906137b19190614dd8565b50602088015160655482516001600160a01b039283169263a9059cbb921690879085906137e0906001906156d0565b815181106137f0576137f0615786565b602002602001015161380291906156d0565b6040518363ffffffff1660e01b815260040161381f9291906150c0565b602060405180830381600087803b15801561383957600080fd5b505af115801561384d573d6000803e3d6000fd5b505050506040513d601f19601f820116820180604052508101906138719190614dd8565b505b600061390c89606001516001600160a01b03166371e578dc8c604001602081019061389e9190614c25565b6040518263ffffffff1660e01b81526004016138ba9190615080565b602060405180830381600087803b1580156138d457600080fd5b505af11580156138e8573d6000803e3d6000fd5b505050506040513d601f19601f82011682018060405250810190611df09190614dfa565b89516001600160a01b0316600090815260038901602052604090208054919250859160019061394a90849061010090046001600160f81b03166156a8565b82546001600160f81b0391821661010093840a90810290830219909116179092556020808d01516001600160a01b0316600090815260038c0190915260409020805485945090926001926139a3928692919004166156a8565b92506101000a8154816001600160f81b0302191690836001600160f81b0316021790555060008051602061588d833981519152888a60000151868c602001518560405161328095949392919061550c565b803b613a585760405162461bcd60e51b815260206004820152602d60248201527f455243313936373a206e657720696d706c656d656e746174696f6e206973206e60448201526c1bdd08184818dbdb9d1c9858dd609a1b60648201526084016104e1565b7f360894a13ba1a3210667c828492db98dca3e2076cc3735a920a3ca505d382bbc80546001600160a01b0319166001600160a01b0392909216919091179055565b6060823b613af85760405162461bcd60e51b815260206004820152602660248201527f416464726573733a2064656c65676174652063616c6c20746f206e6f6e2d636f6044820152651b9d1c9858dd60d21b60648201526084016104e1565b600080846001600160a01b031684604051613b139190615064565b600060405180830381855af49150503d8060008114613b4e576040519150601f19603f3d011682016040523d82523d6000602084013e613b53565b606091505b5091509150613b7b82826040518060600160405280602781526020016158cd60279139614b0f565b95945050505050565b613b8d816139f4565b6040516001600160a01b038216907fbc7cd75a20ee27fd9adebab32041f755214dbc6bffa90cc0225b39da2e5c2d3b90600090a250565b60606002821015613be75760405162461bcd60e51b81526004016104e1906152d9565b816001600160401b03811115613bff57613bff61579c565b604051908082528060200260200182016040528015613c4457816020015b6040805180820190915260008082526020820152815260200190600190039081613c1d5790505b5090508381600081518110613c5b57613c5b615786565b602002602001015160000181815250508381600081518110613c7f57613c7f615786565b6020026020010151602001818152505060005b613c9d6001846156d0565b811015613dc757600080613d0888878786818110613cbd57613cbd615786565b9050602002016020810190613cd29190614c25565b8888613cdf88600161564f565b818110613cee57613cee615786565b9050602002016020810190613d039190614c25565b613dd0565b91509150613d34848481518110613d2157613d21615786565b6020026020010151600001518383613ea9565b84613d4085600161564f565b81518110613d5057613d50615786565b60200260200101516000018181525050613d88848481518110613d7557613d75615786565b6020026020010151602001518383614b48565b84613d9485600161564f565b81518110613da457613da4615786565b60200260200101516020018181525050505080613dc09061573f565b9050613c92565b50949350505050565b6000806000613ddf8585613fbe565b509050600080613df0888888612a85565b6001600160a01b0316630902f1ac6040518163ffffffff1660e01b815260040160606040518083038186803b158015613e2857600080fd5b505afa158015613e3c573d6000803e3d6000fd5b505050506040513d601f19601f82011682018060405250810190613e609190614f1b565b506001600160701b031691506001600160701b03169150826001600160a01b0316876001600160a01b031614613e97578082613e9a565b81815b90999098509650505050505050565b6000808411613f0e5760405162461bcd60e51b815260206004820152602b60248201527f556e697377617056324c6962726172793a20494e53554646494349454e545f4960448201526a1394155517d05353d5539560aa1b60648201526084016104e1565b600083118015613f1e5750600082115b613f7b5760405162461bcd60e51b815260206004820152602860248201527f556e697377617056324c6962726172793a20494e53554646494349454e545f4c604482015267495155494449545960c01b60648201526084016104e1565b6000613f89856103e5615689565b90506000613f978483615689565b9050600082613fa8876103e8615689565b613fb2919061564f565b90506129078183615667565b600080826001600160a01b0316846001600160a01b031614156140315760405162461bcd60e51b815260206004820152602560248201527f556e697377617056324c6962726172793a204944454e544943414c5f41444452604482015264455353455360d81b60648201526084016104e1565b826001600160a01b0316846001600160a01b031610614051578284614054565b83835b90925090506001600160a01b0382166140af5760405162461bcd60e51b815260206004820152601e60248201527f556e697377617056324c6962726172793a205a45524f5f41444452455353000060448201526064016104e1565b9250929050565b80516a636f6e736f6c652e6c6f67602083016000808483855afa5050505050565b82516001600160a01b0316600090815260038301602052604080822081518083019092528054839283929091829060ff16600181111561411957614119615770565b600181111561412a5761412a615770565b8152905461010090046001600160f81b031660209182015287516001600160a01b03166000908152600387019091526040808220815180830190925280549394509192909190829060ff16600181111561418657614186615770565b600181111561419757614197615770565b8152905461010090046001600160f81b0316602091820152888101516001600160a01b03166000908152600389019091526040808220815180830190925280549394509192909190829060ff1660018111156141f5576141f5615770565b600181111561420657614206615770565b8152905461010090046001600160f81b0316602091820152898101516001600160a01b03166000908152600389019091526040808220815180830190925280549394509192909190829060ff16600181111561426457614264615770565b600181111561427557614275615770565b8152905461010090046001600160f81b031660209091015290506000845160018111156142a4576142a4615770565b1480156142c357506001835160018111156142c1576142c1615770565b145b80156142e157506001825160018111156142df576142df615770565b145b80156142ff57506000815160018111156142fd576142fd615770565b145b61431b5760405162461bcd60e51b81526004016104e190615173565b61434c6143398b6060013586602001516001600160f81b0316614b5f565b84602001516001600160f81b0316614b5f565b955061437282602001516001600160f81b031682602001516001600160f81b0316614b5f565b945050505050600085608001516001600160a01b031663da0449be87600001516040518263ffffffff1660e01b81526004016143ae9190615080565b602060405180830381600087803b1580156143c857600080fd5b505af11580156143dc573d6000803e3d6000fd5b505050506040513d601f19601f820116820180604052508101906144009190614dfa565b9050600086608001516001600160a01b031663da0449be88602001516040518263ffffffff1660e01b81526004016144389190615080565b602060405180830381600087803b15801561445257600080fd5b505af1158015614466573d6000803e3d6000fd5b505050506040513d601f19601f8201168201806040525081019061448a9190614dfa565b60608801519091506000906001600160a01b0316636fb4e2726144b360a08c0160808d01614c25565b866040518363ffffffff1660e01b81526004016144d19291906150c0565b604080518083038186803b1580156144e857600080fd5b505afa1580156144fc573d6000803e3d6000fd5b505050506040513d601f19601f820116820180604052508101906145209190614e3d565b602001519050600082614537600160701b84615689565b6145419190615667565b90506000600160701b6145548684615689565b61455e9190615667565b90506145eb878b604001516001600160a01b031663ee304877846040518263ffffffff1660e01b815260040161459691815260200190565b60206040518083038186803b1580156145ae57600080fd5b505afa1580156145c2573d6000803e3d6000fd5b505050506040513d601f19601f820116820180604052508101906145e69190614dfa565b614b5f565b9650505050600087604001516001600160a01b0316636fb4e2728a60400160208101906146189190614c25565b876040518363ffffffff1660e01b81526004016146369291906150c0565b604080518083038186803b15801561464d57600080fd5b505afa158015614661573d6000803e3d6000fd5b505050506040513d601f19601f820116820180604052508101906146859190614e3d565b60200151905060008361469c600160701b84615689565b6146a69190615667565b90506000600160701b6146b98584615689565b6146c39190615667565b90506146fb868b606001516001600160a01b031663ee304877846040518263ffffffff1660e01b815260040161459691815260200190565b9550505050505094509492505050565b81516001600160a01b03908116600090815260038301602090815260408083209186015190931682529181209091829182825460ff16600181111561475257614752615770565b14801561477457506001815460ff16600181111561477257614772615770565b145b6147905760405162461bcd60e51b81526004016104e190615173565b81546147af9060608901359061010090046001600160f81b0316614b5f565b60808701518751604051636d0224df60e11b81529296506000926001600160a01b039092169163da0449be916147e791600401615080565b602060405180830381600087803b15801561480157600080fd5b505af1158015614815573d6000803e3d6000fd5b505050506040513d601f19601f820116820180604052508101906148399190614dfa565b9050600087608001516001600160a01b031663da0449be89602001516040518263ffffffff1660e01b81526004016148719190615080565b602060405180830381600087803b15801561488b57600080fd5b505af115801561489f573d6000803e3d6000fd5b505050506040513d601f19601f820116820180604052508101906148c39190614dfa565b905087606001516001600160a01b0316636fb4e2728a60400160208101906148eb9190614c25565b855460405160e084901b6001600160e01b03191681526001600160a01b03909216600483015261010090046001600160f81b03166024820152604401604080518083038186803b15801561493e57600080fd5b505afa158015614952573d6000803e3d6000fd5b505050506040513d601f19601f820116820180604052508101906149769190614e3d565b60200151945060008161498d600160701b88615689565b6149979190615667565b90506000600160701b6149aa8584615689565b6149b49190615667565b90506149ec888b604001516001600160a01b031663ee304877846040518263ffffffff1660e01b815260040161459691815260200190565b97505050600088604001516001600160a01b0316636fb4e2728b6040016020810190614a189190614c25565b896040518363ffffffff1660e01b8152600401614a369291906150c0565b604080518083038186803b158015614a4d57600080fd5b505afa158015614a61573d6000803e3d6000fd5b505050506040513d601f19601f82011682018060405250810190614a859190614e3d565b90506000614aab614a9960208d018d614c25565b6020840151610d2b60a08f018f615592565b606554909150600090600160a01b900461ffff16612710614acc8285612912565b614ad69190615689565b614ae09190615667565b83519091508190614af49061271090615689565b614afe9190615667565b985050505050505050935093915050565b60608315614b1e575081612924565b825115614b2e5782518084602001fd5b8160405162461bcd60e51b81526004016104e191906150f0565b600082614b558386615689565b612b0a9190615667565b60008183106129225781612924565b508054600082559060005260206000209081019061060791905b80821115612d665760008155600101614b88565b60008083601f840112614bae57600080fd5b5081356001600160401b03811115614bc557600080fd5b6020830191508360208260051b85010111156140af57600080fd5b80516001600160701b0381168114614bf757600080fd5b919050565b803561ffff81168114614bf757600080fd5b80356001600160401b0381168114614bf757600080fd5b600060208284031215614c3757600080fd5b813561292481615857565b600060208284031215614c5457600080fd5b815161292481615857565b60008060008060808587031215614c7557600080fd5b8435614c8081615857565b93506020850135614c9081615857565b9250614c9e60408601614c0e565b9150614cac60608601614bfc565b905092959194509250565b60008060408385031215614cca57600080fd5b8235614cd581615857565b91506020838101356001600160401b0380821115614cf257600080fd5b818601915086601f830112614d0657600080fd5b813581811115614d1857614d1861579c565b6040519150614d30601f8201601f1916850183615713565b8082528784828501011115614d4457600080fd5b80848401858401376000848284010152508093505050509250929050565b600080600060608486031215614d7757600080fd5b8335614d8281615857565b95602085013595506040909401359392505050565b60008060208385031215614daa57600080fd5b82356001600160401b03811115614dc057600080fd5b614dcc85828601614b9c565b90969095509350505050565b600060208284031215614dea57600080fd5b8151801515811461292457600080fd5b600060208284031215614e0c57600080fd5b5051919050565b600060208284031215614e2557600080fd5b81356001600160e01b03198116811461292457600080fd5b600060408284031215614e4f57600080fd5b604051604081018181106001600160401b0382111715614e7157614e7161579c565b604052825181526020928301519281019290925250919050565b60008060408385031215614e9e57600080fd5b82356001600160401b03811115614eb457600080fd5b830160c08186031215614ec657600080fd5b91506020830135614ed681615857565b809150509250929050565b600060208284031215614ef357600080fd5b81356001600160401b03811115614f0957600080fd5b820160e0818503121561292457600080fd5b600080600060608486031215614f3057600080fd5b614f3984614be0565b9250614f4760208501614be0565b9150604084015163ffffffff81168114614f6057600080fd5b809150509250925092565b600060208284031215614f7d57600080fd5b61292482614bfc565b60008060008060808587031215614f9c57600080fd5b843593506020850135614fae81615857565b925060408501359150606085013560028110614fc957600080fd5b939692955090935050565b600060208284031215614fe657600080fd5b61292482614c0e565b8183526000602080850194508260005b8581101561502d57813561501281615857565b6001600160a01b031687529582019590820190600101614fff565b509495945050505050565b600081518084526150508160208601602086016156e7565b601f01601f19169290920160200192915050565b600082516150768184602087016156e7565b9190910192915050565b6001600160a01b0391909116815260200190565b6001600160a01b0393841681529190921660208201526001600160f81b03909116604082015260600190565b6001600160a01b03929092168252602082015260400190565b9182526001600160a01b0316602082015260400190565b6020815260006129246020830184615038565b6040815260006151166040830185615038565b905060018060a01b03831660208301529392505050565b6040815260006151406040830185615038565b905082151560208301529392505050565b6040815260006151646040830185615038565b90508260208301529392505050565b6020808252600d908201526c4f7264657265723a205349444560981b604082015260600190565b60208082526012908201527127b93232b932b91d102327a92124a22222a760711b604082015260600190565b60208082526010908201526f13dc99195c995c8e881156141254915160821b604082015260600190565b6020808252602c908201527f46756e6374696f6e206d7573742062652063616c6c6564207468726f7567682060408201526b19195b1959d85d1958d85b1b60a21b606082015260800190565b6020808252600d908201526c4f7264657265723a205a45524f60981b604082015260600190565b6020808252602c908201527f46756e6374696f6e206d7573742062652063616c6c6564207468726f7567682060408201526b6163746976652070726f787960a01b606082015260800190565b60208082526010908201526f13dc99195c995c8e881253959053125160821b604082015260600190565b6020808252601e908201527f556e697377617056324c6962726172793a20494e56414c49445f504154480000604082015260600190565b6020808252600f908201526e09ee4c8cae4cae47440988a9c8ea89608b1b604082015260600190565b604081526000833561534a81615857565b6001600160a01b03908116604084015260208501359061536982615857565b908116606084015260408501359061538082615857565b8082166080850152606086013560a0850152608086013591506153a282615857565b80821660c08501526153b760a0870187615607565b925060c060e08601526153cf61010086018483614fef565b935050808516602085015250509392505050565b6000602080835260608084018551838601528286015160408081880152828251808552608089019150868401945060009350835b8181101561546957855180516001600160a01b03168452888101516002811061544e57634e487b7160e01b87526021600452602487fd5b848a0152840151848401529487019491860191600101615417565b50909998505050505050505050565b602081526000823561548981615857565b6001600160a01b03908116602084810191909152840135906154aa82615857565b8082166040850152604085013591506154c282615857565b8082166060850152505060608301356080830152608083013560a083015260a083013560c08301526154f760c0840184615607565b60e080850152613b7b61010085018284614fef565b9485526001600160a01b0393841660208601526001600160f81b0392831660408601529216606084015216608082015260a00190565b828152604060208201526000612b0a6040830184615038565b84815283602082015260018060a01b03831660408201526080606082015260006155886080830184615038565b9695505050505050565b6000808335601e198436030181126155a957600080fd5b8301803591506001600160401b038211156155c357600080fd5b6020019150600581901b36038213156140af57600080fd5b6000823560be1983360301811261507657600080fd5b6000823560de1983360301811261507657600080fd5b6000808335601e1984360301811261561e57600080fd5b83016020810192503590506001600160401b0381111561563d57600080fd5b8060051b36038313156140af57600080fd5b600082198211156156625761566261575a565b500190565b60008261568457634e487b7160e01b600052601260045260246000fd5b500490565b60008160001904831182151516156156a3576156a361575a565b500290565b60006001600160f81b03838116908316818110156156c8576156c861575a565b039392505050565b6000828210156156e2576156e261575a565b500390565b60005b838110156157025781810151838201526020016156ea565b838111156108735750506000910152565b601f8201601f191681016001600160401b03811182821017156157385761573861579c565b6040525050565b60006000198214156157535761575361575a565b5060010190565b634e487b7160e01b600052601160045260246000fd5b634e487b7160e01b600052602160045260246000fd5b634e487b7160e01b600052603260045260246000fd5b634e487b7160e01b600052604160045260246000fd5b600060033d11156157cb5760046000803e5060005160e01c5b90565b600060443d10156157dc5790565b6040516003193d81016004833e81513d6001600160401b03816024840111818411171561580b57505050505090565b82850191508151818111156158235750505050505090565b843d870101602082850101111561583d5750505050505090565b61584c60208286010187615713565b509095945050505050565b6001600160a01b038116811461060757600080fdfe814bff3139cf413df8a20ec16dddf043f183d329edac6a29a6dd46e9f146cf4657bc7d7c077f82e609e47fb99bb6a65dce92a2148dbc469851fe02b0a1538761766aece2fe0909e4a1f0fe06a20b32886c389ee499ca4246e7e1b80b53562a84416464726573733a206c6f772d6c6576656c2064656c65676174652063616c6c206661696c6564a2646970667358221220f53a43cd3348d35c682953f62122ac4754fae27c32531380b8933396ff01854f64736f6c63430008070033",
  "linkReferences": {},
  "deployedLinkReferences": {}
}