{
  "_format": "hh-sol-artifact-1",
  "contractName": "Orderer",
  "sourceName": "contracts/Orderer.sol",
  "abi": [
    {
      "anonymous": false,
      "inputs": [
        {
          "indexed": false,
          "internalType": "address",
          "name": "previousAdmin",
          "type": "address"
        },
        {
          "indexed": false,
          "internalType": "address",
          "name": "newAdmin",
          "type": "address"
        }
      ],
      "name": "AdminChanged",
      "type": "event"
    },
    {
      "anonymous": false,
      "inputs": [
        {
          "indexed": true,
          "internalType": "address",
          "name": "beacon",
          "type": "address"
        }
      ],
      "name": "BeaconUpgraded",
      "type": "event"
    },
    {
      "anonymous": false,
      "inputs": [
        {
          "indexed": false,
          "internalType": "uint256",
          "name": "id",
          "type": "uint256"
        },
        {
          "indexed": false,
          "internalType": "address",
          "name": "sellAsset",
          "type": "address"
        },
        {
          "indexed": false,
          "internalType": "uint256",
          "name": "soldShares",
          "type": "uint256"
        },
        {
          "indexed": false,
          "internalType": "address",
          "name": "buyAsset",
          "type": "address"
        },
        {
          "indexed": false,
          "internalType": "uint256",
          "name": "boughtShares",
          "type": "uint256"
        }
      ],
      "name": "CompleteOrder",
      "type": "event"
    },
    {
      "anonymous": false,
      "inputs": [
        {
          "indexed": false,
          "internalType": "address",
          "name": "creator",
          "type": "address"
        },
        {
          "indexed": false,
          "internalType": "uint256",
          "name": "id",
          "type": "uint256"
        }
      ],
      "name": "PlaceOrder",
      "type": "event"
    },
    {
      "anonymous": false,
      "inputs": [
        {
          "indexed": false,
          "internalType": "uint256",
          "name": "index",
          "type": "uint256"
        },
        {
          "indexed": false,
          "internalType": "string",
          "name": "reason",
          "type": "string"
        }
      ],
      "name": "SwapFailed",
      "type": "event"
    },
    {
      "anonymous": false,
      "inputs": [
        {
          "indexed": false,
          "internalType": "uint256",
          "name": "id",
          "type": "uint256"
        },
        {
          "indexed": false,
          "internalType": "address",
          "name": "asset",
          "type": "address"
        },
        {
          "indexed": false,
          "internalType": "uint256",
          "name": "share",
          "type": "uint256"
        },
        {
          "indexed": false,
          "internalType": "bool",
          "name": "isSellSide",
          "type": "bool"
        }
      ],
      "name": "UpdateOrder",
      "type": "event"
    },
    {
      "anonymous": false,
      "inputs": [
        {
          "indexed": true,
          "internalType": "address",
          "name": "implementation",
          "type": "address"
        }
      ],
      "name": "Upgraded",
      "type": "event"
    },
    {
      "inputs": [
        {
          "components": [
            {
              "internalType": "address",
              "name": "router",
              "type": "address"
            },
            {
              "internalType": "address",
              "name": "factory",
              "type": "address"
            },
            {
              "internalType": "address",
              "name": "sellAccount",
              "type": "address"
            },
            {
              "internalType": "uint256",
              "name": "maxSellShares",
              "type": "uint256"
            },
            {
              "internalType": "address",
              "name": "buyAccount",
              "type": "address"
            },
            {
              "internalType": "address[]",
              "name": "buyPath",
              "type": "address[]"
            }
          ],
          "internalType": "struct IOrderer.IndexSwap",
          "name": "_info",
          "type": "tuple"
        },
        {
          "internalType": "contract IPriceOracle",
          "name": "_priceOracle",
          "type": "address"
        }
      ],
      "name": "_indexSwap",
      "outputs": [],
      "stateMutability": "nonpayable",
      "type": "function"
    },
    {
      "inputs": [
        {
          "components": [
            {
              "internalType": "address",
              "name": "router",
              "type": "address"
            },
            {
              "internalType": "address",
              "name": "factory",
              "type": "address"
            },
            {
              "internalType": "address",
              "name": "vTokenFactory",
              "type": "address"
            },
            {
              "internalType": "bytes32",
              "name": "vTokenType",
              "type": "bytes32"
            },
            {
              "internalType": "uint256",
              "name": "sellAmount",
              "type": "uint256"
            },
            {
              "internalType": "uint256",
              "name": "expectedBuyAmount",
              "type": "uint256"
            },
            {
              "internalType": "address[]",
              "name": "path",
              "type": "address[]"
            }
          ],
          "internalType": "struct IOrderer.VaultSwap",
          "name": "_info",
          "type": "tuple"
        }
      ],
      "name": "_vaultSwap",
      "outputs": [],
      "stateMutability": "nonpayable",
      "type": "function"
    },
    {
      "inputs": [
        {
          "internalType": "uint256",
          "name": "_orderId",
          "type": "uint256"
        },
        {
          "internalType": "address",
          "name": "_asset",
          "type": "address"
        },
        {
          "internalType": "uint256",
          "name": "_shares",
          "type": "uint256"
        },
        {
          "internalType": "enum IOrderer.OrderSide",
          "name": "_side",
          "type": "uint8"
        }
      ],
      "name": "addOrderDetails",
      "outputs": [],
      "stateMutability": "nonpayable",
      "type": "function"
    },
    {
      "inputs": [],
      "name": "changeAccount",
      "outputs": [
        {
          "internalType": "address",
          "name": "",
          "type": "address"
        }
      ],
      "stateMutability": "view",
      "type": "function"
    },
    {
      "inputs": [
        {
          "components": [
            {
              "internalType": "address",
              "name": "router",
              "type": "address"
            },
            {
              "internalType": "address",
              "name": "factory",
              "type": "address"
            },
            {
              "internalType": "address",
              "name": "sellAccount",
              "type": "address"
            },
            {
              "internalType": "uint256",
              "name": "maxSellShares",
              "type": "uint256"
            },
            {
              "internalType": "address",
              "name": "buyAccount",
              "type": "address"
            },
            {
              "internalType": "address[]",
              "name": "buyPath",
              "type": "address[]"
            }
          ],
          "internalType": "struct IOrderer.IndexSwap[]",
          "name": "_params",
          "type": "tuple[]"
        }
      ],
      "name": "indexSwap",
      "outputs": [],
      "stateMutability": "nonpayable",
      "type": "function"
    },
    {
      "inputs": [
        {
          "internalType": "address",
          "name": "_registry",
          "type": "address"
        },
        {
          "internalType": "address",
          "name": "_changeAccount",
          "type": "address"
        },
        {
          "internalType": "uint64",
          "name": "_orderLifetime",
          "type": "uint64"
        },
        {
          "internalType": "uint16",
          "name": "_maxAllowedSlippageInBP",
          "type": "uint16"
        }
      ],
      "name": "initialize",
      "outputs": [],
      "stateMutability": "nonpayable",
      "type": "function"
    },
    {
      "inputs": [
        {
          "internalType": "address",
          "name": "",
          "type": "address"
        }
      ],
      "name": "lastOrderIdOf",
      "outputs": [
        {
          "internalType": "uint256",
          "name": "",
          "type": "uint256"
        }
      ],
      "stateMutability": "view",
      "type": "function"
    },
    {
      "inputs": [],
      "name": "maxAllowedSlippageInBP",
      "outputs": [
        {
          "internalType": "uint16",
          "name": "",
          "type": "uint16"
        }
      ],
      "stateMutability": "view",
      "type": "function"
    },
    {
      "inputs": [],
      "name": "orderLifetime",
      "outputs": [
        {
          "internalType": "uint64",
          "name": "",
          "type": "uint64"
        }
      ],
      "stateMutability": "view",
      "type": "function"
    },
    {
      "inputs": [
        {
          "internalType": "address",
          "name": "_account",
          "type": "address"
        }
      ],
      "name": "orderOf",
      "outputs": [
        {
          "components": [
            {
              "internalType": "uint256",
              "name": "creationTimestamp",
              "type": "uint256"
            },
            {
              "components": [
                {
                  "internalType": "address",
                  "name": "asset",
                  "type": "address"
                },
                {
                  "internalType": "enum IOrderer.OrderSide",
                  "name": "side",
                  "type": "uint8"
                },
                {
                  "internalType": "uint256",
                  "name": "shares",
                  "type": "uint256"
                }
              ],
              "internalType": "struct IOrderer.OrderAsset[]",
              "name": "assets",
              "type": "tuple[]"
            }
          ],
          "internalType": "struct IOrderer.Order",
          "name": "order",
          "type": "tuple"
        }
      ],
      "stateMutability": "view",
      "type": "function"
    },
    {
      "inputs": [],
      "name": "placeOrder",
      "outputs": [
        {
          "internalType": "uint256",
          "name": "_orderId",
          "type": "uint256"
        }
      ],
      "stateMutability": "nonpayable",
      "type": "function"
    },
    {
      "inputs": [
        {
          "internalType": "address",
          "name": "_asset",
          "type": "address"
        },
        {
          "internalType": "uint256",
          "name": "_newTotalSupply",
          "type": "uint256"
        },
        {
          "internalType": "uint256",
          "name": "_oldTotalSupply",
          "type": "uint256"
        }
      ],
      "name": "reduceOrderAsset",
      "outputs": [],
      "stateMutability": "nonpayable",
      "type": "function"
    },
    {
      "inputs": [
        {
          "internalType": "address",
          "name": "_changeAccount",
          "type": "address"
        }
      ],
      "name": "setChangeAccount",
      "outputs": [],
      "stateMutability": "nonpayable",
      "type": "function"
    },
    {
      "inputs": [
        {
          "internalType": "uint16",
          "name": "_maxAllowedSlippageInBP",
          "type": "uint16"
        }
      ],
      "name": "setMaxAllowedSlippageInBP",
      "outputs": [],
      "stateMutability": "nonpayable",
      "type": "function"
    },
    {
      "inputs": [
        {
          "internalType": "uint64",
          "name": "_orderLifetime",
          "type": "uint64"
        }
      ],
      "name": "setOrderLifetime",
      "outputs": [],
      "stateMutability": "nonpayable",
      "type": "function"
    },
    {
      "inputs": [
        {
          "internalType": "address",
          "name": "newImplementation",
          "type": "address"
        }
      ],
      "name": "upgradeTo",
      "outputs": [],
      "stateMutability": "nonpayable",
      "type": "function"
    },
    {
      "inputs": [
        {
          "internalType": "address",
          "name": "newImplementation",
          "type": "address"
        },
        {
          "internalType": "bytes",
          "name": "data",
          "type": "bytes"
        }
      ],
      "name": "upgradeToAndCall",
      "outputs": [],
      "stateMutability": "payable",
      "type": "function"
    },
    {
      "inputs": [
        {
          "components": [
            {
              "internalType": "address",
              "name": "router",
              "type": "address"
            },
            {
              "internalType": "address",
              "name": "factory",
              "type": "address"
            },
            {
              "internalType": "address",
              "name": "vTokenFactory",
              "type": "address"
            },
            {
              "internalType": "bytes32",
              "name": "vTokenType",
              "type": "bytes32"
            },
            {
              "internalType": "uint256",
              "name": "sellAmount",
              "type": "uint256"
            },
            {
              "internalType": "uint256",
              "name": "expectedBuyAmount",
              "type": "uint256"
            },
            {
              "internalType": "address[]",
              "name": "path",
              "type": "address[]"
            }
          ],
          "internalType": "struct IOrderer.VaultSwap[]",
          "name": "_params",
          "type": "tuple[]"
        }
      ],
      "name": "vaultSwap",
      "outputs": [],
      "stateMutability": "nonpayable",
      "type": "function"
    }
  ],
  "bytecode": "0x60a06040523060601b60805234801561001757600080fd5b5060805160601c6155d46200004c6000396000818161048f015281816104cf01528181610558015261059801526155d46000f3fe6080604052600436106100e85760003560e01c80637d369009116100855780637d369009146102445780639305dbfb1461026457806398edd87c146102a3578063ab29ce9c146102c3578063cabfb7e3146102e3578063d222d01f14610303578063dffbfa0414610323578063e3facc0c14610343578063f5c609e01461037057600080fd5b8062a2e792146100ed57806303855c631461012d5780633659cfe61461014f5780633b5bb7571461016f5780634f1ef286146101a45780635a7f2851146101b75780635d035243146101d75780636338417c146101f75780637ceb065814610217575b600080fd5b3480156100f957600080fd5b5061011a61010836600461491a565b60666020526000908152604090205481565b6040519081526020015b60405180910390f35b34801561013957600080fd5b5061014d610148366004614c9f565b610385565b005b34801561015b57600080fd5b5061014d61016a36600461491a565b610484565b34801561017b57600080fd5b5060655461019190600160a01b900461ffff1681565b60405161ffff9091168152602001610124565b61014d6101b23660046149ac565b61054d565b3480156101c357600080fd5b5061014d6101d2366004614a8c565b610607565b3480156101e357600080fd5b5061014d6101f2366004614a8c565b6107ce565b34801561020357600080fd5b5061014d610212366004614bac565b610a07565b34801561022357600080fd5b50606554610237906001600160a01b031681565b6040516101249190614d4b565b34801561025057600080fd5b5061014d61025f366004614c36565b61124f565b34801561027057600080fd5b5060655461028b90600160b01b90046001600160401b031681565b6040516001600160401b039091168152602001610124565b3480156102af57600080fd5b5061014d6102be366004614c51565b611347565b3480156102cf57600080fd5b5061014d6102de366004614b56565b611643565b3480156102ef57600080fd5b5061014d6102fe366004614a57565b611c3f565b34801561030f57600080fd5b5061014d61031e36600461491a565b611e14565b34801561032f57600080fd5b5061014d61033e366004614954565b611efc565b34801561034f57600080fd5b5061036361035e36600461491a565b612019565b60405161012491906150ae565b34801561037c57600080fd5b5061011a6121b5565b606854604051632474521560e21b81526000916001600160a01b0316906391d14854906103b89084903390600401614da4565b60206040518083038186803b1580156103d057600080fd5b505afa1580156103e4573d6000803e3d6000fd5b505050506040513d601f19601f820116820180604052508101906104089190614acd565b61042d5760405162461bcd60e51b815260040161042490614e65565b60405180910390fd5b6000826001600160401b0316116104565760405162461bcd60e51b815260040161042490614f7a565b50606580546001600160401b03909216600160b01b0267ffffffffffffffff60b01b19909216919091179055565b306001600160a01b037f00000000000000000000000000000000000000000000000000000000000000001614156104cd5760405162461bcd60e51b815260040161042490614ebb565b7f00000000000000000000000000000000000000000000000000000000000000006001600160a01b03166104ff612316565b6001600160a01b0316146105255760405162461bcd60e51b815260040161042490614f2e565b61052e81612344565b6040805160008082526020820190925261054a918391906123e3565b50565b306001600160a01b037f00000000000000000000000000000000000000000000000000000000000000001614156105965760405162461bcd60e51b815260040161042490614ebb565b7f00000000000000000000000000000000000000000000000000000000000000006001600160a01b03166105c8612316565b6001600160a01b0316146105ee5760405162461bcd60e51b815260040161042490614f2e565b6105f782612344565b610603828260016123e3565b5050565b606854604051632474521560e21b81527f21702c8af46127c7fa207f89d0b0a8441bb32959a0ac7df790e9ab1a25c98926916001600160a01b0316906391d14854906106599084903390600401614da4565b60206040518083038186803b15801561067157600080fd5b505afa158015610685573d6000803e3d6000fd5b505050506040513d601f19601f820116820180604052508101906106a99190614acd565b6106c55760405162461bcd60e51b815260040161042490614e65565b60005b828110156107c85730636338417c8585848181106106e8576106e8615451565b90506020028101906106fa91906152bc565b6040518263ffffffff1660e01b81526004016107169190615143565b600060405180830381600087803b15801561073057600080fd5b505af1925050508015610741575060015b6107b85761074d61547d565b806308c379a014156107ac5750610762615499565b8061076d57506107ae565b7f44e8af768db39f9828656fae48b5f4b388d4d4f4898ba8cbaea9065491bfd215828260405161079e92919061520d565b60405180910390a1506107b8565b505b3d6000803e3d6000fd5b6107c18161540a565b90506106c8565b50505050565b606854604051632474521560e21b81527f21702c8af46127c7fa207f89d0b0a8441bb32959a0ac7df790e9ab1a25c98926916001600160a01b0316906391d14854906108209084903390600401614da4565b60206040518083038186803b15801561083857600080fd5b505afa15801561084c573d6000803e3d6000fd5b505050506040513d601f19601f820116820180604052508101906108709190614acd565b61088c5760405162461bcd60e51b815260040161042490614e65565b60685460408051632630c12f60e01b815290516000926001600160a01b031691632630c12f916004808301926020929190829003018186803b1580156108d157600080fd5b505afa1580156108e5573d6000803e3d6000fd5b505050506040513d601f19601f820116820180604052508101906109099190614937565b905060005b83811015610a00573063ab29ce9c86868481811061092e5761092e615451565b905060200281019061094091906152a6565b846040518363ffffffff1660e01b815260040161095e929190615004565b600060405180830381600087803b15801561097857600080fd5b505af1925050508015610989575060015b6109f05761099561547d565b806308c379a014156107ac57506109aa615499565b806109b557506107ae565b7f44e8af768db39f9828656fae48b5f4b388d4d4f4898ba8cbaea9065491bfd21582826040516109e692919061520d565b60405180910390a1505b6109f98161540a565b905061090e565b5050505050565b333014610a265760405162461bcd60e51b815260040161042490614e65565b6068546001600160a01b03166391d148547fe2ebdf3ab38a7622217c5fbf1675855c7e2a7c5bbe41f6e266053d8b1fb9252f610a65602085018561491a565b6040518363ffffffff1660e01b8152600401610a82929190614da4565b60206040518083038186803b158015610a9a57600080fd5b505afa158015610aae573d6000803e3d6000fd5b505050506040513d601f19601f82011682018060405250810190610ad29190614acd565b610aee5760405162461bcd60e51b815260040161042490614f7a565b6068546001600160a01b03166391d148547f5f5d51acd29fcae9301a558a0debb6d96317afd82dff56b59f7feb33c5f6fb2a610b30604085016020860161491a565b6040518363ffffffff1660e01b8152600401610b4d929190614da4565b60206040518083038186803b158015610b6557600080fd5b505afa158015610b79573d6000803e3d6000fd5b505050506040513d601f19601f82011682018060405250810190610b9d9190614acd565b610bb95760405162461bcd60e51b815260040161042490614f7a565b6002610bc860c083018361525d565b90501015610be85760405162461bcd60e51b815260040161042490614fdb565b6000610bf760c083018361525d565b6000818110610c0857610c08615451565b9050602002016020810190610c1d919061491a565b90506000610c2e60c084018461525d565b6001610c3d60c087018761525d565b610c4892915061539b565b818110610c5757610c57615451565b9050602002016020810190610c6c919061491a565b90506000610c97610c80602086018661491a565b6080860135610c9260c088018861525d565b612523565b606554909150600090600160a01b900461ffff16612710610cb88285612606565b610cc29190615354565b610ccc9190615332565b9050600081610ce16127106080890135615354565b610ceb9190615332565b90506000610d47610d026040890160208a0161491a565b83610d1060c08b018b61525d565b8080602002602001604051908101604052809392919081815260200183836020028082843760009201919091525061261f92505050565b90506000610d5b6060890160408a0161491a565b6001600160a01b031663af86dd46888a606001356040518363ffffffff1660e01b8152600401610d8c929190614d8b565b602060405180830381600087803b158015610da657600080fd5b505af1158015610dba573d6000803e3d6000fd5b505050506040513d601f19601f82011682018060405250810190610dde9190614937565b90506000610df260608a0160408b0161491a565b6001600160a01b031663af86dd46888b606001356040518363ffffffff1660e01b8152600401610e23929190614d8b565b602060405180830381600087803b158015610e3d57600080fd5b505af1158015610e51573d6000803e3d6000fd5b505050506040513d601f19601f82011682018060405250810190610e759190614937565b90506001600160a01b038216635c921eb9610f04610e9960408d0160208e0161491a565b610ea660c08e018e61525d565b6000818110610eb757610eb7615451565b9050602002016020810190610ecc919061491a565b610ed960c08f018f61525d565b6001818110610eea57610eea615451565b9050602002016020810190610eff919061491a565b612779565b85600081518110610f1757610f17615451565b60200260200101516040518363ffffffff1660e01b8152600401610f3c929190614d8b565b600060405180830381600087803b158015610f5657600080fd5b505af1158015610f6a573d6000803e3d6000fd5b50505050816001600160a01b031663fff6cae96040518163ffffffff1660e01b8152600401600060405180830381600087803b158015610fa957600080fd5b505af1158015610fbd573d6000803e3d6000fd5b505050508260018451610fd0919061539b565b81518110610fe057610fe0615451565b60200260200101518960a00135106110515761104c61100560408b0160208c0161491a565b8461101360c08d018d61525d565b80806020026020016040519081016040528093929190818152602001838360200280828437600092019190915250879250612806915050565b6111f1565b6110ab61106460408b0160208c0161491a565b8461107260c08d018d61525d565b80806020026020016040519081016040528093929190818152602001838360200280828437600092019190915250309250612806915050565b60405163a9059cbb60e01b81526001600160a01b0388169063a9059cbb906110dd90849060a08e013590600401614d8b565b602060405180830381600087803b1580156110f757600080fd5b505af115801561110b573d6000803e3d6000fd5b505050506040513d601f19601f8201168201806040525081019061112f9190614acd565b5060655483516001600160a01b03808a169263a9059cbb9291169060a08d013590879061115e9060019061539b565b8151811061116e5761116e615451565b6020026020010151611180919061539b565b6040518363ffffffff1660e01b815260040161119d929190614d8b565b602060405180830381600087803b1580156111b757600080fd5b505af11580156111cb573d6000803e3d6000fd5b505050506040513d601f19601f820116820180604052508101906111ef9190614acd565b505b806001600160a01b031663fff6cae96040518163ffffffff1660e01b8152600401600060405180830381600087803b15801561122c57600080fd5b505af1158015611240573d6000803e3d6000fd5b50505050505050505050505050565b606854604051632474521560e21b81526000916001600160a01b0316906391d14854906112829084903390600401614da4565b60206040518083038186803b15801561129a57600080fd5b505afa1580156112ae573d6000803e3d6000fd5b505050506040513d601f19601f820116820180604052508101906112d29190614acd565b6112ee5760405162461bcd60e51b815260040161042490614e65565b60008261ffff16118015611308575061271061ffff831611155b6113245760405162461bcd60e51b815260040161042490614f7a565b506065805461ffff909216600160a01b0261ffff60a01b19909216919091179055565b606854604051632474521560e21b8152600080516020615558833981519152916001600160a01b0316906391d14854906113879084903390600401614da4565b60206040518083038186803b15801561139f57600080fd5b505afa1580156113b3573d6000803e3d6000fd5b505050506040513d601f19601f820116820180604052508101906113d79190614acd565b6113f35760405162461bcd60e51b815260040161042490614e65565b600060676000878152602001908152602001600020905061143d60405180604001604052806011815260200170155c19185d1953dc99195c88185cdcd95d607a1b815250866129c8565b6001600160a01b038516158015906114555750600084115b1561163b5760028101805460018082018355600092835260209092200180546001600160a01b0319166001600160a01b0388161790556040805180820190915290819085908111156114a9576114a961543b565b81526020016114b786612a0d565b6001600160f81b031690526001600160a01b0386166000908152600383016020526040902081518154829060ff1916600183818111156114f9576114f961543b565b021790555060209182015181546001600160f81b039091166101000260ff909116179055604080518082019091526014815273155c19185d1953dc99195c8817dbdc99195c925960621b918101919091526115549087612a5e565b611588604051806040016040528060128152602001715570646174654f726465722073686172657360701b81525085612a5e565b6040805180820190915260168152755570646174654f7264657220697353656c6c5369646560501b60208201526115d39060008560018111156115cd576115cd61543b565b14612aa3565b7f35696798b55a4139af6c7025dfad7caa24c2ffbd8e14e82669e63212daa8673e868686600087600181111561160b5761160b61543b565b604080519586526001600160a01b0390941660208601529284019190915214606082015260800160405180910390a15b505050505050565b3330146116625760405162461bcd60e51b815260040161042490614e65565b600261167160a084018461525d565b905010156116915760405162461bcd60e51b815260040161042490614fdb565b6068546001600160a01b03166391d148546000805160206155588339815191526116c1606086016040870161491a565b6040518363ffffffff1660e01b81526004016116de929190614da4565b60206040518083038186803b1580156116f657600080fd5b505afa15801561170a573d6000803e3d6000fd5b505050506040513d601f19601f8201168201806040525081019061172e9190614acd565b61174a5760405162461bcd60e51b815260040161042490614f7a565b60008061175a60a085018561525d565b600081811061176b5761176b615451565b9050602002016020810190611780919061491a565b61178d60a086018661525d565b600161179c60a089018961525d565b6117a792915061539b565b8181106117b6576117b6615451565b90506020020160208101906117cb919061491a565b90925090506001600160a01b038216158015906117f057506001600160a01b03811615155b8015611800575060008460600135115b61181c5760405162461bcd60e51b815260040161042490614f07565b806001600160a01b0316826001600160a01b0316141561184e5760405162461bcd60e51b815260040161042490614f7a565b6000611860606086016040870161491a565b6001600160a01b031663dc18ed266040518163ffffffff1660e01b815260040160206040518083038186803b15801561189857600080fd5b505afa1580156118ac573d6000803e3d6000fd5b505050506040513d601f19601f820116820180604052508101906118d09190614aef565b905060006118e4606087016040880161491a565b6001600160a01b03166328dd99126040518163ffffffff1660e01b815260040160206040518083038186803b15801561191c57600080fd5b505afa158015611930573d6000803e3d6000fd5b505050506040513d601f19601f820116820180604052508101906119549190614937565b905060006040518060a00160405280866001600160a01b03168152602001856001600160a01b03168152602001836001600160a01b031663af86dd4688876040518363ffffffff1660e01b81526004016119af929190614d8b565b602060405180830381600087803b1580156119c957600080fd5b505af11580156119dd573d6000803e3d6000fd5b505050506040513d601f19601f82011682018060405250810190611a019190614937565b6001600160a01b03168152602001836001600160a01b031663af86dd4687876040518363ffffffff1660e01b8152600401611a3d929190614d8b565b602060405180830381600087803b158015611a5757600080fd5b505af1158015611a6b573d6000803e3d6000fd5b505050506040513d601f19601f82011682018060405250810190611a8f9190614937565b6001600160a01b039081168252881660209091015290506000611ab860a0890160808a0161491a565b6001600160a01b031614611c2c576068546001600160a01b03166391d14854600080516020615558833981519152611af660a08b0160808c0161491a565b6040518363ffffffff1660e01b8152600401611b13929190614da4565b60206040518083038186803b158015611b2b57600080fd5b505afa158015611b3f573d6000803e3d6000fd5b505050506040513d601f19601f82011682018060405250810190611b639190614acd565b611b7f5760405162461bcd60e51b815260040161042490614f7a565b611b8f60a088016080890161491a565b6001600160a01b031663dc18ed266040518163ffffffff1660e01b815260040160206040518083038186803b158015611bc757600080fd5b505afa158015611bdb573d6000803e3d6000fd5b505050506040513d601f19601f82011682018060405250810190611bff9190614aef565b8314611c1d5760405162461bcd60e51b815260040161042490614f7a565b611c278782612ae8565b611c36565b611c368782612f89565b50505050505050565b606854604051632474521560e21b8152600080516020615558833981519152916001600160a01b0316906391d1485490611c7f9084903390600401614da4565b60206040518083038186803b158015611c9757600080fd5b505afa158015611cab573d6000803e3d6000fd5b505050506040513d601f19601f82011682018060405250810190611ccf9190614acd565b611ceb5760405162461bcd60e51b815260040161042490614e65565b336000908152606660205260409020548015610a005760008181526067602090815260408083206001600160a01b0389168452600381019092529091205461010090046001600160f81b03168015611c36576000611d5c86611d4d8985615354565b611d579190615332565b612a0d565b6001600160a01b03891660009081526003850160205260408120805460ff9081166101006001600160f81b038616028181179093559394507f35696798b55a4139af6c7025dfad7caa24c2ffbd8e14e82669e63212daa8673e9388938d93879391929116176001811115611dd257611dd261543b565b604080519586526001600160a01b039490941660208601526001600160f81b039290921684840152146060830152519081900360800190a15050505050505050565b606854604051632474521560e21b81526000916001600160a01b0316906391d1485490611e479084903390600401614da4565b60206040518083038186803b158015611e5f57600080fd5b505afa158015611e73573d6000803e3d6000fd5b505050506040513d601f19601f82011682018060405250810190611e979190614acd565b611eb35760405162461bcd60e51b815260040161042490614e65565b6001600160a01b038216611ed95760405162461bcd60e51b815260040161042490614f07565b50606580546001600160a01b0319166001600160a01b0392909216919091179055565b600054610100900460ff1680611f15575060005460ff16155b611f785760405162461bcd60e51b815260206004820152602e60248201527f496e697469616c697a61626c653a20636f6e747261637420697320616c72656160448201526d191e481a5b9a5d1a585b1a5e995960921b6064820152608401610424565b600054610100900460ff16158015611f9a576000805461ffff19166101011790555b606880546001600160a01b0319166001600160a01b038781169190911790915560658054918616600169ffffffffffffffff000160a01b031990921691909117600160b01b6001600160401b038616021761ffff60a01b1916600160a01b61ffff8516021790558015610a00576000805461ff00191690555050505050565b6040805180820190915260008152606060208201526001600160a01b0382166000908152606660209081526040808320548084526067835292819020815180830190925280548252600281015490928201906001600160401b0381111561208257612082615467565b6040519080825280602002602001820160405280156120cd57816020015b60408051606081018252600080825260208083018290529282015282526000199092019101816120a05790505b509052925060005b60028201548110156121ad5760008260020182815481106120f8576120f8615451565b6000918252602080832090910154604080516060810182526001600160a01b03909216808352808552600388018452932054929350919082019060ff1660018111156121465761214661543b565b81526001600160a01b038316600090815260038601602090815260409091205461010090046001600160f81b03169181019190915286015180518490811061219057612190615451565b602002602001018190525050806121a69061540a565b90506120d5565b505050919050565b606854604051632474521560e21b8152600091600080516020615558833981519152916001600160a01b03909116906391d14854906121fa9084903390600401614da4565b60206040518083038186803b15801561221257600080fd5b505afa158015612226573d6000803e3d6000fd5b505050506040513d601f19601f8201168201806040525081019061224a9190614acd565b6122665760405162461bcd60e51b815260040161042490614e65565b336000908152606660209081526040808320548352606790915281208181556001810180546001600160a01b0319169055906122a56002830182614863565b505060698054600101908190556000818152606760209081526040808320428155338085526066909352928190208490555192945090917f05ca70c8e6534d97f431c4c47fb16e607df92096fa770fb519a1c82b007486ee91612309918690614d8b565b60405180910390a1505090565b7f360894a13ba1a3210667c828492db98dca3e2076cc3735a920a3ca505d382bbc546001600160a01b031690565b606854604051632474521560e21b81526000916001600160a01b0316906391d14854906123779084903390600401614da4565b60206040518083038186803b15801561238f57600080fd5b505afa1580156123a3573d6000803e3d6000fd5b505050506040513d601f19601f820116820180604052508101906123c79190614acd565b6106035760405162461bcd60e51b815260040161042490614e65565b60006123ed612316565b90506123f8846136e9565b6000835111806124055750815b1561241657612414848461378e565b505b7f4910fdfa16fed3260ed0e7147f7cc6da11a60208b5b9406d12a635614ffd9143805460ff16610a0057805460ff19166001178155604051612491908690612462908590602401614d4b565b60408051601f198184030181529190526020810180516001600160e01b0316631b2ce7f360e11b17905261378e565b50805460ff191681556124a2612316565b6001600160a01b0316826001600160a01b03161461251a5760405162461bcd60e51b815260206004820152602f60248201527f45524331393637557067726164653a207570677261646520627265616b73206660448201526e75727468657220757067726164657360881b6064820152608401610424565b610a0085613879565b600080856001600160a01b031663c45a01556040518163ffffffff1660e01b815260040160206040518083038186803b15801561255f57600080fd5b505afa158015612573573d6000803e3d6000fd5b505050506040513d601f19601f820116820180604052508101906125979190614937565b905060006125a7828787876138b9565b6125b260018661539b565b815181106125c2576125c2615451565b602002602001015190508060200151816000015182602001516125e5919061539b565b6125f190612710615354565b6125fb9190615332565b979650505050505050565b6000818310156126165781612618565b825b9392505050565b60606002825110156126435760405162461bcd60e51b815260040161042490614fa4565b81516001600160401b0381111561265c5761265c615467565b604051908082528060200260200182016040528015612685578160200160208202803683370190505b509050828160008151811061269c5761269c615451565b60200260200101818152505060005b600183516126b9919061539b565b8110156127715760008061270c878685815181106126d9576126d9615451565b6020026020010151878660016126ef919061531a565b815181106126ff576126ff615451565b6020026020010151613ac5565b9150915061273484848151811061272557612725615451565b60200260200101518383613b9e565b8461274085600161531a565b8151811061275057612750615451565b602002602001018181525050505080806127699061540a565b9150506126ab565b509392505050565b60405163e6a4390560e01b81526001600160a01b03838116600483015282811660248301526000919085169063e6a439059060440160206040518083038186803b1580156127c657600080fd5b505afa1580156127da573d6000803e3d6000fd5b505050506040513d601f19601f820116820180604052508101906127fe9190614937565b949350505050565b60005b60018351612817919061539b565b811015610a005760008084838151811061283357612833615451565b602002602001015185846001612849919061531a565b8151811061285957612859615451565b60200260200101519150915060006128718383613cb3565b50905060008761288286600161531a565b8151811061289257612892615451565b60200260200101519050600080836001600160a01b0316866001600160a01b0316146128c0578260006128c4565b6000835b91509150600060028a516128d8919061539b565b88106128e45788612912565b6129128c878c6128f58c600261531a565b8151811061290557612905615451565b6020026020010151612779565b905061291f8c8888612779565b6001600160a01b031663022c0d9f84848460006040519080825280601f01601f19166020018201604052801561295c576020820181803683370190505b506040518563ffffffff1660e01b815260040161297c9493929190615226565b600060405180830381600087803b15801561299657600080fd5b505af11580156129aa573d6000803e3d6000fd5b505050505050505050505080806129c09061540a565b915050612809565b61060382826040516024016129de929190614dce565b60408051601f198184030181529190526020810180516001600160e01b031663319af33360e01b179052613dab565b60006001600160f81b03821115612a5a5760405162461bcd60e51b81526020600482015260116024820152704f7264657265723a204f564552464c4f5760781b6044820152606401610424565b5090565b6106038282604051602401612a74929190614e1c565b60408051601f198184030181529190526020810180516001600160e01b03166309710a9d60e41b179052613dab565b6106038282604051602401612ab9929190614df8565b60408051601f198184030181529190526020810180516001600160e01b031663c3b5563560e01b179052613dab565b612af560a083018361525d565b9050600214612b165760405162461bcd60e51b815260040161042490614fdb565b612b26606083016040840161491a565b6001600160a01b0316612b3f60a084016080850161491a565b6001600160a01b03161415612b665760405162461bcd60e51b815260040161042490614f7a565b6000606681612b7b606086016040870161491a565b6001600160a01b0316815260208101919091526040016000908120549150606681612bac60a087016080880161491a565b6001600160a01b03168152602080820192909252604090810160009081205485825260679093528181208382529190206065548254939450919290914291612c0491600160b01b90046001600160401b03169061531a565b11612c215760405162461bcd60e51b815260040161042490614e91565b60655481544291612c4391600160b01b9091046001600160401b03169061531a565b11612c605760405162461bcd60e51b815260040161042490614e91565b600080612c6f88888686613dcc565b91509150600082118015612c835750600081115b15612f7f576000612c9383612a0d565b90506000612ca083612a0d565b905088604001516001600160a01b03166323b872dd8b6040016020810190612cc8919061491a565b612cd860a08e0160808f0161491a565b856040518463ffffffff1660e01b8152600401612cf793929190614d5f565b600060405180830381600087803b158015612d1157600080fd5b505af1158015612d25573d6000803e3d6000fd5b5050505060608901516001600160a01b03166323b872dd612d4c60a08d0160808e0161491a565b612d5c60608e0160408f0161491a565b846040518463ffffffff1660e01b8152600401612d7b93929190614d5f565b600060405180830381600087803b158015612d9557600080fd5b505af1158015612da9573d6000803e3d6000fd5b50508a516001600160a01b0316600090815260038901602052604090208054859350909150600190612dea90849061010090046001600160f81b0316615373565b82546001600160f81b0391821661010093840a90810290830219909116179092556020808d01516001600160a01b0316600090815260038b019091526040902080548594509092600192612e4392869291900416615373565b82546001600160f81b0391821661010093840a90810290830219909116179092558b516001600160a01b03166000908152600389016020526040902080548594509092600192612e9892869291900416615373565b82546001600160f81b0391821661010093840a90810290830219909116179092556020808d01516001600160a01b0316600090815260038a019091526040902080548694509092600192612ef192869291900416615373565b92506101000a8154816001600160f81b0302191690836001600160f81b03160217905550600080516020615538833981519152888a60000151848c6020015185604051612f429594939291906151d7565b60405180910390a16020890151895160405160008051602061553883398151915292612f74928b9286919088906151d7565b60405180910390a150505b5050505050505050565b6002612f9860a084018461525d565b90501015612fb85760405162461bcd60e51b815260040161042490614fdb565b6068546001600160a01b03166391d148547fe2ebdf3ab38a7622217c5fbf1675855c7e2a7c5bbe41f6e266053d8b1fb9252f612ff7602086018661491a565b6040518363ffffffff1660e01b8152600401613014929190614da4565b60206040518083038186803b15801561302c57600080fd5b505afa158015613040573d6000803e3d6000fd5b505050506040513d601f19601f820116820180604052508101906130649190614acd565b6130805760405162461bcd60e51b815260040161042490614f7a565b6068546001600160a01b03166391d148547f5f5d51acd29fcae9301a558a0debb6d96317afd82dff56b59f7feb33c5f6fb2a6130c2604086016020870161491a565b6040518363ffffffff1660e01b81526004016130df929190614da4565b60206040518083038186803b1580156130f757600080fd5b505afa15801561310b573d6000803e3d6000fd5b505050506040513d601f19601f8201168201806040525081019061312f9190614acd565b61314b5760405162461bcd60e51b815260040161042490614f7a565b6000606681613160606086016040870161491a565b6001600160a01b0316815260208082019290925260409081016000908120548082526067909352206065548154929350909142916131af91600160b01b9091046001600160401b03169061531a565b116131cc5760405162461bcd60e51b815260040161042490614e91565b6000806131da868685614400565b9092509050811561163b5760006131f083612a0d565b905085604001516001600160a01b03166323b872dd886040016020810190613218919061491a565b8860400151846040518463ffffffff1660e01b815260040161323c93929190614d5f565b600060405180830381600087803b15801561325657600080fd5b505af115801561326a573d6000803e3d6000fd5b50505050600086604001516001600160a01b0316631f7ace096132d98a6020016020810190613299919061491a565b6132a660a08d018d61525d565b60008181106132b7576132b7615451565b90506020020160208101906132cc919061491a565b610ed960a08e018e61525d565b6040518263ffffffff1660e01b81526004016132f59190614d4b565b602060405180830381600087803b15801561330f57600080fd5b505af1158015613323573d6000803e3d6000fd5b505050506040513d601f19601f820116820180604052508101906133479190614aef565b9050600061336c61335e60408b0160208c0161491a565b83610d1060a08d018d61525d565b9050806001825161337d919061539b565b8151811061338d5761338d615451565b602002602001015184106133fc576133f76133ae60408b0160208c0161491a565b826133bc60a08d018d61525d565b8080602002602001604051908101604052809392919081815260200183836020028082843760009201919091525050505060608c0151612806565b613568565b61341d61340f60408b0160208c0161491a565b8261107260a08d018d61525d565b6020880151606089015160405163a9059cbb60e01b81526001600160a01b039092169163a9059cbb91613454918890600401614d8b565b602060405180830381600087803b15801561346e57600080fd5b505af1158015613482573d6000803e3d6000fd5b505050506040513d601f19601f820116820180604052508101906134a69190614acd565b50602088015160655482516001600160a01b039283169263a9059cbb921690879085906134d59060019061539b565b815181106134e5576134e5615451565b60200260200101516134f7919061539b565b6040518363ffffffff1660e01b8152600401613514929190614d8b565b602060405180830381600087803b15801561352e57600080fd5b505af1158015613542573d6000803e3d6000fd5b505050506040513d601f19601f820116820180604052508101906135669190614acd565b505b600061360189606001516001600160a01b03166371e578dc8c6040016020810190613593919061491a565b6040518263ffffffff1660e01b81526004016135af9190614d4b565b602060405180830381600087803b1580156135c957600080fd5b505af11580156135dd573d6000803e3d6000fd5b505050506040513d601f19601f82011682018060405250810190611d579190614aef565b89516001600160a01b0316600090815260038901602052604090208054919250859160019061363f90849061010090046001600160f81b0316615373565b82546001600160f81b0391821661010093840a90810290830219909116179092556020808d01516001600160a01b0316600090815260038c01909152604090208054859450909260019261369892869291900416615373565b92506101000a8154816001600160f81b0302191690836001600160f81b03160217905550600080516020615538833981519152888a60000151868c6020015185604051612f749594939291906151d7565b803b61374d5760405162461bcd60e51b815260206004820152602d60248201527f455243313936373a206e657720696d706c656d656e746174696f6e206973206e60448201526c1bdd08184818dbdb9d1c9858dd609a1b6064820152608401610424565b7f360894a13ba1a3210667c828492db98dca3e2076cc3735a920a3ca505d382bbc80546001600160a01b0319166001600160a01b0392909216919091179055565b6060823b6137ed5760405162461bcd60e51b815260206004820152602660248201527f416464726573733a2064656c65676174652063616c6c20746f206e6f6e2d636f6044820152651b9d1c9858dd60d21b6064820152608401610424565b600080846001600160a01b0316846040516138089190614d2f565b600060405180830381855af49150503d8060008114613843576040519150601f19603f3d011682016040523d82523d6000602084013e613848565b606091505b5091509150613870828260405180606001604052806027815260200161557860279139614804565b95945050505050565b613882816136e9565b6040516001600160a01b038216907fbc7cd75a20ee27fd9adebab32041f755214dbc6bffa90cc0225b39da2e5c2d3b90600090a250565b606060028210156138dc5760405162461bcd60e51b815260040161042490614fa4565b816001600160401b038111156138f4576138f4615467565b60405190808252806020026020018201604052801561393957816020015b60408051808201909152600080825260208201528152602001906001900390816139125790505b509050838160008151811061395057613950615451565b60200260200101516000018181525050838160008151811061397457613974615451565b6020026020010151602001818152505060005b61399260018461539b565b811015613abc576000806139fd888787868181106139b2576139b2615451565b90506020020160208101906139c7919061491a565b88886139d488600161531a565b8181106139e3576139e3615451565b90506020020160208101906139f8919061491a565b613ac5565b91509150613a29848481518110613a1657613a16615451565b6020026020010151600001518383613b9e565b84613a3585600161531a565b81518110613a4557613a45615451565b60200260200101516000018181525050613a7d848481518110613a6a57613a6a615451565b602002602001015160200151838361483d565b84613a8985600161531a565b81518110613a9957613a99615451565b60200260200101516020018181525050505080613ab59061540a565b9050613987565b50949350505050565b6000806000613ad48585613cb3565b509050600080613ae5888888612779565b6001600160a01b0316630902f1ac6040518163ffffffff1660e01b815260040160606040518083038186803b158015613b1d57600080fd5b505afa158015613b31573d6000803e3d6000fd5b505050506040513d601f19601f82011682018060405250810190613b559190614be6565b506001600160701b031691506001600160701b03169150826001600160a01b0316876001600160a01b031614613b8c578082613b8f565b81815b90999098509650505050505050565b6000808411613c035760405162461bcd60e51b815260206004820152602b60248201527f556e697377617056324c6962726172793a20494e53554646494349454e545f4960448201526a1394155517d05353d5539560aa1b6064820152608401610424565b600083118015613c135750600082115b613c705760405162461bcd60e51b815260206004820152602860248201527f556e697377617056324c6962726172793a20494e53554646494349454e545f4c604482015267495155494449545960c01b6064820152608401610424565b6000613c7e856103e5615354565b90506000613c8c8483615354565b9050600082613c9d876103e8615354565b613ca7919061531a565b90506125fb8183615332565b600080826001600160a01b0316846001600160a01b03161415613d265760405162461bcd60e51b815260206004820152602560248201527f556e697377617056324c6962726172793a204944454e544943414c5f41444452604482015264455353455360d81b6064820152608401610424565b826001600160a01b0316846001600160a01b031610613d46578284613d49565b83835b90925090506001600160a01b038216613da45760405162461bcd60e51b815260206004820152601e60248201527f556e697377617056324c6962726172793a205a45524f5f4144445245535300006044820152606401610424565b9250929050565b80516a636f6e736f6c652e6c6f67602083016000808483855afa5050505050565b82516001600160a01b0316600090815260038301602052604080822081518083019092528054839283929091829060ff166001811115613e0e57613e0e61543b565b6001811115613e1f57613e1f61543b565b8152905461010090046001600160f81b031660209182015287516001600160a01b03166000908152600387019091526040808220815180830190925280549394509192909190829060ff166001811115613e7b57613e7b61543b565b6001811115613e8c57613e8c61543b565b8152905461010090046001600160f81b0316602091820152888101516001600160a01b03166000908152600389019091526040808220815180830190925280549394509192909190829060ff166001811115613eea57613eea61543b565b6001811115613efb57613efb61543b565b8152905461010090046001600160f81b0316602091820152898101516001600160a01b03166000908152600389019091526040808220815180830190925280549394509192909190829060ff166001811115613f5957613f5961543b565b6001811115613f6a57613f6a61543b565b8152905461010090046001600160f81b03166020909101529050600084516001811115613f9957613f9961543b565b148015613fb85750600183516001811115613fb657613fb661543b565b145b8015613fd65750600182516001811115613fd457613fd461543b565b145b8015613ff45750600081516001811115613ff257613ff261543b565b145b6140105760405162461bcd60e51b815260040161042490614e3e565b61404161402e8b6060013586602001516001600160f81b0316614854565b84602001516001600160f81b0316614854565b955061406782602001516001600160f81b031682602001516001600160f81b0316614854565b945050505050600085608001516001600160a01b031663da0449be87600001516040518263ffffffff1660e01b81526004016140a39190614d4b565b602060405180830381600087803b1580156140bd57600080fd5b505af11580156140d1573d6000803e3d6000fd5b505050506040513d601f19601f820116820180604052508101906140f59190614aef565b9050600086608001516001600160a01b031663da0449be88602001516040518263ffffffff1660e01b815260040161412d9190614d4b565b602060405180830381600087803b15801561414757600080fd5b505af115801561415b573d6000803e3d6000fd5b505050506040513d601f19601f8201168201806040525081019061417f9190614aef565b60608801519091506000906001600160a01b0316636fb4e2726141a860a08c0160808d0161491a565b866040518363ffffffff1660e01b81526004016141c6929190614d8b565b604080518083038186803b1580156141dd57600080fd5b505afa1580156141f1573d6000803e3d6000fd5b505050506040513d601f19601f820116820180604052508101906142159190614b08565b60200151905060008261422c600160701b84615354565b6142369190615332565b90506000600160701b6142498684615354565b6142539190615332565b90506142e0878b604001516001600160a01b031663ee304877846040518263ffffffff1660e01b815260040161428b91815260200190565b60206040518083038186803b1580156142a357600080fd5b505afa1580156142b7573d6000803e3d6000fd5b505050506040513d601f19601f820116820180604052508101906142db9190614aef565b614854565b9650505050600087604001516001600160a01b0316636fb4e2728a604001602081019061430d919061491a565b876040518363ffffffff1660e01b815260040161432b929190614d8b565b604080518083038186803b15801561434257600080fd5b505afa158015614356573d6000803e3d6000fd5b505050506040513d601f19601f8201168201806040525081019061437a9190614b08565b602001519050600083614391600160701b84615354565b61439b9190615332565b90506000600160701b6143ae8584615354565b6143b89190615332565b90506143f0868b606001516001600160a01b031663ee304877846040518263ffffffff1660e01b815260040161428b91815260200190565b9550505050505094509492505050565b81516001600160a01b03908116600090815260038301602090815260408083209186015190931682529181209091829182825460ff1660018111156144475761444761543b565b14801561446957506001815460ff1660018111156144675761446761543b565b145b6144855760405162461bcd60e51b815260040161042490614e3e565b81546144a49060608901359061010090046001600160f81b0316614854565b60808701518751604051636d0224df60e11b81529296506000926001600160a01b039092169163da0449be916144dc91600401614d4b565b602060405180830381600087803b1580156144f657600080fd5b505af115801561450a573d6000803e3d6000fd5b505050506040513d601f19601f8201168201806040525081019061452e9190614aef565b9050600087608001516001600160a01b031663da0449be89602001516040518263ffffffff1660e01b81526004016145669190614d4b565b602060405180830381600087803b15801561458057600080fd5b505af1158015614594573d6000803e3d6000fd5b505050506040513d601f19601f820116820180604052508101906145b89190614aef565b905087606001516001600160a01b0316636fb4e2728a60400160208101906145e0919061491a565b855460405160e084901b6001600160e01b03191681526001600160a01b03909216600483015261010090046001600160f81b03166024820152604401604080518083038186803b15801561463357600080fd5b505afa158015614647573d6000803e3d6000fd5b505050506040513d601f19601f8201168201806040525081019061466b9190614b08565b602001519450600081614682600160701b88615354565b61468c9190615332565b90506000600160701b61469f8584615354565b6146a99190615332565b90506146e1888b604001516001600160a01b031663ee304877846040518263ffffffff1660e01b815260040161428b91815260200190565b97505050600088604001516001600160a01b0316636fb4e2728b604001602081019061470d919061491a565b896040518363ffffffff1660e01b815260040161472b929190614d8b565b604080518083038186803b15801561474257600080fd5b505afa158015614756573d6000803e3d6000fd5b505050506040513d601f19601f8201168201806040525081019061477a9190614b08565b905060006147a061478e60208d018d61491a565b6020840151610c9260a08f018f61525d565b606554909150600090600160a01b900461ffff166127106147c18285612606565b6147cb9190615354565b6147d59190615332565b835190915081906147e99061271090615354565b6147f39190615332565b985050505050505050935093915050565b60608315614813575081612618565b8251156148235782518084602001fd5b8160405162461bcd60e51b81526004016104249190614dbb565b60008261484a8386615354565b6127fe9190615332565b60008183106126165781612618565b508054600082559060005260206000209081019061054a91905b80821115612a5a576000815560010161487d565b60008083601f8401126148a357600080fd5b5081356001600160401b038111156148ba57600080fd5b6020830191508360208260051b8501011115613da457600080fd5b80516001600160701b03811681146148ec57600080fd5b919050565b803561ffff811681146148ec57600080fd5b80356001600160401b03811681146148ec57600080fd5b60006020828403121561492c57600080fd5b813561261881615522565b60006020828403121561494957600080fd5b815161261881615522565b6000806000806080858703121561496a57600080fd5b843561497581615522565b9350602085013561498581615522565b925061499360408601614903565b91506149a1606086016148f1565b905092959194509250565b600080604083850312156149bf57600080fd5b82356149ca81615522565b91506020838101356001600160401b03808211156149e757600080fd5b818601915086601f8301126149fb57600080fd5b813581811115614a0d57614a0d615467565b6040519150614a25601f8201601f19168501836153de565b8082528784828501011115614a3957600080fd5b80848401858401376000848284010152508093505050509250929050565b600080600060608486031215614a6c57600080fd5b8335614a7781615522565b95602085013595506040909401359392505050565b60008060208385031215614a9f57600080fd5b82356001600160401b03811115614ab557600080fd5b614ac185828601614891565b90969095509350505050565b600060208284031215614adf57600080fd5b8151801515811461261857600080fd5b600060208284031215614b0157600080fd5b5051919050565b600060408284031215614b1a57600080fd5b604051604081018181106001600160401b0382111715614b3c57614b3c615467565b604052825181526020928301519281019290925250919050565b60008060408385031215614b6957600080fd5b82356001600160401b03811115614b7f57600080fd5b830160c08186031215614b9157600080fd5b91506020830135614ba181615522565b809150509250929050565b600060208284031215614bbe57600080fd5b81356001600160401b03811115614bd457600080fd5b820160e0818503121561261857600080fd5b600080600060608486031215614bfb57600080fd5b614c04846148d5565b9250614c12602085016148d5565b9150604084015163ffffffff81168114614c2b57600080fd5b809150509250925092565b600060208284031215614c4857600080fd5b612618826148f1565b60008060008060808587031215614c6757600080fd5b843593506020850135614c7981615522565b925060408501359150606085013560028110614c9457600080fd5b939692955090935050565b600060208284031215614cb157600080fd5b61261882614903565b8183526000602080850194508260005b85811015614cf8578135614cdd81615522565b6001600160a01b031687529582019590820190600101614cca565b509495945050505050565b60008151808452614d1b8160208601602086016153b2565b601f01601f19169290920160200192915050565b60008251614d418184602087016153b2565b9190910192915050565b6001600160a01b0391909116815260200190565b6001600160a01b0393841681529190921660208201526001600160f81b03909116604082015260600190565b6001600160a01b03929092168252602082015260400190565b9182526001600160a01b0316602082015260400190565b6020815260006126186020830184614d03565b604081526000614de16040830185614d03565b905060018060a01b03831660208301529392505050565b604081526000614e0b6040830185614d03565b905082151560208301529392505050565b604081526000614e2f6040830185614d03565b90508260208301529392505050565b6020808252600d908201526c4f7264657265723a205349444560981b604082015260600190565b60208082526012908201527127b93232b932b91d102327a92124a22222a760711b604082015260600190565b60208082526010908201526f13dc99195c995c8e881156141254915160821b604082015260600190565b6020808252602c908201527f46756e6374696f6e206d7573742062652063616c6c6564207468726f7567682060408201526b19195b1959d85d1958d85b1b60a21b606082015260800190565b6020808252600d908201526c4f7264657265723a205a45524f60981b604082015260600190565b6020808252602c908201527f46756e6374696f6e206d7573742062652063616c6c6564207468726f7567682060408201526b6163746976652070726f787960a01b606082015260800190565b60208082526010908201526f13dc99195c995c8e881253959053125160821b604082015260600190565b6020808252601e908201527f556e697377617056324c6962726172793a20494e56414c49445f504154480000604082015260600190565b6020808252600f908201526e09ee4c8cae4cae47440988a9c8ea89608b1b604082015260600190565b604081526000833561501581615522565b6001600160a01b03908116604084015260208501359061503482615522565b908116606084015260408501359061504b82615522565b8082166080850152606086013560a08501526080860135915061506d82615522565b80821660c085015261508260a08701876152d2565b925060c060e086015261509a61010086018483614cba565b935050808516602085015250509392505050565b6000602080835260608084018551838601528286015160408081880152828251808552608089019150868401945060009350835b8181101561513457855180516001600160a01b03168452888101516002811061511957634e487b7160e01b87526021600452602487fd5b848a01528401518484015294870194918601916001016150e2565b50909998505050505050505050565b602081526000823561515481615522565b6001600160a01b039081166020848101919091528401359061517582615522565b80821660408501526040850135915061518d82615522565b8082166060850152505060608301356080830152608083013560a083015260a083013560c08301526151c260c08401846152d2565b60e08085015261387061010085018284614cba565b9485526001600160a01b0393841660208601526001600160f81b0392831660408601529216606084015216608082015260a00190565b8281526040602082015260006127fe6040830184614d03565b84815283602082015260018060a01b03831660408201526080606082015260006152536080830184614d03565b9695505050505050565b6000808335601e1984360301811261527457600080fd5b8301803591506001600160401b0382111561528e57600080fd5b6020019150600581901b3603821315613da457600080fd5b6000823560be19833603018112614d4157600080fd5b6000823560de19833603018112614d4157600080fd5b6000808335601e198436030181126152e957600080fd5b83016020810192503590506001600160401b0381111561530857600080fd5b8060051b3603831315613da457600080fd5b6000821982111561532d5761532d615425565b500190565b60008261534f57634e487b7160e01b600052601260045260246000fd5b500490565b600081600019048311821515161561536e5761536e615425565b500290565b60006001600160f81b038381169083168181101561539357615393615425565b039392505050565b6000828210156153ad576153ad615425565b500390565b60005b838110156153cd5781810151838201526020016153b5565b838111156107c85750506000910152565b601f8201601f191681016001600160401b038111828210171561540357615403615467565b6040525050565b600060001982141561541e5761541e615425565b5060010190565b634e487b7160e01b600052601160045260246000fd5b634e487b7160e01b600052602160045260246000fd5b634e487b7160e01b600052603260045260246000fd5b634e487b7160e01b600052604160045260246000fd5b600060033d11156154965760046000803e5060005160e01c5b90565b600060443d10156154a75790565b6040516003193d81016004833e81513d6001600160401b0381602484011181841117156154d657505050505090565b82850191508151818111156154ee5750505050505090565b843d87010160208285010111156155085750505050505090565b615517602082860101876153de565b509095945050505050565b6001600160a01b038116811461054a57600080fdfe57bc7d7c077f82e609e47fb99bb6a65dce92a2148dbc469851fe02b0a1538761766aece2fe0909e4a1f0fe06a20b32886c389ee499ca4246e7e1b80b53562a84416464726573733a206c6f772d6c6576656c2064656c65676174652063616c6c206661696c6564a2646970667358221220190e70cd2181972f315cd7b6b8cc76f6d46973528df1fc87445b2875679bab6a64736f6c63430008070033",
  "linkReferences": {},
  "deployedLinkReferences": {}
}