{
  "_format": "hh-sol-artifact-1",
  "contractName": "Orderer",
  "sourceName": "contracts/Orderer.sol",
  "abi": [
    {
      "anonymous": false,
      "inputs": [
        {
          "indexed": false,
          "internalType": "address",
          "name": "previousAdmin",
          "type": "address"
        },
        {
          "indexed": false,
          "internalType": "address",
          "name": "newAdmin",
          "type": "address"
        }
      ],
      "name": "AdminChanged",
      "type": "event"
    },
    {
      "anonymous": false,
      "inputs": [
        {
          "indexed": true,
          "internalType": "address",
          "name": "beacon",
          "type": "address"
        }
      ],
      "name": "BeaconUpgraded",
      "type": "event"
    },
    {
      "anonymous": false,
      "inputs": [
        {
          "indexed": false,
          "internalType": "uint256",
          "name": "id",
          "type": "uint256"
        },
        {
          "indexed": false,
          "internalType": "address",
          "name": "sellAsset",
          "type": "address"
        },
        {
          "indexed": false,
          "internalType": "uint256",
          "name": "soldShares",
          "type": "uint256"
        },
        {
          "indexed": false,
          "internalType": "address",
          "name": "buyAsset",
          "type": "address"
        },
        {
          "indexed": false,
          "internalType": "uint256",
          "name": "boughtShares",
          "type": "uint256"
        }
      ],
      "name": "CompleteOrder",
      "type": "event"
    },
    {
      "anonymous": false,
      "inputs": [
        {
          "indexed": false,
          "internalType": "address",
          "name": "creator",
          "type": "address"
        },
        {
          "indexed": false,
          "internalType": "uint256",
          "name": "id",
          "type": "uint256"
        }
      ],
      "name": "PlaceOrder",
      "type": "event"
    },
    {
      "anonymous": false,
      "inputs": [
        {
          "indexed": false,
          "internalType": "uint256",
          "name": "index",
          "type": "uint256"
        },
        {
          "indexed": false,
          "internalType": "string",
          "name": "reason",
          "type": "string"
        }
      ],
      "name": "SwapFailed",
      "type": "event"
    },
    {
      "anonymous": false,
      "inputs": [
        {
          "indexed": false,
          "internalType": "uint256",
          "name": "id",
          "type": "uint256"
        },
        {
          "indexed": false,
          "internalType": "address",
          "name": "asset",
          "type": "address"
        },
        {
          "indexed": false,
          "internalType": "uint256",
          "name": "share",
          "type": "uint256"
        },
        {
          "indexed": false,
          "internalType": "bool",
          "name": "isSellSide",
          "type": "bool"
        }
      ],
      "name": "UpdateOrder",
      "type": "event"
    },
    {
      "anonymous": false,
      "inputs": [
        {
          "indexed": true,
          "internalType": "address",
          "name": "implementation",
          "type": "address"
        }
      ],
      "name": "Upgraded",
      "type": "event"
    },
    {
      "inputs": [
        {
          "components": [
            {
              "internalType": "address",
              "name": "router",
              "type": "address"
            },
            {
              "internalType": "address",
              "name": "factory",
              "type": "address"
            },
            {
              "internalType": "address",
              "name": "sellAccount",
              "type": "address"
            },
            {
              "internalType": "uint256",
              "name": "maxSellShares",
              "type": "uint256"
            },
            {
              "internalType": "address",
              "name": "buyAccount",
              "type": "address"
            },
            {
              "internalType": "address[]",
              "name": "buyPath",
              "type": "address[]"
            }
          ],
          "internalType": "struct IOrderer.IndexSwap",
          "name": "_info",
          "type": "tuple"
        },
        {
          "internalType": "contract IPriceOracle",
          "name": "_priceOracle",
          "type": "address"
        }
      ],
      "name": "_indexSwap",
      "outputs": [],
      "stateMutability": "nonpayable",
      "type": "function"
    },
    {
      "inputs": [
        {
          "components": [
            {
              "internalType": "address",
              "name": "router",
              "type": "address"
            },
            {
              "internalType": "address",
              "name": "factory",
              "type": "address"
            },
            {
              "internalType": "address",
              "name": "vTokenFactory",
              "type": "address"
            },
            {
              "internalType": "uint256",
              "name": "sellAmount",
              "type": "uint256"
            },
            {
              "internalType": "uint256",
              "name": "expectedBuyAmount",
              "type": "uint256"
            },
            {
              "internalType": "address[]",
              "name": "path",
              "type": "address[]"
            }
          ],
          "internalType": "struct IOrderer.VaultSwap",
          "name": "_info",
          "type": "tuple"
        }
      ],
      "name": "_vaultSwap",
      "outputs": [],
      "stateMutability": "nonpayable",
      "type": "function"
    },
    {
      "inputs": [
        {
          "internalType": "uint256",
          "name": "_orderId",
          "type": "uint256"
        },
        {
          "internalType": "address",
          "name": "_asset",
          "type": "address"
        },
        {
          "internalType": "uint256",
          "name": "_shares",
          "type": "uint256"
        },
        {
          "internalType": "enum IOrderer.OrderSide",
          "name": "_side",
          "type": "uint8"
        }
      ],
      "name": "addOrderDetails",
      "outputs": [],
      "stateMutability": "nonpayable",
      "type": "function"
    },
    {
      "inputs": [],
      "name": "changeAccount",
      "outputs": [
        {
          "internalType": "address",
          "name": "",
          "type": "address"
        }
      ],
      "stateMutability": "view",
      "type": "function"
    },
    {
      "inputs": [
        {
          "components": [
            {
              "internalType": "address",
              "name": "router",
              "type": "address"
            },
            {
              "internalType": "address",
              "name": "factory",
              "type": "address"
            },
            {
              "internalType": "address",
              "name": "sellAccount",
              "type": "address"
            },
            {
              "internalType": "uint256",
              "name": "maxSellShares",
              "type": "uint256"
            },
            {
              "internalType": "address",
              "name": "buyAccount",
              "type": "address"
            },
            {
              "internalType": "address[]",
              "name": "buyPath",
              "type": "address[]"
            }
          ],
          "internalType": "struct IOrderer.IndexSwap[]",
          "name": "_params",
          "type": "tuple[]"
        }
      ],
      "name": "indexSwap",
      "outputs": [],
      "stateMutability": "nonpayable",
      "type": "function"
    },
    {
      "inputs": [
        {
          "internalType": "address",
          "name": "_registry",
          "type": "address"
        },
        {
          "internalType": "address",
          "name": "_changeAccount",
          "type": "address"
        },
        {
          "internalType": "uint64",
          "name": "_orderLifetime",
          "type": "uint64"
        },
        {
          "internalType": "uint16",
          "name": "_maxAllowedSlippageInBP",
          "type": "uint16"
        }
      ],
      "name": "initialize",
      "outputs": [],
      "stateMutability": "nonpayable",
      "type": "function"
    },
    {
      "inputs": [
        {
          "internalType": "address",
          "name": "",
          "type": "address"
        }
      ],
      "name": "lastOrderIdOf",
      "outputs": [
        {
          "internalType": "uint256",
          "name": "",
          "type": "uint256"
        }
      ],
      "stateMutability": "view",
      "type": "function"
    },
    {
      "inputs": [],
      "name": "maxAllowedSlippageInBP",
      "outputs": [
        {
          "internalType": "uint16",
          "name": "",
          "type": "uint16"
        }
      ],
      "stateMutability": "view",
      "type": "function"
    },
    {
      "inputs": [],
      "name": "orderLifetime",
      "outputs": [
        {
          "internalType": "uint64",
          "name": "",
          "type": "uint64"
        }
      ],
      "stateMutability": "view",
      "type": "function"
    },
    {
      "inputs": [
        {
          "internalType": "address",
          "name": "_account",
          "type": "address"
        }
      ],
      "name": "orderOf",
      "outputs": [
        {
          "components": [
            {
              "internalType": "uint256",
              "name": "creationTimestamp",
              "type": "uint256"
            },
            {
              "components": [
                {
                  "internalType": "address",
                  "name": "asset",
                  "type": "address"
                },
                {
                  "internalType": "enum IOrderer.OrderSide",
                  "name": "side",
                  "type": "uint8"
                },
                {
                  "internalType": "uint256",
                  "name": "shares",
                  "type": "uint256"
                }
              ],
              "internalType": "struct IOrderer.OrderAsset[]",
              "name": "assets",
              "type": "tuple[]"
            }
          ],
          "internalType": "struct IOrderer.Order",
          "name": "order",
          "type": "tuple"
        }
      ],
      "stateMutability": "view",
      "type": "function"
    },
    {
      "inputs": [],
      "name": "placeOrder",
      "outputs": [
        {
          "internalType": "uint256",
          "name": "_orderId",
          "type": "uint256"
        }
      ],
      "stateMutability": "nonpayable",
      "type": "function"
    },
    {
      "inputs": [
        {
          "internalType": "address",
          "name": "_asset",
          "type": "address"
        },
        {
          "internalType": "uint256",
          "name": "_newTotalSupply",
          "type": "uint256"
        },
        {
          "internalType": "uint256",
          "name": "_oldTotalSupply",
          "type": "uint256"
        }
      ],
      "name": "reduceOrderAsset",
      "outputs": [],
      "stateMutability": "nonpayable",
      "type": "function"
    },
    {
      "inputs": [
        {
          "internalType": "address",
          "name": "_index",
          "type": "address"
        }
      ],
      "name": "reweight",
      "outputs": [],
      "stateMutability": "nonpayable",
      "type": "function"
    },
    {
      "inputs": [
        {
          "internalType": "address",
          "name": "_changeAccount",
          "type": "address"
        }
      ],
      "name": "setChangeAccount",
      "outputs": [],
      "stateMutability": "nonpayable",
      "type": "function"
    },
    {
      "inputs": [
        {
          "internalType": "uint16",
          "name": "_maxAllowedSlippageInBP",
          "type": "uint16"
        }
      ],
      "name": "setMaxAllowedSlippageInBP",
      "outputs": [],
      "stateMutability": "nonpayable",
      "type": "function"
    },
    {
      "inputs": [
        {
          "internalType": "uint64",
          "name": "_orderLifetime",
          "type": "uint64"
        }
      ],
      "name": "setOrderLifetime",
      "outputs": [],
      "stateMutability": "nonpayable",
      "type": "function"
    },
    {
      "inputs": [
        {
          "internalType": "bytes4",
          "name": "interfaceId",
          "type": "bytes4"
        }
      ],
      "name": "supportsInterface",
      "outputs": [
        {
          "internalType": "bool",
          "name": "",
          "type": "bool"
        }
      ],
      "stateMutability": "view",
      "type": "function"
    },
    {
      "inputs": [
        {
          "internalType": "address",
          "name": "newImplementation",
          "type": "address"
        }
      ],
      "name": "upgradeTo",
      "outputs": [],
      "stateMutability": "nonpayable",
      "type": "function"
    },
    {
      "inputs": [
        {
          "internalType": "address",
          "name": "newImplementation",
          "type": "address"
        },
        {
          "internalType": "bytes",
          "name": "data",
          "type": "bytes"
        }
      ],
      "name": "upgradeToAndCall",
      "outputs": [],
      "stateMutability": "payable",
      "type": "function"
    },
    {
      "inputs": [
        {
          "components": [
            {
              "internalType": "address",
              "name": "router",
              "type": "address"
            },
            {
              "internalType": "address",
              "name": "factory",
              "type": "address"
            },
            {
              "internalType": "address",
              "name": "vTokenFactory",
              "type": "address"
            },
            {
              "internalType": "uint256",
              "name": "sellAmount",
              "type": "uint256"
            },
            {
              "internalType": "uint256",
              "name": "expectedBuyAmount",
              "type": "uint256"
            },
            {
              "internalType": "address[]",
              "name": "path",
              "type": "address[]"
            }
          ],
          "internalType": "struct IOrderer.VaultSwap[]",
          "name": "_params",
          "type": "tuple[]"
        }
      ],
      "name": "vaultSwap",
      "outputs": [],
      "stateMutability": "nonpayable",
      "type": "function"
    }
  ],
  "bytecode": "0x60a06040523060601b60805234801561001757600080fd5b5060805160601c6157366200004c6000396000818161054c0152818161058c01528181610615015261065501526157366000f3fe60806040526004361061011e5760003560e01c80639305dbfb116100a0578063d222d01f11610064578063d222d01f14610369578063de6f6f5b14610389578063dffbfa04146103a9578063e3facc0c146103c9578063f5c609e0146103f657600080fd5b80639305dbfb146102aa57806398edd87c146102e95780639978385014610309578063ab29ce9c14610329578063cabfb7e31461034957600080fd5b80634f1ef286116100e75780634f1ef2861461020a5780635d0352431461021d57806379af37ed1461023d5780637ceb06581461025d5780637d3690091461028a57600080fd5b8062a2e7921461012357806301ffc9a71461016357806303855c63146101935780633659cfe6146101b55780633b5bb757146101d5575b600080fd5b34801561012f57600080fd5b5061015061013e366004614ace565b60666020526000908152604090205481565b6040519081526020015b60405180910390f35b34801561016f57600080fd5b5061018361017e366004614ca3565b61040b565b604051901515815260200161015a565b34801561019f57600080fd5b506101b36101ae366004614e72565b610442565b005b3480156101c157600080fd5b506101b36101d0366004614ace565b610541565b3480156101e157600080fd5b506065546101f790600160a01b900461ffff1681565b60405161ffff909116815260200161015a565b6101b3610218366004614b60565b61060a565b34801561022957600080fd5b506101b3610238366004614c40565b6106c4565b34801561024957600080fd5b506101b3610258366004614d6c565b6108fb565b34801561026957600080fd5b5060655461027d906001600160a01b031681565b60405161015a9190614f1e565b34801561029657600080fd5b506101b36102a5366004614df0565b611063565b3480156102b657600080fd5b506065546102d190600160b01b90046001600160401b031681565b6040516001600160401b03909116815260200161015a565b3480156102f557600080fd5b506101b3610304366004614e24565b61115b565b34801561031557600080fd5b506101b3610324366004614c40565b611366565b34801561033557600080fd5b506101b3610344366004614d1b565b61150b565b34801561035557600080fd5b506101b3610364366004614c0b565b611a88565b34801561037557600080fd5b506101b3610384366004614ace565b611c5e565b34801561039557600080fd5b506101b36103a4366004614ace565b611d46565b3480156103b557600080fd5b506101b36103c4366004614b08565b611fb9565b3480156103d557600080fd5b506103e96103e4366004614ace565b612118565b60405161015a9190615211565b34801561040257600080fd5b506101506122b4565b60006001600160e01b03198216637af7290360e11b148061043c57506301ffc9a760e01b6001600160e01b03198316145b92915050565b606854604051632474521560e21b81526000916001600160a01b0316906391d14854906104759084903390600401614f77565b60206040518083038186803b15801561048d57600080fd5b505afa1580156104a1573d6000803e3d6000fd5b505050506040513d601f19601f820116820180604052508101906104c59190614c81565b6104ea5760405162461bcd60e51b81526004016104e190614fc8565b60405180910390fd5b6000826001600160401b0316116105135760405162461bcd60e51b81526004016104e1906150dd565b50606580546001600160401b03909216600160b01b0267ffffffffffffffff60b01b19909216919091179055565b306001600160a01b037f000000000000000000000000000000000000000000000000000000000000000016141561058a5760405162461bcd60e51b81526004016104e19061501e565b7f00000000000000000000000000000000000000000000000000000000000000006001600160a01b03166105bc612415565b6001600160a01b0316146105e25760405162461bcd60e51b81526004016104e190615091565b6105eb81612443565b60408051600080825260208201909252610607918391906124e2565b50565b306001600160a01b037f00000000000000000000000000000000000000000000000000000000000000001614156106535760405162461bcd60e51b81526004016104e19061501e565b7f00000000000000000000000000000000000000000000000000000000000000006001600160a01b0316610685612415565b6001600160a01b0316146106ab5760405162461bcd60e51b81526004016104e190615091565b6106b482612443565b6106c0828260016124e2565b5050565b606854604051632474521560e21b815260008051602061567a833981519152916001600160a01b0316906391d14854906107049084903390600401614f77565b60206040518083038186803b15801561071c57600080fd5b505afa158015610730573d6000803e3d6000fd5b505050506040513d601f19601f820116820180604052508101906107549190614c81565b6107705760405162461bcd60e51b81526004016104e190614fc8565b60685460408051632630c12f60e01b815290516000926001600160a01b031691632630c12f916004808301926020929190829003018186803b1580156107b557600080fd5b505afa1580156107c9573d6000803e3d6000fd5b505050506040513d601f19601f820116820180604052508101906107ed9190614aeb565b905060005b838110156108f4573063ab29ce9c86868481811061081257610812615593565b905060200281019061082491906153fe565b846040518363ffffffff1660e01b8152600401610842929190615167565b600060405180830381600087803b15801561085c57600080fd5b505af192505050801561086d575060015b6108e4576108796155bf565b806308c379a014156108d8575061088e6155db565b8061089957506108da565b7f44e8af768db39f9828656fae48b5f4b388d4d4f4898ba8cbaea9065491bfd21582826040516108ca929190615365565b60405180910390a1506108e4565b505b3d6000803e3d6000fd5b6108ed8161554c565b90506107f2565b5050505050565b33301461091a5760405162461bcd60e51b81526004016104e190614fc8565b6068546001600160a01b03166391d148547fe2ebdf3ab38a7622217c5fbf1675855c7e2a7c5bbe41f6e266053d8b1fb9252f6109596020850185614ace565b6040518363ffffffff1660e01b8152600401610976929190614f77565b60206040518083038186803b15801561098e57600080fd5b505afa1580156109a2573d6000803e3d6000fd5b505050506040513d601f19601f820116820180604052508101906109c69190614c81565b6109e25760405162461bcd60e51b81526004016104e1906150dd565b6068546001600160a01b03166391d148547f5f5d51acd29fcae9301a558a0debb6d96317afd82dff56b59f7feb33c5f6fb2a610a246040850160208601614ace565b6040518363ffffffff1660e01b8152600401610a41929190614f77565b60206040518083038186803b158015610a5957600080fd5b505afa158015610a6d573d6000803e3d6000fd5b505050506040513d601f19601f82011682018060405250810190610a919190614c81565b610aad5760405162461bcd60e51b81526004016104e1906150dd565b6002610abc60a08301836153b5565b90501015610adc5760405162461bcd60e51b81526004016104e19061513e565b6000610aeb60a08301836153b5565b6000818110610afc57610afc615593565b9050602002016020810190610b119190614ace565b90506000610b2260a08401846153b5565b6001610b3160a08701876153b5565b610b3c9291506154dd565b818110610b4b57610b4b615593565b9050602002016020810190610b609190614ace565b90506000610b8b610b746020860186614ace565b6060860135610b8660a08801886153b5565b612622565b606554909150600090600160a01b900461ffff16612710610bac8285612705565b610bb69190615496565b610bc09190615474565b9050600081610bd56127106060890135615496565b610bdf9190615474565b90506000610c3b610bf66040890160208a01614ace565b83610c0460a08b018b6153b5565b8080602002602001604051908101604052809392919081815260200183836020028082843760009201919091525061271e92505050565b90506000610c4f6060890160408a01614ace565b6001600160a01b0316638d5aa174886040518263ffffffff1660e01b8152600401610c7a9190614f1e565b602060405180830381600087803b158015610c9457600080fd5b505af1158015610ca8573d6000803e3d6000fd5b505050506040513d601f19601f82011682018060405250810190610ccc9190614aeb565b90506000610ce060608a0160408b01614ace565b6001600160a01b0316638d5aa174886040518263ffffffff1660e01b8152600401610d0b9190614f1e565b602060405180830381600087803b158015610d2557600080fd5b505af1158015610d39573d6000803e3d6000fd5b505050506040513d601f19601f82011682018060405250810190610d5d9190614aeb565b90506001600160a01b038216635c921eb9610dec610d8160408d0160208e01614ace565b610d8e60a08e018e6153b5565b6000818110610d9f57610d9f615593565b9050602002016020810190610db49190614ace565b610dc160a08f018f6153b5565b6001818110610dd257610dd2615593565b9050602002016020810190610de79190614ace565b612878565b85600081518110610dff57610dff615593565b60200260200101516040518363ffffffff1660e01b8152600401610e24929190614f5e565b600060405180830381600087803b158015610e3e57600080fd5b505af1158015610e52573d6000803e3d6000fd5b50505050816001600160a01b031663fff6cae96040518163ffffffff1660e01b8152600401600060405180830381600087803b158015610e9157600080fd5b505af1158015610ea5573d6000803e3d6000fd5b505050508260018451610eb891906154dd565b81518110610ec857610ec8615593565b6020026020010151896080013510610f3957610f34610eed60408b0160208c01614ace565b84610efb60a08d018d6153b5565b80806020026020016040519081016040528093929190818152602001838360200280828437600092019190915250879250612905915050565b611005565b610f93610f4c60408b0160208c01614ace565b84610f5a60a08d018d6153b5565b80806020026020016040519081016040528093929190818152602001838360200280828437600092019190915250309250612905915050565b610fab6001600160a01b0388168260808c0135612ac7565b6065548351611005916001600160a01b03169060808c0135908690610fd2906001906154dd565b81518110610fe257610fe2615593565b6020026020010151610ff491906154dd565b6001600160a01b038a169190612ac7565b806001600160a01b031663fff6cae96040518163ffffffff1660e01b8152600401600060405180830381600087803b15801561104057600080fd5b505af1158015611054573d6000803e3d6000fd5b50505050505050505050505050565b606854604051632474521560e21b81526000916001600160a01b0316906391d14854906110969084903390600401614f77565b60206040518083038186803b1580156110ae57600080fd5b505afa1580156110c2573d6000803e3d6000fd5b505050506040513d601f19601f820116820180604052508101906110e69190614c81565b6111025760405162461bcd60e51b81526004016104e190614fc8565b60008261ffff1611801561111c575061271061ffff831611155b6111385760405162461bcd60e51b81526004016104e1906150dd565b506065805461ffff909216600160a01b0261ffff60a01b19909216919091179055565b606854604051632474521560e21b81526000805160206156ba833981519152916001600160a01b0316906391d148549061119b9084903390600401614f77565b60206040518083038186803b1580156111b357600080fd5b505afa1580156111c7573d6000803e3d6000fd5b505050506040513d601f19601f820116820180604052508101906111eb9190614c81565b6112075760405162461bcd60e51b81526004016104e190614fc8565b60008581526067602052604090206001600160a01b0385161580159061122d5750600084115b1561135e5760028101805460018082018355600092835260209092200180546001600160a01b0319166001600160a01b0388161790556040805180820190915290819085908111156112815761128161557d565b815260200161128f86612b22565b6001600160f81b031690526001600160a01b0386166000908152600383016020526040902081518154829060ff1916600183818111156112d1576112d161557d565b02179055506020919091015181546001600160f81b039091166101000260ff9091161790557f35696798b55a4139af6c7025dfad7caa24c2ffbd8e14e82669e63212daa8673e868686600087600181111561132e5761132e61557d565b604080519586526001600160a01b0390941660208601529284019190915214606082015260800160405180910390a15b505050505050565b606854604051632474521560e21b815260008051602061567a833981519152916001600160a01b0316906391d14854906113a69084903390600401614f77565b60206040518083038186803b1580156113be57600080fd5b505afa1580156113d2573d6000803e3d6000fd5b505050506040513d601f19601f820116820180604052508101906113f69190614c81565b6114125760405162461bcd60e51b81526004016104e190614fc8565b60005b8281101561150557306379af37ed85858481811061143557611435615593565b905060200281019061144791906153fe565b6040518263ffffffff1660e01b815260040161146391906152a6565b600060405180830381600087803b15801561147d57600080fd5b505af192505050801561148e575060015b6114f55761149a6155bf565b806308c379a014156108d857506114af6155db565b806114ba57506108da565b7f44e8af768db39f9828656fae48b5f4b388d4d4f4898ba8cbaea9065491bfd21582826040516114eb929190615365565b60405180910390a1505b6114fe8161554c565b9050611415565b50505050565b33301461152a5760405162461bcd60e51b81526004016104e190614fc8565b600261153960a08401846153b5565b905010156115595760405162461bcd60e51b81526004016104e19061513e565b6068546001600160a01b03166391d148546000805160206156ba8339815191526115896060860160408701614ace565b6040518363ffffffff1660e01b81526004016115a6929190614f77565b60206040518083038186803b1580156115be57600080fd5b505afa1580156115d2573d6000803e3d6000fd5b505050506040513d601f19601f820116820180604052508101906115f69190614c81565b6116125760405162461bcd60e51b81526004016104e1906150dd565b60008061162260a08501856153b5565b600081811061163357611633615593565b90506020020160208101906116489190614ace565b61165560a08601866153b5565b600161166460a08901896153b5565b61166f9291506154dd565b81811061167e5761167e615593565b90506020020160208101906116939190614ace565b90925090506001600160a01b038216158015906116b857506001600160a01b03811615155b80156116c8575060008460600135115b6116e45760405162461bcd60e51b81526004016104e19061506a565b806001600160a01b0316826001600160a01b031614156117165760405162461bcd60e51b81526004016104e1906150dd565b60006117286060860160408701614ace565b6001600160a01b03166328dd99126040518163ffffffff1660e01b815260040160206040518083038186803b15801561176057600080fd5b505afa158015611774573d6000803e3d6000fd5b505050506040513d601f19601f820116820180604052508101906117989190614aeb565b905060006040518060a00160405280856001600160a01b03168152602001846001600160a01b03168152602001836001600160a01b0316638d5aa174876040518263ffffffff1660e01b81526004016117f19190614f1e565b602060405180830381600087803b15801561180b57600080fd5b505af115801561181f573d6000803e3d6000fd5b505050506040513d601f19601f820116820180604052508101906118439190614aeb565b6001600160a01b03168152602001836001600160a01b0316638d5aa174866040518263ffffffff1660e01b815260040161187d9190614f1e565b602060405180830381600087803b15801561189757600080fd5b505af11580156118ab573d6000803e3d6000fd5b505050506040513d601f19601f820116820180604052508101906118cf9190614aeb565b6001600160a01b0390811682528716602090910152905060006118f860a0880160808901614ace565b6001600160a01b031614611a7e576068546001600160a01b03166391d148546000805160206156ba83398151915261193660a08a0160808b01614ace565b6040518363ffffffff1660e01b8152600401611953929190614f77565b60206040518083038186803b15801561196b57600080fd5b505afa15801561197f573d6000803e3d6000fd5b505050506040513d601f19601f820116820180604052508101906119a39190614c81565b6119bf5760405162461bcd60e51b81526004016104e1906150dd565b6119cf60a0870160808801614ace565b6001600160a01b03166328dd99126040518163ffffffff1660e01b815260040160206040518083038186803b158015611a0757600080fd5b505afa158015611a1b573d6000803e3d6000fd5b505050506040513d601f19601f82011682018060405250810190611a3f9190614aeb565b6001600160a01b0316826001600160a01b031614611a6f5760405162461bcd60e51b81526004016104e1906150dd565b611a798682612b73565b61135e565b61135e8682613013565b606854604051632474521560e21b81526000805160206156ba833981519152916001600160a01b0316906391d1485490611ac89084903390600401614f77565b60206040518083038186803b158015611ae057600080fd5b505afa158015611af4573d6000803e3d6000fd5b505050506040513d601f19601f82011682018060405250810190611b189190614c81565b611b345760405162461bcd60e51b81526004016104e190614fc8565b3360009081526066602052604090205480156108f45760008181526067602090815260408083206001600160a01b0389168452600381019092529091205461010090046001600160f81b03168015611c55576000611ba586611b968985615496565b611ba09190615474565b612b22565b6001600160a01b03891660009081526003850160205260408120805460ff9081166101006001600160f81b038616028181179093559394507f35696798b55a4139af6c7025dfad7caa24c2ffbd8e14e82669e63212daa8673e9388938d93879391929116176001811115611c1b57611c1b61557d565b604080519586526001600160a01b039490941660208601526001600160f81b039290921684840152146060830152519081900360800190a1505b50505050505050565b606854604051632474521560e21b81526000916001600160a01b0316906391d1485490611c919084903390600401614f77565b60206040518083038186803b158015611ca957600080fd5b505afa158015611cbd573d6000803e3d6000fd5b505050506040513d601f19601f82011682018060405250810190611ce19190614c81565b611cfd5760405162461bcd60e51b81526004016104e190614fc8565b6001600160a01b038216611d235760405162461bcd60e51b81526004016104e19061506a565b50606580546001600160a01b0319166001600160a01b0392909216919091179055565b606854604051632474521560e21b815260008051602061567a833981519152916001600160a01b0316906391d1485490611d869084903390600401614f77565b60206040518083038186803b158015611d9e57600080fd5b505afa158015611db2573d6000803e3d6000fd5b505050506040513d601f19601f82011682018060405250810190611dd69190614c81565b611df25760405162461bcd60e51b81526004016104e190614fc8565b60005a9050826001600160a01b031663849feb6b6040518163ffffffff1660e01b8152600401600060405180830381600087803b158015611e3257600080fd5b505af1158015611e46573d6000803e3d6000fd5b5050505060005a611e5790836154dd565b9050836001600160a01b031663f6abc84c6040518163ffffffff1660e01b815260040160206040518083038186803b158015611e9257600080fd5b505afa158015611ea6573d6000803e3d6000fd5b505050506040513d601f19601f82011682018060405250810190611eca9190614c81565b61150557606860009054906101000a90046001600160a01b03166001600160a01b0316634df0cb856040518163ffffffff1660e01b815260040160206040518083038186803b158015611f1c57600080fd5b505afa158015611f30573d6000803e3d6000fd5b505050506040513d601f19601f82011682018060405250810190611f549190614aeb565b6001600160a01b031663c407687685836040518363ffffffff1660e01b8152600401611f81929190614f5e565b600060405180830381600087803b158015611f9b57600080fd5b505af1158015611faf573d6000803e3d6000fd5b5050505050505050565b600054610100900460ff16611fd45760005460ff1615611fd8565b303b155b61203b5760405162461bcd60e51b815260206004820152602e60248201527f496e697469616c697a61626c653a20636f6e747261637420697320616c72656160448201526d191e481a5b9a5d1a585b1a5e995960921b60648201526084016104e1565b600054610100900460ff1615801561205d576000805461ffff19166101011790555b6001600160a01b0385161580159061207d57506001600160a01b03841615155b6120995760405162461bcd60e51b81526004016104e19061506a565b606880546001600160a01b0319166001600160a01b038781169190911790915560658054918616600169ffffffffffffffff000160a01b031990921691909117600160b01b6001600160401b038616021761ffff60a01b1916600160a01b61ffff85160217905580156108f4576000805461ff00191690555050505050565b6040805180820190915260008152606060208201526001600160a01b0382166000908152606660209081526040808320548084526067835292819020815180830190925280548252600281015490928201906001600160401b03811115612181576121816155a9565b6040519080825280602002602001820160405280156121cc57816020015b604080516060810182526000808252602080830182905292820152825260001990920191018161219f5790505b509052925060005b60028201548110156122ac5760008260020182815481106121f7576121f7615593565b6000918252602080832090910154604080516060810182526001600160a01b03909216808352808552600388018452932054929350919082019060ff1660018111156122455761224561557d565b81526001600160a01b038316600090815260038601602090815260409091205461010090046001600160f81b03169181019190915286015180518490811061228f5761228f615593565b602002602001018190525050806122a59061554c565b90506121d4565b505050919050565b606854604051632474521560e21b81526000916000805160206156ba833981519152916001600160a01b03909116906391d14854906122f99084903390600401614f77565b60206040518083038186803b15801561231157600080fd5b505afa158015612325573d6000803e3d6000fd5b505050506040513d601f19601f820116820180604052508101906123499190614c81565b6123655760405162461bcd60e51b81526004016104e190614fc8565b336000908152606660209081526040808320548352606790915281208181556001810180546001600160a01b0319169055906123a460028301826149ff565b505060698054600101908190556000818152606760209081526040808320428155338085526066909352928190208490555192945090917f05ca70c8e6534d97f431c4c47fb16e607df92096fa770fb519a1c82b007486ee91612408918690614f5e565b60405180910390a1505090565b7f360894a13ba1a3210667c828492db98dca3e2076cc3735a920a3ca505d382bbc546001600160a01b031690565b606854604051632474521560e21b81526000916001600160a01b0316906391d14854906124769084903390600401614f77565b60206040518083038186803b15801561248e57600080fd5b505afa1580156124a2573d6000803e3d6000fd5b505050506040513d601f19601f820116820180604052508101906124c69190614c81565b6106c05760405162461bcd60e51b81526004016104e190614fc8565b60006124ec612415565b90506124f7846136a8565b6000835111806125045750815b1561251557612513848461374d565b505b7f4910fdfa16fed3260ed0e7147f7cc6da11a60208b5b9406d12a635614ffd9143805460ff166108f457805460ff19166001178155604051612590908690612561908590602401614f1e565b60408051601f198184030181529190526020810180516001600160e01b0316631b2ce7f360e11b17905261374d565b50805460ff191681556125a1612415565b6001600160a01b0316826001600160a01b0316146126195760405162461bcd60e51b815260206004820152602f60248201527f45524331393637557067726164653a207570677261646520627265616b73206660448201526e75727468657220757067726164657360881b60648201526084016104e1565b6108f485613838565b600080856001600160a01b031663c45a01556040518163ffffffff1660e01b815260040160206040518083038186803b15801561265e57600080fd5b505afa158015612672573d6000803e3d6000fd5b505050506040513d601f19601f820116820180604052508101906126969190614aeb565b905060006126a682878787613878565b6126b16001866154dd565b815181106126c1576126c1615593565b602002602001015190508060200151816000015182602001516126e491906154dd565b6126f090612710615496565b6126fa9190615474565b979650505050505050565b6000818310156127155781612717565b825b9392505050565b60606002825110156127425760405162461bcd60e51b81526004016104e190615107565b81516001600160401b0381111561275b5761275b6155a9565b604051908082528060200260200182016040528015612784578160200160208202803683370190505b509050828160008151811061279b5761279b615593565b60200260200101818152505060005b600183516127b891906154dd565b8110156128705760008061280b878685815181106127d8576127d8615593565b6020026020010151878660016127ee919061545c565b815181106127fe576127fe615593565b6020026020010151613a84565b9150915061283384848151811061282457612824615593565b60200260200101518383613b5d565b8461283f85600161545c565b8151811061284f5761284f615593565b602002602001018181525050505080806128689061554c565b9150506127aa565b509392505050565b60405163e6a4390560e01b81526001600160a01b03838116600483015282811660248301526000919085169063e6a439059060440160206040518083038186803b1580156128c557600080fd5b505afa1580156128d9573d6000803e3d6000fd5b505050506040513d601f19601f820116820180604052508101906128fd9190614aeb565b949350505050565b60005b6001835161291691906154dd565b8110156108f45760008084838151811061293257612932615593565b602002602001015185846001612948919061545c565b8151811061295857612958615593565b60200260200101519150915060006129708383613c72565b50905060008761298186600161545c565b8151811061299157612991615593565b60200260200101519050600080836001600160a01b0316866001600160a01b0316146129bf578260006129c3565b6000835b91509150600060028a516129d791906154dd565b88106129e35788612a11565b612a118c878c6129f48c600261545c565b81518110612a0457612a04615593565b6020026020010151612878565b9050612a1e8c8888612878565b6001600160a01b031663022c0d9f84848460006040519080825280601f01601f191660200182016040528015612a5b576020820181803683370190505b506040518563ffffffff1660e01b8152600401612a7b949392919061537e565b600060405180830381600087803b158015612a9557600080fd5b505af1158015612aa9573d6000803e3d6000fd5b50505050505050505050508080612abf9061554c565b915050612908565b612b1d8363a9059cbb60e01b8484604051602401612ae6929190614f5e565b60408051601f198184030181529190526020810180516001600160e01b03166001600160e01b031990931692909217909152613d6a565b505050565b60006001600160f81b03821115612b6f5760405162461bcd60e51b81526020600482015260116024820152704f7264657265723a204f564552464c4f5760781b60448201526064016104e1565b5090565b612b8060a08301836153b5565b9050600214612ba15760405162461bcd60e51b81526004016104e19061513e565b612bb16060830160408401614ace565b6001600160a01b0316612bca60a0840160808501614ace565b6001600160a01b03161415612bf15760405162461bcd60e51b81526004016104e1906150dd565b6000606681612c066060860160408701614ace565b6001600160a01b0316815260208101919091526040016000908120549150606681612c3760a0870160808801614ace565b6001600160a01b03168152602080820192909252604090810160009081205485825260679093528181208382529190206065548254939450919290914291612c8f91600160b01b90046001600160401b03169061545c565b11612cac5760405162461bcd60e51b81526004016104e190614ff4565b60655481544291612cce91600160b01b9091046001600160401b03169061545c565b11612ceb5760405162461bcd60e51b81526004016104e190614ff4565b600080612cfa88888686613e3c565b91509150600082118015612d0e5750600081115b15611faf576000612d1e83612b22565b90506000612d2b83612b22565b905088604001516001600160a01b03166323b872dd8b6040016020810190612d539190614ace565b612d6360a08e0160808f01614ace565b856040518463ffffffff1660e01b8152600401612d8293929190614f32565b600060405180830381600087803b158015612d9c57600080fd5b505af1158015612db0573d6000803e3d6000fd5b5050505060608901516001600160a01b03166323b872dd612dd760a08d0160808e01614ace565b612de760608e0160408f01614ace565b846040518463ffffffff1660e01b8152600401612e0693929190614f32565b600060405180830381600087803b158015612e2057600080fd5b505af1158015612e34573d6000803e3d6000fd5b50508a516001600160a01b0316600090815260038901602052604090208054859350909150600190612e7590849061010090046001600160f81b03166154b5565b82546001600160f81b0391821661010093840a90810290830219909116179092556020808d01516001600160a01b0316600090815260038b019091526040902080548594509092600192612ece928692919004166154b5565b82546001600160f81b0391821661010093840a90810290830219909116179092558b516001600160a01b03166000908152600389016020526040902080548594509092600192612f23928692919004166154b5565b82546001600160f81b0391821661010093840a90810290830219909116179092556020808d01516001600160a01b0316600090815260038a019091526040902080548694509092600192612f7c928692919004166154b5565b92506101000a8154816001600160f81b0302191690836001600160f81b0316021790555060008051602061569a833981519152888a60000151848c6020015185604051612fcd95949392919061532f565b60405180910390a16020890151895160405160008051602061569a83398151915292612fff928b92869190889061532f565b60405180910390a150505050505050505050565b600261302260a08401846153b5565b905010156130425760405162461bcd60e51b81526004016104e19061513e565b6068546001600160a01b03166391d148547fe2ebdf3ab38a7622217c5fbf1675855c7e2a7c5bbe41f6e266053d8b1fb9252f6130816020860186614ace565b6040518363ffffffff1660e01b815260040161309e929190614f77565b60206040518083038186803b1580156130b657600080fd5b505afa1580156130ca573d6000803e3d6000fd5b505050506040513d601f19601f820116820180604052508101906130ee9190614c81565b61310a5760405162461bcd60e51b81526004016104e1906150dd565b6068546001600160a01b03166391d148547f5f5d51acd29fcae9301a558a0debb6d96317afd82dff56b59f7feb33c5f6fb2a61314c6040860160208701614ace565b6040518363ffffffff1660e01b8152600401613169929190614f77565b60206040518083038186803b15801561318157600080fd5b505afa158015613195573d6000803e3d6000fd5b505050506040513d601f19601f820116820180604052508101906131b99190614c81565b6131d55760405162461bcd60e51b81526004016104e1906150dd565b60006066816131ea6060860160408701614ace565b6001600160a01b03168152602080820192909252604090810160009081205480825260679093522060655481549293509091429161323991600160b01b9091046001600160401b03169061545c565b116132565760405162461bcd60e51b81526004016104e190614ff4565b600080613264868685614470565b9092509050811561135e57600061327a83612b22565b905085604001516001600160a01b03166323b872dd8860400160208101906132a29190614ace565b8860400151846040518463ffffffff1660e01b81526004016132c693929190614f32565b600060405180830381600087803b1580156132e057600080fd5b505af11580156132f4573d6000803e3d6000fd5b50505050600086604001516001600160a01b0316631f7ace096133638a60200160208101906133239190614ace565b61333060a08d018d6153b5565b600081811061334157613341615593565b90506020020160208101906133569190614ace565b610dc160a08e018e6153b5565b6040518263ffffffff1660e01b815260040161337f9190614f1e565b602060405180830381600087803b15801561339957600080fd5b505af11580156133ad573d6000803e3d6000fd5b505050506040513d601f19601f820116820180604052508101906133d19190614e0b565b905060006133f66133e860408b0160208c01614ace565b83610c0460a08d018d6153b5565b9050806001825161340791906154dd565b8151811061341757613417615593565b602002602001015184106134865761348161343860408b0160208c01614ace565b8261344660a08d018d6153b5565b8080602002602001604051908101604052809392919081815260200183836020028082843760009201919091525050505060608c0151612905565b613527565b6134a761349960408b0160208c01614ace565b82610f5a60a08d018d6153b5565b6134cd8860600151858a602001516001600160a01b0316612ac79092919063ffffffff16565b6065548151613527916001600160a01b031690869084906134f0906001906154dd565b8151811061350057613500615593565b602002602001015161351291906154dd565b60208b01516001600160a01b03169190612ac7565b60006135c089606001516001600160a01b03166371e578dc8c60400160208101906135529190614ace565b6040518263ffffffff1660e01b815260040161356e9190614f1e565b602060405180830381600087803b15801561358857600080fd5b505af115801561359c573d6000803e3d6000fd5b505050506040513d601f19601f82011682018060405250810190611ba09190614e0b565b89516001600160a01b031660009081526003890160205260409020805491925085916001906135fe90849061010090046001600160f81b03166154b5565b82546001600160f81b0391821661010093840a90810290830219909116179092556020808d01516001600160a01b0316600090815260038c019091526040902080548594509092600192613657928692919004166154b5565b92506101000a8154816001600160f81b0302191690836001600160f81b0316021790555060008051602061569a833981519152888a60000151868c6020015185604051612fff95949392919061532f565b803b61370c5760405162461bcd60e51b815260206004820152602d60248201527f455243313936373a206e657720696d706c656d656e746174696f6e206973206e60448201526c1bdd08184818dbdb9d1c9858dd609a1b60648201526084016104e1565b7f360894a13ba1a3210667c828492db98dca3e2076cc3735a920a3ca505d382bbc80546001600160a01b0319166001600160a01b0392909216919091179055565b6060823b6137ac5760405162461bcd60e51b815260206004820152602660248201527f416464726573733a2064656c65676174652063616c6c20746f206e6f6e2d636f6044820152651b9d1c9858dd60d21b60648201526084016104e1565b600080846001600160a01b0316846040516137c79190614f02565b600060405180830381855af49150503d8060008114613802576040519150601f19603f3d011682016040523d82523d6000602084013e613807565b606091505b509150915061382f82826040518060600160405280602781526020016156da60279139614874565b95945050505050565b613841816136a8565b6040516001600160a01b038216907fbc7cd75a20ee27fd9adebab32041f755214dbc6bffa90cc0225b39da2e5c2d3b90600090a250565b6060600282101561389b5760405162461bcd60e51b81526004016104e190615107565b816001600160401b038111156138b3576138b36155a9565b6040519080825280602002602001820160405280156138f857816020015b60408051808201909152600080825260208201528152602001906001900390816138d15790505b509050838160008151811061390f5761390f615593565b60200260200101516000018181525050838160008151811061393357613933615593565b6020026020010151602001818152505060005b6139516001846154dd565b811015613a7b576000806139bc8887878681811061397157613971615593565b90506020020160208101906139869190614ace565b888861399388600161545c565b8181106139a2576139a2615593565b90506020020160208101906139b79190614ace565b613a84565b915091506139e88484815181106139d5576139d5615593565b6020026020010151600001518383613b5d565b846139f485600161545c565b81518110613a0457613a04615593565b60200260200101516000018181525050613a3c848481518110613a2957613a29615593565b60200260200101516020015183836148ad565b84613a4885600161545c565b81518110613a5857613a58615593565b60200260200101516020018181525050505080613a749061554c565b9050613946565b50949350505050565b6000806000613a938585613c72565b509050600080613aa4888888612878565b6001600160a01b0316630902f1ac6040518163ffffffff1660e01b815260040160606040518083038186803b158015613adc57600080fd5b505afa158015613af0573d6000803e3d6000fd5b505050506040513d601f19601f82011682018060405250810190613b149190614da0565b506001600160701b031691506001600160701b03169150826001600160a01b0316876001600160a01b031614613b4b578082613b4e565b81815b90999098509650505050505050565b6000808411613bc25760405162461bcd60e51b815260206004820152602b60248201527f556e697377617056324c6962726172793a20494e53554646494349454e545f4960448201526a1394155517d05353d5539560aa1b60648201526084016104e1565b600083118015613bd25750600082115b613c2f5760405162461bcd60e51b815260206004820152602860248201527f556e697377617056324c6962726172793a20494e53554646494349454e545f4c604482015267495155494449545960c01b60648201526084016104e1565b6000613c3d856103e5615496565b90506000613c4b8483615496565b9050600082613c5c876103e8615496565b613c66919061545c565b90506126fa8183615474565b600080826001600160a01b0316846001600160a01b03161415613ce55760405162461bcd60e51b815260206004820152602560248201527f556e697377617056324c6962726172793a204944454e544943414c5f41444452604482015264455353455360d81b60648201526084016104e1565b826001600160a01b0316846001600160a01b031610613d05578284613d08565b83835b90925090506001600160a01b038216613d635760405162461bcd60e51b815260206004820152601e60248201527f556e697377617056324c6962726172793a205a45524f5f41444452455353000060448201526064016104e1565b9250929050565b6000613dbf826040518060400160405280602081526020017f5361666545524332303a206c6f772d6c6576656c2063616c6c206661696c6564815250856001600160a01b03166148c49092919063ffffffff16565b805190915015612b1d5780806020019051810190613ddd9190614c81565b612b1d5760405162461bcd60e51b815260206004820152602a60248201527f5361666545524332303a204552433230206f7065726174696f6e20646964206e6044820152691bdd081cdd58d8d9595960b21b60648201526084016104e1565b82516001600160a01b0316600090815260038301602052604080822081518083019092528054839283929091829060ff166001811115613e7e57613e7e61557d565b6001811115613e8f57613e8f61557d565b8152905461010090046001600160f81b031660209182015287516001600160a01b03166000908152600387019091526040808220815180830190925280549394509192909190829060ff166001811115613eeb57613eeb61557d565b6001811115613efc57613efc61557d565b8152905461010090046001600160f81b0316602091820152888101516001600160a01b03166000908152600389019091526040808220815180830190925280549394509192909190829060ff166001811115613f5a57613f5a61557d565b6001811115613f6b57613f6b61557d565b8152905461010090046001600160f81b0316602091820152898101516001600160a01b03166000908152600389019091526040808220815180830190925280549394509192909190829060ff166001811115613fc957613fc961557d565b6001811115613fda57613fda61557d565b8152905461010090046001600160f81b031660209091015290506000845160018111156140095761400961557d565b14801561402857506001835160018111156140265761402661557d565b145b801561404657506001825160018111156140445761404461557d565b145b801561406457506000815160018111156140625761406261557d565b145b6140805760405162461bcd60e51b81526004016104e190614fa1565b6140b161409e8b6060013586602001516001600160f81b03166148d3565b84602001516001600160f81b03166148d3565b95506140d782602001516001600160f81b031682602001516001600160f81b03166148d3565b945050505050600085608001516001600160a01b031663da0449be87600001516040518263ffffffff1660e01b81526004016141139190614f1e565b602060405180830381600087803b15801561412d57600080fd5b505af1158015614141573d6000803e3d6000fd5b505050506040513d601f19601f820116820180604052508101906141659190614e0b565b9050600086608001516001600160a01b031663da0449be88602001516040518263ffffffff1660e01b815260040161419d9190614f1e565b602060405180830381600087803b1580156141b757600080fd5b505af11580156141cb573d6000803e3d6000fd5b505050506040513d601f19601f820116820180604052508101906141ef9190614e0b565b60608801519091506000906001600160a01b0316636fb4e27261421860a08c0160808d01614ace565b866040518363ffffffff1660e01b8152600401614236929190614f5e565b604080518083038186803b15801561424d57600080fd5b505afa158015614261573d6000803e3d6000fd5b505050506040513d601f19601f820116820180604052508101906142859190614ccd565b60200151905060008261429c600160701b84615496565b6142a69190615474565b90506000600160701b6142b98684615496565b6142c39190615474565b9050614350878b604001516001600160a01b031663ee304877846040518263ffffffff1660e01b81526004016142fb91815260200190565b60206040518083038186803b15801561431357600080fd5b505afa158015614327573d6000803e3d6000fd5b505050506040513d601f19601f8201168201806040525081019061434b9190614e0b565b6148d3565b9650505050600087604001516001600160a01b0316636fb4e2728a604001602081019061437d9190614ace565b876040518363ffffffff1660e01b815260040161439b929190614f5e565b604080518083038186803b1580156143b257600080fd5b505afa1580156143c6573d6000803e3d6000fd5b505050506040513d601f19601f820116820180604052508101906143ea9190614ccd565b602001519050600083614401600160701b84615496565b61440b9190615474565b90506000600160701b61441e8584615496565b6144289190615474565b9050614460868b606001516001600160a01b031663ee304877846040518263ffffffff1660e01b81526004016142fb91815260200190565b9550505050505094509492505050565b81516001600160a01b03908116600090815260038301602090815260408083209186015190931682529181209091829182825460ff1660018111156144b7576144b761557d565b1480156144d957506001815460ff1660018111156144d7576144d761557d565b145b6144f55760405162461bcd60e51b81526004016104e190614fa1565b81546145149060608901359061010090046001600160f81b03166148d3565b60808701518751604051636d0224df60e11b81529296506000926001600160a01b039092169163da0449be9161454c91600401614f1e565b602060405180830381600087803b15801561456657600080fd5b505af115801561457a573d6000803e3d6000fd5b505050506040513d601f19601f8201168201806040525081019061459e9190614e0b565b9050600087608001516001600160a01b031663da0449be89602001516040518263ffffffff1660e01b81526004016145d69190614f1e565b602060405180830381600087803b1580156145f057600080fd5b505af1158015614604573d6000803e3d6000fd5b505050506040513d601f19601f820116820180604052508101906146289190614e0b565b905087606001516001600160a01b0316636fb4e2728a60400160208101906146509190614ace565b855460405160e084901b6001600160e01b03191681526001600160a01b03909216600483015261010090046001600160f81b03166024820152604401604080518083038186803b1580156146a357600080fd5b505afa1580156146b7573d6000803e3d6000fd5b505050506040513d601f19601f820116820180604052508101906146db9190614ccd565b6020015194506000816146f2600160701b88615496565b6146fc9190615474565b90506000600160701b61470f8584615496565b6147199190615474565b9050614751888b604001516001600160a01b031663ee304877846040518263ffffffff1660e01b81526004016142fb91815260200190565b97505050600088604001516001600160a01b0316636fb4e2728b604001602081019061477d9190614ace565b896040518363ffffffff1660e01b815260040161479b929190614f5e565b604080518083038186803b1580156147b257600080fd5b505afa1580156147c6573d6000803e3d6000fd5b505050506040513d601f19601f820116820180604052508101906147ea9190614ccd565b905060006148106147fe60208d018d614ace565b6020840151610b8660a08f018f6153b5565b606554909150600090600160a01b900461ffff166127106148318285612705565b61483b9190615496565b6148459190615474565b835190915081906148599061271090615496565b6148639190615474565b985050505050505050935093915050565b60608315614883575081612717565b8251156148935782518084602001fd5b8160405162461bcd60e51b81526004016104e19190614f8e565b6000826148ba8386615496565b6128fd9190615474565b60606128fd84846000856148e2565b60008183106127155781612717565b6060824710156149435760405162461bcd60e51b815260206004820152602660248201527f416464726573733a20696e73756666696369656e742062616c616e636520666f6044820152651c8818d85b1b60d21b60648201526084016104e1565b843b6149915760405162461bcd60e51b815260206004820152601d60248201527f416464726573733a2063616c6c20746f206e6f6e2d636f6e747261637400000060448201526064016104e1565b600080866001600160a01b031685876040516149ad9190614f02565b60006040518083038185875af1925050503d80600081146149ea576040519150601f19603f3d011682016040523d82523d6000602084013e6149ef565b606091505b50915091506126fa828286614874565b508054600082559060005260206000209081019061060791905b80821115612b6f5760008155600101614a19565b60008083601f840112614a3f57600080fd5b5081356001600160401b03811115614a5657600080fd5b6020830191508360208260051b8501011115613d6357600080fd5b600060c08284031215614a8357600080fd5b50919050565b80516001600160701b0381168114614aa057600080fd5b919050565b803561ffff81168114614aa057600080fd5b80356001600160401b0381168114614aa057600080fd5b600060208284031215614ae057600080fd5b813561271781615664565b600060208284031215614afd57600080fd5b815161271781615664565b60008060008060808587031215614b1e57600080fd5b8435614b2981615664565b93506020850135614b3981615664565b9250614b4760408601614ab7565b9150614b5560608601614aa5565b905092959194509250565b60008060408385031215614b7357600080fd5b8235614b7e81615664565b91506020838101356001600160401b0380821115614b9b57600080fd5b818601915086601f830112614baf57600080fd5b813581811115614bc157614bc16155a9565b6040519150614bd9601f8201601f1916850183615520565b8082528784828501011115614bed57600080fd5b80848401858401376000848284010152508093505050509250929050565b600080600060608486031215614c2057600080fd5b8335614c2b81615664565b95602085013595506040909401359392505050565b60008060208385031215614c5357600080fd5b82356001600160401b03811115614c6957600080fd5b614c7585828601614a2d565b90969095509350505050565b600060208284031215614c9357600080fd5b8151801515811461271757600080fd5b600060208284031215614cb557600080fd5b81356001600160e01b03198116811461271757600080fd5b600060408284031215614cdf57600080fd5b604051604081018181106001600160401b0382111715614d0157614d016155a9565b604052825181526020928301519281019290925250919050565b60008060408385031215614d2e57600080fd5b82356001600160401b03811115614d4457600080fd5b614d5085828601614a71565b9250506020830135614d6181615664565b809150509250929050565b600060208284031215614d7e57600080fd5b81356001600160401b03811115614d9457600080fd5b6128fd84828501614a71565b600080600060608486031215614db557600080fd5b614dbe84614a89565b9250614dcc60208501614a89565b9150604084015163ffffffff81168114614de557600080fd5b809150509250925092565b600060208284031215614e0257600080fd5b61271782614aa5565b600060208284031215614e1d57600080fd5b5051919050565b60008060008060808587031215614e3a57600080fd5b843593506020850135614e4c81615664565b925060408501359150606085013560028110614e6757600080fd5b939692955090935050565b600060208284031215614e8457600080fd5b61271782614ab7565b8183526000602080850194508260005b85811015614ecb578135614eb081615664565b6001600160a01b031687529582019590820190600101614e9d565b509495945050505050565b60008151808452614eee8160208601602086016154f4565b601f01601f19169290920160200192915050565b60008251614f148184602087016154f4565b9190910192915050565b6001600160a01b0391909116815260200190565b6001600160a01b0393841681529190921660208201526001600160f81b03909116604082015260600190565b6001600160a01b03929092168252602082015260400190565b9182526001600160a01b0316602082015260400190565b6020815260006127176020830184614ed6565b6020808252600d908201526c4f7264657265723a205349444560981b604082015260600190565b60208082526012908201527127b93232b932b91d102327a92124a22222a760711b604082015260600190565b60208082526010908201526f13dc99195c995c8e881156141254915160821b604082015260600190565b6020808252602c908201527f46756e6374696f6e206d7573742062652063616c6c6564207468726f7567682060408201526b19195b1959d85d1958d85b1b60a21b606082015260800190565b6020808252600d908201526c4f7264657265723a205a45524f60981b604082015260600190565b6020808252602c908201527f46756e6374696f6e206d7573742062652063616c6c6564207468726f7567682060408201526b6163746976652070726f787960a01b606082015260800190565b60208082526010908201526f13dc99195c995c8e881253959053125160821b604082015260600190565b6020808252601e908201527f556e697377617056324c6962726172793a20494e56414c49445f504154480000604082015260600190565b6020808252600f908201526e09ee4c8cae4cae47440988a9c8ea89608b1b604082015260600190565b604081526000833561517881615664565b6001600160a01b03908116604084015260208501359061519782615664565b90811660608401526040850135906151ae82615664565b8082166080850152606086013560a0850152608086013591506151d082615664565b80821660c08501526151e560a0870187615414565b925060c060e08601526151fd61010086018483614e8d565b935050808516602085015250509392505050565b6000602080835260608084018551838601528286015160408081880152828251808552608089019150868401945060009350835b8181101561529757855180516001600160a01b03168452888101516002811061527c57634e487b7160e01b87526021600452602487fd5b848a0152840151848401529487019491860191600101615245565b50909998505050505050505050565b60208152600082356152b781615664565b6001600160a01b03908116602084810191909152840135906152d882615664565b8082166040850152604085013591506152f082615664565b8082166060850152505060608301356080830152608083013560a083015261531b60a0840184615414565b60c08085015261382f60e085018284614e8d565b9485526001600160a01b0393841660208601526001600160f81b0392831660408601529216606084015216608082015260a00190565b8281526040602082015260006128fd6040830184614ed6565b84815283602082015260018060a01b03831660408201526080606082015260006153ab6080830184614ed6565b9695505050505050565b6000808335601e198436030181126153cc57600080fd5b8301803591506001600160401b038211156153e657600080fd5b6020019150600581901b3603821315613d6357600080fd5b6000823560be19833603018112614f1457600080fd5b6000808335601e1984360301811261542b57600080fd5b83016020810192503590506001600160401b0381111561544a57600080fd5b8060051b3603831315613d6357600080fd5b6000821982111561546f5761546f615567565b500190565b60008261549157634e487b7160e01b600052601260045260246000fd5b500490565b60008160001904831182151516156154b0576154b0615567565b500290565b60006001600160f81b03838116908316818110156154d5576154d5615567565b039392505050565b6000828210156154ef576154ef615567565b500390565b60005b8381101561550f5781810151838201526020016154f7565b838111156115055750506000910152565b601f8201601f191681016001600160401b0381118282101715615545576155456155a9565b6040525050565b600060001982141561556057615560615567565b5060010190565b634e487b7160e01b600052601160045260246000fd5b634e487b7160e01b600052602160045260246000fd5b634e487b7160e01b600052603260045260246000fd5b634e487b7160e01b600052604160045260246000fd5b600060033d11156155d85760046000803e5060005160e01c5b90565b600060443d10156155e95790565b6040516003193d81016004833e81513d6001600160401b03816024840111818411171561561857505050505090565b82850191508151818111156156305750505050505090565b843d870101602082850101111561564a5750505050505090565b61565960208286010187615520565b509095945050505050565b6001600160a01b038116811461060757600080fdfe814bff3139cf413df8a20ec16dddf043f183d329edac6a29a6dd46e9f146cf4657bc7d7c077f82e609e47fb99bb6a65dce92a2148dbc469851fe02b0a1538761766aece2fe0909e4a1f0fe06a20b32886c389ee499ca4246e7e1b80b53562a84416464726573733a206c6f772d6c6576656c2064656c65676174652063616c6c206661696c6564a2646970667358221220c4408f7a84237e4b0ccb2b1b776050ad854b85739d5f075640eb91622e9f02b464736f6c63430008070033",
  "linkReferences": {},
  "deployedLinkReferences": {}
}