{
  "_format": "hh-sol-artifact-1",
  "contractName": "StaticIndex",
  "sourceName": "contracts/StaticIndex.sol",
  "abi": [
    {
      "inputs": [],
      "stateMutability": "nonpayable",
      "type": "constructor"
    },
    {
      "anonymous": false,
      "inputs": [
        {
          "indexed": true,
          "internalType": "address",
          "name": "owner",
          "type": "address"
        },
        {
          "indexed": true,
          "internalType": "address",
          "name": "spender",
          "type": "address"
        },
        {
          "indexed": false,
          "internalType": "uint256",
          "name": "value",
          "type": "uint256"
        }
      ],
      "name": "Approval",
      "type": "event"
    },
    {
      "anonymous": false,
      "inputs": [
        {
          "indexed": true,
          "internalType": "address",
          "name": "from",
          "type": "address"
        },
        {
          "indexed": true,
          "internalType": "address",
          "name": "to",
          "type": "address"
        },
        {
          "indexed": false,
          "internalType": "uint256",
          "name": "value",
          "type": "uint256"
        }
      ],
      "name": "Transfer",
      "type": "event"
    },
    {
      "inputs": [],
      "name": "DOMAIN_SEPARATOR",
      "outputs": [
        {
          "internalType": "bytes32",
          "name": "",
          "type": "bytes32"
        }
      ],
      "stateMutability": "view",
      "type": "function"
    },
    {
      "inputs": [],
      "name": "PERMIT_TYPEHASH",
      "outputs": [
        {
          "internalType": "bytes32",
          "name": "",
          "type": "bytes32"
        }
      ],
      "stateMutability": "view",
      "type": "function"
    },
    {
      "inputs": [],
      "name": "V_TOKEN_TYPE",
      "outputs": [
        {
          "internalType": "bytes32",
          "name": "",
          "type": "bytes32"
        }
      ],
      "stateMutability": "view",
      "type": "function"
    },
    {
      "inputs": [
        {
          "internalType": "address",
          "name": "",
          "type": "address"
        },
        {
          "internalType": "address",
          "name": "",
          "type": "address"
        }
      ],
      "name": "allowance",
      "outputs": [
        {
          "internalType": "uint256",
          "name": "",
          "type": "uint256"
        }
      ],
      "stateMutability": "view",
      "type": "function"
    },
    {
      "inputs": [
        {
          "internalType": "uint256",
          "name": "_offset",
          "type": "uint256"
        },
        {
          "internalType": "uint256",
          "name": "_count",
          "type": "uint256"
        }
      ],
      "name": "anatomyForRange",
      "outputs": [
        {
          "internalType": "address[]",
          "name": "_assets",
          "type": "address[]"
        },
        {
          "internalType": "uint8[]",
          "name": "_weights",
          "type": "uint8[]"
        }
      ],
      "stateMutability": "view",
      "type": "function"
    },
    {
      "inputs": [
        {
          "internalType": "address",
          "name": "spender",
          "type": "address"
        },
        {
          "internalType": "uint256",
          "name": "value",
          "type": "uint256"
        }
      ],
      "name": "approve",
      "outputs": [
        {
          "internalType": "bool",
          "name": "",
          "type": "bool"
        }
      ],
      "stateMutability": "nonpayable",
      "type": "function"
    },
    {
      "inputs": [
        {
          "internalType": "address",
          "name": "",
          "type": "address"
        }
      ],
      "name": "balanceOf",
      "outputs": [
        {
          "internalType": "uint256",
          "name": "",
          "type": "uint256"
        }
      ],
      "stateMutability": "view",
      "type": "function"
    },
    {
      "inputs": [
        {
          "internalType": "address",
          "name": "_recipient",
          "type": "address"
        }
      ],
      "name": "burn",
      "outputs": [],
      "stateMutability": "nonpayable",
      "type": "function"
    },
    {
      "inputs": [],
      "name": "decimals",
      "outputs": [
        {
          "internalType": "uint8",
          "name": "",
          "type": "uint8"
        }
      ],
      "stateMutability": "view",
      "type": "function"
    },
    {
      "inputs": [],
      "name": "factory",
      "outputs": [
        {
          "internalType": "address",
          "name": "",
          "type": "address"
        }
      ],
      "stateMutability": "view",
      "type": "function"
    },
    {
      "inputs": [],
      "name": "getAssetCount",
      "outputs": [
        {
          "internalType": "uint256",
          "name": "",
          "type": "uint256"
        }
      ],
      "stateMutability": "view",
      "type": "function"
    },
    {
      "inputs": [
        {
          "internalType": "address[]",
          "name": "_assets",
          "type": "address[]"
        },
        {
          "internalType": "uint8[]",
          "name": "_weights",
          "type": "uint8[]"
        }
      ],
      "name": "initialize",
      "outputs": [],
      "stateMutability": "nonpayable",
      "type": "function"
    },
    {
      "inputs": [
        {
          "internalType": "address",
          "name": "_recipient",
          "type": "address"
        }
      ],
      "name": "mint",
      "outputs": [],
      "stateMutability": "nonpayable",
      "type": "function"
    },
    {
      "inputs": [],
      "name": "name",
      "outputs": [
        {
          "internalType": "string",
          "name": "",
          "type": "string"
        }
      ],
      "stateMutability": "view",
      "type": "function"
    },
    {
      "inputs": [
        {
          "internalType": "address",
          "name": "",
          "type": "address"
        }
      ],
      "name": "nonces",
      "outputs": [
        {
          "internalType": "uint256",
          "name": "",
          "type": "uint256"
        }
      ],
      "stateMutability": "view",
      "type": "function"
    },
    {
      "inputs": [
        {
          "internalType": "address",
          "name": "owner",
          "type": "address"
        },
        {
          "internalType": "address",
          "name": "spender",
          "type": "address"
        },
        {
          "internalType": "uint256",
          "name": "value",
          "type": "uint256"
        },
        {
          "internalType": "uint256",
          "name": "deadline",
          "type": "uint256"
        },
        {
          "internalType": "uint8",
          "name": "v",
          "type": "uint8"
        },
        {
          "internalType": "bytes32",
          "name": "r",
          "type": "bytes32"
        },
        {
          "internalType": "bytes32",
          "name": "s",
          "type": "bytes32"
        }
      ],
      "name": "permit",
      "outputs": [],
      "stateMutability": "nonpayable",
      "type": "function"
    },
    {
      "inputs": [],
      "name": "registry",
      "outputs": [
        {
          "internalType": "address",
          "name": "",
          "type": "address"
        }
      ],
      "stateMutability": "view",
      "type": "function"
    },
    {
      "inputs": [],
      "name": "symbol",
      "outputs": [
        {
          "internalType": "string",
          "name": "",
          "type": "string"
        }
      ],
      "stateMutability": "view",
      "type": "function"
    },
    {
      "inputs": [],
      "name": "totalSupply",
      "outputs": [
        {
          "internalType": "uint256",
          "name": "",
          "type": "uint256"
        }
      ],
      "stateMutability": "view",
      "type": "function"
    },
    {
      "inputs": [
        {
          "internalType": "address",
          "name": "to",
          "type": "address"
        },
        {
          "internalType": "uint256",
          "name": "value",
          "type": "uint256"
        }
      ],
      "name": "transfer",
      "outputs": [
        {
          "internalType": "bool",
          "name": "",
          "type": "bool"
        }
      ],
      "stateMutability": "nonpayable",
      "type": "function"
    },
    {
      "inputs": [
        {
          "internalType": "address",
          "name": "from",
          "type": "address"
        },
        {
          "internalType": "address",
          "name": "to",
          "type": "address"
        },
        {
          "internalType": "uint256",
          "name": "value",
          "type": "uint256"
        }
      ],
      "name": "transferFrom",
      "outputs": [
        {
          "internalType": "bool",
          "name": "",
          "type": "bool"
        }
      ],
      "stateMutability": "nonpayable",
      "type": "function"
    },
    {
      "inputs": [],
      "name": "vTokenFactory",
      "outputs": [
        {
          "internalType": "address",
          "name": "",
          "type": "address"
        }
      ],
      "stateMutability": "view",
      "type": "function"
    }
  ],
  "bytecode": "0x60e06040526000805460ff191660121790553480156200001e57600080fd5b50600160055533606081901b6080524260065560408051637b10399960e01b815290518291637b103999916004808301926020929190829003018186803b1580156200006957600080fd5b505afa1580156200007e573d6000803e3d6000fd5b505050506040513d601f19601f82011682018060405250810190620000a491906200014c565b6001600160a01b031660c0816001600160a01b031660601b81525050806001600160a01b03166328dd99126040518163ffffffff1660e01b815260040160206040518083038186803b158015620000fa57600080fd5b505afa1580156200010f573d6000803e3d6000fd5b505050506040513d601f19601f820116820180604052508101906200013591906200014c565b60601b6001600160601b03191660a052506200017e565b6000602082840312156200015f57600080fd5b81516001600160a01b03811681146200017757600080fd5b9392505050565b60805160601c60a05160601c60c05160601c612511620002196000396000818161028f015281816103ae0152818161074e015281816107ec0152818161091401528181610fd8015281816110e70152818161125d0152818161160c015261197a0152600081816101d801528181610afa015261135301526000818161030c0152818161187501528181611aec0152611b4901526125116000f3fe608060405234801561001057600080fd5b50600436106101425760003560e01c80637b103999116100b8578063a9059cbb1161007c578063a9059cbb146102f4578063c45a015514610307578063d505accf1461032e578063dc18ed2614610341578063dd62ed3e14610356578063fe1de1f31461038157600080fd5b80637b1039991461028a5780637ecebe00146102b157806389afcb44146102d157806395d89b41146102e4578063a0aead4d146102ec57600080fd5b806328dd99121161010a57806328dd9912146101d357806330adf81f14610207578063313ce5671461022e5780633644e5151461024d5780636a6278421461025557806370a082311461026a57600080fd5b806306fdde0314610147578063095ea7b31461016557806318160ddd146101885780631a7bc0131461019f57806323b872dd146101c0575b600080fd5b61014f610394565b60405161015c91906122d1565b60405180910390f35b610178610173366004612040565b61043c565b604051901515815260200161015c565b61019160015481565b60405190815260200161015c565b6101b26101ad3660046121e4565b610452565b60405161015c929190612233565b6101786101ce366004611f88565b6105f3565b6101fa7f000000000000000000000000000000000000000000000000000000000000000081565b60405161015c9190612206565b6101917f6e71edae12b1b97f4d1f60370fef10105fa2faae0126114a169c64845d6126c981565b60005461023b9060ff1681565b60405160ff909116815260200161015c565b61019161066d565b610268610263366004611f15565b610716565b005b610191610278366004611f15565b60026020526000908152604090205481565b6101fa7f000000000000000000000000000000000000000000000000000000000000000081565b6101916102bf366004611f15565b60046020526000908152604090205481565b6102686102df366004611f15565b610f70565b61014f6115f2565b600754610191565b610178610302366004612040565b611641565b6101fa7f000000000000000000000000000000000000000000000000000000000000000081565b61026861033c366004611fc9565b61164e565b6101916000805160206124bc83398151915281565b610191610364366004611f4f565b600360209081526000928352604080842090915290825290205481565b61026861038f36600461206c565b61186a565b60405163ed3b559f60e01b81526060906001600160a01b037f0000000000000000000000000000000000000000000000000000000000000000169063ed3b559f906103e3903090600401612206565b60006040518083038186803b1580156103fb57600080fd5b505afa15801561040f573d6000803e3d6000fd5b505050506040513d6000823e601f3d908101601f1916820160405261043791908101906120fa565b905090565b60006104493384846118fb565b50600192915050565b600754606090819084101561047e57600754610479906104739086906123c9565b8461195d565b610481565b60005b67ffffffffffffffff8111156104995761049961246d565b6040519080825280602002602001820160405280156104c2578160200160208202803683370190505b509150815167ffffffffffffffff8111156104df576104df61246d565b604051908082528060200260200182016040528015610508578160200160208202803683370190505b50905060005b82518110156105eb5760076105238287612370565b8154811061053357610533612457565b9060005260206000200160009054906101000a90046001600160a01b031683828151811061056357610563612457565b6001600160a01b039092166020928302919091019091015260086105878287612370565b8154811061059757610597612457565b90600052602060002090602091828204019190069054906101000a900460ff168282815181106105c9576105c9612457565b60ff909216602092830291909101909101526105e481612410565b905061050e565b509250929050565b6001600160a01b038316600090815260036020908152604080832033845290915281205460001914610658576001600160a01b0384166000908152600360209081526040808320338452909152812080548492906106529084906123c9565b90915550505b610663848484611975565b5060019392505050565b60007f8b73c3c69bb8fe3d512ecc4cf759cc79239f7b179b0ffacaa9a75d522b39400f610698610394565b805160209182012060408051808201825260018152603160f81b90840152805192830193909352918101919091527fc89efdaa54c0f20c7adf612882df0950f5a951637e0307cdcb4c672f298b8bc660608201524660808201523060a082015260c00160405160208183030381529060405280519060200120905090565b600260055414156107425760405162461bcd60e51b815260040161073990612339565b60405180910390fd5b600260058190555060007f00000000000000000000000000000000000000000000000000000000000000006001600160a01b031663ae2e933b6040518163ffffffff1660e01b815260040160206040518083038186803b1580156107a557600080fd5b505afa1580156107b9573d6000803e3d6000fd5b505050506040513d601f19601f820116820180604052508101906107dd9190611f32565b90506107e881611a1e565b60007f00000000000000000000000000000000000000000000000000000000000000006001600160a01b0316632630c12f6040518163ffffffff1660e01b815260040160206040518083038186803b15801561084357600080fd5b505afa158015610857573d6000803e3d6000fd5b505050506040513d601f19601f8201168201806040525081019061087b9190611f32565b90506000826001600160a01b0316635ad88c1a306040518263ffffffff1660e01b81526004016108ab9190612206565b60206040518083038186803b1580156108c357600080fd5b505afa1580156108d7573d6000803e3d6000fd5b505050506040513d601f19601f820116820180604052508101906108fb91906121a7565b61ffff1690506000600019815b600754811015610ebe577f00000000000000000000000000000000000000000000000000000000000000006001600160a01b03166391d148547f86d5cf0a6bdc8d859ba3bdc97043337c82a0e609035f378e419298b6a3e00ae66007848154811061097557610975612457565b6000918252602090912001546040516001600160e01b031960e085901b1681526109ac92916001600160a01b0316906004016122ba565b60206040518083038186803b1580156109c457600080fd5b505afa1580156109d8573d6000803e3d6000fd5b505050506040513d601f19601f820116820180604052508101906109fc91906120d8565b610a485760405162461bcd60e51b815260206004820152601a60248201527f537461746963496e6465783a20494e56414c49445f41535345540000000000006044820152606401610739565b6000856001600160a01b031663da0449be60078481548110610a6c57610a6c612457565b6000918252602090912001546040516001600160e01b031960e084901b168152610aa2916001600160a01b031690600401612206565b602060405180830381600087803b158015610abc57600080fd5b505af1158015610ad0573d6000803e3d6000fd5b505050506040513d601f19601f82011682018060405250810190610af491906121cb565b905060007f00000000000000000000000000000000000000000000000000000000000000006001600160a01b031663af86dd4660078581548110610b3a57610b3a612457565b6000918252602090912001546040516001600160e01b031960e084901b168152610b80916001600160a01b0316906000805160206124bc8339815191529060040161221a565b602060405180830381600087803b158015610b9a57600080fd5b505af1158015610bae573d6000803e3d6000fd5b505050506040513d601f19601f82011682018060405250810190610bd29190611f32565b90506000816001600160a01b0316638f1c56bd6040518163ffffffff1660e01b815260040160206040518083038186803b158015610c0f57600080fd5b505afa158015610c23573d6000803e3d6000fd5b505050506040513d601f19601f82011682018060405250810190610c4791906121cb565b60078581548110610c5a57610c5a612457565b6000918252602090912001546040516370a0823160e01b81526001600160a01b03909116906370a0823190610c93908690600401612206565b60206040518083038186803b158015610cab57600080fd5b505afa158015610cbf573d6000803e3d6000fd5b505050506040513d601f19601f82011682018060405250810190610ce391906121cb565b610ced91906123c9565b9050600060088581548110610d0457610d04612457565b600091825260209182902091810490910154610d2c91601f166101000a900460ff16856123aa565b905060008160ff610d41600160701b866123aa565b610d4b91906123aa565b610d559190612388565b905086811015610d63578096505b604051622f4f0f60ea1b81526000906001600160a01b0386169063bd3c3c0090610d91903090600401612206565b60206040518083038186803b158015610da957600080fd5b505afa158015610dbd573d6000803e3d6000fd5b505050506040513d601f19601f82011682018060405250810190610de191906121cb565b9050846001600160a01b0316631249c58b6040518163ffffffff1660e01b8152600401602060405180830381600087803b158015610e1e57600080fd5b505af1158015610e32573d6000803e3d6000fd5b505050506040513d601f19601f82011682018060405250810190610e5691906121cb565b506000612710610e668c876123aa565b610e709190612388565b610e7a9083612370565b9050600087610e8d600160701b846123aa565b610e979190612388565b9050610ea3818c612370565b9a50505050505050505080610eb790612410565b9050610908565b50600019811415610ed157610ed161242b565b6000600154600014610f1d5760008311610efd5760405162461bcd60e51b815260040161073990612304565b8260015483610f0c91906123aa565b610f169190612388565b9050610f38565b610f29612710836123c9565b9050610f386000612710611b78565b60008111610f585760405162461bcd60e51b815260040161073990612304565b610f628782611b78565b505060016005555050505050565b60026005541415610f935760405162461bcd60e51b815260040161073990612339565b60026005819055306000908152602091909152604090205480610fc85760405162461bcd60e51b815260040161073990612304565b6000805b6007548110156110dd577f00000000000000000000000000000000000000000000000000000000000000006001600160a01b03166391d148547f86d5cf0a6bdc8d859ba3bdc97043337c82a0e609035f378e419298b6a3e00ae66007848154811061103957611039612457565b6000918252602090912001546040516001600160e01b031960e085901b16815261107092916001600160a01b0316906004016122ba565b60206040518083038186803b15801561108857600080fd5b505afa15801561109c573d6000803e3d6000fd5b505050506040513d601f19601f820116820180604052508101906110c091906120d8565b6110cd57600191506110dd565b6110d681612410565b9050610fcc565b50806112465760007f00000000000000000000000000000000000000000000000000000000000000006001600160a01b031663ae2e933b6040518163ffffffff1660e01b815260040160206040518083038186803b15801561113e57600080fd5b505afa158015611152573d6000803e3d6000fd5b505050506040513d601f19601f820116820180604052508101906111769190611f32565b9050600061271061ffff1684836001600160a01b031663a7853436306040518263ffffffff1660e01b81526004016111ae9190612206565b60206040518083038186803b1580156111c657600080fd5b505afa1580156111da573d6000803e3d6000fd5b505050506040513d601f19601f820116820180604052508101906111fe91906121a7565b61ffff1661120c91906123aa565b6112169190612388565b9050801561123a57611229308383611975565b61123381856123c9565b9350611243565b61124382611a1e565b50505b60005b6007548110156115dd5781801561134557507f00000000000000000000000000000000000000000000000000000000000000006001600160a01b03166391d148547f4963dcfd342c3f63bd1b992afc723ae72706277470d47567f30dfc6dcee9f11e600784815481106112be576112be612457565b6000918252602090912001546040516001600160e01b031960e085901b1681526112f592916001600160a01b0316906004016122ba565b60206040518083038186803b15801561130d57600080fd5b505afa158015611321573d6000803e3d6000fd5b505050506040513d601f19601f8201168201806040525081019061134591906120d8565b1561134f576115cd565b60007f00000000000000000000000000000000000000000000000000000000000000006001600160a01b031663af86dd466007848154811061139357611393612457565b6000918252602090912001546040516001600160e01b031960e084901b1681526113d9916001600160a01b0316906000805160206124bc8339815191529060040161221a565b602060405180830381600087803b1580156113f357600080fd5b505af1158015611407573d6000803e3d6000fd5b505050506040513d601f19601f8201168201806040525081019061142b9190611f32565b90506000816001600160a01b03166370a08231306040518263ffffffff1660e01b815260040161145b9190612206565b60206040518083038186803b15801561147357600080fd5b505afa158015611487573d6000803e3d6000fd5b505050506040513d601f19601f820116820180604052508101906114ab91906121cb565b9050600060015482876114be91906123aa565b6114c89190612388565b9050600081116114ea5760405162461bcd60e51b815260040161073990612304565b60405163a9059cbb60e01b81526001600160a01b0384169063a9059cbb90611518908690859060040161221a565b600060405180830381600087803b15801561153257600080fd5b505af1158015611546573d6000803e3d6000fd5b505060405163226bf2d160e21b81526001600160a01b03861692506389afcb449150611576908a90600401612206565b602060405180830381600087803b15801561159057600080fd5b505af11580156115a4573d6000803e3d6000fd5b505050506040513d601f19601f820116820180604052508101906115c891906121cb565b505050505b6115d681612410565b9050611249565b506115e83083611bf2565b5050600160055550565b60405163554f94ab60e01b81526060906001600160a01b037f0000000000000000000000000000000000000000000000000000000000000000169063554f94ab906103e3903090600401612206565b6000610449338484611975565b428410156116965760405162461bcd60e51b8152602060048201526015602482015274141a1d5d1d5c99515490cc8c0e8811561412549151605a1b6044820152606401610739565b60006116a061066d565b6001600160a01b038916600090815260046020526040812080547f6e71edae12b1b97f4d1f60370fef10105fa2faae0126114a169c64845d6126c9928c928c928c929091906116ee83612410565b909155506040805160208101969096526001600160a01b0394851690860152929091166060840152608083015260a082015260c0810187905260e0016040516020818303038152906040528051906020012060405160200161176792919061190160f01b81526002810192909252602282015260420190565b60408051601f198184030181528282528051602091820120600080855291840180845281905260ff88169284019290925260608301869052608083018590529092509060019060a0016020604051602081039080840390855afa1580156117d2573d6000803e3d6000fd5b5050604051601f1901519150506001600160a01b038116158015906118085750886001600160a01b0316816001600160a01b0316145b6118545760405162461bcd60e51b815260206004820152601f60248201527f5068757475726545524332303a20494e56414c49445f5349474e4154555245006044820152606401610739565b61185f8989896118fb565b505050505050505050565b336001600160a01b037f000000000000000000000000000000000000000000000000000000000000000016146118db5760405162461bcd60e51b815260206004820152601660248201527529ba30ba34b1a4b73232bc1d102327a92124a22222a760511b6044820152606401610739565b6118e760078585611db1565b506118f460088383611e14565b5050505050565b6001600160a01b0383811660008181526003602090815260408083209487168084529482529182902085905590518481527f8c5be1e5ebec7d5bd14f71427d1e84f3dd0314c0f7b2291e5b200ac8c7c3b92591015b60405180910390a3505050565b600081831061196c578161196e565b825b9392505050565b611a0e7f00000000000000000000000000000000000000000000000000000000000000006001600160a01b031663ae2e933b6040518163ffffffff1660e01b815260040160206040518083038186803b1580156119d157600080fd5b505afa1580156119e5573d6000803e3d6000fd5b505050506040513d601f19601f82011682018060405250810190611a099190611f32565b611a1e565b611a19838383611c64565b505050565b600060065442611a2e91906123c9565b90508015611b745760006b033b2e3c9fd0803ce800000080611ad8856001600160a01b0316635612e00b306040518263ffffffff1660e01b8152600401611a759190612206565b60206040518083038186803b158015611a8d57600080fd5b505afa158015611aa1573d6000803e3d6000fd5b505050506040513d601f19601f82011682018060405250810190611ac591906121cb565b856b033b2e3c9fd0803ce8000000611cf3565b611ae291906123c9565b6001600160a01b037f000000000000000000000000000000000000000000000000000000000000000016600090815260026020526040902054600154611b2891906123c9565b611b3291906123aa565b611b3c9190612388565b90508015611a1957611b6e7f000000000000000000000000000000000000000000000000000000000000000082611b78565b42600655505b5050565b6001600160a01b03821660009081526002602052604081208054839290611ba0908490612370565b925050819055508060016000828254611bb99190612370565b90915550506040518181526001600160a01b0383169060009060008051602061249c833981519152906020015b60405180910390a35050565b6001600160a01b03821660009081526002602052604081208054839290611c1a9084906123c9565b925050819055508060016000828254611c3391906123c9565b90915550506040518181526000906001600160a01b0384169060008051602061249c83398151915290602001611be6565b6001600160a01b03831660009081526002602052604081208054839290611c8c9084906123c9565b90915550506001600160a01b03821660009081526002602052604081208054839290611cb9908490612370565b92505081905550816001600160a01b0316836001600160a01b031660008051602061249c8339815191528360405161195091815260200190565b6000838015611d9357600184168015611d0e57859250611d12565b8392505b50600283046002850494505b8415611d8d578586028687820414611d3557600080fd5b81810181811015611d4557600080fd5b8590049650506001851615611d82578583028387820414158715151615611d6b57600080fd5b81810181811015611d7b57600080fd5b8590049350505b600285049450611d1e565b50611da9565b838015611da35760009250611da7565b8392505b505b509392505050565b828054828255906000526020600020908101928215611e04579160200282015b82811115611e045781546001600160a01b0319166001600160a01b03843516178255602090920191600190910190611dd1565b50611e10929150611eb4565b5090565b82805482825590600052602060002090601f01602090048101928215611e045791602002820160005b83821115611e7e57833560ff1683826101000a81548160ff021916908360ff1602179055509260200192600101602081600001049283019260010302611e3d565b8015611eab5782816101000a81549060ff0219169055600101602081600001049283019260010302611e7e565b5050611e109291505b5b80821115611e105760008155600101611eb5565b60008083601f840112611edb57600080fd5b50813567ffffffffffffffff811115611ef357600080fd5b6020830191508360208260051b8501011115611f0e57600080fd5b9250929050565b600060208284031215611f2757600080fd5b813561196e81612483565b600060208284031215611f4457600080fd5b815161196e81612483565b60008060408385031215611f6257600080fd5b8235611f6d81612483565b91506020830135611f7d81612483565b809150509250929050565b600080600060608486031215611f9d57600080fd5b8335611fa881612483565b92506020840135611fb881612483565b929592945050506040919091013590565b600080600080600080600060e0888a031215611fe457600080fd5b8735611fef81612483565b96506020880135611fff81612483565b95506040880135945060608801359350608088013560ff8116811461202357600080fd5b9699959850939692959460a0840135945060c09093013592915050565b6000806040838503121561205357600080fd5b823561205e81612483565b946020939093013593505050565b6000806000806040858703121561208257600080fd5b843567ffffffffffffffff8082111561209a57600080fd5b6120a688838901611ec9565b909650945060208701359150808211156120bf57600080fd5b506120cc87828801611ec9565b95989497509550505050565b6000602082840312156120ea57600080fd5b8151801515811461196e57600080fd5b60006020828403121561210c57600080fd5b815167ffffffffffffffff8082111561212457600080fd5b818401915084601f83011261213857600080fd5b81518181111561214a5761214a61246d565b604051601f8201601f19908116603f011681019083821181831017156121725761217261246d565b8160405282815287602084870101111561218b57600080fd5b61219c8360208301602088016123e0565b979650505050505050565b6000602082840312156121b957600080fd5b815161ffff8116811461196e57600080fd5b6000602082840312156121dd57600080fd5b5051919050565b600080604083850312156121f757600080fd5b50508035926020909101359150565b6001600160a01b0391909116815260200190565b6001600160a01b03929092168252602082015260400190565b604080825283519082018190526000906020906060840190828701845b828110156122755781516001600160a01b031684529284019290840190600101612250565b5050508381038285015284518082528583019183019060005b818110156122ad57835160ff168352928401929184019160010161228e565b5090979650505050505050565b9182526001600160a01b0316602082015260400190565b60208152600082518060208401526122f08160408501602087016123e0565b601f01601f19169190910160400192915050565b6020808252818101527f537461746963496e6465783a20494e53554646494349454e545f414d4f554e54604082015260600190565b6020808252601f908201527f5265656e7472616e637947756172643a207265656e7472616e742063616c6c00604082015260600190565b6000821982111561238357612383612441565b500190565b6000826123a557634e487b7160e01b600052601260045260246000fd5b500490565b60008160001904831182151516156123c4576123c4612441565b500290565b6000828210156123db576123db612441565b500390565b60005b838110156123fb5781810151838201526020016123e3565b8381111561240a576000848401525b50505050565b600060001982141561242457612424612441565b5060010190565b634e487b7160e01b600052600160045260246000fd5b634e487b7160e01b600052601160045260246000fd5b634e487b7160e01b600052603260045260246000fd5b634e487b7160e01b600052604160045260246000fd5b6001600160a01b038116811461249857600080fd5b5056feddf252ad1be2c89b69c2b068fc378daa952ba7f163c4a11628f55a4df523b3ef6e4abc02c6bd089c9bfc9d8a556bc8c00f2f250d7ff4335f79d29ac94792b8aba264697066735822122013486950e0ead72fca0ed28401d337466bef03286d84e1b81f35a5a04ad3406964736f6c63430008070033",
  "linkReferences": {},
  "deployedLinkReferences": {}
}