{
  "_format": "hh-sol-artifact-1",
  "contractName": "StaticIndexFactory",
  "sourceName": "contracts/StaticIndexFactory.sol",
  "abi": [
    {
      "inputs": [
        {
          "internalType": "address",
          "name": "_registry",
          "type": "address"
        },
        {
          "internalType": "address",
          "name": "_vTokenFactory",
          "type": "address"
        },
        {
          "internalType": "uint16",
          "name": "_defaultMintingFeeInBP",
          "type": "uint16"
        },
        {
          "internalType": "uint16",
          "name": "_defaultBurningFeeInBP",
          "type": "uint16"
        },
        {
          "internalType": "uint256",
          "name": "_defaultAUMScaledPerSecondsRate",
          "type": "uint256"
        }
      ],
      "stateMutability": "nonpayable",
      "type": "constructor"
    },
    {
      "anonymous": false,
      "inputs": [
        {
          "indexed": true,
          "internalType": "address",
          "name": "account",
          "type": "address"
        },
        {
          "indexed": false,
          "internalType": "uint256",
          "name": "AUMScaledPerSecondsRate",
          "type": "uint256"
        }
      ],
      "name": "SetDefaultAUMScaledPerSecondsRate",
      "type": "event"
    },
    {
      "anonymous": false,
      "inputs": [
        {
          "indexed": true,
          "internalType": "address",
          "name": "account",
          "type": "address"
        },
        {
          "indexed": false,
          "internalType": "uint16",
          "name": "burningFeeInBP",
          "type": "uint16"
        }
      ],
      "name": "SetDefaultBurningFeeInBP",
      "type": "event"
    },
    {
      "anonymous": false,
      "inputs": [
        {
          "indexed": true,
          "internalType": "address",
          "name": "account",
          "type": "address"
        },
        {
          "indexed": false,
          "internalType": "uint16",
          "name": "mintingFeeInBP",
          "type": "uint16"
        }
      ],
      "name": "SetDefaultMintingFeeInBP",
      "type": "event"
    },
    {
      "anonymous": false,
      "inputs": [
        {
          "indexed": false,
          "internalType": "address",
          "name": "index",
          "type": "address"
        },
        {
          "indexed": false,
          "internalType": "address[]",
          "name": "assets",
          "type": "address[]"
        },
        {
          "indexed": false,
          "internalType": "uint8[]",
          "name": "weights",
          "type": "uint8[]"
        }
      ],
      "name": "StaticIndexCreated",
      "type": "event"
    },
    {
      "inputs": [
        {
          "internalType": "address[]",
          "name": "_assets",
          "type": "address[]"
        },
        {
          "internalType": "uint8[]",
          "name": "_weights",
          "type": "uint8[]"
        },
        {
          "components": [
            {
              "internalType": "string",
              "name": "name",
              "type": "string"
            },
            {
              "internalType": "string",
              "name": "symbol",
              "type": "string"
            }
          ],
          "internalType": "struct IIndexFactory.NameDetails",
          "name": "_nameDetails",
          "type": "tuple"
        }
      ],
      "name": "createIndex",
      "outputs": [
        {
          "internalType": "address",
          "name": "index",
          "type": "address"
        }
      ],
      "stateMutability": "nonpayable",
      "type": "function"
    },
    {
      "inputs": [],
      "name": "defaultAUMScaledPerSecondsRate",
      "outputs": [
        {
          "internalType": "uint256",
          "name": "",
          "type": "uint256"
        }
      ],
      "stateMutability": "view",
      "type": "function"
    },
    {
      "inputs": [],
      "name": "defaultBurningFeeInBP",
      "outputs": [
        {
          "internalType": "uint16",
          "name": "",
          "type": "uint16"
        }
      ],
      "stateMutability": "view",
      "type": "function"
    },
    {
      "inputs": [],
      "name": "defaultMintingFeeInBP",
      "outputs": [
        {
          "internalType": "uint16",
          "name": "",
          "type": "uint16"
        }
      ],
      "stateMutability": "view",
      "type": "function"
    },
    {
      "inputs": [],
      "name": "registry",
      "outputs": [
        {
          "internalType": "address",
          "name": "",
          "type": "address"
        }
      ],
      "stateMutability": "view",
      "type": "function"
    },
    {
      "inputs": [
        {
          "internalType": "uint256",
          "name": "_AUMScaledPerSecondsRate",
          "type": "uint256"
        }
      ],
      "name": "setDefaultAUMScaledPerSecondsRate",
      "outputs": [],
      "stateMutability": "nonpayable",
      "type": "function"
    },
    {
      "inputs": [
        {
          "internalType": "uint16",
          "name": "_burningFeeInBP",
          "type": "uint16"
        }
      ],
      "name": "setDefaultBurningFeeInBP",
      "outputs": [],
      "stateMutability": "nonpayable",
      "type": "function"
    },
    {
      "inputs": [
        {
          "internalType": "uint16",
          "name": "_mintingFeeInBP",
          "type": "uint16"
        }
      ],
      "name": "setDefaultMintingFeeInBP",
      "outputs": [],
      "stateMutability": "nonpayable",
      "type": "function"
    },
    {
      "inputs": [],
      "name": "vTokenFactory",
      "outputs": [
        {
          "internalType": "address",
          "name": "",
          "type": "address"
        }
      ],
      "stateMutability": "view",
      "type": "function"
    },
    {
      "inputs": [
        {
          "internalType": "address",
          "name": "_index",
          "type": "address"
        }
      ],
      "name": "withdrawToFeePool",
      "outputs": [],
      "stateMutability": "nonpayable",
      "type": "function"
    }
  ],
  "bytecode": "0x60c06040523480156200001157600080fd5b5060405162003ef338038062003ef38339810160408190526200003491620000ad565b6001600160601b0319606095861b81166080529390941b90921660a0526000805461ffff938416620100000263ffffffff19909116939092169290921717905560015562000114565b80516001600160a01b03811681146200009557600080fd5b919050565b805161ffff811681146200009557600080fd5b600080600080600060a08688031215620000c657600080fd5b620000d1866200007d565b9450620000e1602087016200007d565b9350620000f1604087016200009a565b925062000101606087016200009a565b9150608086015190509295509295909350565b60805160601c60a05160601c613d7c62000177600039600060ce015260008181610166015281816101f90152818161030301528181610436015281816104e6015281816108d0015281816109fb01528181610bd40152610cf40152613d7c6000f3fe60806040523480156200001157600080fd5b5060043610620000aa5760003560e01c80637b103999116200006e5780637b10399914620001605780637bd9cad214620001885780639566a067146200019f578063c0bc4e2214620001b6578063cbf8ee6d14620001cd57600080fd5b80624ef30014620000af57806328dd991214620000c857806329c5ee35146200010d57806334b0c18014620001245780634a8644d6146200013d575b600080fd5b620000c6620000c0366004620011d8565b620001e2565b005b620000f07f000000000000000000000000000000000000000000000000000000000000000081565b6040516001600160a01b0390911681526020015b60405180910390f35b620000c66200011e366004620011b2565b620002ec565b6200012e60015481565b60405190815260200162000104565b6000546200014c9061ffff1681565b60405161ffff909116815260200162000104565b620000f07f000000000000000000000000000000000000000000000000000000000000000081565b620000f062000199366004620010ea565b62000432565b620000c6620001b0366004620011b2565b62000bbd565b620000c6620001c7366004620010aa565b62000cf2565b6000546200014c9062010000900461ffff1681565b604051632474521560e21b81526001600160a01b037f000000000000000000000000000000000000000000000000000000000000000016906391d148549062000233906000903390600401620014ba565b60206040518083038186803b1580156200024c57600080fd5b505afa15801562000261573d6000803e3d6000fd5b505050506040513d601f19601f820116820180604052508101906200028791906200118e565b620002af5760405162461bcd60e51b8152600401620002a69062001504565b60405180910390fd5b600181905560405181815233907f12b7f8762ddb0be7f5afebf56b26d515c762e50980b21b8542c4a759c8a80a7c9060200160405180910390a250565b604051632474521560e21b81526001600160a01b037f000000000000000000000000000000000000000000000000000000000000000016906391d14854906200033d906000903390600401620014ba565b60206040518083038186803b1580156200035657600080fd5b505afa1580156200036b573d6000803e3d6000fd5b505050506040513d601f19601f820116820180604052508101906200039191906200118e565b620003b05760405162461bcd60e51b8152600401620002a69062001504565b8061271061ffff82161115620003da5760405162461bcd60e51b8152600401620002a690620014d1565b6000805463ffff000019166201000061ffff85169081029190911790915560405190815233907fc86205904d5727f8eb133ce7801357ac55052c5a5623e5f507beca817d81e586906020015b60405180910390a25050565b60007f00000000000000000000000000000000000000000000000000000000000000006001600160a01b031663f036318d6040518163ffffffff1660e01b815260040160206040518083038186803b1580156200048e57600080fd5b505afa158015620004a3573d6000803e3d6000fd5b505050506040513d601f19601f82011682018060405250810190620004c991906200118e565b15620005b257604051632474521560e21b81526001600160a01b037f000000000000000000000000000000000000000000000000000000000000000016906391d14854906200053f907fa579efb5fdf486e45c8efb358408689a5a4b3efb641062ea15e2378fab2e5eb8903390600401620014ba565b60206040518083038186803b1580156200055857600080fd5b505afa1580156200056d573d6000803e3d6000fd5b505050506040513d601f19601f820116820180604052508101906200059391906200118e565b620005b25760405162461bcd60e51b8152600401620002a69062001504565b600185118015620005c45750600a8511155b8015620005d057508285145b6200061e5760405162461bcd60e51b815260206004820152601b60248201527f537461746963496e646578466163746f72793a20494e56414c494400000000006044820152606401620002a6565b6000805b86811015620007fe576000888883818110620006425762000642620015ed565b9050602002016020810190620006599190620010aa565b6001600160a01b0316141580156200069e5750858582818110620006815762000681620015ed565b90506020020160208101906200069891906200120c565b60ff1615155b620006e75760405162461bcd60e51b8152602060048201526018602482015277537461746963496e646578466163746f72793a205a45524f60401b6044820152606401620002a6565b8015620007ae57878782818110620007035762000703620015ed565b90506020020160208101906200071a9190620010aa565b6001600160a01b03168888620007326001856200159f565b818110620007445762000744620015ed565b90506020020160208101906200075b9190620010aa565b6001600160a01b031610620007ae5760405162461bcd60e51b815260206004820152601860248201527714dd185d1a58d25b99195e119858dd1bdc9e4e8814d3d49560421b6044820152606401620002a6565b858582818110620007c357620007c3620015ed565b9050602002016020810190620007da91906200120c565b620007e99060ff168362001584565b9150620007f681620015b9565b905062000622565b5060ff81146200084b5760405162461bcd60e51b81526020600482015260176024820152760a6e8c2e8d2c692dcc8caf08cc2c6e8dee4f274409a82b604b1b6044820152606401620002a6565b600087878787604051602001620008669493929190620012da565b604051602081830303815290604052805190602001209050620008b68160405180602001620008959062001036565b6020820181038252601f19601f820116604052508051906020012062000ecb565b604051634a1d69f960e01b81529093506001600160a01b037f00000000000000000000000000000000000000000000000000000000000000001690634a1d69f9906200090990869088906004016200139d565b600060405180830381600087803b1580156200092457600080fd5b505af115801562000939573d6000803e3d6000fd5b505050506200096f60008260405180602001620009569062001036565b601f1982820381018352601f9091011660405262000f2a565b50506040805160018082528183019092526000925090816020015b60408051808201909152600080825260208201528152602001906001900390816200098a5790505090506040518060400160405280836001600160a01b0316815260200161271061ffff1681525081600081518110620009ee57620009ee620015ed565b60200260200101819052507f00000000000000000000000000000000000000000000000000000000000000006001600160a01b031663ae2e933b6040518163ffffffff1660e01b815260040160206040518083038186803b15801562000a5357600080fd5b505afa15801562000a68573d6000803e3d6000fd5b505050506040513d601f19601f8201168201806040525081019062000a8e9190620010ca565b6000546001546040516319f6455f60e11b81526001600160a01b0393909316926333ec8abe9262000ad692879261ffff8084169362010000900416919088906004016200140a565b600060405180830381600087803b15801562000af157600080fd5b505af115801562000b06573d6000803e3d6000fd5b505060405163fe1de1f360e01b81526001600160a01b038516925063fe1de1f3915062000b3e908a908a908a908a906004016200148f565b600060405180830381600087803b15801562000b5957600080fd5b505af115801562000b6e573d6000803e3d6000fd5b505050507f50577ea1e27eb621e0994be73e366dfa3f3f6c5a2fc13f4deba2e64eb925d604828888888860405162000bab95949392919062001355565b60405180910390a15095945050505050565b604051632474521560e21b81526001600160a01b037f000000000000000000000000000000000000000000000000000000000000000016906391d148549062000c0e906000903390600401620014ba565b60206040518083038186803b15801562000c2757600080fd5b505afa15801562000c3c573d6000803e3d6000fd5b505050506040513d601f19601f8201168201806040525081019062000c6291906200118e565b62000c815760405162461bcd60e51b8152600401620002a69062001504565b8061271061ffff8216111562000cab5760405162461bcd60e51b8152600401620002a690620014d1565b6000805461ffff191661ffff841690811790915560405190815233907f502c4a764681dfc2da50d1dbd5fe9ce39b4b772fcc1d42bc3e2d67972f1e823d9060200162000426565b7f00000000000000000000000000000000000000000000000000000000000000006001600160a01b031663ae2e933b6040518163ffffffff1660e01b815260040160206040518083038186803b15801562000d4c57600080fd5b505afa15801562000d61573d6000803e3d6000fd5b505050506040513d601f19601f8201168201806040525081019062000d879190620010ca565b6001600160a01b0316336001600160a01b03161462000dba5760405162461bcd60e51b8152600401620002a69062001504565b6040516370a0823160e01b81523060048201526000906001600160a01b038316906370a082319060240160206040518083038186803b15801562000dfd57600080fd5b505afa15801562000e12573d6000803e3d6000fd5b505050506040513d601f19601f8201168201806040525081019062000e389190620011f2565b9050801562000ec75760405163a9059cbb60e01b8152336004820152602481018290526001600160a01b0383169063a9059cbb90604401602060405180830381600087803b15801562000e8a57600080fd5b505af115801562000e9f573d6000803e3d6000fd5b505050506040513d601f19601f8201168201806040525081019062000ec591906200118e565b505b5050565b604080516001600160f81b03196020808301919091526bffffffffffffffffffffffff193060601b16602183015260358201859052605580830185905283518084039091018152607590920190925280519101206000905b9392505050565b6000808447101562000f7f5760405162461bcd60e51b815260206004820152601d60248201527f437265617465323a20696e73756666696369656e742062616c616e63650000006044820152606401620002a6565b825162000fcf5760405162461bcd60e51b815260206004820181905260248201527f437265617465323a2062797465636f6465206c656e677468206973207a65726f6044820152606401620002a6565b8383516020850187f590506001600160a01b0381166200102e5760405162461bcd60e51b8152602060048201526019602482015278437265617465323a204661696c6564206f6e206465706c6f7960381b6044820152606401620002a6565b949350505050565b61272a806200161d83390190565b60008083601f8401126200105757600080fd5b50813567ffffffffffffffff8111156200107057600080fd5b6020830191508360208260051b85010111156200108c57600080fd5b9250929050565b803560ff81168114620010a557600080fd5b919050565b600060208284031215620010bd57600080fd5b813562000f238162001603565b600060208284031215620010dd57600080fd5b815162000f238162001603565b6000806000806000606086880312156200110357600080fd5b853567ffffffffffffffff808211156200111c57600080fd5b6200112a89838a0162001044565b909750955060208801359150808211156200114457600080fd5b6200115289838a0162001044565b909550935060408801359150808211156200116c57600080fd5b508601604081890312156200118057600080fd5b809150509295509295909350565b600060208284031215620011a157600080fd5b8151801515811462000f2357600080fd5b600060208284031215620011c557600080fd5b813561ffff8116811462000f2357600080fd5b600060208284031215620011eb57600080fd5b5035919050565b6000602082840312156200120557600080fd5b5051919050565b6000602082840312156200121f57600080fd5b62000f238262001093565b8183526000602080850194508260005b858110156200126c578135620012508162001603565b6001600160a01b0316875295820195908201906001016200123a565b509495945050505050565b8183526000602080850194508260005b858110156200126c5760ff6200129d8362001093565b168752958201959082019060010162001287565b81835281816020850137506000828201602090810191909152601f909101601f19169091010190565b60008186825b8781101562001315578135620012f68162001603565b6001600160a01b031683526020928301929190910190600101620012e0565b508591905060005b85811015620013495760ff620013338462001093565b168252602092830192909101906001016200131d565b50979650505050505050565b6001600160a01b03861681526060602082018190526000906200137c90830186886200122a565b82810360408401526200139181858762001277565b98975050505050505050565b6001600160a01b0383168152604060208201526000620013be83806200153b565b604080850152620013d4608085018284620012b1565b915050620013e660208501856200153b565b848303603f19016060860152620013ff838284620012b1565b979650505050505050565b600060a0820160018060a01b038089168452602061ffff808a16828701526040818a168188015288606088015260a06080880152849150875180865260c088019250838901955060005b818110156200147d57865180518716855285015185850152958401959282019260010162001454565b50919c9b505050505050505050505050565b604081526000620014a56040830186886200122a565b8281036020840152620013ff81858762001277565b9182526001600160a01b0316602082015260400190565b60208082526019908201527810985cd9525b99195e119858dd1bdc9e4e8812539590531251603a1b604082015260600190565b6020808252601b908201527f42617365496e646578466163746f72793a20464f5242494444454e0000000000604082015260600190565b6000808335601e198436030181126200155357600080fd5b830160208101925035905067ffffffffffffffff8111156200157457600080fd5b8036038313156200108c57600080fd5b600082198211156200159a576200159a620015d7565b500190565b600082821015620015b457620015b4620015d7565b500390565b6000600019821415620015d057620015d0620015d7565b5060010190565b634e487b7160e01b600052601160045260246000fd5b634e487b7160e01b600052603260045260246000fd5b6001600160a01b03811681146200161957600080fd5b5056fe60e06040526000805460ff191660121790553480156200001e57600080fd5b50600160055533606081901b6080524260065560408051637b10399960e01b815290518291637b103999916004808301926020929190829003018186803b1580156200006957600080fd5b505afa1580156200007e573d6000803e3d6000fd5b505050506040513d601f19601f82011682018060405250810190620000a491906200014c565b6001600160a01b031660c0816001600160a01b031660601b81525050806001600160a01b03166328dd99126040518163ffffffff1660e01b815260040160206040518083038186803b158015620000fa57600080fd5b505afa1580156200010f573d6000803e3d6000fd5b505050506040513d601f19601f820116820180604052508101906200013591906200014c565b60601b6001600160601b03191660a052506200017e565b6000602082840312156200015f57600080fd5b81516001600160a01b03811681146200017757600080fd5b9392505050565b60805160601c60a05160601c60c05160601c612511620002196000396000818161028f015281816103ae0152818161074e015281816107ec0152818161091401528181610fd8015281816110e70152818161125d0152818161160c015261197a0152600081816101d801528181610afa015261135301526000818161030c0152818161187501528181611aec0152611b4901526125116000f3fe608060405234801561001057600080fd5b50600436106101425760003560e01c80637b103999116100b8578063a9059cbb1161007c578063a9059cbb146102f4578063c45a015514610307578063d505accf1461032e578063dc18ed2614610341578063dd62ed3e14610356578063fe1de1f31461038157600080fd5b80637b1039991461028a5780637ecebe00146102b157806389afcb44146102d157806395d89b41146102e4578063a0aead4d146102ec57600080fd5b806328dd99121161010a57806328dd9912146101d357806330adf81f14610207578063313ce5671461022e5780633644e5151461024d5780636a6278421461025557806370a082311461026a57600080fd5b806306fdde0314610147578063095ea7b31461016557806318160ddd146101885780631a7bc0131461019f57806323b872dd146101c0575b600080fd5b61014f610394565b60405161015c91906122d1565b60405180910390f35b610178610173366004612040565b61043c565b604051901515815260200161015c565b61019160015481565b60405190815260200161015c565b6101b26101ad3660046121e4565b610452565b60405161015c929190612233565b6101786101ce366004611f88565b6105f3565b6101fa7f000000000000000000000000000000000000000000000000000000000000000081565b60405161015c9190612206565b6101917f6e71edae12b1b97f4d1f60370fef10105fa2faae0126114a169c64845d6126c981565b60005461023b9060ff1681565b60405160ff909116815260200161015c565b61019161066d565b610268610263366004611f15565b610716565b005b610191610278366004611f15565b60026020526000908152604090205481565b6101fa7f000000000000000000000000000000000000000000000000000000000000000081565b6101916102bf366004611f15565b60046020526000908152604090205481565b6102686102df366004611f15565b610f70565b61014f6115f2565b600754610191565b610178610302366004612040565b611641565b6101fa7f000000000000000000000000000000000000000000000000000000000000000081565b61026861033c366004611fc9565b61164e565b6101916000805160206124bc83398151915281565b610191610364366004611f4f565b600360209081526000928352604080842090915290825290205481565b61026861038f36600461206c565b61186a565b60405163ed3b559f60e01b81526060906001600160a01b037f0000000000000000000000000000000000000000000000000000000000000000169063ed3b559f906103e3903090600401612206565b60006040518083038186803b1580156103fb57600080fd5b505afa15801561040f573d6000803e3d6000fd5b505050506040513d6000823e601f3d908101601f1916820160405261043791908101906120fa565b905090565b60006104493384846118fb565b50600192915050565b600754606090819084101561047e57600754610479906104739086906123c9565b8461195d565b610481565b60005b67ffffffffffffffff8111156104995761049961246d565b6040519080825280602002602001820160405280156104c2578160200160208202803683370190505b509150815167ffffffffffffffff8111156104df576104df61246d565b604051908082528060200260200182016040528015610508578160200160208202803683370190505b50905060005b82518110156105eb5760076105238287612370565b8154811061053357610533612457565b9060005260206000200160009054906101000a90046001600160a01b031683828151811061056357610563612457565b6001600160a01b039092166020928302919091019091015260086105878287612370565b8154811061059757610597612457565b90600052602060002090602091828204019190069054906101000a900460ff168282815181106105c9576105c9612457565b60ff909216602092830291909101909101526105e481612410565b905061050e565b509250929050565b6001600160a01b038316600090815260036020908152604080832033845290915281205460001914610658576001600160a01b0384166000908152600360209081526040808320338452909152812080548492906106529084906123c9565b90915550505b610663848484611975565b5060019392505050565b60007f8b73c3c69bb8fe3d512ecc4cf759cc79239f7b179b0ffacaa9a75d522b39400f610698610394565b805160209182012060408051808201825260018152603160f81b90840152805192830193909352918101919091527fc89efdaa54c0f20c7adf612882df0950f5a951637e0307cdcb4c672f298b8bc660608201524660808201523060a082015260c00160405160208183030381529060405280519060200120905090565b600260055414156107425760405162461bcd60e51b815260040161073990612339565b60405180910390fd5b600260058190555060007f00000000000000000000000000000000000000000000000000000000000000006001600160a01b031663ae2e933b6040518163ffffffff1660e01b815260040160206040518083038186803b1580156107a557600080fd5b505afa1580156107b9573d6000803e3d6000fd5b505050506040513d601f19601f820116820180604052508101906107dd9190611f32565b90506107e881611a1e565b60007f00000000000000000000000000000000000000000000000000000000000000006001600160a01b0316632630c12f6040518163ffffffff1660e01b815260040160206040518083038186803b15801561084357600080fd5b505afa158015610857573d6000803e3d6000fd5b505050506040513d601f19601f8201168201806040525081019061087b9190611f32565b90506000826001600160a01b0316635ad88c1a306040518263ffffffff1660e01b81526004016108ab9190612206565b60206040518083038186803b1580156108c357600080fd5b505afa1580156108d7573d6000803e3d6000fd5b505050506040513d601f19601f820116820180604052508101906108fb91906121a7565b61ffff1690506000600019815b600754811015610ebe577f00000000000000000000000000000000000000000000000000000000000000006001600160a01b03166391d148547f86d5cf0a6bdc8d859ba3bdc97043337c82a0e609035f378e419298b6a3e00ae66007848154811061097557610975612457565b6000918252602090912001546040516001600160e01b031960e085901b1681526109ac92916001600160a01b0316906004016122ba565b60206040518083038186803b1580156109c457600080fd5b505afa1580156109d8573d6000803e3d6000fd5b505050506040513d601f19601f820116820180604052508101906109fc91906120d8565b610a485760405162461bcd60e51b815260206004820152601a60248201527f537461746963496e6465783a20494e56414c49445f41535345540000000000006044820152606401610739565b6000856001600160a01b031663da0449be60078481548110610a6c57610a6c612457565b6000918252602090912001546040516001600160e01b031960e084901b168152610aa2916001600160a01b031690600401612206565b602060405180830381600087803b158015610abc57600080fd5b505af1158015610ad0573d6000803e3d6000fd5b505050506040513d601f19601f82011682018060405250810190610af491906121cb565b905060007f00000000000000000000000000000000000000000000000000000000000000006001600160a01b031663af86dd4660078581548110610b3a57610b3a612457565b6000918252602090912001546040516001600160e01b031960e084901b168152610b80916001600160a01b0316906000805160206124bc8339815191529060040161221a565b602060405180830381600087803b158015610b9a57600080fd5b505af1158015610bae573d6000803e3d6000fd5b505050506040513d601f19601f82011682018060405250810190610bd29190611f32565b90506000816001600160a01b0316638f1c56bd6040518163ffffffff1660e01b815260040160206040518083038186803b158015610c0f57600080fd5b505afa158015610c23573d6000803e3d6000fd5b505050506040513d601f19601f82011682018060405250810190610c4791906121cb565b60078581548110610c5a57610c5a612457565b6000918252602090912001546040516370a0823160e01b81526001600160a01b03909116906370a0823190610c93908690600401612206565b60206040518083038186803b158015610cab57600080fd5b505afa158015610cbf573d6000803e3d6000fd5b505050506040513d601f19601f82011682018060405250810190610ce391906121cb565b610ced91906123c9565b9050600060088581548110610d0457610d04612457565b600091825260209182902091810490910154610d2c91601f166101000a900460ff16856123aa565b905060008160ff610d41600160701b866123aa565b610d4b91906123aa565b610d559190612388565b905086811015610d63578096505b604051622f4f0f60ea1b81526000906001600160a01b0386169063bd3c3c0090610d91903090600401612206565b60206040518083038186803b158015610da957600080fd5b505afa158015610dbd573d6000803e3d6000fd5b505050506040513d601f19601f82011682018060405250810190610de191906121cb565b9050846001600160a01b0316631249c58b6040518163ffffffff1660e01b8152600401602060405180830381600087803b158015610e1e57600080fd5b505af1158015610e32573d6000803e3d6000fd5b505050506040513d601f19601f82011682018060405250810190610e5691906121cb565b506000612710610e668c876123aa565b610e709190612388565b610e7a9083612370565b9050600087610e8d600160701b846123aa565b610e979190612388565b9050610ea3818c612370565b9a50505050505050505080610eb790612410565b9050610908565b50600019811415610ed157610ed161242b565b6000600154600014610f1d5760008311610efd5760405162461bcd60e51b815260040161073990612304565b8260015483610f0c91906123aa565b610f169190612388565b9050610f38565b610f29612710836123c9565b9050610f386000612710611b78565b60008111610f585760405162461bcd60e51b815260040161073990612304565b610f628782611b78565b505060016005555050505050565b60026005541415610f935760405162461bcd60e51b815260040161073990612339565b60026005819055306000908152602091909152604090205480610fc85760405162461bcd60e51b815260040161073990612304565b6000805b6007548110156110dd577f00000000000000000000000000000000000000000000000000000000000000006001600160a01b03166391d148547f86d5cf0a6bdc8d859ba3bdc97043337c82a0e609035f378e419298b6a3e00ae66007848154811061103957611039612457565b6000918252602090912001546040516001600160e01b031960e085901b16815261107092916001600160a01b0316906004016122ba565b60206040518083038186803b15801561108857600080fd5b505afa15801561109c573d6000803e3d6000fd5b505050506040513d601f19601f820116820180604052508101906110c091906120d8565b6110cd57600191506110dd565b6110d681612410565b9050610fcc565b50806112465760007f00000000000000000000000000000000000000000000000000000000000000006001600160a01b031663ae2e933b6040518163ffffffff1660e01b815260040160206040518083038186803b15801561113e57600080fd5b505afa158015611152573d6000803e3d6000fd5b505050506040513d601f19601f820116820180604052508101906111769190611f32565b9050600061271061ffff1684836001600160a01b031663a7853436306040518263ffffffff1660e01b81526004016111ae9190612206565b60206040518083038186803b1580156111c657600080fd5b505afa1580156111da573d6000803e3d6000fd5b505050506040513d601f19601f820116820180604052508101906111fe91906121a7565b61ffff1661120c91906123aa565b6112169190612388565b9050801561123a57611229308383611975565b61123381856123c9565b9350611243565b61124382611a1e565b50505b60005b6007548110156115dd5781801561134557507f00000000000000000000000000000000000000000000000000000000000000006001600160a01b03166391d148547f4963dcfd342c3f63bd1b992afc723ae72706277470d47567f30dfc6dcee9f11e600784815481106112be576112be612457565b6000918252602090912001546040516001600160e01b031960e085901b1681526112f592916001600160a01b0316906004016122ba565b60206040518083038186803b15801561130d57600080fd5b505afa158015611321573d6000803e3d6000fd5b505050506040513d601f19601f8201168201806040525081019061134591906120d8565b1561134f576115cd565b60007f00000000000000000000000000000000000000000000000000000000000000006001600160a01b031663af86dd466007848154811061139357611393612457565b6000918252602090912001546040516001600160e01b031960e084901b1681526113d9916001600160a01b0316906000805160206124bc8339815191529060040161221a565b602060405180830381600087803b1580156113f357600080fd5b505af1158015611407573d6000803e3d6000fd5b505050506040513d601f19601f8201168201806040525081019061142b9190611f32565b90506000816001600160a01b03166370a08231306040518263ffffffff1660e01b815260040161145b9190612206565b60206040518083038186803b15801561147357600080fd5b505afa158015611487573d6000803e3d6000fd5b505050506040513d601f19601f820116820180604052508101906114ab91906121cb565b9050600060015482876114be91906123aa565b6114c89190612388565b9050600081116114ea5760405162461bcd60e51b815260040161073990612304565b60405163a9059cbb60e01b81526001600160a01b0384169063a9059cbb90611518908690859060040161221a565b600060405180830381600087803b15801561153257600080fd5b505af1158015611546573d6000803e3d6000fd5b505060405163226bf2d160e21b81526001600160a01b03861692506389afcb449150611576908a90600401612206565b602060405180830381600087803b15801561159057600080fd5b505af11580156115a4573d6000803e3d6000fd5b505050506040513d601f19601f820116820180604052508101906115c891906121cb565b505050505b6115d681612410565b9050611249565b506115e83083611bf2565b5050600160055550565b60405163554f94ab60e01b81526060906001600160a01b037f0000000000000000000000000000000000000000000000000000000000000000169063554f94ab906103e3903090600401612206565b6000610449338484611975565b428410156116965760405162461bcd60e51b8152602060048201526015602482015274141a1d5d1d5c99515490cc8c0e8811561412549151605a1b6044820152606401610739565b60006116a061066d565b6001600160a01b038916600090815260046020526040812080547f6e71edae12b1b97f4d1f60370fef10105fa2faae0126114a169c64845d6126c9928c928c928c929091906116ee83612410565b909155506040805160208101969096526001600160a01b0394851690860152929091166060840152608083015260a082015260c0810187905260e0016040516020818303038152906040528051906020012060405160200161176792919061190160f01b81526002810192909252602282015260420190565b60408051601f198184030181528282528051602091820120600080855291840180845281905260ff88169284019290925260608301869052608083018590529092509060019060a0016020604051602081039080840390855afa1580156117d2573d6000803e3d6000fd5b5050604051601f1901519150506001600160a01b038116158015906118085750886001600160a01b0316816001600160a01b0316145b6118545760405162461bcd60e51b815260206004820152601f60248201527f5068757475726545524332303a20494e56414c49445f5349474e4154555245006044820152606401610739565b61185f8989896118fb565b505050505050505050565b336001600160a01b037f000000000000000000000000000000000000000000000000000000000000000016146118db5760405162461bcd60e51b815260206004820152601660248201527529ba30ba34b1a4b73232bc1d102327a92124a22222a760511b6044820152606401610739565b6118e760078585611db1565b506118f460088383611e14565b5050505050565b6001600160a01b0383811660008181526003602090815260408083209487168084529482529182902085905590518481527f8c5be1e5ebec7d5bd14f71427d1e84f3dd0314c0f7b2291e5b200ac8c7c3b92591015b60405180910390a3505050565b600081831061196c578161196e565b825b9392505050565b611a0e7f00000000000000000000000000000000000000000000000000000000000000006001600160a01b031663ae2e933b6040518163ffffffff1660e01b815260040160206040518083038186803b1580156119d157600080fd5b505afa1580156119e5573d6000803e3d6000fd5b505050506040513d601f19601f82011682018060405250810190611a099190611f32565b611a1e565b611a19838383611c64565b505050565b600060065442611a2e91906123c9565b90508015611b745760006b033b2e3c9fd0803ce800000080611ad8856001600160a01b0316635612e00b306040518263ffffffff1660e01b8152600401611a759190612206565b60206040518083038186803b158015611a8d57600080fd5b505afa158015611aa1573d6000803e3d6000fd5b505050506040513d601f19601f82011682018060405250810190611ac591906121cb565b856b033b2e3c9fd0803ce8000000611cf3565b611ae291906123c9565b6001600160a01b037f000000000000000000000000000000000000000000000000000000000000000016600090815260026020526040902054600154611b2891906123c9565b611b3291906123aa565b611b3c9190612388565b90508015611a1957611b6e7f000000000000000000000000000000000000000000000000000000000000000082611b78565b42600655505b5050565b6001600160a01b03821660009081526002602052604081208054839290611ba0908490612370565b925050819055508060016000828254611bb99190612370565b90915550506040518181526001600160a01b0383169060009060008051602061249c833981519152906020015b60405180910390a35050565b6001600160a01b03821660009081526002602052604081208054839290611c1a9084906123c9565b925050819055508060016000828254611c3391906123c9565b90915550506040518181526000906001600160a01b0384169060008051602061249c83398151915290602001611be6565b6001600160a01b03831660009081526002602052604081208054839290611c8c9084906123c9565b90915550506001600160a01b03821660009081526002602052604081208054839290611cb9908490612370565b92505081905550816001600160a01b0316836001600160a01b031660008051602061249c8339815191528360405161195091815260200190565b6000838015611d9357600184168015611d0e57859250611d12565b8392505b50600283046002850494505b8415611d8d578586028687820414611d3557600080fd5b81810181811015611d4557600080fd5b8590049650506001851615611d82578583028387820414158715151615611d6b57600080fd5b81810181811015611d7b57600080fd5b8590049350505b600285049450611d1e565b50611da9565b838015611da35760009250611da7565b8392505b505b509392505050565b828054828255906000526020600020908101928215611e04579160200282015b82811115611e045781546001600160a01b0319166001600160a01b03843516178255602090920191600190910190611dd1565b50611e10929150611eb4565b5090565b82805482825590600052602060002090601f01602090048101928215611e045791602002820160005b83821115611e7e57833560ff1683826101000a81548160ff021916908360ff1602179055509260200192600101602081600001049283019260010302611e3d565b8015611eab5782816101000a81549060ff0219169055600101602081600001049283019260010302611e7e565b5050611e109291505b5b80821115611e105760008155600101611eb5565b60008083601f840112611edb57600080fd5b50813567ffffffffffffffff811115611ef357600080fd5b6020830191508360208260051b8501011115611f0e57600080fd5b9250929050565b600060208284031215611f2757600080fd5b813561196e81612483565b600060208284031215611f4457600080fd5b815161196e81612483565b60008060408385031215611f6257600080fd5b8235611f6d81612483565b91506020830135611f7d81612483565b809150509250929050565b600080600060608486031215611f9d57600080fd5b8335611fa881612483565b92506020840135611fb881612483565b929592945050506040919091013590565b600080600080600080600060e0888a031215611fe457600080fd5b8735611fef81612483565b96506020880135611fff81612483565b95506040880135945060608801359350608088013560ff8116811461202357600080fd5b9699959850939692959460a0840135945060c09093013592915050565b6000806040838503121561205357600080fd5b823561205e81612483565b946020939093013593505050565b6000806000806040858703121561208257600080fd5b843567ffffffffffffffff8082111561209a57600080fd5b6120a688838901611ec9565b909650945060208701359150808211156120bf57600080fd5b506120cc87828801611ec9565b95989497509550505050565b6000602082840312156120ea57600080fd5b8151801515811461196e57600080fd5b60006020828403121561210c57600080fd5b815167ffffffffffffffff8082111561212457600080fd5b818401915084601f83011261213857600080fd5b81518181111561214a5761214a61246d565b604051601f8201601f19908116603f011681019083821181831017156121725761217261246d565b8160405282815287602084870101111561218b57600080fd5b61219c8360208301602088016123e0565b979650505050505050565b6000602082840312156121b957600080fd5b815161ffff8116811461196e57600080fd5b6000602082840312156121dd57600080fd5b5051919050565b600080604083850312156121f757600080fd5b50508035926020909101359150565b6001600160a01b0391909116815260200190565b6001600160a01b03929092168252602082015260400190565b604080825283519082018190526000906020906060840190828701845b828110156122755781516001600160a01b031684529284019290840190600101612250565b5050508381038285015284518082528583019183019060005b818110156122ad57835160ff168352928401929184019160010161228e565b5090979650505050505050565b9182526001600160a01b0316602082015260400190565b60208152600082518060208401526122f08160408501602087016123e0565b601f01601f19169190910160400192915050565b6020808252818101527f537461746963496e6465783a20494e53554646494349454e545f414d4f554e54604082015260600190565b6020808252601f908201527f5265656e7472616e637947756172643a207265656e7472616e742063616c6c00604082015260600190565b6000821982111561238357612383612441565b500190565b6000826123a557634e487b7160e01b600052601260045260246000fd5b500490565b60008160001904831182151516156123c4576123c4612441565b500290565b6000828210156123db576123db612441565b500390565b60005b838110156123fb5781810151838201526020016123e3565b8381111561240a576000848401525b50505050565b600060001982141561242457612424612441565b5060010190565b634e487b7160e01b600052600160045260246000fd5b634e487b7160e01b600052601160045260246000fd5b634e487b7160e01b600052603260045260246000fd5b634e487b7160e01b600052604160045260246000fd5b6001600160a01b038116811461249857600080fd5b5056feddf252ad1be2c89b69c2b068fc378daa952ba7f163c4a11628f55a4df523b3ef6e4abc02c6bd089c9bfc9d8a556bc8c00f2f250d7ff4335f79d29ac94792b8aba264697066735822122013486950e0ead72fca0ed28401d337466bef03286d84e1b81f35a5a04ad3406964736f6c63430008070033a2646970667358221220af7c6bae4d0012b3e592548626afb94e502dc9f1b5f320208b159df693bb77d064736f6c63430008070033",
  "linkReferences": {},
  "deployedLinkReferences": {}
}