{
  "_format": "hh-sol-artifact-1",
  "contractName": "StaticIndexFactory",
  "sourceName": "contracts/StaticIndexFactory.sol",
  "abi": [
    {
      "inputs": [
        {
          "internalType": "address",
          "name": "_registry",
          "type": "address"
        },
        {
          "internalType": "address",
          "name": "_vTokenFactory",
          "type": "address"
        },
        {
          "internalType": "uint16",
          "name": "_defaultMintingFeeInBP",
          "type": "uint16"
        },
        {
          "internalType": "uint16",
          "name": "_defaultBurningFeeInBP",
          "type": "uint16"
        },
        {
          "internalType": "uint256",
          "name": "_defaultAUMScaledPerSecondsRate",
          "type": "uint256"
        }
      ],
      "stateMutability": "nonpayable",
      "type": "constructor"
    },
    {
      "anonymous": false,
      "inputs": [
        {
          "indexed": true,
          "internalType": "address",
          "name": "account",
          "type": "address"
        },
        {
          "indexed": false,
          "internalType": "uint256",
          "name": "AUMScaledPerSecondsRate",
          "type": "uint256"
        }
      ],
      "name": "SetDefaultAUMScaledPerSecondsRate",
      "type": "event"
    },
    {
      "anonymous": false,
      "inputs": [
        {
          "indexed": true,
          "internalType": "address",
          "name": "account",
          "type": "address"
        },
        {
          "indexed": false,
          "internalType": "uint16",
          "name": "burningFeeInBP",
          "type": "uint16"
        }
      ],
      "name": "SetDefaultBurningFeeInBP",
      "type": "event"
    },
    {
      "anonymous": false,
      "inputs": [
        {
          "indexed": true,
          "internalType": "address",
          "name": "account",
          "type": "address"
        },
        {
          "indexed": false,
          "internalType": "uint16",
          "name": "mintingFeeInBP",
          "type": "uint16"
        }
      ],
      "name": "SetDefaultMintingFeeInBP",
      "type": "event"
    },
    {
      "anonymous": false,
      "inputs": [
        {
          "indexed": false,
          "internalType": "address",
          "name": "index",
          "type": "address"
        },
        {
          "indexed": false,
          "internalType": "address[]",
          "name": "assets",
          "type": "address[]"
        },
        {
          "indexed": false,
          "internalType": "uint8[]",
          "name": "weights",
          "type": "uint8[]"
        }
      ],
      "name": "StaticIndexCreated",
      "type": "event"
    },
    {
      "inputs": [
        {
          "internalType": "address[]",
          "name": "_assets",
          "type": "address[]"
        },
        {
          "internalType": "uint8[]",
          "name": "_weights",
          "type": "uint8[]"
        },
        {
          "components": [
            {
              "internalType": "string",
              "name": "name",
              "type": "string"
            },
            {
              "internalType": "string",
              "name": "symbol",
              "type": "string"
            }
          ],
          "internalType": "struct IIndexFactory.NameDetails",
          "name": "_nameDetails",
          "type": "tuple"
        }
      ],
      "name": "createIndex",
      "outputs": [
        {
          "internalType": "address",
          "name": "index",
          "type": "address"
        }
      ],
      "stateMutability": "nonpayable",
      "type": "function"
    },
    {
      "inputs": [],
      "name": "defaultAUMScaledPerSecondsRate",
      "outputs": [
        {
          "internalType": "uint256",
          "name": "",
          "type": "uint256"
        }
      ],
      "stateMutability": "view",
      "type": "function"
    },
    {
      "inputs": [],
      "name": "defaultBurningFeeInBP",
      "outputs": [
        {
          "internalType": "uint16",
          "name": "",
          "type": "uint16"
        }
      ],
      "stateMutability": "view",
      "type": "function"
    },
    {
      "inputs": [],
      "name": "defaultMintingFeeInBP",
      "outputs": [
        {
          "internalType": "uint16",
          "name": "",
          "type": "uint16"
        }
      ],
      "stateMutability": "view",
      "type": "function"
    },
    {
      "inputs": [],
      "name": "registry",
      "outputs": [
        {
          "internalType": "address",
          "name": "",
          "type": "address"
        }
      ],
      "stateMutability": "view",
      "type": "function"
    },
    {
      "inputs": [
        {
          "internalType": "uint256",
          "name": "_AUMScaledPerSecondsRate",
          "type": "uint256"
        }
      ],
      "name": "setDefaultAUMScaledPerSecondsRate",
      "outputs": [],
      "stateMutability": "nonpayable",
      "type": "function"
    },
    {
      "inputs": [
        {
          "internalType": "uint16",
          "name": "_burningFeeInBP",
          "type": "uint16"
        }
      ],
      "name": "setDefaultBurningFeeInBP",
      "outputs": [],
      "stateMutability": "nonpayable",
      "type": "function"
    },
    {
      "inputs": [
        {
          "internalType": "uint16",
          "name": "_mintingFeeInBP",
          "type": "uint16"
        }
      ],
      "name": "setDefaultMintingFeeInBP",
      "outputs": [],
      "stateMutability": "nonpayable",
      "type": "function"
    },
    {
      "inputs": [
        {
          "internalType": "bytes4",
          "name": "interfaceId",
          "type": "bytes4"
        }
      ],
      "name": "supportsInterface",
      "outputs": [
        {
          "internalType": "bool",
          "name": "",
          "type": "bool"
        }
      ],
      "stateMutability": "view",
      "type": "function"
    },
    {
      "inputs": [],
      "name": "vTokenFactory",
      "outputs": [
        {
          "internalType": "address",
          "name": "",
          "type": "address"
        }
      ],
      "stateMutability": "view",
      "type": "function"
    },
    {
      "inputs": [
        {
          "internalType": "address",
          "name": "_index",
          "type": "address"
        }
      ],
      "name": "withdrawToFeePool",
      "outputs": [],
      "stateMutability": "nonpayable",
      "type": "function"
    }
  ],
  "bytecode": "0x60c06040523480156200001157600080fd5b50604051620046c6380380620046c68339810160408190526200003491620000ad565b6001600160601b0319606095861b81166080529390941b90921660a0526000805461ffff938416620100000263ffffffff19909116939092169290921717905560015562000114565b80516001600160a01b03811681146200009557600080fd5b919050565b805161ffff811681146200009557600080fd5b600080600080600060a08688031215620000c657600080fd5b620000d1866200007d565b9450620000e1602087016200007d565b9350620000f1604087016200009a565b925062000101606087016200009a565b9150608086015190509295509295909350565b60805160601c60a05160601c61454e62000178600039600061010601526000818161019a0152818161022d0152818161036501528181610498015281816105480152818161093201528181610a5d01528181610c360152610d56015261454e6000f3fe60806040523480156200001157600080fd5b5060043610620000b65760003560e01c80634a8644d6116200007a5780634a8644d614620001715780637b10399914620001945780637bd9cad214620001bc5780639566a06714620001d3578063c0bc4e2214620001ea578063cbf8ee6d146200020157600080fd5b80624ef30014620000bb57806301ffc9a714620000d457806328dd9912146200010057806329c5ee35146200014157806334b0c1801462000158575b600080fd5b620000d2620000cc3660046200129d565b62000216565b005b620000eb620000e53660046200124b565b62000320565b60405190151581526020015b60405180910390f35b620001287f000000000000000000000000000000000000000000000000000000000000000081565b6040516001600160a01b039091168152602001620000f7565b620000d26200015236600462001277565b6200034e565b6200016260015481565b604051908152602001620000f7565b600054620001809061ffff1681565b60405161ffff9091168152602001620000f7565b620001287f000000000000000000000000000000000000000000000000000000000000000081565b62000128620001cd36600462001183565b62000494565b620000d2620001e436600462001277565b62000c1f565b620000d2620001fb36600462001143565b62000d54565b600054620001809062010000900461ffff1681565b604051632474521560e21b81526001600160a01b037f000000000000000000000000000000000000000000000000000000000000000016906391d1485490620002679060009033906004016200157f565b60206040518083038186803b1580156200028057600080fd5b505afa15801562000295573d6000803e3d6000fd5b505050506040513d601f19601f82011682018060405250810190620002bb919062001227565b620002e35760405162461bcd60e51b8152600401620002da90620015c9565b60405180910390fd5b600181905560405181815233907f12b7f8762ddb0be7f5afebf56b26d515c762e50980b21b8542c4a759c8a80a7c9060200160405180910390a250565b60006001600160e01b03198216633dece56960e11b1480620003485750620003488262000f2d565b92915050565b604051632474521560e21b81526001600160a01b037f000000000000000000000000000000000000000000000000000000000000000016906391d14854906200039f9060009033906004016200157f565b60206040518083038186803b158015620003b857600080fd5b505afa158015620003cd573d6000803e3d6000fd5b505050506040513d601f19601f82011682018060405250810190620003f3919062001227565b620004125760405162461bcd60e51b8152600401620002da90620015c9565b8061271061ffff821611156200043c5760405162461bcd60e51b8152600401620002da9062001596565b6000805463ffff000019166201000061ffff85169081029190911790915560405190815233907fc86205904d5727f8eb133ce7801357ac55052c5a5623e5f507beca817d81e586906020015b60405180910390a25050565b60007f00000000000000000000000000000000000000000000000000000000000000006001600160a01b031663f036318d6040518163ffffffff1660e01b815260040160206040518083038186803b158015620004f057600080fd5b505afa15801562000505573d6000803e3d6000fd5b505050506040513d601f19601f820116820180604052508101906200052b919062001227565b156200061457604051632474521560e21b81526001600160a01b037f000000000000000000000000000000000000000000000000000000000000000016906391d1485490620005a1907fa579efb5fdf486e45c8efb358408689a5a4b3efb641062ea15e2378fab2e5eb89033906004016200157f565b60206040518083038186803b158015620005ba57600080fd5b505afa158015620005cf573d6000803e3d6000fd5b505050506040513d601f19601f82011682018060405250810190620005f5919062001227565b620006145760405162461bcd60e51b8152600401620002da90620015c9565b600185118015620006265750600a8511155b80156200063257508285145b620006805760405162461bcd60e51b815260206004820152601b60248201527f537461746963496e646578466163746f72793a20494e56414c494400000000006044820152606401620002da565b6000805b8681101562000860576000888883818110620006a457620006a4620016b2565b9050602002016020810190620006bb919062001143565b6001600160a01b031614158015620007005750858582818110620006e357620006e3620016b2565b9050602002016020810190620006fa9190620012d1565b60ff1615155b620007495760405162461bcd60e51b8152602060048201526018602482015277537461746963496e646578466163746f72793a205a45524f60401b6044820152606401620002da565b80156200081057878782818110620007655762000765620016b2565b90506020020160208101906200077c919062001143565b6001600160a01b031688886200079460018562001664565b818110620007a657620007a6620016b2565b9050602002016020810190620007bd919062001143565b6001600160a01b031610620008105760405162461bcd60e51b815260206004820152601860248201527714dd185d1a58d25b99195e119858dd1bdc9e4e8814d3d49560421b6044820152606401620002da565b858582818110620008255762000825620016b2565b90506020020160208101906200083c9190620012d1565b6200084b9060ff168362001649565b915062000858816200167e565b905062000684565b5060ff8114620008ad5760405162461bcd60e51b81526020600482015260176024820152760a6e8c2e8d2c692dcc8caf08cc2c6e8dee4f274409a82b604b1b6044820152606401620002da565b600087878787604051602001620008c894939291906200139f565b604051602081830303815290604052805190602001209050620009188160405180602001620008f790620010cf565b6020820181038252601f19601f820116604052508051906020012062000f64565b604051634a1d69f960e01b81529093506001600160a01b037f00000000000000000000000000000000000000000000000000000000000000001690634a1d69f9906200096b908690889060040162001462565b600060405180830381600087803b1580156200098657600080fd5b505af11580156200099b573d6000803e3d6000fd5b50505050620009d160008260405180602001620009b890620010cf565b601f1982820381018352601f9091011660405262000fc3565b50506040805160018082528183019092526000925090816020015b6040805180820190915260008082526020820152815260200190600190039081620009ec5790505090506040518060400160405280836001600160a01b0316815260200161271061ffff168152508160008151811062000a505762000a50620016b2565b60200260200101819052507f00000000000000000000000000000000000000000000000000000000000000006001600160a01b031663ae2e933b6040518163ffffffff1660e01b815260040160206040518083038186803b15801562000ab557600080fd5b505afa15801562000aca573d6000803e3d6000fd5b505050506040513d601f19601f8201168201806040525081019062000af0919062001163565b6000546001546040516319f6455f60e11b81526001600160a01b0393909316926333ec8abe9262000b3892879261ffff808416936201000090041691908890600401620014cf565b600060405180830381600087803b15801562000b5357600080fd5b505af115801562000b68573d6000803e3d6000fd5b505060405163fe1de1f360e01b81526001600160a01b038516925063fe1de1f3915062000ba0908a908a908a908a9060040162001554565b600060405180830381600087803b15801562000bbb57600080fd5b505af115801562000bd0573d6000803e3d6000fd5b505050507f50577ea1e27eb621e0994be73e366dfa3f3f6c5a2fc13f4deba2e64eb925d604828888888860405162000c0d9594939291906200141a565b60405180910390a15095945050505050565b604051632474521560e21b81526001600160a01b037f000000000000000000000000000000000000000000000000000000000000000016906391d148549062000c709060009033906004016200157f565b60206040518083038186803b15801562000c8957600080fd5b505afa15801562000c9e573d6000803e3d6000fd5b505050506040513d601f19601f8201168201806040525081019062000cc4919062001227565b62000ce35760405162461bcd60e51b8152600401620002da90620015c9565b8061271061ffff8216111562000d0d5760405162461bcd60e51b8152600401620002da9062001596565b6000805461ffff191661ffff841690811790915560405190815233907f502c4a764681dfc2da50d1dbd5fe9ce39b4b772fcc1d42bc3e2d67972f1e823d9060200162000488565b7f00000000000000000000000000000000000000000000000000000000000000006001600160a01b031663ae2e933b6040518163ffffffff1660e01b815260040160206040518083038186803b15801562000dae57600080fd5b505afa15801562000dc3573d6000803e3d6000fd5b505050506040513d601f19601f8201168201806040525081019062000de9919062001163565b6001600160a01b0316336001600160a01b03161462000e1c5760405162461bcd60e51b8152600401620002da90620015c9565b6040516370a0823160e01b81523060048201526000906001600160a01b038316906370a082319060240160206040518083038186803b15801562000e5f57600080fd5b505afa15801562000e74573d6000803e3d6000fd5b505050506040513d601f19601f8201168201806040525081019062000e9a9190620012b7565b9050801562000f295760405163a9059cbb60e01b8152336004820152602481018290526001600160a01b0383169063a9059cbb90604401602060405180830381600087803b15801562000eec57600080fd5b505af115801562000f01573d6000803e3d6000fd5b505050506040513d601f19601f8201168201806040525081019062000f27919062001227565b505b5050565b60006001600160e01b031982166301ffc9a760e01b14806200034857506001600160e01b0319821663026948e360e61b1492915050565b604080516001600160f81b03196020808301919091526bffffffffffffffffffffffff193060601b16602183015260358201859052605580830185905283518084039091018152607590920190925280519101206000905b9392505050565b60008084471015620010185760405162461bcd60e51b815260206004820152601d60248201527f437265617465323a20696e73756666696369656e742062616c616e63650000006044820152606401620002da565b8251620010685760405162461bcd60e51b815260206004820181905260248201527f437265617465323a2062797465636f6465206c656e677468206973207a65726f6044820152606401620002da565b8383516020850187f590506001600160a01b038116620010c75760405162461bcd60e51b8152602060048201526019602482015278437265617465323a204661696c6564206f6e206465706c6f7960381b6044820152606401620002da565b949350505050565b612e3780620016e283390190565b60008083601f840112620010f057600080fd5b50813567ffffffffffffffff8111156200110957600080fd5b6020830191508360208260051b85010111156200112557600080fd5b9250929050565b803560ff811681146200113e57600080fd5b919050565b6000602082840312156200115657600080fd5b813562000fbc81620016c8565b6000602082840312156200117657600080fd5b815162000fbc81620016c8565b6000806000806000606086880312156200119c57600080fd5b853567ffffffffffffffff80821115620011b557600080fd5b620011c389838a01620010dd565b90975095506020880135915080821115620011dd57600080fd5b620011eb89838a01620010dd565b909550935060408801359150808211156200120557600080fd5b508601604081890312156200121957600080fd5b809150509295509295909350565b6000602082840312156200123a57600080fd5b8151801515811462000fbc57600080fd5b6000602082840312156200125e57600080fd5b81356001600160e01b03198116811462000fbc57600080fd5b6000602082840312156200128a57600080fd5b813561ffff8116811462000fbc57600080fd5b600060208284031215620012b057600080fd5b5035919050565b600060208284031215620012ca57600080fd5b5051919050565b600060208284031215620012e457600080fd5b62000fbc826200112c565b8183526000602080850194508260005b85811015620013315781356200131581620016c8565b6001600160a01b031687529582019590820190600101620012ff565b509495945050505050565b8183526000602080850194508260005b85811015620013315760ff62001362836200112c565b16875295820195908201906001016200134c565b81835281816020850137506000828201602090810191909152601f909101601f19169091010190565b60008186825b87811015620013da578135620013bb81620016c8565b6001600160a01b031683526020928301929190910190600101620013a5565b508591905060005b858110156200140e5760ff620013f8846200112c565b16825260209283019290910190600101620013e2565b50979650505050505050565b6001600160a01b0386168152606060208201819052600090620014419083018688620012ef565b8281036040840152620014568185876200133c565b98975050505050505050565b6001600160a01b038316815260406020820152600062001483838062001600565b6040808501526200149960808501828462001376565b915050620014ab602085018562001600565b848303603f19016060860152620014c483828462001376565b979650505050505050565b600060a0820160018060a01b038089168452602061ffff808a16828701526040818a168188015288606088015260a06080880152849150875180865260c088019250838901955060005b818110156200154257865180518716855285015185850152958401959282019260010162001519565b50919c9b505050505050505050505050565b6040815260006200156a604083018688620012ef565b8281036020840152620014c48185876200133c565b9182526001600160a01b0316602082015260400190565b60208082526019908201527810985cd9525b99195e119858dd1bdc9e4e8812539590531251603a1b604082015260600190565b6020808252601b908201527f42617365496e646578466163746f72793a20464f5242494444454e0000000000604082015260600190565b6000808335601e198436030181126200161857600080fd5b830160208101925035905067ffffffffffffffff8111156200163957600080fd5b8036038313156200112557600080fd5b600082198211156200165f576200165f6200169c565b500190565b6000828210156200167957620016796200169c565b500390565b60006000198214156200169557620016956200169c565b5060010190565b634e487b7160e01b600052601160045260246000fd5b634e487b7160e01b600052603260045260246000fd5b6001600160a01b0381168114620016de57600080fd5b5056fe60e06040526000805460ff191660121790553480156200001e57600080fd5b50600160055533606081901b6080524260065560408051637b10399960e01b815290518291637b103999916004808301926020929190829003018186803b1580156200006957600080fd5b505afa1580156200007e573d6000803e3d6000fd5b505050506040513d601f19601f82011682018060405250810190620000a491906200014c565b6001600160a01b031660c0816001600160a01b031660601b81525050806001600160a01b03166328dd99126040518163ffffffff1660e01b815260040160206040518083038186803b158015620000fa57600080fd5b505afa1580156200010f573d6000803e3d6000fd5b505050506040513d601f19601f820116820180604052508101906200013591906200014c565b60601b6001600160601b03191660a052506200017e565b6000602082840312156200015f57600080fd5b81516001600160a01b03811681146200017757600080fd5b9392505050565b60805160601c60a05160601c60c05160601c612c1e62000219600039600081816102a9015281816103f20152818161079201528181610830015281816109580152818161101c0152818161112b015281816112a1015281816116500152611a4a0152600081816101f201528181610b3e0152611397015260008181610326015281816118b901528181611bbc0152611c190152612c1e6000f3fe608060405234801561001057600080fd5b506004361061014d5760003560e01c806370a08231116100c3578063a9059cbb1161007c578063a9059cbb1461030e578063c45a015514610321578063d505accf14610348578063dc18ed261461035b578063dd62ed3e14610370578063fe1de1f31461039b57600080fd5b806370a08231146102845780637b103999146102a45780637ecebe00146102cb57806389afcb44146102eb57806395d89b41146102fe578063a0aead4d1461030657600080fd5b806323b872dd1161011557806323b872dd146101da57806328dd9912146101ed57806330adf81f14610221578063313ce567146102485780633644e515146102675780636a6278421461026f57600080fd5b806301ffc9a71461015257806306fdde031461017a578063095ea7b31461018f57806318160ddd146101a25780631a7bc013146101b9575b600080fd5b6101656101603660046121ca565b6103ae565b60405190151581526020015b60405180910390f35b6101826103d8565b60405161017191906129de565b61016561019d366004612110565b610480565b6101ab60015481565b604051908152602001610171565b6101cc6101c73660046122de565b610496565b60405161017192919061232d565b6101656101e8366004612058565b610637565b6102147f000000000000000000000000000000000000000000000000000000000000000081565b6040516101719190612300565b6101ab7f6e71edae12b1b97f4d1f60370fef10105fa2faae0126114a169c64845d6126c981565b6000546102559060ff1681565b60405160ff9091168152602001610171565b6101ab6106b1565b61028261027d366004611fe5565b61075a565b005b6101ab610292366004611fe5565b60026020526000908152604090205481565b6102147f000000000000000000000000000000000000000000000000000000000000000081565b6101ab6102d9366004611fe5565b60046020526000908152604090205481565b6102826102f9366004611fe5565b610fb4565b610182611636565b6007546101ab565b61016561031c366004612110565b611685565b6102147f000000000000000000000000000000000000000000000000000000000000000081565b610282610356366004612099565b611692565b6101ab600080516020612bc983398151915281565b6101ab61037e36600461201f565b600360209081526000928352604080842090915290825290205481565b6102826103a936600461213c565b6118ae565b60006001600160e01b031982166294bc9560e51b14806103d257506103d28261197a565b92915050565b60405163ed3b559f60e01b81526060906001600160a01b037f0000000000000000000000000000000000000000000000000000000000000000169063ed3b559f90610427903090600401612300565b60006040518083038186803b15801561043f57600080fd5b505afa158015610453573d6000803e3d6000fd5b505050506040513d6000823e601f3d908101601f1916820160405261047b91908101906121f4565b905090565b600061048d3384846119cb565b50600192915050565b60075460609081908410156104c2576007546104bd906104b7908690612ad6565b84611a2d565b6104c5565b60005b67ffffffffffffffff8111156104dd576104dd612b7a565b604051908082528060200260200182016040528015610506578160200160208202803683370190505b509150815167ffffffffffffffff81111561052357610523612b7a565b60405190808252806020026020018201604052801561054c578160200160208202803683370190505b50905060005b825181101561062f5760076105678287612a7d565b8154811061057757610577612b64565b9060005260206000200160009054906101000a90046001600160a01b03168382815181106105a7576105a7612b64565b6001600160a01b039092166020928302919091019091015260086105cb8287612a7d565b815481106105db576105db612b64565b90600052602060002090602091828204019190069054906101000a900460ff1682828151811061060d5761060d612b64565b60ff9092166020928302919091019091015261062881612b1d565b9050610552565b509250929050565b6001600160a01b03831660009081526003602090815260408083203384529091528120546000191461069c576001600160a01b038416600090815260036020908152604080832033845290915281208054849290610696908490612ad6565b90915550505b6106a7848484611a45565b5060019392505050565b60007f8b73c3c69bb8fe3d512ecc4cf759cc79239f7b179b0ffacaa9a75d522b39400f6106dc6103d8565b805160209182012060408051808201825260018152603160f81b90840152805192830193909352918101919091527fc89efdaa54c0f20c7adf612882df0950f5a951637e0307cdcb4c672f298b8bc660608201524660808201523060a082015260c00160405160208183030381529060405280519060200120905090565b600260055414156107865760405162461bcd60e51b815260040161077d90612a46565b60405180910390fd5b600260058190555060007f00000000000000000000000000000000000000000000000000000000000000006001600160a01b031663ae2e933b6040518163ffffffff1660e01b815260040160206040518083038186803b1580156107e957600080fd5b505afa1580156107fd573d6000803e3d6000fd5b505050506040513d601f19601f820116820180604052508101906108219190612002565b905061082c81611aee565b60007f00000000000000000000000000000000000000000000000000000000000000006001600160a01b0316632630c12f6040518163ffffffff1660e01b815260040160206040518083038186803b15801561088757600080fd5b505afa15801561089b573d6000803e3d6000fd5b505050506040513d601f19601f820116820180604052508101906108bf9190612002565b90506000826001600160a01b0316635ad88c1a306040518263ffffffff1660e01b81526004016108ef9190612300565b60206040518083038186803b15801561090757600080fd5b505afa15801561091b573d6000803e3d6000fd5b505050506040513d601f19601f8201168201806040525081019061093f91906122a1565b61ffff1690506000600019815b600754811015610f02577f00000000000000000000000000000000000000000000000000000000000000006001600160a01b03166391d148547f86d5cf0a6bdc8d859ba3bdc97043337c82a0e609035f378e419298b6a3e00ae6600784815481106109b9576109b9612b64565b6000918252602090912001546040516001600160e01b031960e085901b1681526109f092916001600160a01b0316906004016129c7565b60206040518083038186803b158015610a0857600080fd5b505afa158015610a1c573d6000803e3d6000fd5b505050506040513d601f19601f82011682018060405250810190610a4091906121a8565b610a8c5760405162461bcd60e51b815260206004820152601a60248201527f537461746963496e6465783a20494e56414c49445f4153534554000000000000604482015260640161077d565b6000856001600160a01b031663da0449be60078481548110610ab057610ab0612b64565b6000918252602090912001546040516001600160e01b031960e084901b168152610ae6916001600160a01b031690600401612300565b602060405180830381600087803b158015610b0057600080fd5b505af1158015610b14573d6000803e3d6000fd5b505050506040513d601f19601f82011682018060405250810190610b3891906122c5565b905060007f00000000000000000000000000000000000000000000000000000000000000006001600160a01b031663af86dd4660078581548110610b7e57610b7e612b64565b6000918252602090912001546040516001600160e01b031960e084901b168152610bc4916001600160a01b031690600080516020612bc983398151915290600401612314565b602060405180830381600087803b158015610bde57600080fd5b505af1158015610bf2573d6000803e3d6000fd5b505050506040513d601f19601f82011682018060405250810190610c169190612002565b90506000816001600160a01b0316638f1c56bd6040518163ffffffff1660e01b815260040160206040518083038186803b158015610c5357600080fd5b505afa158015610c67573d6000803e3d6000fd5b505050506040513d601f19601f82011682018060405250810190610c8b91906122c5565b60078581548110610c9e57610c9e612b64565b6000918252602090912001546040516370a0823160e01b81526001600160a01b03909116906370a0823190610cd7908690600401612300565b60206040518083038186803b158015610cef57600080fd5b505afa158015610d03573d6000803e3d6000fd5b505050506040513d601f19601f82011682018060405250810190610d2791906122c5565b610d319190612ad6565b9050600060088581548110610d4857610d48612b64565b600091825260209182902091810490910154610d7091601f166101000a900460ff1685612ab7565b905060008160ff610d85600160701b86612ab7565b610d8f9190612ab7565b610d999190612a95565b905086811015610da7578096505b604051622f4f0f60ea1b81526000906001600160a01b0386169063bd3c3c0090610dd5903090600401612300565b60206040518083038186803b158015610ded57600080fd5b505afa158015610e01573d6000803e3d6000fd5b505050506040513d601f19601f82011682018060405250810190610e2591906122c5565b9050846001600160a01b0316631249c58b6040518163ffffffff1660e01b8152600401602060405180830381600087803b158015610e6257600080fd5b505af1158015610e76573d6000803e3d6000fd5b505050506040513d601f19601f82011682018060405250810190610e9a91906122c5565b506000612710610eaa8c87612ab7565b610eb49190612a95565b610ebe9083612a7d565b9050600087610ed1600160701b84612ab7565b610edb9190612a95565b9050610ee7818c612a7d565b9a50505050505050505080610efb90612b1d565b905061094c565b50600019811415610f1557610f15612b38565b6000600154600014610f615760008311610f415760405162461bcd60e51b815260040161077d90612a11565b8260015483610f509190612ab7565b610f5a9190612a95565b9050610f7c565b610f6d61271083612ad6565b9050610f7c6000612710611c48565b60008111610f9c5760405162461bcd60e51b815260040161077d90612a11565b610fa68782611c48565b505060016005555050505050565b60026005541415610fd75760405162461bcd60e51b815260040161077d90612a46565b6002600581905530600090815260209190915260409020548061100c5760405162461bcd60e51b815260040161077d90612a11565b6000805b600754811015611121577f00000000000000000000000000000000000000000000000000000000000000006001600160a01b03166391d148547f86d5cf0a6bdc8d859ba3bdc97043337c82a0e609035f378e419298b6a3e00ae66007848154811061107d5761107d612b64565b6000918252602090912001546040516001600160e01b031960e085901b1681526110b492916001600160a01b0316906004016129c7565b60206040518083038186803b1580156110cc57600080fd5b505afa1580156110e0573d6000803e3d6000fd5b505050506040513d601f19601f8201168201806040525081019061110491906121a8565b6111115760019150611121565b61111a81612b1d565b9050611010565b508061128a5760007f00000000000000000000000000000000000000000000000000000000000000006001600160a01b031663ae2e933b6040518163ffffffff1660e01b815260040160206040518083038186803b15801561118257600080fd5b505afa158015611196573d6000803e3d6000fd5b505050506040513d601f19601f820116820180604052508101906111ba9190612002565b9050600061271061ffff1684836001600160a01b031663a7853436306040518263ffffffff1660e01b81526004016111f29190612300565b60206040518083038186803b15801561120a57600080fd5b505afa15801561121e573d6000803e3d6000fd5b505050506040513d601f19601f8201168201806040525081019061124291906122a1565b61ffff166112509190612ab7565b61125a9190612a95565b9050801561127e5761126d308383611a45565b6112778185612ad6565b9350611287565b61128782611aee565b50505b60005b6007548110156116215781801561138957507f00000000000000000000000000000000000000000000000000000000000000006001600160a01b03166391d148547f4963dcfd342c3f63bd1b992afc723ae72706277470d47567f30dfc6dcee9f11e6007848154811061130257611302612b64565b6000918252602090912001546040516001600160e01b031960e085901b16815261133992916001600160a01b0316906004016129c7565b60206040518083038186803b15801561135157600080fd5b505afa158015611365573d6000803e3d6000fd5b505050506040513d601f19601f8201168201806040525081019061138991906121a8565b1561139357611611565b60007f00000000000000000000000000000000000000000000000000000000000000006001600160a01b031663af86dd46600784815481106113d7576113d7612b64565b6000918252602090912001546040516001600160e01b031960e084901b16815261141d916001600160a01b031690600080516020612bc983398151915290600401612314565b602060405180830381600087803b15801561143757600080fd5b505af115801561144b573d6000803e3d6000fd5b505050506040513d601f19601f8201168201806040525081019061146f9190612002565b90506000816001600160a01b03166370a08231306040518263ffffffff1660e01b815260040161149f9190612300565b60206040518083038186803b1580156114b757600080fd5b505afa1580156114cb573d6000803e3d6000fd5b505050506040513d601f19601f820116820180604052508101906114ef91906122c5565b9050600060015482876115029190612ab7565b61150c9190612a95565b90506000811161152e5760405162461bcd60e51b815260040161077d90612a11565b60405163a9059cbb60e01b81526001600160a01b0384169063a9059cbb9061155c9086908590600401612314565b600060405180830381600087803b15801561157657600080fd5b505af115801561158a573d6000803e3d6000fd5b505060405163226bf2d160e21b81526001600160a01b03861692506389afcb4491506115ba908a90600401612300565b602060405180830381600087803b1580156115d457600080fd5b505af11580156115e8573d6000803e3d6000fd5b505050506040513d601f19601f8201168201806040525081019061160c91906122c5565b505050505b61161a81612b1d565b905061128d565b5061162c3083611cc2565b5050600160055550565b60405163554f94ab60e01b81526060906001600160a01b037f0000000000000000000000000000000000000000000000000000000000000000169063554f94ab90610427903090600401612300565b600061048d338484611a45565b428410156116da5760405162461bcd60e51b8152602060048201526015602482015274141a1d5d1d5c99515490cc8c0e8811561412549151605a1b604482015260640161077d565b60006116e46106b1565b6001600160a01b038916600090815260046020526040812080547f6e71edae12b1b97f4d1f60370fef10105fa2faae0126114a169c64845d6126c9928c928c928c9290919061173283612b1d565b909155506040805160208101969096526001600160a01b0394851690860152929091166060840152608083015260a082015260c0810187905260e001604051602081830303815290604052805190602001206040516020016117ab92919061190160f01b81526002810192909252602282015260420190565b60408051601f198184030181528282528051602091820120600080855291840180845281905260ff88169284019290925260608301869052608083018590529092509060019060a0016020604051602081039080840390855afa158015611816573d6000803e3d6000fd5b5050604051601f1901519150506001600160a01b0381161580159061184c5750886001600160a01b0316816001600160a01b0316145b6118985760405162461bcd60e51b815260206004820152601f60248201527f5068757475726545524332303a20494e56414c49445f5349474e415455524500604482015260640161077d565b6118a38989896119cb565b505050505050505050565b336001600160a01b037f0000000000000000000000000000000000000000000000000000000000000000161461191f5760405162461bcd60e51b815260206004820152601660248201527529ba30ba34b1a4b73232bc1d102327a92124a22222a760511b604482015260640161077d565b61192b60078585611e81565b5061193860088383611ee4565b507ff7a52f24d20b038b2ecfdb7a08e7d847016833c370e38b3b59677783ee4718cb6007600860405161196c9291906123b4565b60405180910390a150505050565b60006001600160e01b031982166301ffc9a760e01b14806119ab57506001600160e01b031982166336372b0760e01b145b806103d257506001600160e01b0319821663390c84e760e01b1492915050565b6001600160a01b0383811660008181526003602090815260408083209487168084529482529182902085905590518481527f8c5be1e5ebec7d5bd14f71427d1e84f3dd0314c0f7b2291e5b200ac8c7c3b92591015b60405180910390a3505050565b6000818310611a3c5781611a3e565b825b9392505050565b611ade7f00000000000000000000000000000000000000000000000000000000000000006001600160a01b031663ae2e933b6040518163ffffffff1660e01b815260040160206040518083038186803b158015611aa157600080fd5b505afa158015611ab5573d6000803e3d6000fd5b505050506040513d601f19601f82011682018060405250810190611ad99190612002565b611aee565b611ae9838383611d34565b505050565b600060065442611afe9190612ad6565b90508015611c445760006b033b2e3c9fd0803ce800000080611ba8856001600160a01b0316635612e00b306040518263ffffffff1660e01b8152600401611b459190612300565b60206040518083038186803b158015611b5d57600080fd5b505afa158015611b71573d6000803e3d6000fd5b505050506040513d601f19601f82011682018060405250810190611b9591906122c5565b856b033b2e3c9fd0803ce8000000611dc3565b611bb29190612ad6565b6001600160a01b037f000000000000000000000000000000000000000000000000000000000000000016600090815260026020526040902054600154611bf89190612ad6565b611c029190612ab7565b611c0c9190612a95565b90508015611ae957611c3e7f000000000000000000000000000000000000000000000000000000000000000082611c48565b42600655505b5050565b6001600160a01b03821660009081526002602052604081208054839290611c70908490612a7d565b925050819055508060016000828254611c899190612a7d565b90915550506040518181526001600160a01b03831690600090600080516020612ba9833981519152906020015b60405180910390a35050565b6001600160a01b03821660009081526002602052604081208054839290611cea908490612ad6565b925050819055508060016000828254611d039190612ad6565b90915550506040518181526000906001600160a01b03841690600080516020612ba983398151915290602001611cb6565b6001600160a01b03831660009081526002602052604081208054839290611d5c908490612ad6565b90915550506001600160a01b03821660009081526002602052604081208054839290611d89908490612a7d565b92505081905550816001600160a01b0316836001600160a01b0316600080516020612ba983398151915283604051611a2091815260200190565b6000838015611e6357600184168015611dde57859250611de2565b8392505b50600283046002850494505b8415611e5d578586028687820414611e0557600080fd5b81810181811015611e1557600080fd5b8590049650506001851615611e52578583028387820414158715151615611e3b57600080fd5b81810181811015611e4b57600080fd5b8590049350505b600285049450611dee565b50611e79565b838015611e735760009250611e77565b8392505b505b509392505050565b828054828255906000526020600020908101928215611ed4579160200282015b82811115611ed45781546001600160a01b0319166001600160a01b03843516178255602090920191600190910190611ea1565b50611ee0929150611f84565b5090565b82805482825590600052602060002090601f01602090048101928215611ed45791602002820160005b83821115611f4e57833560ff1683826101000a81548160ff021916908360ff1602179055509260200192600101602081600001049283019260010302611f0d565b8015611f7b5782816101000a81549060ff0219169055600101602081600001049283019260010302611f4e565b5050611ee09291505b5b80821115611ee05760008155600101611f85565b60008083601f840112611fab57600080fd5b50813567ffffffffffffffff811115611fc357600080fd5b6020830191508360208260051b8501011115611fde57600080fd5b9250929050565b600060208284031215611ff757600080fd5b8135611a3e81612b90565b60006020828403121561201457600080fd5b8151611a3e81612b90565b6000806040838503121561203257600080fd5b823561203d81612b90565b9150602083013561204d81612b90565b809150509250929050565b60008060006060848603121561206d57600080fd5b833561207881612b90565b9250602084013561208881612b90565b929592945050506040919091013590565b600080600080600080600060e0888a0312156120b457600080fd5b87356120bf81612b90565b965060208801356120cf81612b90565b95506040880135945060608801359350608088013560ff811681146120f357600080fd5b9699959850939692959460a0840135945060c09093013592915050565b6000806040838503121561212357600080fd5b823561212e81612b90565b946020939093013593505050565b6000806000806040858703121561215257600080fd5b843567ffffffffffffffff8082111561216a57600080fd5b61217688838901611f99565b9096509450602087013591508082111561218f57600080fd5b5061219c87828801611f99565b95989497509550505050565b6000602082840312156121ba57600080fd5b81518015158114611a3e57600080fd5b6000602082840312156121dc57600080fd5b81356001600160e01b031981168114611a3e57600080fd5b60006020828403121561220657600080fd5b815167ffffffffffffffff8082111561221e57600080fd5b818401915084601f83011261223257600080fd5b81518181111561224457612244612b7a565b604051601f8201601f19908116603f0116810190838211818310171561226c5761226c612b7a565b8160405282815287602084870101111561228557600080fd5b612296836020830160208801612aed565b979650505050505050565b6000602082840312156122b357600080fd5b815161ffff81168114611a3e57600080fd5b6000602082840312156122d757600080fd5b5051919050565b600080604083850312156122f157600080fd5b50508035926020909101359150565b6001600160a01b0391909116815260200190565b6001600160a01b03929092168252602082015260400190565b604080825283519082018190526000906020906060840190828701845b8281101561236f5781516001600160a01b03168452928401929084019060010161234a565b5050508381038285015284518082528583019183019060005b818110156123a757835160ff1683529284019291840191600101612388565b5090979650505050505050565b600060408083018184528086548083526060925082860191508760005260208060002060005b838110156123ff5781546001600160a01b0316855293820193600191820191016123da565b505086830381880152875480845260008981526020808220950193505b81601f8201101561268557845460ff8082168652600882901c811685870152601082901c811689870152601882901c81168887015260806124658188018385891c1660ff169052565b61247960a08801838560281c1660ff169052565b60c061248e818901848660301c1660ff169052565b60e06124a3818a01858760381c1660ff169052565b60ff858d1c8516166101008a01526124c66101208a01858760481c1660ff169052565b6124db6101408a01858760501c1660ff169052565b6124f06101608a01858760581c1660ff169052565b60ff858c1c8516166101808a01526125136101a08a01858760681c1660ff169052565b6125286101c08a01858760701c1660ff169052565b61253d6101e08a01858760781c1660ff169052565b60ff85841c8516166102008a01526125606102208a01858760881c1660ff169052565b6125756102408a01858760901c1660ff169052565b61258a6102608a01858760981c1660ff169052565b61259f6102808a01858760a01c1660ff169052565b6125b46102a08a01858760a81c1660ff169052565b6125c96102c08a01858760b01c1660ff169052565b6125de6102e08a01858760b81c1660ff169052565b60ff85831c8516166103008a01526126016103208a01858760c81c1660ff169052565b6126166103408a01858760d01c1660ff169052565b61262b6103608a01858760d81c1660ff169052565b60ff85821c8516166103808a01525050506126516103a08701828460e81c1660ff169052565b6126666103c08701828460f01c1660ff169052565b5060f81c6103e08501526001949094019361040090930192820161241c565b9354938181101561269e5760ff85168452928201926001015b818110156126b857600885901c60ff168452928201926001015b818110156126d257601085901c60ff168452928201926001015b818110156126ec57601885901c60ff168452928201926001015b818110156127045784831c60ff168452928201926001015b8181101561271e57602885901c60ff168452928201926001015b8181101561273857603085901c60ff168452928201926001015b8181101561275257603885901c60ff168452928201926001015b8181101561276a5784871c60ff168452928201926001015b8181101561278457604885901c60ff168452928201926001015b8181101561279e57605085901c60ff168452928201926001015b818110156127b857605885901c60ff168452928201926001015b818110156127d05784861c60ff168452928201926001015b818110156127ea57606885901c60ff168452928201926001015b8181101561280457607085901c60ff168452928201926001015b8181101561281e57607885901c60ff168452928201926001015b8181101561283857608085901c60ff168452928201926001015b8181101561285257608885901c60ff168452928201926001015b8181101561286c57609085901c60ff168452928201926001015b8181101561288657609885901c60ff168452928201926001015b818110156128a05760a085901c60ff168452928201926001015b818110156128ba5760a885901c60ff168452928201926001015b818110156128d45760b085901c60ff168452928201926001015b818110156128ee5760b885901c60ff168452928201926001015b818110156129085760c085901c60ff168452928201926001015b818110156129225760c885901c60ff168452928201926001015b8181101561293c5760d085901c60ff168452928201926001015b818110156129565760d885901c60ff168452928201926001015b818110156129705760e085901c60ff168452928201926001015b8181101561298a5760e885901c60ff168452928201926001015b818110156129a45760f085901c60ff168452928201926001015b818110156129b85760f885901c8452928201925b50919998505050505050505050565b9182526001600160a01b0316602082015260400190565b60208152600082518060208401526129fd816040850160208701612aed565b601f01601f19169190910160400192915050565b6020808252818101527f537461746963496e6465783a20494e53554646494349454e545f414d4f554e54604082015260600190565b6020808252601f908201527f5265656e7472616e637947756172643a207265656e7472616e742063616c6c00604082015260600190565b60008219821115612a9057612a90612b4e565b500190565b600082612ab257634e487b7160e01b600052601260045260246000fd5b500490565b6000816000190483118215151615612ad157612ad1612b4e565b500290565b600082821015612ae857612ae8612b4e565b500390565b60005b83811015612b08578181015183820152602001612af0565b83811115612b17576000848401525b50505050565b6000600019821415612b3157612b31612b4e565b5060010190565b634e487b7160e01b600052600160045260246000fd5b634e487b7160e01b600052601160045260246000fd5b634e487b7160e01b600052603260045260246000fd5b634e487b7160e01b600052604160045260246000fd5b6001600160a01b0381168114612ba557600080fd5b5056feddf252ad1be2c89b69c2b068fc378daa952ba7f163c4a11628f55a4df523b3ef6e4abc02c6bd089c9bfc9d8a556bc8c00f2f250d7ff4335f79d29ac94792b8aba2646970667358221220767370bb6b51d1fb62a5464481858ba6017ffb03881693a17d3c36adca1d119264736f6c63430008070033a26469706673582212207833400cacd8195e19f523e9024a74abae28ceb7dc9fe48c863403810447e36564736f6c63430008070033",
  "linkReferences": {},
  "deployedLinkReferences": {}
}