{
  "_format": "hh-sol-artifact-1",
  "contractName": "StaticIndexFactory",
  "sourceName": "contracts/StaticIndexFactory.sol",
  "abi": [
    {
      "inputs": [
        {
          "internalType": "address",
          "name": "_registry",
          "type": "address"
        },
        {
          "internalType": "address",
          "name": "_vTokenFactory",
          "type": "address"
        },
        {
          "internalType": "uint16",
          "name": "_defaultMintingFeeInBP",
          "type": "uint16"
        },
        {
          "internalType": "uint16",
          "name": "_defaultBurningFeeInBP",
          "type": "uint16"
        },
        {
          "internalType": "uint256",
          "name": "_defaultAUMScaledPerSecondsRate",
          "type": "uint256"
        }
      ],
      "stateMutability": "nonpayable",
      "type": "constructor"
    },
    {
      "anonymous": false,
      "inputs": [
        {
          "indexed": true,
          "internalType": "address",
          "name": "account",
          "type": "address"
        },
        {
          "indexed": false,
          "internalType": "uint256",
          "name": "AUMScaledPerSecondsRate",
          "type": "uint256"
        }
      ],
      "name": "SetDefaultAUMScaledPerSecondsRate",
      "type": "event"
    },
    {
      "anonymous": false,
      "inputs": [
        {
          "indexed": true,
          "internalType": "address",
          "name": "account",
          "type": "address"
        },
        {
          "indexed": false,
          "internalType": "uint16",
          "name": "burningFeeInBP",
          "type": "uint16"
        }
      ],
      "name": "SetDefaultBurningFeeInBP",
      "type": "event"
    },
    {
      "anonymous": false,
      "inputs": [
        {
          "indexed": true,
          "internalType": "address",
          "name": "account",
          "type": "address"
        },
        {
          "indexed": false,
          "internalType": "uint16",
          "name": "mintingFeeInBP",
          "type": "uint16"
        }
      ],
      "name": "SetDefaultMintingFeeInBP",
      "type": "event"
    },
    {
      "anonymous": false,
      "inputs": [
        {
          "indexed": false,
          "internalType": "address",
          "name": "index",
          "type": "address"
        },
        {
          "indexed": false,
          "internalType": "address[]",
          "name": "assets",
          "type": "address[]"
        },
        {
          "indexed": false,
          "internalType": "uint8[]",
          "name": "weights",
          "type": "uint8[]"
        }
      ],
      "name": "StaticIndexCreated",
      "type": "event"
    },
    {
      "inputs": [
        {
          "internalType": "address[]",
          "name": "_assets",
          "type": "address[]"
        },
        {
          "internalType": "uint8[]",
          "name": "_weights",
          "type": "uint8[]"
        },
        {
          "components": [
            {
              "internalType": "string",
              "name": "name",
              "type": "string"
            },
            {
              "internalType": "string",
              "name": "symbol",
              "type": "string"
            }
          ],
          "internalType": "struct IIndexFactory.NameDetails",
          "name": "_nameDetails",
          "type": "tuple"
        }
      ],
      "name": "createIndex",
      "outputs": [
        {
          "internalType": "address",
          "name": "index",
          "type": "address"
        }
      ],
      "stateMutability": "nonpayable",
      "type": "function"
    },
    {
      "inputs": [],
      "name": "defaultAUMScaledPerSecondsRate",
      "outputs": [
        {
          "internalType": "uint256",
          "name": "",
          "type": "uint256"
        }
      ],
      "stateMutability": "view",
      "type": "function"
    },
    {
      "inputs": [],
      "name": "defaultBurningFeeInBP",
      "outputs": [
        {
          "internalType": "uint16",
          "name": "",
          "type": "uint16"
        }
      ],
      "stateMutability": "view",
      "type": "function"
    },
    {
      "inputs": [],
      "name": "defaultMintingFeeInBP",
      "outputs": [
        {
          "internalType": "uint16",
          "name": "",
          "type": "uint16"
        }
      ],
      "stateMutability": "view",
      "type": "function"
    },
    {
      "inputs": [],
      "name": "registry",
      "outputs": [
        {
          "internalType": "address",
          "name": "",
          "type": "address"
        }
      ],
      "stateMutability": "view",
      "type": "function"
    },
    {
      "inputs": [
        {
          "internalType": "uint256",
          "name": "_AUMScaledPerSecondsRate",
          "type": "uint256"
        }
      ],
      "name": "setDefaultAUMScaledPerSecondsRate",
      "outputs": [],
      "stateMutability": "nonpayable",
      "type": "function"
    },
    {
      "inputs": [
        {
          "internalType": "uint16",
          "name": "_burningFeeInBP",
          "type": "uint16"
        }
      ],
      "name": "setDefaultBurningFeeInBP",
      "outputs": [],
      "stateMutability": "nonpayable",
      "type": "function"
    },
    {
      "inputs": [
        {
          "internalType": "uint16",
          "name": "_mintingFeeInBP",
          "type": "uint16"
        }
      ],
      "name": "setDefaultMintingFeeInBP",
      "outputs": [],
      "stateMutability": "nonpayable",
      "type": "function"
    },
    {
      "inputs": [
        {
          "internalType": "bytes4",
          "name": "interfaceId",
          "type": "bytes4"
        }
      ],
      "name": "supportsInterface",
      "outputs": [
        {
          "internalType": "bool",
          "name": "",
          "type": "bool"
        }
      ],
      "stateMutability": "view",
      "type": "function"
    },
    {
      "inputs": [],
      "name": "vTokenFactory",
      "outputs": [
        {
          "internalType": "address",
          "name": "",
          "type": "address"
        }
      ],
      "stateMutability": "view",
      "type": "function"
    },
    {
      "inputs": [
        {
          "internalType": "address",
          "name": "_index",
          "type": "address"
        }
      ],
      "name": "withdrawToFeePool",
      "outputs": [],
      "stateMutability": "nonpayable",
      "type": "function"
    }
  ],
  "bytecode": "0x60c06040523480156200001157600080fd5b506040516200356e3803806200356e83398101604081905262000034916200012a565b84848484846001600160a01b038516158015906200005a57506001600160a01b03841615155b620000ab5760405162461bcd60e51b815260206004820152601660248201527f42617365496e646578466163746f72793a205a45524f00000000000000000000604482015260640160405180910390fd5b6001600160601b0319606095861b81166080529390941b90921660a0526000805461ffff938416620100000263ffffffff19909116939092169290921717905560015550620001919350505050565b80516001600160a01b03811681146200011257600080fd5b919050565b805161ffff811681146200011257600080fd5b600080600080600060a086880312156200014357600080fd5b6200014e86620000fa565b94506200015e60208701620000fa565b93506200016e6040870162000117565b92506200017e6060870162000117565b9150608086015190509295509295909350565b60805160601c60a05160601c613380620001ee6000396000610106015260008181610190015281816102230152818161038a015281816104d30152818161089b015281816109c601528181610b9f0152610cbf01526133806000f3fe60806040523480156200001157600080fd5b5060043610620000b65760003560e01c80634a8644d6116200007a5780634a8644d614620001675780637b103999146200018a5780637bd9cad214620001b25780639566a06714620001c9578063c0bc4e2214620001e0578063cbf8ee6d14620001f757600080fd5b80624ef30014620000bb57806301ffc9a714620000d457806328dd9912146200010057806329c5ee35146200013757806334b0c180146200014e575b600080fd5b620000d2620000cc366004620013e8565b6200020c565b005b620000eb620000e536600462001396565b62000345565b60405190151581526020015b60405180910390f35b620001287f000000000000000000000000000000000000000000000000000000000000000081565b604051620000f7919062001583565b620000d262000148366004620013c2565b62000373565b6200015860015481565b604051908152602001620000f7565b600054620001769061ffff1681565b60405161ffff9091168152602001620000f7565b620001287f000000000000000000000000000000000000000000000000000000000000000081565b62000128620001c3366004620012ce565b620004b9565b620000d2620001da366004620013c2565b62000b88565b620000d2620001f13660046200128e565b62000cbd565b600054620001769062010000900461ffff1681565b604051632474521560e21b81526001600160a01b037f000000000000000000000000000000000000000000000000000000000000000016906391d14854906200025d906000903390600401620016f1565b60206040518083038186803b1580156200027657600080fd5b505afa1580156200028b573d6000803e3d6000fd5b505050506040513d601f19601f82011682018060405250810190620002b1919062001372565b620002d95760405162461bcd60e51b8152600401620002d09062001770565b60405180910390fd5b6b033b2e3c9fd0803ce8000000811015620003085760405162461bcd60e51b8152600401620002d0906200173d565b600181905560405181815233907f12b7f8762ddb0be7f5afebf56b26d515c762e50980b21b8542c4a759c8a80a7c9060200160405180910390a250565b60006001600160e01b03198216633dece56960e11b14806200036d57506200036d8262000e2d565b92915050565b604051632474521560e21b81526001600160a01b037f000000000000000000000000000000000000000000000000000000000000000016906391d1485490620003c4906000903390600401620016f1565b60206040518083038186803b158015620003dd57600080fd5b505afa158015620003f2573d6000803e3d6000fd5b505050506040513d601f19601f8201168201806040525081019062000418919062001372565b620004375760405162461bcd60e51b8152600401620002d09062001770565b8061271061ffff82161115620004615760405162461bcd60e51b8152600401620002d0906200173d565b6000805463ffff000019166201000061ffff85169081029190911790915560405190815233907fc86205904d5727f8eb133ce7801357ac55052c5a5623e5f507beca817d81e586906020015b60405180910390a25050565b6040516314da340160e31b81526000906001600160a01b037f0000000000000000000000000000000000000000000000000000000000000000169063a6d1a008906200050a90339060040162001583565b60206040518083038186803b1580156200052357600080fd5b505afa15801562000538573d6000803e3d6000fd5b505050506040513d601f19601f820116820180604052508101906200055e919062001372565b6200057d5760405162461bcd60e51b8152600401620002d09062001770565b6001851180156200058f5750600a8511155b80156200059b57508285145b620005e95760405162461bcd60e51b815260206004820152601b60248201527f537461746963496e646578466163746f72793a20494e56414c494400000000006044820152606401620002d0565b6000805b86811015620007c95760008888838181106200060d576200060d6200188c565b90506020020160208101906200062491906200128e565b6001600160a01b0316141580156200066957508585828181106200064c576200064c6200188c565b90506020020160208101906200066391906200141c565b60ff1615155b620006b25760405162461bcd60e51b8152602060048201526018602482015277537461746963496e646578466163746f72793a205a45524f60401b6044820152606401620002d0565b80156200077957878782818110620006ce57620006ce6200188c565b9050602002016020810190620006e591906200128e565b6001600160a01b03168888620006fd6001856200180b565b8181106200070f576200070f6200188c565b90506020020160208101906200072691906200128e565b6001600160a01b031610620007795760405162461bcd60e51b815260206004820152601860248201527714dd185d1a58d25b99195e119858dd1bdc9e4e8814d3d49560421b6044820152606401620002d0565b8585828181106200078e576200078e6200188c565b9050602002016020810190620007a591906200141c565b620007b49060ff1683620017f0565b9150620007c18162001858565b9050620005ed565b5060ff8114620008165760405162461bcd60e51b81526020600482015260176024820152760a6e8c2e8d2c692dcc8caf08cc2c6e8dee4f274409a82b604b1b6044820152606401620002d0565b600087878787604051602001620008319493929190620014ea565b60405160208183030381529060405280519060200120905062000881816040518060200162000860906200121a565b6020820181038252601f19601f820116604052508051906020012062000e64565b604051634a1d69f960e01b81529093506001600160a01b037f00000000000000000000000000000000000000000000000000000000000000001690634a1d69f990620008d49086908890600401620015df565b600060405180830381600087803b158015620008ef57600080fd5b505af115801562000904573d6000803e3d6000fd5b505050506200093a6000826040518060200162000921906200121a565b601f1982820381018352601f9091011660405262000ec3565b50506040805160018082528183019092526000925090816020015b6040805180820190915260008082526020820152815260200190600190039081620009555790505090506040518060400160405280836001600160a01b0316815260200161271061ffff1681525081600081518110620009b957620009b96200188c565b60200260200101819052507f00000000000000000000000000000000000000000000000000000000000000006001600160a01b031663ae2e933b6040518163ffffffff1660e01b815260040160206040518083038186803b15801562000a1e57600080fd5b505afa15801562000a33573d6000803e3d6000fd5b505050506040513d601f19601f8201168201806040525081019062000a599190620012ae565b6000546001546040516319f6455f60e11b81526001600160a01b0393909316926333ec8abe9262000aa192879261ffff80841693620100009004169190889060040162001641565b600060405180830381600087803b15801562000abc57600080fd5b505af115801562000ad1573d6000803e3d6000fd5b505060405163fe1de1f360e01b81526001600160a01b038516925063fe1de1f3915062000b09908a908a908a908a90600401620016c6565b600060405180830381600087803b15801562000b2457600080fd5b505af115801562000b39573d6000803e3d6000fd5b505050507f50577ea1e27eb621e0994be73e366dfa3f3f6c5a2fc13f4deba2e64eb925d604828888888860405162000b7695949392919062001597565b60405180910390a15095945050505050565b604051632474521560e21b81526001600160a01b037f000000000000000000000000000000000000000000000000000000000000000016906391d148549062000bd9906000903390600401620016f1565b60206040518083038186803b15801562000bf257600080fd5b505afa15801562000c07573d6000803e3d6000fd5b505050506040513d601f19601f8201168201806040525081019062000c2d919062001372565b62000c4c5760405162461bcd60e51b8152600401620002d09062001770565b8061271061ffff8216111562000c765760405162461bcd60e51b8152600401620002d0906200173d565b6000805461ffff191661ffff841690811790915560405190815233907f502c4a764681dfc2da50d1dbd5fe9ce39b4b772fcc1d42bc3e2d67972f1e823d90602001620004ad565b7f00000000000000000000000000000000000000000000000000000000000000006001600160a01b031663ae2e933b6040518163ffffffff1660e01b815260040160206040518083038186803b15801562000d1757600080fd5b505afa15801562000d2c573d6000803e3d6000fd5b505050506040513d601f19601f8201168201806040525081019062000d529190620012ae565b6001600160a01b0316336001600160a01b03161462000d855760405162461bcd60e51b8152600401620002d09062001770565b6040516370a0823160e01b81526000906001600160a01b038316906370a082319062000db690309060040162001583565b60206040518083038186803b15801562000dcf57600080fd5b505afa15801562000de4573d6000803e3d6000fd5b505050506040513d601f19601f8201168201806040525081019062000e0a919062001402565b9050801562000e295762000e296001600160a01b038316338362000fcf565b5050565b60006001600160e01b0319821663026948e360e61b14806200036d57506301ffc9a760e01b6001600160e01b03198316146200036d565b604080516001600160f81b03196020808301919091526bffffffffffffffffffffffff193060601b16602183015260358201859052605580830185905283518084039091018152607590920190925280519101206000905b9392505050565b6000808447101562000f185760405162461bcd60e51b815260206004820152601d60248201527f437265617465323a20696e73756666696369656e742062616c616e63650000006044820152606401620002d0565b825162000f685760405162461bcd60e51b815260206004820181905260248201527f437265617465323a2062797465636f6465206c656e677468206973207a65726f6044820152606401620002d0565b8383516020850187f590506001600160a01b03811662000fc75760405162461bcd60e51b8152602060048201526019602482015278437265617465323a204661696c6564206f6e206465706c6f7960381b6044820152606401620002d0565b949350505050565b604080516001600160a01b038416602482015260448082018490528251808303909101815260649091019091526020810180516001600160e01b031663a9059cbb60e01b1790526200102390849062001028565b505050565b60006200107f826040518060400160405280602081526020017f5361666545524332303a206c6f772d6c6576656c2063616c6c206661696c6564815250856001600160a01b0316620011019092919063ffffffff16565b805190915015620010235780806020019051810190620010a0919062001372565b620010235760405162461bcd60e51b815260206004820152602a60248201527f5361666545524332303a204552433230206f7065726174696f6e20646964206e6044820152691bdd081cdd58d8d9595960b21b6064820152608401620002d0565b606062000fc7848460008585843b6200115d5760405162461bcd60e51b815260206004820152601d60248201527f416464726573733a2063616c6c20746f206e6f6e2d636f6e74726163740000006044820152606401620002d0565b600080866001600160a01b031685876040516200117b919062001565565b60006040518083038185875af1925050503d8060008114620011ba576040519150601f19603f3d011682016040523d82523d6000602084013e620011bf565b606091505b5091509150620011d1828286620011dc565b979650505050505050565b60608315620011ed57508162000ebc565b825115620011fe5782518084602001fd5b8160405162461bcd60e51b8152600401620002d0919062001708565b611a8f80620018bc83390190565b60008083601f8401126200123b57600080fd5b50813567ffffffffffffffff8111156200125457600080fd5b6020830191508360208260051b85010111156200127057600080fd5b9250929050565b803560ff811681146200128957600080fd5b919050565b600060208284031215620012a157600080fd5b813562000ebc81620018a2565b600060208284031215620012c157600080fd5b815162000ebc81620018a2565b600080600080600060608688031215620012e757600080fd5b853567ffffffffffffffff808211156200130057600080fd5b6200130e89838a0162001228565b909750955060208801359150808211156200132857600080fd5b6200133689838a0162001228565b909550935060408801359150808211156200135057600080fd5b508601604081890312156200136457600080fd5b809150509295509295909350565b6000602082840312156200138557600080fd5b8151801515811462000ebc57600080fd5b600060208284031215620013a957600080fd5b81356001600160e01b03198116811462000ebc57600080fd5b600060208284031215620013d557600080fd5b813561ffff8116811462000ebc57600080fd5b600060208284031215620013fb57600080fd5b5035919050565b6000602082840312156200141557600080fd5b5051919050565b6000602082840312156200142f57600080fd5b62000ebc8262001277565b8183526000602080850194508260005b858110156200147c5781356200146081620018a2565b6001600160a01b0316875295820195908201906001016200144a565b509495945050505050565b8183526000602080850194508260005b858110156200147c5760ff620014ad8362001277565b168752958201959082019060010162001497565b81835281816020850137506000828201602090810191909152601f909101601f19169091010190565b60008186825b87811015620015255781356200150681620018a2565b6001600160a01b031683526020928301929190910190600101620014f0565b508591905060005b85811015620015595760ff620015438462001277565b168252602092830192909101906001016200152d565b50979650505050505050565b600082516200157981846020870162001825565b9190910192915050565b6001600160a01b0391909116815260200190565b6001600160a01b0386168152606060208201819052600090620015be90830186886200143a565b8281036040840152620015d381858762001487565b98975050505050505050565b6001600160a01b0383168152604060208201526000620016008380620017a7565b60408085015262001616608085018284620014c1565b915050620016286020850185620017a7565b848303603f19016060860152620011d1838284620014c1565b600060a0820160018060a01b038089168452602061ffff808a16828701526040818a168188015288606088015260a06080880152849150875180865260c088019250838901955060005b81811015620016b45786518051871685528501518585015295840195928201926001016200168b565b50919c9b505050505050505050505050565b604081526000620016dc6040830186886200143a565b8281036020840152620011d181858762001487565b9182526001600160a01b0316602082015260400190565b60208152600082518060208401526200172981604085016020870162001825565b601f01601f19169190910160400192915050565b60208082526019908201527810985cd9525b99195e119858dd1bdc9e4e8812539590531251603a1b604082015260600190565b6020808252601b908201527f42617365496e646578466163746f72793a20464f5242494444454e0000000000604082015260600190565b6000808335601e19843603018112620017bf57600080fd5b830160208101925035905067ffffffffffffffff811115620017e057600080fd5b8036038313156200127057600080fd5b6000821982111562001806576200180662001876565b500190565b60008282101562001820576200182062001876565b500390565b60005b838110156200184257818101518382015260200162001828565b8381111562001852576000848401525b50505050565b60006000198214156200186f576200186f62001876565b5060010190565b634e487b7160e01b600052601160045260246000fd5b634e487b7160e01b600052603260045260246000fd5b6001600160a01b0381168114620018b857600080fd5b5056fe60806040523480156200001157600080fd5b506001600b55600480546001600160a01b0319163390811782554260075560408051637b10399960e01b8152905191928392637b103999928083019260209291829003018186803b1580156200006657600080fd5b505afa1580156200007b573d6000803e3d6000fd5b505050506040513d601f19601f82011682018060405250810190620000a1919062000163565b600660006101000a8154816001600160a01b0302191690836001600160a01b03160217905550806001600160a01b03166328dd99126040518163ffffffff1660e01b815260040160206040518083038186803b1580156200010157600080fd5b505afa15801562000116573d6000803e3d6000fd5b505050506040513d601f19601f820116820180604052508101906200013c919062000163565b600580546001600160a01b0319166001600160a01b03929092169190911790555062000195565b6000602082840312156200017657600080fd5b81516001600160a01b03811681146200018e57600080fd5b9392505050565b6118ea80620001a56000396000f3fe608060405234801561001057600080fd5b50600436106101425760003560e01c806370a08231116100b8578063a0aead4d1161007c578063a0aead4d146102ce578063a9059cbb146102d6578063c45a0155146102e9578063d505accf146102fc578063dd62ed3e1461030f578063fe1de1f31461033a57600080fd5b806370a08231146102605780637b103999146102805780637ecebe001461029357806389afcb44146102b357806395d89b41146102c657600080fd5b806323b872dd1161010a57806323b872dd146101cf57806328dd9912146101e257806330adf81f14610202578063313ce567146102295780633644e515146102435780636a6278421461024b57600080fd5b806301ffc9a71461014757806306fdde031461016f578063095ea7b31461018457806318160ddd146101975780631a7bc013146101ae575b600080fd5b61015a610155366004611551565b61034d565b60405190151581526020015b60405180910390f35b610177610378565b6040516101669190611735565b61015a6101923660046114b9565b610402565b6101a060005481565b604051908152602001610166565b6101c16101bc366004611641565b610418565b6040516101669291906116ae565b61015a6101dd36600461140a565b6105b7565b6005546101f5906001600160a01b031681565b604051610166919061169a565b6101a07f6e71edae12b1b97f4d1f60370fef10105fa2faae0126114a169c64845d6126c981565b610231601281565b60405160ff9091168152602001610166565b6101a0610631565b61025e610259366004611397565b6106da565b005b6101a061026e366004611397565b60016020526000908152604090205481565b6006546101f5906001600160a01b031681565b6101a06102a1366004611397565b60036020526000908152604090205481565b61025e6102c1366004611397565b610880565b610177610a0b565b6101a0610a3c565b61015a6102e43660046114b9565b610a48565b6004546101f5906001600160a01b031681565b61025e61030a36600461144b565b610a55565b6101a061031d3660046113d1565b600260209081526000928352604080842090915290825290205481565b61025e6103483660046114e5565b610c71565b60006001600160e01b03198216630b231bcb60e31b1480610372575061037282610db4565b92915050565b60065460405163ed3b559f60e01b81526060916001600160a01b03169063ed3b559f906103a990309060040161169a565b60006040518083038186803b1580156103c157600080fd5b505afa1580156103d5573d6000803e3d6000fd5b505050506040513d6000823e601f3d908101601f191682016040526103fd919081019061157b565b905090565b600061040f338484610dd9565b50600192915050565b6060806104256008610e3b565b84101561044f5761044a8461043a6008610e3b565b61044491906117f8565b84610e45565b610452565b60005b67ffffffffffffffff81111561046a5761046a611886565b604051908082528060200260200182016040528015610493578160200160208202803683370190505b509150815167ffffffffffffffff8111156104b0576104b0611886565b6040519080825280602002602001820160405280156104d9578160200160208202803683370190505b50905060005b82518110156105af576104fd6104f5828761179f565b600890610e5d565b83828151811061050f5761050f611870565b60200260200101906001600160a01b031690816001600160a01b031681525050600a600084838151811061054557610545611870565b60200260200101516001600160a01b03166001600160a01b0316815260200190815260200160002060009054906101000a900460ff1682828151811061058d5761058d611870565b60ff909216602092830291909101909101526105a88161183f565b90506104df565b509250929050565b6001600160a01b03831660009081526002602090815260408083203384529091528120546000191461061c576001600160a01b0384166000908152600260209081526040808320338452909152812080548492906106169084906117f8565b90915550505b610627848484610e69565b5060019392505050565b60007f8b73c3c69bb8fe3d512ecc4cf759cc79239f7b179b0ffacaa9a75d522b39400f61065c610378565b805160209182012060408051808201825260018152603160f81b90840152805192830193909352918101919091527fc89efdaa54c0f20c7adf612882df0950f5a951637e0307cdcb4c672f298b8bc660608201524660808201523060a082015260c00160405160208183030381529060405280519060200120905090565b6002600b5414156107065760405162461bcd60e51b81526004016106fd90611768565b60405180910390fd5b6002600b556006546040805163583def7b60e11b8152905160009283926001600160a01b039091169163b07bdef69160048082019260209290919082900301818787803b15801561075657600080fd5b505af115801561076a573d6000803e3d6000fd5b505050506040513d601f19601f8201168201806040525081019061078e91906113b4565b6001600160a01b0316836040516024016107a8919061169a565b60408051601f198184030181529181526020820180516001600160e01b03166335313c2160e11b179052516107dd919061167e565b600060405180830381855af49150503d8060008114610818576040519150601f19603f3d011682016040523d82523d6000602084013e61081d565b606091505b50915091508161087657805161086e5760405162461bcd60e51b815260206004820152601660248201527510985cd9525b99195e0e881352539517d1905253115160521b60448201526064016106fd565b805181602001fd5b50506001600b5550565b6002600b5414156108a35760405162461bcd60e51b81526004016106fd90611768565b6002600b556006546040805163583def7b60e11b8152905160009283926001600160a01b039091169163b07bdef69160048082019260209290919082900301818787803b1580156108f357600080fd5b505af1158015610907573d6000803e3d6000fd5b505050506040513d601f19601f8201168201806040525081019061092b91906113b4565b6001600160a01b031683604051602401610945919061169a565b60408051601f198184030181529181526020820180516001600160e01b031663226bf2d160e21b1790525161097a919061167e565b600060405180830381855af49150503d80600081146109b5576040519150601f19603f3d011682016040523d82523d6000602084013e6109ba565b606091505b50915091508161087657805161086e5760405162461bcd60e51b815260206004820152601660248201527510985cd9525b99195e0e881095549397d1905253115160521b60448201526064016106fd565b60065460405163554f94ab60e01b81526060916001600160a01b03169063554f94ab906103a990309060040161169a565b60006103fd6008610e3b565b600061040f338484610e69565b42841015610a9d5760405162461bcd60e51b8152602060048201526015602482015274141a1d5d1d5c99515490cc8c0e8811561412549151605a1b60448201526064016106fd565b6000610aa7610631565b6001600160a01b038916600090815260036020526040812080547f6e71edae12b1b97f4d1f60370fef10105fa2faae0126114a169c64845d6126c9928c928c928c92909190610af58361183f565b909155506040805160208101969096526001600160a01b0394851690860152929091166060840152608083015260a082015260c0810187905260e00160405160208183030381529060405280519060200120604051602001610b6e92919061190160f01b81526002810192909252602282015260420190565b60408051601f198184030181528282528051602091820120600080855291840180845281905260ff88169284019290925260608301869052608083018590529092509060019060a0016020604051602081039080840390855afa158015610bd9573d6000803e3d6000fd5b5050604051601f1901519150506001600160a01b03811615801590610c0f5750886001600160a01b0316816001600160a01b0316145b610c5b5760405162461bcd60e51b815260206004820152601f60248201527f5068757475726545524332303a20494e56414c49445f5349474e41545552450060448201526064016106fd565b610c66898989610dd9565b505050505050505050565b6004546001600160a01b03163314610cc45760405162461bcd60e51b815260206004820152601660248201527529ba30ba34b1a4b73232bc1d102327a92124a22222a760511b60448201526064016106fd565b60005b83811015610dad576000858583818110610ce357610ce3611870565b9050602002016020810190610cf89190611397565b90506000848484818110610d0e57610d0e611870565b9050602002016020810190610d239190611663565b6001600160a01b0383166000908152600a60205260409020805460ff191660ff83161790559050610d55600883610efc565b50604080516001600160a01b038416815260ff831660208201527f570021dbfc0c0d1b83293d5c8ce73e7cef80870624da237d3e4bc6bda4abab58910160405180910390a1505080610da69061183f565b9050610cc7565b5050505050565b60006001600160e01b03198216634bcbd0ef60e11b1480610372575061037282610f11565b6001600160a01b0383811660008181526002602090815260408083209487168084529482529182902085905590518481527f8c5be1e5ebec7d5bd14f71427d1e84f3dd0314c0f7b2291e5b200ac8c7c3b92591015b60405180910390a3505050565b6000610372825490565b6000818310610e545781610e56565b825b9392505050565b6000610e568383610f61565b6006546040805163ae2e933b60e01b81529051610eec926001600160a01b03169163ae2e933b916004808301926020929190829003018186803b158015610eaf57600080fd5b505afa158015610ec3573d6000803e3d6000fd5b505050506040513d601f19601f82011682018060405250810190610ee791906113b4565b610f8b565b610ef78383836110b2565b505050565b6000610e56836001600160a01b03841661119e565b60006001600160e01b031982166336372b0760e01b1480610f4257506001600160e01b0319821663390c84e760e01b145b8061037257506301ffc9a760e01b6001600160e01b0319831614610372565b6000826000018281548110610f7857610f78611870565b9060005260206000200154905092915050565b600060075442610f9b91906117f8565b905080156110ae5760006b033b2e3c9fd0803ce800000080611045856001600160a01b0316635612e00b306040518263ffffffff1660e01b8152600401610fe2919061169a565b60206040518083038186803b158015610ffa57600080fd5b505afa15801561100e573d6000803e3d6000fd5b505050506040513d601f19601f820116820180604052508101906110329190611628565b856b033b2e3c9fd0803ce80000006111ed565b61104f91906117f8565b6004546001600160a01b0316600090815260016020526040812054905461107691906117f8565b61108091906117d9565b61108a91906117b7565b90508015610ef7576004546110a8906001600160a01b0316826112ab565b42600755505b5050565b6001600160a01b0382166110fd5760405162461bcd60e51b81526020600482015260126024820152715068757475726545524332303a205a45524f60701b60448201526064016106fd565b6001600160a01b038316600090815260016020526040812080548392906111259084906117f8565b90915550506001600160a01b0382166000908152600160205260408120805483929061115290849061179f565b92505081905550816001600160a01b0316836001600160a01b03167fddf252ad1be2c89b69c2b068fc378daa952ba7f163c4a11628f55a4df523b3ef83604051610e2e91815260200190565b60008181526001830160205260408120546111e557508154600181810184556000848152602080822090930184905584548482528286019093526040902091909155610372565b506000610372565b600083801561128d576001841680156112085785925061120c565b8392505b50600283046002850494505b841561128757858602868782041461122f57600080fd5b8181018181101561123f57600080fd5b859004965050600185161561127c57858302838782041415871515161561126557600080fd5b8181018181101561127557600080fd5b8590049350505b600285049450611218565b506112a3565b83801561129d57600092506112a1565b8392505b505b509392505050565b6001600160a01b038216600090815260016020526040812080548392906112d390849061179f565b92505081905550806000808282546112eb919061179f565b90915550506040518181526001600160a01b038316906000907fddf252ad1be2c89b69c2b068fc378daa952ba7f163c4a11628f55a4df523b3ef9060200160405180910390a35050565b60008083601f84011261134757600080fd5b50813567ffffffffffffffff81111561135f57600080fd5b6020830191508360208260051b850101111561137a57600080fd5b9250929050565b803560ff8116811461139257600080fd5b919050565b6000602082840312156113a957600080fd5b8135610e568161189c565b6000602082840312156113c657600080fd5b8151610e568161189c565b600080604083850312156113e457600080fd5b82356113ef8161189c565b915060208301356113ff8161189c565b809150509250929050565b60008060006060848603121561141f57600080fd5b833561142a8161189c565b9250602084013561143a8161189c565b929592945050506040919091013590565b600080600080600080600060e0888a03121561146657600080fd5b87356114718161189c565b965060208801356114818161189c565b9550604088013594506060880135935061149d60808901611381565b925060a0880135915060c0880135905092959891949750929550565b600080604083850312156114cc57600080fd5b82356114d78161189c565b946020939093013593505050565b600080600080604085870312156114fb57600080fd5b843567ffffffffffffffff8082111561151357600080fd5b61151f88838901611335565b9096509450602087013591508082111561153857600080fd5b5061154587828801611335565b95989497509550505050565b60006020828403121561156357600080fd5b81356001600160e01b031981168114610e5657600080fd5b60006020828403121561158d57600080fd5b815167ffffffffffffffff808211156115a557600080fd5b818401915084601f8301126115b957600080fd5b8151818111156115cb576115cb611886565b604051601f8201601f19908116603f011681019083821181831017156115f3576115f3611886565b8160405282815287602084870101111561160c57600080fd5b61161d83602083016020880161180f565b979650505050505050565b60006020828403121561163a57600080fd5b5051919050565b6000806040838503121561165457600080fd5b50508035926020909101359150565b60006020828403121561167557600080fd5b610e5682611381565b6000825161169081846020870161180f565b9190910192915050565b6001600160a01b0391909116815260200190565b604080825283519082018190526000906020906060840190828701845b828110156116f05781516001600160a01b0316845292840192908401906001016116cb565b5050508381038285015284518082528583019183019060005b8181101561172857835160ff1683529284019291840191600101611709565b5090979650505050505050565b602081526000825180602084015261175481604085016020870161180f565b601f01601f19169190910160400192915050565b6020808252601f908201527f5265656e7472616e637947756172643a207265656e7472616e742063616c6c00604082015260600190565b600082198211156117b2576117b261185a565b500190565b6000826117d457634e487b7160e01b600052601260045260246000fd5b500490565b60008160001904831182151516156117f3576117f361185a565b500290565b60008282101561180a5761180a61185a565b500390565b60005b8381101561182a578181015183820152602001611812565b83811115611839576000848401525b50505050565b60006000198214156118535761185361185a565b5060010190565b634e487b7160e01b600052601160045260246000fd5b634e487b7160e01b600052603260045260246000fd5b634e487b7160e01b600052604160045260246000fd5b6001600160a01b03811681146118b157600080fd5b5056fea2646970667358221220945b40d318d61112f4278de7e3bd77539ec646389a605346f64ce18302c1a1fd64736f6c63430008070033a2646970667358221220586a9ce67ccae45cb0bd4fb5b4def458e1100c0236f5cbe83bee979010ddd4a464736f6c63430008070033",
  "linkReferences": {},
  "deployedLinkReferences": {}
}