{
  "_format": "hh-sol-artifact-1",
  "contractName": "StaticIndex",
  "sourceName": "contracts/StaticIndex.sol",
  "abi": [
    {
      "inputs": [],
      "stateMutability": "nonpayable",
      "type": "constructor"
    },
    {
      "anonymous": false,
      "inputs": [
        {
          "indexed": true,
          "internalType": "address",
          "name": "owner",
          "type": "address"
        },
        {
          "indexed": true,
          "internalType": "address",
          "name": "spender",
          "type": "address"
        },
        {
          "indexed": false,
          "internalType": "uint256",
          "name": "value",
          "type": "uint256"
        }
      ],
      "name": "Approval",
      "type": "event"
    },
    {
      "anonymous": false,
      "inputs": [
        {
          "indexed": true,
          "internalType": "address",
          "name": "from",
          "type": "address"
        },
        {
          "indexed": true,
          "internalType": "address",
          "name": "to",
          "type": "address"
        },
        {
          "indexed": false,
          "internalType": "uint256",
          "name": "value",
          "type": "uint256"
        }
      ],
      "name": "Transfer",
      "type": "event"
    },
    {
      "anonymous": false,
      "inputs": [
        {
          "indexed": false,
          "internalType": "address[]",
          "name": "assets",
          "type": "address[]"
        },
        {
          "indexed": false,
          "internalType": "uint8[]",
          "name": "weights",
          "type": "uint8[]"
        }
      ],
      "name": "UpdateAnatomy",
      "type": "event"
    },
    {
      "inputs": [],
      "name": "DOMAIN_SEPARATOR",
      "outputs": [
        {
          "internalType": "bytes32",
          "name": "",
          "type": "bytes32"
        }
      ],
      "stateMutability": "view",
      "type": "function"
    },
    {
      "inputs": [],
      "name": "PERMIT_TYPEHASH",
      "outputs": [
        {
          "internalType": "bytes32",
          "name": "",
          "type": "bytes32"
        }
      ],
      "stateMutability": "view",
      "type": "function"
    },
    {
      "inputs": [],
      "name": "V_TOKEN_TYPE",
      "outputs": [
        {
          "internalType": "bytes32",
          "name": "",
          "type": "bytes32"
        }
      ],
      "stateMutability": "view",
      "type": "function"
    },
    {
      "inputs": [
        {
          "internalType": "address",
          "name": "",
          "type": "address"
        },
        {
          "internalType": "address",
          "name": "",
          "type": "address"
        }
      ],
      "name": "allowance",
      "outputs": [
        {
          "internalType": "uint256",
          "name": "",
          "type": "uint256"
        }
      ],
      "stateMutability": "view",
      "type": "function"
    },
    {
      "inputs": [
        {
          "internalType": "uint256",
          "name": "_offset",
          "type": "uint256"
        },
        {
          "internalType": "uint256",
          "name": "_count",
          "type": "uint256"
        }
      ],
      "name": "anatomyForRange",
      "outputs": [
        {
          "internalType": "address[]",
          "name": "_assets",
          "type": "address[]"
        },
        {
          "internalType": "uint8[]",
          "name": "_weights",
          "type": "uint8[]"
        }
      ],
      "stateMutability": "view",
      "type": "function"
    },
    {
      "inputs": [
        {
          "internalType": "address",
          "name": "spender",
          "type": "address"
        },
        {
          "internalType": "uint256",
          "name": "value",
          "type": "uint256"
        }
      ],
      "name": "approve",
      "outputs": [
        {
          "internalType": "bool",
          "name": "",
          "type": "bool"
        }
      ],
      "stateMutability": "nonpayable",
      "type": "function"
    },
    {
      "inputs": [
        {
          "internalType": "address",
          "name": "",
          "type": "address"
        }
      ],
      "name": "balanceOf",
      "outputs": [
        {
          "internalType": "uint256",
          "name": "",
          "type": "uint256"
        }
      ],
      "stateMutability": "view",
      "type": "function"
    },
    {
      "inputs": [
        {
          "internalType": "address",
          "name": "_recipient",
          "type": "address"
        }
      ],
      "name": "burn",
      "outputs": [],
      "stateMutability": "nonpayable",
      "type": "function"
    },
    {
      "inputs": [],
      "name": "decimals",
      "outputs": [
        {
          "internalType": "uint8",
          "name": "",
          "type": "uint8"
        }
      ],
      "stateMutability": "view",
      "type": "function"
    },
    {
      "inputs": [],
      "name": "factory",
      "outputs": [
        {
          "internalType": "address",
          "name": "",
          "type": "address"
        }
      ],
      "stateMutability": "view",
      "type": "function"
    },
    {
      "inputs": [],
      "name": "getAssetCount",
      "outputs": [
        {
          "internalType": "uint256",
          "name": "",
          "type": "uint256"
        }
      ],
      "stateMutability": "view",
      "type": "function"
    },
    {
      "inputs": [
        {
          "internalType": "address[]",
          "name": "_assets",
          "type": "address[]"
        },
        {
          "internalType": "uint8[]",
          "name": "_weights",
          "type": "uint8[]"
        }
      ],
      "name": "initialize",
      "outputs": [],
      "stateMutability": "nonpayable",
      "type": "function"
    },
    {
      "inputs": [
        {
          "internalType": "address",
          "name": "_recipient",
          "type": "address"
        }
      ],
      "name": "mint",
      "outputs": [],
      "stateMutability": "nonpayable",
      "type": "function"
    },
    {
      "inputs": [],
      "name": "name",
      "outputs": [
        {
          "internalType": "string",
          "name": "",
          "type": "string"
        }
      ],
      "stateMutability": "view",
      "type": "function"
    },
    {
      "inputs": [
        {
          "internalType": "address",
          "name": "",
          "type": "address"
        }
      ],
      "name": "nonces",
      "outputs": [
        {
          "internalType": "uint256",
          "name": "",
          "type": "uint256"
        }
      ],
      "stateMutability": "view",
      "type": "function"
    },
    {
      "inputs": [
        {
          "internalType": "address",
          "name": "owner",
          "type": "address"
        },
        {
          "internalType": "address",
          "name": "spender",
          "type": "address"
        },
        {
          "internalType": "uint256",
          "name": "value",
          "type": "uint256"
        },
        {
          "internalType": "uint256",
          "name": "deadline",
          "type": "uint256"
        },
        {
          "internalType": "uint8",
          "name": "v",
          "type": "uint8"
        },
        {
          "internalType": "bytes32",
          "name": "r",
          "type": "bytes32"
        },
        {
          "internalType": "bytes32",
          "name": "s",
          "type": "bytes32"
        }
      ],
      "name": "permit",
      "outputs": [],
      "stateMutability": "nonpayable",
      "type": "function"
    },
    {
      "inputs": [],
      "name": "registry",
      "outputs": [
        {
          "internalType": "address",
          "name": "",
          "type": "address"
        }
      ],
      "stateMutability": "view",
      "type": "function"
    },
    {
      "inputs": [
        {
          "internalType": "bytes4",
          "name": "interfaceId",
          "type": "bytes4"
        }
      ],
      "name": "supportsInterface",
      "outputs": [
        {
          "internalType": "bool",
          "name": "",
          "type": "bool"
        }
      ],
      "stateMutability": "view",
      "type": "function"
    },
    {
      "inputs": [],
      "name": "symbol",
      "outputs": [
        {
          "internalType": "string",
          "name": "",
          "type": "string"
        }
      ],
      "stateMutability": "view",
      "type": "function"
    },
    {
      "inputs": [],
      "name": "totalSupply",
      "outputs": [
        {
          "internalType": "uint256",
          "name": "",
          "type": "uint256"
        }
      ],
      "stateMutability": "view",
      "type": "function"
    },
    {
      "inputs": [
        {
          "internalType": "address",
          "name": "to",
          "type": "address"
        },
        {
          "internalType": "uint256",
          "name": "value",
          "type": "uint256"
        }
      ],
      "name": "transfer",
      "outputs": [
        {
          "internalType": "bool",
          "name": "",
          "type": "bool"
        }
      ],
      "stateMutability": "nonpayable",
      "type": "function"
    },
    {
      "inputs": [
        {
          "internalType": "address",
          "name": "from",
          "type": "address"
        },
        {
          "internalType": "address",
          "name": "to",
          "type": "address"
        },
        {
          "internalType": "uint256",
          "name": "value",
          "type": "uint256"
        }
      ],
      "name": "transferFrom",
      "outputs": [
        {
          "internalType": "bool",
          "name": "",
          "type": "bool"
        }
      ],
      "stateMutability": "nonpayable",
      "type": "function"
    },
    {
      "inputs": [],
      "name": "vTokenFactory",
      "outputs": [
        {
          "internalType": "address",
          "name": "",
          "type": "address"
        }
      ],
      "stateMutability": "view",
      "type": "function"
    }
  ],
  "bytecode": "0x60e06040526000805460ff191660121790553480156200001e57600080fd5b50600160055533606081901b6080524260065560408051637b10399960e01b815290518291637b103999916004808301926020929190829003018186803b1580156200006957600080fd5b505afa1580156200007e573d6000803e3d6000fd5b505050506040513d601f19601f82011682018060405250810190620000a491906200014c565b6001600160a01b031660c0816001600160a01b031660601b81525050806001600160a01b03166328dd99126040518163ffffffff1660e01b815260040160206040518083038186803b158015620000fa57600080fd5b505afa1580156200010f573d6000803e3d6000fd5b505050506040513d601f19601f820116820180604052508101906200013591906200014c565b60601b6001600160601b03191660a052506200017e565b6000602082840312156200015f57600080fd5b81516001600160a01b03811681146200017757600080fd5b9392505050565b60805160601c60a05160601c60c05160601c612c1e62000219600039600081816102a9015281816103f20152818161079201528181610830015281816109580152818161101c0152818161112b015281816112a1015281816116500152611a4a0152600081816101f201528181610b3e0152611397015260008181610326015281816118b901528181611bbc0152611c190152612c1e6000f3fe608060405234801561001057600080fd5b506004361061014d5760003560e01c806370a08231116100c3578063a9059cbb1161007c578063a9059cbb1461030e578063c45a015514610321578063d505accf14610348578063dc18ed261461035b578063dd62ed3e14610370578063fe1de1f31461039b57600080fd5b806370a08231146102845780637b103999146102a45780637ecebe00146102cb57806389afcb44146102eb57806395d89b41146102fe578063a0aead4d1461030657600080fd5b806323b872dd1161011557806323b872dd146101da57806328dd9912146101ed57806330adf81f14610221578063313ce567146102485780633644e515146102675780636a6278421461026f57600080fd5b806301ffc9a71461015257806306fdde031461017a578063095ea7b31461018f57806318160ddd146101a25780631a7bc013146101b9575b600080fd5b6101656101603660046121ca565b6103ae565b60405190151581526020015b60405180910390f35b6101826103d8565b60405161017191906129de565b61016561019d366004612110565b610480565b6101ab60015481565b604051908152602001610171565b6101cc6101c73660046122de565b610496565b60405161017192919061232d565b6101656101e8366004612058565b610637565b6102147f000000000000000000000000000000000000000000000000000000000000000081565b6040516101719190612300565b6101ab7f6e71edae12b1b97f4d1f60370fef10105fa2faae0126114a169c64845d6126c981565b6000546102559060ff1681565b60405160ff9091168152602001610171565b6101ab6106b1565b61028261027d366004611fe5565b61075a565b005b6101ab610292366004611fe5565b60026020526000908152604090205481565b6102147f000000000000000000000000000000000000000000000000000000000000000081565b6101ab6102d9366004611fe5565b60046020526000908152604090205481565b6102826102f9366004611fe5565b610fb4565b610182611636565b6007546101ab565b61016561031c366004612110565b611685565b6102147f000000000000000000000000000000000000000000000000000000000000000081565b610282610356366004612099565b611692565b6101ab600080516020612bc983398151915281565b6101ab61037e36600461201f565b600360209081526000928352604080842090915290825290205481565b6102826103a936600461213c565b6118ae565b60006001600160e01b031982166294bc9560e51b14806103d257506103d28261197a565b92915050565b60405163ed3b559f60e01b81526060906001600160a01b037f0000000000000000000000000000000000000000000000000000000000000000169063ed3b559f90610427903090600401612300565b60006040518083038186803b15801561043f57600080fd5b505afa158015610453573d6000803e3d6000fd5b505050506040513d6000823e601f3d908101601f1916820160405261047b91908101906121f4565b905090565b600061048d3384846119cb565b50600192915050565b60075460609081908410156104c2576007546104bd906104b7908690612ad6565b84611a2d565b6104c5565b60005b67ffffffffffffffff8111156104dd576104dd612b7a565b604051908082528060200260200182016040528015610506578160200160208202803683370190505b509150815167ffffffffffffffff81111561052357610523612b7a565b60405190808252806020026020018201604052801561054c578160200160208202803683370190505b50905060005b825181101561062f5760076105678287612a7d565b8154811061057757610577612b64565b9060005260206000200160009054906101000a90046001600160a01b03168382815181106105a7576105a7612b64565b6001600160a01b039092166020928302919091019091015260086105cb8287612a7d565b815481106105db576105db612b64565b90600052602060002090602091828204019190069054906101000a900460ff1682828151811061060d5761060d612b64565b60ff9092166020928302919091019091015261062881612b1d565b9050610552565b509250929050565b6001600160a01b03831660009081526003602090815260408083203384529091528120546000191461069c576001600160a01b038416600090815260036020908152604080832033845290915281208054849290610696908490612ad6565b90915550505b6106a7848484611a45565b5060019392505050565b60007f8b73c3c69bb8fe3d512ecc4cf759cc79239f7b179b0ffacaa9a75d522b39400f6106dc6103d8565b805160209182012060408051808201825260018152603160f81b90840152805192830193909352918101919091527fc89efdaa54c0f20c7adf612882df0950f5a951637e0307cdcb4c672f298b8bc660608201524660808201523060a082015260c00160405160208183030381529060405280519060200120905090565b600260055414156107865760405162461bcd60e51b815260040161077d90612a46565b60405180910390fd5b600260058190555060007f00000000000000000000000000000000000000000000000000000000000000006001600160a01b031663ae2e933b6040518163ffffffff1660e01b815260040160206040518083038186803b1580156107e957600080fd5b505afa1580156107fd573d6000803e3d6000fd5b505050506040513d601f19601f820116820180604052508101906108219190612002565b905061082c81611aee565b60007f00000000000000000000000000000000000000000000000000000000000000006001600160a01b0316632630c12f6040518163ffffffff1660e01b815260040160206040518083038186803b15801561088757600080fd5b505afa15801561089b573d6000803e3d6000fd5b505050506040513d601f19601f820116820180604052508101906108bf9190612002565b90506000826001600160a01b0316635ad88c1a306040518263ffffffff1660e01b81526004016108ef9190612300565b60206040518083038186803b15801561090757600080fd5b505afa15801561091b573d6000803e3d6000fd5b505050506040513d601f19601f8201168201806040525081019061093f91906122a1565b61ffff1690506000600019815b600754811015610f02577f00000000000000000000000000000000000000000000000000000000000000006001600160a01b03166391d148547f86d5cf0a6bdc8d859ba3bdc97043337c82a0e609035f378e419298b6a3e00ae6600784815481106109b9576109b9612b64565b6000918252602090912001546040516001600160e01b031960e085901b1681526109f092916001600160a01b0316906004016129c7565b60206040518083038186803b158015610a0857600080fd5b505afa158015610a1c573d6000803e3d6000fd5b505050506040513d601f19601f82011682018060405250810190610a4091906121a8565b610a8c5760405162461bcd60e51b815260206004820152601a60248201527f537461746963496e6465783a20494e56414c49445f4153534554000000000000604482015260640161077d565b6000856001600160a01b031663da0449be60078481548110610ab057610ab0612b64565b6000918252602090912001546040516001600160e01b031960e084901b168152610ae6916001600160a01b031690600401612300565b602060405180830381600087803b158015610b0057600080fd5b505af1158015610b14573d6000803e3d6000fd5b505050506040513d601f19601f82011682018060405250810190610b3891906122c5565b905060007f00000000000000000000000000000000000000000000000000000000000000006001600160a01b031663af86dd4660078581548110610b7e57610b7e612b64565b6000918252602090912001546040516001600160e01b031960e084901b168152610bc4916001600160a01b031690600080516020612bc983398151915290600401612314565b602060405180830381600087803b158015610bde57600080fd5b505af1158015610bf2573d6000803e3d6000fd5b505050506040513d601f19601f82011682018060405250810190610c169190612002565b90506000816001600160a01b0316638f1c56bd6040518163ffffffff1660e01b815260040160206040518083038186803b158015610c5357600080fd5b505afa158015610c67573d6000803e3d6000fd5b505050506040513d601f19601f82011682018060405250810190610c8b91906122c5565b60078581548110610c9e57610c9e612b64565b6000918252602090912001546040516370a0823160e01b81526001600160a01b03909116906370a0823190610cd7908690600401612300565b60206040518083038186803b158015610cef57600080fd5b505afa158015610d03573d6000803e3d6000fd5b505050506040513d601f19601f82011682018060405250810190610d2791906122c5565b610d319190612ad6565b9050600060088581548110610d4857610d48612b64565b600091825260209182902091810490910154610d7091601f166101000a900460ff1685612ab7565b905060008160ff610d85600160701b86612ab7565b610d8f9190612ab7565b610d999190612a95565b905086811015610da7578096505b604051622f4f0f60ea1b81526000906001600160a01b0386169063bd3c3c0090610dd5903090600401612300565b60206040518083038186803b158015610ded57600080fd5b505afa158015610e01573d6000803e3d6000fd5b505050506040513d601f19601f82011682018060405250810190610e2591906122c5565b9050846001600160a01b0316631249c58b6040518163ffffffff1660e01b8152600401602060405180830381600087803b158015610e6257600080fd5b505af1158015610e76573d6000803e3d6000fd5b505050506040513d601f19601f82011682018060405250810190610e9a91906122c5565b506000612710610eaa8c87612ab7565b610eb49190612a95565b610ebe9083612a7d565b9050600087610ed1600160701b84612ab7565b610edb9190612a95565b9050610ee7818c612a7d565b9a50505050505050505080610efb90612b1d565b905061094c565b50600019811415610f1557610f15612b38565b6000600154600014610f615760008311610f415760405162461bcd60e51b815260040161077d90612a11565b8260015483610f509190612ab7565b610f5a9190612a95565b9050610f7c565b610f6d61271083612ad6565b9050610f7c6000612710611c48565b60008111610f9c5760405162461bcd60e51b815260040161077d90612a11565b610fa68782611c48565b505060016005555050505050565b60026005541415610fd75760405162461bcd60e51b815260040161077d90612a46565b6002600581905530600090815260209190915260409020548061100c5760405162461bcd60e51b815260040161077d90612a11565b6000805b600754811015611121577f00000000000000000000000000000000000000000000000000000000000000006001600160a01b03166391d148547f86d5cf0a6bdc8d859ba3bdc97043337c82a0e609035f378e419298b6a3e00ae66007848154811061107d5761107d612b64565b6000918252602090912001546040516001600160e01b031960e085901b1681526110b492916001600160a01b0316906004016129c7565b60206040518083038186803b1580156110cc57600080fd5b505afa1580156110e0573d6000803e3d6000fd5b505050506040513d601f19601f8201168201806040525081019061110491906121a8565b6111115760019150611121565b61111a81612b1d565b9050611010565b508061128a5760007f00000000000000000000000000000000000000000000000000000000000000006001600160a01b031663ae2e933b6040518163ffffffff1660e01b815260040160206040518083038186803b15801561118257600080fd5b505afa158015611196573d6000803e3d6000fd5b505050506040513d601f19601f820116820180604052508101906111ba9190612002565b9050600061271061ffff1684836001600160a01b031663a7853436306040518263ffffffff1660e01b81526004016111f29190612300565b60206040518083038186803b15801561120a57600080fd5b505afa15801561121e573d6000803e3d6000fd5b505050506040513d601f19601f8201168201806040525081019061124291906122a1565b61ffff166112509190612ab7565b61125a9190612a95565b9050801561127e5761126d308383611a45565b6112778185612ad6565b9350611287565b61128782611aee565b50505b60005b6007548110156116215781801561138957507f00000000000000000000000000000000000000000000000000000000000000006001600160a01b03166391d148547f4963dcfd342c3f63bd1b992afc723ae72706277470d47567f30dfc6dcee9f11e6007848154811061130257611302612b64565b6000918252602090912001546040516001600160e01b031960e085901b16815261133992916001600160a01b0316906004016129c7565b60206040518083038186803b15801561135157600080fd5b505afa158015611365573d6000803e3d6000fd5b505050506040513d601f19601f8201168201806040525081019061138991906121a8565b1561139357611611565b60007f00000000000000000000000000000000000000000000000000000000000000006001600160a01b031663af86dd46600784815481106113d7576113d7612b64565b6000918252602090912001546040516001600160e01b031960e084901b16815261141d916001600160a01b031690600080516020612bc983398151915290600401612314565b602060405180830381600087803b15801561143757600080fd5b505af115801561144b573d6000803e3d6000fd5b505050506040513d601f19601f8201168201806040525081019061146f9190612002565b90506000816001600160a01b03166370a08231306040518263ffffffff1660e01b815260040161149f9190612300565b60206040518083038186803b1580156114b757600080fd5b505afa1580156114cb573d6000803e3d6000fd5b505050506040513d601f19601f820116820180604052508101906114ef91906122c5565b9050600060015482876115029190612ab7565b61150c9190612a95565b90506000811161152e5760405162461bcd60e51b815260040161077d90612a11565b60405163a9059cbb60e01b81526001600160a01b0384169063a9059cbb9061155c9086908590600401612314565b600060405180830381600087803b15801561157657600080fd5b505af115801561158a573d6000803e3d6000fd5b505060405163226bf2d160e21b81526001600160a01b03861692506389afcb4491506115ba908a90600401612300565b602060405180830381600087803b1580156115d457600080fd5b505af11580156115e8573d6000803e3d6000fd5b505050506040513d601f19601f8201168201806040525081019061160c91906122c5565b505050505b61161a81612b1d565b905061128d565b5061162c3083611cc2565b5050600160055550565b60405163554f94ab60e01b81526060906001600160a01b037f0000000000000000000000000000000000000000000000000000000000000000169063554f94ab90610427903090600401612300565b600061048d338484611a45565b428410156116da5760405162461bcd60e51b8152602060048201526015602482015274141a1d5d1d5c99515490cc8c0e8811561412549151605a1b604482015260640161077d565b60006116e46106b1565b6001600160a01b038916600090815260046020526040812080547f6e71edae12b1b97f4d1f60370fef10105fa2faae0126114a169c64845d6126c9928c928c928c9290919061173283612b1d565b909155506040805160208101969096526001600160a01b0394851690860152929091166060840152608083015260a082015260c0810187905260e001604051602081830303815290604052805190602001206040516020016117ab92919061190160f01b81526002810192909252602282015260420190565b60408051601f198184030181528282528051602091820120600080855291840180845281905260ff88169284019290925260608301869052608083018590529092509060019060a0016020604051602081039080840390855afa158015611816573d6000803e3d6000fd5b5050604051601f1901519150506001600160a01b0381161580159061184c5750886001600160a01b0316816001600160a01b0316145b6118985760405162461bcd60e51b815260206004820152601f60248201527f5068757475726545524332303a20494e56414c49445f5349474e415455524500604482015260640161077d565b6118a38989896119cb565b505050505050505050565b336001600160a01b037f0000000000000000000000000000000000000000000000000000000000000000161461191f5760405162461bcd60e51b815260206004820152601660248201527529ba30ba34b1a4b73232bc1d102327a92124a22222a760511b604482015260640161077d565b61192b60078585611e81565b5061193860088383611ee4565b507ff7a52f24d20b038b2ecfdb7a08e7d847016833c370e38b3b59677783ee4718cb6007600860405161196c9291906123b4565b60405180910390a150505050565b60006001600160e01b031982166301ffc9a760e01b14806119ab57506001600160e01b031982166336372b0760e01b145b806103d257506001600160e01b0319821663390c84e760e01b1492915050565b6001600160a01b0383811660008181526003602090815260408083209487168084529482529182902085905590518481527f8c5be1e5ebec7d5bd14f71427d1e84f3dd0314c0f7b2291e5b200ac8c7c3b92591015b60405180910390a3505050565b6000818310611a3c5781611a3e565b825b9392505050565b611ade7f00000000000000000000000000000000000000000000000000000000000000006001600160a01b031663ae2e933b6040518163ffffffff1660e01b815260040160206040518083038186803b158015611aa157600080fd5b505afa158015611ab5573d6000803e3d6000fd5b505050506040513d601f19601f82011682018060405250810190611ad99190612002565b611aee565b611ae9838383611d34565b505050565b600060065442611afe9190612ad6565b90508015611c445760006b033b2e3c9fd0803ce800000080611ba8856001600160a01b0316635612e00b306040518263ffffffff1660e01b8152600401611b459190612300565b60206040518083038186803b158015611b5d57600080fd5b505afa158015611b71573d6000803e3d6000fd5b505050506040513d601f19601f82011682018060405250810190611b9591906122c5565b856b033b2e3c9fd0803ce8000000611dc3565b611bb29190612ad6565b6001600160a01b037f000000000000000000000000000000000000000000000000000000000000000016600090815260026020526040902054600154611bf89190612ad6565b611c029190612ab7565b611c0c9190612a95565b90508015611ae957611c3e7f000000000000000000000000000000000000000000000000000000000000000082611c48565b42600655505b5050565b6001600160a01b03821660009081526002602052604081208054839290611c70908490612a7d565b925050819055508060016000828254611c899190612a7d565b90915550506040518181526001600160a01b03831690600090600080516020612ba9833981519152906020015b60405180910390a35050565b6001600160a01b03821660009081526002602052604081208054839290611cea908490612ad6565b925050819055508060016000828254611d039190612ad6565b90915550506040518181526000906001600160a01b03841690600080516020612ba983398151915290602001611cb6565b6001600160a01b03831660009081526002602052604081208054839290611d5c908490612ad6565b90915550506001600160a01b03821660009081526002602052604081208054839290611d89908490612a7d565b92505081905550816001600160a01b0316836001600160a01b0316600080516020612ba983398151915283604051611a2091815260200190565b6000838015611e6357600184168015611dde57859250611de2565b8392505b50600283046002850494505b8415611e5d578586028687820414611e0557600080fd5b81810181811015611e1557600080fd5b8590049650506001851615611e52578583028387820414158715151615611e3b57600080fd5b81810181811015611e4b57600080fd5b8590049350505b600285049450611dee565b50611e79565b838015611e735760009250611e77565b8392505b505b509392505050565b828054828255906000526020600020908101928215611ed4579160200282015b82811115611ed45781546001600160a01b0319166001600160a01b03843516178255602090920191600190910190611ea1565b50611ee0929150611f84565b5090565b82805482825590600052602060002090601f01602090048101928215611ed45791602002820160005b83821115611f4e57833560ff1683826101000a81548160ff021916908360ff1602179055509260200192600101602081600001049283019260010302611f0d565b8015611f7b5782816101000a81549060ff0219169055600101602081600001049283019260010302611f4e565b5050611ee09291505b5b80821115611ee05760008155600101611f85565b60008083601f840112611fab57600080fd5b50813567ffffffffffffffff811115611fc357600080fd5b6020830191508360208260051b8501011115611fde57600080fd5b9250929050565b600060208284031215611ff757600080fd5b8135611a3e81612b90565b60006020828403121561201457600080fd5b8151611a3e81612b90565b6000806040838503121561203257600080fd5b823561203d81612b90565b9150602083013561204d81612b90565b809150509250929050565b60008060006060848603121561206d57600080fd5b833561207881612b90565b9250602084013561208881612b90565b929592945050506040919091013590565b600080600080600080600060e0888a0312156120b457600080fd5b87356120bf81612b90565b965060208801356120cf81612b90565b95506040880135945060608801359350608088013560ff811681146120f357600080fd5b9699959850939692959460a0840135945060c09093013592915050565b6000806040838503121561212357600080fd5b823561212e81612b90565b946020939093013593505050565b6000806000806040858703121561215257600080fd5b843567ffffffffffffffff8082111561216a57600080fd5b61217688838901611f99565b9096509450602087013591508082111561218f57600080fd5b5061219c87828801611f99565b95989497509550505050565b6000602082840312156121ba57600080fd5b81518015158114611a3e57600080fd5b6000602082840312156121dc57600080fd5b81356001600160e01b031981168114611a3e57600080fd5b60006020828403121561220657600080fd5b815167ffffffffffffffff8082111561221e57600080fd5b818401915084601f83011261223257600080fd5b81518181111561224457612244612b7a565b604051601f8201601f19908116603f0116810190838211818310171561226c5761226c612b7a565b8160405282815287602084870101111561228557600080fd5b612296836020830160208801612aed565b979650505050505050565b6000602082840312156122b357600080fd5b815161ffff81168114611a3e57600080fd5b6000602082840312156122d757600080fd5b5051919050565b600080604083850312156122f157600080fd5b50508035926020909101359150565b6001600160a01b0391909116815260200190565b6001600160a01b03929092168252602082015260400190565b604080825283519082018190526000906020906060840190828701845b8281101561236f5781516001600160a01b03168452928401929084019060010161234a565b5050508381038285015284518082528583019183019060005b818110156123a757835160ff1683529284019291840191600101612388565b5090979650505050505050565b600060408083018184528086548083526060925082860191508760005260208060002060005b838110156123ff5781546001600160a01b0316855293820193600191820191016123da565b505086830381880152875480845260008981526020808220950193505b81601f8201101561268557845460ff8082168652600882901c811685870152601082901c811689870152601882901c81168887015260806124658188018385891c1660ff169052565b61247960a08801838560281c1660ff169052565b60c061248e818901848660301c1660ff169052565b60e06124a3818a01858760381c1660ff169052565b60ff858d1c8516166101008a01526124c66101208a01858760481c1660ff169052565b6124db6101408a01858760501c1660ff169052565b6124f06101608a01858760581c1660ff169052565b60ff858c1c8516166101808a01526125136101a08a01858760681c1660ff169052565b6125286101c08a01858760701c1660ff169052565b61253d6101e08a01858760781c1660ff169052565b60ff85841c8516166102008a01526125606102208a01858760881c1660ff169052565b6125756102408a01858760901c1660ff169052565b61258a6102608a01858760981c1660ff169052565b61259f6102808a01858760a01c1660ff169052565b6125b46102a08a01858760a81c1660ff169052565b6125c96102c08a01858760b01c1660ff169052565b6125de6102e08a01858760b81c1660ff169052565b60ff85831c8516166103008a01526126016103208a01858760c81c1660ff169052565b6126166103408a01858760d01c1660ff169052565b61262b6103608a01858760d81c1660ff169052565b60ff85821c8516166103808a01525050506126516103a08701828460e81c1660ff169052565b6126666103c08701828460f01c1660ff169052565b5060f81c6103e08501526001949094019361040090930192820161241c565b9354938181101561269e5760ff85168452928201926001015b818110156126b857600885901c60ff168452928201926001015b818110156126d257601085901c60ff168452928201926001015b818110156126ec57601885901c60ff168452928201926001015b818110156127045784831c60ff168452928201926001015b8181101561271e57602885901c60ff168452928201926001015b8181101561273857603085901c60ff168452928201926001015b8181101561275257603885901c60ff168452928201926001015b8181101561276a5784871c60ff168452928201926001015b8181101561278457604885901c60ff168452928201926001015b8181101561279e57605085901c60ff168452928201926001015b818110156127b857605885901c60ff168452928201926001015b818110156127d05784861c60ff168452928201926001015b818110156127ea57606885901c60ff168452928201926001015b8181101561280457607085901c60ff168452928201926001015b8181101561281e57607885901c60ff168452928201926001015b8181101561283857608085901c60ff168452928201926001015b8181101561285257608885901c60ff168452928201926001015b8181101561286c57609085901c60ff168452928201926001015b8181101561288657609885901c60ff168452928201926001015b818110156128a05760a085901c60ff168452928201926001015b818110156128ba5760a885901c60ff168452928201926001015b818110156128d45760b085901c60ff168452928201926001015b818110156128ee5760b885901c60ff168452928201926001015b818110156129085760c085901c60ff168452928201926001015b818110156129225760c885901c60ff168452928201926001015b8181101561293c5760d085901c60ff168452928201926001015b818110156129565760d885901c60ff168452928201926001015b818110156129705760e085901c60ff168452928201926001015b8181101561298a5760e885901c60ff168452928201926001015b818110156129a45760f085901c60ff168452928201926001015b818110156129b85760f885901c8452928201925b50919998505050505050505050565b9182526001600160a01b0316602082015260400190565b60208152600082518060208401526129fd816040850160208701612aed565b601f01601f19169190910160400192915050565b6020808252818101527f537461746963496e6465783a20494e53554646494349454e545f414d4f554e54604082015260600190565b6020808252601f908201527f5265656e7472616e637947756172643a207265656e7472616e742063616c6c00604082015260600190565b60008219821115612a9057612a90612b4e565b500190565b600082612ab257634e487b7160e01b600052601260045260246000fd5b500490565b6000816000190483118215151615612ad157612ad1612b4e565b500290565b600082821015612ae857612ae8612b4e565b500390565b60005b83811015612b08578181015183820152602001612af0565b83811115612b17576000848401525b50505050565b6000600019821415612b3157612b31612b4e565b5060010190565b634e487b7160e01b600052600160045260246000fd5b634e487b7160e01b600052601160045260246000fd5b634e487b7160e01b600052603260045260246000fd5b634e487b7160e01b600052604160045260246000fd5b6001600160a01b0381168114612ba557600080fd5b5056feddf252ad1be2c89b69c2b068fc378daa952ba7f163c4a11628f55a4df523b3ef6e4abc02c6bd089c9bfc9d8a556bc8c00f2f250d7ff4335f79d29ac94792b8aba2646970667358221220767370bb6b51d1fb62a5464481858ba6017ffb03881693a17d3c36adca1d119264736f6c63430008070033",
  "linkReferences": {},
  "deployedLinkReferences": {}
}