{
  "_format": "hh-sol-artifact-1",
  "contractName": "TopNMarketCapIndex",
  "sourceName": "contracts/TopNMarketCapIndex.sol",
  "abi": [
    {
      "inputs": [],
      "stateMutability": "nonpayable",
      "type": "constructor"
    },
    {
      "anonymous": false,
      "inputs": [
        {
          "indexed": true,
          "internalType": "address",
          "name": "owner",
          "type": "address"
        },
        {
          "indexed": true,
          "internalType": "address",
          "name": "spender",
          "type": "address"
        },
        {
          "indexed": false,
          "internalType": "uint256",
          "name": "value",
          "type": "uint256"
        }
      ],
      "name": "Approval",
      "type": "event"
    },
    {
      "anonymous": false,
      "inputs": [
        {
          "indexed": false,
          "internalType": "address",
          "name": "governor",
          "type": "address"
        }
      ],
      "name": "SetGovernor",
      "type": "event"
    },
    {
      "anonymous": false,
      "inputs": [
        {
          "indexed": true,
          "internalType": "address",
          "name": "from",
          "type": "address"
        },
        {
          "indexed": true,
          "internalType": "address",
          "name": "to",
          "type": "address"
        },
        {
          "indexed": false,
          "internalType": "uint256",
          "name": "value",
          "type": "uint256"
        }
      ],
      "name": "Transfer",
      "type": "event"
    },
    {
      "anonymous": false,
      "inputs": [
        {
          "indexed": false,
          "internalType": "address[]",
          "name": "assets",
          "type": "address[]"
        },
        {
          "indexed": false,
          "internalType": "uint8[]",
          "name": "weights",
          "type": "uint8[]"
        }
      ],
      "name": "UpdateAnatomy",
      "type": "event"
    },
    {
      "inputs": [],
      "name": "DOMAIN_SEPARATOR",
      "outputs": [
        {
          "internalType": "bytes32",
          "name": "",
          "type": "bytes32"
        }
      ],
      "stateMutability": "view",
      "type": "function"
    },
    {
      "inputs": [],
      "name": "PERMIT_TYPEHASH",
      "outputs": [
        {
          "internalType": "bytes32",
          "name": "",
          "type": "bytes32"
        }
      ],
      "stateMutability": "view",
      "type": "function"
    },
    {
      "inputs": [
        {
          "internalType": "address",
          "name": "",
          "type": "address"
        },
        {
          "internalType": "address",
          "name": "",
          "type": "address"
        }
      ],
      "name": "allowance",
      "outputs": [
        {
          "internalType": "uint256",
          "name": "",
          "type": "uint256"
        }
      ],
      "stateMutability": "view",
      "type": "function"
    },
    {
      "inputs": [
        {
          "internalType": "uint256",
          "name": "_offset",
          "type": "uint256"
        },
        {
          "internalType": "uint256",
          "name": "_count",
          "type": "uint256"
        }
      ],
      "name": "anatomyForRange",
      "outputs": [
        {
          "internalType": "address[]",
          "name": "_assets",
          "type": "address[]"
        },
        {
          "internalType": "uint8[]",
          "name": "_weights",
          "type": "uint8[]"
        }
      ],
      "stateMutability": "view",
      "type": "function"
    },
    {
      "inputs": [
        {
          "internalType": "address",
          "name": "spender",
          "type": "address"
        },
        {
          "internalType": "uint256",
          "name": "value",
          "type": "uint256"
        }
      ],
      "name": "approve",
      "outputs": [
        {
          "internalType": "bool",
          "name": "",
          "type": "bool"
        }
      ],
      "stateMutability": "nonpayable",
      "type": "function"
    },
    {
      "inputs": [
        {
          "internalType": "address",
          "name": "",
          "type": "address"
        }
      ],
      "name": "balanceOf",
      "outputs": [
        {
          "internalType": "uint256",
          "name": "",
          "type": "uint256"
        }
      ],
      "stateMutability": "view",
      "type": "function"
    },
    {
      "inputs": [
        {
          "internalType": "address",
          "name": "_recipient",
          "type": "address"
        }
      ],
      "name": "burn",
      "outputs": [],
      "stateMutability": "nonpayable",
      "type": "function"
    },
    {
      "inputs": [
        {
          "internalType": "address",
          "name": "_feeRecipient",
          "type": "address"
        },
        {
          "internalType": "uint256",
          "name": "_amount",
          "type": "uint256"
        }
      ],
      "name": "burnFee",
      "outputs": [],
      "stateMutability": "nonpayable",
      "type": "function"
    },
    {
      "inputs": [],
      "name": "decimals",
      "outputs": [
        {
          "internalType": "uint8",
          "name": "",
          "type": "uint8"
        }
      ],
      "stateMutability": "view",
      "type": "function"
    },
    {
      "inputs": [],
      "name": "factory",
      "outputs": [
        {
          "internalType": "address",
          "name": "",
          "type": "address"
        }
      ],
      "stateMutability": "view",
      "type": "function"
    },
    {
      "inputs": [
        {
          "internalType": "address",
          "name": "",
          "type": "address"
        }
      ],
      "name": "feeOf",
      "outputs": [
        {
          "internalType": "uint256",
          "name": "",
          "type": "uint256"
        }
      ],
      "stateMutability": "view",
      "type": "function"
    },
    {
      "inputs": [],
      "name": "getAssetCount",
      "outputs": [
        {
          "internalType": "uint256",
          "name": "",
          "type": "uint256"
        }
      ],
      "stateMutability": "view",
      "type": "function"
    },
    {
      "inputs": [],
      "name": "governor",
      "outputs": [
        {
          "internalType": "address",
          "name": "",
          "type": "address"
        }
      ],
      "stateMutability": "view",
      "type": "function"
    },
    {
      "inputs": [
        {
          "internalType": "uint8",
          "name": "_topN",
          "type": "uint8"
        },
        {
          "internalType": "uint256",
          "name": "_category",
          "type": "uint256"
        },
        {
          "internalType": "uint256",
          "name": "_snapshot",
          "type": "uint256"
        },
        {
          "internalType": "address[]",
          "name": "_assets",
          "type": "address[]"
        },
        {
          "internalType": "uint256[]",
          "name": "_capitalizations",
          "type": "uint256[]"
        },
        {
          "internalType": "uint256",
          "name": "_totalCapitalization",
          "type": "uint256"
        },
        {
          "internalType": "address",
          "name": "_governor",
          "type": "address"
        }
      ],
      "name": "initialize",
      "outputs": [],
      "stateMutability": "nonpayable",
      "type": "function"
    },
    {
      "inputs": [
        {
          "internalType": "address",
          "name": "_recipient",
          "type": "address"
        }
      ],
      "name": "mint",
      "outputs": [],
      "stateMutability": "nonpayable",
      "type": "function"
    },
    {
      "inputs": [],
      "name": "name",
      "outputs": [
        {
          "internalType": "string",
          "name": "",
          "type": "string"
        }
      ],
      "stateMutability": "view",
      "type": "function"
    },
    {
      "inputs": [
        {
          "internalType": "address",
          "name": "",
          "type": "address"
        }
      ],
      "name": "nonces",
      "outputs": [
        {
          "internalType": "uint256",
          "name": "",
          "type": "uint256"
        }
      ],
      "stateMutability": "view",
      "type": "function"
    },
    {
      "inputs": [
        {
          "internalType": "address",
          "name": "owner",
          "type": "address"
        },
        {
          "internalType": "address",
          "name": "spender",
          "type": "address"
        },
        {
          "internalType": "uint256",
          "name": "value",
          "type": "uint256"
        },
        {
          "internalType": "uint256",
          "name": "deadline",
          "type": "uint256"
        },
        {
          "internalType": "uint8",
          "name": "v",
          "type": "uint8"
        },
        {
          "internalType": "bytes32",
          "name": "r",
          "type": "bytes32"
        },
        {
          "internalType": "bytes32",
          "name": "s",
          "type": "bytes32"
        }
      ],
      "name": "permit",
      "outputs": [],
      "stateMutability": "nonpayable",
      "type": "function"
    },
    {
      "inputs": [],
      "name": "reweight",
      "outputs": [],
      "stateMutability": "nonpayable",
      "type": "function"
    },
    {
      "inputs": [
        {
          "internalType": "address",
          "name": "_governor",
          "type": "address"
        }
      ],
      "name": "setGovernor",
      "outputs": [],
      "stateMutability": "nonpayable",
      "type": "function"
    },
    {
      "inputs": [],
      "name": "symbol",
      "outputs": [
        {
          "internalType": "string",
          "name": "",
          "type": "string"
        }
      ],
      "stateMutability": "view",
      "type": "function"
    },
    {
      "inputs": [],
      "name": "totalSupply",
      "outputs": [
        {
          "internalType": "uint256",
          "name": "",
          "type": "uint256"
        }
      ],
      "stateMutability": "view",
      "type": "function"
    },
    {
      "inputs": [
        {
          "internalType": "address",
          "name": "to",
          "type": "address"
        },
        {
          "internalType": "uint256",
          "name": "value",
          "type": "uint256"
        }
      ],
      "name": "transfer",
      "outputs": [
        {
          "internalType": "bool",
          "name": "",
          "type": "bool"
        }
      ],
      "stateMutability": "nonpayable",
      "type": "function"
    },
    {
      "inputs": [
        {
          "internalType": "address",
          "name": "from",
          "type": "address"
        },
        {
          "internalType": "address",
          "name": "to",
          "type": "address"
        },
        {
          "internalType": "uint256",
          "name": "value",
          "type": "uint256"
        }
      ],
      "name": "transferFrom",
      "outputs": [
        {
          "internalType": "bool",
          "name": "",
          "type": "bool"
        }
      ],
      "stateMutability": "nonpayable",
      "type": "function"
    },
    {
      "inputs": [],
      "name": "vault",
      "outputs": [
        {
          "internalType": "address",
          "name": "",
          "type": "address"
        }
      ],
      "stateMutability": "view",
      "type": "function"
    }
  ],
  "bytecode": "0x60c06040526000805460ff191660121790553480156200001e57600080fd5b5033336001600160a01b031663fbfa77cf6040518163ffffffff1660e01b815260040160206040518083038186803b1580156200005a57600080fd5b505afa1580156200006f573d6000803e3d6000fd5b505050506040513d601f19601f82011682018060405250810190620000959190620001f8565b60016005556001600160601b0319606083811b821660805282901b1660a05242600755604080516336f7100960e11b815290516001600160a01b03831691636dee2012916004808301926020929190829003018186803b158015620000f957600080fd5b505afa1580156200010e573d6000803e3d6000fd5b505050506040513d601f19601f82011682018060405250810190620001349190620001f8565b600a60006101000a8154816001600160a01b0302191690836001600160a01b03160217905550816001600160a01b0316637b1039996040518163ffffffff1660e01b815260040160206040518083038186803b1580156200019457600080fd5b505afa158015620001a9573d6000803e3d6000fd5b505050506040513d601f19601f82011682018060405250810190620001cf9190620001f8565b600980546001600160a01b0319166001600160a01b0392909216919091179055506200022a9050565b6000602082840312156200020b57600080fd5b81516001600160a01b03811681146200022357600080fd5b9392505050565b60805160601c60a05160601c61447162000305600039600081816103b801528181610a0601528181610c6401528181610d1b01528181610f2001528181610fca015281816110b10152818161130b0152818161178701528181611b3501528181611f530152818161236b01528181612723015281816127f60152818161282801526128a0015260008181610353015281816103de0152818161060b0152818161148801528181611886015281816124ea01528181612a0301528181612ae1015281816131e1015281816133db015261357301526144716000f3fe608060405234801561001057600080fd5b50600436106101635760003560e01c806370a08231116100ce578063a9059cbb11610087578063a9059cbb14610315578063c044d70414610328578063c42cf5351461033b578063c45a01551461034e578063d505accf14610375578063dd62ed3e14610388578063fbfa77cf146103b357600080fd5b806370a08231146102aa5780637ecebe00146102ca578063849feb6b146102ea57806389afcb44146102f257806395d89b4114610305578063a0aead4d1461030d57600080fd5b806323b872dd1161012057806323b872dd1461021657806325dddba41461022957806330adf81f14610249578063313ce567146102705780633644e5151461028f5780636a6278421461029757600080fd5b806306fdde0314610168578063095ea7b3146101865780630c340a24146101a95780630c86269f146101c957806318160ddd146101de5780631a7bc013146101f5575b600080fd5b6101706103da565b60405161017d9190613df2565b60405180910390f35b6101996101943660046138ea565b6104f1565b604051901515815260200161017d565b6008546101bc906001600160a01b031681565b60405161017d9190613c82565b6101dc6101d73660046138ea565b610508565b005b6101e760015481565b60405190815260200161017d565b610208610203366004613b61565b61068a565b60405161017d929190613cd4565b61019961022436600461383b565b610827565b6101e76102373660046137c8565b60066020526000908152604090205481565b6101e77f6e71edae12b1b97f4d1f60370fef10105fa2faae0126114a169c64845d6126c981565b60005461027d9060ff1681565b60405160ff909116815260200161017d565b6101e76108a1565b6101dc6102a53660046137c8565b61094a565b6101e76102b83660046137c8565b60026020526000908152604090205481565b6101e76102d83660046137c8565b60046020526000908152604090205481565b6101dc61159d565b6101dc6103003660046137c8565b61222f565b6101706129ff565b6101e7612abd565b6101996103233660046138ea565b612ac9565b6101dc610336366004613ba7565b612ad6565b6101dc6103493660046137c8565b612cd6565b6101bc7f000000000000000000000000000000000000000000000000000000000000000081565b6101dc61038336600461387c565b612deb565b6101e7610396366004613802565b600360209081526000928352604080842090915290825290205481565b6101bc7f000000000000000000000000000000000000000000000000000000000000000081565b60607f00000000000000000000000000000000000000000000000000000000000000006001600160a01b0316637b1039996040518163ffffffff1660e01b815260040160206040518083038186803b15801561043557600080fd5b505afa158015610449573d6000803e3d6000fd5b505050506040513d601f19601f8201168201806040525081019061046d91906137e5565b6001600160a01b031663ed3b559f306040518263ffffffff1660e01b81526004016104989190613c82565b60006040518083038186803b1580156104b057600080fd5b505afa1580156104c4573d6000803e3d6000fd5b505050506040513d6000823e601f3d908101601f191682016040526104ec919081019061395f565b905090565b60006104fe338484613007565b5060015b92915050565b61054160405180604001604052806017815260200176189d5c9b919959480b4817d99959549958da5c1a595b9d604a1b81525083613069565b61057460405180604001604052806011815260200170189d5c9b919959480b4817d85b5bdd5b9d607a1b815250826130b2565b6105d86040518060400160405280601e81526020017f6275726e466565202d206665654f665b5f666565526563697069656e745d000081525060066000856001600160a01b03166001600160a01b03168152602001908152602001600020546130b2565b6001600160a01b03821660009081526006602052604081208054839290610600908490613ffc565b9091555061063190507f000000000000000000000000000000000000000000000000000000000000000030836130f7565b60405163226bf2d160e21b815230906389afcb4490610654908590600401613c82565b600060405180830381600087803b15801561066e57600080fd5b505af1158015610682573d6000803e3d6000fd5b505050505050565b606080610697600b613186565b8410156106c1576106bc846106ac600b613186565b6106b69190613ffc565b84613190565b6106c4565b60005b6001600160401b038111156106db576106db6140d9565b604051908082528060200260200182016040528015610704578160200160208202803683370190505b50915081516001600160401b03811115610720576107206140d9565b604051908082528060200260200182016040528015610749578160200160208202803683370190505b50905060005b825181101561081f5761076d6107658287613f7e565b600b906131a8565b83828151811061077f5761077f6140c3565b60200260200101906001600160a01b031690816001600160a01b031681525050600d60008483815181106107b5576107b56140c3565b60200260200101516001600160a01b03166001600160a01b0316815260200190815260200160002060009054906101000a900460ff168282815181106107fd576107fd6140c3565b60ff9092166020928302919091019091015261081881614066565b905061074f565b509250929050565b6001600160a01b03831660009081526003602090815260408083203384529091528120546000191461088c576001600160a01b038416600090815260036020908152604080832033845290915281208054849290610886908490613ffc565b90915550505b6108978484846130f7565b5060019392505050565b60007f8b73c3c69bb8fe3d512ecc4cf759cc79239f7b179b0ffacaa9a75d522b39400f6108cc6103da565b805160209182012060408051808201825260018152603160f81b90840152805192830193909352918101919091527fc89efdaa54c0f20c7adf612882df0950f5a951637e0307cdcb4c672f298b8bc660608201524660808201523060a082015260c00160405160208183030381529060405280519060200120905090565b600260055414156109765760405162461bcd60e51b815260040161096d90613ecd565b60405180910390fd5b60026005556109836131b4565b60095460408051632630c12f60e01b815290516000926001600160a01b031691632630c12f916004808301926020929190829003018186803b1580156109c857600080fd5b505afa1580156109dc573d6000803e3d6000fd5b505050506040513d601f19601f82011682018060405250810190610a0091906137e5565b905060007f00000000000000000000000000000000000000000000000000000000000000006001600160a01b031663648e38d36040518163ffffffff1660e01b815260040160206040518083038186803b158015610a5d57600080fd5b505afa158015610a71573d6000803e3d6000fd5b505050506040513d601f19601f82011682018060405250810190610a959190613b24565b61ffff1690506000600019815b610aac600b613186565b8110156111e0576009546001600160a01b03166391d148546000805160206141fe833981519152610ade600b856131a8565b6040518363ffffffff1660e01b8152600401610afb929190613ddb565b60206040518083038186803b158015610b1357600080fd5b505afa158015610b27573d6000803e3d6000fd5b505050506040513d601f19601f82011682018060405250810190610b4b9190613944565b610b975760405162461bcd60e51b815260206004820152601f60248201527f4261736544796e616d6963496e6465783a20494e56414c49445f415353455400604482015260640161096d565b600d6000610ba6600b846131a8565b6001600160a01b0316815260208101919091526040016000205460ff16610bcc576111d0565b60006001600160a01b03861663da0449be610be8600b856131a8565b6040518263ffffffff1660e01b8152600401610c049190613c82565b602060405180830381600087803b158015610c1e57600080fd5b505af1158015610c32573d6000803e3d6000fd5b505050506040513d601f19601f82011682018060405250810190610c569190613b48565b905060006001600160a01b037f00000000000000000000000000000000000000000000000000000000000000001663ee42d3a3610c94600b866131a8565b6040518263ffffffff1660e01b8152600401610cb09190613c82565b60206040518083038186803b158015610cc857600080fd5b505afa158015610cdc573d6000803e3d6000fd5b505050506040513d601f19601f82011682018060405250810190610d009190613b48565b610d0b600b856131a8565b6001600160a01b03166370a082317f00000000000000000000000000000000000000000000000000000000000000006001600160a01b0316638d5aa174610d5c88600b6131a890919063ffffffff16565b6040518263ffffffff1660e01b8152600401610d789190613c82565b60206040518083038186803b158015610d9057600080fd5b505afa158015610da4573d6000803e3d6000fd5b505050506040513d601f19601f82011682018060405250810190610dc891906137e5565b6040518263ffffffff1660e01b8152600401610de49190613c82565b60206040518083038186803b158015610dfc57600080fd5b505afa158015610e10573d6000803e3d6000fd5b505050506040513d601f19601f82011682018060405250810190610e349190613b48565b610e3e9190613ffc565b9050610e6260405180606001604052806023815260200161424060239139826130b2565b6000600d81610e72600b876131a8565b6001600160a01b03168152602081019190915260400160002054610e999060ff1684613fdd565b9050610ebd6040518060600160405280602381526020016142d160239139826130b2565b60008160ff610ed0600160701b86613fdd565b610eda9190613fdd565b610ee49190613fbb565b9050610f0860405180606001604052806026815260200161435b60269139826130b2565b85811015610f14578095505b60006001600160a01b037f00000000000000000000000000000000000000000000000000000000000000001663d81e81ca610f50600b896131a8565b306040518363ffffffff1660e01b8152600401610f6e929190613c96565b60206040518083038186803b158015610f8657600080fd5b505afa158015610f9a573d6000803e3d6000fd5b505050506040513d601f19601f82011682018060405250810190610fbe9190613b48565b90506001600160a01b037f000000000000000000000000000000000000000000000000000000000000000016636a627842610ffa600b896131a8565b6040518263ffffffff1660e01b81526004016110169190613c82565b602060405180830381600087803b15801561103057600080fd5b505af1158015611044573d6000803e3d6000fd5b505050506040513d601f19601f820116820180604052508101906110689190613b48565b5061108b60405180606001604052806028815260200161428460289139826130b2565b6111546040518060600160405280602481526020016141b5602491396001600160a01b037f000000000000000000000000000000000000000000000000000000000000000016630287cd3e6110e1600b8b6131a8565b306040518363ffffffff1660e01b81526004016110ff929190613c96565b60206040518083038186803b15801561111757600080fd5b505afa15801561112b573d6000803e3d6000fd5b505050506040513d601f19601f8201168201806040525081019061114f9190613b48565b6130b2565b61117a6040518060600160405280602981526020016143816029913961114f8684613f7e565b60006127106111898b87613fdd565b6111939190613fbb565b61119d9083613f7e565b90506000866111b0600160701b84613fdd565b6111ba9190613fbb565b90506111c6818b613f7e565b9950505050505050505b6111d981614066565b9050610aa2565b506000198114156111f3576111f3614081565b60006001546000146112c4576000831161121f5760405162461bcd60e51b815260040161096d90613e51565b826001548361122e9190613fdd565b6112389190613fbb565b905061125e604051806060016040528060218152602001614263602191396001546130b2565b6112806040518060600160405280602c8152602001614161602c9139846130b2565b6112bf6040518060400160405280601b81526020017f4261736544796e616d6963496e6465782e6d696e742076616c75650000000000815250826130b2565b6112df565b6112d061271083613ffc565b90506112df600061271061340d565b600081116112ff5760405162461bcd60e51b815260040161096d90613e51565b600061271061ffff16827f00000000000000000000000000000000000000000000000000000000000000006001600160a01b031663d640108d6040518163ffffffff1660e01b815260040160206040518083038186803b15801561136257600080fd5b505afa158015611376573d6000803e3d6000fd5b505050506040513d601f19601f8201168201806040525081019061139a9190613b24565b61ffff166113a89190613fdd565b6113b29190613fbb565b905080156113d057600a546113d0906001600160a01b03168261340d565b600860009054906101000a90046001600160a01b03166001600160a01b0316638da5cb5b6040518163ffffffff1660e01b815260040160206040518083038186803b15801561141e57600080fd5b505afa158015611432573d6000803e3d6000fd5b505050506040513d601f19601f8201168201806040525081019061145691906137e5565b6001600160a01b0316876001600160a01b03161461155657604051634216e13560e01b81526000906001600160a01b037f00000000000000000000000000000000000000000000000000000000000000001690634216e135906114bd903090600401613c82565b60206040518083038186803b1580156114d557600080fd5b505afa1580156114e9573d6000803e3d6000fd5b505050506040513d601f19601f8201168201806040525081019061150d9190613b48565b9050600061271061151e8584613fdd565b6115289190613fbb565b9050801561155357600854611546906001600160a01b03168261340d565b6115508184613f7e565b92505b50505b61157c6040518060600160405280602181526020016143d16021913961114f8385613ffc565b61158f8761158a8385613ffc565b61340d565b505060016005555050505050565b600954604051632474521560e21b81527f21702c8af46127c7fa207f89d0b0a8441bb32959a0ac7df790e9ab1a25c98926916001600160a01b0316906391d14854906115ef9084903390600401613ddb565b60206040518083038186803b15801561160757600080fd5b505afa15801561161b573d6000803e3d6000fd5b505050506040513d601f19601f8201168201806040525081019061163f9190613944565b61165b5760405162461bcd60e51b815260040161096d90613e96565b60095460408051632630c12f60e01b815290516000926001600160a01b031691632630c12f916004808301926020929190829003018186803b1580156116a057600080fd5b505afa1580156116b4573d6000803e3d6000fd5b505050506040513d601f19601f820116820180604052508101906116d891906137e5565b90506000805b6116e8600b613186565b81101561185f5760006001600160a01b03841663da0449be61170b600b856131a8565b6040518263ffffffff1660e01b81526004016117279190613c82565b602060405180830381600087803b15801561174157600080fd5b505af1158015611755573d6000803e3d6000fd5b505050506040513d601f19601f820116820180604052508101906117799190613b48565b905060006001600160a01b037f000000000000000000000000000000000000000000000000000000000000000016630287cd3e6117b7600b866131a8565b306040518363ffffffff1660e01b81526004016117d5929190613c96565b60206040518083038186803b1580156117ed57600080fd5b505afa158015611801573d6000803e3d6000fd5b505050506040513d601f19601f820116820180604052508101906118259190613b48565b905081611836600160701b83613fdd565b6118409190613fbb565b61184a9085613f7e565b935050508061185890614066565b90506116de565b5061188260405180606001604052806033815260200161410560339139826130b2565b60007f00000000000000000000000000000000000000000000000000000000000000006001600160a01b031663673864f96040518163ffffffff1660e01b815260040160206040518083038186803b1580156118dd57600080fd5b505afa1580156118f1573d6000803e3d6000fd5b505050506040513d601f19601f8201168201806040525081019061191591906137e5565b600f54601054600e5460405163225193ad60e01b81526004810193909352602483019190915260ff1660448201526001600160a01b03919091169063225193ad9060640160006040518083038186803b15801561197157600080fd5b505afa158015611985573d6000803e3d6000fd5b505050506040513d6000823e601f3d908101601f191682016040526119ad91908101906139f2565b9050600081604001516001600160401b038111156119cd576119cd6140d9565b604051908082528060200260200182016040528015611a1857816020015b60408051606081018252600080825260208083018290529282015282526000199092019101816119eb5790505b5090506000805b836040015181101561214757611a6a6040518060400160405280601e81526020017f546f704e4d61726b6574436170496e6465782e7265776569676874205f690000815250826130b2565b60008160018660400151611a7e9190613ffc565b611a889190613ffc565b9050600085606001518281518110611aa257611aa26140c3565b6020026020010151600001519050611ad26040518060600160405280602181526020016142f46021913982613069565b85606001518281518110611ae857611ae86140c3565b60200260200101516020015115611c5c57611b1b6040518060600160405280602581526020016142ac60259139836130b2565b604051633de222bb60e21b81526000906001600160a01b037f0000000000000000000000000000000000000000000000000000000000000000169063f7888aec90611b6c9085903090600401613c96565b60206040518083038186803b158015611b8457600080fd5b505afa158015611b98573d6000803e3d6000fd5b505050506040513d601f19601f82011682018060405250810190611bbc9190613b48565b9050611be060405180606001604052806029815260200161413860299139826130b2565b8015611c2a5760408051606081019091526001600160a01b0383168152602081016000815260200182815250868481518110611c1e57611c1e6140c3565b60200260200101819052505b6001600160a01b0382166000908152600d60205260409020805460ff19169055611c55600b83613487565b5050612134565b600954604051632474521560e21b81526001600160a01b03909116906391d1485490611c9c906000805160206141fe833981519152908590600401613ddb565b60206040518083038186803b158015611cb457600080fd5b505afa158015611cc8573d6000803e3d6000fd5b505050506040513d601f19601f82011682018060405250810190611cec9190613944565b611d425760405162461bcd60e51b815260206004820152602160248201527f546f704e4d61726b6574436170496e6465783a20494e56414c49445f415353456044820152601560fa1b606482015260840161096d565b611d6460405180606001604052806025815260200161441760259139836130b2565b611da160405180606001604052806028815260200161418d602891396001600160a01b0383166000908152600d602052604090205460ff166130b2565b600082611dba57611db38560ff614013565b9050611dfc565b866020015160ff801688606001518581518110611dd957611dd96140c3565b602002602001015160400151611def9190613fdd565b611df99190613fbb565b90505b611e2160405180606001604052806022815260200161421e602291398260ff166130b2565b6001600160a01b0382166000908152600d60205260409020805460ff191660ff8316179055611e508186613f96565b945060ff811615611e6c57611e66600b8361349c565b50611e79565b611e77600b83613487565b505b604051636d0224df60e11b81526000906001600160a01b038b169063da0449be90611ea8908690600401613c82565b602060405180830381600087803b158015611ec257600080fd5b505af1158015611ed6573d6000803e3d6000fd5b505050506040513d601f19601f82011682018060405250810190611efa9190613b48565b6001600160a01b0384166000908152600d602052604081205491925090600160701b90839060ff90611f2e9082168e613fdd565b611f389190613fbb565b611f429190613fdd565b611f4c9190613fbb565b90506000807f00000000000000000000000000000000000000000000000000000000000000006001600160a01b0316630fb2f9b18730866040518463ffffffff1660e01b8152600401611fa193929190613cb0565b604080518083038186803b158015611fb857600080fd5b505afa158015611fcc573d6000803e3d6000fd5b505050506040513d601f19601f82011682018060405250810190611ff09190613b83565b915091506120166040518060600160405280602581526020016143f260259139836130b2565b6120386040518060600160405280602581526020016141d960259139826130b2565b808211156120b5576120666040518060600160405280602681526020016143156026913961114f8385613ffc565b604080516060810182526001600160a01b0388168152600160208201529081016120908385613ffc565b8152508a88815181106120a5576120a56140c3565b602002602001018190525061212e565b8181111561212e576120e36040518060600160405280602781526020016143aa6027913961114f8484613ffc565b604080516060810182526001600160a01b03881681526000602082015290810161210d8484613ffc565b8152508a8881518110612122576121226140c3565b60200260200101819052505b50505050505b50508061214090614066565b9050611a1f565b5082516010556009546040805163628cf32f60e01b815290516001600160a01b039092169163628cf32f91600480820192602092909190829003018186803b15801561219257600080fd5b505afa1580156121a6573d6000803e3d6000fd5b505050506040513d601f19601f820116820180604052508101906121ca91906137e5565b6001600160a01b031663bfee431f836040518263ffffffff1660e01b81526004016121f59190613d5b565b600060405180830381600087803b15801561220f57600080fd5b505af1158015612223573d6000803e3d6000fd5b50505050505050505050565b600260055414156122525760405162461bcd60e51b815260040161096d90613ecd565b600260058190553060009081526020919091526040902054806122875760405162461bcd60e51b815260040161096d90613e51565b6000805b612295600b613186565b811015612351576009546001600160a01b03166391d148546000805160206141fe8339815191526122c7600b856131a8565b6040518363ffffffff1660e01b81526004016122e4929190613ddb565b60206040518083038186803b1580156122fc57600080fd5b505afa158015612310573d6000803e3d6000fd5b505050506040513d601f19601f820116820180604052508101906123349190613944565b6123415760019150612351565b61234a81614066565b905061228b565b50806125c85761235f6131b4565b600061271061ffff16837f00000000000000000000000000000000000000000000000000000000000000006001600160a01b031663b956af8e6040518163ffffffff1660e01b815260040160206040518083038186803b1580156123c257600080fd5b505afa1580156123d6573d6000803e3d6000fd5b505050506040513d601f19601f820116820180604052508101906123fa9190613b24565b61ffff166124089190613fdd565b6124129190613fbb565b9050801561243257600a546124329030906001600160a01b0316836130f7565b600860009054906101000a90046001600160a01b03166001600160a01b0316638da5cb5b6040518163ffffffff1660e01b815260040160206040518083038186803b15801561248057600080fd5b505afa158015612494573d6000803e3d6000fd5b505050506040513d601f19601f820116820180604052508101906124b891906137e5565b6001600160a01b0316846001600160a01b0316146125ba57604051634216e13560e01b81526000906001600160a01b037f00000000000000000000000000000000000000000000000000000000000000001690634216e1359061251f903090600401613c82565b60206040518083038186803b15801561253757600080fd5b505afa15801561254b573d6000803e3d6000fd5b505050506040513d601f19601f8201168201806040525081019061256f9190613b48565b905060006127106125808684613fdd565b61258a9190613fbb565b905080156125b7576008546125aa9030906001600160a01b0316836130f7565b6125b48184613f7e565b92505b50505b6125c48184613ffc565b9250505b6009546040805163628cf32f60e01b815290516000926001600160a01b03169163628cf32f916004808301926020929190829003018186803b15801561260d57600080fd5b505afa158015612621573d6000803e3d6000fd5b505050506040513d601f19601f8201168201806040525081019061264591906137e5565b905060005b612654600b613186565b8110156129e95782801561270d57506009546001600160a01b03166391d148547f4963dcfd342c3f63bd1b992afc723ae72706277470d47567f30dfc6dcee9f11e6126a0600b856131a8565b6040518363ffffffff1660e01b81526004016126bd929190613ddb565b60206040518083038186803b1580156126d557600080fd5b505afa1580156126e9573d6000803e3d6000fd5b505050506040513d601f19601f8201168201806040525081019061270d9190613944565b15612717576129d9565b60006001600160a01b037f00000000000000000000000000000000000000000000000000000000000000001663f7888aec612753600b856131a8565b306040518363ffffffff1660e01b8152600401612771929190613c96565b60206040518083038186803b15801561278957600080fd5b505afa15801561279d573d6000803e3d6000fd5b505050506040513d601f19601f820116820180604052508101906127c19190613b48565b9050600060015482876127d49190613fdd565b6127de9190613fbb565b9050806127ec5750506129d9565b6001600160a01b037f00000000000000000000000000000000000000000000000000000000000000001663beabacc8612826600b866131a8565b7f0000000000000000000000000000000000000000000000000000000000000000846040518463ffffffff1660e01b815260040161286693929190613cb0565b600060405180830381600087803b15801561288057600080fd5b505af1158015612894573d6000803e3d6000fd5b50506001600160a01b037f00000000000000000000000000000000000000000000000000000000000000001691506327fc84a390506128d4600b866131a8565b896040518363ffffffff1660e01b81526004016128f2929190613c96565b602060405180830381600087803b15801561290c57600080fd5b505af1158015612920573d6000803e3d6000fd5b505050506040513d601f19601f820116820180604052508101906129449190613b48565b506001600160a01b03841663cabfb7e361295f600b866131a8565b8860015461296d9190613ffc565b6001546040516001600160e01b031960e086901b1681526001600160a01b03909316600484015260248301919091526044820152606401600060405180830381600087803b1580156129be57600080fd5b505af11580156129d2573d6000803e3d6000fd5b5050505050505b6129e281614066565b905061264a565b506129f430846134b1565b505060016005555050565b60607f00000000000000000000000000000000000000000000000000000000000000006001600160a01b0316637b1039996040518163ffffffff1660e01b815260040160206040518083038186803b158015612a5a57600080fd5b505afa158015612a6e573d6000803e3d6000fd5b505050506040513d601f19601f82011682018060405250810190612a9291906137e5565b6001600160a01b031663554f94ab306040518263ffffffff1660e01b81526004016104989190613c82565b60006104ec600b613186565b60006104fe3384846130f7565b336001600160a01b037f00000000000000000000000000000000000000000000000000000000000000001614612b4e5760405162461bcd60e51b815260206004820152601d60248201527f546f704e4d61726b6574436170496e6465783a20464f5242494444454e000000604482015260640161096d565b6000805b86811015612c8d57600081612b6860018a613ffc565b612b729190613ffc565b90506000898983818110612b8857612b886140c3565b9050602002016020810190612b9d91906137c8565b9050600082612bb857612bb18560ff614013565b9050612beb565b8660ff8a8a86818110612bcd57612bcd6140c3565b90506020020135612bde9190613fdd565b612be89190613fbb565b90505b6001600160a01b0382166000818152600d60205260409020805460ff191660ff8416179055612c575760405162461bcd60e51b8152602060048201526018602482015277546f704e4d61726b6574436170496e6465783a205a45524f60401b604482015260640161096d565b60ff811615612c7957612c6b600b8361349c565b50612c768186613f96565b94505b50505080612c8690614066565b9050612b52565b5050601096909655505050600f9390935550600e805460ff191660ff949094169390931790925550600880546001600160a01b0319166001600160a01b03909216919091179055565b600954604051632474521560e21b81527f1916b456004f332cd8a19679364ef4be668619658be72c17b7e86697c4ae0f16916001600160a01b0316906391d1485490612d289084903390600401613ddb565b60206040518083038186803b158015612d4057600080fd5b505afa158015612d54573d6000803e3d6000fd5b505050506040513d601f19601f82011682018060405250810190612d789190613944565b612d945760405162461bcd60e51b815260040161096d90613e96565b600880546001600160a01b0319166001600160a01b0384161790556040517fbce074c8369e26e70e1ae2f14fc944da352cfe6f52e2de9572f0c9942a24b7fc90612ddf908490613c82565b60405180910390a15050565b42841015612e335760405162461bcd60e51b8152602060048201526015602482015274141a1d5d1d5c99515490cc8c0e8811561412549151605a1b604482015260640161096d565b6000612e3d6108a1565b6001600160a01b038916600090815260046020526040812080547f6e71edae12b1b97f4d1f60370fef10105fa2faae0126114a169c64845d6126c9928c928c928c92909190612e8b83614066565b909155506040805160208101969096526001600160a01b0394851690860152929091166060840152608083015260a082015260c0810187905260e00160405160208183030381529060405280519060200120604051602001612f0492919061190160f01b81526002810192909252602282015260420190565b60408051601f198184030181528282528051602091820120600080855291840180845281905260ff88169284019290925260608301869052608083018590529092509060019060a0016020604051602081039080840390855afa158015612f6f573d6000803e3d6000fd5b5050604051601f1901519150506001600160a01b03811615801590612fa55750886001600160a01b0316816001600160a01b0316145b612ff15760405162461bcd60e51b815260206004820152601f60248201527f5068757475726545524332303a20494e56414c49445f5349474e415455524500604482015260640161096d565b612ffc898989613007565b505050505050505050565b6001600160a01b0383811660008181526003602090815260408083209487168084529482529182902085905590518481527f8c5be1e5ebec7d5bd14f71427d1e84f3dd0314c0f7b2291e5b200ac8c7c3b92591015b60405180910390a3505050565b6130ae828260405160240161307f929190613e05565b60408051601f198184030181529190526020810180516001600160e01b031663319af33360e01b179052613523565b5050565b6130ae82826040516024016130c8929190613e2f565b60408051601f198184030181529190526020810180516001600160e01b03166309710a9d60e41b179052613523565b6001600160a01b0383166000908152600260205260408120805483929061311f908490613ffc565b90915550506001600160a01b0382166000908152600260205260408120805483929061314c908490613f7e565b92505081905550816001600160a01b0316836001600160a01b031660008051602061433b8339815191528360405161305c91815260200190565b6000610502825490565b600081831061319f57816131a1565b825b9392505050565b60006131a18383613544565b6000600754426131c49190613ffc565b9050801561340a576000806131d761356e565b6001600160a01b037f000000000000000000000000000000000000000000000000000000000000000016600090815260026020526040812054600154939550919350916127109161322791613ffc565b6132319084613fdd565b61323b9190613fbb565b905060006301e1338061324e8387613fdd565b6132589190613fbb565b905061329b6040518060400160405280601b81526020017f5f63686172676541554d466565202d20746f74616c537570706c7900000000008152506001546130b2565b6132d6604051806040016040528060198152602001785f63686172676541554d466565202d20796561726c7946656560381b815250836130b2565b6133156040518060400160405280602081526020017f5f63686172676541554d466565202d206164646974696f6e616c537570706c79815250826130b2565b6133546040518060400160405280601a81526020017f5f63686172676541554d466565202d2074696d65506173736564000000000000815250866130b2565b6133936040518060400160405280601d81526020017f5f63686172676541554d466565202d205f666565526563697069656e7400000081525085613069565b8015613405576001600160a01b03841615613400576001600160a01b038416600090815260066020526040812080548392906133d0908490613f7e565b9091555061340090507f00000000000000000000000000000000000000000000000000000000000000008261340d565b426007555b505050505b50565b6001600160a01b03821660009081526002602052604081208054839290613435908490613f7e565b92505081905550806001600082825461344e9190613f7e565b90915550506040518181526001600160a01b0383169060009060008051602061433b833981519152906020015b60405180910390a35050565b60006131a1836001600160a01b038416613615565b60006131a1836001600160a01b038416613708565b6001600160a01b038216600090815260026020526040812080548392906134d9908490613ffc565b9250508190555080600160008282546134f29190613ffc565b90915550506040518181526000906001600160a01b0384169060008051602061433b8339815191529060200161347b565b80516a636f6e736f6c652e6c6f67602083016000808483855afa5050505050565b600082600001828154811061355b5761355b6140c3565b9060005260206000200154905092915050565b6000807f00000000000000000000000000000000000000000000000000000000000000006001600160a01b031663d7529c9f306040518263ffffffff1660e01b81526004016135bd9190613c82565b604080518083038186803b1580156135d457600080fd5b505afa1580156135e8573d6000803e3d6000fd5b505050506040513d601f19601f8201168201806040525081019061360c9190613916565b90939092509050565b600081815260018301602052604081205480156136fe576000613639600183613ffc565b855490915060009061364d90600190613ffc565b90508181146136b257600086600001828154811061366d5761366d6140c3565b9060005260206000200154905080876000018481548110613690576136906140c3565b6000918252602080832090910192909255918252600188019052604090208390555b85548690806136c3576136c36140ad565b600190038181906000526020600020016000905590558560010160008681526020019081526020016000206000905560019350505050610502565b6000915050610502565b600081815260018301602052604081205461374f57508154600181810184556000848152602080822090930184905584548482528286019093526040902091909155610502565b506000610502565b60008083601f84011261376957600080fd5b5081356001600160401b0381111561378057600080fd5b6020830191508360208260051b850101111561379b57600080fd5b9250929050565b805180151581146137b257600080fd5b919050565b803560ff811681146137b257600080fd5b6000602082840312156137da57600080fd5b81356131a1816140ef565b6000602082840312156137f757600080fd5b81516131a1816140ef565b6000806040838503121561381557600080fd5b8235613820816140ef565b91506020830135613830816140ef565b809150509250929050565b60008060006060848603121561385057600080fd5b833561385b816140ef565b9250602084013561386b816140ef565b929592945050506040919091013590565b600080600080600080600060e0888a03121561389757600080fd5b87356138a2816140ef565b965060208801356138b2816140ef565b955060408801359450606088013593506138ce608089016137b7565b925060a0880135915060c0880135905092959891949750929550565b600080604083850312156138fd57600080fd5b8235613908816140ef565b946020939093013593505050565b6000806040838503121561392957600080fd5b8251613934816140ef565b6020939093015192949293505050565b60006020828403121561395657600080fd5b6131a1826137a2565b60006020828403121561397157600080fd5b81516001600160401b038082111561398857600080fd5b818401915084601f83011261399c57600080fd5b8151818111156139ae576139ae6140d9565b6139c1601f8201601f1916602001613f4e565b91508082528560208285010111156139d857600080fd5b6139e9816020840160208601614036565b50949350505050565b60006020808385031215613a0557600080fd5b82516001600160401b0380821115613a1c57600080fd5b9084019060808287031215613a3057600080fd5b613a38613f04565b8251815283830151848201526040808401518183015260608085015184811115613a6157600080fd5b80860195505088601f860112613a7657600080fd5b845184811115613a8857613a886140d9565b613a96878260051b01613f4e565b8181528781019550868801838302880189018c1015613ab457600080fd5b60009750875b83811015613b0e5784828e031215613ad0578889fd5b613ad8613f2c565b8251613ae3816140ef565b8152613af0838c016137a2565b818c0152828701518782015288529689019690840190600101613aba565b5050918401919091525090979650505050505050565b600060208284031215613b3657600080fd5b815161ffff811681146131a157600080fd5b600060208284031215613b5a57600080fd5b5051919050565b60008060408385031215613b7457600080fd5b50508035926020909101359150565b60008060408385031215613b9657600080fd5b505080516020909101519092909150565b600080600080600080600080600060e08a8c031215613bc557600080fd5b613bce8a6137b7565b985060208a0135975060408a0135965060608a01356001600160401b0380821115613bf857600080fd5b613c048d838e01613757565b909850965060808c0135915080821115613c1d57600080fd5b50613c2a8c828d01613757565b90955093505060a08a0135915060c08a0135613c45816140ef565b809150509295985092959850929598565b60008151808452613c6e816020860160208601614036565b601f01601f19169290920160200192915050565b6001600160a01b0391909116815260200190565b6001600160a01b0392831681529116602082015260400190565b6001600160a01b039384168152919092166020820152604081019190915260600190565b604080825283519082018190526000906020906060840190828701845b82811015613d165781516001600160a01b031684529284019290840190600101613cf1565b5050508381038285015284518082528583019183019060005b81811015613d4e57835160ff1683529284019291840191600101613d2f565b5090979650505050505050565b60208082528251828201819052600091906040908185019086840185805b83811015613dcd57825180516001600160a01b031686528781015160028110613db057634e487b7160e01b84526021600452602484fd5b868901528601518686015260609094019391860191600101613d79565b509298975050505050505050565b9182526001600160a01b0316602082015260400190565b6020815260006131a16020830184613c56565b604081526000613e186040830185613c56565b905060018060a01b03831660208301529392505050565b604081526000613e426040830185613c56565b90508260208301529392505050565b60208082526025908201527f4261736544796e616d6963496e6465783a20494e53554646494349454e545f416040820152641353d5539560da1b606082015260800190565b6020808252601b908201527f4261736544796e616d6963496e6465783a20464f5242494444454e0000000000604082015260600190565b6020808252601f908201527f5265656e7472616e637947756172643a207265656e7472616e742063616c6c00604082015260600190565b604051608081016001600160401b0381118282101715613f2657613f266140d9565b60405290565b604051606081016001600160401b0381118282101715613f2657613f266140d9565b604051601f8201601f191681016001600160401b0381118282101715613f7657613f766140d9565b604052919050565b60008219821115613f9157613f91614097565b500190565b600060ff821660ff84168060ff03821115613fb357613fb3614097565b019392505050565b600082613fd857634e487b7160e01b600052601260045260246000fd5b500490565b6000816000190483118215151615613ff757613ff7614097565b500290565b60008282101561400e5761400e614097565b500390565b600060ff821660ff84168082101561402d5761402d614097565b90039392505050565b60005b83811015614051578181015183820152602001614039565b83811115614060576000848401525b50505050565b600060001982141561407a5761407a614097565b5060010190565b634e487b7160e01b600052600160045260246000fd5b634e487b7160e01b600052601160045260246000fd5b634e487b7160e01b600052603160045260246000fd5b634e487b7160e01b600052603260045260246000fd5b634e487b7160e01b600052604160045260246000fd5b6001600160a01b038116811461340a57600080fdfe546f704e4d61726b6574436170496e6465782e7265776569676874207669727475616c4576616c756174696f6e496e42617365546f704e4d61726b6574436170496e6465782e72657765696768742072656d6f7665207368617265734261736544796e616d6963496e6465782e6d696e74206c617374417373657442616c616e6365496e42617365546f704e4d61726b6574436170496e6465782e72657765696768742077656967687420286f6c64294261736544796e616d6963496e6465782e6d696e7420617373657442616c616e63654f66546f704e4d61726b6574436170496e6465782e7265776569676874206f6c6453686172657386d5cf0a6bdc8d859ba3bdc97043337c82a0e609035f378e419298b6a3e00ae6546f704e4d61726b6574436170496e6465782e7265776569676874207765696768744261736544796e616d6963496e6465782e6d696e7420616d6f756e74496e41737365744261736544796e616d6963496e6465782e6d696e7420746f74616c537570706c794261736544796e616d6963496e6465782e6d696e74206c61737442616c616e6365496e4173736574546f704e4d61726b6574436170496e6465782e72657765696768742052454d4f56454420694261736544796e616d6963496e6465782e6d696e742077656967687465645072696365546f704e4d61726b6574436170496e6465782e7265776569676874206173736574546f704e4d61726b6574436170496e6465782e72657765696768742064696666202862757929ddf252ad1be2c89b69c2b068fc378daa952ba7f163c4a11628f55a4df523b3ef4261736544796e616d6963496e6465782e6d696e74205f6d696e416d6f756e74496e426173654261736544796e616d6963496e6465782e6d696e7420617373657442616c616e63654f66436865636b546f704e4d61726b6574436170496e6465782e72657765696768742064696666202873656c6c294261736544796e616d6963496e6465782e6d696e742076616c7565202d20666565546f704e4d61726b6574436170496e6465782e7265776569676874206e6577536861726573546f704e4d61726b6574436170496e6465782e726577656967687420555044415445442069a2646970667358221220be96d91a3ad7bd7409a3a75587a68e29b4bad919410b33b0c1d9aa1b8183778964736f6c63430008070033",
  "linkReferences": {},
  "deployedLinkReferences": {}
}