{
  "_format": "hh-sol-artifact-1",
  "contractName": "TopNMarketCapIndex",
  "sourceName": "contracts/TopNMarketCapIndex.sol",
  "abi": [
    {
      "inputs": [],
      "stateMutability": "nonpayable",
      "type": "constructor"
    },
    {
      "anonymous": false,
      "inputs": [
        {
          "indexed": true,
          "internalType": "address",
          "name": "owner",
          "type": "address"
        },
        {
          "indexed": true,
          "internalType": "address",
          "name": "spender",
          "type": "address"
        },
        {
          "indexed": false,
          "internalType": "uint256",
          "name": "value",
          "type": "uint256"
        }
      ],
      "name": "Approval",
      "type": "event"
    },
    {
      "anonymous": false,
      "inputs": [
        {
          "indexed": false,
          "internalType": "address",
          "name": "governor",
          "type": "address"
        }
      ],
      "name": "SetGovernor",
      "type": "event"
    },
    {
      "anonymous": false,
      "inputs": [
        {
          "indexed": true,
          "internalType": "address",
          "name": "from",
          "type": "address"
        },
        {
          "indexed": true,
          "internalType": "address",
          "name": "to",
          "type": "address"
        },
        {
          "indexed": false,
          "internalType": "uint256",
          "name": "value",
          "type": "uint256"
        }
      ],
      "name": "Transfer",
      "type": "event"
    },
    {
      "anonymous": false,
      "inputs": [
        {
          "indexed": false,
          "internalType": "address",
          "name": "asset",
          "type": "address"
        },
        {
          "indexed": false,
          "internalType": "uint8",
          "name": "weight",
          "type": "uint8"
        }
      ],
      "name": "UpdateAnatomy",
      "type": "event"
    },
    {
      "inputs": [],
      "name": "DOMAIN_SEPARATOR",
      "outputs": [
        {
          "internalType": "bytes32",
          "name": "",
          "type": "bytes32"
        }
      ],
      "stateMutability": "view",
      "type": "function"
    },
    {
      "inputs": [],
      "name": "PERMIT_TYPEHASH",
      "outputs": [
        {
          "internalType": "bytes32",
          "name": "",
          "type": "bytes32"
        }
      ],
      "stateMutability": "view",
      "type": "function"
    },
    {
      "inputs": [
        {
          "internalType": "address",
          "name": "",
          "type": "address"
        },
        {
          "internalType": "address",
          "name": "",
          "type": "address"
        }
      ],
      "name": "allowance",
      "outputs": [
        {
          "internalType": "uint256",
          "name": "",
          "type": "uint256"
        }
      ],
      "stateMutability": "view",
      "type": "function"
    },
    {
      "inputs": [
        {
          "internalType": "uint256",
          "name": "_offset",
          "type": "uint256"
        },
        {
          "internalType": "uint256",
          "name": "_count",
          "type": "uint256"
        }
      ],
      "name": "anatomyForRange",
      "outputs": [
        {
          "internalType": "address[]",
          "name": "_assets",
          "type": "address[]"
        },
        {
          "internalType": "uint8[]",
          "name": "_weights",
          "type": "uint8[]"
        }
      ],
      "stateMutability": "view",
      "type": "function"
    },
    {
      "inputs": [
        {
          "internalType": "address",
          "name": "spender",
          "type": "address"
        },
        {
          "internalType": "uint256",
          "name": "value",
          "type": "uint256"
        }
      ],
      "name": "approve",
      "outputs": [
        {
          "internalType": "bool",
          "name": "",
          "type": "bool"
        }
      ],
      "stateMutability": "nonpayable",
      "type": "function"
    },
    {
      "inputs": [
        {
          "internalType": "address",
          "name": "",
          "type": "address"
        }
      ],
      "name": "balanceOf",
      "outputs": [
        {
          "internalType": "uint256",
          "name": "",
          "type": "uint256"
        }
      ],
      "stateMutability": "view",
      "type": "function"
    },
    {
      "inputs": [
        {
          "internalType": "address",
          "name": "_recipient",
          "type": "address"
        }
      ],
      "name": "burn",
      "outputs": [],
      "stateMutability": "nonpayable",
      "type": "function"
    },
    {
      "inputs": [],
      "name": "category",
      "outputs": [
        {
          "internalType": "uint256",
          "name": "",
          "type": "uint256"
        }
      ],
      "stateMutability": "view",
      "type": "function"
    },
    {
      "inputs": [],
      "name": "creditChargeDisabled",
      "outputs": [
        {
          "internalType": "bool",
          "name": "",
          "type": "bool"
        }
      ],
      "stateMutability": "view",
      "type": "function"
    },
    {
      "inputs": [],
      "name": "decimals",
      "outputs": [
        {
          "internalType": "uint8",
          "name": "",
          "type": "uint8"
        }
      ],
      "stateMutability": "view",
      "type": "function"
    },
    {
      "inputs": [],
      "name": "factory",
      "outputs": [
        {
          "internalType": "address",
          "name": "",
          "type": "address"
        }
      ],
      "stateMutability": "view",
      "type": "function"
    },
    {
      "inputs": [],
      "name": "getAssetCount",
      "outputs": [
        {
          "internalType": "uint256",
          "name": "",
          "type": "uint256"
        }
      ],
      "stateMutability": "view",
      "type": "function"
    },
    {
      "inputs": [],
      "name": "governor",
      "outputs": [
        {
          "internalType": "address",
          "name": "",
          "type": "address"
        }
      ],
      "stateMutability": "view",
      "type": "function"
    },
    {
      "inputs": [
        {
          "internalType": "uint8",
          "name": "_topN",
          "type": "uint8"
        },
        {
          "internalType": "uint256",
          "name": "_category",
          "type": "uint256"
        },
        {
          "internalType": "uint256",
          "name": "_snapshot",
          "type": "uint256"
        },
        {
          "internalType": "address[]",
          "name": "_assets",
          "type": "address[]"
        },
        {
          "internalType": "uint256[]",
          "name": "_capitalizations",
          "type": "uint256[]"
        },
        {
          "internalType": "uint256",
          "name": "_totalCapitalization",
          "type": "uint256"
        },
        {
          "internalType": "address",
          "name": "_governor",
          "type": "address"
        }
      ],
      "name": "initialize",
      "outputs": [],
      "stateMutability": "nonpayable",
      "type": "function"
    },
    {
      "inputs": [
        {
          "internalType": "address",
          "name": "_recipient",
          "type": "address"
        }
      ],
      "name": "mint",
      "outputs": [],
      "stateMutability": "nonpayable",
      "type": "function"
    },
    {
      "inputs": [],
      "name": "name",
      "outputs": [
        {
          "internalType": "string",
          "name": "",
          "type": "string"
        }
      ],
      "stateMutability": "view",
      "type": "function"
    },
    {
      "inputs": [
        {
          "internalType": "address",
          "name": "",
          "type": "address"
        }
      ],
      "name": "nonces",
      "outputs": [
        {
          "internalType": "uint256",
          "name": "",
          "type": "uint256"
        }
      ],
      "stateMutability": "view",
      "type": "function"
    },
    {
      "inputs": [
        {
          "internalType": "address",
          "name": "owner",
          "type": "address"
        },
        {
          "internalType": "address",
          "name": "spender",
          "type": "address"
        },
        {
          "internalType": "uint256",
          "name": "value",
          "type": "uint256"
        },
        {
          "internalType": "uint256",
          "name": "deadline",
          "type": "uint256"
        },
        {
          "internalType": "uint8",
          "name": "v",
          "type": "uint8"
        },
        {
          "internalType": "bytes32",
          "name": "r",
          "type": "bytes32"
        },
        {
          "internalType": "bytes32",
          "name": "s",
          "type": "bytes32"
        }
      ],
      "name": "permit",
      "outputs": [],
      "stateMutability": "nonpayable",
      "type": "function"
    },
    {
      "inputs": [],
      "name": "registry",
      "outputs": [
        {
          "internalType": "address",
          "name": "",
          "type": "address"
        }
      ],
      "stateMutability": "view",
      "type": "function"
    },
    {
      "inputs": [],
      "name": "reweight",
      "outputs": [],
      "stateMutability": "nonpayable",
      "type": "function"
    },
    {
      "inputs": [
        {
          "internalType": "bool",
          "name": "_disabled",
          "type": "bool"
        }
      ],
      "name": "setCreditChargeDisabled",
      "outputs": [],
      "stateMutability": "nonpayable",
      "type": "function"
    },
    {
      "inputs": [
        {
          "internalType": "address",
          "name": "_governor",
          "type": "address"
        }
      ],
      "name": "setGovernor",
      "outputs": [],
      "stateMutability": "nonpayable",
      "type": "function"
    },
    {
      "inputs": [
        {
          "internalType": "bytes4",
          "name": "interfaceId",
          "type": "bytes4"
        }
      ],
      "name": "supportsInterface",
      "outputs": [
        {
          "internalType": "bool",
          "name": "",
          "type": "bool"
        }
      ],
      "stateMutability": "view",
      "type": "function"
    },
    {
      "inputs": [],
      "name": "symbol",
      "outputs": [
        {
          "internalType": "string",
          "name": "",
          "type": "string"
        }
      ],
      "stateMutability": "view",
      "type": "function"
    },
    {
      "inputs": [],
      "name": "topN",
      "outputs": [
        {
          "internalType": "uint8",
          "name": "",
          "type": "uint8"
        }
      ],
      "stateMutability": "view",
      "type": "function"
    },
    {
      "inputs": [],
      "name": "totalSupply",
      "outputs": [
        {
          "internalType": "uint256",
          "name": "",
          "type": "uint256"
        }
      ],
      "stateMutability": "view",
      "type": "function"
    },
    {
      "inputs": [
        {
          "internalType": "address",
          "name": "to",
          "type": "address"
        },
        {
          "internalType": "uint256",
          "name": "value",
          "type": "uint256"
        }
      ],
      "name": "transfer",
      "outputs": [
        {
          "internalType": "bool",
          "name": "",
          "type": "bool"
        }
      ],
      "stateMutability": "nonpayable",
      "type": "function"
    },
    {
      "inputs": [
        {
          "internalType": "address",
          "name": "from",
          "type": "address"
        },
        {
          "internalType": "address",
          "name": "to",
          "type": "address"
        },
        {
          "internalType": "uint256",
          "name": "value",
          "type": "uint256"
        }
      ],
      "name": "transferFrom",
      "outputs": [
        {
          "internalType": "bool",
          "name": "",
          "type": "bool"
        }
      ],
      "stateMutability": "nonpayable",
      "type": "function"
    },
    {
      "inputs": [],
      "name": "vTokenFactory",
      "outputs": [
        {
          "internalType": "address",
          "name": "",
          "type": "address"
        }
      ],
      "stateMutability": "view",
      "type": "function"
    }
  ],
  "bytecode": "0x60806040523480156200001157600080fd5b506001600b55600480546001600160a01b0319163390811782554260075560408051637b10399960e01b81529051919283928392637b1039999281810192602092909190829003018186803b1580156200006a57600080fd5b505afa1580156200007f573d6000803e3d6000fd5b505050506040513d601f19601f82011682018060405250810190620000a5919062000169565b600660006101000a8154816001600160a01b0302191690836001600160a01b03160217905550806001600160a01b03166328dd99126040518163ffffffff1660e01b815260040160206040518083038186803b1580156200010557600080fd5b505afa1580156200011a573d6000803e3d6000fd5b505050506040513d601f19601f8201168201806040525081019062000140919062000169565b600580546001600160a01b0319166001600160a01b0392909216919091179055506200019b9050565b6000602082840312156200017c57600080fd5b81516001600160a01b03811681146200019457600080fd5b9392505050565b612d4a80620001ab6000396000f3fe608060405234801561001057600080fd5b506004361061018f5760003560e01c80637b103999116100e4578063c044d70411610092578063c044d7041461037d578063c42cf53514610390578063c45a0155146103a3578063d505accf146103b6578063dd62ed3e146103c9578063ee9fd31c146103f4578063ef430aa614610408578063f6abc84c1461041157600080fd5b80637b1039991461030c5780637ecebe001461031f578063849feb6b1461033f57806389afcb441461034757806395d89b411461035a578063a0aead4d14610362578063a9059cbb1461036a57600080fd5b806328dd99121161014157806328dd99121461024f57806330adf81f14610262578063313ce567146102895780633644e515146102a357806361623874146102ab5780636a627842146102d957806370a08231146102ec57600080fd5b806301ffc9a71461019457806306fdde03146101bc578063095ea7b3146101d15780630c340a24146101e457806318160ddd146102045780631a7bc0131461021b57806323b872dd1461023c575b600080fd5b6101a76101a23660046125f3565b610425565b60405190151581526020015b60405180910390f35b6101c4610450565b6040516101b391906129dc565b6101a76101df36600461258d565b6104da565b600c546101f7906001600160a01b031681565b6040516101b3919061290e565b61020d60005481565b6040519081526020016101b3565b61022e6102293660046127fd565b6104f0565b6040516101b392919061293e565b6101a761024a3660046124de565b61068d565b6005546101f7906001600160a01b031681565b61020d7f6e71edae12b1b97f4d1f60370fef10105fa2faae0126114a169c64845d6126c981565b610291601281565b60405160ff90911681526020016101b3565b61020d610707565b6102d76102b93660046125b9565b600c8054911515600160a01b0260ff60a01b19909216919091179055565b005b6102d76102e736600461246b565b6107b0565b61020d6102fa36600461246b565b60016020526000908152604090205481565b6006546101f7906001600160a01b031681565b61020d61032d36600461246b565b60036020526000908152604090205481565b6102d7610956565b6102d761035536600461246b565b611535565b6101c46116c0565b61020d6116f1565b6101a761037836600461258d565b6116fd565b6102d761038b366004612843565b61170a565b6102d761039e36600461246b565b6118e5565b6004546101f7906001600160a01b031681565b6102d76103c436600461251f565b611b1b565b61020d6103d73660046124a5565b600260209081526000928352604080842090915290825290205481565b600c5461029190600160a81b900460ff1681565b61020d600d5481565b600c546101a790600160a01b900460ff1681565b60006001600160e01b03198216636da7722160e11b148061044a575061044a82611d37565b92915050565b60065460405163ed3b559f60e01b81526060916001600160a01b03169063ed3b559f9061048190309060040161290e565b60006040518083038186803b15801561049957600080fd5b505afa1580156104ad573d6000803e3d6000fd5b505050506040513d6000823e601f3d908101601f191682016040526104d5919081019061261d565b905090565b60006104e7338484611d5c565b50600192915050565b6060806104fd6008611dbe565b84101561052757610522846105126008611dbe565b61051c9190612bf1565b84611dc8565b61052a565b60005b6001600160401b0381111561054157610541612cb8565b60405190808252806020026020018201604052801561056a578160200160208202803683370190505b50915081516001600160401b0381111561058657610586612cb8565b6040519080825280602002602001820160405280156105af578160200160208202803683370190505b50905060005b8251811015610685576105d36105cb8287612b73565b600890611de0565b8382815181106105e5576105e5612ca2565b60200260200101906001600160a01b031690816001600160a01b031681525050600a600084838151811061061b5761061b612ca2565b60200260200101516001600160a01b03166001600160a01b0316815260200190815260200160002060009054906101000a900460ff1682828151811061066357610663612ca2565b60ff9092166020928302919091019091015261067e81612c5b565b90506105b5565b509250929050565b6001600160a01b0383166000908152600260209081526040808320338452909152812054600019146106f2576001600160a01b0384166000908152600260209081526040808320338452909152812080548492906106ec908490612bf1565b90915550505b6106fd848484611dec565b5060019392505050565b60007f8b73c3c69bb8fe3d512ecc4cf759cc79239f7b179b0ffacaa9a75d522b39400f610732610450565b805160209182012060408051808201825260018152603160f81b90840152805192830193909352918101919091527fc89efdaa54c0f20c7adf612882df0950f5a951637e0307cdcb4c672f298b8bc660608201524660808201523060a082015260c00160405160208183030381529060405280519060200120905090565b6002600b5414156107dc5760405162461bcd60e51b81526004016107d390612a78565b60405180910390fd5b6002600b556006546040805163583def7b60e11b8152905160009283926001600160a01b039091169163b07bdef69160048082019260209290919082900301818787803b15801561082c57600080fd5b505af1158015610840573d6000803e3d6000fd5b505050506040513d601f19601f820116820180604052508101906108649190612488565b6001600160a01b03168360405160240161087e919061290e565b60408051601f198184030181529181526020820180516001600160e01b03166335313c2160e11b179052516108b391906128f2565b600060405180830381855af49150503d80600081146108ee576040519150601f19603f3d011682016040523d82523d6000602084013e6108f3565b606091505b50915091508161094c5780516109445760405162461bcd60e51b815260206004820152601660248201527510985cd9525b99195e0e881352539517d1905253115160521b60448201526064016107d3565b805181602001fd5b50506001600b5550565b600654604051632474521560e21b81526001600160a01b03909116906391d14854906109a8907ff4730887401325e116e846d0e51948344682bbc6e090c5e5993a8025fb6a68b09033906004016129c5565b60206040518083038186803b1580156109c057600080fd5b505afa1580156109d4573d6000803e3d6000fd5b505050506040513d601f19601f820116820180604052508101906109f891906125d6565b610a145760405162461bcd60e51b81526004016107d390612a41565b60065460408051632630c12f60e01b815290516000926001600160a01b031691632630c12f916004808301926020929190829003018186803b158015610a5957600080fd5b505afa158015610a6d573d6000803e3d6000fd5b505050506040513d601f19601f82011682018060405250810190610a919190612488565b90506000805b610aa16008611dbe565b811015610c775760006001600160a01b03841663da0449be610ac4600885611de0565b6040518263ffffffff1660e01b8152600401610ae0919061290e565b602060405180830381600087803b158015610afa57600080fd5b505af1158015610b0e573d6000803e3d6000fd5b505050506040513d601f19601f82011682018060405250810190610b3291906127e4565b6005549091506000906001600160a01b0316638d5aa174610b54600886611de0565b6040518263ffffffff1660e01b8152600401610b70919061290e565b602060405180830381600087803b158015610b8a57600080fd5b505af1158015610b9e573d6000803e3d6000fd5b505050506040513d601f19601f82011682018060405250810190610bc29190612488565b6001600160a01b03166306b3efd6306040518263ffffffff1660e01b8152600401610bed919061290e565b60206040518083038186803b158015610c0557600080fd5b505afa158015610c19573d6000803e3d6000fd5b505050506040513d601f19601f82011682018060405250810190610c3d91906127e4565b905081610c4e600160701b83612bd2565b610c589190612bb0565b610c629085612b73565b9350505080610c7090612c5b565b9050610a97565b506000600460009054906101000a90046001600160a01b03166001600160a01b031663673864f96040518163ffffffff1660e01b815260040160206040518083038186803b158015610cc857600080fd5b505afa158015610cdc573d6000803e3d6000fd5b505050506040513d601f19601f82011682018060405250810190610d009190612488565b600d54600e54600c5460405163225193ad60e01b815260048101939093526024830191909152600160a81b900460ff1660448201526001600160a01b03919091169063225193ad9060640160006040518083038186803b158015610d6357600080fd5b505afa158015610d77573d6000803e3d6000fd5b505050506040513d6000823e601f3d908101601f19168201604052610d9f91908101906126b0565b90506000600660009054906101000a90046001600160a01b03166001600160a01b031663628cf32f6040518163ffffffff1660e01b815260040160206040518083038186803b158015610df157600080fd5b505afa158015610e05573d6000803e3d6000fd5b505050506040513d601f19601f82011682018060405250810190610e299190612488565b90506000816001600160a01b031663f5c609e06040518163ffffffff1660e01b8152600401602060405180830381600087803b158015610e6857600080fd5b505af1158015610e7c573d6000803e3d6000fd5b505050506040513d601f19601f82011682018060405250810190610ea091906127e4565b90506000805b84604001518110156115285760008160018760400151610ec69190612bf1565b610ed09190612bf1565b9050600086606001518281518110610eea57610eea612ca2565b602090810291909101015151600554604051632356a85d60e21b81529192506000916001600160a01b0390911690638d5aa17490610f2c90859060040161290e565b602060405180830381600087803b158015610f4657600080fd5b505af1158015610f5a573d6000803e3d6000fd5b505050506040513d601f19601f82011682018060405250810190610f7e9190612488565b905087606001518381518110610f9657610f96612ca2565b602002602001015160200151156110ee576040516370a0823160e01b81526000906001600160a01b038316906370a0823190610fd690309060040161290e565b60206040518083038186803b158015610fee57600080fd5b505afa158015611002573d6000803e3d6000fd5b505050506040513d601f19601f8201168201806040525081019061102691906127e4565b905080156110945760405163263b761f60e21b81526001600160a01b038916906398edd87c90611061908a9087908690600090600401612aaf565b600060405180830381600087803b15801561107b57600080fd5b505af115801561108f573d6000803e3d6000fd5b505050505b6001600160a01b0383166000908152600a60205260409020805460ff191690556110bf600884611e7f565b50600080516020612cf58339815191528360006040516110e0929190612922565b60405180910390a150611514565b600654604051632474521560e21b81526001600160a01b03909116906391d1485490611140907f86d5cf0a6bdc8d859ba3bdc97043337c82a0e609035f378e419298b6a3e00ae69086906004016129c5565b60206040518083038186803b15801561115857600080fd5b505afa15801561116c573d6000803e3d6000fd5b505050506040513d601f19601f8201168201806040525081019061119091906125d6565b6111e65760405162461bcd60e51b815260206004820152602160248201527f546f704e4d61726b6574436170496e6465783a20494e56414c49445f415353456044820152601560fa1b60648201526084016107d3565b6000836111ff576111f88660ff612c08565b9050611241565b886020015160ff80168a60600151868151811061121e5761121e612ca2565b6020026020010151604001516112349190612bd2565b61123e9190612bb0565b90505b6001600160a01b0383166000908152600a60205260409020805460ff191660ff83161790556112708187612b8b565b955060ff81161561128c57611286600884611e94565b50611299565b611297600884611e7f565b505b600080516020612cf583398151915283826040516112b8929190612922565b60405180910390a150604051636d0224df60e11b81526000906001600160a01b038c169063da0449be906112f090869060040161290e565b602060405180830381600087803b15801561130a57600080fd5b505af115801561131e573d6000803e3d6000fd5b505050506040513d601f19601f8201168201806040525081019061134291906127e4565b6001600160a01b0384166000908152600a602052604081205491925090600160701b90839060ff906113769082168f612bd2565b6113809190612bb0565b61138a9190612bd2565b6113949190612bb0565b6040516365df6f8b60e11b81523060048201526024810182905290915060009081906001600160a01b0386169063cbbedf1690604401604080518083038186803b1580156113e157600080fd5b505afa1580156113f5573d6000803e3d6000fd5b505050506040513d601f19601f82011682018060405250810190611419919061281f565b9150915080821115611498576001600160a01b038b166398edd87c8b886114408587612bf1565b60016040518563ffffffff1660e01b81526004016114619493929190612aaf565b600060405180830381600087803b15801561147b57600080fd5b505af115801561148f573d6000803e3d6000fd5b5050505061150f565b8181111561150f576001600160a01b038b166398edd87c8b886114bb8686612bf1565b60006040518563ffffffff1660e01b81526004016114dc9493929190612aaf565b600060405180830381600087803b1580156114f657600080fd5b505af115801561150a573d6000803e3d6000fd5b505050505b505050505b5050508061152190612c5b565b9050610ea6565b50509151600e5550505050565b6002600b5414156115585760405162461bcd60e51b81526004016107d390612a78565b6002600b556006546040805163583def7b60e11b8152905160009283926001600160a01b039091169163b07bdef69160048082019260209290919082900301818787803b1580156115a857600080fd5b505af11580156115bc573d6000803e3d6000fd5b505050506040513d601f19601f820116820180604052508101906115e09190612488565b6001600160a01b0316836040516024016115fa919061290e565b60408051601f198184030181529181526020820180516001600160e01b031663226bf2d160e21b1790525161162f91906128f2565b600060405180830381855af49150503d806000811461166a576040519150601f19603f3d011682016040523d82523d6000602084013e61166f565b606091505b50915091508161094c5780516109445760405162461bcd60e51b815260206004820152601660248201527510985cd9525b99195e0e881095549397d1905253115160521b60448201526064016107d3565b60065460405163554f94ab60e01b81526060916001600160a01b03169063554f94ab9061048190309060040161290e565b60006104d56008611dbe565b60006104e7338484611dec565b6004546001600160a01b031633146117345760405162461bcd60e51b81526004016107d390612a41565b6001600160a01b03811661175a5760405162461bcd60e51b81526004016107d390612a0f565b6000805b868110156118955760008161177460018a612bf1565b61177e9190612bf1565b9050600089898381811061179457611794612ca2565b90506020020160208101906117a9919061246b565b90506000826117c4576117bd8560ff612c08565b90506117f7565b8660ff8a8a868181106117d9576117d9612ca2565b905060200201356117ea9190612bd2565b6117f49190612bb0565b90505b6001600160a01b0382166000818152600a60205260409020805460ff191660ff84161790556118385760405162461bcd60e51b81526004016107d390612a0f565b60ff8116156118815761184c600883611e94565b506118578186612b8b565b9450600080516020612cf58339815191528282604051611878929190612922565b60405180910390a15b5050508061188e90612c5b565b905061175e565b5050600e96909655505050600d9390935550600c8054600161ff0160a01b031916600160a81b60ff95909516949094026001600160a01b031916939093176001600160a01b039091161790915550565b600654604051632474521560e21b81526001600160a01b03909116906391d1485490611937907f1916b456004f332cd8a19679364ef4be668619658be72c17b7e86697c4ae0f169033906004016129c5565b60206040518083038186803b15801561194f57600080fd5b505afa158015611963573d6000803e3d6000fd5b505050506040513d601f19601f8201168201806040525081019061198791906125d6565b6119d35760405162461bcd60e51b815260206004820152601a60248201527f476f7665726e61626c65496e6465783a20464f5242494444454e00000000000060448201526064016107d3565b600660009054906101000a90046001600160a01b03166001600160a01b031663ae2e933b6040518163ffffffff1660e01b815260040160206040518083038186803b158015611a2157600080fd5b505afa158015611a35573d6000803e3d6000fd5b505050506040513d601f19601f82011682018060405250810190611a599190612488565b600c546040516306b0e67560e01b81523060048201526001600160a01b03918216602482015283821660448201529116906306b0e67590606401600060405180830381600087803b158015611aad57600080fd5b505af1158015611ac1573d6000803e3d6000fd5b5050600c80546001600160a01b0319166001600160a01b03851617905550506040517fbce074c8369e26e70e1ae2f14fc944da352cfe6f52e2de9572f0c9942a24b7fc90611b1090839061290e565b60405180910390a150565b42841015611b635760405162461bcd60e51b8152602060048201526015602482015274141a1d5d1d5c99515490cc8c0e8811561412549151605a1b60448201526064016107d3565b6000611b6d610707565b6001600160a01b038916600090815260036020526040812080547f6e71edae12b1b97f4d1f60370fef10105fa2faae0126114a169c64845d6126c9928c928c928c92909190611bbb83612c5b565b909155506040805160208101969096526001600160a01b0394851690860152929091166060840152608083015260a082015260c0810187905260e00160405160208183030381529060405280519060200120604051602001611c3492919061190160f01b81526002810192909252602282015260420190565b60408051601f198184030181528282528051602091820120600080855291840180845281905260ff88169284019290925260608301869052608083018590529092509060019060a0016020604051602081039080840390855afa158015611c9f573d6000803e3d6000fd5b5050604051601f1901519150506001600160a01b03811615801590611cd55750886001600160a01b0316816001600160a01b0316145b611d215760405162461bcd60e51b815260206004820152601f60248201527f5068757475726545524332303a20494e56414c49445f5349474e41545552450060448201526064016107d3565b611d2c898989611d5c565b505050505050505050565b60006001600160e01b03198216636da7722160e11b148061044a575061044a82611ea9565b6001600160a01b0383811660008181526002602090815260408083209487168084529482529182902085905590518481527f8c5be1e5ebec7d5bd14f71427d1e84f3dd0314c0f7b2291e5b200ac8c7c3b92591015b60405180910390a3505050565b600061044a825490565b6000818310611dd75781611dd9565b825b9392505050565b6000611dd98383611ece565b6006546040805163ae2e933b60e01b81529051611e6f926001600160a01b03169163ae2e933b916004808301926020929190829003018186803b158015611e3257600080fd5b505afa158015611e46573d6000803e3d6000fd5b505050506040513d601f19601f82011682018060405250810190611e6a9190612488565b611ef8565b611e7a83838361201f565b505050565b6000611dd9836001600160a01b03841661210b565b6000611dd9836001600160a01b0384166121fe565b60006001600160e01b03198216630b231bcb60e31b148061044a575061044a8261224d565b6000826000018281548110611ee557611ee5612ca2565b9060005260206000200154905092915050565b600060075442611f089190612bf1565b9050801561201b5760006b033b2e3c9fd0803ce800000080611fb2856001600160a01b0316635612e00b306040518263ffffffff1660e01b8152600401611f4f919061290e565b60206040518083038186803b158015611f6757600080fd5b505afa158015611f7b573d6000803e3d6000fd5b505050506040513d601f19601f82011682018060405250810190611f9f91906127e4565b856b033b2e3c9fd0803ce8000000612272565b611fbc9190612bf1565b6004546001600160a01b03166000908152600160205260408120549054611fe39190612bf1565b611fed9190612bd2565b611ff79190612bb0565b90508015611e7a57600454612015906001600160a01b031682612330565b42600755505b5050565b6001600160a01b03821661206a5760405162461bcd60e51b81526020600482015260126024820152715068757475726545524332303a205a45524f60701b60448201526064016107d3565b6001600160a01b03831660009081526001602052604081208054839290612092908490612bf1565b90915550506001600160a01b038216600090815260016020526040812080548392906120bf908490612b73565b92505081905550816001600160a01b0316836001600160a01b03167fddf252ad1be2c89b69c2b068fc378daa952ba7f163c4a11628f55a4df523b3ef83604051611db191815260200190565b600081815260018301602052604081205480156121f457600061212f600183612bf1565b855490915060009061214390600190612bf1565b90508181146121a857600086600001828154811061216357612163612ca2565b906000526020600020015490508087600001848154811061218657612186612ca2565b6000918252602080832090910192909255918252600188019052604090208390555b85548690806121b9576121b9612c8c565b60019003818190600052602060002001600090559055856001016000868152602001908152602001600020600090556001935050505061044a565b600091505061044a565b60008181526001830160205260408120546122455750815460018181018455600084815260208082209093018490558454848252828601909352604090209190915561044a565b50600061044a565b60006001600160e01b03198216634bcbd0ef60e11b148061044a575061044a826123ba565b60008380156123125760018416801561228d57859250612291565b8392505b50600283046002850494505b841561230c5785860286878204146122b457600080fd5b818101818110156122c457600080fd5b85900496505060018516156123015785830283878204141587151516156122ea57600080fd5b818101818110156122fa57600080fd5b8590049350505b60028504945061229d565b50612328565b8380156123225760009250612326565b8392505b505b509392505050565b6001600160a01b03821660009081526001602052604081208054839290612358908490612b73565b92505081905550806000808282546123709190612b73565b90915550506040518181526001600160a01b038316906000907fddf252ad1be2c89b69c2b068fc378daa952ba7f163c4a11628f55a4df523b3ef9060200160405180910390a35050565b60006001600160e01b031982166336372b0760e01b14806123eb57506001600160e01b0319821663390c84e760e01b145b8061044a57506301ffc9a760e01b6001600160e01b031983161461044a565b60008083601f84011261241c57600080fd5b5081356001600160401b0381111561243357600080fd5b6020830191508360208260051b850101111561244e57600080fd5b9250929050565b803560ff8116811461246657600080fd5b919050565b60006020828403121561247d57600080fd5b8135611dd981612cce565b60006020828403121561249a57600080fd5b8151611dd981612cce565b600080604083850312156124b857600080fd5b82356124c381612cce565b915060208301356124d381612cce565b809150509250929050565b6000806000606084860312156124f357600080fd5b83356124fe81612cce565b9250602084013561250e81612cce565b929592945050506040919091013590565b600080600080600080600060e0888a03121561253a57600080fd5b873561254581612cce565b9650602088013561255581612cce565b9550604088013594506060880135935061257160808901612455565b925060a0880135915060c0880135905092959891949750929550565b600080604083850312156125a057600080fd5b82356125ab81612cce565b946020939093013593505050565b6000602082840312156125cb57600080fd5b8135611dd981612ce6565b6000602082840312156125e857600080fd5b8151611dd981612ce6565b60006020828403121561260557600080fd5b81356001600160e01b031981168114611dd957600080fd5b60006020828403121561262f57600080fd5b81516001600160401b038082111561264657600080fd5b818401915084601f83011261265a57600080fd5b81518181111561266c5761266c612cb8565b61267f601f8201601f1916602001612b43565b915080825285602082850101111561269657600080fd5b6126a7816020840160208601612c2b565b50949350505050565b600060208083850312156126c357600080fd5b82516001600160401b03808211156126da57600080fd5b90840190608082870312156126ee57600080fd5b6126f6612af9565b825181528383015184820152604080840151818301526060808501518481111561271f57600080fd5b80860195505088601f86011261273457600080fd5b84518481111561274657612746612cb8565b612754878260051b01612b43565b8181528781019550868801838302880189018c101561277257600080fd5b60009750875b838110156127ce5784828e03121561278e578889fd5b612796612b21565b82516127a181612cce565b8152828b01516127b081612ce6565b818c0152828701518782015288529689019690840190600101612778565b5050918401919091525090979650505050505050565b6000602082840312156127f657600080fd5b5051919050565b6000806040838503121561281057600080fd5b50508035926020909101359150565b6000806040838503121561283257600080fd5b505080516020909101519092909150565b600080600080600080600080600060e08a8c03121561286157600080fd5b61286a8a612455565b985060208a0135975060408a0135965060608a01356001600160401b038082111561289457600080fd5b6128a08d838e0161240a565b909850965060808c01359150808211156128b957600080fd5b506128c68c828d0161240a565b90955093505060a08a0135915060c08a01356128e181612cce565b809150509295985092959850929598565b60008251612904818460208701612c2b565b9190910192915050565b6001600160a01b0391909116815260200190565b6001600160a01b0392909216825260ff16602082015260400190565b604080825283519082018190526000906020906060840190828701845b828110156129805781516001600160a01b03168452928401929084019060010161295b565b5050508381038285015284518082528583019183019060005b818110156129b857835160ff1683529284019291840191600101612999565b5090979650505050505050565b9182526001600160a01b0316602082015260400190565b60208152600082518060208401526129fb816040850160208701612c2b565b601f01601f19169190910160400192915050565b602080825260189082015277546f704e4d61726b6574436170496e6465783a205a45524f60401b604082015260600190565b6020808252601d908201527f546f704e4d61726b6574436170496e6465783a20464f5242494444454e000000604082015260600190565b6020808252601f908201527f5265656e7472616e637947756172643a207265656e7472616e742063616c6c00604082015260600190565b8481526001600160a01b0384166020820152604081018390526080810160028310612aea57634e487b7160e01b600052602160045260246000fd5b82606083015295945050505050565b604051608081016001600160401b0381118282101715612b1b57612b1b612cb8565b60405290565b604051606081016001600160401b0381118282101715612b1b57612b1b612cb8565b604051601f8201601f191681016001600160401b0381118282101715612b6b57612b6b612cb8565b604052919050565b60008219821115612b8657612b86612c76565b500190565b600060ff821660ff84168060ff03821115612ba857612ba8612c76565b019392505050565b600082612bcd57634e487b7160e01b600052601260045260246000fd5b500490565b6000816000190483118215151615612bec57612bec612c76565b500290565b600082821015612c0357612c03612c76565b500390565b600060ff821660ff841680821015612c2257612c22612c76565b90039392505050565b60005b83811015612c46578181015183820152602001612c2e565b83811115612c55576000848401525b50505050565b6000600019821415612c6f57612c6f612c76565b5060010190565b634e487b7160e01b600052601160045260246000fd5b634e487b7160e01b600052603160045260246000fd5b634e487b7160e01b600052603260045260246000fd5b634e487b7160e01b600052604160045260246000fd5b6001600160a01b0381168114612ce357600080fd5b50565b8015158114612ce357600080fdfe570021dbfc0c0d1b83293d5c8ce73e7cef80870624da237d3e4bc6bda4abab58a264697066735822122081a577708b30465ae651a6a7993203faac96540a359bd0c27561993f0faab02464736f6c63430008070033",
  "linkReferences": {},
  "deployedLinkReferences": {}
}