{
  "_format": "hh-sol-artifact-1",
  "contractName": "TopNMarketCapIndex",
  "sourceName": "contracts/TopNMarketCapIndex.sol",
  "abi": [
    {
      "inputs": [],
      "stateMutability": "nonpayable",
      "type": "constructor"
    },
    {
      "anonymous": false,
      "inputs": [
        {
          "indexed": true,
          "internalType": "address",
          "name": "owner",
          "type": "address"
        },
        {
          "indexed": true,
          "internalType": "address",
          "name": "spender",
          "type": "address"
        },
        {
          "indexed": false,
          "internalType": "uint256",
          "name": "value",
          "type": "uint256"
        }
      ],
      "name": "Approval",
      "type": "event"
    },
    {
      "anonymous": false,
      "inputs": [
        {
          "indexed": false,
          "internalType": "address",
          "name": "governor",
          "type": "address"
        }
      ],
      "name": "SetGovernor",
      "type": "event"
    },
    {
      "anonymous": false,
      "inputs": [
        {
          "indexed": true,
          "internalType": "address",
          "name": "from",
          "type": "address"
        },
        {
          "indexed": true,
          "internalType": "address",
          "name": "to",
          "type": "address"
        },
        {
          "indexed": false,
          "internalType": "uint256",
          "name": "value",
          "type": "uint256"
        }
      ],
      "name": "Transfer",
      "type": "event"
    },
    {
      "anonymous": false,
      "inputs": [
        {
          "indexed": false,
          "internalType": "address[]",
          "name": "assets",
          "type": "address[]"
        },
        {
          "indexed": false,
          "internalType": "uint8[]",
          "name": "weights",
          "type": "uint8[]"
        }
      ],
      "name": "UpdateAnatomy",
      "type": "event"
    },
    {
      "inputs": [],
      "name": "DOMAIN_SEPARATOR",
      "outputs": [
        {
          "internalType": "bytes32",
          "name": "",
          "type": "bytes32"
        }
      ],
      "stateMutability": "view",
      "type": "function"
    },
    {
      "inputs": [],
      "name": "PERMIT_TYPEHASH",
      "outputs": [
        {
          "internalType": "bytes32",
          "name": "",
          "type": "bytes32"
        }
      ],
      "stateMutability": "view",
      "type": "function"
    },
    {
      "inputs": [],
      "name": "V_TOKEN_TYPE",
      "outputs": [
        {
          "internalType": "bytes32",
          "name": "",
          "type": "bytes32"
        }
      ],
      "stateMutability": "view",
      "type": "function"
    },
    {
      "inputs": [
        {
          "internalType": "address",
          "name": "",
          "type": "address"
        },
        {
          "internalType": "address",
          "name": "",
          "type": "address"
        }
      ],
      "name": "allowance",
      "outputs": [
        {
          "internalType": "uint256",
          "name": "",
          "type": "uint256"
        }
      ],
      "stateMutability": "view",
      "type": "function"
    },
    {
      "inputs": [
        {
          "internalType": "uint256",
          "name": "_offset",
          "type": "uint256"
        },
        {
          "internalType": "uint256",
          "name": "_count",
          "type": "uint256"
        }
      ],
      "name": "anatomyForRange",
      "outputs": [
        {
          "internalType": "address[]",
          "name": "_assets",
          "type": "address[]"
        },
        {
          "internalType": "uint8[]",
          "name": "_weights",
          "type": "uint8[]"
        }
      ],
      "stateMutability": "view",
      "type": "function"
    },
    {
      "inputs": [
        {
          "internalType": "address",
          "name": "spender",
          "type": "address"
        },
        {
          "internalType": "uint256",
          "name": "value",
          "type": "uint256"
        }
      ],
      "name": "approve",
      "outputs": [
        {
          "internalType": "bool",
          "name": "",
          "type": "bool"
        }
      ],
      "stateMutability": "nonpayable",
      "type": "function"
    },
    {
      "inputs": [
        {
          "internalType": "address",
          "name": "",
          "type": "address"
        }
      ],
      "name": "balanceOf",
      "outputs": [
        {
          "internalType": "uint256",
          "name": "",
          "type": "uint256"
        }
      ],
      "stateMutability": "view",
      "type": "function"
    },
    {
      "inputs": [
        {
          "internalType": "address",
          "name": "_recipient",
          "type": "address"
        }
      ],
      "name": "burn",
      "outputs": [],
      "stateMutability": "nonpayable",
      "type": "function"
    },
    {
      "inputs": [],
      "name": "category",
      "outputs": [
        {
          "internalType": "uint256",
          "name": "",
          "type": "uint256"
        }
      ],
      "stateMutability": "view",
      "type": "function"
    },
    {
      "inputs": [],
      "name": "creditChargeDisabled",
      "outputs": [
        {
          "internalType": "bool",
          "name": "",
          "type": "bool"
        }
      ],
      "stateMutability": "view",
      "type": "function"
    },
    {
      "inputs": [],
      "name": "decimals",
      "outputs": [
        {
          "internalType": "uint8",
          "name": "",
          "type": "uint8"
        }
      ],
      "stateMutability": "view",
      "type": "function"
    },
    {
      "inputs": [],
      "name": "factory",
      "outputs": [
        {
          "internalType": "address",
          "name": "",
          "type": "address"
        }
      ],
      "stateMutability": "view",
      "type": "function"
    },
    {
      "inputs": [],
      "name": "getAssetCount",
      "outputs": [
        {
          "internalType": "uint256",
          "name": "",
          "type": "uint256"
        }
      ],
      "stateMutability": "view",
      "type": "function"
    },
    {
      "inputs": [],
      "name": "governor",
      "outputs": [
        {
          "internalType": "address",
          "name": "",
          "type": "address"
        }
      ],
      "stateMutability": "view",
      "type": "function"
    },
    {
      "inputs": [
        {
          "internalType": "uint8",
          "name": "_topN",
          "type": "uint8"
        },
        {
          "internalType": "uint256",
          "name": "_category",
          "type": "uint256"
        },
        {
          "internalType": "uint256",
          "name": "_snapshot",
          "type": "uint256"
        },
        {
          "internalType": "address[]",
          "name": "_assets",
          "type": "address[]"
        },
        {
          "internalType": "uint256[]",
          "name": "_capitalizations",
          "type": "uint256[]"
        },
        {
          "internalType": "uint256",
          "name": "_totalCapitalization",
          "type": "uint256"
        },
        {
          "internalType": "address",
          "name": "_governor",
          "type": "address"
        }
      ],
      "name": "initialize",
      "outputs": [],
      "stateMutability": "nonpayable",
      "type": "function"
    },
    {
      "inputs": [
        {
          "internalType": "address",
          "name": "_recipient",
          "type": "address"
        }
      ],
      "name": "mint",
      "outputs": [],
      "stateMutability": "nonpayable",
      "type": "function"
    },
    {
      "inputs": [],
      "name": "name",
      "outputs": [
        {
          "internalType": "string",
          "name": "",
          "type": "string"
        }
      ],
      "stateMutability": "view",
      "type": "function"
    },
    {
      "inputs": [
        {
          "internalType": "address",
          "name": "",
          "type": "address"
        }
      ],
      "name": "nonces",
      "outputs": [
        {
          "internalType": "uint256",
          "name": "",
          "type": "uint256"
        }
      ],
      "stateMutability": "view",
      "type": "function"
    },
    {
      "inputs": [
        {
          "internalType": "address",
          "name": "owner",
          "type": "address"
        },
        {
          "internalType": "address",
          "name": "spender",
          "type": "address"
        },
        {
          "internalType": "uint256",
          "name": "value",
          "type": "uint256"
        },
        {
          "internalType": "uint256",
          "name": "deadline",
          "type": "uint256"
        },
        {
          "internalType": "uint8",
          "name": "v",
          "type": "uint8"
        },
        {
          "internalType": "bytes32",
          "name": "r",
          "type": "bytes32"
        },
        {
          "internalType": "bytes32",
          "name": "s",
          "type": "bytes32"
        }
      ],
      "name": "permit",
      "outputs": [],
      "stateMutability": "nonpayable",
      "type": "function"
    },
    {
      "inputs": [],
      "name": "registry",
      "outputs": [
        {
          "internalType": "address",
          "name": "",
          "type": "address"
        }
      ],
      "stateMutability": "view",
      "type": "function"
    },
    {
      "inputs": [],
      "name": "reweight",
      "outputs": [],
      "stateMutability": "nonpayable",
      "type": "function"
    },
    {
      "inputs": [
        {
          "internalType": "bool",
          "name": "_disabled",
          "type": "bool"
        }
      ],
      "name": "setCreditChargeDisabled",
      "outputs": [],
      "stateMutability": "nonpayable",
      "type": "function"
    },
    {
      "inputs": [
        {
          "internalType": "address",
          "name": "_governor",
          "type": "address"
        }
      ],
      "name": "setGovernor",
      "outputs": [],
      "stateMutability": "nonpayable",
      "type": "function"
    },
    {
      "inputs": [
        {
          "internalType": "bytes4",
          "name": "interfaceId",
          "type": "bytes4"
        }
      ],
      "name": "supportsInterface",
      "outputs": [
        {
          "internalType": "bool",
          "name": "",
          "type": "bool"
        }
      ],
      "stateMutability": "view",
      "type": "function"
    },
    {
      "inputs": [],
      "name": "symbol",
      "outputs": [
        {
          "internalType": "string",
          "name": "",
          "type": "string"
        }
      ],
      "stateMutability": "view",
      "type": "function"
    },
    {
      "inputs": [],
      "name": "topN",
      "outputs": [
        {
          "internalType": "uint8",
          "name": "",
          "type": "uint8"
        }
      ],
      "stateMutability": "view",
      "type": "function"
    },
    {
      "inputs": [],
      "name": "totalSupply",
      "outputs": [
        {
          "internalType": "uint256",
          "name": "",
          "type": "uint256"
        }
      ],
      "stateMutability": "view",
      "type": "function"
    },
    {
      "inputs": [
        {
          "internalType": "address",
          "name": "to",
          "type": "address"
        },
        {
          "internalType": "uint256",
          "name": "value",
          "type": "uint256"
        }
      ],
      "name": "transfer",
      "outputs": [
        {
          "internalType": "bool",
          "name": "",
          "type": "bool"
        }
      ],
      "stateMutability": "nonpayable",
      "type": "function"
    },
    {
      "inputs": [
        {
          "internalType": "address",
          "name": "from",
          "type": "address"
        },
        {
          "internalType": "address",
          "name": "to",
          "type": "address"
        },
        {
          "internalType": "uint256",
          "name": "value",
          "type": "uint256"
        }
      ],
      "name": "transferFrom",
      "outputs": [
        {
          "internalType": "bool",
          "name": "",
          "type": "bool"
        }
      ],
      "stateMutability": "nonpayable",
      "type": "function"
    },
    {
      "inputs": [],
      "name": "vTokenFactory",
      "outputs": [
        {
          "internalType": "address",
          "name": "",
          "type": "address"
        }
      ],
      "stateMutability": "view",
      "type": "function"
    }
  ],
  "bytecode": "0x60e06040526000805461ff0019166112001790553480156200002057600080fd5b50600160055533606081901b6080524260065560408051637b10399960e01b8152905182918291637b10399991600480820192602092909190829003018186803b1580156200006e57600080fd5b505afa15801562000083573d6000803e3d6000fd5b505050506040513d601f19601f82011682018060405250810190620000a9919062000153565b6001600160a01b031660c0816001600160a01b031660601b81525050806001600160a01b03166328dd99126040518163ffffffff1660e01b815260040160206040518083038186803b158015620000ff57600080fd5b505afa15801562000114573d6000803e3d6000fd5b505050506040513d601f19601f820116820180604052508101906200013a919062000153565b60601b6001600160601b03191660a05250620001859050565b6000602082840312156200016657600080fd5b81516001600160a01b03811681146200017e57600080fd5b9392505050565b60805160601c60a05160601c60c05160601c613d46620002666000396000818161032f015281816104b701528181610853015281816108f101528181610a2801528181611056015281816110fd015281816114d0015281816118ed01528181611e2401528181611ef70152818161205a01528181612111015281816124f301528181612820015281816128c50152612ced01526000818161025f01528181610bed0152818161123b015281816116e201526121e50152600081816103da015281816113a30152818161254c01528181612e5f0152612ebc0152613d466000f3fe608060405234801561001057600080fd5b506004361061019a5760003560e01c80637ecebe00116100e4578063c42cf53511610092578063c42cf535146103c2578063c45a0155146103d5578063d505accf146103fc578063dc18ed261461040f578063dd62ed3e14610424578063ee9fd31c1461044f578063ef430aa61461045c578063f6abc84c1461046557600080fd5b80637ecebe0014610351578063849feb6b1461037157806389afcb441461037957806395d89b411461038c578063a0aead4d14610394578063a9059cbb1461039c578063c044d704146103af57600080fd5b806328dd99121161014c57806328dd99121461025a57806330adf81f14610281578063313ce567146102a85780633644e515146102cc57806361623874146102d45780636a627842146102f757806370a082311461030a5780637b1039991461032a57600080fd5b806301ffc9a71461019f57806306fdde03146101c7578063095ea7b3146101dc5780630c340a24146101ef57806318160ddd1461020f5780631a7bc0131461022657806323b872dd14610247575b600080fd5b6101b26101ad366004613581565b610472565b60405190151581526020015b60405180910390f35b6101cf61049d565b6040516101be919061396f565b6101b26101ea36600461351b565b610545565b600754610202906001600160a01b031681565b6040516101be91906138a4565b61021860015481565b6040519081526020016101be565b6102396102343660046137af565b61055b565b6040516101be9291906138d1565b6101b261025536600461346c565b6106f8565b6102027f000000000000000000000000000000000000000000000000000000000000000081565b6102187f6e71edae12b1b97f4d1f60370fef10105fa2faae0126114a169c64845d6126c981565b6000546102ba90610100900460ff1681565b60405160ff90911681526020016101be565b610218610772565b6102f56102e2366004613547565b6000805460ff1916911515919091179055565b005b6102f56103053660046133f9565b61081b565b6102186103183660046133f9565b60026020526000908152604090205481565b6102027f000000000000000000000000000000000000000000000000000000000000000081565b61021861035f3660046133f9565b60046020526000908152604090205481565b6102f561101d565b6102f56103873660046133f9565b611dad565b6101cf6124d9565b610218612528565b6101b26103aa36600461351b565b612534565b6102f56103bd3660046137f5565b612541565b6102f56103d03660046133f9565b6127e7565b6102027f000000000000000000000000000000000000000000000000000000000000000081565b6102f561040a3660046134ad565b612a17565b610218600080516020613cb183398151915281565b610218610432366004613433565b600360209081526000928352604080842090915290825290205481565b600b546102ba9060ff1681565b610218600c5481565b6000546101b29060ff1681565b60006001600160e01b031982166312f93e0760e31b1480610497575061049782612c33565b92915050565b60405163ed3b559f60e01b81526060906001600160a01b037f0000000000000000000000000000000000000000000000000000000000000000169063ed3b559f906104ec9030906004016138a4565b60006040518083038186803b15801561050457600080fd5b505afa158015610518573d6000803e3d6000fd5b505050506040513d6000823e601f3d908101601f1916820160405261054091908101906135ab565b905090565b6000610552338484612c58565b50600192915050565b6060806105686008612cba565b8410156105925761058d8461057d6008612cba565b6105879190613b97565b84612cc4565b610595565b60005b6001600160401b038111156105ac576105ac613c74565b6040519080825280602002602001820160405280156105d5578160200160208202803683370190505b50915081516001600160401b038111156105f1576105f1613c74565b60405190808252806020026020018201604052801561061a578160200160208202803683370190505b50905060005b82518110156106f05761063e6106368287613b19565b600890612cdc565b83828151811061065057610650613c5e565b60200260200101906001600160a01b031690816001600160a01b031681525050600a600084838151811061068657610686613c5e565b60200260200101516001600160a01b03166001600160a01b0316815260200190815260200160002060009054906101000a900460ff168282815181106106ce576106ce613c5e565b60ff909216602092830291909101909101526106e981613c01565b9050610620565b509250929050565b6001600160a01b03831660009081526003602090815260408083203384529091528120546000191461075d576001600160a01b038416600090815260036020908152604080832033845290915281208054849290610757908490613b97565b90915550505b610768848484612ce8565b5060019392505050565b60007f8b73c3c69bb8fe3d512ecc4cf759cc79239f7b179b0ffacaa9a75d522b39400f61079d61049d565b805160209182012060408051808201825260018152603160f81b90840152805192830193909352918101919091527fc89efdaa54c0f20c7adf612882df0950f5a951637e0307cdcb4c672f298b8bc660608201524660808201523060a082015260c00160405160208183030381529060405280519060200120905090565b600260055414156108475760405162461bcd60e51b815260040161083e90613a1e565b60405180910390fd5b600260058190555060007f00000000000000000000000000000000000000000000000000000000000000006001600160a01b031663ae2e933b6040518163ffffffff1660e01b815260040160206040518083038186803b1580156108aa57600080fd5b505afa1580156108be573d6000803e3d6000fd5b505050506040513d601f19601f820116820180604052508101906108e29190613416565b90506108ed81612d91565b60007f00000000000000000000000000000000000000000000000000000000000000006001600160a01b0316632630c12f6040518163ffffffff1660e01b815260040160206040518083038186803b15801561094857600080fd5b505afa15801561095c573d6000803e3d6000fd5b505050506040513d601f19601f820116820180604052508101906109809190613416565b90506000826001600160a01b0316635ad88c1a306040518263ffffffff1660e01b81526004016109b091906138a4565b60206040518083038186803b1580156109c857600080fd5b505afa1580156109dc573d6000803e3d6000fd5b505050506040513d601f19601f82011682018060405250810190610a009190613772565b61ffff1690506000600019815b610a176008612cba565b811015610f6b576001600160a01b037f0000000000000000000000000000000000000000000000000000000000000000166391d14854600080516020613cd1833981519152610a67600885612cdc565b6040518363ffffffff1660e01b8152600401610a84929190613958565b60206040518083038186803b158015610a9c57600080fd5b505afa158015610ab0573d6000803e3d6000fd5b505050506040513d601f19601f82011682018060405250810190610ad49190613564565b610b205760405162461bcd60e51b815260206004820152601f60248201527f4261736544796e616d6963496e6465783a20494e56414c49445f415353455400604482015260640161083e565b600a6000610b2f600884612cdc565b6001600160a01b0316815260208101919091526040016000205460ff16610b5557610f5b565b60006001600160a01b03861663da0449be610b71600885612cdc565b6040518263ffffffff1660e01b8152600401610b8d91906138a4565b602060405180830381600087803b158015610ba757600080fd5b505af1158015610bbb573d6000803e3d6000fd5b505050506040513d601f19601f82011682018060405250810190610bdf9190613796565b905060006001600160a01b037f00000000000000000000000000000000000000000000000000000000000000001663af86dd46610c1d600886612cdc565b600080516020613cb18339815191526040518363ffffffff1660e01b8152600401610c499291906138b8565b602060405180830381600087803b158015610c6357600080fd5b505af1158015610c77573d6000803e3d6000fd5b505050506040513d601f19601f82011682018060405250810190610c9b9190613416565b90506000816001600160a01b0316638f1c56bd6040518163ffffffff1660e01b815260040160206040518083038186803b158015610cd857600080fd5b505afa158015610cec573d6000803e3d6000fd5b505050506040513d601f19601f82011682018060405250810190610d109190613796565b610d1b600886612cdc565b6001600160a01b03166370a08231846040518263ffffffff1660e01b8152600401610d4691906138a4565b60206040518083038186803b158015610d5e57600080fd5b505afa158015610d72573d6000803e3d6000fd5b505050506040513d601f19601f82011682018060405250810190610d969190613796565b610da09190613b97565b90506000600a81610db2600888612cdc565b6001600160a01b03168152602081019190915260400160002054610dd99060ff1685613b78565b905060008160ff610dee600160701b86613b78565b610df89190613b78565b610e029190613b56565b905086811015610e10578096505b604051622f4f0f60ea1b81526000906001600160a01b0386169063bd3c3c0090610e3e9030906004016138a4565b60206040518083038186803b158015610e5657600080fd5b505afa158015610e6a573d6000803e3d6000fd5b505050506040513d601f19601f82011682018060405250810190610e8e9190613796565b9050846001600160a01b0316631249c58b6040518163ffffffff1660e01b8152600401602060405180830381600087803b158015610ecb57600080fd5b505af1158015610edf573d6000803e3d6000fd5b505050506040513d601f19601f82011682018060405250810190610f039190613796565b506000612710610f138c87613b78565b610f1d9190613b56565b610f279083613b19565b9050600087610f3a600160701b84613b78565b610f449190613b56565b9050610f50818c613b19565b9a5050505050505050505b610f6481613c01565b9050610a0d565b50600019811415610f7e57610f7e613c1c565b6000600154600014610fca5760008311610faa5760405162461bcd60e51b815260040161083e906139a2565b8260015483610fb99190613b78565b610fc39190613b56565b9050610fe5565b610fd661271083613b97565b9050610fe56000612710612eeb565b600081116110055760405162461bcd60e51b815260040161083e906139a2565b61100f8782612eeb565b505060016005555050505050565b604051632474521560e21b81527ff4730887401325e116e846d0e51948344682bbc6e090c5e5993a8025fb6a68b0906001600160a01b037f000000000000000000000000000000000000000000000000000000000000000016906391d148549061108d9084903390600401613958565b60206040518083038186803b1580156110a557600080fd5b505afa1580156110b9573d6000803e3d6000fd5b505050506040513d601f19601f820116820180604052508101906110dd9190613564565b6110f95760405162461bcd60e51b815260040161083e906139e7565b60007f00000000000000000000000000000000000000000000000000000000000000006001600160a01b0316632630c12f6040518163ffffffff1660e01b815260040160206040518083038186803b15801561115457600080fd5b505afa158015611168573d6000803e3d6000fd5b505050506040513d601f19601f8201168201806040525081019061118c9190613416565b90506000805b61119c6008612cba565b81101561139e5760006001600160a01b03841663da0449be6111bf600885612cdc565b6040518263ffffffff1660e01b81526004016111db91906138a4565b602060405180830381600087803b1580156111f557600080fd5b505af1158015611209573d6000803e3d6000fd5b505050506040513d601f19601f8201168201806040525081019061122d9190613796565b905060006001600160a01b037f00000000000000000000000000000000000000000000000000000000000000001663af86dd4661126b600886612cdc565b600080516020613cb18339815191526040518363ffffffff1660e01b81526004016112979291906138b8565b602060405180830381600087803b1580156112b157600080fd5b505af11580156112c5573d6000803e3d6000fd5b505050506040513d601f19601f820116820180604052508101906112e99190613416565b6001600160a01b03166306b3efd6306040518263ffffffff1660e01b815260040161131491906138a4565b60206040518083038186803b15801561132c57600080fd5b505afa158015611340573d6000803e3d6000fd5b505050506040513d601f19601f820116820180604052508101906113649190613796565b905081611375600160701b83613b78565b61137f9190613b56565b6113899085613b19565b935050508061139790613c01565b9050611192565b5060007f00000000000000000000000000000000000000000000000000000000000000006001600160a01b031663673864f96040518163ffffffff1660e01b815260040160206040518083038186803b1580156113fa57600080fd5b505afa15801561140e573d6000803e3d6000fd5b505050506040513d601f19601f820116820180604052508101906114329190613416565b600c54600d54600b5460405163225193ad60e01b81526004810193909352602483019190915260ff1660448201526001600160a01b03919091169063225193ad9060640160006040518083038186803b15801561148e57600080fd5b505afa1580156114a2573d6000803e3d6000fd5b505050506040513d6000823e601f3d908101601f191682016040526114ca919081019061363e565b905060007f00000000000000000000000000000000000000000000000000000000000000006001600160a01b031663628cf32f6040518163ffffffff1660e01b815260040160206040518083038186803b15801561152757600080fd5b505afa15801561153b573d6000803e3d6000fd5b505050506040513d601f19601f8201168201806040525081019061155f9190613416565b90506000816001600160a01b031663f5c609e06040518163ffffffff1660e01b8152600401602060405180830381600087803b15801561159e57600080fd5b505af11580156115b2573d6000803e3d6000fd5b505050506040513d601f19601f820116820180604052508101906115d69190613796565b60408051606081019091526000808252600b5492935091602082019060ff166001600160401b0381111561160c5761160c613c74565b604051908082528060200260200182016040528015611635578160200160208202803683370190505b508152600b5460209091019060ff166001600160401b0381111561165b5761165b613c74565b604051908082528060200260200182016040528015611684578160200160208202803683370190505b509052905060005b8460400151811015611d5c57600081600187604001516116ac9190613b97565b6116b69190613b97565b90506000866060015182815181106116d0576116d0613c5e565b602002602001015160000151905060007f00000000000000000000000000000000000000000000000000000000000000006001600160a01b031663af86dd4683600080516020613cb18339815191526040518363ffffffff1660e01b815260040161173c9291906138b8565b602060405180830381600087803b15801561175657600080fd5b505af115801561176a573d6000803e3d6000fd5b505050506040513d601f19601f8201168201806040525081019061178e9190613416565b9050876060015183815181106117a6576117a6613c5e565b602002602001015160200151156118d6576040516370a0823160e01b81526000906001600160a01b038316906370a08231906117e69030906004016138a4565b60206040518083038186803b1580156117fe57600080fd5b505afa158015611812573d6000803e3d6000fd5b505050506040513d601f19601f820116820180604052508101906118369190613796565b905080156118a45760405163263b761f60e21b81526001600160a01b038916906398edd87c90611871908a9087908690600090600401613a55565b600060405180830381600087803b15801561188b57600080fd5b505af115801561189f573d6000803e3d6000fd5b505050505b6001600160a01b0383166000908152600a60205260409020805460ff191690556118cf600884612f65565b5050611d48565b604051632474521560e21b81526001600160a01b037f000000000000000000000000000000000000000000000000000000000000000016906391d148549061193290600080516020613cd1833981519152908690600401613958565b60206040518083038186803b15801561194a57600080fd5b505afa15801561195e573d6000803e3d6000fd5b505050506040513d601f19601f820116820180604052508101906119829190613564565b6119d85760405162461bcd60e51b815260206004820152602160248201527f546f704e4d61726b6574436170496e6465783a20494e56414c49445f415353456044820152601560fa1b606482015260840161083e565b6000836119f35785516119ec9060ff613bae565b9050611a35565b886020015160ff80168a606001518681518110611a1257611a12613c5e565b602002602001015160400151611a289190613b78565b611a329190613b56565b90505b6001600160a01b0383166000908152600a60205260409020805460ff191660ff8316179055855181908790611a6b908390613b31565b60ff169052506020860151805184919086908110611a8b57611a8b613c5e565b60200260200101906001600160a01b031690816001600160a01b0316815250508086604001518581518110611ac257611ac2613c5e565b60ff9283166020918202929092010152811615611aea57611ae4600884612f7a565b50611af7565b611af5600884612f65565b505b50604051636d0224df60e11b81526000906001600160a01b038c169063da0449be90611b279086906004016138a4565b602060405180830381600087803b158015611b4157600080fd5b505af1158015611b55573d6000803e3d6000fd5b505050506040513d601f19601f82011682018060405250810190611b799190613796565b6001600160a01b0384166000908152600a602052604081205491925090600160701b90839060ff90611bad9082168f613b78565b611bb79190613b56565b611bc19190613b78565b611bcb9190613b56565b9050600080846001600160a01b031663cbbedf1630856040518363ffffffff1660e01b8152600401611bfe9291906138b8565b604080518083038186803b158015611c1557600080fd5b505afa158015611c29573d6000803e3d6000fd5b505050506040513d601f19601f82011682018060405250810190611c4d91906137d1565b9150915080821115611ccc576001600160a01b038b166398edd87c8b88611c748587613b97565b60016040518563ffffffff1660e01b8152600401611c959493929190613a55565b600060405180830381600087803b158015611caf57600080fd5b505af1158015611cc3573d6000803e3d6000fd5b50505050611d43565b81811115611d43576001600160a01b038b166398edd87c8b88611cef8686613b97565b60006040518563ffffffff1660e01b8152600401611d109493929190613a55565b600060405180830381600087803b158015611d2a57600080fd5b505af1158015611d3e573d6000803e3d6000fd5b505050505b505050505b50505080611d5590613c01565b905061168c565b508351600d55602081015160408083015190517ff7a52f24d20b038b2ecfdb7a08e7d847016833c370e38b3b59677783ee4718cb92611d9c9290916138d1565b60405180910390a150505050505050565b60026005541415611dd05760405162461bcd60e51b815260040161083e90613a1e565b60026005819055306000908152602091909152604090205480611e055760405162461bcd60e51b815260040161083e906139a2565b6000805b611e136008612cba565b811015611eed576001600160a01b037f0000000000000000000000000000000000000000000000000000000000000000166391d14854600080516020613cd1833981519152611e63600885612cdc565b6040518363ffffffff1660e01b8152600401611e80929190613958565b60206040518083038186803b158015611e9857600080fd5b505afa158015611eac573d6000803e3d6000fd5b505050506040513d601f19601f82011682018060405250810190611ed09190613564565b611edd5760019150611eed565b611ee681613c01565b9050611e09565b50806120565760007f00000000000000000000000000000000000000000000000000000000000000006001600160a01b031663ae2e933b6040518163ffffffff1660e01b815260040160206040518083038186803b158015611f4e57600080fd5b505afa158015611f62573d6000803e3d6000fd5b505050506040513d601f19601f82011682018060405250810190611f869190613416565b9050600061271061ffff1684836001600160a01b031663a7853436306040518263ffffffff1660e01b8152600401611fbe91906138a4565b60206040518083038186803b158015611fd657600080fd5b505afa158015611fea573d6000803e3d6000fd5b505050506040513d601f19601f8201168201806040525081019061200e9190613772565b61ffff1661201c9190613b78565b6120269190613b56565b9050801561204a57612039308383612ce8565b6120438185613b97565b9350612053565b61205382612d91565b50505b60007f00000000000000000000000000000000000000000000000000000000000000006001600160a01b031663628cf32f6040518163ffffffff1660e01b815260040160206040518083038186803b1580156120b157600080fd5b505afa1580156120c5573d6000803e3d6000fd5b505050506040513d601f19601f820116820180604052508101906120e99190613416565b905060005b6120f86008612cba565b8110156124c3578280156121cf57506001600160a01b037f0000000000000000000000000000000000000000000000000000000000000000166391d148547f4963dcfd342c3f63bd1b992afc723ae72706277470d47567f30dfc6dcee9f11e612162600885612cdc565b6040518363ffffffff1660e01b815260040161217f929190613958565b60206040518083038186803b15801561219757600080fd5b505afa1580156121ab573d6000803e3d6000fd5b505050506040513d601f19601f820116820180604052508101906121cf9190613564565b156121d9576124b3565b60006001600160a01b037f00000000000000000000000000000000000000000000000000000000000000001663af86dd46612215600885612cdc565b600080516020613cb18339815191526040518363ffffffff1660e01b81526004016122419291906138b8565b602060405180830381600087803b15801561225b57600080fd5b505af115801561226f573d6000803e3d6000fd5b505050506040513d601f19601f820116820180604052508101906122939190613416565b90506000816001600160a01b03166370a08231306040518263ffffffff1660e01b81526004016122c391906138a4565b60206040518083038186803b1580156122db57600080fd5b505afa1580156122ef573d6000803e3d6000fd5b505050506040513d601f19601f820116820180604052508101906123139190613796565b9050600060015482886123269190613b78565b6123309190613b56565b90508061233f575050506124b3565b60405163a9059cbb60e01b81526001600160a01b0384169063a9059cbb9061236d90869085906004016138b8565b600060405180830381600087803b15801561238757600080fd5b505af115801561239b573d6000803e3d6000fd5b505060405163226bf2d160e21b81526001600160a01b03861692506389afcb4491506123cb908b906004016138a4565b602060405180830381600087803b1580156123e557600080fd5b505af11580156123f9573d6000803e3d6000fd5b505050506040513d601f19601f8201168201806040525081019061241d9190613796565b506001600160a01b03851663cabfb7e3612438600887612cdc565b896001546124469190613b97565b6001546040516001600160e01b031960e086901b1681526001600160a01b03909316600484015260248301919091526044820152606401600060405180830381600087803b15801561249757600080fd5b505af11580156124ab573d6000803e3d6000fd5b505050505050505b6124bc81613c01565b90506120ee565b506124ce3084612f8f565b505060016005555050565b60405163554f94ab60e01b81526060906001600160a01b037f0000000000000000000000000000000000000000000000000000000000000000169063554f94ab906104ec9030906004016138a4565b60006105406008612cba565b6000610552338484612ce8565b336001600160a01b037f000000000000000000000000000000000000000000000000000000000000000016146125b95760405162461bcd60e51b815260206004820152601d60248201527f546f704e4d61726b6574436170496e6465783a20464f5242494444454e000000604482015260640161083e565b600080866001600160401b038111156125d4576125d4613c74565b6040519080825280602002602001820160405280156125fd578160200160208202803683370190505b50905060005b878110156127635760008161261960018b613b97565b6126239190613b97565b905060008a8a8381811061263957612639613c5e565b905060200201602081019061264e91906133f9565b9050600082612669576126628660ff613bae565b905061269c565b8760ff8b8b8681811061267e5761267e613c5e565b9050602002013561268f9190613b78565b6126999190613b56565b90505b6001600160a01b0382166000818152600a60205260409020805460ff191660ff84161790556127085760405162461bcd60e51b8152602060048201526018602482015277546f704e4d61726b6574436170496e6465783a205a45524f60401b604482015260640161083e565b60ff81161561274f5761271c600883612f7a565b508085858151811061273057612730613c5e565b60ff9092166020928302919091019091015261274c8187613b31565b95505b5050508061275c90613c01565b9050612603565b50600d899055600c8a9055600b805460ff191660ff8d16179055600780546001600160a01b0319166001600160a01b0385161790557ff7a52f24d20b038b2ecfdb7a08e7d847016833c370e38b3b59677783ee4718cb6127c36008613001565b826040516127d29291906138d1565b60405180910390a15050505050505050505050565b604051632474521560e21b81527f1916b456004f332cd8a19679364ef4be668619658be72c17b7e86697c4ae0f16906001600160a01b037f000000000000000000000000000000000000000000000000000000000000000016906391d14854906128579084903390600401613958565b60206040518083038186803b15801561286f57600080fd5b505afa158015612883573d6000803e3d6000fd5b505050506040513d601f19601f820116820180604052508101906128a79190613564565b6128c35760405162461bcd60e51b815260040161083e906139e7565b7f00000000000000000000000000000000000000000000000000000000000000006001600160a01b031663ae2e933b6040518163ffffffff1660e01b815260040160206040518083038186803b15801561291c57600080fd5b505afa158015612930573d6000803e3d6000fd5b505050506040513d601f19601f820116820180604052508101906129549190613416565b6007546040516306b0e67560e01b81523060048201526001600160a01b03918216602482015284821660448201529116906306b0e67590606401600060405180830381600087803b1580156129a857600080fd5b505af11580156129bc573d6000803e3d6000fd5b5050600780546001600160a01b0319166001600160a01b03861617905550506040517fbce074c8369e26e70e1ae2f14fc944da352cfe6f52e2de9572f0c9942a24b7fc90612a0b9084906138a4565b60405180910390a15050565b42841015612a5f5760405162461bcd60e51b8152602060048201526015602482015274141a1d5d1d5c99515490cc8c0e8811561412549151605a1b604482015260640161083e565b6000612a69610772565b6001600160a01b038916600090815260046020526040812080547f6e71edae12b1b97f4d1f60370fef10105fa2faae0126114a169c64845d6126c9928c928c928c92909190612ab783613c01565b909155506040805160208101969096526001600160a01b0394851690860152929091166060840152608083015260a082015260c0810187905260e00160405160208183030381529060405280519060200120604051602001612b3092919061190160f01b81526002810192909252602282015260420190565b60408051601f198184030181528282528051602091820120600080855291840180845281905260ff88169284019290925260608301869052608083018590529092509060019060a0016020604051602081039080840390855afa158015612b9b573d6000803e3d6000fd5b5050604051601f1901519150506001600160a01b03811615801590612bd15750886001600160a01b0316816001600160a01b0316145b612c1d5760405162461bcd60e51b815260206004820152601f60248201527f5068757475726545524332303a20494e56414c49445f5349474e415455524500604482015260640161083e565b612c28898989612c58565b505050505050505050565b60006001600160e01b031982166326438a3d60e11b148061049757506104978261300e565b6001600160a01b0383811660008181526003602090815260408083209487168084529482529182902085905590518481527f8c5be1e5ebec7d5bd14f71427d1e84f3dd0314c0f7b2291e5b200ac8c7c3b92591015b60405180910390a3505050565b6000610497825490565b6000818310612cd35781612cd5565b825b9392505050565b6000612cd58383613032565b612d817f00000000000000000000000000000000000000000000000000000000000000006001600160a01b031663ae2e933b6040518163ffffffff1660e01b815260040160206040518083038186803b158015612d4457600080fd5b505afa158015612d58573d6000803e3d6000fd5b505050506040513d601f19601f82011682018060405250810190612d7c9190613416565b612d91565b612d8c83838361305c565b505050565b600060065442612da19190613b97565b90508015612ee75760006b033b2e3c9fd0803ce800000080612e4b856001600160a01b0316635612e00b306040518263ffffffff1660e01b8152600401612de891906138a4565b60206040518083038186803b158015612e0057600080fd5b505afa158015612e14573d6000803e3d6000fd5b505050506040513d601f19601f82011682018060405250810190612e389190613796565b856b033b2e3c9fd0803ce80000006130eb565b612e559190613b97565b6001600160a01b037f000000000000000000000000000000000000000000000000000000000000000016600090815260026020526040902054600154612e9b9190613b97565b612ea59190613b78565b612eaf9190613b56565b90508015612d8c57612ee17f000000000000000000000000000000000000000000000000000000000000000082612eeb565b42600655505b5050565b6001600160a01b03821660009081526002602052604081208054839290612f13908490613b19565b925050819055508060016000828254612f2c9190613b19565b90915550506040518181526001600160a01b03831690600090600080516020613cf1833981519152906020015b60405180910390a35050565b6000612cd5836001600160a01b0384166131a9565b6000612cd5836001600160a01b03841661329c565b6001600160a01b03821660009081526002602052604081208054839290612fb7908490613b97565b925050819055508060016000828254612fd09190613b97565b90915550506040518181526000906001600160a01b03841690600080516020613cf183398151915290602001612f59565b60606000612cd5836132eb565b60006001600160e01b031982166294bc9560e51b1480610497575061049782613347565b600082600001828154811061304957613049613c5e565b9060005260206000200154905092915050565b6001600160a01b03831660009081526002602052604081208054839290613084908490613b97565b90915550506001600160a01b038216600090815260026020526040812080548392906130b1908490613b19565b92505081905550816001600160a01b0316836001600160a01b0316600080516020613cf183398151915283604051612cad91815260200190565b600083801561318b576001841680156131065785925061310a565b8392505b50600283046002850494505b841561318557858602868782041461312d57600080fd5b8181018181101561313d57600080fd5b859004965050600185161561317a57858302838782041415871515161561316357600080fd5b8181018181101561317357600080fd5b8590049350505b600285049450613116565b506131a1565b83801561319b576000925061319f565b8392505b505b509392505050565b600081815260018301602052604081205480156132925760006131cd600183613b97565b85549091506000906131e190600190613b97565b905081811461324657600086600001828154811061320157613201613c5e565b906000526020600020015490508087600001848154811061322457613224613c5e565b6000918252602080832090910192909255918252600188019052604090208390555b855486908061325757613257613c48565b600190038181906000526020600020016000905590558560010160008681526020019081526020016000206000905560019350505050610497565b6000915050610497565b60008181526001830160205260408120546132e357508154600181810184556000848152602080822090930184905584548482528286019093526040902091909155610497565b506000610497565b60608160000180548060200260200160405190810160405280929190818152602001828054801561333b57602002820191906000526020600020905b815481526020019060010190808311613327575b50505050509050919050565b60006001600160e01b031982166301ffc9a760e01b148061337857506001600160e01b031982166336372b0760e01b145b8061049757506001600160e01b0319821663390c84e760e01b1492915050565b60008083601f8401126133aa57600080fd5b5081356001600160401b038111156133c157600080fd5b6020830191508360208260051b85010111156133dc57600080fd5b9250929050565b803560ff811681146133f457600080fd5b919050565b60006020828403121561340b57600080fd5b8135612cd581613c8a565b60006020828403121561342857600080fd5b8151612cd581613c8a565b6000806040838503121561344657600080fd5b823561345181613c8a565b9150602083013561346181613c8a565b809150509250929050565b60008060006060848603121561348157600080fd5b833561348c81613c8a565b9250602084013561349c81613c8a565b929592945050506040919091013590565b600080600080600080600060e0888a0312156134c857600080fd5b87356134d381613c8a565b965060208801356134e381613c8a565b955060408801359450606088013593506134ff608089016133e3565b925060a0880135915060c0880135905092959891949750929550565b6000806040838503121561352e57600080fd5b823561353981613c8a565b946020939093013593505050565b60006020828403121561355957600080fd5b8135612cd581613ca2565b60006020828403121561357657600080fd5b8151612cd581613ca2565b60006020828403121561359357600080fd5b81356001600160e01b031981168114612cd557600080fd5b6000602082840312156135bd57600080fd5b81516001600160401b03808211156135d457600080fd5b818401915084601f8301126135e857600080fd5b8151818111156135fa576135fa613c74565b61360d601f8201601f1916602001613ae9565b915080825285602082850101111561362457600080fd5b613635816020840160208601613bd1565b50949350505050565b6000602080838503121561365157600080fd5b82516001600160401b038082111561366857600080fd5b908401906080828703121561367c57600080fd5b613684613a9f565b82518152838301518482015260408084015181830152606080850151848111156136ad57600080fd5b80860195505088601f8601126136c257600080fd5b8451848111156136d4576136d4613c74565b6136e2878260051b01613ae9565b8181528781019550868801838302880189018c101561370057600080fd5b60009750875b8381101561375c5784828e03121561371c578889fd5b613724613ac7565b825161372f81613c8a565b8152828b015161373e81613ca2565b818c0152828701518782015288529689019690840190600101613706565b5050918401919091525090979650505050505050565b60006020828403121561378457600080fd5b815161ffff81168114612cd557600080fd5b6000602082840312156137a857600080fd5b5051919050565b600080604083850312156137c257600080fd5b50508035926020909101359150565b600080604083850312156137e457600080fd5b505080516020909101519092909150565b600080600080600080600080600060e08a8c03121561381357600080fd5b61381c8a6133e3565b985060208a0135975060408a0135965060608a01356001600160401b038082111561384657600080fd5b6138528d838e01613398565b909850965060808c013591508082111561386b57600080fd5b506138788c828d01613398565b90955093505060a08a0135915060c08a013561389381613c8a565b809150509295985092959850929598565b6001600160a01b0391909116815260200190565b6001600160a01b03929092168252602082015260400190565b604080825283519082018190526000906020906060840190828701845b828110156139135781516001600160a01b0316845292840192908401906001016138ee565b5050508381038285015284518082528583019183019060005b8181101561394b57835160ff168352928401929184019160010161392c565b5090979650505050505050565b9182526001600160a01b0316602082015260400190565b602081526000825180602084015261398e816040850160208701613bd1565b601f01601f19169190910160400192915050565b60208082526025908201527f4261736544796e616d6963496e6465783a20494e53554646494349454e545f416040820152641353d5539560da1b606082015260800190565b6020808252601b908201527f4261736544796e616d6963496e6465783a20464f5242494444454e0000000000604082015260600190565b6020808252601f908201527f5265656e7472616e637947756172643a207265656e7472616e742063616c6c00604082015260600190565b8481526001600160a01b0384166020820152604081018390526080810160028310613a9057634e487b7160e01b600052602160045260246000fd5b82606083015295945050505050565b604051608081016001600160401b0381118282101715613ac157613ac1613c74565b60405290565b604051606081016001600160401b0381118282101715613ac157613ac1613c74565b604051601f8201601f191681016001600160401b0381118282101715613b1157613b11613c74565b604052919050565b60008219821115613b2c57613b2c613c32565b500190565b600060ff821660ff84168060ff03821115613b4e57613b4e613c32565b019392505050565b600082613b7357634e487b7160e01b600052601260045260246000fd5b500490565b6000816000190483118215151615613b9257613b92613c32565b500290565b600082821015613ba957613ba9613c32565b500390565b600060ff821660ff841680821015613bc857613bc8613c32565b90039392505050565b60005b83811015613bec578181015183820152602001613bd4565b83811115613bfb576000848401525b50505050565b6000600019821415613c1557613c15613c32565b5060010190565b634e487b7160e01b600052600160045260246000fd5b634e487b7160e01b600052601160045260246000fd5b634e487b7160e01b600052603160045260246000fd5b634e487b7160e01b600052603260045260246000fd5b634e487b7160e01b600052604160045260246000fd5b6001600160a01b0381168114613c9f57600080fd5b50565b8015158114613c9f57600080fdfe8e7ab557453411baa0557b6b9366ce6b3deb7e655e18b37dac0905ba2af4c25b86d5cf0a6bdc8d859ba3bdc97043337c82a0e609035f378e419298b6a3e00ae6ddf252ad1be2c89b69c2b068fc378daa952ba7f163c4a11628f55a4df523b3efa264697066735822122037d2b0ba04825dd9969d889ec0c3d0dd4231204fbcf1dab72a1c5c7d0fd1a77364736f6c63430008070033",
  "linkReferences": {},
  "deployedLinkReferences": {}
}