{
  "_format": "hh-sol-artifact-1",
  "contractName": "TopNMarketCapIndexFactory",
  "sourceName": "contracts/TopNMarketCapIndexFactory.sol",
  "abi": [
    {
      "inputs": [
        {
          "internalType": "address",
          "name": "_registry",
          "type": "address"
        },
        {
          "internalType": "address",
          "name": "_vTokenFactory",
          "type": "address"
        },
        {
          "internalType": "address",
          "name": "_marketCapCategories",
          "type": "address"
        },
        {
          "internalType": "uint16",
          "name": "_defaultMintingFeeInBP",
          "type": "uint16"
        },
        {
          "internalType": "uint16",
          "name": "_defaultBurningFeeInBP",
          "type": "uint16"
        },
        {
          "internalType": "uint256",
          "name": "_defaultAUMScaledPerSecondsRate",
          "type": "uint256"
        },
        {
          "internalType": "uint16",
          "name": "_defaultGovernorFeePercentageInBP",
          "type": "uint16"
        },
        {
          "internalType": "address",
          "name": "_governorFactory",
          "type": "address"
        }
      ],
      "stateMutability": "nonpayable",
      "type": "constructor"
    },
    {
      "anonymous": false,
      "inputs": [
        {
          "indexed": true,
          "internalType": "address",
          "name": "account",
          "type": "address"
        },
        {
          "indexed": false,
          "internalType": "uint256",
          "name": "AUMScaledPerSecondsRate",
          "type": "uint256"
        }
      ],
      "name": "SetDefaultAUMScaledPerSecondsRate",
      "type": "event"
    },
    {
      "anonymous": false,
      "inputs": [
        {
          "indexed": true,
          "internalType": "address",
          "name": "account",
          "type": "address"
        },
        {
          "indexed": false,
          "internalType": "uint16",
          "name": "burningFeeInBP",
          "type": "uint16"
        }
      ],
      "name": "SetDefaultBurningFeeInBP",
      "type": "event"
    },
    {
      "anonymous": false,
      "inputs": [
        {
          "indexed": true,
          "internalType": "address",
          "name": "account",
          "type": "address"
        },
        {
          "indexed": false,
          "internalType": "uint16",
          "name": "defaultGovernorFeePercentageInBP",
          "type": "uint16"
        }
      ],
      "name": "SetDefaultGovernorFeePercentageInBP",
      "type": "event"
    },
    {
      "anonymous": false,
      "inputs": [
        {
          "indexed": true,
          "internalType": "address",
          "name": "account",
          "type": "address"
        },
        {
          "indexed": false,
          "internalType": "uint16",
          "name": "mintingFeeInBP",
          "type": "uint16"
        }
      ],
      "name": "SetDefaultMintingFeeInBP",
      "type": "event"
    },
    {
      "anonymous": false,
      "inputs": [
        {
          "indexed": true,
          "internalType": "address",
          "name": "account",
          "type": "address"
        },
        {
          "indexed": false,
          "internalType": "address",
          "name": "governorFactory",
          "type": "address"
        }
      ],
      "name": "SetGovernorFactory",
      "type": "event"
    },
    {
      "anonymous": false,
      "inputs": [
        {
          "indexed": false,
          "internalType": "address",
          "name": "index",
          "type": "address"
        },
        {
          "indexed": false,
          "internalType": "uint256",
          "name": "category",
          "type": "uint256"
        },
        {
          "indexed": false,
          "internalType": "uint256",
          "name": "topN",
          "type": "uint256"
        }
      ],
      "name": "TopNMarketCapIndexCreated",
      "type": "event"
    },
    {
      "inputs": [
        {
          "internalType": "uint256",
          "name": "_category",
          "type": "uint256"
        },
        {
          "internalType": "uint8",
          "name": "_topN",
          "type": "uint8"
        },
        {
          "components": [
            {
              "internalType": "string",
              "name": "name",
              "type": "string"
            },
            {
              "internalType": "string",
              "name": "symbol",
              "type": "string"
            }
          ],
          "internalType": "struct IIndexFactory.NameDetails",
          "name": "_nameDetails",
          "type": "tuple"
        }
      ],
      "name": "createIndex",
      "outputs": [
        {
          "internalType": "address",
          "name": "index",
          "type": "address"
        }
      ],
      "stateMutability": "nonpayable",
      "type": "function"
    },
    {
      "inputs": [],
      "name": "defaultAUMScaledPerSecondsRate",
      "outputs": [
        {
          "internalType": "uint256",
          "name": "",
          "type": "uint256"
        }
      ],
      "stateMutability": "view",
      "type": "function"
    },
    {
      "inputs": [],
      "name": "defaultBurningFeeInBP",
      "outputs": [
        {
          "internalType": "uint16",
          "name": "",
          "type": "uint16"
        }
      ],
      "stateMutability": "view",
      "type": "function"
    },
    {
      "inputs": [],
      "name": "defaultGovernorFeePercentageInBP",
      "outputs": [
        {
          "internalType": "uint16",
          "name": "",
          "type": "uint16"
        }
      ],
      "stateMutability": "view",
      "type": "function"
    },
    {
      "inputs": [],
      "name": "defaultMintingFeeInBP",
      "outputs": [
        {
          "internalType": "uint16",
          "name": "",
          "type": "uint16"
        }
      ],
      "stateMutability": "view",
      "type": "function"
    },
    {
      "inputs": [],
      "name": "governorFactory",
      "outputs": [
        {
          "internalType": "address",
          "name": "",
          "type": "address"
        }
      ],
      "stateMutability": "view",
      "type": "function"
    },
    {
      "inputs": [],
      "name": "marketCapCategories",
      "outputs": [
        {
          "internalType": "address",
          "name": "",
          "type": "address"
        }
      ],
      "stateMutability": "view",
      "type": "function"
    },
    {
      "inputs": [],
      "name": "maxAllowedTopN",
      "outputs": [
        {
          "internalType": "uint8",
          "name": "",
          "type": "uint8"
        }
      ],
      "stateMutability": "view",
      "type": "function"
    },
    {
      "inputs": [],
      "name": "registry",
      "outputs": [
        {
          "internalType": "address",
          "name": "",
          "type": "address"
        }
      ],
      "stateMutability": "view",
      "type": "function"
    },
    {
      "inputs": [
        {
          "internalType": "uint256",
          "name": "_AUMScaledPerSecondsRate",
          "type": "uint256"
        }
      ],
      "name": "setDefaultAUMScaledPerSecondsRate",
      "outputs": [],
      "stateMutability": "nonpayable",
      "type": "function"
    },
    {
      "inputs": [
        {
          "internalType": "uint16",
          "name": "_burningFeeInBP",
          "type": "uint16"
        }
      ],
      "name": "setDefaultBurningFeeInBP",
      "outputs": [],
      "stateMutability": "nonpayable",
      "type": "function"
    },
    {
      "inputs": [
        {
          "internalType": "uint16",
          "name": "_defaultGovernorFeePercentageInBP",
          "type": "uint16"
        }
      ],
      "name": "setDefaultGovernorFeePercentageInBP",
      "outputs": [],
      "stateMutability": "nonpayable",
      "type": "function"
    },
    {
      "inputs": [
        {
          "internalType": "uint16",
          "name": "_mintingFeeInBP",
          "type": "uint16"
        }
      ],
      "name": "setDefaultMintingFeeInBP",
      "outputs": [],
      "stateMutability": "nonpayable",
      "type": "function"
    },
    {
      "inputs": [
        {
          "internalType": "address",
          "name": "_governorFactory",
          "type": "address"
        }
      ],
      "name": "setGovernorFactory",
      "outputs": [],
      "stateMutability": "nonpayable",
      "type": "function"
    },
    {
      "inputs": [
        {
          "internalType": "address",
          "name": "_marketCapCategories",
          "type": "address"
        }
      ],
      "name": "setMarketCapCategories",
      "outputs": [],
      "stateMutability": "nonpayable",
      "type": "function"
    },
    {
      "inputs": [
        {
          "internalType": "uint8",
          "name": "_topN",
          "type": "uint8"
        }
      ],
      "name": "setMaxAllowedTopN",
      "outputs": [],
      "stateMutability": "nonpayable",
      "type": "function"
    },
    {
      "inputs": [],
      "name": "vTokenFactory",
      "outputs": [
        {
          "internalType": "address",
          "name": "",
          "type": "address"
        }
      ],
      "stateMutability": "view",
      "type": "function"
    },
    {
      "inputs": [
        {
          "internalType": "address",
          "name": "_index",
          "type": "address"
        }
      ],
      "name": "withdrawToFeePool",
      "outputs": [],
      "stateMutability": "nonpayable",
      "type": "function"
    }
  ],
  "bytecode": "0x60c06040523480156200001157600080fd5b5060405162005dff38038062005dff833981016040819052620000349162000106565b606097881b6001600160601b03199081166080529690971b90951660a0526000805461ffff94851663ffffffff1990911617620100009385169390930292909217909155600155600280546001600160b01b031916600160a01b92909416919091026001600160a01b031916929092176001600160a01b039384161790915560038054919092166001600160a81b031990911617600560a01b179055620001a5565b80516001600160a01b0381168114620000ee57600080fd5b919050565b805161ffff81168114620000ee57600080fd5b600080600080600080600080610100898b0312156200012457600080fd5b6200012f89620000d6565b97506200013f60208a01620000d6565b96506200014f60408a01620000d6565b95506200015f60608a01620000f3565b94506200016f60808a01620000f3565b935060a089015192506200018660c08a01620000f3565b91506200019660e08a01620000d6565b90509295985092959890939650565b60805160601c60a05160601c615bda620002256000396000610145015260008181610231015281816103160152818161042101528181610569015281816106a80152818161078e015281816108a9015281816109bc01528181610ade01528181610b8e01528181610f1d01528181611144015261132d0152615bda6000f3fe60806040523480156200001157600080fd5b50600436106200010a5760003560e01c8063673864f9116200009e578063673864f914620002175780637b103999146200022b5780637bcfdf5714620002535780639566a0671462000269578063a0e712ff1462000280578063b8f3b0cc1462000294578063c0bc4e2214620002ab578063c92e13e514620002c2578063cbf8ee6d14620002ea57600080fd5b80624ef300146200010f57806304eefc01146200012857806328dd9912146200013f57806329c5ee35146200017f57806334b0c18014620001965780633ac4838914620001af578063484f159914620001c65780634a8644d614620001dd5780634df716da1462000200575b600080fd5b62000126620001203660046200188d565b620002ff565b005b620001266200013936600462001867565b6200040a565b620001677f000000000000000000000000000000000000000000000000000000000000000081565b604051620001769190620019e0565b60405180910390f35b620001266200019036600462001867565b62000552565b620001a060015481565b60405190815260200162000176565b62000126620001c036600462001726565b62000691565b62000126620001d73660046200195c565b62000777565b600054620001ec9061ffff1681565b60405161ffff909116815260200162000176565b620001266200021136600462001726565b62000892565b60035462000167906001600160a01b031681565b620001677f000000000000000000000000000000000000000000000000000000000000000081565b600254620001ec90600160a01b900461ffff1681565b620001266200027a36600462001867565b620009a5565b60025462000167906001600160a01b031681565b62000167620002a5366004620018f9565b62000ada565b62000126620002bc36600462001726565b6200132b565b600354620002d790600160a01b900460ff1681565b60405160ff909116815260200162000176565b600054620001ec9062010000900461ffff1681565b604051632474521560e21b81526001600160a01b037f000000000000000000000000000000000000000000000000000000000000000016906391d14854906200035090600090339060040162001ae6565b60206040518083038186803b1580156200036957600080fd5b505afa1580156200037e573d6000803e3d6000fd5b505050506040513d601f19601f82011682018060405250810190620003a4919062001849565b620003cc5760405162461bcd60e51b8152600401620003c39062001b72565b60405180910390fd5b600181905560405181815233907f12b7f8762ddb0be7f5afebf56b26d515c762e50980b21b8542c4a759c8a80a7c906020015b60405180910390a250565b604051632474521560e21b81526001600160a01b037f000000000000000000000000000000000000000000000000000000000000000016906391d14854906200045b90600090339060040162001ae6565b60206040518083038186803b1580156200047457600080fd5b505afa15801562000489573d6000803e3d6000fd5b505050506040513d601f19601f82011682018060405250810190620004af919062001849565b620004ce5760405162461bcd60e51b8152600401620003c39062001b72565b8061271061ffff82161115620004f85760405162461bcd60e51b8152600401620003c39062001b3f565b6002805461ffff60a01b1916600160a01b61ffff85169081029190911790915560405190815233907fa685ff766ce74ebfb958e1c4eaa8af8895cb596cec22fadb26ab63c30455e253906020015b60405180910390a25050565b604051632474521560e21b81526001600160a01b037f000000000000000000000000000000000000000000000000000000000000000016906391d1485490620005a390600090339060040162001ae6565b60206040518083038186803b158015620005bc57600080fd5b505afa158015620005d1573d6000803e3d6000fd5b505050506040513d601f19601f82011682018060405250810190620005f7919062001849565b620006165760405162461bcd60e51b8152600401620003c39062001b72565b8061271061ffff82161115620006405760405162461bcd60e51b8152600401620003c39062001b3f565b6000805463ffff000019166201000061ffff85169081029190911790915560405190815233907fc86205904d5727f8eb133ce7801357ac55052c5a5623e5f507beca817d81e5869060200162000546565b604051632474521560e21b81526001600160a01b037f000000000000000000000000000000000000000000000000000000000000000016906391d1485490620006e290600090339060040162001ae6565b60206040518083038186803b158015620006fb57600080fd5b505afa15801562000710573d6000803e3d6000fd5b505050506040513d601f19601f8201168201806040525081019062000736919062001849565b620007555760405162461bcd60e51b8152600401620003c39062001b72565b600380546001600160a01b0319166001600160a01b0392909216919091179055565b604051632474521560e21b81526001600160a01b037f000000000000000000000000000000000000000000000000000000000000000016906391d1485490620007c890600090339060040162001ae6565b60206040518083038186803b158015620007e157600080fd5b505afa158015620007f6573d6000803e3d6000fd5b505050506040513d601f19601f820116820180604052508101906200081c919062001849565b6200083b5760405162461bcd60e51b8152600401620003c39062001b72565b60018160ff16118015620008535750600a8160ff1611155b620008725760405162461bcd60e51b8152600401620003c39062001afd565b6003805460ff909216600160a01b0260ff60a01b19909216919091179055565b604051632474521560e21b81526001600160a01b037f000000000000000000000000000000000000000000000000000000000000000016906391d1485490620008e390600090339060040162001ae6565b60206040518083038186803b158015620008fc57600080fd5b505afa15801562000911573d6000803e3d6000fd5b505050506040513d601f19601f8201168201806040525081019062000937919062001849565b620009565760405162461bcd60e51b8152600401620003c39062001b72565b600280546001600160a01b0319166001600160a01b03831617905560405133907f561050d83fc933d293599137acbcbaaa93e72a3a7548b7fbb5e174606ecbef9890620003ff908490620019e0565b604051632474521560e21b81526001600160a01b037f000000000000000000000000000000000000000000000000000000000000000016906391d1485490620009f690600090339060040162001ae6565b60206040518083038186803b15801562000a0f57600080fd5b505afa15801562000a24573d6000803e3d6000fd5b505050506040513d601f19601f8201168201806040525081019062000a4a919062001849565b62000a695760405162461bcd60e51b8152600401620003c39062001b72565b8061271061ffff8216111562000a935760405162461bcd60e51b8152600401620003c39062001b3f565b6000805461ffff191661ffff841690811790915560405190815233907f502c4a764681dfc2da50d1dbd5fe9ce39b4b772fcc1d42bc3e2d67972f1e823d9060200162000546565b60007f00000000000000000000000000000000000000000000000000000000000000006001600160a01b031663f036318d6040518163ffffffff1660e01b815260040160206040518083038186803b15801562000b3657600080fd5b505afa15801562000b4b573d6000803e3d6000fd5b505050506040513d601f19601f8201168201806040525081019062000b71919062001849565b1562000c5a57604051632474521560e21b81526001600160a01b037f000000000000000000000000000000000000000000000000000000000000000016906391d148549062000be7907fa579efb5fdf486e45c8efb358408689a5a4b3efb641062ea15e2378fab2e5eb890339060040162001ae6565b60206040518083038186803b15801562000c0057600080fd5b505afa15801562000c15573d6000803e3d6000fd5b505050506040513d601f19601f8201168201806040525081019062000c3b919062001849565b62000c5a5760405162461bcd60e51b8152600401620003c39062001b72565b60018360ff1611801562000c7e575060035460ff600160a01b909104811690841611155b62000c9d5760405162461bcd60e51b8152600401620003c39062001afd565b60035460405163253eca1f60e01b81526004810186905260009182916001600160a01b039091169063253eca1f9060240160606040518083038186803b15801562000ce757600080fd5b505afa15801562000cfc573d6000803e3d6000fd5b505050506040513d601f19601f8201168201806040525081019062000d229190620018c1565b92509250508162000d825760405162461bcd60e51b815260206004820152602360248201527f546f704e4d61726b6574436170496e646578466163746f72793a20444953414260448201526213115160ea1b6064820152608401620003c3565b600354604051637b7b153360e01b8152600481018890526024810183905260006044820181905260ff8816606483015291829182916001600160a01b031690637b7b15339060840160006040518083038186803b15801562000de357600080fd5b505afa15801562000df8573d6000803e3d6000fd5b505050506040513d6000823e601f3d908101601f1916820160405262000e22919081019062001766565b9250925092508760ff1683511462000e875760405162461bcd60e51b815260206004820152602160248201527f546f704e4d61726b6574436170496e646578466163746f72793a204c454e47546044820152600960fb1b6064820152608401620003c3565b6000898960405160200162000eb392919091825260f81b6001600160f81b031916602082015260210190565b60405160208183030381529060405280519060200120905062000f03816040518060200162000ee29062001676565b6020820181038252601f19601f82011660405250805190602001206200150b565b604051634a1d69f960e01b81529097506001600160a01b037f00000000000000000000000000000000000000000000000000000000000000001690634a1d69f99062000f56908a908c90600401620019f4565b600060405180830381600087803b15801562000f7157600080fd5b505af115801562000f86573d6000803e3d6000fd5b5050505062000fbc6000826040518060200162000fa39062001676565b601f1982820381018352601f909101166040526200156a565b50600254604051634260f56360e11b81526001600160a01b03898116600483015233602483015260009216906384c1eac690604401602060405180830381600087803b1580156200100c57600080fd5b505af115801562001021573d6000803e3d6000fd5b505050506040513d601f19601f8201168201806040525081019062001047919062001746565b6040805160028082526060820190925291925060009190816020015b60408051808201909152600080825260208201528152602001906001900390816200106357905050905060405180604001604052808a6001600160a01b03168152602001600260149054906101000a900461ffff16612710620010c7919062001cf3565b61ffff1681525081600081518110620010e457620010e462001d25565b60200260200101819052506040518060400160405280836001600160a01b03168152602001600260149054906101000a900461ffff1661ffff168152508160018151811062001137576200113762001d25565b60200260200101819052507f00000000000000000000000000000000000000000000000000000000000000006001600160a01b031663ae2e933b6040518163ffffffff1660e01b815260040160206040518083038186803b1580156200119c57600080fd5b505afa158015620011b1573d6000803e3d6000fd5b505050506040513d601f19601f82011682018060405250810190620011d7919062001746565b6000546001546040516319f6455f60e11b81526001600160a01b0393909316926333ec8abe926200121f928e9261ffff80841693620100009004169190889060040162001a61565b600060405180830381600087803b1580156200123a57600080fd5b505af11580156200124f573d6000803e3d6000fd5b50505050886001600160a01b031663c044d7048c8e8a8a8a8a896040518863ffffffff1660e01b81526004016200128d979695949392919062001ba9565b600060405180830381600087803b158015620012a857600080fd5b505af1158015620012bd573d6000803e3d6000fd5b505050507f455f33b414585821abc4be6a32741396b66f10e34bd515c030c44422d4159ee8898d8d60405162001314939291906001600160a01b03939093168352602083019190915260ff16604082015260600190565b60405180910390a150505050505050509392505050565b7f00000000000000000000000000000000000000000000000000000000000000006001600160a01b031663ae2e933b6040518163ffffffff1660e01b815260040160206040518083038186803b1580156200138557600080fd5b505afa1580156200139a573d6000803e3d6000fd5b505050506040513d601f19601f82011682018060405250810190620013c0919062001746565b6001600160a01b0316336001600160a01b031614620013f35760405162461bcd60e51b8152600401620003c39062001b72565b6040516370a0823160e01b81526000906001600160a01b038316906370a082319062001424903090600401620019e0565b60206040518083038186803b1580156200143d57600080fd5b505afa15801562001452573d6000803e3d6000fd5b505050506040513d601f19601f82011682018060405250810190620014789190620018a7565b90508015620015075760405163a9059cbb60e01b8152336004820152602481018290526001600160a01b0383169063a9059cbb90604401602060405180830381600087803b158015620014ca57600080fd5b505af1158015620014df573d6000803e3d6000fd5b505050506040513d601f19601f8201168201806040525081019062001505919062001849565b505b5050565b604080516001600160f81b03196020808301919091526bffffffffffffffffffffffff193060601b16602183015260358201859052605580830185905283518084039091018152607590920190925280519101206000905b9392505050565b60008084471015620015bf5760405162461bcd60e51b815260206004820152601d60248201527f437265617465323a20696e73756666696369656e742062616c616e63650000006044820152606401620003c3565b82516200160f5760405162461bcd60e51b815260206004820181905260248201527f437265617465323a2062797465636f6465206c656e677468206973207a65726f6044820152606401620003c3565b8383516020850187f590506001600160a01b0381166200166e5760405162461bcd60e51b8152602060048201526019602482015278437265617465323a204661696c6564206f6e206465706c6f7960381b6044820152606401620003c3565b949350505050565b613e3a8062001d6b83390190565b600082601f8301126200169657600080fd5b81516020620016af620016a98362001c7c565b62001c48565b80838252828201915082860187848660051b8901011115620016d057600080fd5b60005b85811015620016f157815184529284019290840190600101620016d3565b5090979650505050505050565b805180151581146200170f57600080fd5b919050565b803560ff811681146200170f57600080fd5b6000602082840312156200173957600080fd5b8135620015638162001d51565b6000602082840312156200175957600080fd5b8151620015638162001d51565b6000806000606084860312156200177c57600080fd5b835167ffffffffffffffff808211156200179557600080fd5b818601915086601f830112620017aa57600080fd5b81516020620017bd620016a98362001c7c565b8083825282820191508286018b848660051b8901011115620017de57600080fd5b600096505b848710156200180e578051620017f98162001d51565b835260019690960195918301918301620017e3565b50918901519197509093505050808211156200182957600080fd5b50620018388682870162001684565b925050604084015190509250925092565b6000602082840312156200185c57600080fd5b6200156382620016fe565b6000602082840312156200187a57600080fd5b813561ffff811681146200156357600080fd5b600060208284031215620018a057600080fd5b5035919050565b600060208284031215620018ba57600080fd5b5051919050565b600080600060608486031215620018d757600080fd5b83519250620018e960208501620016fe565b9150604084015190509250925092565b6000806000606084860312156200190f57600080fd5b83359250620019216020850162001714565b9150604084013567ffffffffffffffff8111156200193e57600080fd5b8401604081870312156200195157600080fd5b809150509250925092565b6000602082840312156200196f57600080fd5b620015638262001714565b600081518084526020808501945080840160005b83811015620019ac578151875295820195908201906001016200198e565b509495945050505050565b81835281816020850137506000828201602090810191909152601f909101601f19169091010190565b6001600160a01b0391909116815260200190565b6001600160a01b038316815260406020820152600062001a15838062001ca3565b60408085015262001a2b608085018284620019b7565b91505062001a3d602085018562001ca3565b848303603f1901606086015262001a56838284620019b7565b979650505050505050565b600060a0820160018060a01b038089168452602061ffff808a16828701526040818a168188015288606088015260a06080880152849150875180865260c088019250838901955060005b8181101562001ad457865180518716855285015185850152958401959282019260010162001aab565b50919c9b505050505050505050505050565b9182526001600160a01b0316602082015260400190565b60208082526022908201527f546f704e4d61726b6574436170496e646578466163746f72793a20494e56414c604082015261125160f21b606082015260800190565b60208082526019908201527810985cd9525b99195e119858dd1bdc9e4e8812539590531251603a1b604082015260600190565b6020808252601b908201527f42617365496e646578466163746f72793a20464f5242494444454e0000000000604082015260600190565b600060e0820160ff8a1683526020898185015288604085015260e0606085015281885180845261010086019150828a01935060005b8181101562001c055784516001600160a01b03168352938301939183019160010162001bde565b5050848103608086015262001c1b81896200197a565b93505050508360a083015262001c3c60c08301846001600160a01b03169052565b98975050505050505050565b604051601f8201601f1916810167ffffffffffffffff8111828210171562001c745762001c7462001d3b565b604052919050565b600067ffffffffffffffff82111562001c995762001c9962001d3b565b5060051b60200190565b6000808335601e1984360301811262001cbb57600080fd5b830160208101925035905067ffffffffffffffff81111562001cdc57600080fd5b80360383131562001cec57600080fd5b9250929050565b600061ffff8381169083168181101562001d1d57634e487b7160e01b600052601160045260246000fd5b039392505050565b634e487b7160e01b600052603260045260246000fd5b634e487b7160e01b600052604160045260246000fd5b6001600160a01b038116811462001d6757600080fd5b5056fe60e06040526000805460ff191660121790553480156200001e57600080fd5b50600160055533606081901b6080524260065560408051637b10399960e01b8152905182918291637b10399991600480820192602092909190829003018186803b1580156200006c57600080fd5b505afa15801562000081573d6000803e3d6000fd5b505050506040513d601f19601f82011682018060405250810190620000a7919062000151565b6001600160a01b031660c0816001600160a01b031660601b81525050806001600160a01b03166328dd99126040518163ffffffff1660e01b815260040160206040518083038186803b158015620000fd57600080fd5b505afa15801562000112573d6000803e3d6000fd5b505050506040513d601f19601f8201168201806040525081019062000138919062000151565b60601b6001600160601b03191660a05250620001839050565b6000602082840312156200016457600080fd5b81516001600160a01b03811681146200017c57600080fd5b9392505050565b60805160601c60a05160601c60c05160601c613bd662000264600039600081816102d901528181610429015281816107c6015281816108640152818161099b01528181610fc901528181611070015281816114430152818161186001528181611d9701528181611e6a01528181611fcd015281816120840152818161246601528181612793015281816128380152612c3b01526000818161022f01528181610b60015281816111ae01528181611655015261215801526000818161038401528181611316015281816124bf01528181612dad0152612e0a0152613bd66000f3fe608060405234801561001057600080fd5b50600436106101795760003560e01c80637ecebe00116100d9578063c42cf53511610087578063c42cf5351461036c578063c45a01551461037f578063d505accf146103a6578063dc18ed26146103b9578063dd62ed3e146103ce578063ee9fd31c146103f9578063ef430aa61461040657600080fd5b80637ecebe00146102fb578063849feb6b1461031b57806389afcb441461032357806395d89b4114610336578063a0aead4d1461033e578063a9059cbb14610346578063c044d7041461035957600080fd5b806328dd99121161013657806328dd99121461022a57806330adf81f14610251578063313ce567146102785780633644e515146102975780636a6278421461029f57806370a08231146102b45780637b103999146102d457600080fd5b806306fdde031461017e578063095ea7b31461019c5780630c340a24146101bf57806318160ddd146101df5780631a7bc013146101f657806323b872dd14610217575b600080fd5b61018661040f565b604051610193919061380d565b60405180910390f35b6101af6101aa366004613404565b6104b7565b6040519015158152602001610193565b6007546101d2906001600160a01b031681565b6040516101939190613742565b6101e860015481565b604051908152602001610193565b61020961020436600461364d565b6104ce565b60405161019392919061376f565b6101af610225366004613355565b61066b565b6101d27f000000000000000000000000000000000000000000000000000000000000000081565b6101e87f6e71edae12b1b97f4d1f60370fef10105fa2faae0126114a169c64845d6126c981565b6000546102859060ff1681565b60405160ff9091168152602001610193565b6101e86106e5565b6102b26102ad3660046132e2565b61078e565b005b6101e86102c23660046132e2565b60026020526000908152604090205481565b6101d27f000000000000000000000000000000000000000000000000000000000000000081565b6101e86103093660046132e2565b60046020526000908152604090205481565b6102b2610f90565b6102b26103313660046132e2565b611d20565b61018661244c565b6101e861249b565b6101af610354366004613404565b6124a7565b6102b2610367366004613693565b6124b4565b6102b261037a3660046132e2565b61275a565b6101d27f000000000000000000000000000000000000000000000000000000000000000081565b6102b26103b4366004613396565b61298a565b6101e8600080516020613b4183398151915281565b6101e86103dc36600461331c565b600360209081526000928352604080842090915290825290205481565b600b546102859060ff1681565b6101e8600c5481565b60405163ed3b559f60e01b81526060906001600160a01b037f0000000000000000000000000000000000000000000000000000000000000000169063ed3b559f9061045e903090600401613742565b60006040518083038186803b15801561047657600080fd5b505afa15801561048a573d6000803e3d6000fd5b505050506040513d6000823e601f3d908101601f191682016040526104b2919081019061344b565b905090565b60006104c4338484612ba6565b5060015b92915050565b6060806104db6008612c08565b84101561050557610500846104f06008612c08565b6104fa9190613a35565b84612c12565b610508565b60005b6001600160401b0381111561051f5761051f613b12565b604051908082528060200260200182016040528015610548578160200160208202803683370190505b50915081516001600160401b0381111561056457610564613b12565b60405190808252806020026020018201604052801561058d578160200160208202803683370190505b50905060005b8251811015610663576105b16105a982876139b7565b600890612c2a565b8382815181106105c3576105c3613afc565b60200260200101906001600160a01b031690816001600160a01b031681525050600a60008483815181106105f9576105f9613afc565b60200260200101516001600160a01b03166001600160a01b0316815260200190815260200160002060009054906101000a900460ff1682828151811061064157610641613afc565b60ff9092166020928302919091019091015261065c81613a9f565b9050610593565b509250929050565b6001600160a01b0383166000908152600360209081526040808320338452909152812054600019146106d0576001600160a01b0384166000908152600360209081526040808320338452909152812080548492906106ca908490613a35565b90915550505b6106db848484612c36565b5060019392505050565b60007f8b73c3c69bb8fe3d512ecc4cf759cc79239f7b179b0ffacaa9a75d522b39400f61071061040f565b805160209182012060408051808201825260018152603160f81b90840152805192830193909352918101919091527fc89efdaa54c0f20c7adf612882df0950f5a951637e0307cdcb4c672f298b8bc660608201524660808201523060a082015260c00160405160208183030381529060405280519060200120905090565b600260055414156107ba5760405162461bcd60e51b81526004016107b1906138bc565b60405180910390fd5b600260058190555060007f00000000000000000000000000000000000000000000000000000000000000006001600160a01b031663ae2e933b6040518163ffffffff1660e01b815260040160206040518083038186803b15801561081d57600080fd5b505afa158015610831573d6000803e3d6000fd5b505050506040513d601f19601f8201168201806040525081019061085591906132ff565b905061086081612cdf565b60007f00000000000000000000000000000000000000000000000000000000000000006001600160a01b0316632630c12f6040518163ffffffff1660e01b815260040160206040518083038186803b1580156108bb57600080fd5b505afa1580156108cf573d6000803e3d6000fd5b505050506040513d601f19601f820116820180604052508101906108f391906132ff565b90506000826001600160a01b0316635ad88c1a306040518263ffffffff1660e01b81526004016109239190613742565b60206040518083038186803b15801561093b57600080fd5b505afa15801561094f573d6000803e3d6000fd5b505050506040513d601f19601f820116820180604052508101906109739190613610565b61ffff1690506000600019815b61098a6008612c08565b811015610ede576001600160a01b037f0000000000000000000000000000000000000000000000000000000000000000166391d14854600080516020613b618339815191526109da600885612c2a565b6040518363ffffffff1660e01b81526004016109f79291906137f6565b60206040518083038186803b158015610a0f57600080fd5b505afa158015610a23573d6000803e3d6000fd5b505050506040513d601f19601f82011682018060405250810190610a479190613430565b610a935760405162461bcd60e51b815260206004820152601f60248201527f4261736544796e616d6963496e6465783a20494e56414c49445f41535345540060448201526064016107b1565b600a6000610aa2600884612c2a565b6001600160a01b0316815260208101919091526040016000205460ff16610ac857610ece565b60006001600160a01b03861663da0449be610ae4600885612c2a565b6040518263ffffffff1660e01b8152600401610b009190613742565b602060405180830381600087803b158015610b1a57600080fd5b505af1158015610b2e573d6000803e3d6000fd5b505050506040513d601f19601f82011682018060405250810190610b529190613634565b905060006001600160a01b037f00000000000000000000000000000000000000000000000000000000000000001663af86dd46610b90600886612c2a565b600080516020613b418339815191526040518363ffffffff1660e01b8152600401610bbc929190613756565b602060405180830381600087803b158015610bd657600080fd5b505af1158015610bea573d6000803e3d6000fd5b505050506040513d601f19601f82011682018060405250810190610c0e91906132ff565b90506000816001600160a01b0316638f1c56bd6040518163ffffffff1660e01b815260040160206040518083038186803b158015610c4b57600080fd5b505afa158015610c5f573d6000803e3d6000fd5b505050506040513d601f19601f82011682018060405250810190610c839190613634565b610c8e600886612c2a565b6001600160a01b03166370a08231846040518263ffffffff1660e01b8152600401610cb99190613742565b60206040518083038186803b158015610cd157600080fd5b505afa158015610ce5573d6000803e3d6000fd5b505050506040513d601f19601f82011682018060405250810190610d099190613634565b610d139190613a35565b90506000600a81610d25600888612c2a565b6001600160a01b03168152602081019190915260400160002054610d4c9060ff1685613a16565b905060008160ff610d61600160701b86613a16565b610d6b9190613a16565b610d7591906139f4565b905086811015610d83578096505b604051622f4f0f60ea1b81526000906001600160a01b0386169063bd3c3c0090610db1903090600401613742565b60206040518083038186803b158015610dc957600080fd5b505afa158015610ddd573d6000803e3d6000fd5b505050506040513d601f19601f82011682018060405250810190610e019190613634565b9050846001600160a01b0316631249c58b6040518163ffffffff1660e01b8152600401602060405180830381600087803b158015610e3e57600080fd5b505af1158015610e52573d6000803e3d6000fd5b505050506040513d601f19601f82011682018060405250810190610e769190613634565b506000612710610e868c87613a16565b610e9091906139f4565b610e9a90836139b7565b9050600087610ead600160701b84613a16565b610eb791906139f4565b9050610ec3818c6139b7565b9a5050505050505050505b610ed781613a9f565b9050610980565b50600019811415610ef157610ef1613aba565b6000600154600014610f3d5760008311610f1d5760405162461bcd60e51b81526004016107b190613840565b8260015483610f2c9190613a16565b610f3691906139f4565b9050610f58565b610f4961271083613a35565b9050610f586000612710612e39565b60008111610f785760405162461bcd60e51b81526004016107b190613840565b610f828782612e39565b505060016005555050505050565b604051632474521560e21b81527f21702c8af46127c7fa207f89d0b0a8441bb32959a0ac7df790e9ab1a25c98926906001600160a01b037f000000000000000000000000000000000000000000000000000000000000000016906391d148549061100090849033906004016137f6565b60206040518083038186803b15801561101857600080fd5b505afa15801561102c573d6000803e3d6000fd5b505050506040513d601f19601f820116820180604052508101906110509190613430565b61106c5760405162461bcd60e51b81526004016107b190613885565b60007f00000000000000000000000000000000000000000000000000000000000000006001600160a01b0316632630c12f6040518163ffffffff1660e01b815260040160206040518083038186803b1580156110c757600080fd5b505afa1580156110db573d6000803e3d6000fd5b505050506040513d601f19601f820116820180604052508101906110ff91906132ff565b90506000805b61110f6008612c08565b8110156113115760006001600160a01b03841663da0449be611132600885612c2a565b6040518263ffffffff1660e01b815260040161114e9190613742565b602060405180830381600087803b15801561116857600080fd5b505af115801561117c573d6000803e3d6000fd5b505050506040513d601f19601f820116820180604052508101906111a09190613634565b905060006001600160a01b037f00000000000000000000000000000000000000000000000000000000000000001663af86dd466111de600886612c2a565b600080516020613b418339815191526040518363ffffffff1660e01b815260040161120a929190613756565b602060405180830381600087803b15801561122457600080fd5b505af1158015611238573d6000803e3d6000fd5b505050506040513d601f19601f8201168201806040525081019061125c91906132ff565b6001600160a01b03166306b3efd6306040518263ffffffff1660e01b81526004016112879190613742565b60206040518083038186803b15801561129f57600080fd5b505afa1580156112b3573d6000803e3d6000fd5b505050506040513d601f19601f820116820180604052508101906112d79190613634565b9050816112e8600160701b83613a16565b6112f291906139f4565b6112fc90856139b7565b935050508061130a90613a9f565b9050611105565b5060007f00000000000000000000000000000000000000000000000000000000000000006001600160a01b031663673864f96040518163ffffffff1660e01b815260040160206040518083038186803b15801561136d57600080fd5b505afa158015611381573d6000803e3d6000fd5b505050506040513d601f19601f820116820180604052508101906113a591906132ff565b600c54600d54600b5460405163225193ad60e01b81526004810193909352602483019190915260ff1660448201526001600160a01b03919091169063225193ad9060640160006040518083038186803b15801561140157600080fd5b505afa158015611415573d6000803e3d6000fd5b505050506040513d6000823e601f3d908101601f1916820160405261143d91908101906134de565b905060007f00000000000000000000000000000000000000000000000000000000000000006001600160a01b031663628cf32f6040518163ffffffff1660e01b815260040160206040518083038186803b15801561149a57600080fd5b505afa1580156114ae573d6000803e3d6000fd5b505050506040513d601f19601f820116820180604052508101906114d291906132ff565b90506000816001600160a01b031663f5c609e06040518163ffffffff1660e01b8152600401602060405180830381600087803b15801561151157600080fd5b505af1158015611525573d6000803e3d6000fd5b505050506040513d601f19601f820116820180604052508101906115499190613634565b60408051606081019091526000808252600b5492935091602082019060ff166001600160401b0381111561157f5761157f613b12565b6040519080825280602002602001820160405280156115a8578160200160208202803683370190505b508152600b5460209091019060ff166001600160401b038111156115ce576115ce613b12565b6040519080825280602002602001820160405280156115f7578160200160208202803683370190505b509052905060005b8460400151811015611ccf576000816001876040015161161f9190613a35565b6116299190613a35565b905060008660600151828151811061164357611643613afc565b602002602001015160000151905060007f00000000000000000000000000000000000000000000000000000000000000006001600160a01b031663af86dd4683600080516020613b418339815191526040518363ffffffff1660e01b81526004016116af929190613756565b602060405180830381600087803b1580156116c957600080fd5b505af11580156116dd573d6000803e3d6000fd5b505050506040513d601f19601f8201168201806040525081019061170191906132ff565b90508760600151838151811061171957611719613afc565b60200260200101516020015115611849576040516370a0823160e01b81526000906001600160a01b038316906370a0823190611759903090600401613742565b60206040518083038186803b15801561177157600080fd5b505afa158015611785573d6000803e3d6000fd5b505050506040513d601f19601f820116820180604052508101906117a99190613634565b905080156118175760405163263b761f60e21b81526001600160a01b038916906398edd87c906117e4908a90879086906000906004016138f3565b600060405180830381600087803b1580156117fe57600080fd5b505af1158015611812573d6000803e3d6000fd5b505050505b6001600160a01b0383166000908152600a60205260409020805460ff19169055611842600884612eb3565b5050611cbb565b604051632474521560e21b81526001600160a01b037f000000000000000000000000000000000000000000000000000000000000000016906391d14854906118a590600080516020613b618339815191529086906004016137f6565b60206040518083038186803b1580156118bd57600080fd5b505afa1580156118d1573d6000803e3d6000fd5b505050506040513d601f19601f820116820180604052508101906118f59190613430565b61194b5760405162461bcd60e51b815260206004820152602160248201527f546f704e4d61726b6574436170496e6465783a20494e56414c49445f415353456044820152601560fa1b60648201526084016107b1565b60008361196657855161195f9060ff613a4c565b90506119a8565b886020015160ff80168a60600151868151811061198557611985613afc565b60200260200101516040015161199b9190613a16565b6119a591906139f4565b90505b6001600160a01b0383166000908152600a60205260409020805460ff191660ff83161790558551819087906119de9083906139cf565b60ff1690525060208601518051849190869081106119fe576119fe613afc565b60200260200101906001600160a01b031690816001600160a01b0316815250508086604001518581518110611a3557611a35613afc565b60ff9283166020918202929092010152811615611a5d57611a57600884612ec8565b50611a6a565b611a68600884612eb3565b505b50604051636d0224df60e11b81526000906001600160a01b038c169063da0449be90611a9a908690600401613742565b602060405180830381600087803b158015611ab457600080fd5b505af1158015611ac8573d6000803e3d6000fd5b505050506040513d601f19601f82011682018060405250810190611aec9190613634565b6001600160a01b0384166000908152600a602052604081205491925090600160701b90839060ff90611b209082168f613a16565b611b2a91906139f4565b611b349190613a16565b611b3e91906139f4565b9050600080846001600160a01b031663cbbedf1630856040518363ffffffff1660e01b8152600401611b71929190613756565b604080518083038186803b158015611b8857600080fd5b505afa158015611b9c573d6000803e3d6000fd5b505050506040513d601f19601f82011682018060405250810190611bc0919061366f565b9150915080821115611c3f576001600160a01b038b166398edd87c8b88611be78587613a35565b60016040518563ffffffff1660e01b8152600401611c0894939291906138f3565b600060405180830381600087803b158015611c2257600080fd5b505af1158015611c36573d6000803e3d6000fd5b50505050611cb6565b81811115611cb6576001600160a01b038b166398edd87c8b88611c628686613a35565b60006040518563ffffffff1660e01b8152600401611c8394939291906138f3565b600060405180830381600087803b158015611c9d57600080fd5b505af1158015611cb1573d6000803e3d6000fd5b505050505b505050505b50505080611cc890613a9f565b90506115ff565b508351600d55602081015160408083015190517ff7a52f24d20b038b2ecfdb7a08e7d847016833c370e38b3b59677783ee4718cb92611d0f92909161376f565b60405180910390a150505050505050565b60026005541415611d435760405162461bcd60e51b81526004016107b1906138bc565b60026005819055306000908152602091909152604090205480611d785760405162461bcd60e51b81526004016107b190613840565b6000805b611d866008612c08565b811015611e60576001600160a01b037f0000000000000000000000000000000000000000000000000000000000000000166391d14854600080516020613b61833981519152611dd6600885612c2a565b6040518363ffffffff1660e01b8152600401611df39291906137f6565b60206040518083038186803b158015611e0b57600080fd5b505afa158015611e1f573d6000803e3d6000fd5b505050506040513d601f19601f82011682018060405250810190611e439190613430565b611e505760019150611e60565b611e5981613a9f565b9050611d7c565b5080611fc95760007f00000000000000000000000000000000000000000000000000000000000000006001600160a01b031663ae2e933b6040518163ffffffff1660e01b815260040160206040518083038186803b158015611ec157600080fd5b505afa158015611ed5573d6000803e3d6000fd5b505050506040513d601f19601f82011682018060405250810190611ef991906132ff565b9050600061271061ffff1684836001600160a01b031663a7853436306040518263ffffffff1660e01b8152600401611f319190613742565b60206040518083038186803b158015611f4957600080fd5b505afa158015611f5d573d6000803e3d6000fd5b505050506040513d601f19601f82011682018060405250810190611f819190613610565b61ffff16611f8f9190613a16565b611f9991906139f4565b90508015611fbd57611fac308383612c36565b611fb68185613a35565b9350611fc6565b611fc682612cdf565b50505b60007f00000000000000000000000000000000000000000000000000000000000000006001600160a01b031663628cf32f6040518163ffffffff1660e01b815260040160206040518083038186803b15801561202457600080fd5b505afa158015612038573d6000803e3d6000fd5b505050506040513d601f19601f8201168201806040525081019061205c91906132ff565b905060005b61206b6008612c08565b8110156124365782801561214257506001600160a01b037f0000000000000000000000000000000000000000000000000000000000000000166391d148547f4963dcfd342c3f63bd1b992afc723ae72706277470d47567f30dfc6dcee9f11e6120d5600885612c2a565b6040518363ffffffff1660e01b81526004016120f29291906137f6565b60206040518083038186803b15801561210a57600080fd5b505afa15801561211e573d6000803e3d6000fd5b505050506040513d601f19601f820116820180604052508101906121429190613430565b1561214c57612426565b60006001600160a01b037f00000000000000000000000000000000000000000000000000000000000000001663af86dd46612188600885612c2a565b600080516020613b418339815191526040518363ffffffff1660e01b81526004016121b4929190613756565b602060405180830381600087803b1580156121ce57600080fd5b505af11580156121e2573d6000803e3d6000fd5b505050506040513d601f19601f8201168201806040525081019061220691906132ff565b90506000816001600160a01b03166370a08231306040518263ffffffff1660e01b81526004016122369190613742565b60206040518083038186803b15801561224e57600080fd5b505afa158015612262573d6000803e3d6000fd5b505050506040513d601f19601f820116820180604052508101906122869190613634565b9050600060015482886122999190613a16565b6122a391906139f4565b9050806122b257505050612426565b60405163a9059cbb60e01b81526001600160a01b0384169063a9059cbb906122e09086908590600401613756565b600060405180830381600087803b1580156122fa57600080fd5b505af115801561230e573d6000803e3d6000fd5b505060405163226bf2d160e21b81526001600160a01b03861692506389afcb44915061233e908b90600401613742565b602060405180830381600087803b15801561235857600080fd5b505af115801561236c573d6000803e3d6000fd5b505050506040513d601f19601f820116820180604052508101906123909190613634565b506001600160a01b03851663cabfb7e36123ab600887612c2a565b896001546123b99190613a35565b6001546040516001600160e01b031960e086901b1681526001600160a01b03909316600484015260248301919091526044820152606401600060405180830381600087803b15801561240a57600080fd5b505af115801561241e573d6000803e3d6000fd5b505050505050505b61242f81613a9f565b9050612061565b506124413084612edd565b505060016005555050565b60405163554f94ab60e01b81526060906001600160a01b037f0000000000000000000000000000000000000000000000000000000000000000169063554f94ab9061045e903090600401613742565b60006104b26008612c08565b60006104c4338484612c36565b336001600160a01b037f0000000000000000000000000000000000000000000000000000000000000000161461252c5760405162461bcd60e51b815260206004820152601d60248201527f546f704e4d61726b6574436170496e6465783a20464f5242494444454e00000060448201526064016107b1565b600080866001600160401b0381111561254757612547613b12565b604051908082528060200260200182016040528015612570578160200160208202803683370190505b50905060005b878110156126d65760008161258c60018b613a35565b6125969190613a35565b905060008a8a838181106125ac576125ac613afc565b90506020020160208101906125c191906132e2565b90506000826125dc576125d58660ff613a4c565b905061260f565b8760ff8b8b868181106125f1576125f1613afc565b905060200201356126029190613a16565b61260c91906139f4565b90505b6001600160a01b0382166000818152600a60205260409020805460ff191660ff841617905561267b5760405162461bcd60e51b8152602060048201526018602482015277546f704e4d61726b6574436170496e6465783a205a45524f60401b60448201526064016107b1565b60ff8116156126c25761268f600883612ec8565b50808585815181106126a3576126a3613afc565b60ff909216602092830291909101909101526126bf81876139cf565b95505b505050806126cf90613a9f565b9050612576565b50600d899055600c8a9055600b805460ff191660ff8d16179055600780546001600160a01b0319166001600160a01b0385161790557ff7a52f24d20b038b2ecfdb7a08e7d847016833c370e38b3b59677783ee4718cb6127366008612f4f565b8260405161274592919061376f565b60405180910390a15050505050505050505050565b604051632474521560e21b81527f1916b456004f332cd8a19679364ef4be668619658be72c17b7e86697c4ae0f16906001600160a01b037f000000000000000000000000000000000000000000000000000000000000000016906391d14854906127ca90849033906004016137f6565b60206040518083038186803b1580156127e257600080fd5b505afa1580156127f6573d6000803e3d6000fd5b505050506040513d601f19601f8201168201806040525081019061281a9190613430565b6128365760405162461bcd60e51b81526004016107b190613885565b7f00000000000000000000000000000000000000000000000000000000000000006001600160a01b031663ae2e933b6040518163ffffffff1660e01b815260040160206040518083038186803b15801561288f57600080fd5b505afa1580156128a3573d6000803e3d6000fd5b505050506040513d601f19601f820116820180604052508101906128c791906132ff565b6007546040516306b0e67560e01b81523060048201526001600160a01b03918216602482015284821660448201529116906306b0e67590606401600060405180830381600087803b15801561291b57600080fd5b505af115801561292f573d6000803e3d6000fd5b5050600780546001600160a01b0319166001600160a01b03861617905550506040517fbce074c8369e26e70e1ae2f14fc944da352cfe6f52e2de9572f0c9942a24b7fc9061297e908490613742565b60405180910390a15050565b428410156129d25760405162461bcd60e51b8152602060048201526015602482015274141a1d5d1d5c99515490cc8c0e8811561412549151605a1b60448201526064016107b1565b60006129dc6106e5565b6001600160a01b038916600090815260046020526040812080547f6e71edae12b1b97f4d1f60370fef10105fa2faae0126114a169c64845d6126c9928c928c928c92909190612a2a83613a9f565b909155506040805160208101969096526001600160a01b0394851690860152929091166060840152608083015260a082015260c0810187905260e00160405160208183030381529060405280519060200120604051602001612aa392919061190160f01b81526002810192909252602282015260420190565b60408051601f198184030181528282528051602091820120600080855291840180845281905260ff88169284019290925260608301869052608083018590529092509060019060a0016020604051602081039080840390855afa158015612b0e573d6000803e3d6000fd5b5050604051601f1901519150506001600160a01b03811615801590612b445750886001600160a01b0316816001600160a01b0316145b612b905760405162461bcd60e51b815260206004820152601f60248201527f5068757475726545524332303a20494e56414c49445f5349474e41545552450060448201526064016107b1565b612b9b898989612ba6565b505050505050505050565b6001600160a01b0383811660008181526003602090815260408083209487168084529482529182902085905590518481527f8c5be1e5ebec7d5bd14f71427d1e84f3dd0314c0f7b2291e5b200ac8c7c3b92591015b60405180910390a3505050565b60006104c8825490565b6000818310612c215781612c23565b825b9392505050565b6000612c238383612f5c565b612ccf7f00000000000000000000000000000000000000000000000000000000000000006001600160a01b031663ae2e933b6040518163ffffffff1660e01b815260040160206040518083038186803b158015612c9257600080fd5b505afa158015612ca6573d6000803e3d6000fd5b505050506040513d601f19601f82011682018060405250810190612cca91906132ff565b612cdf565b612cda838383612f86565b505050565b600060065442612cef9190613a35565b90508015612e355760006b033b2e3c9fd0803ce800000080612d99856001600160a01b0316635612e00b306040518263ffffffff1660e01b8152600401612d369190613742565b60206040518083038186803b158015612d4e57600080fd5b505afa158015612d62573d6000803e3d6000fd5b505050506040513d601f19601f82011682018060405250810190612d869190613634565b856b033b2e3c9fd0803ce8000000613015565b612da39190613a35565b6001600160a01b037f000000000000000000000000000000000000000000000000000000000000000016600090815260026020526040902054600154612de99190613a35565b612df39190613a16565b612dfd91906139f4565b90508015612cda57612e2f7f000000000000000000000000000000000000000000000000000000000000000082612e39565b42600655505b5050565b6001600160a01b03821660009081526002602052604081208054839290612e619084906139b7565b925050819055508060016000828254612e7a91906139b7565b90915550506040518181526001600160a01b03831690600090600080516020613b81833981519152906020015b60405180910390a35050565b6000612c23836001600160a01b0384166130d3565b6000612c23836001600160a01b0384166131c6565b6001600160a01b03821660009081526002602052604081208054839290612f05908490613a35565b925050819055508060016000828254612f1e9190613a35565b90915550506040518181526000906001600160a01b03841690600080516020613b8183398151915290602001612ea7565b60606000612c2383613215565b6000826000018281548110612f7357612f73613afc565b9060005260206000200154905092915050565b6001600160a01b03831660009081526002602052604081208054839290612fae908490613a35565b90915550506001600160a01b03821660009081526002602052604081208054839290612fdb9084906139b7565b92505081905550816001600160a01b0316836001600160a01b0316600080516020613b8183398151915283604051612bfb91815260200190565b60008380156130b55760018416801561303057859250613034565b8392505b50600283046002850494505b84156130af57858602868782041461305757600080fd5b8181018181101561306757600080fd5b85900496505060018516156130a457858302838782041415871515161561308d57600080fd5b8181018181101561309d57600080fd5b8590049350505b600285049450613040565b506130cb565b8380156130c557600092506130c9565b8392505b505b509392505050565b600081815260018301602052604081205480156131bc5760006130f7600183613a35565b855490915060009061310b90600190613a35565b905081811461317057600086600001828154811061312b5761312b613afc565b906000526020600020015490508087600001848154811061314e5761314e613afc565b6000918252602080832090910192909255918252600188019052604090208390555b855486908061318157613181613ae6565b6001900381819060005260206000200160009055905585600101600086815260200190815260200160002060009055600193505050506104c8565b60009150506104c8565b600081815260018301602052604081205461320d575081546001818101845560008481526020808220909301849055845484825282860190935260409020919091556104c8565b5060006104c8565b60608160000180548060200260200160405190810160405280929190818152602001828054801561326557602002820191906000526020600020905b815481526020019060010190808311613251575b50505050509050919050565b60008083601f84011261328357600080fd5b5081356001600160401b0381111561329a57600080fd5b6020830191508360208260051b85010111156132b557600080fd5b9250929050565b805180151581146132cc57600080fd5b919050565b803560ff811681146132cc57600080fd5b6000602082840312156132f457600080fd5b8135612c2381613b28565b60006020828403121561331157600080fd5b8151612c2381613b28565b6000806040838503121561332f57600080fd5b823561333a81613b28565b9150602083013561334a81613b28565b809150509250929050565b60008060006060848603121561336a57600080fd5b833561337581613b28565b9250602084013561338581613b28565b929592945050506040919091013590565b600080600080600080600060e0888a0312156133b157600080fd5b87356133bc81613b28565b965060208801356133cc81613b28565b955060408801359450606088013593506133e8608089016132d1565b925060a0880135915060c0880135905092959891949750929550565b6000806040838503121561341757600080fd5b823561342281613b28565b946020939093013593505050565b60006020828403121561344257600080fd5b612c23826132bc565b60006020828403121561345d57600080fd5b81516001600160401b038082111561347457600080fd5b818401915084601f83011261348857600080fd5b81518181111561349a5761349a613b12565b6134ad601f8201601f1916602001613987565b91508082528560208285010111156134c457600080fd5b6134d5816020840160208601613a6f565b50949350505050565b600060208083850312156134f157600080fd5b82516001600160401b038082111561350857600080fd5b908401906080828703121561351c57600080fd5b61352461393d565b825181528383015184820152604080840151818301526060808501518481111561354d57600080fd5b80860195505088601f86011261356257600080fd5b84518481111561357457613574613b12565b613582878260051b01613987565b8181528781019550868801838302880189018c10156135a057600080fd5b60009750875b838110156135fa5784828e0312156135bc578889fd5b6135c4613965565b82516135cf81613b28565b81526135dc838c016132bc565b818c01528287015187820152885296890196908401906001016135a6565b5050918401919091525090979650505050505050565b60006020828403121561362257600080fd5b815161ffff81168114612c2357600080fd5b60006020828403121561364657600080fd5b5051919050565b6000806040838503121561366057600080fd5b50508035926020909101359150565b6000806040838503121561368257600080fd5b505080516020909101519092909150565b600080600080600080600080600060e08a8c0312156136b157600080fd5b6136ba8a6132d1565b985060208a0135975060408a0135965060608a01356001600160401b03808211156136e457600080fd5b6136f08d838e01613271565b909850965060808c013591508082111561370957600080fd5b506137168c828d01613271565b90955093505060a08a0135915060c08a013561373181613b28565b809150509295985092959850929598565b6001600160a01b0391909116815260200190565b6001600160a01b03929092168252602082015260400190565b604080825283519082018190526000906020906060840190828701845b828110156137b15781516001600160a01b03168452928401929084019060010161378c565b5050508381038285015284518082528583019183019060005b818110156137e957835160ff16835292840192918401916001016137ca565b5090979650505050505050565b9182526001600160a01b0316602082015260400190565b602081526000825180602084015261382c816040850160208701613a6f565b601f01601f19169190910160400192915050565b60208082526025908201527f4261736544796e616d6963496e6465783a20494e53554646494349454e545f416040820152641353d5539560da1b606082015260800190565b6020808252601b908201527f4261736544796e616d6963496e6465783a20464f5242494444454e0000000000604082015260600190565b6020808252601f908201527f5265656e7472616e637947756172643a207265656e7472616e742063616c6c00604082015260600190565b8481526001600160a01b038416602082015260408101839052608081016002831061392e57634e487b7160e01b600052602160045260246000fd5b82606083015295945050505050565b604051608081016001600160401b038111828210171561395f5761395f613b12565b60405290565b604051606081016001600160401b038111828210171561395f5761395f613b12565b604051601f8201601f191681016001600160401b03811182821017156139af576139af613b12565b604052919050565b600082198211156139ca576139ca613ad0565b500190565b600060ff821660ff84168060ff038211156139ec576139ec613ad0565b019392505050565b600082613a1157634e487b7160e01b600052601260045260246000fd5b500490565b6000816000190483118215151615613a3057613a30613ad0565b500290565b600082821015613a4757613a47613ad0565b500390565b600060ff821660ff841680821015613a6657613a66613ad0565b90039392505050565b60005b83811015613a8a578181015183820152602001613a72565b83811115613a99576000848401525b50505050565b6000600019821415613ab357613ab3613ad0565b5060010190565b634e487b7160e01b600052600160045260246000fd5b634e487b7160e01b600052601160045260246000fd5b634e487b7160e01b600052603160045260246000fd5b634e487b7160e01b600052603260045260246000fd5b634e487b7160e01b600052604160045260246000fd5b6001600160a01b0381168114613b3d57600080fd5b5056fe8e7ab557453411baa0557b6b9366ce6b3deb7e655e18b37dac0905ba2af4c25b86d5cf0a6bdc8d859ba3bdc97043337c82a0e609035f378e419298b6a3e00ae6ddf252ad1be2c89b69c2b068fc378daa952ba7f163c4a11628f55a4df523b3efa264697066735822122089ed87e08be10e4906bf6a7c787701ee2aa7c7b430ee90c0d49b9a04f9e0642e64736f6c63430008070033a2646970667358221220e59ca0c54b154a89b9185ce47e9656c89085394a2a908b5f47d0a33313cf7c5164736f6c63430008070033",
  "linkReferences": {},
  "deployedLinkReferences": {}
}