{
  "_format": "hh-sol-artifact-1",
  "contractName": "TopNMarketCapIndexFactory",
  "sourceName": "contracts/TopNMarketCapIndexFactory.sol",
  "abi": [
    {
      "inputs": [
        {
          "internalType": "address",
          "name": "_registry",
          "type": "address"
        },
        {
          "internalType": "address",
          "name": "_vTokenFactory",
          "type": "address"
        },
        {
          "internalType": "address",
          "name": "_marketCapCategories",
          "type": "address"
        },
        {
          "internalType": "uint16",
          "name": "_defaultMintingFeeInBP",
          "type": "uint16"
        },
        {
          "internalType": "uint16",
          "name": "_defaultBurningFeeInBP",
          "type": "uint16"
        },
        {
          "internalType": "uint256",
          "name": "_defaultAUMScaledPerSecondsRate",
          "type": "uint256"
        },
        {
          "internalType": "uint16",
          "name": "_defaultGovernorFeePercentageInBP",
          "type": "uint16"
        },
        {
          "internalType": "address",
          "name": "_governorFactory",
          "type": "address"
        }
      ],
      "stateMutability": "nonpayable",
      "type": "constructor"
    },
    {
      "anonymous": false,
      "inputs": [
        {
          "indexed": true,
          "internalType": "address",
          "name": "account",
          "type": "address"
        },
        {
          "indexed": false,
          "internalType": "uint256",
          "name": "AUMScaledPerSecondsRate",
          "type": "uint256"
        }
      ],
      "name": "SetDefaultAUMScaledPerSecondsRate",
      "type": "event"
    },
    {
      "anonymous": false,
      "inputs": [
        {
          "indexed": true,
          "internalType": "address",
          "name": "account",
          "type": "address"
        },
        {
          "indexed": false,
          "internalType": "uint16",
          "name": "burningFeeInBP",
          "type": "uint16"
        }
      ],
      "name": "SetDefaultBurningFeeInBP",
      "type": "event"
    },
    {
      "anonymous": false,
      "inputs": [
        {
          "indexed": true,
          "internalType": "address",
          "name": "account",
          "type": "address"
        },
        {
          "indexed": false,
          "internalType": "uint16",
          "name": "defaultGovernorFeePercentageInBP",
          "type": "uint16"
        }
      ],
      "name": "SetDefaultGovernorFeePercentageInBP",
      "type": "event"
    },
    {
      "anonymous": false,
      "inputs": [
        {
          "indexed": true,
          "internalType": "address",
          "name": "account",
          "type": "address"
        },
        {
          "indexed": false,
          "internalType": "uint16",
          "name": "mintingFeeInBP",
          "type": "uint16"
        }
      ],
      "name": "SetDefaultMintingFeeInBP",
      "type": "event"
    },
    {
      "anonymous": false,
      "inputs": [
        {
          "indexed": true,
          "internalType": "address",
          "name": "account",
          "type": "address"
        },
        {
          "indexed": false,
          "internalType": "address",
          "name": "governorFactory",
          "type": "address"
        }
      ],
      "name": "SetGovernorFactory",
      "type": "event"
    },
    {
      "anonymous": false,
      "inputs": [
        {
          "indexed": false,
          "internalType": "address",
          "name": "index",
          "type": "address"
        },
        {
          "indexed": false,
          "internalType": "uint256",
          "name": "category",
          "type": "uint256"
        },
        {
          "indexed": false,
          "internalType": "uint256",
          "name": "topN",
          "type": "uint256"
        }
      ],
      "name": "TopNMarketCapIndexCreated",
      "type": "event"
    },
    {
      "inputs": [
        {
          "internalType": "uint256",
          "name": "_category",
          "type": "uint256"
        },
        {
          "internalType": "uint8",
          "name": "_topN",
          "type": "uint8"
        },
        {
          "components": [
            {
              "internalType": "string",
              "name": "name",
              "type": "string"
            },
            {
              "internalType": "string",
              "name": "symbol",
              "type": "string"
            }
          ],
          "internalType": "struct IIndexFactory.NameDetails",
          "name": "_nameDetails",
          "type": "tuple"
        },
        {
          "internalType": "address",
          "name": "_creator",
          "type": "address"
        }
      ],
      "name": "createIndex",
      "outputs": [
        {
          "internalType": "address",
          "name": "index",
          "type": "address"
        }
      ],
      "stateMutability": "nonpayable",
      "type": "function"
    },
    {
      "inputs": [],
      "name": "defaultAUMScaledPerSecondsRate",
      "outputs": [
        {
          "internalType": "uint256",
          "name": "",
          "type": "uint256"
        }
      ],
      "stateMutability": "view",
      "type": "function"
    },
    {
      "inputs": [],
      "name": "defaultBurningFeeInBP",
      "outputs": [
        {
          "internalType": "uint16",
          "name": "",
          "type": "uint16"
        }
      ],
      "stateMutability": "view",
      "type": "function"
    },
    {
      "inputs": [],
      "name": "defaultGovernorFeePercentageInBP",
      "outputs": [
        {
          "internalType": "uint16",
          "name": "",
          "type": "uint16"
        }
      ],
      "stateMutability": "view",
      "type": "function"
    },
    {
      "inputs": [],
      "name": "defaultMintingFeeInBP",
      "outputs": [
        {
          "internalType": "uint16",
          "name": "",
          "type": "uint16"
        }
      ],
      "stateMutability": "view",
      "type": "function"
    },
    {
      "inputs": [],
      "name": "governorFactory",
      "outputs": [
        {
          "internalType": "address",
          "name": "",
          "type": "address"
        }
      ],
      "stateMutability": "view",
      "type": "function"
    },
    {
      "inputs": [],
      "name": "marketCapCategories",
      "outputs": [
        {
          "internalType": "address",
          "name": "",
          "type": "address"
        }
      ],
      "stateMutability": "view",
      "type": "function"
    },
    {
      "inputs": [],
      "name": "maxAllowedTopN",
      "outputs": [
        {
          "internalType": "uint8",
          "name": "",
          "type": "uint8"
        }
      ],
      "stateMutability": "view",
      "type": "function"
    },
    {
      "inputs": [],
      "name": "registry",
      "outputs": [
        {
          "internalType": "address",
          "name": "",
          "type": "address"
        }
      ],
      "stateMutability": "view",
      "type": "function"
    },
    {
      "inputs": [
        {
          "internalType": "uint256",
          "name": "_AUMScaledPerSecondsRate",
          "type": "uint256"
        }
      ],
      "name": "setDefaultAUMScaledPerSecondsRate",
      "outputs": [],
      "stateMutability": "nonpayable",
      "type": "function"
    },
    {
      "inputs": [
        {
          "internalType": "uint16",
          "name": "_burningFeeInBP",
          "type": "uint16"
        }
      ],
      "name": "setDefaultBurningFeeInBP",
      "outputs": [],
      "stateMutability": "nonpayable",
      "type": "function"
    },
    {
      "inputs": [
        {
          "internalType": "uint16",
          "name": "_defaultGovernorFeePercentageInBP",
          "type": "uint16"
        }
      ],
      "name": "setDefaultGovernorFeePercentageInBP",
      "outputs": [],
      "stateMutability": "nonpayable",
      "type": "function"
    },
    {
      "inputs": [
        {
          "internalType": "uint16",
          "name": "_mintingFeeInBP",
          "type": "uint16"
        }
      ],
      "name": "setDefaultMintingFeeInBP",
      "outputs": [],
      "stateMutability": "nonpayable",
      "type": "function"
    },
    {
      "inputs": [
        {
          "internalType": "address",
          "name": "_governorFactory",
          "type": "address"
        }
      ],
      "name": "setGovernorFactory",
      "outputs": [],
      "stateMutability": "nonpayable",
      "type": "function"
    },
    {
      "inputs": [
        {
          "internalType": "address",
          "name": "_marketCapCategories",
          "type": "address"
        }
      ],
      "name": "setMarketCapCategories",
      "outputs": [],
      "stateMutability": "nonpayable",
      "type": "function"
    },
    {
      "inputs": [
        {
          "internalType": "uint8",
          "name": "_topN",
          "type": "uint8"
        }
      ],
      "name": "setMaxAllowedTopN",
      "outputs": [],
      "stateMutability": "nonpayable",
      "type": "function"
    },
    {
      "inputs": [
        {
          "internalType": "bytes4",
          "name": "interfaceId",
          "type": "bytes4"
        }
      ],
      "name": "supportsInterface",
      "outputs": [
        {
          "internalType": "bool",
          "name": "",
          "type": "bool"
        }
      ],
      "stateMutability": "view",
      "type": "function"
    },
    {
      "inputs": [],
      "name": "vTokenFactory",
      "outputs": [
        {
          "internalType": "address",
          "name": "",
          "type": "address"
        }
      ],
      "stateMutability": "view",
      "type": "function"
    },
    {
      "inputs": [
        {
          "internalType": "address",
          "name": "_index",
          "type": "address"
        }
      ],
      "name": "withdrawToFeePool",
      "outputs": [],
      "stateMutability": "nonpayable",
      "type": "function"
    }
  ],
  "bytecode": "0x60c06040523480156200001157600080fd5b5060405162005265380380620052658339810160408190526200003491620001e0565b8787868686858786868686866001600160a01b038516158015906200006157506001600160a01b03841615155b620000b35760405162461bcd60e51b815260206004820152601660248201527f42617365496e646578466163746f72793a205a45524f0000000000000000000060448201526064015b60405180910390fd5b6001600160601b0319606095861b81166080529390941b90921660a0526000805461ffff938416620100000263ffffffff1990911693909216929092171790556001556001600160a01b0382166200014e5760405162461bcd60e51b815260206004820152601c60248201527f476f7665726e61626c65496e646578466163746f72793a205a45524f000000006044820152606401620000aa565b6002805461ffff909216600160a01b026001600160b01b03199092166001600160a01b039384161791909117905560038054600560a01b6001600160a81b03199091169d9092169c909c1717909a55506200027f9a5050505050505050505050565b80516001600160a01b0381168114620001c857600080fd5b919050565b805161ffff81168114620001c857600080fd5b600080600080600080600080610100898b031215620001fe57600080fd5b6200020989620001b0565b97506200021960208a01620001b0565b96506200022960408a01620001b0565b95506200023960608a01620001cd565b94506200024960808a01620001cd565b935060a089015192506200026060c08a01620001cd565b91506200027060e08a01620001b0565b90509295985092959890939650565b60805160601c60a05160601c614f6d620002f8600039600061018e01526000818161028801528181610356015281816104be01528181610606015281816107450152818161082b0152818161094601528181610a5c01528181610dc901528181610ff2015281816111f101526113110152614f6d6000f3fe60806040523480156200001157600080fd5b5060043610620001275760003560e01c80634df716da11620000bb5780639566a067116200007a5780639566a06714620002c0578063a0e712ff14620002d7578063c0bc4e2214620002eb578063c92e13e51462000302578063cbf8ee6d146200032a57600080fd5b80634df716da1462000240578063673864f91462000257578063792fb07d146200026b5780637b10399914620002825780637bcfdf5714620002aa57600080fd5b80624ef300146200012c57806301ffc9a7146200014557806304eefc01146200017157806328dd9912146200018857806329c5ee3514620001bf57806334b0c18014620001d65780633ac4838914620001ef578063484f159914620002065780634a8644d6146200021d575b600080fd5b620001436200013d36600462001ad7565b6200033f565b005b6200015c6200015636600462001a85565b62000479565b60405190151581526020015b60405180910390f35b620001436200018236600462001ab1565b620004a7565b620001b07f000000000000000000000000000000000000000000000000000000000000000081565b60405162000168919062001c5b565b62000143620001d036600462001ab1565b620005ef565b620001e060015481565b60405190815260200162000168565b620001436200020036600462001944565b6200072e565b620001436200021736600462001bb9565b62000814565b6000546200022c9061ffff1681565b60405161ffff909116815260200162000168565b620001436200025136600462001944565b6200092f565b600354620001b0906001600160a01b031681565b620001b06200027c36600462001b43565b62000a42565b620001b07f000000000000000000000000000000000000000000000000000000000000000081565b6002546200022c90600160a01b900461ffff1681565b62000143620002d136600462001ab1565b620011da565b600254620001b0906001600160a01b031681565b62000143620002fc36600462001944565b6200130f565b6003546200031790600160a01b900460ff1681565b60405160ff909116815260200162000168565b6000546200022c9062010000900461ffff1681565b604051632474521560e21b81526001600160a01b037f000000000000000000000000000000000000000000000000000000000000000016906391d14854906200039090600090339060040162001d56565b60206040518083038186803b158015620003a957600080fd5b505afa158015620003be573d6000803e3d6000fd5b505050506040513d601f19601f82011682018060405250810190620003e4919062001a67565b6200040c5760405162461bcd60e51b8152600401620004039062001e17565b60405180910390fd5b6b033b2e3c9fd0803ce80000008110156200043b5760405162461bcd60e51b8152600401620004039062001de4565b600181905560405181815233907f12b7f8762ddb0be7f5afebf56b26d515c762e50980b21b8542c4a759c8a80a7c906020015b60405180910390a250565b60006001600160e01b0319821663a5b2517160e01b1480620004a15750620004a1826200147f565b92915050565b604051632474521560e21b81526001600160a01b037f000000000000000000000000000000000000000000000000000000000000000016906391d1485490620004f890600090339060040162001d56565b60206040518083038186803b1580156200051157600080fd5b505afa15801562000526573d6000803e3d6000fd5b505050506040513d601f19601f820116820180604052508101906200054c919062001a67565b6200056b5760405162461bcd60e51b8152600401620004039062001e17565b8061271061ffff82161115620005955760405162461bcd60e51b8152600401620004039062001de4565b6002805461ffff60a01b1916600160a01b61ffff85169081029190911790915560405190815233907fa685ff766ce74ebfb958e1c4eaa8af8895cb596cec22fadb26ab63c30455e253906020015b60405180910390a25050565b604051632474521560e21b81526001600160a01b037f000000000000000000000000000000000000000000000000000000000000000016906391d14854906200064090600090339060040162001d56565b60206040518083038186803b1580156200065957600080fd5b505afa1580156200066e573d6000803e3d6000fd5b505050506040513d601f19601f8201168201806040525081019062000694919062001a67565b620006b35760405162461bcd60e51b8152600401620004039062001e17565b8061271061ffff82161115620006dd5760405162461bcd60e51b8152600401620004039062001de4565b6000805463ffff000019166201000061ffff85169081029190911790915560405190815233907fc86205904d5727f8eb133ce7801357ac55052c5a5623e5f507beca817d81e58690602001620005e3565b604051632474521560e21b81526001600160a01b037f000000000000000000000000000000000000000000000000000000000000000016906391d14854906200077f90600090339060040162001d56565b60206040518083038186803b1580156200079857600080fd5b505afa158015620007ad573d6000803e3d6000fd5b505050506040513d601f19601f82011682018060405250810190620007d3919062001a67565b620007f25760405162461bcd60e51b8152600401620004039062001e17565b600380546001600160a01b0319166001600160a01b0392909216919091179055565b604051632474521560e21b81526001600160a01b037f000000000000000000000000000000000000000000000000000000000000000016906391d14854906200086590600090339060040162001d56565b60206040518083038186803b1580156200087e57600080fd5b505afa15801562000893573d6000803e3d6000fd5b505050506040513d601f19601f82011682018060405250810190620008b9919062001a67565b620008d85760405162461bcd60e51b8152600401620004039062001e17565b60018160ff16118015620008f05750600a8160ff1611155b6200090f5760405162461bcd60e51b8152600401620004039062001da2565b6003805460ff909216600160a01b0260ff60a01b19909216919091179055565b604051632474521560e21b81526001600160a01b037f000000000000000000000000000000000000000000000000000000000000000016906391d14854906200098090600090339060040162001d56565b60206040518083038186803b1580156200099957600080fd5b505afa158015620009ae573d6000803e3d6000fd5b505050506040513d601f19601f82011682018060405250810190620009d4919062001a67565b620009f35760405162461bcd60e51b8152600401620004039062001e17565b600280546001600160a01b0319166001600160a01b03831617905560405133907f561050d83fc933d293599137acbcbaaa93e72a3a7548b7fbb5e174606ecbef98906200046e90849062001c5b565b6040516314da340160e31b81526000906001600160a01b037f0000000000000000000000000000000000000000000000000000000000000000169063a6d1a0089062000a9390339060040162001c5b565b60206040518083038186803b15801562000aac57600080fd5b505afa15801562000ac1573d6000803e3d6000fd5b505050506040513d601f19601f8201168201806040525081019062000ae7919062001a67565b62000b065760405162461bcd60e51b8152600401620004039062001e17565b60018460ff1611801562000b2a575060035460ff600160a01b909104811690851611155b62000b495760405162461bcd60e51b8152600401620004039062001da2565b60035460405163253eca1f60e01b81526004810187905260009182916001600160a01b039091169063253eca1f9060240160606040518083038186803b15801562000b9357600080fd5b505afa15801562000ba8573d6000803e3d6000fd5b505050506040513d601f19601f8201168201806040525081019062000bce919062001b0b565b92509250508162000c2e5760405162461bcd60e51b815260206004820152602360248201527f546f704e4d61726b6574436170496e646578466163746f72793a20444953414260448201526213115160ea1b606482015260840162000403565b600354604051637b7b153360e01b8152600481018990526024810183905260006044820181905260ff8916606483015291829182916001600160a01b031690637b7b15339060840160006040518083038186803b15801562000c8f57600080fd5b505afa15801562000ca4573d6000803e3d6000fd5b505050506040513d6000823e601f3d908101601f1916820160405262000cce919081019062001984565b9250925092508860ff1683511462000d335760405162461bcd60e51b815260206004820152602160248201527f546f704e4d61726b6574436170496e646578466163746f72793a204c454e47546044820152600960fb1b606482015260840162000403565b60008a8a60405160200162000d5f92919091825260f81b6001600160f81b031916602082015260210190565b60405160208183030381529060405280519060200120905062000daf816040518060200162000d8e9062001894565b6020820181038252601f19601f8201166040525080519060200120620014a7565b604051634a1d69f960e01b81529097506001600160a01b037f00000000000000000000000000000000000000000000000000000000000000001690634a1d69f99062000e02908a908d9060040162001c6f565b600060405180830381600087803b15801562000e1d57600080fd5b505af115801562000e32573d6000803e3d6000fd5b5050505062000e686000826040518060200162000e4f9062001894565b601f1982820381018352601f9091011660405262001506565b50600254604051634260f56360e11b81526001600160a01b0389811660048301528a8116602483015260009216906384c1eac690604401602060405180830381600087803b15801562000eba57600080fd5b505af115801562000ecf573d6000803e3d6000fd5b505050506040513d601f19601f8201168201806040525081019062000ef5919062001964565b6040805160028082526060820190925291925060009190816020015b604080518082019091526000808252602082015281526020019060019003908162000f1157905050905060405180604001604052808a6001600160a01b03168152602001600260149054906101000a900461ffff1661271062000f75919062001f98565b61ffff168152508160008151811062000f925762000f9262001ffd565b60200260200101819052506040518060400160405280836001600160a01b03168152602001600260149054906101000a900461ffff1661ffff168152508160018151811062000fe55762000fe562001ffd565b60200260200101819052507f00000000000000000000000000000000000000000000000000000000000000006001600160a01b031663ae2e933b6040518163ffffffff1660e01b815260040160206040518083038186803b1580156200104a57600080fd5b505afa1580156200105f573d6000803e3d6000fd5b505050506040513d601f19601f8201168201806040525081019062001085919062001964565b6000546001546040516319f6455f60e11b81526001600160a01b0393909316926333ec8abe92620010cd928e9261ffff80841693620100009004169190889060040162001cd1565b600060405180830381600087803b158015620010e857600080fd5b505af1158015620010fd573d6000803e3d6000fd5b50505050886001600160a01b031663c044d7048d8f8a8a8a8a896040518863ffffffff1660e01b81526004016200113b979695949392919062001e4e565b600060405180830381600087803b1580156200115657600080fd5b505af11580156200116b573d6000803e3d6000fd5b505050507f455f33b414585821abc4be6a32741396b66f10e34bd515c030c44422d4159ee8898e8e604051620011c2939291906001600160a01b03939093168352602083019190915260ff16604082015260600190565b60405180910390a15050505050505050949350505050565b604051632474521560e21b81526001600160a01b037f000000000000000000000000000000000000000000000000000000000000000016906391d14854906200122b90600090339060040162001d56565b60206040518083038186803b1580156200124457600080fd5b505afa15801562001259573d6000803e3d6000fd5b505050506040513d601f19601f820116820180604052508101906200127f919062001a67565b6200129e5760405162461bcd60e51b8152600401620004039062001e17565b8061271061ffff82161115620012c85760405162461bcd60e51b8152600401620004039062001de4565b6000805461ffff191661ffff841690811790915560405190815233907f502c4a764681dfc2da50d1dbd5fe9ce39b4b772fcc1d42bc3e2d67972f1e823d90602001620005e3565b7f00000000000000000000000000000000000000000000000000000000000000006001600160a01b031663ae2e933b6040518163ffffffff1660e01b815260040160206040518083038186803b1580156200136957600080fd5b505afa1580156200137e573d6000803e3d6000fd5b505050506040513d601f19601f82011682018060405250810190620013a4919062001964565b6001600160a01b0316336001600160a01b031614620013d75760405162461bcd60e51b8152600401620004039062001e17565b6040516370a0823160e01b81526000906001600160a01b038316906370a08231906200140890309060040162001c5b565b60206040518083038186803b1580156200142157600080fd5b505afa15801562001436573d6000803e3d6000fd5b505050506040513d601f19601f820116820180604052508101906200145c919062001af1565b905080156200147b576200147b6001600160a01b038316338362001612565b5050565b60006001600160e01b03198216639231277360e01b1480620004a15750620004a1826200166b565b604080516001600160f81b03196020808301919091526bffffffffffffffffffffffff193060601b16602183015260358201859052605580830185905283518084039091018152607590920190925280519101206000905b9392505050565b600080844710156200155b5760405162461bcd60e51b815260206004820152601d60248201527f437265617465323a20696e73756666696369656e742062616c616e6365000000604482015260640162000403565b8251620015ab5760405162461bcd60e51b815260206004820181905260248201527f437265617465323a2062797465636f6465206c656e677468206973207a65726f604482015260640162000403565b8383516020850187f590506001600160a01b0381166200160a5760405162461bcd60e51b8152602060048201526019602482015278437265617465323a204661696c6564206f6e206465706c6f7960381b604482015260640162000403565b949350505050565b604080516001600160a01b038416602482015260448082018490528251808303909101815260649091019091526020810180516001600160e01b031663a9059cbb60e01b17905262001666908490620016a2565b505050565b60006001600160e01b0319821663026948e360e61b1480620004a157506301ffc9a760e01b6001600160e01b0319831614620004a1565b6000620016f9826040518060400160405280602081526020017f5361666545524332303a206c6f772d6c6576656c2063616c6c206661696c6564815250856001600160a01b03166200177b9092919063ffffffff16565b8051909150156200166657808060200190518101906200171a919062001a67565b620016665760405162461bcd60e51b815260206004820152602a60248201527f5361666545524332303a204552433230206f7065726174696f6e20646964206e6044820152691bdd081cdd58d8d9595960b21b606482015260840162000403565b60606200160a848460008585843b620017d75760405162461bcd60e51b815260206004820152601d60248201527f416464726573733a2063616c6c20746f206e6f6e2d636f6e7472616374000000604482015260640162000403565b600080866001600160a01b03168587604051620017f5919062001c3d565b60006040518083038185875af1925050503d806000811462001834576040519150601f19603f3d011682016040523d82523d6000602084013e62001839565b606091505b50915091506200184b82828662001856565b979650505050505050565b6060831562001867575081620014ff565b825115620018785782518084602001fd5b8160405162461bcd60e51b815260040162000403919062001d6d565b612ef5806200204383390190565b600082601f830112620018b457600080fd5b81516020620018cd620018c78362001f21565b62001eed565b80838252828201915082860187848660051b8901011115620018ee57600080fd5b60005b858110156200190f57815184529284019290840190600101620018f1565b5090979650505050505050565b805180151581146200192d57600080fd5b919050565b803560ff811681146200192d57600080fd5b6000602082840312156200195757600080fd5b8135620014ff8162002029565b6000602082840312156200197757600080fd5b8151620014ff8162002029565b6000806000606084860312156200199a57600080fd5b835167ffffffffffffffff80821115620019b357600080fd5b818601915086601f830112620019c857600080fd5b81516020620019db620018c78362001f21565b8083825282820191508286018b848660051b8901011115620019fc57600080fd5b600096505b8487101562001a2c57805162001a178162002029565b83526001969096019591830191830162001a01565b509189015191975090935050508082111562001a4757600080fd5b5062001a5686828701620018a2565b925050604084015190509250925092565b60006020828403121562001a7a57600080fd5b620014ff826200191c565b60006020828403121562001a9857600080fd5b81356001600160e01b031981168114620014ff57600080fd5b60006020828403121562001ac457600080fd5b813561ffff81168114620014ff57600080fd5b60006020828403121562001aea57600080fd5b5035919050565b60006020828403121562001b0457600080fd5b5051919050565b60008060006060848603121562001b2157600080fd5b8351925062001b33602085016200191c565b9150604084015190509250925092565b6000806000806080858703121562001b5a57600080fd5b8435935062001b6c6020860162001932565b9250604085013567ffffffffffffffff81111562001b8957600080fd5b85016040818803121562001b9c57600080fd5b9150606085013562001bae8162002029565b939692955090935050565b60006020828403121562001bcc57600080fd5b620014ff8262001932565b600081518084526020808501945080840160005b8381101562001c095781518752958201959082019060010162001beb565b509495945050505050565b81835281816020850137506000828201602090810191909152601f909101601f19169091010190565b6000825162001c5181846020870162001fca565b9190910192915050565b6001600160a01b0391909116815260200190565b6001600160a01b038316815260406020820152600062001c90838062001f48565b60408085015262001ca660808501828462001c14565b91505062001cb8602085018562001f48565b848303603f190160608601526200184b83828462001c14565b600060a0820160018060a01b038089168452602061ffff808a16828701526040818a168188015288606088015260a06080880152849150875180865260c088019250838901955060005b8181101562001d4457865180518716855285015185850152958401959282019260010162001d1b565b50919c9b505050505050505050505050565b9182526001600160a01b0316602082015260400190565b602081526000825180602084015262001d8e81604085016020870162001fca565b601f01601f19169190910160400192915050565b60208082526022908201527f546f704e4d61726b6574436170496e646578466163746f72793a20494e56414c604082015261125160f21b606082015260800190565b60208082526019908201527810985cd9525b99195e119858dd1bdc9e4e8812539590531251603a1b604082015260600190565b6020808252601b908201527f42617365496e646578466163746f72793a20464f5242494444454e0000000000604082015260600190565b600060e0820160ff8a1683526020898185015288604085015260e0606085015281885180845261010086019150828a01935060005b8181101562001eaa5784516001600160a01b03168352938301939183019160010162001e83565b5050848103608086015262001ec0818962001bd7565b93505050508360a083015262001ee160c08301846001600160a01b03169052565b98975050505050505050565b604051601f8201601f1916810167ffffffffffffffff8111828210171562001f195762001f1962002013565b604052919050565b600067ffffffffffffffff82111562001f3e5762001f3e62002013565b5060051b60200190565b6000808335601e1984360301811262001f6057600080fd5b830160208101925035905067ffffffffffffffff81111562001f8157600080fd5b80360383131562001f9157600080fd5b9250929050565b600061ffff8381169083168181101562001fc257634e487b7160e01b600052601160045260246000fd5b039392505050565b60005b8381101562001fe757818101518382015260200162001fcd565b8381111562001ff7576000848401525b50505050565b634e487b7160e01b600052603260045260246000fd5b634e487b7160e01b600052604160045260246000fd5b6001600160a01b03811681146200203f57600080fd5b5056fe60806040523480156200001157600080fd5b506001600b55600480546001600160a01b0319163390811782554260075560408051637b10399960e01b81529051919283928392637b1039999281810192602092909190829003018186803b1580156200006a57600080fd5b505afa1580156200007f573d6000803e3d6000fd5b505050506040513d601f19601f82011682018060405250810190620000a5919062000169565b600660006101000a8154816001600160a01b0302191690836001600160a01b03160217905550806001600160a01b03166328dd99126040518163ffffffff1660e01b815260040160206040518083038186803b1580156200010557600080fd5b505afa1580156200011a573d6000803e3d6000fd5b505050506040513d601f19601f8201168201806040525081019062000140919062000169565b600580546001600160a01b0319166001600160a01b0392909216919091179055506200019b9050565b6000602082840312156200017c57600080fd5b81516001600160a01b03811681146200019457600080fd5b9392505050565b612d4a80620001ab6000396000f3fe608060405234801561001057600080fd5b506004361061018f5760003560e01c80637b103999116100e4578063c044d70411610092578063c044d7041461037d578063c42cf53514610390578063c45a0155146103a3578063d505accf146103b6578063dd62ed3e146103c9578063ee9fd31c146103f4578063ef430aa614610408578063f6abc84c1461041157600080fd5b80637b1039991461030c5780637ecebe001461031f578063849feb6b1461033f57806389afcb441461034757806395d89b411461035a578063a0aead4d14610362578063a9059cbb1461036a57600080fd5b806328dd99121161014157806328dd99121461024f57806330adf81f14610262578063313ce567146102895780633644e515146102a357806361623874146102ab5780636a627842146102d957806370a08231146102ec57600080fd5b806301ffc9a71461019457806306fdde03146101bc578063095ea7b3146101d15780630c340a24146101e457806318160ddd146102045780631a7bc0131461021b57806323b872dd1461023c575b600080fd5b6101a76101a23660046125f3565b610425565b60405190151581526020015b60405180910390f35b6101c4610450565b6040516101b391906129dc565b6101a76101df36600461258d565b6104da565b600c546101f7906001600160a01b031681565b6040516101b3919061290e565b61020d60005481565b6040519081526020016101b3565b61022e6102293660046127fd565b6104f0565b6040516101b392919061293e565b6101a761024a3660046124de565b61068d565b6005546101f7906001600160a01b031681565b61020d7f6e71edae12b1b97f4d1f60370fef10105fa2faae0126114a169c64845d6126c981565b610291601281565b60405160ff90911681526020016101b3565b61020d610707565b6102d76102b93660046125b9565b600c8054911515600160a01b0260ff60a01b19909216919091179055565b005b6102d76102e736600461246b565b6107b0565b61020d6102fa36600461246b565b60016020526000908152604090205481565b6006546101f7906001600160a01b031681565b61020d61032d36600461246b565b60036020526000908152604090205481565b6102d7610956565b6102d761035536600461246b565b611535565b6101c46116c0565b61020d6116f1565b6101a761037836600461258d565b6116fd565b6102d761038b366004612843565b61170a565b6102d761039e36600461246b565b6118e5565b6004546101f7906001600160a01b031681565b6102d76103c436600461251f565b611b1b565b61020d6103d73660046124a5565b600260209081526000928352604080842090915290825290205481565b600c5461029190600160a81b900460ff1681565b61020d600d5481565b600c546101a790600160a01b900460ff1681565b60006001600160e01b03198216636da7722160e11b148061044a575061044a82611d37565b92915050565b60065460405163ed3b559f60e01b81526060916001600160a01b03169063ed3b559f9061048190309060040161290e565b60006040518083038186803b15801561049957600080fd5b505afa1580156104ad573d6000803e3d6000fd5b505050506040513d6000823e601f3d908101601f191682016040526104d5919081019061261d565b905090565b60006104e7338484611d5c565b50600192915050565b6060806104fd6008611dbe565b84101561052757610522846105126008611dbe565b61051c9190612bf1565b84611dc8565b61052a565b60005b6001600160401b0381111561054157610541612cb8565b60405190808252806020026020018201604052801561056a578160200160208202803683370190505b50915081516001600160401b0381111561058657610586612cb8565b6040519080825280602002602001820160405280156105af578160200160208202803683370190505b50905060005b8251811015610685576105d36105cb8287612b73565b600890611de0565b8382815181106105e5576105e5612ca2565b60200260200101906001600160a01b031690816001600160a01b031681525050600a600084838151811061061b5761061b612ca2565b60200260200101516001600160a01b03166001600160a01b0316815260200190815260200160002060009054906101000a900460ff1682828151811061066357610663612ca2565b60ff9092166020928302919091019091015261067e81612c5b565b90506105b5565b509250929050565b6001600160a01b0383166000908152600260209081526040808320338452909152812054600019146106f2576001600160a01b0384166000908152600260209081526040808320338452909152812080548492906106ec908490612bf1565b90915550505b6106fd848484611dec565b5060019392505050565b60007f8b73c3c69bb8fe3d512ecc4cf759cc79239f7b179b0ffacaa9a75d522b39400f610732610450565b805160209182012060408051808201825260018152603160f81b90840152805192830193909352918101919091527fc89efdaa54c0f20c7adf612882df0950f5a951637e0307cdcb4c672f298b8bc660608201524660808201523060a082015260c00160405160208183030381529060405280519060200120905090565b6002600b5414156107dc5760405162461bcd60e51b81526004016107d390612a78565b60405180910390fd5b6002600b556006546040805163583def7b60e11b8152905160009283926001600160a01b039091169163b07bdef69160048082019260209290919082900301818787803b15801561082c57600080fd5b505af1158015610840573d6000803e3d6000fd5b505050506040513d601f19601f820116820180604052508101906108649190612488565b6001600160a01b03168360405160240161087e919061290e565b60408051601f198184030181529181526020820180516001600160e01b03166335313c2160e11b179052516108b391906128f2565b600060405180830381855af49150503d80600081146108ee576040519150601f19603f3d011682016040523d82523d6000602084013e6108f3565b606091505b50915091508161094c5780516109445760405162461bcd60e51b815260206004820152601660248201527510985cd9525b99195e0e881352539517d1905253115160521b60448201526064016107d3565b805181602001fd5b50506001600b5550565b600654604051632474521560e21b81526001600160a01b03909116906391d14854906109a8907ff4730887401325e116e846d0e51948344682bbc6e090c5e5993a8025fb6a68b09033906004016129c5565b60206040518083038186803b1580156109c057600080fd5b505afa1580156109d4573d6000803e3d6000fd5b505050506040513d601f19601f820116820180604052508101906109f891906125d6565b610a145760405162461bcd60e51b81526004016107d390612a41565b60065460408051632630c12f60e01b815290516000926001600160a01b031691632630c12f916004808301926020929190829003018186803b158015610a5957600080fd5b505afa158015610a6d573d6000803e3d6000fd5b505050506040513d601f19601f82011682018060405250810190610a919190612488565b90506000805b610aa16008611dbe565b811015610c775760006001600160a01b03841663da0449be610ac4600885611de0565b6040518263ffffffff1660e01b8152600401610ae0919061290e565b602060405180830381600087803b158015610afa57600080fd5b505af1158015610b0e573d6000803e3d6000fd5b505050506040513d601f19601f82011682018060405250810190610b3291906127e4565b6005549091506000906001600160a01b0316638d5aa174610b54600886611de0565b6040518263ffffffff1660e01b8152600401610b70919061290e565b602060405180830381600087803b158015610b8a57600080fd5b505af1158015610b9e573d6000803e3d6000fd5b505050506040513d601f19601f82011682018060405250810190610bc29190612488565b6001600160a01b03166306b3efd6306040518263ffffffff1660e01b8152600401610bed919061290e565b60206040518083038186803b158015610c0557600080fd5b505afa158015610c19573d6000803e3d6000fd5b505050506040513d601f19601f82011682018060405250810190610c3d91906127e4565b905081610c4e600160701b83612bd2565b610c589190612bb0565b610c629085612b73565b9350505080610c7090612c5b565b9050610a97565b506000600460009054906101000a90046001600160a01b03166001600160a01b031663673864f96040518163ffffffff1660e01b815260040160206040518083038186803b158015610cc857600080fd5b505afa158015610cdc573d6000803e3d6000fd5b505050506040513d601f19601f82011682018060405250810190610d009190612488565b600d54600e54600c5460405163225193ad60e01b815260048101939093526024830191909152600160a81b900460ff1660448201526001600160a01b03919091169063225193ad9060640160006040518083038186803b158015610d6357600080fd5b505afa158015610d77573d6000803e3d6000fd5b505050506040513d6000823e601f3d908101601f19168201604052610d9f91908101906126b0565b90506000600660009054906101000a90046001600160a01b03166001600160a01b031663628cf32f6040518163ffffffff1660e01b815260040160206040518083038186803b158015610df157600080fd5b505afa158015610e05573d6000803e3d6000fd5b505050506040513d601f19601f82011682018060405250810190610e299190612488565b90506000816001600160a01b031663f5c609e06040518163ffffffff1660e01b8152600401602060405180830381600087803b158015610e6857600080fd5b505af1158015610e7c573d6000803e3d6000fd5b505050506040513d601f19601f82011682018060405250810190610ea091906127e4565b90506000805b84604001518110156115285760008160018760400151610ec69190612bf1565b610ed09190612bf1565b9050600086606001518281518110610eea57610eea612ca2565b602090810291909101015151600554604051632356a85d60e21b81529192506000916001600160a01b0390911690638d5aa17490610f2c90859060040161290e565b602060405180830381600087803b158015610f4657600080fd5b505af1158015610f5a573d6000803e3d6000fd5b505050506040513d601f19601f82011682018060405250810190610f7e9190612488565b905087606001518381518110610f9657610f96612ca2565b602002602001015160200151156110ee576040516370a0823160e01b81526000906001600160a01b038316906370a0823190610fd690309060040161290e565b60206040518083038186803b158015610fee57600080fd5b505afa158015611002573d6000803e3d6000fd5b505050506040513d601f19601f8201168201806040525081019061102691906127e4565b905080156110945760405163263b761f60e21b81526001600160a01b038916906398edd87c90611061908a9087908690600090600401612aaf565b600060405180830381600087803b15801561107b57600080fd5b505af115801561108f573d6000803e3d6000fd5b505050505b6001600160a01b0383166000908152600a60205260409020805460ff191690556110bf600884611e7f565b50600080516020612cf58339815191528360006040516110e0929190612922565b60405180910390a150611514565b600654604051632474521560e21b81526001600160a01b03909116906391d1485490611140907f86d5cf0a6bdc8d859ba3bdc97043337c82a0e609035f378e419298b6a3e00ae69086906004016129c5565b60206040518083038186803b15801561115857600080fd5b505afa15801561116c573d6000803e3d6000fd5b505050506040513d601f19601f8201168201806040525081019061119091906125d6565b6111e65760405162461bcd60e51b815260206004820152602160248201527f546f704e4d61726b6574436170496e6465783a20494e56414c49445f415353456044820152601560fa1b60648201526084016107d3565b6000836111ff576111f88660ff612c08565b9050611241565b886020015160ff80168a60600151868151811061121e5761121e612ca2565b6020026020010151604001516112349190612bd2565b61123e9190612bb0565b90505b6001600160a01b0383166000908152600a60205260409020805460ff191660ff83161790556112708187612b8b565b955060ff81161561128c57611286600884611e94565b50611299565b611297600884611e7f565b505b600080516020612cf583398151915283826040516112b8929190612922565b60405180910390a150604051636d0224df60e11b81526000906001600160a01b038c169063da0449be906112f090869060040161290e565b602060405180830381600087803b15801561130a57600080fd5b505af115801561131e573d6000803e3d6000fd5b505050506040513d601f19601f8201168201806040525081019061134291906127e4565b6001600160a01b0384166000908152600a602052604081205491925090600160701b90839060ff906113769082168f612bd2565b6113809190612bb0565b61138a9190612bd2565b6113949190612bb0565b6040516365df6f8b60e11b81523060048201526024810182905290915060009081906001600160a01b0386169063cbbedf1690604401604080518083038186803b1580156113e157600080fd5b505afa1580156113f5573d6000803e3d6000fd5b505050506040513d601f19601f82011682018060405250810190611419919061281f565b9150915080821115611498576001600160a01b038b166398edd87c8b886114408587612bf1565b60016040518563ffffffff1660e01b81526004016114619493929190612aaf565b600060405180830381600087803b15801561147b57600080fd5b505af115801561148f573d6000803e3d6000fd5b5050505061150f565b8181111561150f576001600160a01b038b166398edd87c8b886114bb8686612bf1565b60006040518563ffffffff1660e01b81526004016114dc9493929190612aaf565b600060405180830381600087803b1580156114f657600080fd5b505af115801561150a573d6000803e3d6000fd5b505050505b505050505b5050508061152190612c5b565b9050610ea6565b50509151600e5550505050565b6002600b5414156115585760405162461bcd60e51b81526004016107d390612a78565b6002600b556006546040805163583def7b60e11b8152905160009283926001600160a01b039091169163b07bdef69160048082019260209290919082900301818787803b1580156115a857600080fd5b505af11580156115bc573d6000803e3d6000fd5b505050506040513d601f19601f820116820180604052508101906115e09190612488565b6001600160a01b0316836040516024016115fa919061290e565b60408051601f198184030181529181526020820180516001600160e01b031663226bf2d160e21b1790525161162f91906128f2565b600060405180830381855af49150503d806000811461166a576040519150601f19603f3d011682016040523d82523d6000602084013e61166f565b606091505b50915091508161094c5780516109445760405162461bcd60e51b815260206004820152601660248201527510985cd9525b99195e0e881095549397d1905253115160521b60448201526064016107d3565b60065460405163554f94ab60e01b81526060916001600160a01b03169063554f94ab9061048190309060040161290e565b60006104d56008611dbe565b60006104e7338484611dec565b6004546001600160a01b031633146117345760405162461bcd60e51b81526004016107d390612a41565b6001600160a01b03811661175a5760405162461bcd60e51b81526004016107d390612a0f565b6000805b868110156118955760008161177460018a612bf1565b61177e9190612bf1565b9050600089898381811061179457611794612ca2565b90506020020160208101906117a9919061246b565b90506000826117c4576117bd8560ff612c08565b90506117f7565b8660ff8a8a868181106117d9576117d9612ca2565b905060200201356117ea9190612bd2565b6117f49190612bb0565b90505b6001600160a01b0382166000818152600a60205260409020805460ff191660ff84161790556118385760405162461bcd60e51b81526004016107d390612a0f565b60ff8116156118815761184c600883611e94565b506118578186612b8b565b9450600080516020612cf58339815191528282604051611878929190612922565b60405180910390a15b5050508061188e90612c5b565b905061175e565b5050600e96909655505050600d9390935550600c8054600161ff0160a01b031916600160a81b60ff95909516949094026001600160a01b031916939093176001600160a01b039091161790915550565b600654604051632474521560e21b81526001600160a01b03909116906391d1485490611937907f1916b456004f332cd8a19679364ef4be668619658be72c17b7e86697c4ae0f169033906004016129c5565b60206040518083038186803b15801561194f57600080fd5b505afa158015611963573d6000803e3d6000fd5b505050506040513d601f19601f8201168201806040525081019061198791906125d6565b6119d35760405162461bcd60e51b815260206004820152601a60248201527f476f7665726e61626c65496e6465783a20464f5242494444454e00000000000060448201526064016107d3565b600660009054906101000a90046001600160a01b03166001600160a01b031663ae2e933b6040518163ffffffff1660e01b815260040160206040518083038186803b158015611a2157600080fd5b505afa158015611a35573d6000803e3d6000fd5b505050506040513d601f19601f82011682018060405250810190611a599190612488565b600c546040516306b0e67560e01b81523060048201526001600160a01b03918216602482015283821660448201529116906306b0e67590606401600060405180830381600087803b158015611aad57600080fd5b505af1158015611ac1573d6000803e3d6000fd5b5050600c80546001600160a01b0319166001600160a01b03851617905550506040517fbce074c8369e26e70e1ae2f14fc944da352cfe6f52e2de9572f0c9942a24b7fc90611b1090839061290e565b60405180910390a150565b42841015611b635760405162461bcd60e51b8152602060048201526015602482015274141a1d5d1d5c99515490cc8c0e8811561412549151605a1b60448201526064016107d3565b6000611b6d610707565b6001600160a01b038916600090815260036020526040812080547f6e71edae12b1b97f4d1f60370fef10105fa2faae0126114a169c64845d6126c9928c928c928c92909190611bbb83612c5b565b909155506040805160208101969096526001600160a01b0394851690860152929091166060840152608083015260a082015260c0810187905260e00160405160208183030381529060405280519060200120604051602001611c3492919061190160f01b81526002810192909252602282015260420190565b60408051601f198184030181528282528051602091820120600080855291840180845281905260ff88169284019290925260608301869052608083018590529092509060019060a0016020604051602081039080840390855afa158015611c9f573d6000803e3d6000fd5b5050604051601f1901519150506001600160a01b03811615801590611cd55750886001600160a01b0316816001600160a01b0316145b611d215760405162461bcd60e51b815260206004820152601f60248201527f5068757475726545524332303a20494e56414c49445f5349474e41545552450060448201526064016107d3565b611d2c898989611d5c565b505050505050505050565b60006001600160e01b03198216636da7722160e11b148061044a575061044a82611ea9565b6001600160a01b0383811660008181526002602090815260408083209487168084529482529182902085905590518481527f8c5be1e5ebec7d5bd14f71427d1e84f3dd0314c0f7b2291e5b200ac8c7c3b92591015b60405180910390a3505050565b600061044a825490565b6000818310611dd75781611dd9565b825b9392505050565b6000611dd98383611ece565b6006546040805163ae2e933b60e01b81529051611e6f926001600160a01b03169163ae2e933b916004808301926020929190829003018186803b158015611e3257600080fd5b505afa158015611e46573d6000803e3d6000fd5b505050506040513d601f19601f82011682018060405250810190611e6a9190612488565b611ef8565b611e7a83838361201f565b505050565b6000611dd9836001600160a01b03841661210b565b6000611dd9836001600160a01b0384166121fe565b60006001600160e01b03198216630b231bcb60e31b148061044a575061044a8261224d565b6000826000018281548110611ee557611ee5612ca2565b9060005260206000200154905092915050565b600060075442611f089190612bf1565b9050801561201b5760006b033b2e3c9fd0803ce800000080611fb2856001600160a01b0316635612e00b306040518263ffffffff1660e01b8152600401611f4f919061290e565b60206040518083038186803b158015611f6757600080fd5b505afa158015611f7b573d6000803e3d6000fd5b505050506040513d601f19601f82011682018060405250810190611f9f91906127e4565b856b033b2e3c9fd0803ce8000000612272565b611fbc9190612bf1565b6004546001600160a01b03166000908152600160205260408120549054611fe39190612bf1565b611fed9190612bd2565b611ff79190612bb0565b90508015611e7a57600454612015906001600160a01b031682612330565b42600755505b5050565b6001600160a01b03821661206a5760405162461bcd60e51b81526020600482015260126024820152715068757475726545524332303a205a45524f60701b60448201526064016107d3565b6001600160a01b03831660009081526001602052604081208054839290612092908490612bf1565b90915550506001600160a01b038216600090815260016020526040812080548392906120bf908490612b73565b92505081905550816001600160a01b0316836001600160a01b03167fddf252ad1be2c89b69c2b068fc378daa952ba7f163c4a11628f55a4df523b3ef83604051611db191815260200190565b600081815260018301602052604081205480156121f457600061212f600183612bf1565b855490915060009061214390600190612bf1565b90508181146121a857600086600001828154811061216357612163612ca2565b906000526020600020015490508087600001848154811061218657612186612ca2565b6000918252602080832090910192909255918252600188019052604090208390555b85548690806121b9576121b9612c8c565b60019003818190600052602060002001600090559055856001016000868152602001908152602001600020600090556001935050505061044a565b600091505061044a565b60008181526001830160205260408120546122455750815460018181018455600084815260208082209093018490558454848252828601909352604090209190915561044a565b50600061044a565b60006001600160e01b03198216634bcbd0ef60e11b148061044a575061044a826123ba565b60008380156123125760018416801561228d57859250612291565b8392505b50600283046002850494505b841561230c5785860286878204146122b457600080fd5b818101818110156122c457600080fd5b85900496505060018516156123015785830283878204141587151516156122ea57600080fd5b818101818110156122fa57600080fd5b8590049350505b60028504945061229d565b50612328565b8380156123225760009250612326565b8392505b505b509392505050565b6001600160a01b03821660009081526001602052604081208054839290612358908490612b73565b92505081905550806000808282546123709190612b73565b90915550506040518181526001600160a01b038316906000907fddf252ad1be2c89b69c2b068fc378daa952ba7f163c4a11628f55a4df523b3ef9060200160405180910390a35050565b60006001600160e01b031982166336372b0760e01b14806123eb57506001600160e01b0319821663390c84e760e01b145b8061044a57506301ffc9a760e01b6001600160e01b031983161461044a565b60008083601f84011261241c57600080fd5b5081356001600160401b0381111561243357600080fd5b6020830191508360208260051b850101111561244e57600080fd5b9250929050565b803560ff8116811461246657600080fd5b919050565b60006020828403121561247d57600080fd5b8135611dd981612cce565b60006020828403121561249a57600080fd5b8151611dd981612cce565b600080604083850312156124b857600080fd5b82356124c381612cce565b915060208301356124d381612cce565b809150509250929050565b6000806000606084860312156124f357600080fd5b83356124fe81612cce565b9250602084013561250e81612cce565b929592945050506040919091013590565b600080600080600080600060e0888a03121561253a57600080fd5b873561254581612cce565b9650602088013561255581612cce565b9550604088013594506060880135935061257160808901612455565b925060a0880135915060c0880135905092959891949750929550565b600080604083850312156125a057600080fd5b82356125ab81612cce565b946020939093013593505050565b6000602082840312156125cb57600080fd5b8135611dd981612ce6565b6000602082840312156125e857600080fd5b8151611dd981612ce6565b60006020828403121561260557600080fd5b81356001600160e01b031981168114611dd957600080fd5b60006020828403121561262f57600080fd5b81516001600160401b038082111561264657600080fd5b818401915084601f83011261265a57600080fd5b81518181111561266c5761266c612cb8565b61267f601f8201601f1916602001612b43565b915080825285602082850101111561269657600080fd5b6126a7816020840160208601612c2b565b50949350505050565b600060208083850312156126c357600080fd5b82516001600160401b03808211156126da57600080fd5b90840190608082870312156126ee57600080fd5b6126f6612af9565b825181528383015184820152604080840151818301526060808501518481111561271f57600080fd5b80860195505088601f86011261273457600080fd5b84518481111561274657612746612cb8565b612754878260051b01612b43565b8181528781019550868801838302880189018c101561277257600080fd5b60009750875b838110156127ce5784828e03121561278e578889fd5b612796612b21565b82516127a181612cce565b8152828b01516127b081612ce6565b818c0152828701518782015288529689019690840190600101612778565b5050918401919091525090979650505050505050565b6000602082840312156127f657600080fd5b5051919050565b6000806040838503121561281057600080fd5b50508035926020909101359150565b6000806040838503121561283257600080fd5b505080516020909101519092909150565b600080600080600080600080600060e08a8c03121561286157600080fd5b61286a8a612455565b985060208a0135975060408a0135965060608a01356001600160401b038082111561289457600080fd5b6128a08d838e0161240a565b909850965060808c01359150808211156128b957600080fd5b506128c68c828d0161240a565b90955093505060a08a0135915060c08a01356128e181612cce565b809150509295985092959850929598565b60008251612904818460208701612c2b565b9190910192915050565b6001600160a01b0391909116815260200190565b6001600160a01b0392909216825260ff16602082015260400190565b604080825283519082018190526000906020906060840190828701845b828110156129805781516001600160a01b03168452928401929084019060010161295b565b5050508381038285015284518082528583019183019060005b818110156129b857835160ff1683529284019291840191600101612999565b5090979650505050505050565b9182526001600160a01b0316602082015260400190565b60208152600082518060208401526129fb816040850160208701612c2b565b601f01601f19169190910160400192915050565b602080825260189082015277546f704e4d61726b6574436170496e6465783a205a45524f60401b604082015260600190565b6020808252601d908201527f546f704e4d61726b6574436170496e6465783a20464f5242494444454e000000604082015260600190565b6020808252601f908201527f5265656e7472616e637947756172643a207265656e7472616e742063616c6c00604082015260600190565b8481526001600160a01b0384166020820152604081018390526080810160028310612aea57634e487b7160e01b600052602160045260246000fd5b82606083015295945050505050565b604051608081016001600160401b0381118282101715612b1b57612b1b612cb8565b60405290565b604051606081016001600160401b0381118282101715612b1b57612b1b612cb8565b604051601f8201601f191681016001600160401b0381118282101715612b6b57612b6b612cb8565b604052919050565b60008219821115612b8657612b86612c76565b500190565b600060ff821660ff84168060ff03821115612ba857612ba8612c76565b019392505050565b600082612bcd57634e487b7160e01b600052601260045260246000fd5b500490565b6000816000190483118215151615612bec57612bec612c76565b500290565b600082821015612c0357612c03612c76565b500390565b600060ff821660ff841680821015612c2257612c22612c76565b90039392505050565b60005b83811015612c46578181015183820152602001612c2e565b83811115612c55576000848401525b50505050565b6000600019821415612c6f57612c6f612c76565b5060010190565b634e487b7160e01b600052601160045260246000fd5b634e487b7160e01b600052603160045260246000fd5b634e487b7160e01b600052603260045260246000fd5b634e487b7160e01b600052604160045260246000fd5b6001600160a01b0381168114612ce357600080fd5b50565b8015158114612ce357600080fdfe570021dbfc0c0d1b83293d5c8ce73e7cef80870624da237d3e4bc6bda4abab58a264697066735822122081a577708b30465ae651a6a7993203faac96540a359bd0c27561993f0faab02464736f6c63430008070033a264697066735822122020510d1abb2069e3b853f9fc8c11dfc508d52348e294d6df260996fd3c25306364736f6c63430008070033",
  "linkReferences": {},
  "deployedLinkReferences": {}
}