{
  "_format": "hh-sol-artifact-1",
  "contractName": "TrackedIndex",
  "sourceName": "contracts/TrackedIndex.sol",
  "abi": [
    {
      "inputs": [],
      "stateMutability": "nonpayable",
      "type": "constructor"
    },
    {
      "anonymous": false,
      "inputs": [
        {
          "indexed": true,
          "internalType": "address",
          "name": "owner",
          "type": "address"
        },
        {
          "indexed": true,
          "internalType": "address",
          "name": "spender",
          "type": "address"
        },
        {
          "indexed": false,
          "internalType": "uint256",
          "name": "value",
          "type": "uint256"
        }
      ],
      "name": "Approval",
      "type": "event"
    },
    {
      "anonymous": false,
      "inputs": [
        {
          "indexed": false,
          "internalType": "address",
          "name": "governor",
          "type": "address"
        }
      ],
      "name": "SetGovernor",
      "type": "event"
    },
    {
      "anonymous": false,
      "inputs": [
        {
          "indexed": true,
          "internalType": "address",
          "name": "from",
          "type": "address"
        },
        {
          "indexed": true,
          "internalType": "address",
          "name": "to",
          "type": "address"
        },
        {
          "indexed": false,
          "internalType": "uint256",
          "name": "value",
          "type": "uint256"
        }
      ],
      "name": "Transfer",
      "type": "event"
    },
    {
      "anonymous": false,
      "inputs": [
        {
          "indexed": false,
          "internalType": "address[]",
          "name": "assets",
          "type": "address[]"
        },
        {
          "indexed": false,
          "internalType": "uint8[]",
          "name": "weights",
          "type": "uint8[]"
        }
      ],
      "name": "UpdateAnatomy",
      "type": "event"
    },
    {
      "inputs": [],
      "name": "DOMAIN_SEPARATOR",
      "outputs": [
        {
          "internalType": "bytes32",
          "name": "",
          "type": "bytes32"
        }
      ],
      "stateMutability": "view",
      "type": "function"
    },
    {
      "inputs": [],
      "name": "PERMIT_TYPEHASH",
      "outputs": [
        {
          "internalType": "bytes32",
          "name": "",
          "type": "bytes32"
        }
      ],
      "stateMutability": "view",
      "type": "function"
    },
    {
      "inputs": [],
      "name": "V_TOKEN_TYPE",
      "outputs": [
        {
          "internalType": "bytes32",
          "name": "",
          "type": "bytes32"
        }
      ],
      "stateMutability": "view",
      "type": "function"
    },
    {
      "inputs": [
        {
          "internalType": "address",
          "name": "",
          "type": "address"
        },
        {
          "internalType": "address",
          "name": "",
          "type": "address"
        }
      ],
      "name": "allowance",
      "outputs": [
        {
          "internalType": "uint256",
          "name": "",
          "type": "uint256"
        }
      ],
      "stateMutability": "view",
      "type": "function"
    },
    {
      "inputs": [
        {
          "internalType": "uint256",
          "name": "_offset",
          "type": "uint256"
        },
        {
          "internalType": "uint256",
          "name": "_count",
          "type": "uint256"
        }
      ],
      "name": "anatomyForRange",
      "outputs": [
        {
          "internalType": "address[]",
          "name": "_assets",
          "type": "address[]"
        },
        {
          "internalType": "uint8[]",
          "name": "_weights",
          "type": "uint8[]"
        }
      ],
      "stateMutability": "view",
      "type": "function"
    },
    {
      "inputs": [
        {
          "internalType": "address",
          "name": "spender",
          "type": "address"
        },
        {
          "internalType": "uint256",
          "name": "value",
          "type": "uint256"
        }
      ],
      "name": "approve",
      "outputs": [
        {
          "internalType": "bool",
          "name": "",
          "type": "bool"
        }
      ],
      "stateMutability": "nonpayable",
      "type": "function"
    },
    {
      "inputs": [
        {
          "internalType": "address",
          "name": "",
          "type": "address"
        }
      ],
      "name": "balanceOf",
      "outputs": [
        {
          "internalType": "uint256",
          "name": "",
          "type": "uint256"
        }
      ],
      "stateMutability": "view",
      "type": "function"
    },
    {
      "inputs": [
        {
          "internalType": "address",
          "name": "_recipient",
          "type": "address"
        }
      ],
      "name": "burn",
      "outputs": [],
      "stateMutability": "nonpayable",
      "type": "function"
    },
    {
      "inputs": [],
      "name": "decimals",
      "outputs": [
        {
          "internalType": "uint8",
          "name": "",
          "type": "uint8"
        }
      ],
      "stateMutability": "view",
      "type": "function"
    },
    {
      "inputs": [],
      "name": "factory",
      "outputs": [
        {
          "internalType": "address",
          "name": "",
          "type": "address"
        }
      ],
      "stateMutability": "view",
      "type": "function"
    },
    {
      "inputs": [],
      "name": "getAssetCount",
      "outputs": [
        {
          "internalType": "uint256",
          "name": "",
          "type": "uint256"
        }
      ],
      "stateMutability": "view",
      "type": "function"
    },
    {
      "inputs": [],
      "name": "governor",
      "outputs": [
        {
          "internalType": "address",
          "name": "",
          "type": "address"
        }
      ],
      "stateMutability": "view",
      "type": "function"
    },
    {
      "inputs": [
        {
          "internalType": "address[]",
          "name": "_assets",
          "type": "address[]"
        },
        {
          "internalType": "uint256[]",
          "name": "_capitalizations",
          "type": "uint256[]"
        },
        {
          "internalType": "uint256",
          "name": "_totalCapitalization",
          "type": "uint256"
        },
        {
          "internalType": "address",
          "name": "_governor",
          "type": "address"
        }
      ],
      "name": "initialize",
      "outputs": [],
      "stateMutability": "nonpayable",
      "type": "function"
    },
    {
      "inputs": [
        {
          "internalType": "address",
          "name": "_recipient",
          "type": "address"
        }
      ],
      "name": "mint",
      "outputs": [],
      "stateMutability": "nonpayable",
      "type": "function"
    },
    {
      "inputs": [],
      "name": "name",
      "outputs": [
        {
          "internalType": "string",
          "name": "",
          "type": "string"
        }
      ],
      "stateMutability": "view",
      "type": "function"
    },
    {
      "inputs": [
        {
          "internalType": "address",
          "name": "",
          "type": "address"
        }
      ],
      "name": "nonces",
      "outputs": [
        {
          "internalType": "uint256",
          "name": "",
          "type": "uint256"
        }
      ],
      "stateMutability": "view",
      "type": "function"
    },
    {
      "inputs": [
        {
          "internalType": "address",
          "name": "owner",
          "type": "address"
        },
        {
          "internalType": "address",
          "name": "spender",
          "type": "address"
        },
        {
          "internalType": "uint256",
          "name": "value",
          "type": "uint256"
        },
        {
          "internalType": "uint256",
          "name": "deadline",
          "type": "uint256"
        },
        {
          "internalType": "uint8",
          "name": "v",
          "type": "uint8"
        },
        {
          "internalType": "bytes32",
          "name": "r",
          "type": "bytes32"
        },
        {
          "internalType": "bytes32",
          "name": "s",
          "type": "bytes32"
        }
      ],
      "name": "permit",
      "outputs": [],
      "stateMutability": "nonpayable",
      "type": "function"
    },
    {
      "inputs": [],
      "name": "registry",
      "outputs": [
        {
          "internalType": "address",
          "name": "",
          "type": "address"
        }
      ],
      "stateMutability": "view",
      "type": "function"
    },
    {
      "inputs": [],
      "name": "reweight",
      "outputs": [],
      "stateMutability": "nonpayable",
      "type": "function"
    },
    {
      "inputs": [
        {
          "internalType": "address",
          "name": "_governor",
          "type": "address"
        }
      ],
      "name": "setGovernor",
      "outputs": [],
      "stateMutability": "nonpayable",
      "type": "function"
    },
    {
      "inputs": [],
      "name": "symbol",
      "outputs": [
        {
          "internalType": "string",
          "name": "",
          "type": "string"
        }
      ],
      "stateMutability": "view",
      "type": "function"
    },
    {
      "inputs": [],
      "name": "totalSupply",
      "outputs": [
        {
          "internalType": "uint256",
          "name": "",
          "type": "uint256"
        }
      ],
      "stateMutability": "view",
      "type": "function"
    },
    {
      "inputs": [
        {
          "internalType": "address",
          "name": "to",
          "type": "address"
        },
        {
          "internalType": "uint256",
          "name": "value",
          "type": "uint256"
        }
      ],
      "name": "transfer",
      "outputs": [
        {
          "internalType": "bool",
          "name": "",
          "type": "bool"
        }
      ],
      "stateMutability": "nonpayable",
      "type": "function"
    },
    {
      "inputs": [
        {
          "internalType": "address",
          "name": "from",
          "type": "address"
        },
        {
          "internalType": "address",
          "name": "to",
          "type": "address"
        },
        {
          "internalType": "uint256",
          "name": "value",
          "type": "uint256"
        }
      ],
      "name": "transferFrom",
      "outputs": [
        {
          "internalType": "bool",
          "name": "",
          "type": "bool"
        }
      ],
      "stateMutability": "nonpayable",
      "type": "function"
    },
    {
      "inputs": [],
      "name": "vTokenFactory",
      "outputs": [
        {
          "internalType": "address",
          "name": "",
          "type": "address"
        }
      ],
      "stateMutability": "view",
      "type": "function"
    }
  ],
  "bytecode": "0x60e06040526000805460ff191660121790553480156200001e57600080fd5b50600160055533606081901b6080524260065560408051637b10399960e01b8152905182918291637b10399991600480820192602092909190829003018186803b1580156200006c57600080fd5b505afa15801562000081573d6000803e3d6000fd5b505050506040513d601f19601f82011682018060405250810190620000a7919062000151565b6001600160a01b031660c0816001600160a01b031660601b81525050806001600160a01b03166328dd99126040518163ffffffff1660e01b815260040160206040518083038186803b158015620000fd57600080fd5b505afa15801562000112573d6000803e3d6000fd5b505050506040513d601f19601f8201168201806040525081019062000138919062000151565b60601b6001600160601b03191660a05250620001839050565b6000602082840312156200016457600080fd5b81516001600160a01b03811681146200017c57600080fd5b9392505050565b60805160601c60a05160601c60c05160601c61385f62000264600039600081816102d6015281816103fd01528181610abf01528181610b5d01528181610c94015281816112c201528181611369015281816113ff0152818161153a015281816119b301528181611ebc01528181611f8f015281816120f2015281816121a90152818161258b01528181612612015281816126b70152612adc01526000818161022e01528181610e59015281816116ca01528181611bbf015261227d01526000818161036e0152818161064a01528181612c4e0152612cab015261385f6000f3fe608060405234801561001057600080fd5b50600436106101635760003560e01c806370a08231116100ce578063a0aead4d11610087578063a0aead4d1461033b578063a9059cbb14610343578063c42cf53514610356578063c45a015514610369578063d505accf14610390578063dc18ed26146103a3578063dd62ed3e146103b857600080fd5b806370a08231146102b15780637b103999146102d15780637ecebe00146102f8578063849feb6b1461031857806389afcb441461032057806395d89b411461033357600080fd5b806323b872dd1161012057806323b872dd1461021657806328dd99121461022957806330adf81f14610250578063313ce567146102775780633644e515146102965780636a6278421461029e57600080fd5b806306fdde0314610168578063095ea7b3146101865780630c340a24146101a957806318160ddd146101c95780631a7bc013146101e0578063228835ac14610201575b600080fd5b6101706103e3565b60405161017d91906134f6565b60405180910390f35b61019961019436600461315e565b61048b565b604051901515815260200161017d565b6007546101bc906001600160a01b031681565b60405161017d9190613445565b6101d260015481565b60405190815260200161017d565b6101f36101ee3660046133bb565b6104a2565b60405161017d929190613485565b61021461020f36600461318a565b61063f565b005b6101996102243660046130a6565b61096d565b6101bc7f000000000000000000000000000000000000000000000000000000000000000081565b6101d27f6e71edae12b1b97f4d1f60370fef10105fa2faae0126114a169c64845d6126c981565b6000546102849060ff1681565b60405160ff909116815260200161017d565b6101d26109e7565b6102146102ac366004613033565b610a90565b6101d26102bf366004613033565b60026020526000908152604090205481565b6101bc7f000000000000000000000000000000000000000000000000000000000000000081565b6101d2610306366004613033565b60046020526000908152604090205481565b610214611289565b61021461032e366004613033565b611e45565b610170612571565b6101d26125c0565b61019961035136600461315e565b6125cc565b610214610364366004613033565b6125d9565b6101bc7f000000000000000000000000000000000000000000000000000000000000000081565b61021461039e3660046130e7565b612809565b6101d26000805160206137ca83398151915281565b6101d26103c636600461306d565b600360209081526000928352604080842090915290825290205481565b60405163ed3b559f60e01b81526060906001600160a01b037f0000000000000000000000000000000000000000000000000000000000000000169063ed3b559f90610432903090600401613445565b60006040518083038186803b15801561044a57600080fd5b505afa15801561045e573d6000803e3d6000fd5b505050506040513d6000823e601f3d908101601f1916820160405261048691908101906132eb565b905090565b6000610498338484612a25565b5060015b92915050565b6060806104af6008612a87565b8410156104d9576104d4846104c46008612a87565b6104ce91906136d4565b84612a91565b6104dc565b60005b6001600160401b038111156104f3576104f361379b565b60405190808252806020026020018201604052801561051c578160200160208202803683370190505b50915081516001600160401b038111156105385761053861379b565b604051908082528060200260200182016040528015610561578160200160208202803683370190505b50905060005b82518110156106375761058561057d8287613656565b600890612aa9565b83828151811061059757610597613785565b60200260200101906001600160a01b031690816001600160a01b031681525050600a60008483815181106105cd576105cd613785565b60200260200101516001600160a01b03166001600160a01b0316815260200190815260200160002060009054906101000a900460ff1682828151811061061557610615613785565b60ff909216602092830291909101909101526106308161373e565b9050610567565b509250929050565b336001600160a01b037f000000000000000000000000000000000000000000000000000000000000000016146106b65760405162461bcd60e51b81526020600482015260176024820152762a3930b1b5b2b224b73232bc1d102327a92124a22222a760491b60448201526064015b60405180910390fd5b600080858560008181106106cc576106cc613785565b905060200201359050600080898990506001600160401b038111156106f3576106f361379b565b60405190808252806020026020018201604052801561071c578160200160208202803683370190505b50905060005b898110156108485760008b8b8381811061073e5761073e613785565b90506020020160208101906107539190613033565b905060008860ff8c8c8681811061076c5761076c613785565b9050602002013561077d91906136b5565b6107879190613693565b9050858b8b8581811061079c5761079c613785565b9050602002013511156107c8578a8a848181106107bb576107bb613785565b9050602002013595508294505b6001600160a01b0382166000908152600a60205260409020805460ff191660ff831690811790915515610802576107ff818861366e565b96505b61080d600883612ab5565b508084848151811061082157610821613785565b602002602001019060ff16908160ff16815250505050806108419061373e565b9050610722565b5060ff84811610156109045760006108618560ff6136eb565b905080600a60008d8d8781811061087a5761087a613785565b905060200201602081019061088f9190613033565b6001600160a01b031681526020810191909152604001600090812080549091906108bd90849060ff1661366e565b92506101000a81548160ff021916908360ff160217905550808284815181106108e8576108e8613785565b602002602001018181516108fc919061366e565b60ff16905250505b600780546001600160a01b0319166001600160a01b0387161790557ff7a52f24d20b038b2ecfdb7a08e7d847016833c370e38b3b59677783ee4718cb61094a6008612aca565b82604051610959929190613485565b60405180910390a150505050505050505050565b6001600160a01b0383166000908152600360209081526040808320338452909152812054600019146109d2576001600160a01b0384166000908152600360209081526040808320338452909152812080548492906109cc9084906136d4565b90915550505b6109dd848484612ad7565b5060019392505050565b60007f8b73c3c69bb8fe3d512ecc4cf759cc79239f7b179b0ffacaa9a75d522b39400f610a126103e3565b805160209182012060408051808201825260018152603160f81b90840152805192830193909352918101919091527fc89efdaa54c0f20c7adf612882df0950f5a951637e0307cdcb4c672f298b8bc660608201524660808201523060a082015260c00160405160208183030381529060405280519060200120905090565b60026005541415610ab35760405162461bcd60e51b81526004016106ad906135a5565b600260058190555060007f00000000000000000000000000000000000000000000000000000000000000006001600160a01b031663ae2e933b6040518163ffffffff1660e01b815260040160206040518083038186803b158015610b1657600080fd5b505afa158015610b2a573d6000803e3d6000fd5b505050506040513d601f19601f82011682018060405250810190610b4e9190613050565b9050610b5981612b80565b60007f00000000000000000000000000000000000000000000000000000000000000006001600160a01b0316632630c12f6040518163ffffffff1660e01b815260040160206040518083038186803b158015610bb457600080fd5b505afa158015610bc8573d6000803e3d6000fd5b505050506040513d601f19601f82011682018060405250810190610bec9190613050565b90506000826001600160a01b0316635ad88c1a306040518263ffffffff1660e01b8152600401610c1c9190613445565b60206040518083038186803b158015610c3457600080fd5b505afa158015610c48573d6000803e3d6000fd5b505050506040513d601f19601f82011682018060405250810190610c6c919061337e565b61ffff1690506000600019815b610c836008612a87565b8110156111d7576001600160a01b037f0000000000000000000000000000000000000000000000000000000000000000166391d148546000805160206137ea833981519152610cd3600885612aa9565b6040518363ffffffff1660e01b8152600401610cf09291906134df565b60206040518083038186803b158015610d0857600080fd5b505afa158015610d1c573d6000803e3d6000fd5b505050506040513d601f19601f82011682018060405250810190610d4091906132c9565b610d8c5760405162461bcd60e51b815260206004820152601f60248201527f4261736544796e616d6963496e6465783a20494e56414c49445f41535345540060448201526064016106ad565b600a6000610d9b600884612aa9565b6001600160a01b0316815260208101919091526040016000205460ff16610dc1576111c7565b60006001600160a01b03861663da0449be610ddd600885612aa9565b6040518263ffffffff1660e01b8152600401610df99190613445565b602060405180830381600087803b158015610e1357600080fd5b505af1158015610e27573d6000803e3d6000fd5b505050506040513d601f19601f82011682018060405250810190610e4b91906133a2565b905060006001600160a01b037f00000000000000000000000000000000000000000000000000000000000000001663af86dd46610e89600886612aa9565b6000805160206137ca8339815191526040518363ffffffff1660e01b8152600401610eb5929190613459565b602060405180830381600087803b158015610ecf57600080fd5b505af1158015610ee3573d6000803e3d6000fd5b505050506040513d601f19601f82011682018060405250810190610f079190613050565b90506000816001600160a01b0316638f1c56bd6040518163ffffffff1660e01b815260040160206040518083038186803b158015610f4457600080fd5b505afa158015610f58573d6000803e3d6000fd5b505050506040513d601f19601f82011682018060405250810190610f7c91906133a2565b610f87600886612aa9565b6001600160a01b03166370a08231846040518263ffffffff1660e01b8152600401610fb29190613445565b60206040518083038186803b158015610fca57600080fd5b505afa158015610fde573d6000803e3d6000fd5b505050506040513d601f19601f8201168201806040525081019061100291906133a2565b61100c91906136d4565b90506000600a8161101e600888612aa9565b6001600160a01b031681526020810191909152604001600020546110459060ff16856136b5565b905060008160ff61105a600160701b866136b5565b61106491906136b5565b61106e9190613693565b90508681101561107c578096505b604051622f4f0f60ea1b81526000906001600160a01b0386169063bd3c3c00906110aa903090600401613445565b60206040518083038186803b1580156110c257600080fd5b505afa1580156110d6573d6000803e3d6000fd5b505050506040513d601f19601f820116820180604052508101906110fa91906133a2565b9050846001600160a01b0316631249c58b6040518163ffffffff1660e01b8152600401602060405180830381600087803b15801561113757600080fd5b505af115801561114b573d6000803e3d6000fd5b505050506040513d601f19601f8201168201806040525081019061116f91906133a2565b50600061271061117f8c876136b5565b6111899190613693565b6111939083613656565b90506000876111a6600160701b846136b5565b6111b09190613693565b90506111bc818c613656565b9a5050505050505050505b6111d08161373e565b9050610c79565b506000198114156111ea576111ea613759565b600060015460001461123657600083116112165760405162461bcd60e51b81526004016106ad90613529565b826001548361122591906136b5565b61122f9190613693565b9050611251565b611242612710836136d4565b90506112516000612710612cda565b600081116112715760405162461bcd60e51b81526004016106ad90613529565b61127b8782612cda565b505060016005555050505050565b604051632474521560e21b81527f21702c8af46127c7fa207f89d0b0a8441bb32959a0ac7df790e9ab1a25c98926906001600160a01b037f000000000000000000000000000000000000000000000000000000000000000016906391d14854906112f990849033906004016134df565b60206040518083038186803b15801561131157600080fd5b505afa158015611325573d6000803e3d6000fd5b505050506040513d601f19601f8201168201806040525081019061134991906132c9565b6113655760405162461bcd60e51b81526004016106ad9061356e565b60007f00000000000000000000000000000000000000000000000000000000000000006001600160a01b0316632630c12f6040518163ffffffff1660e01b815260040160206040518083038186803b1580156113c057600080fd5b505afa1580156113d4573d6000803e3d6000fd5b505050506040513d601f19601f820116820180604052508101906113f89190613050565b90506000807f00000000000000000000000000000000000000000000000000000000000000006001600160a01b031663325a48b76114366008612aca565b6040518263ffffffff1660e01b81526004016114529190613472565b60006040518083038186803b15801561146a57600080fd5b505afa15801561147e573d6000803e3d6000fd5b505050506040513d6000823e601f3d908101601f191682016040526114a69190810190613215565b9150915060008060006114b96008612a87565b6001600160401b038111156114d0576114d061379b565b6040519080825280602002602001820160405280156114f9578160200160208202803683370190505b50905060008560008151811061151157611511613785565b602002602001015190506000805b6115296008612a87565b81101561190f576001600160a01b037f0000000000000000000000000000000000000000000000000000000000000000166391d148546000805160206137ea833981519152611579600885612aa9565b6040518363ffffffff1660e01b81526004016115969291906134df565b60206040518083038186803b1580156115ae57600080fd5b505afa1580156115c2573d6000803e3d6000fd5b505050506040513d601f19601f820116820180604052508101906115e691906132c9565b6116325760405162461bcd60e51b815260206004820152601b60248201527f547261636b6564496e6465783a20494e56414c49445f4153534554000000000060448201526064016106ad565b60006001600160a01b038a1663da0449be61164e600885612aa9565b6040518263ffffffff1660e01b815260040161166a9190613445565b602060405180830381600087803b15801561168457600080fd5b505af1158015611698573d6000803e3d6000fd5b505050506040513d601f19601f820116820180604052508101906116bc91906133a2565b905060006001600160a01b037f00000000000000000000000000000000000000000000000000000000000000001663af86dd466116fa600886612aa9565b6000805160206137ca8339815191526040518363ffffffff1660e01b8152600401611726929190613459565b602060405180830381600087803b15801561174057600080fd5b505af1158015611754573d6000803e3d6000fd5b505050506040513d601f19601f820116820180604052508101906117789190613050565b6001600160a01b03166306b3efd6306040518263ffffffff1660e01b81526004016117a39190613445565b60206040518083038186803b1580156117bb57600080fd5b505afa1580156117cf573d6000803e3d6000fd5b505050506040513d601f19601f820116820180604052508101906117f391906133a2565b905081611804600160701b836136b5565b61180e9190613693565b6118189089613656565b97506000611827600885612aa9565b905060008a60ff80168d878151811061184257611842613785565b602002602001015161185491906136b5565b61185e9190613693565b9050868c868151811061187357611873613785565b602002602001015111156118a1578b858151811061189357611893613785565b602002602001015196508495505b6001600160a01b0382166000908152600a60205260409020805460ff191660ff8316179055875181908990879081106118dc576118dc613785565b60ff909216602092830291909101909101526118f8818a61366e565b985050505050806119089061373e565b905061151f565b5060ff84811610156119af5760006119288560ff6136eb565b905080600a600061193a600886612aa9565b6001600160a01b0316815260208101919091526040016000908120805490919061196890849060ff1661366e565b92506101000a81548160ff021916908360ff1602179055508084838151811061199357611993613785565b602002602001018181516119a7919061366e565b60ff16905250505b60007f00000000000000000000000000000000000000000000000000000000000000006001600160a01b031663628cf32f6040518163ffffffff1660e01b815260040160206040518083038186803b158015611a0a57600080fd5b505afa158015611a1e573d6000803e3d6000fd5b505050506040513d601f19601f82011682018060405250810190611a429190613050565b90506000816001600160a01b031663f5c609e06040518163ffffffff1660e01b8152600401602060405180830381600087803b158015611a8157600080fd5b505af1158015611a95573d6000803e3d6000fd5b505050506040513d601f19601f82011682018060405250810190611ab991906133a2565b905060005b611ac86008612a87565b811015611df5576000611adc600883612aa9565b905060008c6001600160a01b031663da0449be836040518263ffffffff1660e01b8152600401611b0c9190613445565b602060405180830381600087803b158015611b2657600080fd5b505af1158015611b3a573d6000803e3d6000fd5b505050506040513d601f19601f82011682018060405250810190611b5e91906133a2565b6001600160a01b0383166000908152600a602052604081205491925090600160701b90839060ff90611b929082168f6136b5565b611b9c9190613693565b611ba691906136b5565b611bb09190613693565b90506000806001600160a01b037f00000000000000000000000000000000000000000000000000000000000000001663af86dd46611bef600889612aa9565b6000805160206137ca8339815191526040518363ffffffff1660e01b8152600401611c1b929190613459565b602060405180830381600087803b158015611c3557600080fd5b505af1158015611c49573d6000803e3d6000fd5b505050506040513d601f19601f82011682018060405250810190611c6d9190613050565b6001600160a01b031663cbbedf1630856040518363ffffffff1660e01b8152600401611c9a929190613459565b604080518083038186803b158015611cb157600080fd5b505afa158015611cc5573d6000803e3d6000fd5b505050506040513d601f19601f82011682018060405250810190611ce991906133dd565b9150915080821115611d68576001600160a01b0388166398edd87c8887611d1085876136d4565b60016040518563ffffffff1660e01b8152600401611d3194939291906135dc565b600060405180830381600087803b158015611d4b57600080fd5b505af1158015611d5f573d6000803e3d6000fd5b50505050611ddf565b81811115611ddf576001600160a01b0388166398edd87c8887611d8b86866136d4565b60006040518563ffffffff1660e01b8152600401611dac94939291906135dc565b600060405180830381600087803b158015611dc657600080fd5b505af1158015611dda573d6000803e3d6000fd5b505050505b505050505080611dee9061373e565b9050611abe565b507ff7a52f24d20b038b2ecfdb7a08e7d847016833c370e38b3b59677783ee4718cb611e216008612aca565b86604051611e30929190613485565b60405180910390a15050505050505050505050565b60026005541415611e685760405162461bcd60e51b81526004016106ad906135a5565b60026005819055306000908152602091909152604090205480611e9d5760405162461bcd60e51b81526004016106ad90613529565b6000805b611eab6008612a87565b811015611f85576001600160a01b037f0000000000000000000000000000000000000000000000000000000000000000166391d148546000805160206137ea833981519152611efb600885612aa9565b6040518363ffffffff1660e01b8152600401611f189291906134df565b60206040518083038186803b158015611f3057600080fd5b505afa158015611f44573d6000803e3d6000fd5b505050506040513d601f19601f82011682018060405250810190611f6891906132c9565b611f755760019150611f85565b611f7e8161373e565b9050611ea1565b50806120ee5760007f00000000000000000000000000000000000000000000000000000000000000006001600160a01b031663ae2e933b6040518163ffffffff1660e01b815260040160206040518083038186803b158015611fe657600080fd5b505afa158015611ffa573d6000803e3d6000fd5b505050506040513d601f19601f8201168201806040525081019061201e9190613050565b9050600061271061ffff1684836001600160a01b031663a7853436306040518263ffffffff1660e01b81526004016120569190613445565b60206040518083038186803b15801561206e57600080fd5b505afa158015612082573d6000803e3d6000fd5b505050506040513d601f19601f820116820180604052508101906120a6919061337e565b61ffff166120b491906136b5565b6120be9190613693565b905080156120e2576120d1308383612ad7565b6120db81856136d4565b93506120eb565b6120eb82612b80565b50505b60007f00000000000000000000000000000000000000000000000000000000000000006001600160a01b031663628cf32f6040518163ffffffff1660e01b815260040160206040518083038186803b15801561214957600080fd5b505afa15801561215d573d6000803e3d6000fd5b505050506040513d601f19601f820116820180604052508101906121819190613050565b905060005b6121906008612a87565b81101561255b5782801561226757506001600160a01b037f0000000000000000000000000000000000000000000000000000000000000000166391d148547f4963dcfd342c3f63bd1b992afc723ae72706277470d47567f30dfc6dcee9f11e6121fa600885612aa9565b6040518363ffffffff1660e01b81526004016122179291906134df565b60206040518083038186803b15801561222f57600080fd5b505afa158015612243573d6000803e3d6000fd5b505050506040513d601f19601f8201168201806040525081019061226791906132c9565b156122715761254b565b60006001600160a01b037f00000000000000000000000000000000000000000000000000000000000000001663af86dd466122ad600885612aa9565b6000805160206137ca8339815191526040518363ffffffff1660e01b81526004016122d9929190613459565b602060405180830381600087803b1580156122f357600080fd5b505af1158015612307573d6000803e3d6000fd5b505050506040513d601f19601f8201168201806040525081019061232b9190613050565b90506000816001600160a01b03166370a08231306040518263ffffffff1660e01b815260040161235b9190613445565b60206040518083038186803b15801561237357600080fd5b505afa158015612387573d6000803e3d6000fd5b505050506040513d601f19601f820116820180604052508101906123ab91906133a2565b9050600060015482886123be91906136b5565b6123c89190613693565b9050806123d75750505061254b565b60405163a9059cbb60e01b81526001600160a01b0384169063a9059cbb906124059086908590600401613459565b600060405180830381600087803b15801561241f57600080fd5b505af1158015612433573d6000803e3d6000fd5b505060405163226bf2d160e21b81526001600160a01b03861692506389afcb449150612463908b90600401613445565b602060405180830381600087803b15801561247d57600080fd5b505af1158015612491573d6000803e3d6000fd5b505050506040513d601f19601f820116820180604052508101906124b591906133a2565b506001600160a01b03851663cabfb7e36124d0600887612aa9565b896001546124de91906136d4565b6001546040516001600160e01b031960e086901b1681526001600160a01b03909316600484015260248301919091526044820152606401600060405180830381600087803b15801561252f57600080fd5b505af1158015612543573d6000803e3d6000fd5b505050505050505b6125548161373e565b9050612186565b506125663084612d54565b505060016005555050565b60405163554f94ab60e01b81526060906001600160a01b037f0000000000000000000000000000000000000000000000000000000000000000169063554f94ab90610432903090600401613445565b60006104866008612a87565b6000610498338484612ad7565b604051632474521560e21b81527f1916b456004f332cd8a19679364ef4be668619658be72c17b7e86697c4ae0f16906001600160a01b037f000000000000000000000000000000000000000000000000000000000000000016906391d148549061264990849033906004016134df565b60206040518083038186803b15801561266157600080fd5b505afa158015612675573d6000803e3d6000fd5b505050506040513d601f19601f8201168201806040525081019061269991906132c9565b6126b55760405162461bcd60e51b81526004016106ad9061356e565b7f00000000000000000000000000000000000000000000000000000000000000006001600160a01b031663ae2e933b6040518163ffffffff1660e01b815260040160206040518083038186803b15801561270e57600080fd5b505afa158015612722573d6000803e3d6000fd5b505050506040513d601f19601f820116820180604052508101906127469190613050565b6007546040516306b0e67560e01b81523060048201526001600160a01b03918216602482015284821660448201529116906306b0e67590606401600060405180830381600087803b15801561279a57600080fd5b505af11580156127ae573d6000803e3d6000fd5b5050600780546001600160a01b0319166001600160a01b03861617905550506040517fbce074c8369e26e70e1ae2f14fc944da352cfe6f52e2de9572f0c9942a24b7fc906127fd908490613445565b60405180910390a15050565b428410156128515760405162461bcd60e51b8152602060048201526015602482015274141a1d5d1d5c99515490cc8c0e8811561412549151605a1b60448201526064016106ad565b600061285b6109e7565b6001600160a01b038916600090815260046020526040812080547f6e71edae12b1b97f4d1f60370fef10105fa2faae0126114a169c64845d6126c9928c928c928c929091906128a98361373e565b909155506040805160208101969096526001600160a01b0394851690860152929091166060840152608083015260a082015260c0810187905260e0016040516020818303038152906040528051906020012060405160200161292292919061190160f01b81526002810192909252602282015260420190565b60408051601f198184030181528282528051602091820120600080855291840180845281905260ff88169284019290925260608301869052608083018590529092509060019060a0016020604051602081039080840390855afa15801561298d573d6000803e3d6000fd5b5050604051601f1901519150506001600160a01b038116158015906129c35750886001600160a01b0316816001600160a01b0316145b612a0f5760405162461bcd60e51b815260206004820152601f60248201527f5068757475726545524332303a20494e56414c49445f5349474e41545552450060448201526064016106ad565b612a1a898989612a25565b505050505050505050565b6001600160a01b0383811660008181526003602090815260408083209487168084529482529182902085905590518481527f8c5be1e5ebec7d5bd14f71427d1e84f3dd0314c0f7b2291e5b200ac8c7c3b92591015b60405180910390a3505050565b600061049c825490565b6000818310612aa05781612aa2565b825b9392505050565b6000612aa28383612dc6565b6000612aa2836001600160a01b038416612df0565b60606000612aa283612e3f565b612b707f00000000000000000000000000000000000000000000000000000000000000006001600160a01b031663ae2e933b6040518163ffffffff1660e01b815260040160206040518083038186803b158015612b3357600080fd5b505afa158015612b47573d6000803e3d6000fd5b505050506040513d601f19601f82011682018060405250810190612b6b9190613050565b612b80565b612b7b838383612e9b565b505050565b600060065442612b9091906136d4565b90508015612cd65760006b033b2e3c9fd0803ce800000080612c3a856001600160a01b0316635612e00b306040518263ffffffff1660e01b8152600401612bd79190613445565b60206040518083038186803b158015612bef57600080fd5b505afa158015612c03573d6000803e3d6000fd5b505050506040513d601f19601f82011682018060405250810190612c2791906133a2565b856b033b2e3c9fd0803ce8000000612f2a565b612c4491906136d4565b6001600160a01b037f000000000000000000000000000000000000000000000000000000000000000016600090815260026020526040902054600154612c8a91906136d4565b612c9491906136b5565b612c9e9190613693565b90508015612b7b57612cd07f000000000000000000000000000000000000000000000000000000000000000082612cda565b42600655505b5050565b6001600160a01b03821660009081526002602052604081208054839290612d02908490613656565b925050819055508060016000828254612d1b9190613656565b90915550506040518181526001600160a01b0383169060009060008051602061380a833981519152906020015b60405180910390a35050565b6001600160a01b03821660009081526002602052604081208054839290612d7c9084906136d4565b925050819055508060016000828254612d9591906136d4565b90915550506040518181526000906001600160a01b0384169060008051602061380a83398151915290602001612d48565b6000826000018281548110612ddd57612ddd613785565b9060005260206000200154905092915050565b6000818152600183016020526040812054612e375750815460018181018455600084815260208082209093018490558454848252828601909352604090209190915561049c565b50600061049c565b606081600001805480602002602001604051908101604052809291908181526020018280548015612e8f57602002820191906000526020600020905b815481526020019060010190808311612e7b575b50505050509050919050565b6001600160a01b03831660009081526002602052604081208054839290612ec39084906136d4565b90915550506001600160a01b03821660009081526002602052604081208054839290612ef0908490613656565b92505081905550816001600160a01b0316836001600160a01b031660008051602061380a83398151915283604051612a7a91815260200190565b6000838015612fca57600184168015612f4557859250612f49565b8392505b50600283046002850494505b8415612fc4578586028687820414612f6c57600080fd5b81810181811015612f7c57600080fd5b8590049650506001851615612fb9578583028387820414158715151615612fa257600080fd5b81810181811015612fb257600080fd5b8590049350505b600285049450612f55565b50612fe0565b838015612fda5760009250612fde565b8392505b505b509392505050565b60008083601f840112612ffa57600080fd5b5081356001600160401b0381111561301157600080fd5b6020830191508360208260051b850101111561302c57600080fd5b9250929050565b60006020828403121561304557600080fd5b8135612aa2816137b1565b60006020828403121561306257600080fd5b8151612aa2816137b1565b6000806040838503121561308057600080fd5b823561308b816137b1565b9150602083013561309b816137b1565b809150509250929050565b6000806000606084860312156130bb57600080fd5b83356130c6816137b1565b925060208401356130d6816137b1565b929592945050506040919091013590565b600080600080600080600060e0888a03121561310257600080fd5b873561310d816137b1565b9650602088013561311d816137b1565b95506040880135945060608801359350608088013560ff8116811461314157600080fd5b9699959850939692959460a0840135945060c09093013592915050565b6000806040838503121561317157600080fd5b823561317c816137b1565b946020939093013593505050565b600080600080600080608087890312156131a357600080fd5b86356001600160401b03808211156131ba57600080fd5b6131c68a838b01612fe8565b909850965060208901359150808211156131df57600080fd5b506131ec89828a01612fe8565b909550935050604087013591506060870135613207816137b1565b809150509295509295509295565b6000806040838503121561322857600080fd5b82516001600160401b038082111561323f57600080fd5b818501915085601f83011261325357600080fd5b81516020828211156132675761326761379b565b8160051b9250613278818401613626565b8281528181019085830185870184018b101561329357600080fd5b600096505b848710156132b6578051835260019690960195918301918301613298565b5097909101519698969750505050505050565b6000602082840312156132db57600080fd5b81518015158114612aa257600080fd5b6000602082840312156132fd57600080fd5b81516001600160401b038082111561331457600080fd5b818401915084601f83011261332857600080fd5b81518181111561333a5761333a61379b565b61334d601f8201601f1916602001613626565b915080825285602082850101111561336457600080fd5b61337581602084016020860161370e565b50949350505050565b60006020828403121561339057600080fd5b815161ffff81168114612aa257600080fd5b6000602082840312156133b457600080fd5b5051919050565b600080604083850312156133ce57600080fd5b50508035926020909101359150565b600080604083850312156133f057600080fd5b505080516020909101519092909150565b600081518084526020808501945080840160005b8381101561343a5781516001600160a01b031687529582019590820190600101613415565b509495945050505050565b6001600160a01b0391909116815260200190565b6001600160a01b03929092168252602082015260400190565b602081526000612aa26020830184613401565b6040815260006134986040830185613401565b82810360208481019190915284518083528582019282019060005b818110156134d257845160ff16835293830193918301916001016134b3565b5090979650505050505050565b9182526001600160a01b0316602082015260400190565b602081526000825180602084015261351581604085016020870161370e565b601f01601f19169190910160400192915050565b60208082526025908201527f4261736544796e616d6963496e6465783a20494e53554646494349454e545f416040820152641353d5539560da1b606082015260800190565b6020808252601b908201527f4261736544796e616d6963496e6465783a20464f5242494444454e0000000000604082015260600190565b6020808252601f908201527f5265656e7472616e637947756172643a207265656e7472616e742063616c6c00604082015260600190565b8481526001600160a01b038416602082015260408101839052608081016002831061361757634e487b7160e01b600052602160045260246000fd5b82606083015295945050505050565b604051601f8201601f191681016001600160401b038111828210171561364e5761364e61379b565b604052919050565b600082198211156136695761366961376f565b500190565b600060ff821660ff84168060ff0382111561368b5761368b61376f565b019392505050565b6000826136b057634e487b7160e01b600052601260045260246000fd5b500490565b60008160001904831182151516156136cf576136cf61376f565b500290565b6000828210156136e6576136e661376f565b500390565b600060ff821660ff8416808210156137055761370561376f565b90039392505050565b60005b83811015613729578181015183820152602001613711565b83811115613738576000848401525b50505050565b60006000198214156137525761375261376f565b5060010190565b634e487b7160e01b600052600160045260246000fd5b634e487b7160e01b600052601160045260246000fd5b634e487b7160e01b600052603260045260246000fd5b634e487b7160e01b600052604160045260246000fd5b6001600160a01b03811681146137c657600080fd5b5056fe8e7ab557453411baa0557b6b9366ce6b3deb7e655e18b37dac0905ba2af4c25b86d5cf0a6bdc8d859ba3bdc97043337c82a0e609035f378e419298b6a3e00ae6ddf252ad1be2c89b69c2b068fc378daa952ba7f163c4a11628f55a4df523b3efa26469706673582212209415104e499ad0cb120a93df69cb4c160aef6f01e7ab67658e09a5b478e727b664736f6c63430008070033",
  "linkReferences": {},
  "deployedLinkReferences": {}
}