{
  "_format": "hh-sol-artifact-1",
  "contractName": "TrackedIndex",
  "sourceName": "contracts/TrackedIndex.sol",
  "abi": [
    {
      "inputs": [],
      "stateMutability": "nonpayable",
      "type": "constructor"
    },
    {
      "anonymous": false,
      "inputs": [
        {
          "indexed": true,
          "internalType": "address",
          "name": "owner",
          "type": "address"
        },
        {
          "indexed": true,
          "internalType": "address",
          "name": "spender",
          "type": "address"
        },
        {
          "indexed": false,
          "internalType": "uint256",
          "name": "value",
          "type": "uint256"
        }
      ],
      "name": "Approval",
      "type": "event"
    },
    {
      "anonymous": false,
      "inputs": [
        {
          "indexed": false,
          "internalType": "address",
          "name": "governor",
          "type": "address"
        }
      ],
      "name": "SetGovernor",
      "type": "event"
    },
    {
      "anonymous": false,
      "inputs": [
        {
          "indexed": true,
          "internalType": "address",
          "name": "from",
          "type": "address"
        },
        {
          "indexed": true,
          "internalType": "address",
          "name": "to",
          "type": "address"
        },
        {
          "indexed": false,
          "internalType": "uint256",
          "name": "value",
          "type": "uint256"
        }
      ],
      "name": "Transfer",
      "type": "event"
    },
    {
      "anonymous": false,
      "inputs": [
        {
          "indexed": false,
          "internalType": "address",
          "name": "asset",
          "type": "address"
        },
        {
          "indexed": false,
          "internalType": "uint8",
          "name": "weight",
          "type": "uint8"
        }
      ],
      "name": "UpdateAnatomy",
      "type": "event"
    },
    {
      "inputs": [],
      "name": "DOMAIN_SEPARATOR",
      "outputs": [
        {
          "internalType": "bytes32",
          "name": "",
          "type": "bytes32"
        }
      ],
      "stateMutability": "view",
      "type": "function"
    },
    {
      "inputs": [],
      "name": "PERMIT_TYPEHASH",
      "outputs": [
        {
          "internalType": "bytes32",
          "name": "",
          "type": "bytes32"
        }
      ],
      "stateMutability": "view",
      "type": "function"
    },
    {
      "inputs": [
        {
          "internalType": "address",
          "name": "",
          "type": "address"
        },
        {
          "internalType": "address",
          "name": "",
          "type": "address"
        }
      ],
      "name": "allowance",
      "outputs": [
        {
          "internalType": "uint256",
          "name": "",
          "type": "uint256"
        }
      ],
      "stateMutability": "view",
      "type": "function"
    },
    {
      "inputs": [
        {
          "internalType": "uint256",
          "name": "_offset",
          "type": "uint256"
        },
        {
          "internalType": "uint256",
          "name": "_count",
          "type": "uint256"
        }
      ],
      "name": "anatomyForRange",
      "outputs": [
        {
          "internalType": "address[]",
          "name": "_assets",
          "type": "address[]"
        },
        {
          "internalType": "uint8[]",
          "name": "_weights",
          "type": "uint8[]"
        }
      ],
      "stateMutability": "view",
      "type": "function"
    },
    {
      "inputs": [
        {
          "internalType": "address",
          "name": "spender",
          "type": "address"
        },
        {
          "internalType": "uint256",
          "name": "value",
          "type": "uint256"
        }
      ],
      "name": "approve",
      "outputs": [
        {
          "internalType": "bool",
          "name": "",
          "type": "bool"
        }
      ],
      "stateMutability": "nonpayable",
      "type": "function"
    },
    {
      "inputs": [
        {
          "internalType": "address",
          "name": "",
          "type": "address"
        }
      ],
      "name": "balanceOf",
      "outputs": [
        {
          "internalType": "uint256",
          "name": "",
          "type": "uint256"
        }
      ],
      "stateMutability": "view",
      "type": "function"
    },
    {
      "inputs": [
        {
          "internalType": "address",
          "name": "_recipient",
          "type": "address"
        }
      ],
      "name": "burn",
      "outputs": [],
      "stateMutability": "nonpayable",
      "type": "function"
    },
    {
      "inputs": [],
      "name": "creditChargeDisabled",
      "outputs": [
        {
          "internalType": "bool",
          "name": "",
          "type": "bool"
        }
      ],
      "stateMutability": "view",
      "type": "function"
    },
    {
      "inputs": [],
      "name": "decimals",
      "outputs": [
        {
          "internalType": "uint8",
          "name": "",
          "type": "uint8"
        }
      ],
      "stateMutability": "view",
      "type": "function"
    },
    {
      "inputs": [],
      "name": "factory",
      "outputs": [
        {
          "internalType": "address",
          "name": "",
          "type": "address"
        }
      ],
      "stateMutability": "view",
      "type": "function"
    },
    {
      "inputs": [],
      "name": "getAssetCount",
      "outputs": [
        {
          "internalType": "uint256",
          "name": "",
          "type": "uint256"
        }
      ],
      "stateMutability": "view",
      "type": "function"
    },
    {
      "inputs": [],
      "name": "governor",
      "outputs": [
        {
          "internalType": "address",
          "name": "",
          "type": "address"
        }
      ],
      "stateMutability": "view",
      "type": "function"
    },
    {
      "inputs": [
        {
          "internalType": "address[]",
          "name": "_assets",
          "type": "address[]"
        },
        {
          "internalType": "uint256[]",
          "name": "_capitalizations",
          "type": "uint256[]"
        },
        {
          "internalType": "uint256",
          "name": "_totalCapitalization",
          "type": "uint256"
        },
        {
          "internalType": "address",
          "name": "_governor",
          "type": "address"
        }
      ],
      "name": "initialize",
      "outputs": [],
      "stateMutability": "nonpayable",
      "type": "function"
    },
    {
      "inputs": [
        {
          "internalType": "address",
          "name": "_recipient",
          "type": "address"
        }
      ],
      "name": "mint",
      "outputs": [],
      "stateMutability": "nonpayable",
      "type": "function"
    },
    {
      "inputs": [],
      "name": "name",
      "outputs": [
        {
          "internalType": "string",
          "name": "",
          "type": "string"
        }
      ],
      "stateMutability": "view",
      "type": "function"
    },
    {
      "inputs": [
        {
          "internalType": "address",
          "name": "",
          "type": "address"
        }
      ],
      "name": "nonces",
      "outputs": [
        {
          "internalType": "uint256",
          "name": "",
          "type": "uint256"
        }
      ],
      "stateMutability": "view",
      "type": "function"
    },
    {
      "inputs": [
        {
          "internalType": "address",
          "name": "owner",
          "type": "address"
        },
        {
          "internalType": "address",
          "name": "spender",
          "type": "address"
        },
        {
          "internalType": "uint256",
          "name": "value",
          "type": "uint256"
        },
        {
          "internalType": "uint256",
          "name": "deadline",
          "type": "uint256"
        },
        {
          "internalType": "uint8",
          "name": "v",
          "type": "uint8"
        },
        {
          "internalType": "bytes32",
          "name": "r",
          "type": "bytes32"
        },
        {
          "internalType": "bytes32",
          "name": "s",
          "type": "bytes32"
        }
      ],
      "name": "permit",
      "outputs": [],
      "stateMutability": "nonpayable",
      "type": "function"
    },
    {
      "inputs": [],
      "name": "registry",
      "outputs": [
        {
          "internalType": "address",
          "name": "",
          "type": "address"
        }
      ],
      "stateMutability": "view",
      "type": "function"
    },
    {
      "inputs": [],
      "name": "reweight",
      "outputs": [],
      "stateMutability": "nonpayable",
      "type": "function"
    },
    {
      "inputs": [
        {
          "internalType": "bool",
          "name": "_disabled",
          "type": "bool"
        }
      ],
      "name": "setCreditChargeDisabled",
      "outputs": [],
      "stateMutability": "nonpayable",
      "type": "function"
    },
    {
      "inputs": [
        {
          "internalType": "address",
          "name": "_governor",
          "type": "address"
        }
      ],
      "name": "setGovernor",
      "outputs": [],
      "stateMutability": "nonpayable",
      "type": "function"
    },
    {
      "inputs": [
        {
          "internalType": "bytes4",
          "name": "interfaceId",
          "type": "bytes4"
        }
      ],
      "name": "supportsInterface",
      "outputs": [
        {
          "internalType": "bool",
          "name": "",
          "type": "bool"
        }
      ],
      "stateMutability": "view",
      "type": "function"
    },
    {
      "inputs": [],
      "name": "symbol",
      "outputs": [
        {
          "internalType": "string",
          "name": "",
          "type": "string"
        }
      ],
      "stateMutability": "view",
      "type": "function"
    },
    {
      "inputs": [],
      "name": "totalSupply",
      "outputs": [
        {
          "internalType": "uint256",
          "name": "",
          "type": "uint256"
        }
      ],
      "stateMutability": "view",
      "type": "function"
    },
    {
      "inputs": [
        {
          "internalType": "address",
          "name": "to",
          "type": "address"
        },
        {
          "internalType": "uint256",
          "name": "value",
          "type": "uint256"
        }
      ],
      "name": "transfer",
      "outputs": [
        {
          "internalType": "bool",
          "name": "",
          "type": "bool"
        }
      ],
      "stateMutability": "nonpayable",
      "type": "function"
    },
    {
      "inputs": [
        {
          "internalType": "address",
          "name": "from",
          "type": "address"
        },
        {
          "internalType": "address",
          "name": "to",
          "type": "address"
        },
        {
          "internalType": "uint256",
          "name": "value",
          "type": "uint256"
        }
      ],
      "name": "transferFrom",
      "outputs": [
        {
          "internalType": "bool",
          "name": "",
          "type": "bool"
        }
      ],
      "stateMutability": "nonpayable",
      "type": "function"
    },
    {
      "inputs": [],
      "name": "vTokenFactory",
      "outputs": [
        {
          "internalType": "address",
          "name": "",
          "type": "address"
        }
      ],
      "stateMutability": "view",
      "type": "function"
    }
  ],
  "bytecode": "0x60806040523480156200001157600080fd5b506001600b55600480546001600160a01b0319163390811782554260075560408051637b10399960e01b81529051919283928392637b1039999281810192602092909190829003018186803b1580156200006a57600080fd5b505afa1580156200007f573d6000803e3d6000fd5b505050506040513d601f19601f82011682018060405250810190620000a5919062000169565b600660006101000a8154816001600160a01b0302191690836001600160a01b03160217905550806001600160a01b03166328dd99126040518163ffffffff1660e01b815260040160206040518083038186803b1580156200010557600080fd5b505afa1580156200011a573d6000803e3d6000fd5b505050506040513d601f19601f8201168201806040525081019062000140919062000169565b600580546001600160a01b0319166001600160a01b0392909216919091179055506200019b9050565b6000602082840312156200017c57600080fd5b81516001600160a01b03811681146200019457600080fd5b9392505050565b612b0f80620001ab6000396000f3fe608060405234801561001057600080fd5b50600436106101795760003560e01c80636a627842116100d9578063a0aead4d11610087578063a0aead4d1461035f578063a9059cbb14610367578063c42cf5351461037a578063c45a01551461038d578063d505accf146103a0578063dd62ed3e146103b3578063f6abc84c146103de57600080fd5b80636a627842146102d657806370a08231146102e95780637b103999146103095780637ecebe001461031c578063849feb6b1461033c57806389afcb441461034457806395d89b411461035757600080fd5b8063228835ac11610136578063228835ac1461022657806323b872dd1461023b57806328dd99121461024e57806330adf81f14610261578063313ce567146102885780633644e515146102a257806361623874146102aa57600080fd5b806301ffc9a71461017e57806306fdde03146101a6578063095ea7b3146101bb5780630c340a24146101ce57806318160ddd146101ee5780631a7bc01314610205575b600080fd5b61019161018c366004612609565b6103f2565b60405190151581526020015b60405180910390f35b6101ae61041d565b60405161019d9190612839565b6101916101c9366004612464565b6104a7565b600c546101e1906001600160a01b031681565b60405161019d9190612785565b6101f760005481565b60405190815260200161019d565b6102186102133660046126df565b6104bd565b60405161019d9291906127c8565b610239610234366004612490565b61065a565b005b6101916102493660046123ac565b610920565b6005546101e1906001600160a01b031681565b6101f77f6e71edae12b1b97f4d1f60370fef10105fa2faae0126114a169c64845d6126c981565b610290601281565b60405160ff909116815260200161019d565b6101f761099a565b6102396102b83660046125cf565b600c8054911515600160a01b0260ff60a01b19909216919091179055565b6102396102e4366004612339565b610a43565b6101f76102f7366004612339565b60016020526000908152604090205481565b6006546101e1906001600160a01b031681565b6101f761032a366004612339565b60036020526000908152604090205481565b610239610be0565b610239610352366004612339565b6116b8565b6101ae611843565b6101f7611874565b610191610375366004612464565b611880565b610239610388366004612339565b61188d565b6004546101e1906001600160a01b031681565b6102396103ae3660046123ed565b611ac3565b6101f76103c1366004612373565b600260209081526000928352604080842090915290825290205481565b600c5461019190600160a01b900460ff1681565b60006001600160e01b03198216636da7722160e11b1480610417575061041782611cdf565b92915050565b60065460405163ed3b559f60e01b81526060916001600160a01b03169063ed3b559f9061044e903090600401612785565b60006040518083038186803b15801561046657600080fd5b505afa15801561047a573d6000803e3d6000fd5b505050506040513d6000823e601f3d908101601f191682016040526104a29190810190612633565b905090565b60006104b4338484611d04565b50600192915050565b6060806104ca6008611d66565b8410156104f4576104ef846104df6008611d66565b6104e991906129cc565b84611d70565b6104f7565b60005b6001600160401b0381111561050e5761050e612a7d565b604051908082528060200260200182016040528015610537578160200160208202803683370190505b50915081516001600160401b0381111561055357610553612a7d565b60405190808252806020026020018201604052801561057c578160200160208202803683370190505b50905060005b8251811015610652576105a0610598828761294e565b600890611d88565b8382815181106105b2576105b2612a67565b60200260200101906001600160a01b031690816001600160a01b031681525050600a60008483815181106105e8576105e8612a67565b60200260200101516001600160a01b03166001600160a01b0316815260200190815260200160002060009054906101000a900460ff1682828151811061063057610630612a67565b60ff9092166020928302919091019091015261064b81612a36565b9050610582565b509250929050565b6004546001600160a01b0316331461068d5760405162461bcd60e51b81526004016106849061286c565b60405180910390fd5b600080858560008181106106a3576106a3612a67565b9050602002013590506000888860008181106106c1576106c1612a67565b90506020020160208101906106d69190612339565b905060005b888110156108565760008a8a838181106106f7576106f7612a67565b905060200201602081019061070c9190612339565b905060008760ff8b8b8681811061072557610725612a67565b9050602002013561073691906129ad565b610740919061298b565b9050848a8a8581811061075557610755612a67565b9050602002013511156107c5576001600160a01b0384166000908152600a602052604090819020549051600080516020612aba8339815191529161079e91879160ff1690612799565b60405180910390a18989848181106107b8576107b8612a67565b9050602002013594508193505b6001600160a01b0382166000908152600a60205260409020805460ff191660ff83161790556107f48187612966565b9550610801600883611d94565b50836001600160a01b0316826001600160a01b03161461084357600080516020612aba833981519152828260405161083a929190612799565b60405180910390a15b50508061084f90612a36565b90506106db565b5060ff83811610156108b15761086d8360ff6129e3565b6001600160a01b0382166000908152600a60205260408120805490919061089890849060ff16612966565b92506101000a81548160ff021916908360ff1602179055505b6001600160a01b0381166000908152600a602052604090819020549051600080516020612aba833981519152916108ed91849160ff1690612799565b60405180910390a15050600c80546001600160a01b0319166001600160a01b039390931692909217909155505050505050565b6001600160a01b038316600090815260026020908152604080832033845290915281205460001914610985576001600160a01b03841660009081526002602090815260408083203384529091528120805484929061097f9084906129cc565b90915550505b610990848484611da9565b5060019392505050565b60007f8b73c3c69bb8fe3d512ecc4cf759cc79239f7b179b0ffacaa9a75d522b39400f6109c561041d565b805160209182012060408051808201825260018152603160f81b90840152805192830193909352918101919091527fc89efdaa54c0f20c7adf612882df0950f5a951637e0307cdcb4c672f298b8bc660608201524660808201523060a082015260c00160405160208183030381529060405280519060200120905090565b6002600b541415610a665760405162461bcd60e51b81526004016106849061289d565b6002600b556006546040805163583def7b60e11b8152905160009283926001600160a01b039091169163b07bdef69160048082019260209290919082900301818787803b158015610ab657600080fd5b505af1158015610aca573d6000803e3d6000fd5b505050506040513d601f19601f82011682018060405250810190610aee9190612356565b6001600160a01b031683604051602401610b089190612785565b60408051601f198184030181529181526020820180516001600160e01b03166335313c2160e11b17905251610b3d9190612769565b600060405180830381855af49150503d8060008114610b78576040519150601f19603f3d011682016040523d82523d6000602084013e610b7d565b606091505b509150915081610bd6578051610bce5760405162461bcd60e51b815260206004820152601660248201527510985cd9525b99195e0e881352539517d1905253115160521b6044820152606401610684565b805181602001fd5b50506001600b5550565b600654604051632474521560e21b81526001600160a01b03909116906391d1485490610c32907ff4730887401325e116e846d0e51948344682bbc6e090c5e5993a8025fb6a68b0903390600401612822565b60206040518083038186803b158015610c4a57600080fd5b505afa158015610c5e573d6000803e3d6000fd5b505050506040513d601f19601f82011682018060405250810190610c8291906125ec565b610c9e5760405162461bcd60e51b81526004016106849061286c565b60065460408051632630c12f60e01b815290516000926001600160a01b031691632630c12f916004808301926020929190829003018186803b158015610ce357600080fd5b505afa158015610cf7573d6000803e3d6000fd5b505050506040513d601f19601f82011682018060405250810190610d1b9190612356565b60065490915060009081906001600160a01b031663325a48b7610d3e6008611e3c565b6040518263ffffffff1660e01b8152600401610d5a91906127b5565b60006040518083038186803b158015610d7257600080fd5b505afa158015610d86573d6000803e3d6000fd5b505050506040513d6000823e601f3d908101601f19168201604052610dae919081019061251b565b91509150600080600084600081518110610dca57610dca612a67565b602002602001015190506000610deb60006008611d8890919063ffffffff16565b905060005b610dfa6008611d66565b811015611205576006546001600160a01b03166391d148547f86d5cf0a6bdc8d859ba3bdc97043337c82a0e609035f378e419298b6a3e00ae6610e3e600885611d88565b6040518363ffffffff1660e01b8152600401610e5b929190612822565b60206040518083038186803b158015610e7357600080fd5b505afa158015610e87573d6000803e3d6000fd5b505050506040513d601f19601f82011682018060405250810190610eab91906125ec565b610ef75760405162461bcd60e51b815260206004820152601b60248201527f547261636b6564496e6465783a20494e56414c49445f415353455400000000006044820152606401610684565b60006001600160a01b03891663da0449be610f13600885611d88565b6040518263ffffffff1660e01b8152600401610f2f9190612785565b602060405180830381600087803b158015610f4957600080fd5b505af1158015610f5d573d6000803e3d6000fd5b505050506040513d601f19601f82011682018060405250810190610f8191906126c6565b6005549091506000906001600160a01b0316638d5aa174610fa3600886611d88565b6040518263ffffffff1660e01b8152600401610fbf9190612785565b602060405180830381600087803b158015610fd957600080fd5b505af1158015610fed573d6000803e3d6000fd5b505050506040513d601f19601f820116820180604052508101906110119190612356565b6001600160a01b03166306b3efd6306040518263ffffffff1660e01b815260040161103c9190612785565b60206040518083038186803b15801561105457600080fd5b505afa158015611068573d6000803e3d6000fd5b505050506040513d601f19601f8201168201806040525081019061108c91906126c6565b90508161109d600160701b836129ad565b6110a7919061298b565b6110b1908861294e565b965060006110c0600885611d88565b905060008960ff80168c87815181106110db576110db612a67565b60200260200101516110ed91906129ad565b6110f7919061298b565b9050868b868151811061110c5761110c612a67565b6020026020010151111561117e576001600160a01b0386166000908152600a602052604090819020549051600080516020612aba8339815191529161115691899160ff1690612799565b60405180910390a18a858151811061117057611170612a67565b602002602001015196508195505b6001600160a01b0382166000908152600a60205260409020805460ff191660ff83161790556111ad8189612966565b9750856001600160a01b0316826001600160a01b0316146111f057600080516020612aba83398151915282826040516111e7929190612799565b60405180910390a15b50505050806111fe90612a36565b9050610df0565b5060ff83811610156112605761121c8360ff6129e3565b6001600160a01b0382166000908152600a60205260408120805490919061124790849060ff16612966565b92506101000a81548160ff021916908360ff1602179055505b6001600160a01b0381166000908152600a602052604090819020549051600080516020612aba8339815191529161129c91849160ff1690612799565b60405180910390a16006546040805163628cf32f60e01b815290516000926001600160a01b03169163628cf32f916004808301926020929190829003018186803b1580156112e957600080fd5b505afa1580156112fd573d6000803e3d6000fd5b505050506040513d601f19601f820116820180604052508101906113219190612356565b90506000816001600160a01b031663f5c609e06040518163ffffffff1660e01b8152600401602060405180830381600087803b15801561136057600080fd5b505af1158015611374573d6000803e3d6000fd5b505050506040513d601f19601f8201168201806040525081019061139891906126c6565b905060005b6113a76008611d66565b8110156116ac5760006113bb600883611d88565b905060008b6001600160a01b031663da0449be836040518263ffffffff1660e01b81526004016113eb9190612785565b602060405180830381600087803b15801561140557600080fd5b505af1158015611419573d6000803e3d6000fd5b505050506040513d601f19601f8201168201806040525081019061143d91906126c6565b6001600160a01b0383166000908152600a602052604081205491925090600160701b90839060ff906114719082168e6129ad565b61147b919061298b565b61148591906129ad565b61148f919061298b565b60055490915060009081906001600160a01b0316638d5aa1746114b3600889611d88565b6040518263ffffffff1660e01b81526004016114cf9190612785565b602060405180830381600087803b1580156114e957600080fd5b505af11580156114fd573d6000803e3d6000fd5b505050506040513d601f19601f820116820180604052508101906115219190612356565b6040516365df6f8b60e11b8152306004820152602481018590526001600160a01b03919091169063cbbedf1690604401604080518083038186803b15801561156857600080fd5b505afa15801561157c573d6000803e3d6000fd5b505050506040513d601f19601f820116820180604052508101906115a09190612701565b915091508082111561161f576001600160a01b0388166398edd87c88876115c785876129cc565b60016040518563ffffffff1660e01b81526004016115e894939291906128d4565b600060405180830381600087803b15801561160257600080fd5b505af1158015611616573d6000803e3d6000fd5b50505050611696565b81811115611696576001600160a01b0388166398edd87c888761164286866129cc565b60006040518563ffffffff1660e01b815260040161166394939291906128d4565b600060405180830381600087803b15801561167d57600080fd5b505af1158015611691573d6000803e3d6000fd5b505050505b5050505050806116a590612a36565b905061139d565b50505050505050505050565b6002600b5414156116db5760405162461bcd60e51b81526004016106849061289d565b6002600b556006546040805163583def7b60e11b8152905160009283926001600160a01b039091169163b07bdef69160048082019260209290919082900301818787803b15801561172b57600080fd5b505af115801561173f573d6000803e3d6000fd5b505050506040513d601f19601f820116820180604052508101906117639190612356565b6001600160a01b03168360405160240161177d9190612785565b60408051601f198184030181529181526020820180516001600160e01b031663226bf2d160e21b179052516117b29190612769565b600060405180830381855af49150503d80600081146117ed576040519150601f19603f3d011682016040523d82523d6000602084013e6117f2565b606091505b509150915081610bd6578051610bce5760405162461bcd60e51b815260206004820152601660248201527510985cd9525b99195e0e881095549397d1905253115160521b6044820152606401610684565b60065460405163554f94ab60e01b81526060916001600160a01b03169063554f94ab9061044e903090600401612785565b60006104a26008611d66565b60006104b4338484611da9565b600654604051632474521560e21b81526001600160a01b03909116906391d14854906118df907f1916b456004f332cd8a19679364ef4be668619658be72c17b7e86697c4ae0f16903390600401612822565b60206040518083038186803b1580156118f757600080fd5b505afa15801561190b573d6000803e3d6000fd5b505050506040513d601f19601f8201168201806040525081019061192f91906125ec565b61197b5760405162461bcd60e51b815260206004820152601a60248201527f476f7665726e61626c65496e6465783a20464f5242494444454e0000000000006044820152606401610684565b600660009054906101000a90046001600160a01b03166001600160a01b031663ae2e933b6040518163ffffffff1660e01b815260040160206040518083038186803b1580156119c957600080fd5b505afa1580156119dd573d6000803e3d6000fd5b505050506040513d601f19601f82011682018060405250810190611a019190612356565b600c546040516306b0e67560e01b81523060048201526001600160a01b03918216602482015283821660448201529116906306b0e67590606401600060405180830381600087803b158015611a5557600080fd5b505af1158015611a69573d6000803e3d6000fd5b5050600c80546001600160a01b0319166001600160a01b03851617905550506040517fbce074c8369e26e70e1ae2f14fc944da352cfe6f52e2de9572f0c9942a24b7fc90611ab8908390612785565b60405180910390a150565b42841015611b0b5760405162461bcd60e51b8152602060048201526015602482015274141a1d5d1d5c99515490cc8c0e8811561412549151605a1b6044820152606401610684565b6000611b1561099a565b6001600160a01b038916600090815260036020526040812080547f6e71edae12b1b97f4d1f60370fef10105fa2faae0126114a169c64845d6126c9928c928c928c92909190611b6383612a36565b909155506040805160208101969096526001600160a01b0394851690860152929091166060840152608083015260a082015260c0810187905260e00160405160208183030381529060405280519060200120604051602001611bdc92919061190160f01b81526002810192909252602282015260420190565b60408051601f198184030181528282528051602091820120600080855291840180845281905260ff88169284019290925260608301869052608083018590529092509060019060a0016020604051602081039080840390855afa158015611c47573d6000803e3d6000fd5b5050604051601f1901519150506001600160a01b03811615801590611c7d5750886001600160a01b0316816001600160a01b0316145b611cc95760405162461bcd60e51b815260206004820152601f60248201527f5068757475726545524332303a20494e56414c49445f5349474e4154555245006044820152606401610684565b611cd4898989611d04565b505050505050505050565b60006001600160e01b03198216630b231bcb60e31b1480610417575061041782611e49565b6001600160a01b0383811660008181526002602090815260408083209487168084529482529182902085905590518481527f8c5be1e5ebec7d5bd14f71427d1e84f3dd0314c0f7b2291e5b200ac8c7c3b92591015b60405180910390a3505050565b6000610417825490565b6000818310611d7f5781611d81565b825b9392505050565b6000611d818383611e6e565b6000611d81836001600160a01b038416611e98565b6006546040805163ae2e933b60e01b81529051611e2c926001600160a01b03169163ae2e933b916004808301926020929190829003018186803b158015611def57600080fd5b505afa158015611e03573d6000803e3d6000fd5b505050506040513d601f19601f82011682018060405250810190611e279190612356565b611ee7565b611e3783838361200e565b505050565b60606000611d81836120fa565b60006001600160e01b03198216634bcbd0ef60e11b1480610417575061041782612156565b6000826000018281548110611e8557611e85612a67565b9060005260206000200154905092915050565b6000818152600183016020526040812054611edf57508154600181810184556000848152602080822090930184905584548482528286019093526040902091909155610417565b506000610417565b600060075442611ef791906129cc565b9050801561200a5760006b033b2e3c9fd0803ce800000080611fa1856001600160a01b0316635612e00b306040518263ffffffff1660e01b8152600401611f3e9190612785565b60206040518083038186803b158015611f5657600080fd5b505afa158015611f6a573d6000803e3d6000fd5b505050506040513d601f19601f82011682018060405250810190611f8e91906126c6565b856b033b2e3c9fd0803ce80000006121a6565b611fab91906129cc565b6004546001600160a01b03166000908152600160205260408120549054611fd291906129cc565b611fdc91906129ad565b611fe6919061298b565b90508015611e3757600454612004906001600160a01b031682612264565b42600755505b5050565b6001600160a01b0382166120595760405162461bcd60e51b81526020600482015260126024820152715068757475726545524332303a205a45524f60701b6044820152606401610684565b6001600160a01b038316600090815260016020526040812080548392906120819084906129cc565b90915550506001600160a01b038216600090815260016020526040812080548392906120ae90849061294e565b92505081905550816001600160a01b0316836001600160a01b03167fddf252ad1be2c89b69c2b068fc378daa952ba7f163c4a11628f55a4df523b3ef83604051611d5991815260200190565b60608160000180548060200260200160405190810160405280929190818152602001828054801561214a57602002820191906000526020600020905b815481526020019060010190808311612136575b50505050509050919050565b60006001600160e01b031982166336372b0760e01b148061218757506001600160e01b0319821663390c84e760e01b145b8061041757506301ffc9a760e01b6001600160e01b0319831614610417565b6000838015612246576001841680156121c1578592506121c5565b8392505b50600283046002850494505b84156122405785860286878204146121e857600080fd5b818101818110156121f857600080fd5b859004965050600185161561223557858302838782041415871515161561221e57600080fd5b8181018181101561222e57600080fd5b8590049350505b6002850494506121d1565b5061225c565b838015612256576000925061225a565b8392505b505b509392505050565b6001600160a01b0382166000908152600160205260408120805483929061228c90849061294e565b92505081905550806000808282546122a4919061294e565b90915550506040518181526001600160a01b038316906000907fddf252ad1be2c89b69c2b068fc378daa952ba7f163c4a11628f55a4df523b3ef9060200160405180910390a35050565b60008083601f84011261230057600080fd5b5081356001600160401b0381111561231757600080fd5b6020830191508360208260051b850101111561233257600080fd5b9250929050565b60006020828403121561234b57600080fd5b8135611d8181612a93565b60006020828403121561236857600080fd5b8151611d8181612a93565b6000806040838503121561238657600080fd5b823561239181612a93565b915060208301356123a181612a93565b809150509250929050565b6000806000606084860312156123c157600080fd5b83356123cc81612a93565b925060208401356123dc81612a93565b929592945050506040919091013590565b600080600080600080600060e0888a03121561240857600080fd5b873561241381612a93565b9650602088013561242381612a93565b95506040880135945060608801359350608088013560ff8116811461244757600080fd5b9699959850939692959460a0840135945060c09093013592915050565b6000806040838503121561247757600080fd5b823561248281612a93565b946020939093013593505050565b600080600080600080608087890312156124a957600080fd5b86356001600160401b03808211156124c057600080fd5b6124cc8a838b016122ee565b909850965060208901359150808211156124e557600080fd5b506124f289828a016122ee565b90955093505060408701359150606087013561250d81612a93565b809150509295509295509295565b6000806040838503121561252e57600080fd5b82516001600160401b038082111561254557600080fd5b818501915085601f83011261255957600080fd5b815160208282111561256d5761256d612a7d565b8160051b925061257e81840161291e565b8281528181019085830185870184018b101561259957600080fd5b600096505b848710156125bc57805183526001969096019591830191830161259e565b5097909101519698969750505050505050565b6000602082840312156125e157600080fd5b8135611d8181612aab565b6000602082840312156125fe57600080fd5b8151611d8181612aab565b60006020828403121561261b57600080fd5b81356001600160e01b031981168114611d8157600080fd5b60006020828403121561264557600080fd5b81516001600160401b038082111561265c57600080fd5b818401915084601f83011261267057600080fd5b81518181111561268257612682612a7d565b612695601f8201601f191660200161291e565b91508082528560208285010111156126ac57600080fd5b6126bd816020840160208601612a06565b50949350505050565b6000602082840312156126d857600080fd5b5051919050565b600080604083850312156126f257600080fd5b50508035926020909101359150565b6000806040838503121561271457600080fd5b505080516020909101519092909150565b600081518084526020808501945080840160005b8381101561275e5781516001600160a01b031687529582019590820190600101612739565b509495945050505050565b6000825161277b818460208701612a06565b9190910192915050565b6001600160a01b0391909116815260200190565b6001600160a01b0392909216825260ff16602082015260400190565b602081526000611d816020830184612725565b6040815260006127db6040830185612725565b82810360208481019190915284518083528582019282019060005b8181101561281557845160ff16835293830193918301916001016127f6565b5090979650505050505050565b9182526001600160a01b0316602082015260400190565b6020815260008251806020840152612858816040850160208701612a06565b601f01601f19169190910160400192915050565b6020808252601790820152762a3930b1b5b2b224b73232bc1d102327a92124a22222a760491b604082015260600190565b6020808252601f908201527f5265656e7472616e637947756172643a207265656e7472616e742063616c6c00604082015260600190565b8481526001600160a01b038416602082015260408101839052608081016002831061290f57634e487b7160e01b600052602160045260246000fd5b82606083015295945050505050565b604051601f8201601f191681016001600160401b038111828210171561294657612946612a7d565b604052919050565b6000821982111561296157612961612a51565b500190565b600060ff821660ff84168060ff0382111561298357612983612a51565b019392505050565b6000826129a857634e487b7160e01b600052601260045260246000fd5b500490565b60008160001904831182151516156129c7576129c7612a51565b500290565b6000828210156129de576129de612a51565b500390565b600060ff821660ff8416808210156129fd576129fd612a51565b90039392505050565b60005b83811015612a21578181015183820152602001612a09565b83811115612a30576000848401525b50505050565b6000600019821415612a4a57612a4a612a51565b5060010190565b634e487b7160e01b600052601160045260246000fd5b634e487b7160e01b600052603260045260246000fd5b634e487b7160e01b600052604160045260246000fd5b6001600160a01b0381168114612aa857600080fd5b50565b8015158114612aa857600080fdfe570021dbfc0c0d1b83293d5c8ce73e7cef80870624da237d3e4bc6bda4abab58a26469706673582212200c603770db5165114a16ef44f21b58725e5534e8f3a504440134322282b4fbf764736f6c63430008070033",
  "linkReferences": {},
  "deployedLinkReferences": {}
}