{
  "_format": "hh-sol-artifact-1",
  "contractName": "TrackedIndex",
  "sourceName": "contracts/TrackedIndex.sol",
  "abi": [
    {
      "inputs": [],
      "stateMutability": "nonpayable",
      "type": "constructor"
    },
    {
      "anonymous": false,
      "inputs": [
        {
          "indexed": true,
          "internalType": "address",
          "name": "owner",
          "type": "address"
        },
        {
          "indexed": true,
          "internalType": "address",
          "name": "spender",
          "type": "address"
        },
        {
          "indexed": false,
          "internalType": "uint256",
          "name": "value",
          "type": "uint256"
        }
      ],
      "name": "Approval",
      "type": "event"
    },
    {
      "anonymous": false,
      "inputs": [
        {
          "indexed": false,
          "internalType": "address",
          "name": "governor",
          "type": "address"
        }
      ],
      "name": "SetGovernor",
      "type": "event"
    },
    {
      "anonymous": false,
      "inputs": [
        {
          "indexed": true,
          "internalType": "address",
          "name": "from",
          "type": "address"
        },
        {
          "indexed": true,
          "internalType": "address",
          "name": "to",
          "type": "address"
        },
        {
          "indexed": false,
          "internalType": "uint256",
          "name": "value",
          "type": "uint256"
        }
      ],
      "name": "Transfer",
      "type": "event"
    },
    {
      "anonymous": false,
      "inputs": [
        {
          "indexed": false,
          "internalType": "address[]",
          "name": "assets",
          "type": "address[]"
        },
        {
          "indexed": false,
          "internalType": "uint8[]",
          "name": "weights",
          "type": "uint8[]"
        }
      ],
      "name": "UpdateAnatomy",
      "type": "event"
    },
    {
      "inputs": [],
      "name": "DOMAIN_SEPARATOR",
      "outputs": [
        {
          "internalType": "bytes32",
          "name": "",
          "type": "bytes32"
        }
      ],
      "stateMutability": "view",
      "type": "function"
    },
    {
      "inputs": [],
      "name": "PERMIT_TYPEHASH",
      "outputs": [
        {
          "internalType": "bytes32",
          "name": "",
          "type": "bytes32"
        }
      ],
      "stateMutability": "view",
      "type": "function"
    },
    {
      "inputs": [],
      "name": "V_TOKEN_TYPE",
      "outputs": [
        {
          "internalType": "bytes32",
          "name": "",
          "type": "bytes32"
        }
      ],
      "stateMutability": "view",
      "type": "function"
    },
    {
      "inputs": [
        {
          "internalType": "address",
          "name": "",
          "type": "address"
        },
        {
          "internalType": "address",
          "name": "",
          "type": "address"
        }
      ],
      "name": "allowance",
      "outputs": [
        {
          "internalType": "uint256",
          "name": "",
          "type": "uint256"
        }
      ],
      "stateMutability": "view",
      "type": "function"
    },
    {
      "inputs": [
        {
          "internalType": "uint256",
          "name": "_offset",
          "type": "uint256"
        },
        {
          "internalType": "uint256",
          "name": "_count",
          "type": "uint256"
        }
      ],
      "name": "anatomyForRange",
      "outputs": [
        {
          "internalType": "address[]",
          "name": "_assets",
          "type": "address[]"
        },
        {
          "internalType": "uint8[]",
          "name": "_weights",
          "type": "uint8[]"
        }
      ],
      "stateMutability": "view",
      "type": "function"
    },
    {
      "inputs": [
        {
          "internalType": "address",
          "name": "spender",
          "type": "address"
        },
        {
          "internalType": "uint256",
          "name": "value",
          "type": "uint256"
        }
      ],
      "name": "approve",
      "outputs": [
        {
          "internalType": "bool",
          "name": "",
          "type": "bool"
        }
      ],
      "stateMutability": "nonpayable",
      "type": "function"
    },
    {
      "inputs": [
        {
          "internalType": "address",
          "name": "",
          "type": "address"
        }
      ],
      "name": "balanceOf",
      "outputs": [
        {
          "internalType": "uint256",
          "name": "",
          "type": "uint256"
        }
      ],
      "stateMutability": "view",
      "type": "function"
    },
    {
      "inputs": [
        {
          "internalType": "address",
          "name": "_recipient",
          "type": "address"
        }
      ],
      "name": "burn",
      "outputs": [],
      "stateMutability": "nonpayable",
      "type": "function"
    },
    {
      "inputs": [],
      "name": "creditChargeDisabled",
      "outputs": [
        {
          "internalType": "bool",
          "name": "",
          "type": "bool"
        }
      ],
      "stateMutability": "view",
      "type": "function"
    },
    {
      "inputs": [],
      "name": "decimals",
      "outputs": [
        {
          "internalType": "uint8",
          "name": "",
          "type": "uint8"
        }
      ],
      "stateMutability": "view",
      "type": "function"
    },
    {
      "inputs": [],
      "name": "factory",
      "outputs": [
        {
          "internalType": "address",
          "name": "",
          "type": "address"
        }
      ],
      "stateMutability": "view",
      "type": "function"
    },
    {
      "inputs": [],
      "name": "getAssetCount",
      "outputs": [
        {
          "internalType": "uint256",
          "name": "",
          "type": "uint256"
        }
      ],
      "stateMutability": "view",
      "type": "function"
    },
    {
      "inputs": [],
      "name": "governor",
      "outputs": [
        {
          "internalType": "address",
          "name": "",
          "type": "address"
        }
      ],
      "stateMutability": "view",
      "type": "function"
    },
    {
      "inputs": [
        {
          "internalType": "address[]",
          "name": "_assets",
          "type": "address[]"
        },
        {
          "internalType": "uint256[]",
          "name": "_capitalizations",
          "type": "uint256[]"
        },
        {
          "internalType": "uint256",
          "name": "_totalCapitalization",
          "type": "uint256"
        },
        {
          "internalType": "address",
          "name": "_governor",
          "type": "address"
        }
      ],
      "name": "initialize",
      "outputs": [],
      "stateMutability": "nonpayable",
      "type": "function"
    },
    {
      "inputs": [
        {
          "internalType": "address",
          "name": "_recipient",
          "type": "address"
        }
      ],
      "name": "mint",
      "outputs": [],
      "stateMutability": "nonpayable",
      "type": "function"
    },
    {
      "inputs": [],
      "name": "name",
      "outputs": [
        {
          "internalType": "string",
          "name": "",
          "type": "string"
        }
      ],
      "stateMutability": "view",
      "type": "function"
    },
    {
      "inputs": [
        {
          "internalType": "address",
          "name": "",
          "type": "address"
        }
      ],
      "name": "nonces",
      "outputs": [
        {
          "internalType": "uint256",
          "name": "",
          "type": "uint256"
        }
      ],
      "stateMutability": "view",
      "type": "function"
    },
    {
      "inputs": [
        {
          "internalType": "address",
          "name": "owner",
          "type": "address"
        },
        {
          "internalType": "address",
          "name": "spender",
          "type": "address"
        },
        {
          "internalType": "uint256",
          "name": "value",
          "type": "uint256"
        },
        {
          "internalType": "uint256",
          "name": "deadline",
          "type": "uint256"
        },
        {
          "internalType": "uint8",
          "name": "v",
          "type": "uint8"
        },
        {
          "internalType": "bytes32",
          "name": "r",
          "type": "bytes32"
        },
        {
          "internalType": "bytes32",
          "name": "s",
          "type": "bytes32"
        }
      ],
      "name": "permit",
      "outputs": [],
      "stateMutability": "nonpayable",
      "type": "function"
    },
    {
      "inputs": [],
      "name": "registry",
      "outputs": [
        {
          "internalType": "address",
          "name": "",
          "type": "address"
        }
      ],
      "stateMutability": "view",
      "type": "function"
    },
    {
      "inputs": [],
      "name": "reweight",
      "outputs": [],
      "stateMutability": "nonpayable",
      "type": "function"
    },
    {
      "inputs": [
        {
          "internalType": "bool",
          "name": "_disabled",
          "type": "bool"
        }
      ],
      "name": "setCreditChargeDisabled",
      "outputs": [],
      "stateMutability": "nonpayable",
      "type": "function"
    },
    {
      "inputs": [
        {
          "internalType": "address",
          "name": "_governor",
          "type": "address"
        }
      ],
      "name": "setGovernor",
      "outputs": [],
      "stateMutability": "nonpayable",
      "type": "function"
    },
    {
      "inputs": [
        {
          "internalType": "bytes4",
          "name": "interfaceId",
          "type": "bytes4"
        }
      ],
      "name": "supportsInterface",
      "outputs": [
        {
          "internalType": "bool",
          "name": "",
          "type": "bool"
        }
      ],
      "stateMutability": "view",
      "type": "function"
    },
    {
      "inputs": [],
      "name": "symbol",
      "outputs": [
        {
          "internalType": "string",
          "name": "",
          "type": "string"
        }
      ],
      "stateMutability": "view",
      "type": "function"
    },
    {
      "inputs": [],
      "name": "totalSupply",
      "outputs": [
        {
          "internalType": "uint256",
          "name": "",
          "type": "uint256"
        }
      ],
      "stateMutability": "view",
      "type": "function"
    },
    {
      "inputs": [
        {
          "internalType": "address",
          "name": "to",
          "type": "address"
        },
        {
          "internalType": "uint256",
          "name": "value",
          "type": "uint256"
        }
      ],
      "name": "transfer",
      "outputs": [
        {
          "internalType": "bool",
          "name": "",
          "type": "bool"
        }
      ],
      "stateMutability": "nonpayable",
      "type": "function"
    },
    {
      "inputs": [
        {
          "internalType": "address",
          "name": "from",
          "type": "address"
        },
        {
          "internalType": "address",
          "name": "to",
          "type": "address"
        },
        {
          "internalType": "uint256",
          "name": "value",
          "type": "uint256"
        }
      ],
      "name": "transferFrom",
      "outputs": [
        {
          "internalType": "bool",
          "name": "",
          "type": "bool"
        }
      ],
      "stateMutability": "nonpayable",
      "type": "function"
    },
    {
      "inputs": [],
      "name": "vTokenFactory",
      "outputs": [
        {
          "internalType": "address",
          "name": "",
          "type": "address"
        }
      ],
      "stateMutability": "view",
      "type": "function"
    }
  ],
  "bytecode": "0x60e06040526000805461ff0019166112001790553480156200002057600080fd5b50600160055533606081901b6080524260065560408051637b10399960e01b8152905182918291637b10399991600480820192602092909190829003018186803b1580156200006e57600080fd5b505afa15801562000083573d6000803e3d6000fd5b505050506040513d601f19601f82011682018060405250810190620000a9919062000153565b6001600160a01b031660c0816001600160a01b031660601b81525050806001600160a01b03166328dd99126040518163ffffffff1660e01b815260040160206040518083038186803b158015620000ff57600080fd5b505afa15801562000114573d6000803e3d6000fd5b505050506040513d601f19601f820116820180604052508101906200013a919062000153565b60601b6001600160601b03191660a05250620001859050565b6000602082840312156200016657600080fd5b81516001600160a01b03811681146200017e57600080fd5b9392505050565b60805160601c60a05160601c60c05160601c6139d6620002666000396000818161032c0152818161048b01528181610b4c01528181610bea01528181610d210152818161134f015281816113f60152818161148c015281816115c701528181611a4001528181611f490152818161201c0152818161217f01528181612236015281816126180152818161269f015281816127440152612b8e01526000818161025e01528181610ee60152818161175701528181611c4c015261230a0152600081816103c4015281816106d701528181612d000152612d5d01526139d66000f3fe608060405234801561001057600080fd5b50600436106101845760003560e01c806370a08231116100d9578063a9059cbb11610087578063a9059cbb14610399578063c42cf535146103ac578063c45a0155146103bf578063d505accf146103e6578063dc18ed26146103f9578063dd62ed3e1461040e578063f6abc84c1461043957600080fd5b806370a08231146103075780637b103999146103275780637ecebe001461034e578063849feb6b1461036e57806389afcb441461037657806395d89b4114610389578063a0aead4d1461039157600080fd5b806323b872dd1161013657806323b872dd1461024657806328dd99121461025957806330adf81f14610280578063313ce567146102a75780633644e515146102cb57806361623874146102d35780636a627842146102f457600080fd5b806301ffc9a71461018957806306fdde03146101b1578063095ea7b3146101c65780630c340a24146101d957806318160ddd146101f95780631a7bc01314610210578063228835ac14610231575b600080fd5b61019c61019736600461342a565b610446565b60405190151581526020015b60405180910390f35b6101b9610471565b6040516101a8919061365f565b61019c6101d4366004613285565b610519565b6007546101ec906001600160a01b031681565b6040516101a891906135ae565b61020260015481565b6040519081526020016101a8565b61022361021e366004613524565b61052f565b6040516101a89291906135ee565b61024461023f3660046132b1565b6106cc565b005b61019c6102543660046131cd565b6109fa565b6101ec7f000000000000000000000000000000000000000000000000000000000000000081565b6102027f6e71edae12b1b97f4d1f60370fef10105fa2faae0126114a169c64845d6126c981565b6000546102b990610100900460ff1681565b60405160ff90911681526020016101a8565b610202610a74565b6102446102e13660046133f0565b6000805460ff1916911515919091179055565b61024461030236600461315a565b610b1d565b61020261031536600461315a565b60026020526000908152604090205481565b6101ec7f000000000000000000000000000000000000000000000000000000000000000081565b61020261035c36600461315a565b60046020526000908152604090205481565b610244611316565b61024461038436600461315a565b611ed2565b6101b96125fe565b61020261264d565b61019c6103a7366004613285565b612659565b6102446103ba36600461315a565b612666565b6101ec7f000000000000000000000000000000000000000000000000000000000000000081565b6102446103f436600461320e565b612896565b61020260008051602061394183398151915281565b61020261041c366004613194565b600360209081526000928352604080842090915290825290205481565b60005461019c9060ff1681565b60006001600160e01b031982166312f93e0760e31b148061046b575061046b82612ab2565b92915050565b60405163ed3b559f60e01b81526060906001600160a01b037f0000000000000000000000000000000000000000000000000000000000000000169063ed3b559f906104c09030906004016135ae565b60006040518083038186803b1580156104d857600080fd5b505afa1580156104ec573d6000803e3d6000fd5b505050506040513d6000823e601f3d908101601f191682016040526105149190810190613454565b905090565b6000610526338484612ad7565b50600192915050565b60608061053c6008612b39565b84101561056657610561846105516008612b39565b61055b919061383d565b84612b43565b610569565b60005b6001600160401b0381111561058057610580613904565b6040519080825280602002602001820160405280156105a9578160200160208202803683370190505b50915081516001600160401b038111156105c5576105c5613904565b6040519080825280602002602001820160405280156105ee578160200160208202803683370190505b50905060005b82518110156106c45761061261060a82876137bf565b600890612b5b565b838281518110610624576106246138ee565b60200260200101906001600160a01b031690816001600160a01b031681525050600a600084838151811061065a5761065a6138ee565b60200260200101516001600160a01b03166001600160a01b0316815260200190815260200160002060009054906101000a900460ff168282815181106106a2576106a26138ee565b60ff909216602092830291909101909101526106bd816138a7565b90506105f4565b509250929050565b336001600160a01b037f000000000000000000000000000000000000000000000000000000000000000016146107435760405162461bcd60e51b81526020600482015260176024820152762a3930b1b5b2b224b73232bc1d102327a92124a22222a760491b60448201526064015b60405180910390fd5b60008085856000818110610759576107596138ee565b905060200201359050600080898990506001600160401b0381111561078057610780613904565b6040519080825280602002602001820160405280156107a9578160200160208202803683370190505b50905060005b898110156108d55760008b8b838181106107cb576107cb6138ee565b90506020020160208101906107e0919061315a565b905060008860ff8c8c868181106107f9576107f96138ee565b9050602002013561080a919061381e565b61081491906137fc565b9050858b8b85818110610829576108296138ee565b905060200201351115610855578a8a84818110610848576108486138ee565b9050602002013595508294505b6001600160a01b0382166000908152600a60205260409020805460ff191660ff83169081179091551561088f5761088c81886137d7565b96505b61089a600883612b67565b50808484815181106108ae576108ae6138ee565b602002602001019060ff16908160ff16815250505050806108ce906138a7565b90506107af565b5060ff84811610156109915760006108ee8560ff613854565b905080600a60008d8d87818110610907576109076138ee565b905060200201602081019061091c919061315a565b6001600160a01b0316815260208101919091526040016000908120805490919061094a90849060ff166137d7565b92506101000a81548160ff021916908360ff16021790555080828481518110610975576109756138ee565b6020026020010181815161098991906137d7565b60ff16905250505b600780546001600160a01b0319166001600160a01b0387161790557ff7a52f24d20b038b2ecfdb7a08e7d847016833c370e38b3b59677783ee4718cb6109d76008612b7c565b826040516109e69291906135ee565b60405180910390a150505050505050505050565b6001600160a01b038316600090815260036020908152604080832033845290915281205460001914610a5f576001600160a01b038416600090815260036020908152604080832033845290915281208054849290610a5990849061383d565b90915550505b610a6a848484612b89565b5060019392505050565b60007f8b73c3c69bb8fe3d512ecc4cf759cc79239f7b179b0ffacaa9a75d522b39400f610a9f610471565b805160209182012060408051808201825260018152603160f81b90840152805192830193909352918101919091527fc89efdaa54c0f20c7adf612882df0950f5a951637e0307cdcb4c672f298b8bc660608201524660808201523060a082015260c00160405160208183030381529060405280519060200120905090565b60026005541415610b405760405162461bcd60e51b815260040161073a9061370e565b600260058190555060007f00000000000000000000000000000000000000000000000000000000000000006001600160a01b031663ae2e933b6040518163ffffffff1660e01b815260040160206040518083038186803b158015610ba357600080fd5b505afa158015610bb7573d6000803e3d6000fd5b505050506040513d601f19601f82011682018060405250810190610bdb9190613177565b9050610be681612c32565b60007f00000000000000000000000000000000000000000000000000000000000000006001600160a01b0316632630c12f6040518163ffffffff1660e01b815260040160206040518083038186803b158015610c4157600080fd5b505afa158015610c55573d6000803e3d6000fd5b505050506040513d601f19601f82011682018060405250810190610c799190613177565b90506000826001600160a01b0316635ad88c1a306040518263ffffffff1660e01b8152600401610ca991906135ae565b60206040518083038186803b158015610cc157600080fd5b505afa158015610cd5573d6000803e3d6000fd5b505050506040513d601f19601f82011682018060405250810190610cf991906134e7565b61ffff1690506000600019815b610d106008612b39565b811015611264576001600160a01b037f0000000000000000000000000000000000000000000000000000000000000000166391d14854600080516020613961833981519152610d60600885612b5b565b6040518363ffffffff1660e01b8152600401610d7d929190613648565b60206040518083038186803b158015610d9557600080fd5b505afa158015610da9573d6000803e3d6000fd5b505050506040513d601f19601f82011682018060405250810190610dcd919061340d565b610e195760405162461bcd60e51b815260206004820152601f60248201527f4261736544796e616d6963496e6465783a20494e56414c49445f415353455400604482015260640161073a565b600a6000610e28600884612b5b565b6001600160a01b0316815260208101919091526040016000205460ff16610e4e57611254565b60006001600160a01b03861663da0449be610e6a600885612b5b565b6040518263ffffffff1660e01b8152600401610e8691906135ae565b602060405180830381600087803b158015610ea057600080fd5b505af1158015610eb4573d6000803e3d6000fd5b505050506040513d601f19601f82011682018060405250810190610ed8919061350b565b905060006001600160a01b037f00000000000000000000000000000000000000000000000000000000000000001663af86dd46610f16600886612b5b565b6000805160206139418339815191526040518363ffffffff1660e01b8152600401610f429291906135c2565b602060405180830381600087803b158015610f5c57600080fd5b505af1158015610f70573d6000803e3d6000fd5b505050506040513d601f19601f82011682018060405250810190610f949190613177565b90506000816001600160a01b0316638f1c56bd6040518163ffffffff1660e01b815260040160206040518083038186803b158015610fd157600080fd5b505afa158015610fe5573d6000803e3d6000fd5b505050506040513d601f19601f82011682018060405250810190611009919061350b565b611014600886612b5b565b6001600160a01b03166370a08231846040518263ffffffff1660e01b815260040161103f91906135ae565b60206040518083038186803b15801561105757600080fd5b505afa15801561106b573d6000803e3d6000fd5b505050506040513d601f19601f8201168201806040525081019061108f919061350b565b611099919061383d565b90506000600a816110ab600888612b5b565b6001600160a01b031681526020810191909152604001600020546110d29060ff168561381e565b905060008160ff6110e7600160701b8661381e565b6110f1919061381e565b6110fb91906137fc565b905086811015611109578096505b604051622f4f0f60ea1b81526000906001600160a01b0386169063bd3c3c00906111379030906004016135ae565b60206040518083038186803b15801561114f57600080fd5b505afa158015611163573d6000803e3d6000fd5b505050506040513d601f19601f82011682018060405250810190611187919061350b565b9050846001600160a01b0316631249c58b6040518163ffffffff1660e01b8152600401602060405180830381600087803b1580156111c457600080fd5b505af11580156111d8573d6000803e3d6000fd5b505050506040513d601f19601f820116820180604052508101906111fc919061350b565b50600061271061120c8c8761381e565b61121691906137fc565b61122090836137bf565b9050600087611233600160701b8461381e565b61123d91906137fc565b9050611249818c6137bf565b9a5050505050505050505b61125d816138a7565b9050610d06565b50600019811415611277576112776138c2565b60006001546000146112c357600083116112a35760405162461bcd60e51b815260040161073a90613692565b82600154836112b2919061381e565b6112bc91906137fc565b90506112de565b6112cf6127108361383d565b90506112de6000612710612d8c565b600081116112fe5760405162461bcd60e51b815260040161073a90613692565b6113088782612d8c565b505060016005555050505050565b604051632474521560e21b81527ff4730887401325e116e846d0e51948344682bbc6e090c5e5993a8025fb6a68b0906001600160a01b037f000000000000000000000000000000000000000000000000000000000000000016906391d14854906113869084903390600401613648565b60206040518083038186803b15801561139e57600080fd5b505afa1580156113b2573d6000803e3d6000fd5b505050506040513d601f19601f820116820180604052508101906113d6919061340d565b6113f25760405162461bcd60e51b815260040161073a906136d7565b60007f00000000000000000000000000000000000000000000000000000000000000006001600160a01b0316632630c12f6040518163ffffffff1660e01b815260040160206040518083038186803b15801561144d57600080fd5b505afa158015611461573d6000803e3d6000fd5b505050506040513d601f19601f820116820180604052508101906114859190613177565b90506000807f00000000000000000000000000000000000000000000000000000000000000006001600160a01b031663325a48b76114c36008612b7c565b6040518263ffffffff1660e01b81526004016114df91906135db565b60006040518083038186803b1580156114f757600080fd5b505afa15801561150b573d6000803e3d6000fd5b505050506040513d6000823e601f3d908101601f19168201604052611533919081019061333c565b9150915060008060006115466008612b39565b6001600160401b0381111561155d5761155d613904565b604051908082528060200260200182016040528015611586578160200160208202803683370190505b50905060008560008151811061159e5761159e6138ee565b602002602001015190506000805b6115b66008612b39565b81101561199c576001600160a01b037f0000000000000000000000000000000000000000000000000000000000000000166391d14854600080516020613961833981519152611606600885612b5b565b6040518363ffffffff1660e01b8152600401611623929190613648565b60206040518083038186803b15801561163b57600080fd5b505afa15801561164f573d6000803e3d6000fd5b505050506040513d601f19601f82011682018060405250810190611673919061340d565b6116bf5760405162461bcd60e51b815260206004820152601b60248201527f547261636b6564496e6465783a20494e56414c49445f41535345540000000000604482015260640161073a565b60006001600160a01b038a1663da0449be6116db600885612b5b565b6040518263ffffffff1660e01b81526004016116f791906135ae565b602060405180830381600087803b15801561171157600080fd5b505af1158015611725573d6000803e3d6000fd5b505050506040513d601f19601f82011682018060405250810190611749919061350b565b905060006001600160a01b037f00000000000000000000000000000000000000000000000000000000000000001663af86dd46611787600886612b5b565b6000805160206139418339815191526040518363ffffffff1660e01b81526004016117b39291906135c2565b602060405180830381600087803b1580156117cd57600080fd5b505af11580156117e1573d6000803e3d6000fd5b505050506040513d601f19601f820116820180604052508101906118059190613177565b6001600160a01b03166306b3efd6306040518263ffffffff1660e01b815260040161183091906135ae565b60206040518083038186803b15801561184857600080fd5b505afa15801561185c573d6000803e3d6000fd5b505050506040513d601f19601f82011682018060405250810190611880919061350b565b905081611891600160701b8361381e565b61189b91906137fc565b6118a590896137bf565b975060006118b4600885612b5b565b905060008a60ff80168d87815181106118cf576118cf6138ee565b60200260200101516118e1919061381e565b6118eb91906137fc565b9050868c8681518110611900576119006138ee565b6020026020010151111561192e578b8581518110611920576119206138ee565b602002602001015196508495505b6001600160a01b0382166000908152600a60205260409020805460ff191660ff831617905587518190899087908110611969576119696138ee565b60ff90921660209283029190910190910152611985818a6137d7565b98505050505080611995906138a7565b90506115ac565b5060ff8481161015611a3c5760006119b58560ff613854565b905080600a60006119c7600886612b5b565b6001600160a01b031681526020810191909152604001600090812080549091906119f590849060ff166137d7565b92506101000a81548160ff021916908360ff16021790555080848381518110611a2057611a206138ee565b60200260200101818151611a3491906137d7565b60ff16905250505b60007f00000000000000000000000000000000000000000000000000000000000000006001600160a01b031663628cf32f6040518163ffffffff1660e01b815260040160206040518083038186803b158015611a9757600080fd5b505afa158015611aab573d6000803e3d6000fd5b505050506040513d601f19601f82011682018060405250810190611acf9190613177565b90506000816001600160a01b031663f5c609e06040518163ffffffff1660e01b8152600401602060405180830381600087803b158015611b0e57600080fd5b505af1158015611b22573d6000803e3d6000fd5b505050506040513d601f19601f82011682018060405250810190611b46919061350b565b905060005b611b556008612b39565b811015611e82576000611b69600883612b5b565b905060008c6001600160a01b031663da0449be836040518263ffffffff1660e01b8152600401611b9991906135ae565b602060405180830381600087803b158015611bb357600080fd5b505af1158015611bc7573d6000803e3d6000fd5b505050506040513d601f19601f82011682018060405250810190611beb919061350b565b6001600160a01b0383166000908152600a602052604081205491925090600160701b90839060ff90611c1f9082168f61381e565b611c2991906137fc565b611c33919061381e565b611c3d91906137fc565b90506000806001600160a01b037f00000000000000000000000000000000000000000000000000000000000000001663af86dd46611c7c600889612b5b565b6000805160206139418339815191526040518363ffffffff1660e01b8152600401611ca89291906135c2565b602060405180830381600087803b158015611cc257600080fd5b505af1158015611cd6573d6000803e3d6000fd5b505050506040513d601f19601f82011682018060405250810190611cfa9190613177565b6001600160a01b031663cbbedf1630856040518363ffffffff1660e01b8152600401611d279291906135c2565b604080518083038186803b158015611d3e57600080fd5b505afa158015611d52573d6000803e3d6000fd5b505050506040513d601f19601f82011682018060405250810190611d769190613546565b9150915080821115611df5576001600160a01b0388166398edd87c8887611d9d858761383d565b60016040518563ffffffff1660e01b8152600401611dbe9493929190613745565b600060405180830381600087803b158015611dd857600080fd5b505af1158015611dec573d6000803e3d6000fd5b50505050611e6c565b81811115611e6c576001600160a01b0388166398edd87c8887611e18868661383d565b60006040518563ffffffff1660e01b8152600401611e399493929190613745565b600060405180830381600087803b158015611e5357600080fd5b505af1158015611e67573d6000803e3d6000fd5b505050505b505050505080611e7b906138a7565b9050611b4b565b507ff7a52f24d20b038b2ecfdb7a08e7d847016833c370e38b3b59677783ee4718cb611eae6008612b7c565b86604051611ebd9291906135ee565b60405180910390a15050505050505050505050565b60026005541415611ef55760405162461bcd60e51b815260040161073a9061370e565b60026005819055306000908152602091909152604090205480611f2a5760405162461bcd60e51b815260040161073a90613692565b6000805b611f386008612b39565b811015612012576001600160a01b037f0000000000000000000000000000000000000000000000000000000000000000166391d14854600080516020613961833981519152611f88600885612b5b565b6040518363ffffffff1660e01b8152600401611fa5929190613648565b60206040518083038186803b158015611fbd57600080fd5b505afa158015611fd1573d6000803e3d6000fd5b505050506040513d601f19601f82011682018060405250810190611ff5919061340d565b6120025760019150612012565b61200b816138a7565b9050611f2e565b508061217b5760007f00000000000000000000000000000000000000000000000000000000000000006001600160a01b031663ae2e933b6040518163ffffffff1660e01b815260040160206040518083038186803b15801561207357600080fd5b505afa158015612087573d6000803e3d6000fd5b505050506040513d601f19601f820116820180604052508101906120ab9190613177565b9050600061271061ffff1684836001600160a01b031663a7853436306040518263ffffffff1660e01b81526004016120e391906135ae565b60206040518083038186803b1580156120fb57600080fd5b505afa15801561210f573d6000803e3d6000fd5b505050506040513d601f19601f8201168201806040525081019061213391906134e7565b61ffff16612141919061381e565b61214b91906137fc565b9050801561216f5761215e308383612b89565b612168818561383d565b9350612178565b61217882612c32565b50505b60007f00000000000000000000000000000000000000000000000000000000000000006001600160a01b031663628cf32f6040518163ffffffff1660e01b815260040160206040518083038186803b1580156121d657600080fd5b505afa1580156121ea573d6000803e3d6000fd5b505050506040513d601f19601f8201168201806040525081019061220e9190613177565b905060005b61221d6008612b39565b8110156125e8578280156122f457506001600160a01b037f0000000000000000000000000000000000000000000000000000000000000000166391d148547f4963dcfd342c3f63bd1b992afc723ae72706277470d47567f30dfc6dcee9f11e612287600885612b5b565b6040518363ffffffff1660e01b81526004016122a4929190613648565b60206040518083038186803b1580156122bc57600080fd5b505afa1580156122d0573d6000803e3d6000fd5b505050506040513d601f19601f820116820180604052508101906122f4919061340d565b156122fe576125d8565b60006001600160a01b037f00000000000000000000000000000000000000000000000000000000000000001663af86dd4661233a600885612b5b565b6000805160206139418339815191526040518363ffffffff1660e01b81526004016123669291906135c2565b602060405180830381600087803b15801561238057600080fd5b505af1158015612394573d6000803e3d6000fd5b505050506040513d601f19601f820116820180604052508101906123b89190613177565b90506000816001600160a01b03166370a08231306040518263ffffffff1660e01b81526004016123e891906135ae565b60206040518083038186803b15801561240057600080fd5b505afa158015612414573d6000803e3d6000fd5b505050506040513d601f19601f82011682018060405250810190612438919061350b565b90506000600154828861244b919061381e565b61245591906137fc565b905080612464575050506125d8565b60405163a9059cbb60e01b81526001600160a01b0384169063a9059cbb9061249290869085906004016135c2565b600060405180830381600087803b1580156124ac57600080fd5b505af11580156124c0573d6000803e3d6000fd5b505060405163226bf2d160e21b81526001600160a01b03861692506389afcb4491506124f0908b906004016135ae565b602060405180830381600087803b15801561250a57600080fd5b505af115801561251e573d6000803e3d6000fd5b505050506040513d601f19601f82011682018060405250810190612542919061350b565b506001600160a01b03851663cabfb7e361255d600887612b5b565b8960015461256b919061383d565b6001546040516001600160e01b031960e086901b1681526001600160a01b03909316600484015260248301919091526044820152606401600060405180830381600087803b1580156125bc57600080fd5b505af11580156125d0573d6000803e3d6000fd5b505050505050505b6125e1816138a7565b9050612213565b506125f33084612e06565b505060016005555050565b60405163554f94ab60e01b81526060906001600160a01b037f0000000000000000000000000000000000000000000000000000000000000000169063554f94ab906104c09030906004016135ae565b60006105146008612b39565b6000610526338484612b89565b604051632474521560e21b81527f1916b456004f332cd8a19679364ef4be668619658be72c17b7e86697c4ae0f16906001600160a01b037f000000000000000000000000000000000000000000000000000000000000000016906391d14854906126d69084903390600401613648565b60206040518083038186803b1580156126ee57600080fd5b505afa158015612702573d6000803e3d6000fd5b505050506040513d601f19601f82011682018060405250810190612726919061340d565b6127425760405162461bcd60e51b815260040161073a906136d7565b7f00000000000000000000000000000000000000000000000000000000000000006001600160a01b031663ae2e933b6040518163ffffffff1660e01b815260040160206040518083038186803b15801561279b57600080fd5b505afa1580156127af573d6000803e3d6000fd5b505050506040513d601f19601f820116820180604052508101906127d39190613177565b6007546040516306b0e67560e01b81523060048201526001600160a01b03918216602482015284821660448201529116906306b0e67590606401600060405180830381600087803b15801561282757600080fd5b505af115801561283b573d6000803e3d6000fd5b5050600780546001600160a01b0319166001600160a01b03861617905550506040517fbce074c8369e26e70e1ae2f14fc944da352cfe6f52e2de9572f0c9942a24b7fc9061288a9084906135ae565b60405180910390a15050565b428410156128de5760405162461bcd60e51b8152602060048201526015602482015274141a1d5d1d5c99515490cc8c0e8811561412549151605a1b604482015260640161073a565b60006128e8610a74565b6001600160a01b038916600090815260046020526040812080547f6e71edae12b1b97f4d1f60370fef10105fa2faae0126114a169c64845d6126c9928c928c928c92909190612936836138a7565b909155506040805160208101969096526001600160a01b0394851690860152929091166060840152608083015260a082015260c0810187905260e001604051602081830303815290604052805190602001206040516020016129af92919061190160f01b81526002810192909252602282015260420190565b60408051601f198184030181528282528051602091820120600080855291840180845281905260ff88169284019290925260608301869052608083018590529092509060019060a0016020604051602081039080840390855afa158015612a1a573d6000803e3d6000fd5b5050604051601f1901519150506001600160a01b03811615801590612a505750886001600160a01b0316816001600160a01b0316145b612a9c5760405162461bcd60e51b815260206004820152601f60248201527f5068757475726545524332303a20494e56414c49445f5349474e415455524500604482015260640161073a565b612aa7898989612ad7565b505050505050505050565b60006001600160e01b031982166326438a3d60e11b148061046b575061046b82612e78565b6001600160a01b0383811660008181526003602090815260408083209487168084529482529182902085905590518481527f8c5be1e5ebec7d5bd14f71427d1e84f3dd0314c0f7b2291e5b200ac8c7c3b92591015b60405180910390a3505050565b600061046b825490565b6000818310612b525781612b54565b825b9392505050565b6000612b548383612e9c565b6000612b54836001600160a01b038416612ec6565b60606000612b5483612f15565b612c227f00000000000000000000000000000000000000000000000000000000000000006001600160a01b031663ae2e933b6040518163ffffffff1660e01b815260040160206040518083038186803b158015612be557600080fd5b505afa158015612bf9573d6000803e3d6000fd5b505050506040513d601f19601f82011682018060405250810190612c1d9190613177565b612c32565b612c2d838383612f71565b505050565b600060065442612c42919061383d565b90508015612d885760006b033b2e3c9fd0803ce800000080612cec856001600160a01b0316635612e00b306040518263ffffffff1660e01b8152600401612c8991906135ae565b60206040518083038186803b158015612ca157600080fd5b505afa158015612cb5573d6000803e3d6000fd5b505050506040513d601f19601f82011682018060405250810190612cd9919061350b565b856b033b2e3c9fd0803ce8000000613000565b612cf6919061383d565b6001600160a01b037f000000000000000000000000000000000000000000000000000000000000000016600090815260026020526040902054600154612d3c919061383d565b612d46919061381e565b612d5091906137fc565b90508015612c2d57612d827f000000000000000000000000000000000000000000000000000000000000000082612d8c565b42600655505b5050565b6001600160a01b03821660009081526002602052604081208054839290612db49084906137bf565b925050819055508060016000828254612dcd91906137bf565b90915550506040518181526001600160a01b03831690600090600080516020613981833981519152906020015b60405180910390a35050565b6001600160a01b03821660009081526002602052604081208054839290612e2e90849061383d565b925050819055508060016000828254612e47919061383d565b90915550506040518181526000906001600160a01b0384169060008051602061398183398151915290602001612dfa565b60006001600160e01b031982166294bc9560e51b148061046b575061046b826130be565b6000826000018281548110612eb357612eb36138ee565b9060005260206000200154905092915050565b6000818152600183016020526040812054612f0d5750815460018181018455600084815260208082209093018490558454848252828601909352604090209190915561046b565b50600061046b565b606081600001805480602002602001604051908101604052809291908181526020018280548015612f6557602002820191906000526020600020905b815481526020019060010190808311612f51575b50505050509050919050565b6001600160a01b03831660009081526002602052604081208054839290612f9990849061383d565b90915550506001600160a01b03821660009081526002602052604081208054839290612fc69084906137bf565b92505081905550816001600160a01b0316836001600160a01b031660008051602061398183398151915283604051612b2c91815260200190565b60008380156130a05760018416801561301b5785925061301f565b8392505b50600283046002850494505b841561309a57858602868782041461304257600080fd5b8181018181101561305257600080fd5b859004965050600185161561308f57858302838782041415871515161561307857600080fd5b8181018181101561308857600080fd5b8590049350505b60028504945061302b565b506130b6565b8380156130b057600092506130b4565b8392505b505b509392505050565b60006001600160e01b031982166301ffc9a760e01b14806130ef57506001600160e01b031982166336372b0760e01b145b8061046b57506001600160e01b0319821663390c84e760e01b1492915050565b60008083601f84011261312157600080fd5b5081356001600160401b0381111561313857600080fd5b6020830191508360208260051b850101111561315357600080fd5b9250929050565b60006020828403121561316c57600080fd5b8135612b548161391a565b60006020828403121561318957600080fd5b8151612b548161391a565b600080604083850312156131a757600080fd5b82356131b28161391a565b915060208301356131c28161391a565b809150509250929050565b6000806000606084860312156131e257600080fd5b83356131ed8161391a565b925060208401356131fd8161391a565b929592945050506040919091013590565b600080600080600080600060e0888a03121561322957600080fd5b87356132348161391a565b965060208801356132448161391a565b95506040880135945060608801359350608088013560ff8116811461326857600080fd5b9699959850939692959460a0840135945060c09093013592915050565b6000806040838503121561329857600080fd5b82356132a38161391a565b946020939093013593505050565b600080600080600080608087890312156132ca57600080fd5b86356001600160401b03808211156132e157600080fd5b6132ed8a838b0161310f565b9098509650602089013591508082111561330657600080fd5b5061331389828a0161310f565b90955093505060408701359150606087013561332e8161391a565b809150509295509295509295565b6000806040838503121561334f57600080fd5b82516001600160401b038082111561336657600080fd5b818501915085601f83011261337a57600080fd5b815160208282111561338e5761338e613904565b8160051b925061339f81840161378f565b8281528181019085830185870184018b10156133ba57600080fd5b600096505b848710156133dd5780518352600196909601959183019183016133bf565b5097909101519698969750505050505050565b60006020828403121561340257600080fd5b8135612b5481613932565b60006020828403121561341f57600080fd5b8151612b5481613932565b60006020828403121561343c57600080fd5b81356001600160e01b031981168114612b5457600080fd5b60006020828403121561346657600080fd5b81516001600160401b038082111561347d57600080fd5b818401915084601f83011261349157600080fd5b8151818111156134a3576134a3613904565b6134b6601f8201601f191660200161378f565b91508082528560208285010111156134cd57600080fd5b6134de816020840160208601613877565b50949350505050565b6000602082840312156134f957600080fd5b815161ffff81168114612b5457600080fd5b60006020828403121561351d57600080fd5b5051919050565b6000806040838503121561353757600080fd5b50508035926020909101359150565b6000806040838503121561355957600080fd5b505080516020909101519092909150565b600081518084526020808501945080840160005b838110156135a35781516001600160a01b03168752958201959082019060010161357e565b509495945050505050565b6001600160a01b0391909116815260200190565b6001600160a01b03929092168252602082015260400190565b602081526000612b54602083018461356a565b604081526000613601604083018561356a565b82810360208481019190915284518083528582019282019060005b8181101561363b57845160ff168352938301939183019160010161361c565b5090979650505050505050565b9182526001600160a01b0316602082015260400190565b602081526000825180602084015261367e816040850160208701613877565b601f01601f19169190910160400192915050565b60208082526025908201527f4261736544796e616d6963496e6465783a20494e53554646494349454e545f416040820152641353d5539560da1b606082015260800190565b6020808252601b908201527f4261736544796e616d6963496e6465783a20464f5242494444454e0000000000604082015260600190565b6020808252601f908201527f5265656e7472616e637947756172643a207265656e7472616e742063616c6c00604082015260600190565b8481526001600160a01b038416602082015260408101839052608081016002831061378057634e487b7160e01b600052602160045260246000fd5b82606083015295945050505050565b604051601f8201601f191681016001600160401b03811182821017156137b7576137b7613904565b604052919050565b600082198211156137d2576137d26138d8565b500190565b600060ff821660ff84168060ff038211156137f4576137f46138d8565b019392505050565b60008261381957634e487b7160e01b600052601260045260246000fd5b500490565b6000816000190483118215151615613838576138386138d8565b500290565b60008282101561384f5761384f6138d8565b500390565b600060ff821660ff84168082101561386e5761386e6138d8565b90039392505050565b60005b8381101561389257818101518382015260200161387a565b838111156138a1576000848401525b50505050565b60006000198214156138bb576138bb6138d8565b5060010190565b634e487b7160e01b600052600160045260246000fd5b634e487b7160e01b600052601160045260246000fd5b634e487b7160e01b600052603260045260246000fd5b634e487b7160e01b600052604160045260246000fd5b6001600160a01b038116811461392f57600080fd5b50565b801515811461392f57600080fdfe8e7ab557453411baa0557b6b9366ce6b3deb7e655e18b37dac0905ba2af4c25b86d5cf0a6bdc8d859ba3bdc97043337c82a0e609035f378e419298b6a3e00ae6ddf252ad1be2c89b69c2b068fc378daa952ba7f163c4a11628f55a4df523b3efa2646970667358221220266c660fec37b80c17d8c8fc5f35b1adb82d409856c18a92f94839ea88b6879e64736f6c63430008070033",
  "linkReferences": {},
  "deployedLinkReferences": {}
}