{
  "_format": "hh-sol-artifact-1",
  "contractName": "vTokenFactory",
  "sourceName": "contracts/vTokenFactory.sol",
  "abi": [
    {
      "inputs": [
        {
          "internalType": "address",
          "name": "_registry",
          "type": "address"
        }
      ],
      "stateMutability": "nonpayable",
      "type": "constructor"
    },
    {
      "anonymous": false,
      "inputs": [
        {
          "indexed": false,
          "internalType": "address",
          "name": "vToken",
          "type": "address"
        },
        {
          "indexed": false,
          "internalType": "address",
          "name": "asset",
          "type": "address"
        },
        {
          "indexed": false,
          "internalType": "bytes32",
          "name": "vTokenType",
          "type": "bytes32"
        }
      ],
      "name": "VTokenCreated",
      "type": "event"
    },
    {
      "inputs": [
        {
          "internalType": "address",
          "name": "_asset",
          "type": "address"
        },
        {
          "internalType": "bytes32",
          "name": "_vTokenType",
          "type": "bytes32"
        }
      ],
      "name": "createVToken",
      "outputs": [],
      "stateMutability": "nonpayable",
      "type": "function"
    },
    {
      "inputs": [
        {
          "internalType": "address",
          "name": "_asset",
          "type": "address"
        },
        {
          "internalType": "bytes32",
          "name": "_vTokenType",
          "type": "bytes32"
        }
      ],
      "name": "vTokenDeterministicAddressOfAsset",
      "outputs": [
        {
          "internalType": "address",
          "name": "",
          "type": "address"
        }
      ],
      "stateMutability": "view",
      "type": "function"
    },
    {
      "inputs": [
        {
          "internalType": "address",
          "name": "_asset",
          "type": "address"
        },
        {
          "internalType": "bytes32",
          "name": "_vTokenType",
          "type": "bytes32"
        }
      ],
      "name": "vTokenOfAsset",
      "outputs": [
        {
          "internalType": "address",
          "name": "",
          "type": "address"
        }
      ],
      "stateMutability": "nonpayable",
      "type": "function"
    }
  ],
  "bytecode": "0x60e060405234801561001057600080fd5b50604051613e47380380613e4783398101604081905261002f91610173565b600060405161003d90610159565b604051809103906000f080158015610059573d6000803e3d6000fd5b509050600060405161006a90610166565b604051809103906000f080158015610086573d6000803e3d6000fd5b50604080516000602482018190526001600160a01b03878116604484015260648084019290925283518084039092018252608490920183526020810180516001600160e01b0316636133f98560e01b179052915163347d5e2560e21b815292935084169163d1f57894916100ff918591906004016101a3565b600060405180830381600087803b15801561011957600080fd5b505af115801561012d573d6000803e3d6000fd5b5050506001600160601b0319606092831b811660a05292821b8316608052509190911b1660c052610208565b6105868061079983390190565b61312880610d1f83390190565b60006020828403121561018557600080fd5b81516001600160a01b038116811461019c57600080fd5b9392505050565b60018060a01b038316815260006020604081840152835180604085015260005b818110156101df578581018301518582016060015282016101c3565b818111156101f1576000606083870101525b50601f01601f191692909201606001949350505050565b60805160601c60a05160601c60c05160601c610553610246600039600061027b0152600061025101526000818160d0015261021901526105536000f3fe608060405234801561001057600080fd5b50600436106100415760003560e01c806316bcd37914610046578063af86dd4614610075578063f9e33d5414610088575b600080fd5b61005961005436600461043a565b61009d565b6040516001600160a01b03909116815260200160405180910390f35b61005961008336600461043a565b610159565b61009b61009636600461043a565b6101b0565b005b60008083836040516020016100b3929190610472565b60405160208183030381529060405280519060200120905061014f7f00000000000000000000000000000000000000000000000000000000000000008230604051733d602d80600a3d3981f3363d3d373d3d3d363d7360601b8152606093841b60148201526f5af43d82803e903d91602b57fd5bf3ff60801b6028820152921b6038830152604c8201526037808220606c830152605591012090565b9150505b92915050565b6000818152602081815260408083206001600160a01b0386811685529252822054166101895761018983836101e5565b506000908152602081815260408083206001600160a01b0394851684529091529020541690565b6000818152602081815260408083206001600160a01b038681168552925290912054166101e1576101e182826101e5565b5050565b600082826040516020016101fa929190610472565b604051602081830303815290604052805190602001209050600061023e7f00000000000000000000000000000000000000000000000000000000000000008361039c565b9050806001600160a01b031663d1f578947f0000000000000000000000000000000000000000000000000000000000000000636133f98560e01b877f0000000000000000000000000000000000000000000000000000000000000000886040516024016102ad93929190610494565b60408051601f198184030181529181526020820180516001600160e01b03166001600160e01b03199485161790525160e085901b90921682526102f392916004016104b8565b600060405180830381600087803b15801561030d57600080fd5b505af1158015610321573d6000803e3d6000fd5b5050506000848152602081815260408083206001600160a01b03898116855292529182902080546001600160a01b031916918516919091179055517fbe86ca4bc5325f6f62cbe82994fae61a85a1d5174152c5144b025c1be650b65c915061038e90839087908790610494565b60405180910390a150505050565b6000604051733d602d80600a3d3981f3363d3d373d3d3d363d7360601b81528360601b60148201526e5af43d82803e903d91602b57fd5bf360881b6028820152826037826000f59150506001600160a01b0381166101535760405162461bcd60e51b8152602060048201526017602482015276115490cc4c4d8dce8818dc99585d194c8819985a5b1959604a1b604482015260640160405180910390fd5b6000806040838503121561044d57600080fd5b82356001600160a01b038116811461046457600080fd5b946020939093013593505050565b60609290921b6bffffffffffffffffffffffff19168252601482015260340190565b6001600160a01b039384168152919092166020820152604081019190915260600190565b60018060a01b038316815260006020604081840152835180604085015260005b818110156104f4578581018301518582016060015282016104d8565b81811115610506576000606083870101525b50601f01601f19169290920160600194935050505056fea2646970667358221220425648a2f30075976a095ff8b8ec5f23581583dca83294347833ec4a6b9d74c664736f6c63430008070033608060405234801561001057600080fd5b50610566806100206000396000f3fe6080604052600436106100225760003560e01c8063d1f578941461003957610031565b366100315761002f610059565b005b61002f610059565b34801561004557600080fd5b5061002f61005436600461034d565b61006b565b6100696100646100c2565b6100e8565b565b61009660017f360894a13ba1a3210667c828492db98dca3e2076cc3735a920a3ca505d382bbd61046c565b6000805160206104ea833981519152146100b2576100b26104bd565b6100be82826000610111565b5050565b60006100e36000805160206104ea833981519152546001600160a01b031690565b905090565b3660008037600080366000845af43d6000803e808015610107573d6000f35b3d6000fd5b505050565b61011a8361013c565b6000825111806101275750805b1561010c57610136838361017c565b50505050565b610145816101a8565b6040516001600160a01b038216907fbc7cd75a20ee27fd9adebab32041f755214dbc6bffa90cc0225b39da2e5c2d3b90600090a250565b60606101a1838360405180606001604052806027815260200161050a60279139610240565b9392505050565b803b6102115760405162461bcd60e51b815260206004820152602d60248201527f455243313936373a206e657720696d706c656d656e746174696f6e206973206e60448201526c1bdd08184818dbdb9d1c9858dd609a1b60648201526084015b60405180910390fd5b6000805160206104ea83398151915280546001600160a01b0319166001600160a01b0392909216919091179055565b6060833b61029f5760405162461bcd60e51b815260206004820152602660248201527f416464726573733a2064656c65676174652063616c6c20746f206e6f6e2d636f6044820152651b9d1c9858dd60d21b6064820152608401610208565b600080856001600160a01b0316856040516102ba919061041d565b600060405180830381855af49150503d80600081146102f5576040519150601f19603f3d011682016040523d82523d6000602084013e6102fa565b606091505b509150915061030a828286610314565b9695505050505050565b606083156103235750816101a1565b8251156103335782518084602001fd5b8160405162461bcd60e51b81526004016102089190610439565b6000806040838503121561036057600080fd5b82356001600160a01b038116811461037757600080fd5b9150602083013567ffffffffffffffff8082111561039457600080fd5b818501915085601f8301126103a857600080fd5b8135818111156103ba576103ba6104d3565b604051601f8201601f19908116603f011681019083821181831017156103e2576103e26104d3565b816040528281528860208487010111156103fb57600080fd5b8260208601602083013760006020848301015280955050505050509250929050565b6000825161042f818460208701610491565b9190910192915050565b6020815260008251806020840152610458816040850160208701610491565b601f01601f19169190910160400192915050565b60008282101561048c57634e487b7160e01b600052601160045260246000fd5b500390565b60005b838110156104ac578181015183820152602001610494565b838111156101365750506000910152565b634e487b7160e01b600052600160045260246000fd5b634e487b7160e01b600052604160045260246000fdfe360894a13ba1a3210667c828492db98dca3e2076cc3735a920a3ca505d382bbc416464726573733a206c6f772d6c6576656c2064656c65676174652063616c6c206661696c6564a2646970667358221220f00c6c4f812b1b2979bd4523dfda89f6de3d530302ff99297dbc11cd7d1c15d964736f6c6343000807003360a06040523060601b608052611388609b55610682609c5562015180609d5534801561002a57600080fd5b5060805160601c6130ca61005e6000396000818161090801528181610948015281816109d10152610a1101526130ca6000f3fe6080604052600436106101c45760003560e01c8063853828b6116100f8578063bd3e263e11610090578063bd3e263e146104ef578063cbbedf1614610504578063cc17698614610539578063e6425f6a14610559578063ec358cd614610579578063ee3048771461058f578063eef49ee3146105af578063fd108bf5146105c5578063fff6cae9146105da57600080fd5b8063853828b61461040557806389afcb441461041a5780638f1c56bd1461043a5780638fb807c51461044f57806392eefe9b146104645780639b67749714610484578063a9059cbb14610499578063bb24fe8a146104b9578063bd3c3c00146104cf57600080fd5b80634f1ef2861161016b5780634f1ef286146102cb5780635c921eb9146102de5780635f36b048146102fe5780636133f9851461031e5780636fb4e2721461033e57806370a082311461037957806371e578dc146103af5780637b103999146103cf5780637bcc3418146103ef57600080fd5b806306b3efd6146101c95780631249c58b146101fc57806318160ddd146102115780631f7ace091461022657806323b872dd146102465780633659cfe61461026857806338d52e0f146102885780634a4e5776146102b5575b600080fd5b3480156101d557600080fd5b506101e96101e4366004612b75565b6105ef565b6040519081526020015b60405180910390f35b34801561020857600080fd5b506101e9610623565b34801561021d57600080fd5b5060a1546101e9565b34801561023257600080fd5b506101e9610241366004612b75565b610728565b34801561025257600080fd5b50610266610261366004612baf565b610813565b005b34801561027457600080fd5b50610266610283366004612b75565b6108fd565b34801561029457600080fd5b506099546102a8906001600160a01b031681565b6040516101f39190612da8565b3480156102c157600080fd5b506101e9609d5481565b6102666102d9366004612bf0565b6109c6565b3480156102ea57600080fd5b506102666102f9366004612cb4565b610a80565b34801561030a57600080fd5b506098546102a8906001600160a01b031681565b34801561032a57600080fd5b50610266610339366004612baf565b610b68565b34801561034a57600080fd5b5061035e610359366004612cb4565b610c14565b604080518251815260209283015192810192909252016101f3565b34801561038557600080fd5b506101e9610394366004612b75565b6001600160a01b0316600090815260a2602052604090205490565b3480156103bb57600080fd5b506101e96103ca366004612b75565b610c76565b3480156103db57600080fd5b50609a546102a8906001600160a01b031681565b3480156103fb57600080fd5b506101e9609c5481565b34801561041157600080fd5b50610266610d55565b34801561042657600080fd5b506101e9610435366004612b75565b610ebf565b34801561044657600080fd5b5060a0546101e9565b34801561045b57600080fd5b506101e9610f3b565b34801561047057600080fd5b5061026661047f366004612b75565b610fcf565b34801561049057600080fd5b506102666112a0565b3480156104a557600080fd5b506102666104b4366004612cb4565b6115a5565b3480156104c557600080fd5b506101e960975481565b3480156104db57600080fd5b506101e96104ea366004612b75565b6115d8565b3480156104fb57600080fd5b506101e96115ff565b34801561051057600080fd5b5061052461051f366004612cb4565b6116d9565b604080519283526020830191909152016101f3565b34801561054557600080fd5b50610266610554366004612d34565b611792565b34801561056557600080fd5b50610266610574366004612cb4565b61190b565b34801561058557600080fd5b506101e9609b5481565b34801561059b57600080fd5b506101e96105aa366004612d02565b611934565b3480156105bb57600080fd5b506101e9609f5481565b3480156105d157600080fd5b506101e9611941565b3480156105e657600080fd5b50610266611a8a565b6001600160a01b038116600090815260a2602052604081205461061d90610614610f3b565b60a09190611ac4565b92915050565b6000600260655414156106515760405162461bcd60e51b815260040161064890612f19565b60405180910390fd5b6002606555609a54604051632474521560e21b81527f766aece2fe0909e4a1f0fe06a20b32886c389ee499ca4246e7e1b80b53562a84916001600160a01b0316906391d14854906106a89084903390600401612dbc565b60206040518083038186803b1580156106c057600080fd5b505afa1580156106d4573d6000803e3d6000fd5b505050506040513d601f19601f820116820180604052508101906106f89190612ce0565b6107145760405162461bcd60e51b815260040161064890612eee565b61071d33611afb565b915050600160655590565b60006002606554141561074d5760405162461bcd60e51b815260040161064890612f19565b6002606555609a54604051632474521560e21b815260008051602061302e833981519152916001600160a01b0316906391d14854906107929084903390600401612dbc565b60206040518083038186803b1580156107aa57600080fd5b505afa1580156107be573d6000803e3d6000fd5b505050506040513d601f19601f820116820180604052508101906107e29190612ce0565b6107fe5760405162461bcd60e51b815260040161064890612eee565b61080783611b54565b60016065559392505050565b600260655414156108365760405162461bcd60e51b815260040161064890612f19565b6002606555609a54604051632474521560e21b815260008051602061302e833981519152916001600160a01b0316906391d148549061087b9084903390600401612dbc565b60206040518083038186803b15801561089357600080fd5b505afa1580156108a7573d6000803e3d6000fd5b505050506040513d601f19601f820116820180604052508101906108cb9190612ce0565b6108e75760405162461bcd60e51b815260040161064890612eee565b6108f2848484611bc0565b505060016065555050565b306001600160a01b037f00000000000000000000000000000000000000000000000000000000000000001614156109465760405162461bcd60e51b815260040161064890612e08565b7f00000000000000000000000000000000000000000000000000000000000000006001600160a01b0316610978611c0d565b6001600160a01b03161461099e5760405162461bcd60e51b815260040161064890612e54565b6109a781611c3b565b604080516000808252602082019092526109c391839190611cda565b50565b306001600160a01b037f0000000000000000000000000000000000000000000000000000000000000000161415610a0f5760405162461bcd60e51b815260040161064890612e08565b7f00000000000000000000000000000000000000000000000000000000000000006001600160a01b0316610a41611c0d565b6001600160a01b031614610a675760405162461bcd60e51b815260040161064890612e54565b610a7082611c3b565b610a7c82826001611cda565b5050565b60026065541415610aa35760405162461bcd60e51b815260040161064890612f19565b6002606555609a546040805163628cf32f60e01b815290516001600160a01b039092169163628cf32f91600480820192602092909190829003018186803b158015610aed57600080fd5b505afa158015610b01573d6000803e3d6000fd5b505050506040513d601f19601f82011682018060405250810190610b259190612b92565b6001600160a01b0316336001600160a01b031614610b555760405162461bcd60e51b815260040161064890612eee565b610b5f8282611e21565b50506001606555565b600054610100900460ff1680610b81575060005460ff16155b610b9d5760405162461bcd60e51b815260040161064890612ea0565b600054610100900460ff16158015610bbf576000805461ffff19166101011790555b610bc7611fd8565b609980546001600160a01b038087166001600160a01b031992831617909255609a80549286169290911691909117905560978290558015610c0e576000805461ff00191690555b50505050565b60408051808201909152600080825260208201526001600160a01b038316600090815260a26020526040902054610c4c90839061204b565b91506000610c5c83610614610f3b565b604080518082019091529384526020840152509092915050565b600060026065541415610c9b5760405162461bcd60e51b815260040161064890612f19565b6002606555609a54604051632474521560e21b815260008051602061302e833981519152916001600160a01b0316906391d1485490610ce09084903390600401612dbc565b60206040518083038186803b158015610cf857600080fd5b505afa158015610d0c573d6000803e3d6000fd5b505050506040513d601f19601f82011682018060405250810190610d309190612ce0565b610d4c5760405162461bcd60e51b815260040161064890612eee565b61080783611afb565b609a54604051632474521560e21b81526000916001600160a01b0316906391d1485490610d889084903390600401612dbc565b60206040518083038186803b158015610da057600080fd5b505afa158015610db4573d6000803e3d6000fd5b505050506040513d601f19601f82011682018060405250810190610dd89190612ce0565b610df45760405162461bcd60e51b815260040161064890612eee565b6098546001600160a01b0316610e3b5760405162461bcd60e51b815260206004820152600c60248201526b76546f6b656e3a205a45524f60a01b6044820152606401610648565b609860009054906101000a90046001600160a01b03166001600160a01b0316633ccfd60b6040518163ffffffff1660e01b8152600401600060405180830381600087803b158015610e8b57600080fd5b505af1158015610e9f573d6000803e3d6000fd5b505042609e5550506000609f556109c3610eb7610f3b565b60a090612061565b600060026065541415610ee45760405162461bcd60e51b815260040161064890612f19565b6002606555609a54604051632474521560e21b81527f766aece2fe0909e4a1f0fe06a20b32886c389ee499ca4246e7e1b80b53562a84916001600160a01b0316906391d14854906107929084903390600401612dbc565b609f546099546040516370a0823160e01b8152600092916001600160a01b0316906370a0823190610f70903090600401612da8565b60206040518083038186803b158015610f8857600080fd5b505afa158015610f9c573d6000803e3d6000fd5b505050506040513d601f19601f82011682018060405250810190610fc09190612d1b565b610fca9190612f50565b905090565b609a54604051632474521560e21b81526000916001600160a01b0316906391d14854906110029084903390600401612dbc565b60206040518083038186803b15801561101a57600080fd5b505afa15801561102e573d6000803e3d6000fd5b505050506040513d601f19601f820116820180604052508101906110529190612ce0565b61106e5760405162461bcd60e51b815260040161064890612eee565b6098546001600160a01b0316156110ed57609860009054906101000a90046001600160a01b03166001600160a01b0316633ccfd60b6040518163ffffffff1660e01b8152600401600060405180830381600087803b1580156110cf57600080fd5b505af11580156110e3573d6000803e3d6000fd5b50506000609f5550505b6001600160a01b0382161561124957609b546099546040516370a0823160e01b81526000926127109290916001600160a01b03909116906370a0823190611138903090600401612da8565b60206040518083038186803b15801561115057600080fd5b505afa158015611164573d6000803e3d6000fd5b505050506040513d601f19601f820116820180604052508101906111889190612d1b565b6111929190612f8a565b61119c9190612f68565b6099549091506111b6906001600160a01b0316848361206b565b826001600160a01b031663d0e30db06040518163ffffffff1660e01b8152600401600060405180830381600087803b1580156111f157600080fd5b505af1158015611205573d6000803e3d6000fd5b505042609e555050609f81905560405181815233907f6b577912acd5dc59c388bec58074d4f9fec898d83bbce9062b0904480ae2cc879060200160405180910390a2505b609880546001600160a01b0319166001600160a01b0384161790556040517f056436d6f940b4c00ef1307f3eefc59586267ea5d52e882f1c9ba3b0e41a3ff690611294908490612da8565b60405180910390a15050565b609a54604051632474521560e21b81527f68e79a7bf1e0bc45d0a330c573bc367f9cf464fd326078812f301165fbda4ef1916001600160a01b0316906391d14854906112f29084903390600401612dbc565b60206040518083038186803b15801561130a57600080fd5b505afa15801561131e573d6000803e3d6000fd5b505050506040513d601f19601f820116820180604052508101906113429190612ce0565b61135e5760405162461bcd60e51b815260040161064890612eee565b600260655414156113815760405162461bcd60e51b815260040161064890612f19565b60026065556098546001600160a01b031661139b5761159d565b60006113a56115ff565b9050609860009054906101000a90046001600160a01b03166001600160a01b0316633ccfd60b6040518163ffffffff1660e01b8152600401600060405180830381600087803b1580156113f757600080fd5b505af115801561140b573d6000803e3d6000fd5b5050505060008061141b836120bd565b9050801561154f576099546040516370a0823160e01b81526127109183916001600160a01b03909116906370a0823190611459903090600401612da8565b60206040518083038186803b15801561147157600080fd5b505afa158015611485573d6000803e3d6000fd5b505050506040513d601f19601f820116820180604052508101906114a99190612d1b565b6114b39190612f8a565b6114bd9190612f68565b6098546099549193506114dd916001600160a01b0390811691168461206b565b609860009054906101000a90046001600160a01b03166001600160a01b031663d0e30db06040518163ffffffff1660e01b8152600401600060405180830381600087803b15801561152d57600080fd5b505af1158015611541573d6000803e3d6000fd5b505050609f83905550611555565b6000609f555b42609e55611564610eb7610f3b565b60405182815233907f6b577912acd5dc59c388bec58074d4f9fec898d83bbce9062b0904480ae2cc879060200160405180910390a25050505b506001606555565b600260655414156115c85760405162461bcd60e51b815260040161064890612f19565b6002606555610b5f338383611bc0565b6001600160a01b038116600090815260a2602052604081205460a0805461061d9290611ac4565b6098546000906001600160a01b03166116185750600090565b609f546099546040516370a0823160e01b8152600092916001600160a01b0316906370a082319061164d903090600401612da8565b60206040518083038186803b15801561166557600080fd5b505afa158015611679573d6000803e3d6000fd5b505050506040513d601f19601f8201168201806040525081019061169d9190612d1b565b6116a79190612f50565b905080156116d157609f5481906116c19061271090612f8a565b6116cb9190612f68565b91505090565b600091505090565b6001600160a01b038216600090815260a2602052604081205460a154801561176a576001600160a01b038516600090815260a260205260408120549061171d610f3b565b905060008361172c8385612f8a565b6117369190612f68565b90506117428183612fa9565b61174c8686612fa9565b6117569089612f8a565b6117609190612f68565b955050505061178a565b61271084106117845761177f61271085612fa9565b611787565b60005b92505b509250929050565b609a54604051632474521560e21b81526000916001600160a01b0316906391d14854906117c59084903390600401612dbc565b60206040518083038186803b1580156117dd57600080fd5b505afa1580156117f1573d6000803e3d6000fd5b505050506040513d601f19601f820116820180604052508101906118159190612ce0565b6118315760405162461bcd60e51b815260040161064890612eee565b6000821180156118415750600084115b801561184f57506127108411155b801561185b5750600083115b801561186957506127108311155b6118b55760405162461bcd60e51b815260206004820152601c60248201527f76546f6b656e3a20494e56414c49445f4445504f5349545f494e464f000000006044820152606401610648565b609b849055609c839055609d82905560408051858152602081018590529081018390527faae799b951016d6f48875649ec652d1d7ee04adc10478e1dbdb7d6bf4f2b2a439060600160405180910390a150505050565b33301461192a5760405162461bcd60e51b815260040161064890612eee565b610a7c8282611e21565b600061061d60a08361210e565b6098546000906001600160a01b03166119d4576099546040516370a0823160e01b81526001600160a01b03909116906370a0823190611984903090600401612da8565b60206040518083038186803b15801561199c57600080fd5b505afa1580156119b0573d6000803e3d6000fd5b505050506040513d601f19601f82011682018060405250810190610fca9190612d1b565b609860009054906101000a90046001600160a01b03166001600160a01b03166362e70a336040518163ffffffff1660e01b815260040160206040518083038186803b158015611a2257600080fd5b505afa158015611a36573d6000803e3d6000fd5b505050506040513d601f19601f82011682018060405250810190611a5a9190612d1b565b6099546040516370a0823160e01b81526001600160a01b03909116906370a0823190610f70903090600401612da8565b60026065541415611aad5760405162461bcd60e51b815260040161064890612f19565b6002606555611abd610eb7610f3b565b6001606555565b600183015460009080611adb576000915050611af4565b80611ae68486612f8a565b611af09190612f68565b9150505b9392505050565b6000611b11611b08610f3b565b60a0908461214f565b9050816001600160a01b031660006001600160a01b031660008051602061307583398151915283604051611b4791815260200190565b60405180910390a3919050565b30600081815260a260205260408120549091611b7c90611b72610f3b565b60a091908661234d565b915060006001600160a01b0316836001600160a01b031660008051602061307583398151915283604051611bb291815260200190565b60405180910390a350919050565b611bcd60a0848484612589565b816001600160a01b0316836001600160a01b031660008051602061307583398151915283604051611c0091815260200190565b60405180910390a3505050565b7f360894a13ba1a3210667c828492db98dca3e2076cc3735a920a3ca505d382bbc546001600160a01b031690565b609a54604051632474521560e21b81526000916001600160a01b0316906391d1485490611c6e9084903390600401612dbc565b60206040518083038186803b158015611c8657600080fd5b505afa158015611c9a573d6000803e3d6000fd5b505050506040513d601f19601f82011682018060405250810190611cbe9190612ce0565b610a7c5760405162461bcd60e51b815260040161064890612eee565b6000611ce4611c0d565b9050611cef846125ed565b600083511180611cfc5750815b15611d0d57611d0b8484612692565b505b7f4910fdfa16fed3260ed0e7147f7cc6da11a60208b5b9406d12a635614ffd9143805460ff16611e1a57805460ff19166001178155604051611d88908690611d59908590602401612da8565b60408051601f198184030181529190526020810180516001600160e01b0316631b2ce7f360e11b179052612692565b50805460ff19168155611d99611c0d565b6001600160a01b0316826001600160a01b031614611e115760405162461bcd60e51b815260206004820152602f60248201527f45524331393637557067726164653a207570677261646520627265616b73206660448201526e75727468657220757067726164657360881b6064820152608401610648565b611e1a8561277d565b5050505050565b6099546040516370a0823160e01b81526000916001600160a01b0316906370a0823190611e52903090600401612da8565b60206040518083038186803b158015611e6a57600080fd5b505afa158015611e7e573d6000803e3d6000fd5b505050506040513d601f19601f82011682018060405250810190611ea29190612d1b565b90508181108015611ebd57506098546001600160a01b031615155b15611fb257609860009054906101000a90046001600160a01b03166001600160a01b0316633ccfd60b6040518163ffffffff1660e01b8152600401600060405180830381600087803b158015611f1257600080fd5b505af1158015611f26573d6000803e3d6000fd5b50506000609f5550506099546040516370a0823160e01b81526001600160a01b03909116906370a0823190611f5f903090600401612da8565b60206040518083038186803b158015611f7757600080fd5b505afa158015611f8b573d6000803e3d6000fd5b505050506040513d601f19601f82011682018060405250810190611faf9190612d1b565b90505b611fd383611fc0848461204b565b6099546001600160a01b0316919061206b565b505050565b600054610100900460ff1680611ff1575060005460ff16155b61200d5760405162461bcd60e51b815260040161064890612ea0565b600054610100900460ff1615801561202f576000805461ffff19166101011790555b6120376127bd565b80156109c3576000805461ff001916905550565b600081831061205a5781611af4565b5090919050565b610a7c828261282d565b604080516001600160a01b038416602482015260448082018490528251808303909101815260649091019091526020810180516001600160e01b031663a9059cbb60e01b179052611fd3908490612839565b600080609d54609e54426120d19190612fa9565b6120db9190612f68565b90506000609c54826120ed9190612f8a565b9050612106609b5482866121019190612f50565b61204b565b949350505050565b600182015460009080156121395783546121288285612f8a565b6121329190612f68565b9150612148565b61214561271084612fa9565b91505b5092915050565b6000612190604051806040016040528060198152602001784e41562e6d696e742073656c662e6c61737442616c616e636560381b815250856000015461290b565b6121c3604051806040016040528060118152602001704e41562e6d696e74205f62616c616e636560781b8152508461290b565b83546000906121d29085612fa9565b6001860154909150801561223457612217604051806040016040528060158152602001744e41562e6d696e74205f746f74616c537570706c7960581b8152508261290b565b85546122238284612f8a565b61222d9190612f68565b9250612250565b61224061271083612fa9565b9250612250866000612710612950565b6000831161229b5760405162461bcd60e51b81526020600482015260186024820152771390558e88125394d551919250d251539517d05353d5539560421b6044820152606401610648565b6122cc6040518060400160405280600f81526020016e4e41562e6d696e742073686172657360881b8152508461290b565b6122fe6040518060400160405280601081526020016f4e41562e6d696e742062616c616e636560801b8152508661290b565b61232f6040518060400160405280600f81526020016e1390558b9b5a5b9d08185b5bdd5b9d608a1b8152508361290b565b61233a868585612950565b612344868661282d565b50509392505050565b3060009081526002850160209081526040808320548151808301909252600e82526d4e41562e6275726e2076616c756560901b92820192909252612391908261290b565b6123cb604051806040016040528060148152602001734e41562e6275726e20746f74616c537570706c7960601b815250876001015461290b565b6123fd6040518060400160405280601081526020016f4e41562e6275726e2062616c616e636560801b8152508561290b565b600186015461240c8583612f8a565b6124169190612f68565b91506124496040518060400160405280600f81526020016e1390558b989d5c9b88185b5bdd5b9d608a1b8152508361290b565b600082116124995760405162461bcd60e51b815260206004820152601f60248201527f4e41563a20494e53554646494349454e545f5348415245535f4255524e4544006044820152606401610648565b6040516373212fb560e11b81526001600160a01b0384811660048301526024820184905286169063e6425f6a90604401600060405180830381600087803b1580156124e357600080fd5b505af11580156124f7573d6000803e3d6000fd5b5050505061250686308361299f565b61258086866001600160a01b0316638fb807c56040518163ffffffff1660e01b815260040160206040518083038186803b15801561254357600080fd5b505afa158015612557573d6000803e3d6000fd5b505050506040513d601f19601f8201168201806040525081019061257b9190612d1b565b61282d565b50949350505050565b6001600160a01b0383166000908152600285016020526040812080548392906125b3908490612fa9565b90915550506001600160a01b0382166000908152600285016020526040812080548392906125e2908490612f50565b909155505050505050565b803b6126515760405162461bcd60e51b815260206004820152602d60248201527f455243313936373a206e657720696d706c656d656e746174696f6e206973206e60448201526c1bdd08184818dbdb9d1c9858dd609a1b6064820152608401610648565b7f360894a13ba1a3210667c828492db98dca3e2076cc3735a920a3ca505d382bbc80546001600160a01b0319166001600160a01b0392909216919091179055565b6060823b6126f15760405162461bcd60e51b815260206004820152602660248201527f416464726573733a2064656c65676174652063616c6c20746f206e6f6e2d636f6044820152651b9d1c9858dd60d21b6064820152608401610648565b600080846001600160a01b03168460405161270c9190612d8c565b600060405180830381855af49150503d8060008114612747576040519150601f19603f3d011682016040523d82523d6000602084013e61274c565b606091505b5091509150612774828260405180606001604052806027815260200161304e602791396129e4565b95945050505050565b612786816125ed565b6040516001600160a01b038216907fbc7cd75a20ee27fd9adebab32041f755214dbc6bffa90cc0225b39da2e5c2d3b90600090a250565b600054610100900460ff16806127d6575060005460ff16155b6127f25760405162461bcd60e51b815260040161064890612ea0565b600054610100900460ff16158015612814576000805461ffff19166101011790555b600160655580156109c3576000805461ff001916905550565b81548114610a7c579055565b600061288e826040518060400160405280602081526020017f5361666545524332303a206c6f772d6c6576656c2063616c6c206661696c6564815250856001600160a01b0316612a1d9092919063ffffffff16565b805190915015611fd357808060200190518101906128ac9190612ce0565b611fd35760405162461bcd60e51b815260206004820152602a60248201527f5361666545524332303a204552433230206f7065726174696f6e20646964206e6044820152691bdd081cdd58d8d9595960b21b6064820152608401610648565b610a7c8282604051602401612921929190612de6565b60408051601f198184030181529190526020810180516001600160e01b03166309710a9d60e41b179052612a2c565b6001600160a01b03821660009081526002840160205260408120805483929061297a908490612f50565b92505081905550808360010160008282546129959190612f50565b9091555050505050565b6001600160a01b0382166000908152600284016020526040812080548392906129c9908490612fa9565b92505081905550808360010160008282546129959190612fa9565b606083156129f3575081611af4565b825115612a035782518084602001fd5b8160405162461bcd60e51b81526004016106489190612dd3565b60606121068484600085612a4d565b80516a636f6e736f6c652e6c6f67602083016000808483855afa5050505050565b606082471015612aae5760405162461bcd60e51b815260206004820152602660248201527f416464726573733a20696e73756666696369656e742062616c616e636520666f6044820152651c8818d85b1b60d21b6064820152608401610648565b843b612afc5760405162461bcd60e51b815260206004820152601d60248201527f416464726573733a2063616c6c20746f206e6f6e2d636f6e74726163740000006044820152606401610648565b600080866001600160a01b03168587604051612b189190612d8c565b60006040518083038185875af1925050503d8060008114612b55576040519150601f19603f3d011682016040523d82523d6000602084013e612b5a565b606091505b5091509150612b6a8282866129e4565b979650505050505050565b600060208284031215612b8757600080fd5b8135611af481613018565b600060208284031215612ba457600080fd5b8151611af481613018565b600080600060608486031215612bc457600080fd5b8335612bcf81613018565b92506020840135612bdf81613018565b929592945050506040919091013590565b60008060408385031215612c0357600080fd5b8235612c0e81613018565b9150602083013567ffffffffffffffff80821115612c2b57600080fd5b818501915085601f830112612c3f57600080fd5b813581811115612c5157612c51613002565b604051601f8201601f19908116603f01168101908382118183101715612c7957612c79613002565b81604052828152886020848701011115612c9257600080fd5b8260208601602083013760006020848301015280955050505050509250929050565b60008060408385031215612cc757600080fd5b8235612cd281613018565b946020939093013593505050565b600060208284031215612cf257600080fd5b81518015158114611af457600080fd5b600060208284031215612d1457600080fd5b5035919050565b600060208284031215612d2d57600080fd5b5051919050565b600080600060608486031215612d4957600080fd5b505081359360208301359350604090920135919050565b60008151808452612d78816020860160208601612fc0565b601f01601f19169290920160200192915050565b60008251612d9e818460208701612fc0565b9190910192915050565b6001600160a01b0391909116815260200190565b9182526001600160a01b0316602082015260400190565b602081526000611af46020830184612d60565b604081526000612df96040830185612d60565b90508260208301529392505050565b6020808252602c908201527f46756e6374696f6e206d7573742062652063616c6c6564207468726f7567682060408201526b19195b1959d85d1958d85b1b60a21b606082015260800190565b6020808252602c908201527f46756e6374696f6e206d7573742062652063616c6c6564207468726f7567682060408201526b6163746976652070726f787960a01b606082015260800190565b6020808252602e908201527f496e697469616c697a61626c653a20636f6e747261637420697320616c72656160408201526d191e481a5b9a5d1a585b1a5e995960921b606082015260800190565b6020808252601190820152703b2a37b5b2b71d102327a92124a22222a760791b604082015260600190565b6020808252601f908201527f5265656e7472616e637947756172643a207265656e7472616e742063616c6c00604082015260600190565b60008219821115612f6357612f63612fec565b500190565b600082612f8557634e487b7160e01b600052601260045260246000fd5b500490565b6000816000190483118215151615612fa457612fa4612fec565b500290565b600082821015612fbb57612fbb612fec565b500390565b60005b83811015612fdb578181015183820152602001612fc3565b83811115610c0e5750506000910152565b634e487b7160e01b600052601160045260246000fd5b634e487b7160e01b600052604160045260246000fd5b6001600160a01b03811681146109c357600080fdfef4730887401325e116e846d0e51948344682bbc6e090c5e5993a8025fb6a68b0416464726573733a206c6f772d6c6576656c2064656c65676174652063616c6c206661696c6564ddf252ad1be2c89b69c2b068fc378daa952ba7f163c4a11628f55a4df523b3efa2646970667358221220484d08242fe0e5dd3e72755874aa6a1587551fc0251fb59c13522c02c4f1626464736f6c63430008070033",
  "linkReferences": {},
  "deployedLinkReferences": {}
}