{
  "_format": "hh-sol-artifact-1",
  "contractName": "vToken",
  "sourceName": "contracts/vToken.sol",
  "abi": [
    {
      "anonymous": false,
      "inputs": [
        {
          "indexed": false,
          "internalType": "address",
          "name": "previousAdmin",
          "type": "address"
        },
        {
          "indexed": false,
          "internalType": "address",
          "name": "newAdmin",
          "type": "address"
        }
      ],
      "name": "AdminChanged",
      "type": "event"
    },
    {
      "anonymous": false,
      "inputs": [
        {
          "indexed": true,
          "internalType": "address",
          "name": "beacon",
          "type": "address"
        }
      ],
      "name": "BeaconUpgraded",
      "type": "event"
    },
    {
      "anonymous": false,
      "inputs": [
        {
          "indexed": false,
          "internalType": "address",
          "name": "_account",
          "type": "address"
        }
      ],
      "name": "GrantUpdaterRole",
      "type": "event"
    },
    {
      "anonymous": false,
      "inputs": [
        {
          "indexed": false,
          "internalType": "address",
          "name": "_account",
          "type": "address"
        }
      ],
      "name": "RevokeUpdaterRole",
      "type": "event"
    },
    {
      "anonymous": false,
      "inputs": [
        {
          "indexed": false,
          "internalType": "uint256",
          "name": "_targetDepositPercentageInBP",
          "type": "uint256"
        },
        {
          "indexed": false,
          "internalType": "uint256",
          "name": "percentageInBPPerStep",
          "type": "uint256"
        },
        {
          "indexed": false,
          "internalType": "uint256",
          "name": "stepDuration",
          "type": "uint256"
        }
      ],
      "name": "SetDepositInfo",
      "type": "event"
    },
    {
      "anonymous": false,
      "inputs": [
        {
          "indexed": false,
          "internalType": "address",
          "name": "vaultController",
          "type": "address"
        }
      ],
      "name": "SetVaultController",
      "type": "event"
    },
    {
      "anonymous": false,
      "inputs": [
        {
          "indexed": true,
          "internalType": "address",
          "name": "account",
          "type": "address"
        },
        {
          "indexed": false,
          "internalType": "uint256",
          "name": "depositedAmount",
          "type": "uint256"
        }
      ],
      "name": "UpdateDeposit",
      "type": "event"
    },
    {
      "anonymous": false,
      "inputs": [
        {
          "indexed": true,
          "internalType": "address",
          "name": "implementation",
          "type": "address"
        }
      ],
      "name": "Upgraded",
      "type": "event"
    },
    {
      "anonymous": false,
      "inputs": [
        {
          "indexed": true,
          "internalType": "address",
          "name": "from",
          "type": "address"
        },
        {
          "indexed": true,
          "internalType": "address",
          "name": "to",
          "type": "address"
        },
        {
          "indexed": false,
          "internalType": "uint256",
          "name": "amount",
          "type": "uint256"
        }
      ],
      "name": "VTokenTransfer",
      "type": "event"
    },
    {
      "inputs": [],
      "name": "asset",
      "outputs": [
        {
          "internalType": "address",
          "name": "",
          "type": "address"
        }
      ],
      "stateMutability": "view",
      "type": "function"
    },
    {
      "inputs": [
        {
          "internalType": "address",
          "name": "_account",
          "type": "address"
        }
      ],
      "name": "assetBalanceOf",
      "outputs": [
        {
          "internalType": "uint256",
          "name": "",
          "type": "uint256"
        }
      ],
      "stateMutability": "view",
      "type": "function"
    },
    {
      "inputs": [
        {
          "internalType": "address",
          "name": "_account",
          "type": "address"
        },
        {
          "internalType": "uint256",
          "name": "_shares",
          "type": "uint256"
        }
      ],
      "name": "assetDataOf",
      "outputs": [
        {
          "components": [
            {
              "internalType": "uint256",
              "name": "maxShares",
              "type": "uint256"
            },
            {
              "internalType": "uint256",
              "name": "amountInAsset",
              "type": "uint256"
            }
          ],
          "internalType": "struct IvToken.AssetData",
          "name": "",
          "type": "tuple"
        }
      ],
      "stateMutability": "view",
      "type": "function"
    },
    {
      "inputs": [
        {
          "internalType": "address",
          "name": "_account",
          "type": "address"
        }
      ],
      "name": "balanceOf",
      "outputs": [
        {
          "internalType": "uint256",
          "name": "",
          "type": "uint256"
        }
      ],
      "stateMutability": "view",
      "type": "function"
    },
    {
      "inputs": [
        {
          "internalType": "address",
          "name": "_recipient",
          "type": "address"
        }
      ],
      "name": "burn",
      "outputs": [
        {
          "internalType": "uint256",
          "name": "amount",
          "type": "uint256"
        }
      ],
      "stateMutability": "nonpayable",
      "type": "function"
    },
    {
      "inputs": [
        {
          "internalType": "address",
          "name": "_recipient",
          "type": "address"
        }
      ],
      "name": "burnFor",
      "outputs": [
        {
          "internalType": "uint256",
          "name": "",
          "type": "uint256"
        }
      ],
      "stateMutability": "nonpayable",
      "type": "function"
    },
    {
      "inputs": [],
      "name": "currentDepositedPercentageInBP",
      "outputs": [
        {
          "internalType": "uint256",
          "name": "",
          "type": "uint256"
        }
      ],
      "stateMutability": "view",
      "type": "function"
    },
    {
      "inputs": [],
      "name": "deposited",
      "outputs": [
        {
          "internalType": "uint256",
          "name": "",
          "type": "uint256"
        }
      ],
      "stateMutability": "view",
      "type": "function"
    },
    {
      "inputs": [
        {
          "internalType": "address",
          "name": "_asset",
          "type": "address"
        },
        {
          "internalType": "address",
          "name": "_registry",
          "type": "address"
        }
      ],
      "name": "initialize",
      "outputs": [],
      "stateMutability": "nonpayable",
      "type": "function"
    },
    {
      "inputs": [
        {
          "internalType": "address",
          "name": "_account",
          "type": "address"
        }
      ],
      "name": "lastAssetBalanceOf",
      "outputs": [
        {
          "internalType": "uint256",
          "name": "",
          "type": "uint256"
        }
      ],
      "stateMutability": "view",
      "type": "function"
    },
    {
      "inputs": [],
      "name": "lastBalance",
      "outputs": [
        {
          "internalType": "uint256",
          "name": "",
          "type": "uint256"
        }
      ],
      "stateMutability": "view",
      "type": "function"
    },
    {
      "inputs": [],
      "name": "mint",
      "outputs": [
        {
          "internalType": "uint256",
          "name": "shares",
          "type": "uint256"
        }
      ],
      "stateMutability": "nonpayable",
      "type": "function"
    },
    {
      "inputs": [
        {
          "internalType": "address",
          "name": "_recipient",
          "type": "address"
        }
      ],
      "name": "mintFor",
      "outputs": [
        {
          "internalType": "uint256",
          "name": "",
          "type": "uint256"
        }
      ],
      "stateMutability": "nonpayable",
      "type": "function"
    },
    {
      "inputs": [
        {
          "internalType": "uint256",
          "name": "_amount",
          "type": "uint256"
        }
      ],
      "name": "mintableShares",
      "outputs": [
        {
          "internalType": "uint256",
          "name": "",
          "type": "uint256"
        }
      ],
      "stateMutability": "view",
      "type": "function"
    },
    {
      "inputs": [],
      "name": "percentageInBPPerStep",
      "outputs": [
        {
          "internalType": "uint256",
          "name": "",
          "type": "uint256"
        }
      ],
      "stateMutability": "view",
      "type": "function"
    },
    {
      "inputs": [],
      "name": "registry",
      "outputs": [
        {
          "internalType": "address",
          "name": "",
          "type": "address"
        }
      ],
      "stateMutability": "view",
      "type": "function"
    },
    {
      "inputs": [
        {
          "internalType": "address",
          "name": "_vaultController",
          "type": "address"
        }
      ],
      "name": "setController",
      "outputs": [],
      "stateMutability": "nonpayable",
      "type": "function"
    },
    {
      "inputs": [
        {
          "internalType": "uint256",
          "name": "_targetDepositPercentageInBP",
          "type": "uint256"
        },
        {
          "internalType": "uint256",
          "name": "_percentageInBPPerStep",
          "type": "uint256"
        },
        {
          "internalType": "uint256",
          "name": "_stepDuration",
          "type": "uint256"
        }
      ],
      "name": "setDepositInfo",
      "outputs": [],
      "stateMutability": "nonpayable",
      "type": "function"
    },
    {
      "inputs": [
        {
          "internalType": "address",
          "name": "_account",
          "type": "address"
        },
        {
          "internalType": "uint256",
          "name": "_amountInAsset",
          "type": "uint256"
        }
      ],
      "name": "shareChange",
      "outputs": [
        {
          "internalType": "uint256",
          "name": "newShares",
          "type": "uint256"
        },
        {
          "internalType": "uint256",
          "name": "oldShares",
          "type": "uint256"
        }
      ],
      "stateMutability": "view",
      "type": "function"
    },
    {
      "inputs": [],
      "name": "stepDuration",
      "outputs": [
        {
          "internalType": "uint256",
          "name": "",
          "type": "uint256"
        }
      ],
      "stateMutability": "view",
      "type": "function"
    },
    {
      "inputs": [
        {
          "internalType": "bytes4",
          "name": "interfaceId",
          "type": "bytes4"
        }
      ],
      "name": "supportsInterface",
      "outputs": [
        {
          "internalType": "bool",
          "name": "",
          "type": "bool"
        }
      ],
      "stateMutability": "view",
      "type": "function"
    },
    {
      "inputs": [],
      "name": "sync",
      "outputs": [],
      "stateMutability": "nonpayable",
      "type": "function"
    },
    {
      "inputs": [],
      "name": "targetDepositPercentageInBP",
      "outputs": [
        {
          "internalType": "uint256",
          "name": "",
          "type": "uint256"
        }
      ],
      "stateMutability": "view",
      "type": "function"
    },
    {
      "inputs": [],
      "name": "totalAssetSupply",
      "outputs": [
        {
          "internalType": "uint256",
          "name": "",
          "type": "uint256"
        }
      ],
      "stateMutability": "view",
      "type": "function"
    },
    {
      "inputs": [],
      "name": "totalSupply",
      "outputs": [
        {
          "internalType": "uint256",
          "name": "",
          "type": "uint256"
        }
      ],
      "stateMutability": "view",
      "type": "function"
    },
    {
      "inputs": [
        {
          "internalType": "address",
          "name": "_recipient",
          "type": "address"
        },
        {
          "internalType": "uint256",
          "name": "_amount",
          "type": "uint256"
        }
      ],
      "name": "transfer",
      "outputs": [],
      "stateMutability": "nonpayable",
      "type": "function"
    },
    {
      "inputs": [
        {
          "internalType": "address",
          "name": "_recipient",
          "type": "address"
        },
        {
          "internalType": "uint256",
          "name": "_amount",
          "type": "uint256"
        }
      ],
      "name": "transferAsset",
      "outputs": [],
      "stateMutability": "nonpayable",
      "type": "function"
    },
    {
      "inputs": [
        {
          "internalType": "address",
          "name": "_recipient",
          "type": "address"
        },
        {
          "internalType": "uint256",
          "name": "_amount",
          "type": "uint256"
        }
      ],
      "name": "transferAssetNAV",
      "outputs": [],
      "stateMutability": "nonpayable",
      "type": "function"
    },
    {
      "inputs": [
        {
          "internalType": "address",
          "name": "_from",
          "type": "address"
        },
        {
          "internalType": "address",
          "name": "_to",
          "type": "address"
        },
        {
          "internalType": "uint256",
          "name": "_shares",
          "type": "uint256"
        }
      ],
      "name": "transferFrom",
      "outputs": [],
      "stateMutability": "nonpayable",
      "type": "function"
    },
    {
      "inputs": [],
      "name": "updateDeposit",
      "outputs": [],
      "stateMutability": "nonpayable",
      "type": "function"
    },
    {
      "inputs": [
        {
          "internalType": "address",
          "name": "newImplementation",
          "type": "address"
        }
      ],
      "name": "upgradeTo",
      "outputs": [],
      "stateMutability": "nonpayable",
      "type": "function"
    },
    {
      "inputs": [
        {
          "internalType": "address",
          "name": "newImplementation",
          "type": "address"
        },
        {
          "internalType": "bytes",
          "name": "data",
          "type": "bytes"
        }
      ],
      "name": "upgradeToAndCall",
      "outputs": [],
      "stateMutability": "payable",
      "type": "function"
    },
    {
      "inputs": [],
      "name": "vaultController",
      "outputs": [
        {
          "internalType": "address",
          "name": "",
          "type": "address"
        }
      ],
      "stateMutability": "view",
      "type": "function"
    },
    {
      "inputs": [],
      "name": "virtualTotalAssetSupply",
      "outputs": [
        {
          "internalType": "uint256",
          "name": "",
          "type": "uint256"
        }
      ],
      "stateMutability": "view",
      "type": "function"
    },
    {
      "inputs": [],
      "name": "withdrawAll",
      "outputs": [],
      "stateMutability": "nonpayable",
      "type": "function"
    }
  ],
  "bytecode": "0x60a06040523060601b608052611388609a55610682609b5562015180609c5534801561002a57600080fd5b5060805160601c612e9561005e600039600081816109530152818161099301528181610b4b0152610b8b0152612e956000f3fe6080604052600436106101c45760003560e01c80637bcc3418116100f8578063bd3e263e11610090578063bd3e263e14610509578063cbbedf161461051e578063cc17698614610553578063e6425f6a14610573578063ec358cd614610593578063ee304877146105a9578063eef49ee3146105c9578063fd108bf5146105df578063fff6cae9146105f457600080fd5b80637bcc34181461041f578063853828b61461043557806389afcb441461044a5780638f1c56bd1461046a5780638fb807c51461047f57806392eefe9b146104945780639b677497146104b4578063a9059cbb146104c9578063bd3c3c00146104e957600080fd5b8063485cc9551161016b578063485cc955146102e55780634a4e5776146103055780634f1ef2861461031b5780635c921eb91461032e5780635f36b0481461034e5780636fb4e2721461036e57806370a08231146103a957806371e578dc146103df5780637b103999146103ff57600080fd5b806301ffc9a7146101c957806306b3efd6146101fe5780631249c58b1461022c57806318160ddd146102415780631f7ace091461025657806323b872dd146102765780633659cfe61461029857806338d52e0f146102b8575b600080fd5b3480156101d557600080fd5b506101e96101e4366004612a8a565b610609565b60405190151581526020015b60405180910390f35b34801561020a57600080fd5b5061021e6102193660046128c4565b610640565b6040519081526020016101f5565b34801561023857600080fd5b5061021e61066e565b34801561024d57600080fd5b5060a05461021e565b34801561026257600080fd5b5061021e6102713660046128c4565b610773565b34801561028257600080fd5b50610296610291366004612937565b61085e565b005b3480156102a457600080fd5b506102966102b33660046128c4565b610948565b3480156102c457600080fd5b506098546102d8906001600160a01b031681565b6040516101f59190612b2e565b3480156102f157600080fd5b506102966103003660046128fe565b610a11565b34801561031157600080fd5b5061021e609c5481565b610296610329366004612978565b610b40565b34801561033a57600080fd5b50610296610349366004612a3c565b610bfa565b34801561035a57600080fd5b506097546102d8906001600160a01b031681565b34801561037a57600080fd5b5061038e610389366004612a3c565b610ce2565b604080518251815260209283015192810192909252016101f5565b3480156103b557600080fd5b5061021e6103c43660046128c4565b6001600160a01b0316600090815260a1602052604090205490565b3480156103eb57600080fd5b5061021e6103fa3660046128c4565b610d44565b34801561040b57600080fd5b506099546102d8906001600160a01b031681565b34801561042b57600080fd5b5061021e609b5481565b34801561044157600080fd5b50610296610e23565b34801561045657600080fd5b5061021e6104653660046128c4565b610f97565b34801561047657600080fd5b50609f5461021e565b34801561048b57600080fd5b5061021e611013565b3480156104a057600080fd5b506102966104af3660046128c4565b6110a7565b3480156104c057600080fd5b50610296611365565b3480156104d557600080fd5b506102966104e4366004612a3c565b61165b565b3480156104f557600080fd5b5061021e6105043660046128c4565b61168e565b34801561051557600080fd5b5061021e6116b5565b34801561052a57600080fd5b5061053e610539366004612a3c565b61178f565b604080519283526020830191909152016101f5565b34801561055f57600080fd5b5061029661056e366004612ae6565b611848565b34801561057f57600080fd5b5061029661058e366004612a3c565b6119c1565b34801561059f57600080fd5b5061021e609a5481565b3480156105b557600080fd5b5061021e6105c4366004612ab4565b6119ea565b3480156105d557600080fd5b5061021e609e5481565b3480156105eb57600080fd5b5061021e6119f7565b34801561060057600080fd5b50610296611b40565b60006001600160e01b0319821663da7e801160e01b148061063a57506301ffc9a760e01b6001600160e01b03198316145b92915050565b6001600160a01b038116600090815260a1602052604081205461063a90610665611013565b609f9190611b7a565b60006002606554141561069c5760405162461bcd60e51b815260040161069390612cc0565b60405180910390fd5b6002606555609954604051632474521560e21b81527f766aece2fe0909e4a1f0fe06a20b32886c389ee499ca4246e7e1b80b53562a84916001600160a01b0316906391d14854906106f39084903390600401612b42565b60206040518083038186803b15801561070b57600080fd5b505afa15801561071f573d6000803e3d6000fd5b505050506040513d601f19601f820116820180604052508101906107439190612a68565b61075f5760405162461bcd60e51b815260040161069390612c4a565b61076833611bb1565b915050600160655590565b6000600260655414156107985760405162461bcd60e51b815260040161069390612cc0565b6002606555609954604051632474521560e21b8152600080516020612df9833981519152916001600160a01b0316906391d14854906107dd9084903390600401612b42565b60206040518083038186803b1580156107f557600080fd5b505afa158015610809573d6000803e3d6000fd5b505050506040513d601f19601f8201168201806040525081019061082d9190612a68565b6108495760405162461bcd60e51b815260040161069390612c4a565b61085283611c0a565b60016065559392505050565b600260655414156108815760405162461bcd60e51b815260040161069390612cc0565b6002606555609954604051632474521560e21b8152600080516020612df9833981519152916001600160a01b0316906391d14854906108c69084903390600401612b42565b60206040518083038186803b1580156108de57600080fd5b505afa1580156108f2573d6000803e3d6000fd5b505050506040513d601f19601f820116820180604052508101906109169190612a68565b6109325760405162461bcd60e51b815260040161069390612c4a565b61093d848484611c76565b505060016065555050565b306001600160a01b037f00000000000000000000000000000000000000000000000000000000000000001614156109915760405162461bcd60e51b815260040161069390612b8c565b7f00000000000000000000000000000000000000000000000000000000000000006001600160a01b03166109c3611cc3565b6001600160a01b0316146109e95760405162461bcd60e51b815260040161069390612bd8565b6109f281611cf1565b60408051600080825260208201909252610a0e91839190611d90565b50565b600054610100900460ff16610a2c5760005460ff1615610a30565b303b155b610a935760405162461bcd60e51b815260206004820152602e60248201527f496e697469616c697a61626c653a20636f6e747261637420697320616c72656160448201526d191e481a5b9a5d1a585b1a5e995960921b6064820152608401610693565b600054610100900460ff16158015610ab5576000805461ffff19166101011790555b6001600160a01b03831615801590610ad557506001600160a01b03821615155b610af15760405162461bcd60e51b815260040161069390612c24565b610af9611ed7565b609880546001600160a01b038086166001600160a01b03199283161790925560998054928516929091169190911790558015610b3b576000805461ff00191690555b505050565b306001600160a01b037f0000000000000000000000000000000000000000000000000000000000000000161415610b895760405162461bcd60e51b815260040161069390612b8c565b7f00000000000000000000000000000000000000000000000000000000000000006001600160a01b0316610bbb611cc3565b6001600160a01b031614610be15760405162461bcd60e51b815260040161069390612bd8565b610bea82611cf1565b610bf682826001611d90565b5050565b60026065541415610c1d5760405162461bcd60e51b815260040161069390612cc0565b60026065556099546040805163628cf32f60e01b815290516001600160a01b039092169163628cf32f91600480820192602092909190829003018186803b158015610c6757600080fd5b505afa158015610c7b573d6000803e3d6000fd5b505050506040513d601f19601f82011682018060405250810190610c9f91906128e1565b6001600160a01b0316336001600160a01b031614610ccf5760405162461bcd60e51b815260040161069390612c4a565b610cd98282611f08565b50506001606555565b60408051808201909152600080825260208201526001600160a01b038316600090815260a16020526040902054610d1a9083906120ba565b91506000610d2a83610665611013565b604080518082019091529384526020840152509092915050565b600060026065541415610d695760405162461bcd60e51b815260040161069390612cc0565b6002606555609954604051632474521560e21b8152600080516020612df9833981519152916001600160a01b0316906391d1485490610dae9084903390600401612b42565b60206040518083038186803b158015610dc657600080fd5b505afa158015610dda573d6000803e3d6000fd5b505050506040513d601f19601f82011682018060405250810190610dfe9190612a68565b610e1a5760405162461bcd60e51b815260040161069390612c4a565b61085283611bb1565b609954604051632474521560e21b81526000916001600160a01b0316906391d1485490610e569084903390600401612b42565b60206040518083038186803b158015610e6e57600080fd5b505afa158015610e82573d6000803e3d6000fd5b505050506040513d601f19601f82011682018060405250810190610ea69190612a68565b610ec25760405162461bcd60e51b815260040161069390612c4a565b6097546001600160a01b0316610eea5760405162461bcd60e51b815260040161069390612c24565b609760009054906101000a90046001600160a01b03166001600160a01b0316633ccfd60b6040518163ffffffff1660e01b8152600401600060405180830381600087803b158015610f3a57600080fd5b505af1158015610f4e573d6000803e3d6000fd5b505042609d5550506000609e55610f6e610f66611013565b609f906120d0565b609e546040519081523390600080516020612dd98339815191529060200160405180910390a250565b600060026065541415610fbc5760405162461bcd60e51b815260040161069390612cc0565b6002606555609954604051632474521560e21b81527f766aece2fe0909e4a1f0fe06a20b32886c389ee499ca4246e7e1b80b53562a84916001600160a01b0316906391d14854906107dd9084903390600401612b42565b609e546098546040516370a0823160e01b8152600092916001600160a01b0316906370a0823190611048903090600401612b2e565b60206040518083038186803b15801561106057600080fd5b505afa158015611074573d6000803e3d6000fd5b505050506040513d601f19601f820116820180604052508101906110989190612acd565b6110a29190612cf7565b905090565b609954604051632474521560e21b81526000916001600160a01b0316906391d14854906110da9084903390600401612b42565b60206040518083038186803b1580156110f257600080fd5b505afa158015611106573d6000803e3d6000fd5b505050506040513d601f19601f8201168201806040525081019061112a9190612a68565b6111465760405162461bcd60e51b815260040161069390612c4a565b6097546001600160a01b0316156111c557609760009054906101000a90046001600160a01b03166001600160a01b0316633ccfd60b6040518163ffffffff1660e01b8152600401600060405180830381600087803b1580156111a757600080fd5b505af11580156111bb573d6000803e3d6000fd5b50506000609e5550505b6001600160a01b038216156112e957609a546098546040516370a0823160e01b81526000926127109290916001600160a01b03909116906370a0823190611210903090600401612b2e565b60206040518083038186803b15801561122857600080fd5b505afa15801561123c573d6000803e3d6000fd5b505050506040513d601f19601f820116820180604052508101906112609190612acd565b61126a9190612d31565b6112749190612d0f565b60985490915061128e906001600160a01b031684836120da565b826001600160a01b031663d0e30db06040518163ffffffff1660e01b8152600401600060405180830381600087803b1580156112c957600080fd5b505af11580156112dd573d6000803e3d6000fd5b505042609d555050609e555b609780546001600160a01b0319166001600160a01b038416179055609e546040519081523390600080516020612dd98339815191529060200160405180910390a27f056436d6f940b4c00ef1307f3eefc59586267ea5d52e882f1c9ba3b0e41a3ff6826040516113599190612b2e565b60405180910390a15050565b609954604051632474521560e21b81527f68e79a7bf1e0bc45d0a330c573bc367f9cf464fd326078812f301165fbda4ef1916001600160a01b0316906391d14854906113b79084903390600401612b42565b60206040518083038186803b1580156113cf57600080fd5b505afa1580156113e3573d6000803e3d6000fd5b505050506040513d601f19601f820116820180604052508101906114079190612a68565b6114235760405162461bcd60e51b815260040161069390612c4a565b600260655414156114465760405162461bcd60e51b815260040161069390612cc0565b60026065556097546001600160a01b031661146057611653565b600061146a6116b5565b9050609760009054906101000a90046001600160a01b03166001600160a01b0316633ccfd60b6040518163ffffffff1660e01b8152600401600060405180830381600087803b1580156114bc57600080fd5b505af11580156114d0573d6000803e3d6000fd5b5050505060006114df8261212c565b90508015611615576098546040516370a0823160e01b81526000916127109184916001600160a01b0316906370a082319061151e903090600401612b2e565b60206040518083038186803b15801561153657600080fd5b505afa15801561154a573d6000803e3d6000fd5b505050506040513d601f19601f8201168201806040525081019061156e9190612acd565b6115789190612d31565b6115829190612d0f565b6097546098549192506115a2916001600160a01b039081169116836120da565b609760009054906101000a90046001600160a01b03166001600160a01b031663d0e30db06040518163ffffffff1660e01b8152600401600060405180830381600087803b1580156115f257600080fd5b505af1158015611606573d6000803e3d6000fd5b505050609e919091555061161b565b6000609e555b42609d5561162a610f66611013565b609e546040519081523390600080516020612dd98339815191529060200160405180910390a250505b506001606555565b6002606554141561167e5760405162461bcd60e51b815260040161069390612cc0565b6002606555610cd9338383611c76565b6001600160a01b038116600090815260a16020526040812054609f805461063a9290611b7a565b6097546000906001600160a01b03166116ce5750600090565b609e546098546040516370a0823160e01b8152600092916001600160a01b0316906370a0823190611703903090600401612b2e565b60206040518083038186803b15801561171b57600080fd5b505afa15801561172f573d6000803e3d6000fd5b505050506040513d601f19601f820116820180604052508101906117539190612acd565b61175d9190612cf7565b9050801561178757609e5481906117779061271090612d31565b6117819190612d0f565b91505090565b600091505090565b6001600160a01b038216600090815260a1602052604081205460a0548015611820576001600160a01b038516600090815260a16020526040812054906117d3611013565b90506000836117e28385612d31565b6117ec9190612d0f565b90506117f88183612d50565b6118028686612d50565b61180c9089612d31565b6118169190612d0f565b9550505050611840565b612710841061183a5761183561271085612d50565b61183d565b60005b92505b509250929050565b609954604051632474521560e21b81526000916001600160a01b0316906391d148549061187b9084903390600401612b42565b60206040518083038186803b15801561189357600080fd5b505afa1580156118a7573d6000803e3d6000fd5b505050506040513d601f19601f820116820180604052508101906118cb9190612a68565b6118e75760405162461bcd60e51b815260040161069390612c4a565b6000821180156118f75750600084115b801561190557506127108411155b80156119115750600083115b801561191f57506127108311155b61196b5760405162461bcd60e51b815260206004820152601c60248201527f76546f6b656e3a20494e56414c49445f4445504f5349545f494e464f000000006044820152606401610693565b609a849055609b839055609c82905560408051858152602081018590529081018390527faae799b951016d6f48875649ec652d1d7ee04adc10478e1dbdb7d6bf4f2b2a439060600160405180910390a150505050565b3330146119e05760405162461bcd60e51b815260040161069390612c4a565b610bf68282611f08565b600061063a609f8361217d565b6097546000906001600160a01b0316611a8a576098546040516370a0823160e01b81526001600160a01b03909116906370a0823190611a3a903090600401612b2e565b60206040518083038186803b158015611a5257600080fd5b505afa158015611a66573d6000803e3d6000fd5b505050506040513d601f19601f820116820180604052508101906110a29190612acd565b609760009054906101000a90046001600160a01b03166001600160a01b03166362e70a336040518163ffffffff1660e01b815260040160206040518083038186803b158015611ad857600080fd5b505afa158015611aec573d6000803e3d6000fd5b505050506040513d601f19601f82011682018060405250810190611b109190612acd565b6098546040516370a0823160e01b81526001600160a01b03909116906370a0823190611048903090600401612b2e565b60026065541415611b635760405162461bcd60e51b815260040161069390612cc0565b6002606555611b73610f66611013565b6001606555565b600183015460009080611b91576000915050611baa565b80611b9c8486612d31565b611ba69190612d0f565b9150505b9392505050565b6000611bc7611bbe611013565b609f90846121be565b9050816001600160a01b031660006001600160a01b0316600080516020612e4083398151915283604051611bfd91815260200190565b60405180910390a3919050565b30600081815260a160205260408120549091611c3290611c28611013565b609f91908661227f565b915060006001600160a01b0316836001600160a01b0316600080516020612e4083398151915283604051611c6891815260200190565b60405180910390a350919050565b611c83609f8484846123ec565b816001600160a01b0316836001600160a01b0316600080516020612e4083398151915283604051611cb691815260200190565b60405180910390a3505050565b7f360894a13ba1a3210667c828492db98dca3e2076cc3735a920a3ca505d382bbc546001600160a01b031690565b609954604051632474521560e21b81526000916001600160a01b0316906391d1485490611d249084903390600401612b42565b60206040518083038186803b158015611d3c57600080fd5b505afa158015611d50573d6000803e3d6000fd5b505050506040513d601f19601f82011682018060405250810190611d749190612a68565b610bf65760405162461bcd60e51b815260040161069390612c4a565b6000611d9a611cc3565b9050611da584612450565b600083511180611db25750815b15611dc357611dc184846124f5565b505b7f4910fdfa16fed3260ed0e7147f7cc6da11a60208b5b9406d12a635614ffd9143805460ff16611ed057805460ff19166001178155604051611e3e908690611e0f908590602401612b2e565b60408051601f198184030181529190526020810180516001600160e01b0316631b2ce7f360e11b1790526124f5565b50805460ff19168155611e4f611cc3565b6001600160a01b0316826001600160a01b031614611ec75760405162461bcd60e51b815260206004820152602f60248201527f45524331393637557067726164653a207570677261646520627265616b73206660448201526e75727468657220757067726164657360881b6064820152608401610693565b611ed0856125e0565b5050505050565b600054610100900460ff16611efe5760405162461bcd60e51b815260040161069390612c75565b611f06612620565b565b6098546040516370a0823160e01b81526000916001600160a01b0316906370a0823190611f39903090600401612b2e565b60206040518083038186803b158015611f5157600080fd5b505afa158015611f65573d6000803e3d6000fd5b505050506040513d601f19601f82011682018060405250810190611f899190612acd565b90508181108015611fa457506097546001600160a01b031615155b1561209957609760009054906101000a90046001600160a01b03166001600160a01b0316633ccfd60b6040518163ffffffff1660e01b8152600401600060405180830381600087803b158015611ff957600080fd5b505af115801561200d573d6000803e3d6000fd5b50506000609e5550506098546040516370a0823160e01b81526001600160a01b03909116906370a0823190612046903090600401612b2e565b60206040518083038186803b15801561205e57600080fd5b505afa158015612072573d6000803e3d6000fd5b505050506040513d601f19601f820116820180604052508101906120969190612acd565b90505b610b3b836120a784846120ba565b6098546001600160a01b031691906120da565b60008183106120c95781611baa565b5090919050565b610bf68282612647565b604080516001600160a01b038416602482015260448082018490528251808303909101815260649091019091526020810180516001600160e01b031663a9059cbb60e01b179052610b3b908490612653565b600080609c54609d54426121409190612d50565b61214a9190612d0f565b90506000609b548261215c9190612d31565b9050612175609a5482866121709190612cf7565b6120ba565b949350505050565b600182015460009080156121a85783546121978285612d31565b6121a19190612d0f565b91506121b7565b6121b461271084612d50565b91505b5092915050565b825460009081906121cf9085612d50565b600186015490915080156121fa5785546121e98284612d31565b6121f39190612d0f565b9250612216565b61220661271083612d50565b9250612216866000612710612725565b600083116122615760405162461bcd60e51b81526020600482015260186024820152771390558e88125394d551919250d251539517d05353d5539560421b6044820152606401610693565b61226c868585612725565b6122768686612647565b50509392505050565b30600090815260028501602052604081205460018601546122a08583612d31565b6122aa9190612d0f565b9150600082116122fc5760405162461bcd60e51b815260206004820152601f60248201527f4e41563a20494e53554646494349454e545f5348415245535f4255524e4544006044820152606401610693565b6040516373212fb560e11b81526001600160a01b0384811660048301526024820184905286169063e6425f6a90604401600060405180830381600087803b15801561234657600080fd5b505af115801561235a573d6000803e3d6000fd5b50505050612369863083612774565b6123e386866001600160a01b0316638fb807c56040518163ffffffff1660e01b815260040160206040518083038186803b1580156123a657600080fd5b505afa1580156123ba573d6000803e3d6000fd5b505050506040513d601f19601f820116820180604052508101906123de9190612acd565b612647565b50949350505050565b6001600160a01b038316600090815260028501602052604081208054839290612416908490612d50565b90915550506001600160a01b038216600090815260028501602052604081208054839290612445908490612cf7565b909155505050505050565b803b6124b45760405162461bcd60e51b815260206004820152602d60248201527f455243313936373a206e657720696d706c656d656e746174696f6e206973206e60448201526c1bdd08184818dbdb9d1c9858dd609a1b6064820152608401610693565b7f360894a13ba1a3210667c828492db98dca3e2076cc3735a920a3ca505d382bbc80546001600160a01b0319166001600160a01b0392909216919091179055565b6060823b6125545760405162461bcd60e51b815260206004820152602660248201527f416464726573733a2064656c65676174652063616c6c20746f206e6f6e2d636f6044820152651b9d1c9858dd60d21b6064820152608401610693565b600080846001600160a01b03168460405161256f9190612b12565b600060405180830381855af49150503d80600081146125aa576040519150601f19603f3d011682016040523d82523d6000602084013e6125af565b606091505b50915091506125d78282604051806060016040528060278152602001612e19602791396127b9565b95945050505050565b6125e981612450565b6040516001600160a01b038216907fbc7cd75a20ee27fd9adebab32041f755214dbc6bffa90cc0225b39da2e5c2d3b90600090a250565b600054610100900460ff16611b735760405162461bcd60e51b815260040161069390612c75565b81548114610bf6579055565b60006126a8826040518060400160405280602081526020017f5361666545524332303a206c6f772d6c6576656c2063616c6c206661696c6564815250856001600160a01b03166127f29092919063ffffffff16565b805190915015610b3b57808060200190518101906126c69190612a68565b610b3b5760405162461bcd60e51b815260206004820152602a60248201527f5361666545524332303a204552433230206f7065726174696f6e20646964206e6044820152691bdd081cdd58d8d9595960b21b6064820152608401610693565b6001600160a01b03821660009081526002840160205260408120805483929061274f908490612cf7565b925050819055508083600101600082825461276a9190612cf7565b9091555050505050565b6001600160a01b03821660009081526002840160205260408120805483929061279e908490612d50565b925050819055508083600101600082825461276a9190612d50565b606083156127c8575081611baa565b8251156127d85782518084602001fd5b8160405162461bcd60e51b81526004016106939190612b59565b6060612175848460008585843b61284b5760405162461bcd60e51b815260206004820152601d60248201527f416464726573733a2063616c6c20746f206e6f6e2d636f6e74726163740000006044820152606401610693565b600080866001600160a01b031685876040516128679190612b12565b60006040518083038185875af1925050503d80600081146128a4576040519150601f19603f3d011682016040523d82523d6000602084013e6128a9565b606091505b50915091506128b98282866127b9565b979650505050505050565b6000602082840312156128d657600080fd5b8135611baa81612dc3565b6000602082840312156128f357600080fd5b8151611baa81612dc3565b6000806040838503121561291157600080fd5b823561291c81612dc3565b9150602083013561292c81612dc3565b809150509250929050565b60008060006060848603121561294c57600080fd5b833561295781612dc3565b9250602084013561296781612dc3565b929592945050506040919091013590565b6000806040838503121561298b57600080fd5b823561299681612dc3565b9150602083013567ffffffffffffffff808211156129b357600080fd5b818501915085601f8301126129c757600080fd5b8135818111156129d9576129d9612dad565b604051601f8201601f19908116603f01168101908382118183101715612a0157612a01612dad565b81604052828152886020848701011115612a1a57600080fd5b8260208601602083013760006020848301015280955050505050509250929050565b60008060408385031215612a4f57600080fd5b8235612a5a81612dc3565b946020939093013593505050565b600060208284031215612a7a57600080fd5b81518015158114611baa57600080fd5b600060208284031215612a9c57600080fd5b81356001600160e01b031981168114611baa57600080fd5b600060208284031215612ac657600080fd5b5035919050565b600060208284031215612adf57600080fd5b5051919050565b600080600060608486031215612afb57600080fd5b505081359360208301359350604090920135919050565b60008251612b24818460208701612d67565b9190910192915050565b6001600160a01b0391909116815260200190565b9182526001600160a01b0316602082015260400190565b6020815260008251806020840152612b78816040850160208701612d67565b601f01601f19169190910160400192915050565b6020808252602c908201527f46756e6374696f6e206d7573742062652063616c6c6564207468726f7567682060408201526b19195b1959d85d1958d85b1b60a21b606082015260800190565b6020808252602c908201527f46756e6374696f6e206d7573742062652063616c6c6564207468726f7567682060408201526b6163746976652070726f787960a01b606082015260800190565b6020808252600c908201526b76546f6b656e3a205a45524f60a01b604082015260600190565b6020808252601190820152703b2a37b5b2b71d102327a92124a22222a760791b604082015260600190565b6020808252602b908201527f496e697469616c697a61626c653a20636f6e7472616374206973206e6f74206960408201526a6e697469616c697a696e6760a81b606082015260800190565b6020808252601f908201527f5265656e7472616e637947756172643a207265656e7472616e742063616c6c00604082015260600190565b60008219821115612d0a57612d0a612d97565b500190565b600082612d2c57634e487b7160e01b600052601260045260246000fd5b500490565b6000816000190483118215151615612d4b57612d4b612d97565b500290565b600082821015612d6257612d62612d97565b500390565b60005b83811015612d82578181015183820152602001612d6a565b83811115612d91576000848401525b50505050565b634e487b7160e01b600052601160045260246000fd5b634e487b7160e01b600052604160045260246000fd5b6001600160a01b0381168114610a0e57600080fdfe6b577912acd5dc59c388bec58074d4f9fec898d83bbce9062b0904480ae2cc87f4730887401325e116e846d0e51948344682bbc6e090c5e5993a8025fb6a68b0416464726573733a206c6f772d6c6576656c2064656c65676174652063616c6c206661696c6564d77485f2488fed8e6524133b8c6952390a4b8c4ad46d7905f8b85662f1cf435ba2646970667358221220ff64768661f799e398f2646b1c2f280594ebe6feccb8a982adafc30a26fd6f5764736f6c63430008070033",
  "linkReferences": {},
  "deployedLinkReferences": {}
}