{
  "_format": "hh-sol-artifact-1",
  "contractName": "IndexBetting",
  "sourceName": "src/IndexBetting.sol",
  "abi": [
    {
      "inputs": [
        {
          "internalType": "string",
          "name": "_name",
          "type": "string"
        },
        {
          "internalType": "string",
          "name": "_symbol",
          "type": "string"
        },
        {
          "internalType": "contract ERC20",
          "name": "_rewardsToken",
          "type": "address"
        },
        {
          "internalType": "contract ERC20",
          "name": "_stakingToken",
          "type": "address"
        },
        {
          "internalType": "contract IIndexHelper",
          "name": "_indexHelper",
          "type": "address"
        },
        {
          "internalType": "uint256",
          "name": "_minLockupPeriod",
          "type": "uint256"
        },
        {
          "internalType": "uint16",
          "name": "_victoryRewardRate",
          "type": "uint16"
        },
        {
          "internalType": "uint16",
          "name": "_defeatRewardRate",
          "type": "uint16"
        },
        {
          "internalType": "address",
          "name": "_DPIPriceFeed",
          "type": "address"
        },
        {
          "internalType": "contract IIndexRouter",
          "name": "_indexRouter",
          "type": "address"
        },
        {
          "internalType": "uint256",
          "name": "_maxTVLAmountInBase",
          "type": "uint256"
        }
      ],
      "stateMutability": "nonpayable",
      "type": "constructor"
    },
    {
      "anonymous": false,
      "inputs": [
        {
          "indexed": true,
          "internalType": "address",
          "name": "owner",
          "type": "address"
        },
        {
          "indexed": true,
          "internalType": "address",
          "name": "spender",
          "type": "address"
        },
        {
          "indexed": false,
          "internalType": "uint256",
          "name": "amount",
          "type": "uint256"
        }
      ],
      "name": "Approval",
      "type": "event"
    },
    {
      "anonymous": false,
      "inputs": [
        {
          "indexed": true,
          "internalType": "address",
          "name": "previousOwner",
          "type": "address"
        },
        {
          "indexed": true,
          "internalType": "address",
          "name": "newOwner",
          "type": "address"
        }
      ],
      "name": "OwnershipTransferred",
      "type": "event"
    },
    {
      "anonymous": false,
      "inputs": [
        {
          "indexed": true,
          "internalType": "address",
          "name": "from",
          "type": "address"
        },
        {
          "indexed": true,
          "internalType": "address",
          "name": "to",
          "type": "address"
        },
        {
          "indexed": false,
          "internalType": "uint256",
          "name": "amount",
          "type": "uint256"
        }
      ],
      "name": "Transfer",
      "type": "event"
    },
    {
      "inputs": [],
      "name": "BASE_AGGREGATOR_DECIMALS",
      "outputs": [
        {
          "internalType": "uint8",
          "name": "",
          "type": "uint8"
        }
      ],
      "stateMutability": "view",
      "type": "function"
    },
    {
      "inputs": [],
      "name": "BASE_DECIMALS",
      "outputs": [
        {
          "internalType": "uint8",
          "name": "",
          "type": "uint8"
        }
      ],
      "stateMutability": "view",
      "type": "function"
    },
    {
      "inputs": [],
      "name": "BP",
      "outputs": [
        {
          "internalType": "uint16",
          "name": "",
          "type": "uint16"
        }
      ],
      "stateMutability": "view",
      "type": "function"
    },
    {
      "inputs": [],
      "name": "DOMAIN_SEPARATOR",
      "outputs": [
        {
          "internalType": "bytes32",
          "name": "",
          "type": "bytes32"
        }
      ],
      "stateMutability": "view",
      "type": "function"
    },
    {
      "inputs": [],
      "name": "PDIRewardRate",
      "outputs": [
        {
          "internalType": "uint16",
          "name": "",
          "type": "uint16"
        }
      ],
      "stateMutability": "view",
      "type": "function"
    },
    {
      "inputs": [
        {
          "internalType": "address",
          "name": "",
          "type": "address"
        },
        {
          "internalType": "address",
          "name": "",
          "type": "address"
        }
      ],
      "name": "allowance",
      "outputs": [
        {
          "internalType": "uint256",
          "name": "",
          "type": "uint256"
        }
      ],
      "stateMutability": "view",
      "type": "function"
    },
    {
      "inputs": [
        {
          "internalType": "address",
          "name": "spender",
          "type": "address"
        },
        {
          "internalType": "uint256",
          "name": "amount",
          "type": "uint256"
        }
      ],
      "name": "approve",
      "outputs": [
        {
          "internalType": "bool",
          "name": "",
          "type": "bool"
        }
      ],
      "stateMutability": "nonpayable",
      "type": "function"
    },
    {
      "inputs": [
        {
          "internalType": "address",
          "name": "",
          "type": "address"
        }
      ],
      "name": "balanceOf",
      "outputs": [
        {
          "internalType": "uint256",
          "name": "",
          "type": "uint256"
        }
      ],
      "stateMutability": "view",
      "type": "function"
    },
    {
      "inputs": [
        {
          "internalType": "uint256",
          "name": "_amount",
          "type": "uint256"
        }
      ],
      "name": "canDeposit",
      "outputs": [
        {
          "internalType": "bool",
          "name": "",
          "type": "bool"
        }
      ],
      "stateMutability": "view",
      "type": "function"
    },
    {
      "inputs": [
        {
          "internalType": "uint256",
          "name": "_amount",
          "type": "uint256"
        }
      ],
      "name": "canDepositAmount",
      "outputs": [
        {
          "internalType": "bool",
          "name": "",
          "type": "bool"
        }
      ],
      "stateMutability": "view",
      "type": "function"
    },
    {
      "inputs": [],
      "name": "decimals",
      "outputs": [
        {
          "internalType": "uint8",
          "name": "",
          "type": "uint8"
        }
      ],
      "stateMutability": "view",
      "type": "function"
    },
    {
      "inputs": [],
      "name": "defeatRewardRate",
      "outputs": [
        {
          "internalType": "uint16",
          "name": "",
          "type": "uint16"
        }
      ],
      "stateMutability": "view",
      "type": "function"
    },
    {
      "inputs": [
        {
          "internalType": "uint256",
          "name": "_assets",
          "type": "uint256"
        }
      ],
      "name": "deposit",
      "outputs": [],
      "stateMutability": "nonpayable",
      "type": "function"
    },
    {
      "inputs": [],
      "name": "endEpoch",
      "outputs": [
        {
          "internalType": "uint256",
          "name": "timestamp",
          "type": "uint256"
        },
        {
          "internalType": "uint256",
          "name": "PDIPrice",
          "type": "uint256"
        },
        {
          "internalType": "uint256",
          "name": "DPIPrice",
          "type": "uint256"
        }
      ],
      "stateMutability": "view",
      "type": "function"
    },
    {
      "inputs": [
        {
          "internalType": "uint256",
          "name": "_timestampExtension",
          "type": "uint256"
        },
        {
          "internalType": "uint256",
          "name": "_TVLAmountInBaseExtension",
          "type": "uint256"
        }
      ],
      "name": "extendChallenge",
      "outputs": [],
      "stateMutability": "nonpayable",
      "type": "function"
    },
    {
      "inputs": [],
      "name": "frontRunningLockupTimestamp",
      "outputs": [
        {
          "internalType": "uint256",
          "name": "",
          "type": "uint256"
        }
      ],
      "stateMutability": "view",
      "type": "function"
    },
    {
      "inputs": [
        {
          "internalType": "address",
          "name": "user",
          "type": "address"
        }
      ],
      "name": "geCurrentRewardAmount",
      "outputs": [
        {
          "internalType": "uint256",
          "name": "",
          "type": "uint256"
        }
      ],
      "stateMutability": "view",
      "type": "function"
    },
    {
      "inputs": [],
      "name": "getChallengeOutcome",
      "outputs": [
        {
          "internalType": "string",
          "name": "challengeOutcome",
          "type": "string"
        }
      ],
      "stateMutability": "view",
      "type": "function"
    },
    {
      "inputs": [],
      "name": "getCurrentRewardRate",
      "outputs": [
        {
          "internalType": "uint256",
          "name": "_PDIRewardRate",
          "type": "uint256"
        }
      ],
      "stateMutability": "view",
      "type": "function"
    },
    {
      "inputs": [],
      "name": "getCurrentTotalRewardAmount",
      "outputs": [
        {
          "internalType": "uint256",
          "name": "",
          "type": "uint256"
        }
      ],
      "stateMutability": "view",
      "type": "function"
    },
    {
      "inputs": [],
      "name": "getLatestDPIPrice",
      "outputs": [
        {
          "internalType": "uint256",
          "name": "",
          "type": "uint256"
        }
      ],
      "stateMutability": "view",
      "type": "function"
    },
    {
      "inputs": [],
      "name": "getLatestPDIPrice",
      "outputs": [
        {
          "internalType": "uint256",
          "name": "price",
          "type": "uint256"
        }
      ],
      "stateMutability": "view",
      "type": "function"
    },
    {
      "inputs": [
        {
          "internalType": "uint256",
          "name": "_amount",
          "type": "uint256"
        },
        {
          "internalType": "uint256",
          "name": "_PDIRewardRate",
          "type": "uint256"
        }
      ],
      "name": "getReward",
      "outputs": [
        {
          "internalType": "uint256",
          "name": "",
          "type": "uint256"
        }
      ],
      "stateMutability": "view",
      "type": "function"
    },
    {
      "inputs": [
        {
          "internalType": "address",
          "name": "_user",
          "type": "address"
        }
      ],
      "name": "getSettledRewardAmount",
      "outputs": [
        {
          "internalType": "uint256",
          "name": "",
          "type": "uint256"
        }
      ],
      "stateMutability": "view",
      "type": "function"
    },
    {
      "inputs": [],
      "name": "getSettledTotalRewardAmount",
      "outputs": [
        {
          "internalType": "uint256",
          "name": "",
          "type": "uint256"
        }
      ],
      "stateMutability": "view",
      "type": "function"
    },
    {
      "inputs": [],
      "name": "indexHelper",
      "outputs": [
        {
          "internalType": "contract IIndexHelper",
          "name": "",
          "type": "address"
        }
      ],
      "stateMutability": "view",
      "type": "function"
    },
    {
      "inputs": [],
      "name": "indexRouter",
      "outputs": [
        {
          "internalType": "contract IIndexRouter",
          "name": "",
          "type": "address"
        }
      ],
      "stateMutability": "view",
      "type": "function"
    },
    {
      "inputs": [],
      "name": "maxStakingAmount",
      "outputs": [
        {
          "internalType": "uint256",
          "name": "",
          "type": "uint256"
        }
      ],
      "stateMutability": "view",
      "type": "function"
    },
    {
      "inputs": [],
      "name": "minLockupPeriod",
      "outputs": [
        {
          "internalType": "uint256",
          "name": "",
          "type": "uint256"
        }
      ],
      "stateMutability": "view",
      "type": "function"
    },
    {
      "inputs": [],
      "name": "name",
      "outputs": [
        {
          "internalType": "string",
          "name": "",
          "type": "string"
        }
      ],
      "stateMutability": "view",
      "type": "function"
    },
    {
      "inputs": [
        {
          "internalType": "address",
          "name": "",
          "type": "address"
        }
      ],
      "name": "nonces",
      "outputs": [
        {
          "internalType": "uint256",
          "name": "",
          "type": "uint256"
        }
      ],
      "stateMutability": "view",
      "type": "function"
    },
    {
      "inputs": [],
      "name": "owner",
      "outputs": [
        {
          "internalType": "address",
          "name": "",
          "type": "address"
        }
      ],
      "stateMutability": "view",
      "type": "function"
    },
    {
      "inputs": [
        {
          "internalType": "address",
          "name": "owner",
          "type": "address"
        },
        {
          "internalType": "address",
          "name": "spender",
          "type": "address"
        },
        {
          "internalType": "uint256",
          "name": "value",
          "type": "uint256"
        },
        {
          "internalType": "uint256",
          "name": "deadline",
          "type": "uint256"
        },
        {
          "internalType": "uint8",
          "name": "v",
          "type": "uint8"
        },
        {
          "internalType": "bytes32",
          "name": "r",
          "type": "bytes32"
        },
        {
          "internalType": "bytes32",
          "name": "s",
          "type": "bytes32"
        }
      ],
      "name": "permit",
      "outputs": [],
      "stateMutability": "nonpayable",
      "type": "function"
    },
    {
      "inputs": [
        {
          "internalType": "uint256",
          "name": "_amount",
          "type": "uint256"
        },
        {
          "internalType": "address",
          "name": "_receiver",
          "type": "address"
        }
      ],
      "name": "removeRewardToken",
      "outputs": [],
      "stateMutability": "nonpayable",
      "type": "function"
    },
    {
      "inputs": [],
      "name": "renounceOwnership",
      "outputs": [],
      "stateMutability": "nonpayable",
      "type": "function"
    },
    {
      "inputs": [],
      "name": "resetPDIRewardRate",
      "outputs": [],
      "stateMutability": "nonpayable",
      "type": "function"
    },
    {
      "inputs": [],
      "name": "rewardToken",
      "outputs": [
        {
          "internalType": "contract ERC20",
          "name": "",
          "type": "address"
        }
      ],
      "stateMutability": "view",
      "type": "function"
    },
    {
      "inputs": [],
      "name": "setChallengeOutcome",
      "outputs": [],
      "stateMutability": "nonpayable",
      "type": "function"
    },
    {
      "inputs": [
        {
          "internalType": "uint256",
          "name": "_frontRunningLockupTimestamp",
          "type": "uint256"
        }
      ],
      "name": "setFrontRunningLockupTimestamp",
      "outputs": [],
      "stateMutability": "nonpayable",
      "type": "function"
    },
    {
      "inputs": [],
      "name": "settleChallengePrices",
      "outputs": [],
      "stateMutability": "nonpayable",
      "type": "function"
    },
    {
      "inputs": [],
      "name": "stakingToken",
      "outputs": [
        {
          "internalType": "contract ERC20",
          "name": "",
          "type": "address"
        }
      ],
      "stateMutability": "view",
      "type": "function"
    },
    {
      "inputs": [
        {
          "internalType": "uint256",
          "name": "_challengeDuration",
          "type": "uint256"
        },
        {
          "internalType": "uint256",
          "name": "_frontRunningLockupTimestamp",
          "type": "uint256"
        }
      ],
      "name": "startBettingChallenge",
      "outputs": [],
      "stateMutability": "nonpayable",
      "type": "function"
    },
    {
      "inputs": [],
      "name": "startEpoch",
      "outputs": [
        {
          "internalType": "uint256",
          "name": "timestamp",
          "type": "uint256"
        },
        {
          "internalType": "uint256",
          "name": "PDIPrice",
          "type": "uint256"
        },
        {
          "internalType": "uint256",
          "name": "DPIPrice",
          "type": "uint256"
        }
      ],
      "stateMutability": "view",
      "type": "function"
    },
    {
      "inputs": [],
      "name": "symbol",
      "outputs": [
        {
          "internalType": "string",
          "name": "",
          "type": "string"
        }
      ],
      "stateMutability": "view",
      "type": "function"
    },
    {
      "inputs": [],
      "name": "totalSupply",
      "outputs": [
        {
          "internalType": "uint256",
          "name": "",
          "type": "uint256"
        }
      ],
      "stateMutability": "view",
      "type": "function"
    },
    {
      "inputs": [
        {
          "internalType": "address",
          "name": "to",
          "type": "address"
        },
        {
          "internalType": "uint256",
          "name": "amount",
          "type": "uint256"
        }
      ],
      "name": "transfer",
      "outputs": [
        {
          "internalType": "bool",
          "name": "",
          "type": "bool"
        }
      ],
      "stateMutability": "nonpayable",
      "type": "function"
    },
    {
      "inputs": [
        {
          "internalType": "address",
          "name": "from",
          "type": "address"
        },
        {
          "internalType": "address",
          "name": "to",
          "type": "address"
        },
        {
          "internalType": "uint256",
          "name": "amount",
          "type": "uint256"
        }
      ],
      "name": "transferFrom",
      "outputs": [
        {
          "internalType": "bool",
          "name": "",
          "type": "bool"
        }
      ],
      "stateMutability": "nonpayable",
      "type": "function"
    },
    {
      "inputs": [
        {
          "internalType": "address",
          "name": "newOwner",
          "type": "address"
        }
      ],
      "name": "transferOwnership",
      "outputs": [],
      "stateMutability": "nonpayable",
      "type": "function"
    },
    {
      "inputs": [],
      "name": "victoryRewardRate",
      "outputs": [
        {
          "internalType": "uint16",
          "name": "",
          "type": "uint16"
        }
      ],
      "stateMutability": "view",
      "type": "function"
    },
    {
      "inputs": [],
      "name": "withdraw",
      "outputs": [],
      "stateMutability": "nonpayable",
      "type": "function"
    },
    {
      "inputs": [
        {
          "components": [
            {
              "internalType": "address",
              "name": "asset",
              "type": "address"
            },
            {
              "internalType": "address",
              "name": "swapTarget",
              "type": "address"
            },
            {
              "internalType": "uint256",
              "name": "buyAssetMinAmount",
              "type": "uint256"
            },
            {
              "internalType": "bytes",
              "name": "assetQuote",
              "type": "bytes"
            }
          ],
          "internalType": "struct IIndexRouter.MintQuoteParams[]",
          "name": "_quotes",
          "type": "tuple[]"
        }
      ],
      "name": "withdrawAndConvert",
      "outputs": [],
      "stateMutability": "nonpayable",
      "type": "function"
    },
    {
      "inputs": [
        {
          "internalType": "address",
          "name": "_swapTarget",
          "type": "address"
        },
        {
          "internalType": "bytes",
          "name": "_assetQuote",
          "type": "bytes"
        },
        {
          "internalType": "uint256",
          "name": "_minBuyAmount",
          "type": "uint256"
        }
      ],
      "name": "withdrawAndSwap",
      "outputs": [],
      "stateMutability": "nonpayable",
      "type": "function"
    }
  ],
  "bytecode": "0x6101e06040523480156200001257600080fd5b5060405162003f4c38038062003f4c8339810160408190526200003591620007ba565b8a8a896001600160a01b031663313ce5676040518163ffffffff1660e01b8152600401602060405180830381865afa15801562000076573d6000803e3d6000fd5b505050506040513d601f19601f820116820180604052508101906200009c9190620008c3565b8251620000b190600090602086019062000617565b508151620000c790600190602085019062000617565b5060ff81166080524660a052620000dd620001eb565b60c05250620000f0915033905062000287565b600160075561271061ffff86161180159062000112575061271061ffff851611155b6200016e5760405162461bcd60e51b815260206004820152602160248201527f496e64657842657474696e673a20494e56414c49445f5245574152445f5241546044820152604560f81b60648201526084015b60405180910390fd5b6001600160a01b03898116610100528881166101208190528882166101a05261014088905261ffff8781166101605286166101805284821660e0529083166101c052620001cb9083600019620002d9602090811b6200211317901c565b620001d68162000358565b600f555062000bd29950505050505050505050565b60007f8b73c3c69bb8fe3d512ecc4cf759cc79239f7b179b0ffacaa9a75d522b39400f60006040516200021f91906200092b565b6040805191829003822060208301939093528101919091527fc89efdaa54c0f20c7adf612882df0950f5a951637e0307cdcb4c672f298b8bc660608201524660808201523060a082015260c00160405160208183030381529060405280519060200120905090565b600680546001600160a01b038381166001600160a01b0319831681179093556040519116919082907f8be0079c531659141344cd1fd0a4f28419497f9722a3daafe3b4186f6b6457e090600090a35050565b600060405163095ea7b360e01b8152836004820152826024820152602060006044836000895af13d15601f3d1160016000511416171691505080620003525760405162461bcd60e51b815260206004820152600e60248201526d1054141493d59157d1905253115160921b604482015260640162000165565b50505050565b600062000419610120516001600160a01b031663313ce5676040518163ffffffff1660e01b8152600401602060405180830381865afa158015620003a0573d6000803e3d6000fd5b505050506040513d601f19601f82011682018060405250810190620003c69190620008c3565b620003d390600a62000ae1565b620003dd6200041f565b620003eb6006600862000af2565b620003f890600a62000ae1565b62000404908662000b18565b620005f760201b62002190179092919060201c565b92915050565b600080600080600060e0516001600160a01b031663feaf968c6040518163ffffffff1660e01b815260040160a060405180830381865afa15801562000468573d6000803e3d6000fd5b505050506040513d601f19601f820116820180604052508101906200048e919062000b52565b9450945050935093508160001480620004a75750600183125b80620004c45750836001600160501b0316816001600160501b0316105b15620005ee576001600160501b03841615620005715760e0516001600160a01b0316639a6fc8f5620004f860018762000ba7565b6040516001600160e01b031960e084901b1681526001600160501b03909116600482015260240160a060405180830381865afa1580156200053d573d6000803e3d6000fd5b505050506040513d601f19601f8201168201806040525081019062000563919062000b52565b939750919550909350909150505b8115801590620005815750600083135b8015620005a05750836001600160501b0316816001600160501b031610155b620005ee5760405162461bcd60e51b815260206004820152601360248201527f496e64657842657474696e673a205354414c4500000000000000000000000000604482015260640162000165565b50909392505050565b8282028115158415858304851417166200061057600080fd5b0492915050565b8280546200062590620008ef565b90600052602060002090601f01602090048101928262000649576000855562000694565b82601f106200066457805160ff191683800117855562000694565b8280016001018555821562000694579182015b828111156200069457825182559160200191906001019062000677565b50620006a2929150620006a6565b5090565b5b80821115620006a25760008155600101620006a7565b634e487b7160e01b600052604160045260246000fd5b600082601f830112620006e557600080fd5b81516001600160401b0380821115620007025762000702620006bd565b604051601f8301601f19908116603f011681019082821181831017156200072d576200072d620006bd565b816040528381526020925086838588010111156200074a57600080fd5b600091505b838210156200076e57858201830151818301840152908201906200074f565b83821115620007805760008385830101525b9695505050505050565b80516001600160a01b0381168114620007a257600080fd5b919050565b805161ffff81168114620007a257600080fd5b60008060008060008060008060008060006101608c8e031215620007dd57600080fd5b8b516001600160401b03811115620007f457600080fd5b620008028e828f01620006d3565b60208e0151909c5090506001600160401b038111156200082157600080fd5b6200082f8e828f01620006d3565b9a50506200084060408d016200078a565b98506200085060608d016200078a565b97506200086060808d016200078a565b965060a08c015195506200087760c08d01620007a7565b94506200088760e08d01620007a7565b9350620008986101008d016200078a565b9250620008a96101208d016200078a565b91506101408c015190509295989b509295989b9093969950565b600060208284031215620008d657600080fd5b815160ff81168114620008e857600080fd5b9392505050565b600181811c908216806200090457607f821691505b6020821081036200092557634e487b7160e01b600052602260045260246000fd5b50919050565b600080835481600182811c9150808316806200094857607f831692505b602080841082036200096857634e487b7160e01b86526022600452602486fd5b8180156200097f57600181146200099157620009c0565b60ff19861689528489019650620009c0565b60008a81526020902060005b86811015620009b85781548b8201529085019083016200099d565b505084890196505b509498975050505050505050565b634e487b7160e01b600052601160045260246000fd5b600181815b8085111562000a2557816000190482111562000a095762000a09620009ce565b8085161562000a1757918102915b93841c9390800290620009e9565b509250929050565b60008262000a3e5750600162000419565b8162000a4d5750600062000419565b816001811462000a66576002811462000a715762000a91565b600191505062000419565b60ff84111562000a855762000a85620009ce565b50506001821b62000419565b5060208310610133831016604e8410600b841016171562000ab6575081810a62000419565b62000ac28383620009e4565b806000190482111562000ad95762000ad9620009ce565b029392505050565b6000620008e860ff84168362000a2d565b600060ff821660ff84168082101562000b0f5762000b0f620009ce565b90039392505050565b600081600019048311821515161562000b355762000b35620009ce565b500290565b80516001600160501b0381168114620007a257600080fd5b600080600080600060a0868803121562000b6b57600080fd5b62000b768662000b3a565b945060208601519350604086015192506060860151915062000b9b6080870162000b3a565b90509295509295909350565b60006001600160501b038381169083168181101562000bca5762000bca620009ce565b039392505050565b60805160a05160c05160e05161010051610120516101405161016051610180516101a0516101c05161321a62000d32600039600081816104d901526114c50152600081816107170152610a5a0152600081816104a2015281816109090152818161200901526127dd0152600081816105b9015281816108b70152818161202f01526128030152600081816103b1015281816111640152611f6401526000818161057f01528181610f72015281816113c80152818161152e015281816115ec015281816117df015281816118e701528181611a1801528181611af201528181611c1801526124f301526000818161073e01528181610a2d01528181610e5501528181610f3e01528181611456015281816114ff015281816116d1015281816117690152818161186d01528181611932015261241a015260008181610af90152610bcb01526000610eb901526000610e8401526000610418015261321a6000f3fe608060405234801561001057600080fd5b506004361061030c5760003560e01c806370a082311161019d578063a2c8b177116100e9578063dd62ed3e116100a2578063f2fde38b1161007c578063f2fde38b146106ff578063f68f862614610712578063f7c618c114610739578063ffa39a951461076057600080fd5b8063dd62ed3e146106b9578063dee1d0cc146106e4578063e6a4a8b5146106f757600080fd5b8063a2c8b17714610653578063a9059cbb14610665578063b6b55f2514610678578063b90bc5191461068b578063d31f561e1461069e578063d505accf146106a657600080fd5b80637ecebe0011610156578063921e848a11610130578063921e848a1461061c57806395d89b411461062f5780639cfdbd5e14610637578063a07dcf361461064057600080fd5b80637ecebe00146105e35780638b09578d146106035780638da5cb5b1461060b57600080fd5b806370a0823114610552578063715018a61461057257806372f702f31461057a57806375704d20146105a157806379a89232146105b45780637bb60aa7146105db57600080fd5b8063318690f71161025c5780633df6e750116102155780634d5d0806116101ef5780634d5d0806146105265780635cd5c4071461052f57806361153ead146105375780636b685c741461054a57600080fd5b80633df6e750146104cc5780633e6cb4e1146104d457806347d68c0f1461051357600080fd5b8063318690f71461044c57806335cc9cb41461046d5780633644e5151461048257806339443b8e1461048a5780633c9900f21461049d5780633ccfd60b146104c457600080fd5b80630e32e8cf116102c95780631b292fec116102a35780631b292fec146103e45780631f03d1a6146103f757806323b872dd14610400578063313ce5671461041357600080fd5b80630e32e8cf146103ac578063142b51a5146103d357806318160ddd146103db57600080fd5b806301b1e93a1461031157806306fdde031461033957806308daecd01461034e578063095ea7b3146103565780630b52e588146103695780630b9663db1461037f575b600080fd5b61032461031f3660046128f6565b610768565b60405190151581526020015b60405180910390f35b6103416107ee565b6040516103309190612967565b61034161087c565b61032461036436600461299d565b6109a9565b610371610a16565b604051908152602001610330565b600b54600c54600d5461039192919083565b60408051938452602084019290925290820152606001610330565b6103717f000000000000000000000000000000000000000000000000000000000000000081565b610371610aef565b61037160025481565b6103716103f23660046129c7565b610ce9565b610371600e5481565b61032461040e3660046129e2565b610d60565b61043a7f000000000000000000000000000000000000000000000000000000000000000081565b60405160ff9091168152602001610330565b60105461045a9061ffff1681565b60405161ffff9091168152602001610330565b61048061047b366004612a1e565b610e40565b005b610371610e80565b6103246104983660046128f6565b610edb565b61045a7f000000000000000000000000000000000000000000000000000000000000000081565b610480610f18565b610480610f99565b6104fb7f000000000000000000000000000000000000000000000000000000000000000081565b6040516001600160a01b039091168152602001610330565b6103716105213660046129c7565b61100a565b610371600f5481565b610371611085565b610480610545366004612a4a565b6110c8565b61043a600881565b6103716105603660046129c7565b60036020526000908152604090205481565b61048061113c565b6104fb7f000000000000000000000000000000000000000000000000000000000000000081565b6104806105af366004612a4a565b611150565b61045a7f000000000000000000000000000000000000000000000000000000000000000081565b610480611279565b6103716105f13660046129c7565b60056020526000908152604090205481565b61043a600681565b6006546001600160a01b03166104fb565b61048061062a366004612b4c565b61138f565b610341611799565b61045a61271081565b61048061064e366004612c72565b6117a6565b600854600954600a5461039192919083565b61032461067336600461299d565b611b34565b6104806106863660046128f6565b611b9a565b610371610699366004612a4a565b611c4d565b610480611c98565b6104806106b4366004612cd8565b611d16565b6103716106c7366004612d45565b600460209081526000928352604080842090915290825290205481565b6104806106f23660046128f6565b611f5a565b610371611fa7565b61048061070d3660046129c7565b61205a565b6104fb7f000000000000000000000000000000000000000000000000000000000000000081565b6104fb7f000000000000000000000000000000000000000000000000000000000000000081565b6103716120d0565b6000600f54306001600160a01b03166318160ddd6040518163ffffffff1660e01b8152600401602060405180830381865afa1580156107ab573d6000803e3d6000fd5b505050506040513d601f19601f820116820180604052508101906107cf9190612d6f565b6107d99084612d9e565b116107e657506001919050565b506000919050565b600080546107fb90612db6565b80601f016020809104026020016040519081016040528092919081815260200182805461082790612db6565b80156108745780601f1061084957610100808354040283529160200191610874565b820191906000526020600020905b81548152906001019060200180831161085757829003601f168201915b505050505081565b60105460609061ffff166000036108af57506040805180820190915260078152664f4e474f494e4760c81b602082015290565b60105461ffff7f000000000000000000000000000000000000000000000000000000000000000081169116036109015750604080518082019091526007815266564943544f525960c81b602082015290565b60105461ffff7f00000000000000000000000000000000000000000000000000000000000000008116911603610952575060408051808201909152600681526511115191505560d21b602082015290565b60405162461bcd60e51b815260206004820152602160248201527f496e64657842657474696e673a20494e56414c49445f5245574152445f5241546044820152604560f81b60648201526084015b60405180910390fd5b3360008181526004602090815260408083206001600160a01b038716808552925280832085905551919290917f8c5be1e5ebec7d5bd14f71427d1e84f3dd0314c0f7b2291e5b200ac8c7c3b92590610a049086815260200190565b60405180910390a35060015b92915050565b60405163ba0dd4b160e01b81526001600160a01b037f00000000000000000000000000000000000000000000000000000000000000008116600483015260009182917f0000000000000000000000000000000000000000000000000000000000000000169063ba0dd4b1906024016040805180830381865afa158015610aa0573d6000803e3d6000fd5b505050506040513d601f19601f82011682018060405250810190610ac49190612df0565b9150610ad4905060066008612e14565b610adf90600a612f1b565b610ae99082612f2a565b91505090565b60008060008060007f00000000000000000000000000000000000000000000000000000000000000006001600160a01b031663feaf968c6040518163ffffffff1660e01b815260040160a060405180830381865afa158015610b55573d6000803e3d6000fd5b505050506040513d601f19601f82011682018060405250810190610b799190612f60565b9450945050935093508160001480610b915750600183125b80610bad5750836001600160501b0316816001600160501b0316105b15610ce0576001600160501b03841615610c71576001600160a01b037f000000000000000000000000000000000000000000000000000000000000000016639a6fc8f5610bfb600187612fb0565b6040516001600160e01b031960e084901b1681526001600160501b03909116600482015260240160a060405180830381865afa158015610c3f573d6000803e3d6000fd5b505050506040513d601f19601f82011682018060405250810190610c639190612f60565b939750919550909350909150505b8115801590610c805750600083135b8015610c9e5750836001600160501b0316816001600160501b031610155b610ce05760405162461bcd60e51b8152602060048201526013602482015272496e64657842657474696e673a205354414c4560681b60448201526064016109a0565b50909392505050565b6040516370a0823160e01b81526001600160a01b0382166004820152600090610a109030906370a0823190602401602060405180830381865afa158015610d34573d6000803e3d6000fd5b505050506040513d601f19601f82011682018060405250810190610d589190612d6f565b610699611fa7565b6001600160a01b03831660009081526004602090815260408083203384529091528120546000198114610dbc57610d978382612fd8565b6001600160a01b03861660009081526004602090815260408083203384529091529020555b6001600160a01b03851660009081526003602052604081208054859290610de4908490612fd8565b90915550506001600160a01b03808516600081815260036020526040908190208054870190555190918716906000805160206131c583398151915290610e2d9087815260200190565b60405180910390a3506001949350505050565b610e486121af565b610e7c6001600160a01b037f0000000000000000000000000000000000000000000000000000000000000000168284612209565b5050565b60007f00000000000000000000000000000000000000000000000000000000000000004614610eb657610eb1612281565b905090565b507f000000000000000000000000000000000000000000000000000000000000000090565b6008546000901580610efb5750600e54600b544291610ef991612fd8565b115b8015610f0b5750610f0b82610768565b156107e657506001919050565b610f20611c98565b600080610f2c3361231b565b9092509050610f656001600160a01b037f0000000000000000000000000000000000000000000000000000000000000000163383612209565b610e7c6001600160a01b037f0000000000000000000000000000000000000000000000000000000000000000163384612209565b610fa16121af565b600b544210610ff25760405162461bcd60e51b815260206004820152601d60248201527f496e64657842657474696e673a204348414c4c454e47455f454e44454400000060448201526064016109a0565b610ffa610a16565b600955611005610aef565b600a55565b6040516370a0823160e01b81526001600160a01b0382166004820152600090610a109030906370a0823190602401602060405180830381865afa158015611055573d6000803e3d6000fd5b505050506040513d601f19601f820116820180604052508101906110799190612d6f565b60105461ffff16611c4d565b6000610eb1306001600160a01b03166318160ddd6040518163ffffffff1660e01b8152600401602060405180830381865afa158015611055573d6000803e3d6000fd5b6110d06121af565b600e54600b546110e09190612fd8565b42106110fe5760405162461bcd60e51b81526004016109a090612fef565b81600b60000160008282546111139190612d9e565b909155506111229050816124ec565b600f60008282546111339190612d9e565b90915550505050565b6111446121af565b61114e60006125a7565b565b6111586121af565b808211801561118757507f00000000000000000000000000000000000000000000000000000000000000008110155b6111a35760405162461bcd60e51b81526004016109a090612fef565b60105461ffff16156111f75760405162461bcd60e51b815260206004820152601f60248201527f496e64657842657474696e673a2052455345545f5245574152445f524154450060448201526064016109a0565b80600e819055506040518060600160405280428152602001611217610a16565b8152602001611224610aef565b905280516008556020810151600955604090810151600a55805160608101909152806112508442612d9e565b8152600060208083018290526040928301919091528251600b55820151600c550151600d555050565b6112816121af565b600b544210156112d35760405162461bcd60e51b815260206004820152601f60248201527f496e64657842657474696e673a204348414c4c454e47455f4f4e474f494e470060448201526064016109a0565b306001600160a01b03166318160ddd6040518163ffffffff1660e01b8152600401602060405180830381865afa158015611311573d6000803e3d6000fd5b505050506040513d601f19601f820116820180604052508101906113359190612d6f565b156113825760405162461bcd60e51b815260206004820152601f60248201527f496e64657842657474696e673a205354414b494e475f4e4f545f454d5054590060448201526064016109a0565b6010805461ffff19169055565b611397611c98565b6000806113a33361231b565b6040516370a0823160e01b815230600482015291935091506000906001600160a01b037f000000000000000000000000000000000000000000000000000000000000000016906370a0823190602401602060405180830381865afa15801561140f573d6000803e3d6000fd5b505050506040513d601f19601f820116820180604052508101906114339190612d6f565b6040516370a0823160e01b81523060048201529091506000906001600160a01b037f000000000000000000000000000000000000000000000000000000000000000016906370a0823190602401602060405180830381865afa15801561149d573d6000803e3d6000fd5b505050506040513d601f19601f820116820180604052508101906114c19190612d6f565b90507f00000000000000000000000000000000000000000000000000000000000000006001600160a01b031663abe8ead26040518060a001604052807f00000000000000000000000000000000000000000000000000000000000000006001600160a01b031681526020017f00000000000000000000000000000000000000000000000000000000000000006001600160a01b03168152602001878152602001336001600160a01b03168152602001888152506040518263ffffffff1660e01b8152600401611590919061301e565b6020604051808303816000875af11580156115af573d6000803e3d6000fd5b505050506040513d601f19601f820116820180604052508101906115d39190612d6f565b506040516370a0823160e01b81523060048201526000907f00000000000000000000000000000000000000000000000000000000000000006001600160a01b0316906370a0823190602401602060405180830381865afa15801561163b573d6000803e3d6000fd5b505050506040513d601f19601f8201168201806040525081019061165f9190612d6f565b90508461166c8285612fd8565b146116b95760405162461bcd60e51b815260206004820152601a60248201527f496e64657842657474696e673a2057495448445241575f4d415800000000000060448201526064016109a0565b6040516370a0823160e01b81523060048201526000907f00000000000000000000000000000000000000000000000000000000000000006001600160a01b0316906370a0823190602401602060405180830381865afa158015611720573d6000803e3d6000fd5b505050506040513d601f19601f820116820180604052508101906117449190612d6f565b905061179033866117558685612fd8565b61175f9190612d9e565b6001600160a01b037f0000000000000000000000000000000000000000000000000000000000000000169190612209565b50505050505050565b600180546107fb90612db6565b6117ae611c98565b6000806117ba3361231b565b6040516370a0823160e01b815230600482015291935091506000906001600160a01b037f000000000000000000000000000000000000000000000000000000000000000016906370a0823190602401602060405180830381865afa158015611826573d6000803e3d6000fd5b505050506040513d601f19601f8201168201806040525081019061184a9190612d6f565b6040516370a0823160e01b81523060048201529091506000906001600160a01b037f000000000000000000000000000000000000000000000000000000000000000016906370a0823190602401602060405180830381865afa1580156118b4573d6000803e3d6000fd5b505050506040513d601f19601f820116820180604052508101906118d89190612d6f565b90506119106001600160a01b037f00000000000000000000000000000000000000000000000000000000000000001688600019612113565b61191a87876125f9565b6040516370a0823160e01b81523060048201526000907f00000000000000000000000000000000000000000000000000000000000000006001600160a01b0316906370a0823190602401602060405180830381865afa158015611981573d6000803e3d6000fd5b505050506040513d601f19601f820116820180604052508101906119a59190612d6f565b9050856119b28383612fd8565b1015611a005760405162461bcd60e51b815260206004820152601960248201527f496e64657842657474696e673a20554e444552424f554748540000000000000060448201526064016109a0565b6040516370a0823160e01b81523060048201526000907f00000000000000000000000000000000000000000000000000000000000000006001600160a01b0316906370a0823190602401602060405180830381865afa158015611a67573d6000803e3d6000fd5b505050506040513d601f19601f82011682018060405250810190611a8b9190612d6f565b905085611a988286612fd8565b14611ae55760405162461bcd60e51b815260206004820152601a60248201527f496e64657842657474696e673a2057495448445241575f4d415800000000000060448201526064016109a0565b611b1a6001600160a01b037f0000000000000000000000000000000000000000000000000000000000000000168a6000612113565b611b2933866117558686612fd8565b505050505050505050565b33600090815260036020526040812080548391908390611b55908490612fd8565b90915550506001600160a01b038316600081815260036020526040908190208054850190555133906000805160206131c583398151915290610a049086815260200190565b60008111611be65760405162461bcd60e51b8152602060048201526019602482015278496e64657842657474696e673a20414d4f554e545f5a45524f60381b60448201526064016109a0565b611bef81610edb565b611c0b5760405162461bcd60e51b81526004016109a090612fef565b611c406001600160a01b037f0000000000000000000000000000000000000000000000000000000000000000163330846126b9565b611c4a3382612743565b50565b600954600a5460009190811580611c62575080155b15611c7257600092505050610a10565b6000611c7f868385612190565b9050611c8e8186612710612190565b9695505050505050565b600b54421015611cea5760405162461bcd60e51b815260206004820152601f60248201527f496e64657842657474696e673a204348414c4c454e47455f4f4e474f494e470060448201526064016109a0565b60105461ffff1660000361114e57611d00610a16565b600c55611d0b610aef565b600d5561114e61279d565b42841015611d665760405162461bcd60e51b815260206004820152601760248201527f5045524d49545f444541444c494e455f4558504952454400000000000000000060448201526064016109a0565b60006001611d72610e80565b6001600160a01b038a811660008181526005602090815260409182902080546001810190915582517f6e71edae12b1b97f4d1f60370fef10105fa2faae0126114a169c64845d6126c98184015280840194909452938d166060840152608083018c905260a083019390935260c08083018b90528151808403909101815260e08301909152805192019190912061190160f01b6101008301526101028201929092526101228101919091526101420160408051601f198184030181528282528051602091820120600084529083018083525260ff871690820152606081018590526080810184905260a0016020604051602081039080840390855afa158015611e7e573d6000803e3d6000fd5b5050604051601f1901519150506001600160a01b03811615801590611eb45750876001600160a01b0316816001600160a01b0316145b611ef15760405162461bcd60e51b815260206004820152600e60248201526d24a72b20a624a22fa9a4a3a722a960911b60448201526064016109a0565b6001600160a01b0390811660009081526004602090815260408083208a8516808552908352928190208990555188815291928a16917f8c5be1e5ebec7d5bd14f71427d1e84f3dd0314c0f7b2291e5b200ac8c7c3b925910160405180910390a350505050505050565b611f626121af565b7f0000000000000000000000000000000000000000000000000000000000000000811015611fa25760405162461bcd60e51b81526004016109a090612fef565b600e55565b600954600a5460009190811580611fbc575080155b15611fca5760009250505090565b611fe9611fd96008600a612f1b565b82611fe2610aef565b9190612190565b612001611ff86008600a612f1b565b84611fe2610a16565b101561202d577f000000000000000000000000000000000000000000000000000000000000000061204f565b7f00000000000000000000000000000000000000000000000000000000000000005b61ffff169250505090565b6120626121af565b6001600160a01b0381166120c75760405162461bcd60e51b815260206004820152602660248201527f4f776e61626c653a206e6577206f776e657220697320746865207a65726f206160448201526564647265737360d01b60648201526084016109a0565b611c4a816125a7565b6000610eb1306001600160a01b03166318160ddd6040518163ffffffff1660e01b8152600401602060405180830381865afa158015610d34573d6000803e3d6000fd5b600060405163095ea7b360e01b8152836004820152826024820152602060006044836000895af13d15601f3d116001600051141617169150508061218a5760405162461bcd60e51b815260206004820152600e60248201526d1054141493d59157d1905253115160921b60448201526064016109a0565b50505050565b8282028115158415858304851417166121a857600080fd5b0492915050565b6006546001600160a01b0316331461114e5760405162461bcd60e51b815260206004820181905260248201527f4f776e61626c653a2063616c6c6572206973206e6f7420746865206f776e657260448201526064016109a0565b600060405163a9059cbb60e01b8152836004820152826024820152602060006044836000895af13d15601f3d116001600051141617169150508061218a5760405162461bcd60e51b815260206004820152600f60248201526e1514905394d1915497d19052531151608a1b60448201526064016109a0565b60007f8b73c3c69bb8fe3d512ecc4cf759cc79239f7b179b0ffacaa9a75d522b39400f60006040516122b391906130f0565b6040805191829003822060208301939093528101919091527fc89efdaa54c0f20c7adf612882df0950f5a951637e0307cdcb4c672f298b8bc660608201524660808201523060a082015260c00160405160208183030381529060405280519060200120905090565b60008061232661283b565b6040516370a0823160e01b81526001600160a01b038416600482015230906370a0823190602401602060405180830381865afa15801561236a573d6000803e3d6000fd5b505050506040513d601f19601f8201168201806040525081019061238e9190612d6f565b9150600082116123dc5760405162461bcd60e51b8152602060048201526019602482015278496e64657842657474696e673a20414d4f554e545f5a45524f60381b60448201526064016109a0565b6123e68383612894565b6010546123f890839061ffff16611c4d565b6040516370a0823160e01b815230600482015290915081906001600160a01b037f000000000000000000000000000000000000000000000000000000000000000016906370a0823190602401602060405180830381865afa158015612461573d6000803e3d6000fd5b505050506040513d601f19601f820116820180604052508101906124859190612d6f565b10156124dd5760405162461bcd60e51b815260206004820152602160248201527f496e64657842657474696e673a20494e53554646494349454e545f52455741526044820152601160fa1b60648201526084016109a0565b6124e76001600755565b915091565b6000610a107f00000000000000000000000000000000000000000000000000000000000000006001600160a01b031663313ce5676040518163ffffffff1660e01b8152600401602060405180830381865afa15801561254f573d6000803e3d6000fd5b505050506040513d601f19601f82011682018060405250810190612573919061318b565b61257e90600a612f1b565b612586610aef565b61259260066008612e14565b61259d90600a612f1b565b611fe29086612f2a565b600680546001600160a01b038381166001600160a01b0319831681179093556040519116919082907f8be0079c531659141344cd1fd0a4f28419497f9722a3daafe3b4186f6b6457e090600090a35050565b600080836001600160a01b03168360405161261491906131a8565b6000604051808303816000865af19150503d8060008114612651576040519150601f19603f3d011682016040523d82523d6000602084013e612656565b606091505b50915091508161218a5780516000036126b15760405162461bcd60e51b815260206004820152601a60248201527f496e64657842657474696e673a20494e56414c49445f5357415000000000000060448201526064016109a0565b805181602001fd5b60006040516323b872dd60e01b81528460048201528360248201528260448201526020600060648360008a5af13d15601f3d116001600051141617169150508061273c5760405162461bcd60e51b81526020600482015260146024820152731514905394d1915497d19493d357d1905253115160621b60448201526064016109a0565b5050505050565b80600260008282546127559190612d9e565b90915550506001600160a01b0382166000818152600360209081526040808320805486019055518481526000805160206131c583398151915291015b60405180910390a35050565b6127b96127ac6008600a612f1b565b600a54600d549190612190565b6127d56127c86008600a612f1b565b600954600c549190612190565b1015612801577f0000000000000000000000000000000000000000000000000000000000000000612823565b7f00000000000000000000000000000000000000000000000000000000000000005b6010805461ffff191661ffff92909216919091179055565b60026007540361288d5760405162461bcd60e51b815260206004820152601f60248201527f5265656e7472616e637947756172643a207265656e7472616e742063616c6c0060448201526064016109a0565b6002600755565b6001600160a01b038216600090815260036020526040812080548392906128bc908490612fd8565b90915550506002805482900390556040518181526000906001600160a01b038416906000805160206131c583398151915290602001612791565b60006020828403121561290857600080fd5b5035919050565b60005b8381101561292a578181015183820152602001612912565b8381111561218a5750506000910152565b6000815180845261295381602086016020860161290f565b601f01601f19169290920160200192915050565b60208152600061297a602083018461293b565b9392505050565b80356001600160a01b038116811461299857600080fd5b919050565b600080604083850312156129b057600080fd5b6129b983612981565b946020939093013593505050565b6000602082840312156129d957600080fd5b61297a82612981565b6000806000606084860312156129f757600080fd5b612a0084612981565b9250612a0e60208501612981565b9150604084013590509250925092565b60008060408385031215612a3157600080fd5b82359150612a4160208401612981565b90509250929050565b60008060408385031215612a5d57600080fd5b50508035926020909101359150565b634e487b7160e01b600052604160045260246000fd5b6040516080810167ffffffffffffffff81118282101715612aa557612aa5612a6c565b60405290565b604051601f8201601f1916810167ffffffffffffffff81118282101715612ad457612ad4612a6c565b604052919050565b600082601f830112612aed57600080fd5b813567ffffffffffffffff811115612b0757612b07612a6c565b612b1a601f8201601f1916602001612aab565b818152846020838601011115612b2f57600080fd5b816020850160208301376000918101602001919091529392505050565b60006020808385031215612b5f57600080fd5b823567ffffffffffffffff80821115612b7757600080fd5b818501915085601f830112612b8b57600080fd5b813581811115612b9d57612b9d612a6c565b8060051b612bac858201612aab565b9182528381018501918581019089841115612bc657600080fd5b86860192505b83831015612c6557823585811115612be45760008081fd5b86016080818c03601f1901811315612bfc5760008081fd5b612c04612a82565b612c0f8a8401612981565b81526040612c1e818501612981565b828c015260608481013582840152928401359289841115612c4157600091508182fd5b612c4f8f8d86880101612adc565b9083015250845250509186019190860190612bcc565b9998505050505050505050565b600080600060608486031215612c8757600080fd5b612c9084612981565b9250602084013567ffffffffffffffff811115612cac57600080fd5b612cb886828701612adc565b925050604084013590509250925092565b60ff81168114611c4a57600080fd5b600080600080600080600060e0888a031215612cf357600080fd5b612cfc88612981565b9650612d0a60208901612981565b955060408801359450606088013593506080880135612d2881612cc9565b9699959850939692959460a0840135945060c09093013592915050565b60008060408385031215612d5857600080fd5b612d6183612981565b9150612a4160208401612981565b600060208284031215612d8157600080fd5b5051919050565b634e487b7160e01b600052601160045260246000fd5b60008219821115612db157612db1612d88565b500190565b600181811c90821680612dca57607f821691505b602082108103612dea57634e487b7160e01b600052602260045260246000fd5b50919050565b60008060408385031215612e0357600080fd5b505080516020909101519092909150565b600060ff821660ff841680821015612e2e57612e2e612d88565b90039392505050565b600181815b80851115612e72578160001904821115612e5857612e58612d88565b80851615612e6557918102915b93841c9390800290612e3c565b509250929050565b600082612e8957506001610a10565b81612e9657506000610a10565b8160018114612eac5760028114612eb657612ed2565b6001915050610a10565b60ff841115612ec757612ec7612d88565b50506001821b610a10565b5060208310610133831016604e8410600b8410161715612ef5575081810a610a10565b612eff8383612e37565b8060001904821115612f1357612f13612d88565b029392505050565b600061297a60ff841683612e7a565b6000816000190483118215151615612f4457612f44612d88565b500290565b80516001600160501b038116811461299857600080fd5b600080600080600060a08688031215612f7857600080fd5b612f8186612f49565b9450602086015193506040860151925060608601519150612fa460808701612f49565b90509295509295909350565b60006001600160501b0383811690831681811015612fd057612fd0612d88565b039392505050565b600082821015612fea57612fea612d88565b500390565b602080825260159082015274125b99195e10995d1d1a5b99ce8812539590531251605a1b604082015260600190565b6000602080835260c0830160018060a01b03808651168386015282860151604082821681880152808801519150606082818901528089015192506080848416818a0152808a0151935060a0808a015285845180885260e08b01915060e08160051b8c01019750888601955060005b818110156130df578b890360df190183528651805189168a528a81015189168b8b015286810151878b0152850151858a018590526130cc858b018261293b565b995050958901959189019160010161308c565b50969b9a5050505050505050505050565b600080835481600182811c91508083168061310c57607f831692505b6020808410820361312b57634e487b7160e01b86526022600452602486fd5b81801561313f57600181146131505761317d565b60ff1986168952848901965061317d565b60008a81526020902060005b868110156131755781548b82015290850190830161315c565b505084890196505b509498975050505050505050565b60006020828403121561319d57600080fd5b815161297a81612cc9565b600082516131ba81846020870161290f565b919091019291505056feddf252ad1be2c89b69c2b068fc378daa952ba7f163c4a11628f55a4df523b3efa2646970667358221220971802d7e91302626608808d3f26bff43429aab410c1e0ac8e07fc86ec4d9ca764736f6c634300080d0033",
  "linkReferences": {},
  "deployedLinkReferences": {}
}