{
  "_format": "hh-sol-artifact-1",
  "contractName": "TrackedIndex",
  "sourceName": "contracts/TrackedIndex.sol",
  "abi": [
    {
      "inputs": [],
      "stateMutability": "nonpayable",
      "type": "constructor"
    },
    {
      "anonymous": false,
      "inputs": [
        {
          "indexed": true,
          "internalType": "address",
          "name": "owner",
          "type": "address"
        },
        {
          "indexed": true,
          "internalType": "address",
          "name": "spender",
          "type": "address"
        },
        {
          "indexed": false,
          "internalType": "uint256",
          "name": "value",
          "type": "uint256"
        }
      ],
      "name": "Approval",
      "type": "event"
    },
    {
      "anonymous": false,
      "inputs": [
        {
          "indexed": false,
          "internalType": "address",
          "name": "governor",
          "type": "address"
        }
      ],
      "name": "SetGovernor",
      "type": "event"
    },
    {
      "anonymous": false,
      "inputs": [
        {
          "indexed": true,
          "internalType": "address",
          "name": "from",
          "type": "address"
        },
        {
          "indexed": true,
          "internalType": "address",
          "name": "to",
          "type": "address"
        },
        {
          "indexed": false,
          "internalType": "uint256",
          "name": "value",
          "type": "uint256"
        }
      ],
      "name": "Transfer",
      "type": "event"
    },
    {
      "anonymous": false,
      "inputs": [
        {
          "indexed": false,
          "internalType": "address[]",
          "name": "assets",
          "type": "address[]"
        },
        {
          "indexed": false,
          "internalType": "uint8[]",
          "name": "weights",
          "type": "uint8[]"
        }
      ],
      "name": "UpdateAnatomy",
      "type": "event"
    },
    {
      "inputs": [],
      "name": "DOMAIN_SEPARATOR",
      "outputs": [
        {
          "internalType": "bytes32",
          "name": "",
          "type": "bytes32"
        }
      ],
      "stateMutability": "view",
      "type": "function"
    },
    {
      "inputs": [],
      "name": "PERMIT_TYPEHASH",
      "outputs": [
        {
          "internalType": "bytes32",
          "name": "",
          "type": "bytes32"
        }
      ],
      "stateMutability": "view",
      "type": "function"
    },
    {
      "inputs": [
        {
          "internalType": "address",
          "name": "",
          "type": "address"
        },
        {
          "internalType": "address",
          "name": "",
          "type": "address"
        }
      ],
      "name": "allowance",
      "outputs": [
        {
          "internalType": "uint256",
          "name": "",
          "type": "uint256"
        }
      ],
      "stateMutability": "view",
      "type": "function"
    },
    {
      "inputs": [
        {
          "internalType": "uint256",
          "name": "_offset",
          "type": "uint256"
        },
        {
          "internalType": "uint256",
          "name": "_count",
          "type": "uint256"
        }
      ],
      "name": "anatomyForRange",
      "outputs": [
        {
          "internalType": "address[]",
          "name": "_assets",
          "type": "address[]"
        },
        {
          "internalType": "uint8[]",
          "name": "_weights",
          "type": "uint8[]"
        }
      ],
      "stateMutability": "view",
      "type": "function"
    },
    {
      "inputs": [
        {
          "internalType": "address",
          "name": "spender",
          "type": "address"
        },
        {
          "internalType": "uint256",
          "name": "value",
          "type": "uint256"
        }
      ],
      "name": "approve",
      "outputs": [
        {
          "internalType": "bool",
          "name": "",
          "type": "bool"
        }
      ],
      "stateMutability": "nonpayable",
      "type": "function"
    },
    {
      "inputs": [
        {
          "internalType": "address",
          "name": "",
          "type": "address"
        }
      ],
      "name": "balanceOf",
      "outputs": [
        {
          "internalType": "uint256",
          "name": "",
          "type": "uint256"
        }
      ],
      "stateMutability": "view",
      "type": "function"
    },
    {
      "inputs": [
        {
          "internalType": "address",
          "name": "_recipient",
          "type": "address"
        }
      ],
      "name": "burn",
      "outputs": [],
      "stateMutability": "nonpayable",
      "type": "function"
    },
    {
      "inputs": [
        {
          "internalType": "address",
          "name": "_feeRecipient",
          "type": "address"
        },
        {
          "internalType": "uint256",
          "name": "_amount",
          "type": "uint256"
        }
      ],
      "name": "burnFee",
      "outputs": [],
      "stateMutability": "nonpayable",
      "type": "function"
    },
    {
      "inputs": [],
      "name": "decimals",
      "outputs": [
        {
          "internalType": "uint8",
          "name": "",
          "type": "uint8"
        }
      ],
      "stateMutability": "view",
      "type": "function"
    },
    {
      "inputs": [],
      "name": "factory",
      "outputs": [
        {
          "internalType": "address",
          "name": "",
          "type": "address"
        }
      ],
      "stateMutability": "view",
      "type": "function"
    },
    {
      "inputs": [
        {
          "internalType": "address",
          "name": "",
          "type": "address"
        }
      ],
      "name": "feeOf",
      "outputs": [
        {
          "internalType": "uint256",
          "name": "",
          "type": "uint256"
        }
      ],
      "stateMutability": "view",
      "type": "function"
    },
    {
      "inputs": [],
      "name": "getAssetCount",
      "outputs": [
        {
          "internalType": "uint256",
          "name": "",
          "type": "uint256"
        }
      ],
      "stateMutability": "view",
      "type": "function"
    },
    {
      "inputs": [],
      "name": "governor",
      "outputs": [
        {
          "internalType": "address",
          "name": "",
          "type": "address"
        }
      ],
      "stateMutability": "view",
      "type": "function"
    },
    {
      "inputs": [
        {
          "internalType": "address[]",
          "name": "_assets",
          "type": "address[]"
        },
        {
          "internalType": "uint256[]",
          "name": "_capitalizations",
          "type": "uint256[]"
        },
        {
          "internalType": "uint256",
          "name": "_totalCapitalization",
          "type": "uint256"
        },
        {
          "internalType": "address",
          "name": "_governor",
          "type": "address"
        }
      ],
      "name": "initialize",
      "outputs": [],
      "stateMutability": "nonpayable",
      "type": "function"
    },
    {
      "inputs": [
        {
          "internalType": "address",
          "name": "_recipient",
          "type": "address"
        }
      ],
      "name": "mint",
      "outputs": [],
      "stateMutability": "nonpayable",
      "type": "function"
    },
    {
      "inputs": [],
      "name": "name",
      "outputs": [
        {
          "internalType": "string",
          "name": "",
          "type": "string"
        }
      ],
      "stateMutability": "view",
      "type": "function"
    },
    {
      "inputs": [
        {
          "internalType": "address",
          "name": "",
          "type": "address"
        }
      ],
      "name": "nonces",
      "outputs": [
        {
          "internalType": "uint256",
          "name": "",
          "type": "uint256"
        }
      ],
      "stateMutability": "view",
      "type": "function"
    },
    {
      "inputs": [
        {
          "internalType": "address",
          "name": "owner",
          "type": "address"
        },
        {
          "internalType": "address",
          "name": "spender",
          "type": "address"
        },
        {
          "internalType": "uint256",
          "name": "value",
          "type": "uint256"
        },
        {
          "internalType": "uint256",
          "name": "deadline",
          "type": "uint256"
        },
        {
          "internalType": "uint8",
          "name": "v",
          "type": "uint8"
        },
        {
          "internalType": "bytes32",
          "name": "r",
          "type": "bytes32"
        },
        {
          "internalType": "bytes32",
          "name": "s",
          "type": "bytes32"
        }
      ],
      "name": "permit",
      "outputs": [],
      "stateMutability": "nonpayable",
      "type": "function"
    },
    {
      "inputs": [],
      "name": "reweight",
      "outputs": [],
      "stateMutability": "nonpayable",
      "type": "function"
    },
    {
      "inputs": [
        {
          "internalType": "address",
          "name": "_governor",
          "type": "address"
        }
      ],
      "name": "setGovernor",
      "outputs": [],
      "stateMutability": "nonpayable",
      "type": "function"
    },
    {
      "inputs": [],
      "name": "symbol",
      "outputs": [
        {
          "internalType": "string",
          "name": "",
          "type": "string"
        }
      ],
      "stateMutability": "view",
      "type": "function"
    },
    {
      "inputs": [],
      "name": "totalSupply",
      "outputs": [
        {
          "internalType": "uint256",
          "name": "",
          "type": "uint256"
        }
      ],
      "stateMutability": "view",
      "type": "function"
    },
    {
      "inputs": [
        {
          "internalType": "address",
          "name": "to",
          "type": "address"
        },
        {
          "internalType": "uint256",
          "name": "value",
          "type": "uint256"
        }
      ],
      "name": "transfer",
      "outputs": [
        {
          "internalType": "bool",
          "name": "",
          "type": "bool"
        }
      ],
      "stateMutability": "nonpayable",
      "type": "function"
    },
    {
      "inputs": [
        {
          "internalType": "address",
          "name": "from",
          "type": "address"
        },
        {
          "internalType": "address",
          "name": "to",
          "type": "address"
        },
        {
          "internalType": "uint256",
          "name": "value",
          "type": "uint256"
        }
      ],
      "name": "transferFrom",
      "outputs": [
        {
          "internalType": "bool",
          "name": "",
          "type": "bool"
        }
      ],
      "stateMutability": "nonpayable",
      "type": "function"
    },
    {
      "inputs": [],
      "name": "vault",
      "outputs": [
        {
          "internalType": "address",
          "name": "",
          "type": "address"
        }
      ],
      "stateMutability": "view",
      "type": "function"
    }
  ],
  "bytecode": "0x60c06040526000805460ff191660121790553480156200001e57600080fd5b5033336001600160a01b031663fbfa77cf6040518163ffffffff1660e01b815260040160206040518083038186803b1580156200005a57600080fd5b505afa1580156200006f573d6000803e3d6000fd5b505050506040513d601f19601f82011682018060405250810190620000959190620001f8565b60016005556001600160601b0319606083811b821660805282901b1660a05242600755604080516336f7100960e11b815290516001600160a01b03831691636dee2012916004808301926020929190829003018186803b158015620000f957600080fd5b505afa1580156200010e573d6000803e3d6000fd5b505050506040513d601f19601f82011682018060405250810190620001349190620001f8565b600a60006101000a8154816001600160a01b0302191690836001600160a01b03160217905550816001600160a01b0316637b1039996040518163ffffffff1660e01b815260040160206040518083038186803b1580156200019457600080fd5b505afa158015620001a9573d6000803e3d6000fd5b505050506040513d601f19601f82011682018060405250810190620001cf9190620001f8565b600980546001600160a01b0319166001600160a01b0392909216919091179055506200022a9050565b6000602082840312156200020b57600080fd5b81516001600160a01b03811681146200022357600080fd5b9392505050565b60805160601c60a05160601c613f9d620002f7600039600081816103b801528181610c4a01528181610ea801528181610f5f015281816111640152818161120e015281816112f50152818161154f01528181611b6601528181611f090152818161237e01528181612736015281816128090152818161283b01526128b3015260008181610353015281816103de0152818161060b01528181610832015281816116cc015281816124fd01528181612a16015281816130090152818161320301526133cd0152613f9d6000f3fe608060405234801561001057600080fd5b50600436106101635760003560e01c80636a627842116100ce578063a0aead4d11610087578063a0aead4d14610320578063a9059cbb14610328578063c42cf5351461033b578063c45a01551461034e578063d505accf14610375578063dd62ed3e14610388578063fbfa77cf146103b357600080fd5b80636a627842146102aa57806370a08231146102bd5780637ecebe00146102dd578063849feb6b146102fd57806389afcb441461030557806395d89b411461031857600080fd5b8063228835ac11610120578063228835ac1461021657806323b872dd1461022957806325dddba41461023c57806330adf81f1461025c578063313ce567146102835780633644e515146102a257600080fd5b806306fdde0314610168578063095ea7b3146101865780630c340a24146101a95780630c86269f146101c957806318160ddd146101de5780631a7bc013146101f5575b600080fd5b6101706103da565b60405161017d9190613ad8565b60405180910390f35b610199610194366004613641565b6104f1565b604051901515815260200161017d565b6008546101bc906001600160a01b031681565b60405161017d9190613982565b6101dc6101d7366004613641565b610508565b005b6101e760015481565b60405190815260200161017d565b6102086102033660046138cc565b61068a565b60405161017d9291906139e7565b6101dc61022436600461369b565b610827565b610199610237366004613589565b610a74565b6101e761024a366004613516565b60066020526000908152604090205481565b6101e77f6e71edae12b1b97f4d1f60370fef10105fa2faae0126114a169c64845d6126c981565b6000546102909060ff1681565b60405160ff909116815260200161017d565b6101e7610aee565b6101dc6102b8366004613516565b610b97565b6101e76102cb366004613516565b60026020526000908152604090205481565b6101e76102eb366004613516565b60046020526000908152604090205481565b6101dc6117e1565b6101dc610313366004613516565b612242565b610170612a12565b6101e7612ad0565b610199610336366004613641565b612adc565b6101dc610349366004613516565b612ae9565b6101bc7f000000000000000000000000000000000000000000000000000000000000000081565b6101dc6103833660046135ca565b612bfe565b6101e7610396366004613550565b600360209081526000928352604080842090915290825290205481565b6101bc7f000000000000000000000000000000000000000000000000000000000000000081565b60607f00000000000000000000000000000000000000000000000000000000000000006001600160a01b0316637b1039996040518163ffffffff1660e01b815260040160206040518083038186803b15801561043557600080fd5b505afa158015610449573d6000803e3d6000fd5b505050506040513d601f19601f8201168201806040525081019061046d9190613533565b6001600160a01b031663ed3b559f306040518263ffffffff1660e01b81526004016104989190613982565b60006040518083038186803b1580156104b057600080fd5b505afa1580156104c4573d6000803e3d6000fd5b505050506040513d6000823e601f3d908101601f191682016040526104ec91908101906137fc565b905090565b60006104fe338484612e1a565b5060015b92915050565b61054160405180604001604052806017815260200176189d5c9b919959480b4817d99959549958da5c1a595b9d604a1b81525083612e7c565b61057460405180604001604052806011815260200170189d5c9b919959480b4817d85b5bdd5b9d607a1b81525082612ec5565b6105d86040518060400160405280601e81526020017f6275726e466565202d206665654f665b5f666565526563697069656e745d000081525060066000856001600160a01b03166001600160a01b0316815260200190815260200160002054612ec5565b6001600160a01b03821660009081526006602052604081208054839290610600908490613c98565b9091555061063190507f00000000000000000000000000000000000000000000000000000000000000003083612f0a565b60405163226bf2d160e21b815230906389afcb4490610654908590600401613982565b600060405180830381600087803b15801561066e57600080fd5b505af1158015610682573d6000803e3d6000fd5b505050505050565b606080610697600b612f99565b8410156106c1576106bc846106ac600b612f99565b6106b69190613c98565b84612fa3565b6106c4565b60005b6001600160401b038111156106db576106db613d5f565b604051908082528060200260200182016040528015610704578160200160208202803683370190505b50915081516001600160401b0381111561072057610720613d5f565b604051908082528060200260200182016040528015610749578160200160208202803683370190505b50905060005b825181101561081f5761076d6107658287613c1a565b600b90612fbb565b83828151811061077f5761077f613d49565b60200260200101906001600160a01b031690816001600160a01b031681525050600d60008483815181106107b5576107b5613d49565b60200260200101516001600160a01b03166001600160a01b0316815260200190815260200160002060009054906101000a900460ff168282815181106107fd576107fd613d49565b60ff9092166020928302919091019091015261081881613d02565b905061074f565b509250929050565b336001600160a01b037f0000000000000000000000000000000000000000000000000000000000000000161461089e5760405162461bcd60e51b81526020600482015260176024820152762a3930b1b5b2b224b73232bc1d102327a92124a22222a760491b60448201526064015b60405180910390fd5b600080858560008181106108b4576108b4613d49565b9050602002013590506000805b888110156109c05760008a8a838181106108dd576108dd613d49565b90506020020160208101906108f29190613516565b905060008760ff8b8b8681811061090b5761090b613d49565b9050602002013561091c9190613c79565b6109269190613c57565b9050848a8a8581811061093b5761093b613d49565b9050602002013511156109675789898481811061095a5761095a613d49565b9050602002013594508293505b6001600160a01b0382166000908152600d60205260409020805460ff191660ff8316908117909155156109a15761099e8187613c32565b95505b6109ac600b83612fc7565b505050806109b990613d02565b90506108c1565b5060ff8381161015610a49576109d78360ff613caf565b600d60008b8b858181106109ed576109ed613d49565b9050602002016020810190610a029190613516565b6001600160a01b03168152602081019190915260400160009081208054909190610a3090849060ff16613c32565b92506101000a81548160ff021916908360ff1602179055505b5050600880546001600160a01b0319166001600160a01b039390931692909217909155505050505050565b6001600160a01b038316600090815260036020908152604080832033845290915281205460001914610ad9576001600160a01b038416600090815260036020908152604080832033845290915281208054849290610ad3908490613c98565b90915550505b610ae4848484612f0a565b5060019392505050565b60007f8b73c3c69bb8fe3d512ecc4cf759cc79239f7b179b0ffacaa9a75d522b39400f610b196103da565b805160209182012060408051808201825260018152603160f81b90840152805192830193909352918101919091527fc89efdaa54c0f20c7adf612882df0950f5a951637e0307cdcb4c672f298b8bc660608201524660808201523060a082015260c00160405160208183030381529060405280519060200120905090565b60026005541415610bba5760405162461bcd60e51b815260040161089590613bb3565b6002600555610bc7612fdc565b60095460408051632630c12f60e01b815290516000926001600160a01b031691632630c12f916004808301926020929190829003018186803b158015610c0c57600080fd5b505afa158015610c20573d6000803e3d6000fd5b505050506040513d601f19601f82011682018060405250810190610c449190613533565b905060007f00000000000000000000000000000000000000000000000000000000000000006001600160a01b031663648e38d36040518163ffffffff1660e01b815260040160206040518083038186803b158015610ca157600080fd5b505afa158015610cb5573d6000803e3d6000fd5b505050506040513d601f19601f82011682018060405250810190610cd9919061388f565b61ffff1690506000600019815b610cf0600b612f99565b811015611424576009546001600160a01b03166391d14854600080516020613dfc833981519152610d22600b85612fbb565b6040518363ffffffff1660e01b8152600401610d3f929190613ac1565b60206040518083038186803b158015610d5757600080fd5b505afa158015610d6b573d6000803e3d6000fd5b505050506040513d601f19601f82011682018060405250810190610d8f91906137da565b610ddb5760405162461bcd60e51b815260206004820152601f60248201527f4261736544796e616d6963496e6465783a20494e56414c49445f4153534554006044820152606401610895565b600d6000610dea600b84612fbb565b6001600160a01b0316815260208101919091526040016000205460ff16610e1057611414565b60006001600160a01b03861663da0449be610e2c600b85612fbb565b6040518263ffffffff1660e01b8152600401610e489190613982565b602060405180830381600087803b158015610e6257600080fd5b505af1158015610e76573d6000803e3d6000fd5b505050506040513d601f19601f82011682018060405250810190610e9a91906138b3565b905060006001600160a01b037f00000000000000000000000000000000000000000000000000000000000000001663ee42d3a3610ed8600b86612fbb565b6040518263ffffffff1660e01b8152600401610ef49190613982565b60206040518083038186803b158015610f0c57600080fd5b505afa158015610f20573d6000803e3d6000fd5b505050506040513d601f19601f82011682018060405250810190610f4491906138b3565b610f4f600b85612fbb565b6001600160a01b03166370a082317f00000000000000000000000000000000000000000000000000000000000000006001600160a01b0316638d5aa174610fa088600b612fbb90919063ffffffff16565b6040518263ffffffff1660e01b8152600401610fbc9190613982565b60206040518083038186803b158015610fd457600080fd5b505afa158015610fe8573d6000803e3d6000fd5b505050506040513d601f19601f8201168201806040525081019061100c9190613533565b6040518263ffffffff1660e01b81526004016110289190613982565b60206040518083038186803b15801561104057600080fd5b505afa158015611054573d6000803e3d6000fd5b505050506040513d601f19601f8201168201806040525081019061107891906138b3565b6110829190613c98565b90506110a6604051806060016040528060238152602001613e1c6023913982612ec5565b6000600d816110b6600b87612fbb565b6001600160a01b031681526020810191909152604001600020546110dd9060ff1684613c79565b9050611101604051806060016040528060238152602001613eb56023913982612ec5565b60008160ff611114600160701b86613c79565b61111e9190613c79565b6111289190613c57565b905061114c604051806060016040528060268152602001613ef86026913982612ec5565b85811015611158578095505b60006001600160a01b037f00000000000000000000000000000000000000000000000000000000000000001663d81e81ca611194600b89612fbb565b306040518363ffffffff1660e01b81526004016111b2929190613996565b60206040518083038186803b1580156111ca57600080fd5b505afa1580156111de573d6000803e3d6000fd5b505050506040513d601f19601f8201168201806040525081019061120291906138b3565b90506001600160a01b037f000000000000000000000000000000000000000000000000000000000000000016636a62784261123e600b89612fbb565b6040518263ffffffff1660e01b815260040161125a9190613982565b602060405180830381600087803b15801561127457600080fd5b505af1158015611288573d6000803e3d6000fd5b505050506040513d601f19601f820116820180604052508101906112ac91906138b3565b506112cf604051806060016040528060288152602001613e8d6028913982612ec5565b611398604051806060016040528060248152602001613dd8602491396001600160a01b037f000000000000000000000000000000000000000000000000000000000000000016630287cd3e611325600b8b612fbb565b306040518363ffffffff1660e01b8152600401611343929190613996565b60206040518083038186803b15801561135b57600080fd5b505afa15801561136f573d6000803e3d6000fd5b505050506040513d601f19601f8201168201806040525081019061139391906138b3565b612ec5565b6113be604051806060016040528060298152602001613f1e602991396113938684613c1a565b60006127106113cd8b87613c79565b6113d79190613c57565b6113e19083613c1a565b90506000866113f4600160701b84613c79565b6113fe9190613c57565b905061140a818b613c1a565b9950505050505050505b61141d81613d02565b9050610ce6565b5060001981141561143757611437613d1d565b600060015460001461150857600083116114635760405162461bcd60e51b815260040161089590613b37565b82600154836114729190613c79565b61147c9190613c57565b90506114a2604051806060016040528060218152602001613e3f60219139600154612ec5565b6114c46040518060600160405280602c8152602001613dac602c913984612ec5565b6115036040518060400160405280601b81526020017f4261736544796e616d6963496e6465782e6d696e742076616c7565000000000081525082612ec5565b611523565b61151461271083613c98565b90506115236000612710613235565b600081116115435760405162461bcd60e51b815260040161089590613b37565b600061271061ffff16827f00000000000000000000000000000000000000000000000000000000000000006001600160a01b031663d640108d6040518163ffffffff1660e01b815260040160206040518083038186803b1580156115a657600080fd5b505afa1580156115ba573d6000803e3d6000fd5b505050506040513d601f19601f820116820180604052508101906115de919061388f565b61ffff166115ec9190613c79565b6115f69190613c57565b9050801561161457600a54611614906001600160a01b031682613235565b600860009054906101000a90046001600160a01b03166001600160a01b0316638da5cb5b6040518163ffffffff1660e01b815260040160206040518083038186803b15801561166257600080fd5b505afa158015611676573d6000803e3d6000fd5b505050506040513d601f19601f8201168201806040525081019061169a9190613533565b6001600160a01b0316876001600160a01b03161461179a57604051634216e13560e01b81526000906001600160a01b037f00000000000000000000000000000000000000000000000000000000000000001690634216e13590611701903090600401613982565b60206040518083038186803b15801561171957600080fd5b505afa15801561172d573d6000803e3d6000fd5b505050506040513d601f19601f8201168201806040525081019061175191906138b3565b905060006127106117628584613c79565b61176c9190613c57565b905080156117975760085461178a906001600160a01b031682613235565b6117948184613c1a565b92505b50505b6117c0604051806060016040528060218152602001613f47602191396113938385613c98565b6117d3876117ce8385613c98565b613235565b505060016005555050505050565b600954604051632474521560e21b81527f21702c8af46127c7fa207f89d0b0a8441bb32959a0ac7df790e9ab1a25c98926916001600160a01b0316906391d14854906118339084903390600401613ac1565b60206040518083038186803b15801561184b57600080fd5b505afa15801561185f573d6000803e3d6000fd5b505050506040513d601f19601f8201168201806040525081019061188391906137da565b61189f5760405162461bcd60e51b815260040161089590613b7c565b60095460408051632630c12f60e01b815290516000926001600160a01b031691632630c12f916004808301926020929190829003018186803b1580156118e457600080fd5b505afa1580156118f8573d6000803e3d6000fd5b505050506040513d601f19601f8201168201806040525081019061191c9190613533565b60095490915060009081906001600160a01b031663325a48b761193f600b6132af565b6040518263ffffffff1660e01b815260040161195b91906139d4565b60006040518083038186803b15801561197357600080fd5b505afa158015611987573d6000803e3d6000fd5b505050506040513d6000823e601f3d908101601f191682016040526119af9190810190613726565b915091506000806000846000815181106119cb576119cb613d49565b602002602001015190506000805b6119e3600b612f99565b811015611d0d576009546001600160a01b03166391d14854600080516020613dfc833981519152611a15600b85612fbb565b6040518363ffffffff1660e01b8152600401611a32929190613ac1565b60206040518083038186803b158015611a4a57600080fd5b505afa158015611a5e573d6000803e3d6000fd5b505050506040513d601f19601f82011682018060405250810190611a8291906137da565b611ace5760405162461bcd60e51b815260206004820152601b60248201527f547261636b6564496e6465783a20494e56414c49445f415353455400000000006044820152606401610895565b60006001600160a01b03891663da0449be611aea600b85612fbb565b6040518263ffffffff1660e01b8152600401611b069190613982565b602060405180830381600087803b158015611b2057600080fd5b505af1158015611b34573d6000803e3d6000fd5b505050506040513d601f19601f82011682018060405250810190611b5891906138b3565b905060006001600160a01b037f000000000000000000000000000000000000000000000000000000000000000016630287cd3e611b96600b86612fbb565b306040518363ffffffff1660e01b8152600401611bb4929190613996565b60206040518083038186803b158015611bcc57600080fd5b505afa158015611be0573d6000803e3d6000fd5b505050506040513d601f19601f82011682018060405250810190611c0491906138b3565b905081611c15600160701b83613c79565b611c1f9190613c57565b611c299088613c1a565b96506000611c38600b85612fbb565b905060008960ff80168c8781518110611c5357611c53613d49565b6020026020010151611c659190613c79565b611c6f9190613c57565b9050868b8681518110611c8457611c84613d49565b60200260200101511115611cb2578a8581518110611ca457611ca4613d49565b602002602001015196508495505b6001600160a01b0382166000908152600d60205260409020805460ff191660ff831690811790915515611cec57611ce98189613c32565b97505b611cf7600b83612fc7565b505050505080611d0690613d02565b90506119d9565b5060ff8381161015611d7a57611d248360ff613caf565b600d6000611d33600b85612fbb565b6001600160a01b03168152602081019190915260400160009081208054909190611d6190849060ff16613c32565b92506101000a81548160ff021916908360ff1602179055505b611d9c6040518060600160405280602d8152602001613e60602d913985612ec5565b6000611da8600b612f99565b6001600160401b03811115611dbf57611dbf613d5f565b604051908082528060200260200182016040528015611e0a57816020015b6040805160608101825260008082526020808301829052928201528252600019909201910181611ddd5790505b50905060005b611e1a600b612f99565b811015612153576000611e2e600b83612fbb565b905060008a6001600160a01b031663da0449be836040518263ffffffff1660e01b8152600401611e5e9190613982565b602060405180830381600087803b158015611e7857600080fd5b505af1158015611e8c573d6000803e3d6000fd5b505050506040513d601f19601f82011682018060405250810190611eb091906138b3565b6001600160a01b0383166000908152600d602052604081205491925090600160701b90839060ff90611ee49082168d613c79565b611eee9190613c57565b611ef89190613c79565b611f029190613c57565b90506000807f00000000000000000000000000000000000000000000000000000000000000006001600160a01b0316630fb2f9b18630866040518463ffffffff1660e01b8152600401611f57939291906139b0565b604080518083038186803b158015611f6e57600080fd5b505afa158015611f82573d6000803e3d6000fd5b505050506040513d601f19601f82011682018060405250810190611fa691906138ee565b91509150611fe96040518060400160405280601f81526020017f547261636b6564496e6465782e7265776569676874206e65775368617265730081525083612ec5565b6120286040518060400160405280601f81526020017f547261636b6564496e6465782e7265776569676874206f6c645368617265730081525082612ec5565b808211156120c4576120756040518060400160405280602081526020017f547261636b6564496e6465782e7265776569676874206469666620286275792981525082846113939190613c98565b604080516060810182526001600160a01b03871681526001602082015290810161209f8385613c98565b8152508787815181106120b4576120b4613d49565b602002602001018190525061213d565b8181111561213d576120f2604051806060016040528060218152602001613d8b602191396113938484613c98565b604080516060810182526001600160a01b03871681526000602082015290810161211c8484613c98565b81525087878151811061213157612131613d49565b60200260200101819052505b50505050508061214c90613d02565b9050611e10565b50600960009054906101000a90046001600160a01b03166001600160a01b031663628cf32f6040518163ffffffff1660e01b815260040160206040518083038186803b1580156121a257600080fd5b505afa1580156121b6573d6000803e3d6000fd5b505050506040513d601f19601f820116820180604052508101906121da9190613533565b6001600160a01b031663bfee431f826040518263ffffffff1660e01b81526004016122059190613a41565b600060405180830381600087803b15801561221f57600080fd5b505af1158015612233573d6000803e3d6000fd5b50505050505050505050505050565b600260055414156122655760405162461bcd60e51b815260040161089590613bb3565b6002600581905530600090815260209190915260409020548061229a5760405162461bcd60e51b815260040161089590613b37565b6000805b6122a8600b612f99565b811015612364576009546001600160a01b03166391d14854600080516020613dfc8339815191526122da600b85612fbb565b6040518363ffffffff1660e01b81526004016122f7929190613ac1565b60206040518083038186803b15801561230f57600080fd5b505afa158015612323573d6000803e3d6000fd5b505050506040513d601f19601f8201168201806040525081019061234791906137da565b6123545760019150612364565b61235d81613d02565b905061229e565b50806125db57612372612fdc565b600061271061ffff16837f00000000000000000000000000000000000000000000000000000000000000006001600160a01b031663b956af8e6040518163ffffffff1660e01b815260040160206040518083038186803b1580156123d557600080fd5b505afa1580156123e9573d6000803e3d6000fd5b505050506040513d601f19601f8201168201806040525081019061240d919061388f565b61ffff1661241b9190613c79565b6124259190613c57565b9050801561244557600a546124459030906001600160a01b031683612f0a565b600860009054906101000a90046001600160a01b03166001600160a01b0316638da5cb5b6040518163ffffffff1660e01b815260040160206040518083038186803b15801561249357600080fd5b505afa1580156124a7573d6000803e3d6000fd5b505050506040513d601f19601f820116820180604052508101906124cb9190613533565b6001600160a01b0316846001600160a01b0316146125cd57604051634216e13560e01b81526000906001600160a01b037f00000000000000000000000000000000000000000000000000000000000000001690634216e13590612532903090600401613982565b60206040518083038186803b15801561254a57600080fd5b505afa15801561255e573d6000803e3d6000fd5b505050506040513d601f19601f8201168201806040525081019061258291906138b3565b905060006127106125938684613c79565b61259d9190613c57565b905080156125ca576008546125bd9030906001600160a01b031683612f0a565b6125c78184613c1a565b92505b50505b6125d78184613c98565b9250505b6009546040805163628cf32f60e01b815290516000926001600160a01b03169163628cf32f916004808301926020929190829003018186803b15801561262057600080fd5b505afa158015612634573d6000803e3d6000fd5b505050506040513d601f19601f820116820180604052508101906126589190613533565b905060005b612667600b612f99565b8110156129fc5782801561272057506009546001600160a01b03166391d148547f4963dcfd342c3f63bd1b992afc723ae72706277470d47567f30dfc6dcee9f11e6126b3600b85612fbb565b6040518363ffffffff1660e01b81526004016126d0929190613ac1565b60206040518083038186803b1580156126e857600080fd5b505afa1580156126fc573d6000803e3d6000fd5b505050506040513d601f19601f8201168201806040525081019061272091906137da565b1561272a576129ec565b60006001600160a01b037f00000000000000000000000000000000000000000000000000000000000000001663f7888aec612766600b85612fbb565b306040518363ffffffff1660e01b8152600401612784929190613996565b60206040518083038186803b15801561279c57600080fd5b505afa1580156127b0573d6000803e3d6000fd5b505050506040513d601f19601f820116820180604052508101906127d491906138b3565b9050600060015482876127e79190613c79565b6127f19190613c57565b9050806127ff5750506129ec565b6001600160a01b037f00000000000000000000000000000000000000000000000000000000000000001663beabacc8612839600b86612fbb565b7f0000000000000000000000000000000000000000000000000000000000000000846040518463ffffffff1660e01b8152600401612879939291906139b0565b600060405180830381600087803b15801561289357600080fd5b505af11580156128a7573d6000803e3d6000fd5b50506001600160a01b037f00000000000000000000000000000000000000000000000000000000000000001691506327fc84a390506128e7600b86612fbb565b896040518363ffffffff1660e01b8152600401612905929190613996565b602060405180830381600087803b15801561291f57600080fd5b505af1158015612933573d6000803e3d6000fd5b505050506040513d601f19601f8201168201806040525081019061295791906138b3565b506001600160a01b03841663cabfb7e3612972600b86612fbb565b886001546129809190613c98565b6001546040516001600160e01b031960e086901b1681526001600160a01b03909316600484015260248301919091526044820152606401600060405180830381600087803b1580156129d157600080fd5b505af11580156129e5573d6000803e3d6000fd5b5050505050505b6129f581613d02565b905061265d565b50612a0730846132bc565b505060016005555050565b60607f00000000000000000000000000000000000000000000000000000000000000006001600160a01b0316637b1039996040518163ffffffff1660e01b815260040160206040518083038186803b158015612a6d57600080fd5b505afa158015612a81573d6000803e3d6000fd5b505050506040513d601f19601f82011682018060405250810190612aa59190613533565b6001600160a01b031663554f94ab306040518263ffffffff1660e01b81526004016104989190613982565b60006104ec600b612f99565b60006104fe338484612f0a565b600954604051632474521560e21b81527f1916b456004f332cd8a19679364ef4be668619658be72c17b7e86697c4ae0f16916001600160a01b0316906391d1485490612b3b9084903390600401613ac1565b60206040518083038186803b158015612b5357600080fd5b505afa158015612b67573d6000803e3d6000fd5b505050506040513d601f19601f82011682018060405250810190612b8b91906137da565b612ba75760405162461bcd60e51b815260040161089590613b7c565b600880546001600160a01b0319166001600160a01b0384161790556040517fbce074c8369e26e70e1ae2f14fc944da352cfe6f52e2de9572f0c9942a24b7fc90612bf2908490613982565b60405180910390a15050565b42841015612c465760405162461bcd60e51b8152602060048201526015602482015274141a1d5d1d5c99515490cc8c0e8811561412549151605a1b6044820152606401610895565b6000612c50610aee565b6001600160a01b038916600090815260046020526040812080547f6e71edae12b1b97f4d1f60370fef10105fa2faae0126114a169c64845d6126c9928c928c928c92909190612c9e83613d02565b909155506040805160208101969096526001600160a01b0394851690860152929091166060840152608083015260a082015260c0810187905260e00160405160208183030381529060405280519060200120604051602001612d1792919061190160f01b81526002810192909252602282015260420190565b60408051601f198184030181528282528051602091820120600080855291840180845281905260ff88169284019290925260608301869052608083018590529092509060019060a0016020604051602081039080840390855afa158015612d82573d6000803e3d6000fd5b5050604051601f1901519150506001600160a01b03811615801590612db85750886001600160a01b0316816001600160a01b0316145b612e045760405162461bcd60e51b815260206004820152601f60248201527f5068757475726545524332303a20494e56414c49445f5349474e4154555245006044820152606401610895565b612e0f898989612e1a565b505050505050505050565b6001600160a01b0383811660008181526003602090815260408083209487168084529482529182902085905590518481527f8c5be1e5ebec7d5bd14f71427d1e84f3dd0314c0f7b2291e5b200ac8c7c3b92591015b60405180910390a3505050565b612ec18282604051602401612e92929190613aeb565b60408051601f198184030181529190526020810180516001600160e01b031663319af33360e01b17905261332e565b5050565b612ec18282604051602401612edb929190613b15565b60408051601f198184030181529190526020810180516001600160e01b03166309710a9d60e41b17905261332e565b6001600160a01b03831660009081526002602052604081208054839290612f32908490613c98565b90915550506001600160a01b03821660009081526002602052604081208054839290612f5f908490613c1a565b92505081905550816001600160a01b0316836001600160a01b0316600080516020613ed883398151915283604051612e6f91815260200190565b6000610502825490565b6000818310612fb25781612fb4565b825b9392505050565b6000612fb4838361334f565b6000612fb4836001600160a01b038416613379565b600060075442612fec9190613c98565b9050801561323257600080612fff6133c8565b6001600160a01b037f000000000000000000000000000000000000000000000000000000000000000016600090815260026020526040812054600154939550919350916127109161304f91613c98565b6130599084613c79565b6130639190613c57565b905060006301e133806130768387613c79565b6130809190613c57565b90506130c36040518060400160405280601b81526020017f5f63686172676541554d466565202d20746f74616c537570706c790000000000815250600154612ec5565b6130fe604051806040016040528060198152602001785f63686172676541554d466565202d20796561726c7946656560381b81525083612ec5565b61313d6040518060400160405280602081526020017f5f63686172676541554d466565202d206164646974696f6e616c537570706c7981525082612ec5565b61317c6040518060400160405280601a81526020017f5f63686172676541554d466565202d2074696d6550617373656400000000000081525086612ec5565b6131bb6040518060400160405280601d81526020017f5f63686172676541554d466565202d205f666565526563697069656e7400000081525085612e7c565b801561322d576001600160a01b03841615613228576001600160a01b038416600090815260066020526040812080548392906131f8908490613c1a565b9091555061322890507f000000000000000000000000000000000000000000000000000000000000000082613235565b426007555b505050505b50565b6001600160a01b0382166000908152600260205260408120805483929061325d908490613c1a565b9250508190555080600160008282546132769190613c1a565b90915550506040518181526001600160a01b03831690600090600080516020613ed8833981519152906020015b60405180910390a35050565b60606000612fb48361346f565b6001600160a01b038216600090815260026020526040812080548392906132e4908490613c98565b9250508190555080600160008282546132fd9190613c98565b90915550506040518181526000906001600160a01b03841690600080516020613ed8833981519152906020016132a3565b80516a636f6e736f6c652e6c6f67602083016000808483855afa5050505050565b600082600001828154811061336657613366613d49565b9060005260206000200154905092915050565b60008181526001830160205260408120546133c057508154600181810184556000848152602080822090930184905584548482528286019093526040902091909155610502565b506000610502565b6000807f00000000000000000000000000000000000000000000000000000000000000006001600160a01b031663d7529c9f306040518263ffffffff1660e01b81526004016134179190613982565b604080518083038186803b15801561342e57600080fd5b505afa158015613442573d6000803e3d6000fd5b505050506040513d601f19601f82011682018060405250810190613466919061366d565b90939092509050565b6060816000018054806020026020016040519081016040528092919081815260200182805480156134bf57602002820191906000526020600020905b8154815260200190600101908083116134ab575b50505050509050919050565b60008083601f8401126134dd57600080fd5b5081356001600160401b038111156134f457600080fd5b6020830191508360208260051b850101111561350f57600080fd5b9250929050565b60006020828403121561352857600080fd5b8135612fb481613d75565b60006020828403121561354557600080fd5b8151612fb481613d75565b6000806040838503121561356357600080fd5b823561356e81613d75565b9150602083013561357e81613d75565b809150509250929050565b60008060006060848603121561359e57600080fd5b83356135a981613d75565b925060208401356135b981613d75565b929592945050506040919091013590565b600080600080600080600060e0888a0312156135e557600080fd5b87356135f081613d75565b9650602088013561360081613d75565b95506040880135945060608801359350608088013560ff8116811461362457600080fd5b9699959850939692959460a0840135945060c09093013592915050565b6000806040838503121561365457600080fd5b823561365f81613d75565b946020939093013593505050565b6000806040838503121561368057600080fd5b825161368b81613d75565b6020939093015192949293505050565b600080600080600080608087890312156136b457600080fd5b86356001600160401b03808211156136cb57600080fd5b6136d78a838b016134cb565b909850965060208901359150808211156136f057600080fd5b506136fd89828a016134cb565b90955093505060408701359150606087013561371881613d75565b809150509295509295509295565b6000806040838503121561373957600080fd5b82516001600160401b038082111561375057600080fd5b818501915085601f83011261376457600080fd5b815160208282111561377857613778613d5f565b8160051b9250613789818401613bea565b8281528181019085830185870184018b10156137a457600080fd5b600096505b848710156137c75780518352600196909601959183019183016137a9565b5097909101519698969750505050505050565b6000602082840312156137ec57600080fd5b81518015158114612fb457600080fd5b60006020828403121561380e57600080fd5b81516001600160401b038082111561382557600080fd5b818401915084601f83011261383957600080fd5b81518181111561384b5761384b613d5f565b61385e601f8201601f1916602001613bea565b915080825285602082850101111561387557600080fd5b613886816020840160208601613cd2565b50949350505050565b6000602082840312156138a157600080fd5b815161ffff81168114612fb457600080fd5b6000602082840312156138c557600080fd5b5051919050565b600080604083850312156138df57600080fd5b50508035926020909101359150565b6000806040838503121561390157600080fd5b505080516020909101519092909150565b600081518084526020808501945080840160005b8381101561394b5781516001600160a01b031687529582019590820190600101613926565b509495945050505050565b6000815180845261396e816020860160208601613cd2565b601f01601f19169290920160200192915050565b6001600160a01b0391909116815260200190565b6001600160a01b0392831681529116602082015260400190565b6001600160a01b039384168152919092166020820152604081019190915260600190565b602081526000612fb46020830184613912565b6040815260006139fa6040830185613912565b82810360208481019190915284518083528582019282019060005b81811015613a3457845160ff1683529383019391830191600101613a15565b5090979650505050505050565b60208082528251828201819052600091906040908185019086840185805b83811015613ab357825180516001600160a01b031686528781015160028110613a9657634e487b7160e01b84526021600452602484fd5b868901528601518686015260609094019391860191600101613a5f565b509298975050505050505050565b9182526001600160a01b0316602082015260400190565b602081526000612fb46020830184613956565b604081526000613afe6040830185613956565b905060018060a01b03831660208301529392505050565b604081526000613b286040830185613956565b90508260208301529392505050565b60208082526025908201527f4261736544796e616d6963496e6465783a20494e53554646494349454e545f416040820152641353d5539560da1b606082015260800190565b6020808252601b908201527f4261736544796e616d6963496e6465783a20464f5242494444454e0000000000604082015260600190565b6020808252601f908201527f5265656e7472616e637947756172643a207265656e7472616e742063616c6c00604082015260600190565b604051601f8201601f191681016001600160401b0381118282101715613c1257613c12613d5f565b604052919050565b60008219821115613c2d57613c2d613d33565b500190565b600060ff821660ff84168060ff03821115613c4f57613c4f613d33565b019392505050565b600082613c7457634e487b7160e01b600052601260045260246000fd5b500490565b6000816000190483118215151615613c9357613c93613d33565b500290565b600082821015613caa57613caa613d33565b500390565b600060ff821660ff841680821015613cc957613cc9613d33565b90039392505050565b60005b83811015613ced578181015183820152602001613cd5565b83811115613cfc576000848401525b50505050565b6000600019821415613d1657613d16613d33565b5060010190565b634e487b7160e01b600052600160045260246000fd5b634e487b7160e01b600052601160045260246000fd5b634e487b7160e01b600052603260045260246000fd5b634e487b7160e01b600052604160045260246000fd5b6001600160a01b038116811461323257600080fdfe547261636b6564496e6465782e72657765696768742064696666202873656c6c294261736544796e616d6963496e6465782e6d696e74206c617374417373657442616c616e6365496e426173654261736544796e616d6963496e6465782e6d696e7420617373657442616c616e63654f6686d5cf0a6bdc8d859ba3bdc97043337c82a0e609035f378e419298b6a3e00ae64261736544796e616d6963496e6465782e6d696e7420616d6f756e74496e41737365744261736544796e616d6963496e6465782e6d696e7420746f74616c537570706c79547261636b6564496e6465782e7265776569676874207669727475616c4576616c756174696f6e496e426173654261736544796e616d6963496e6465782e6d696e74206c61737442616c616e6365496e41737365744261736544796e616d6963496e6465782e6d696e742077656967687465645072696365ddf252ad1be2c89b69c2b068fc378daa952ba7f163c4a11628f55a4df523b3ef4261736544796e616d6963496e6465782e6d696e74205f6d696e416d6f756e74496e426173654261736544796e616d6963496e6465782e6d696e7420617373657442616c616e63654f66436865636b4261736544796e616d6963496e6465782e6d696e742076616c7565202d20666565a264697066735822122048f1dbe32e3f36fb4c91985197852b2ef2701f02997ebd7204712b8d872856b964736f6c63430008070033",
  "linkReferences": {},
  "deployedLinkReferences": {}
}